{
	"FunctionsConsumer.sol": {
		"FunctionsConsumer": {
			"abi": [
				{
					"inputs": [
						{
							"internalType": "address",
							"name": "oracle",
							"type": "address"
						}
					],
					"stateMutability": "nonpayable",
					"type": "constructor"
				},
				{
					"inputs": [],
					"name": "EmptyArgs",
					"type": "error"
				},
				{
					"inputs": [],
					"name": "EmptySecrets",
					"type": "error"
				},
				{
					"inputs": [],
					"name": "EmptySource",
					"type": "error"
				},
				{
					"inputs": [],
					"name": "RequestIsAlreadyPending",
					"type": "error"
				},
				{
					"inputs": [],
					"name": "RequestIsNotPending",
					"type": "error"
				},
				{
					"inputs": [],
					"name": "SenderIsNotRegistry",
					"type": "error"
				},
				{
					"anonymous": false,
					"inputs": [
						{
							"indexed": true,
							"internalType": "bytes32",
							"name": "requestId",
							"type": "bytes32"
						},
						{
							"indexed": false,
							"internalType": "bytes",
							"name": "result",
							"type": "bytes"
						},
						{
							"indexed": false,
							"internalType": "bytes",
							"name": "err",
							"type": "bytes"
						}
					],
					"name": "OCRResponse",
					"type": "event"
				},
				{
					"anonymous": false,
					"inputs": [
						{
							"indexed": true,
							"internalType": "address",
							"name": "from",
							"type": "address"
						},
						{
							"indexed": true,
							"internalType": "address",
							"name": "to",
							"type": "address"
						}
					],
					"name": "OwnershipTransferRequested",
					"type": "event"
				},
				{
					"anonymous": false,
					"inputs": [
						{
							"indexed": true,
							"internalType": "address",
							"name": "from",
							"type": "address"
						},
						{
							"indexed": true,
							"internalType": "address",
							"name": "to",
							"type": "address"
						}
					],
					"name": "OwnershipTransferred",
					"type": "event"
				},
				{
					"anonymous": false,
					"inputs": [
						{
							"indexed": true,
							"internalType": "bytes32",
							"name": "id",
							"type": "bytes32"
						}
					],
					"name": "RequestFulfilled",
					"type": "event"
				},
				{
					"anonymous": false,
					"inputs": [
						{
							"indexed": true,
							"internalType": "bytes32",
							"name": "id",
							"type": "bytes32"
						}
					],
					"name": "RequestSent",
					"type": "event"
				},
				{
					"inputs": [],
					"name": "acceptOwnership",
					"outputs": [],
					"stateMutability": "nonpayable",
					"type": "function"
				},
				{
					"inputs": [
						{
							"internalType": "address",
							"name": "oracleAddress",
							"type": "address"
						},
						{
							"internalType": "bytes32",
							"name": "requestId",
							"type": "bytes32"
						}
					],
					"name": "addSimulatedRequestId",
					"outputs": [],
					"stateMutability": "nonpayable",
					"type": "function"
				},
				{
					"inputs": [
						{
							"components": [
								{
									"internalType": "enum Functions.Location",
									"name": "codeLocation",
									"type": "uint8"
								},
								{
									"internalType": "enum Functions.Location",
									"name": "secretsLocation",
									"type": "uint8"
								},
								{
									"internalType": "enum Functions.CodeLanguage",
									"name": "language",
									"type": "uint8"
								},
								{
									"internalType": "string",
									"name": "source",
									"type": "string"
								},
								{
									"internalType": "bytes",
									"name": "secrets",
									"type": "bytes"
								},
								{
									"internalType": "string[]",
									"name": "args",
									"type": "string[]"
								}
							],
							"internalType": "struct Functions.Request",
							"name": "req",
							"type": "tuple"
						},
						{
							"internalType": "uint64",
							"name": "subscriptionId",
							"type": "uint64"
						},
						{
							"internalType": "uint32",
							"name": "gasLimit",
							"type": "uint32"
						},
						{
							"internalType": "uint256",
							"name": "gasPrice",
							"type": "uint256"
						}
					],
					"name": "estimateCost",
					"outputs": [
						{
							"internalType": "uint96",
							"name": "",
							"type": "uint96"
						}
					],
					"stateMutability": "view",
					"type": "function"
				},
				{
					"inputs": [
						{
							"internalType": "string",
							"name": "source",
							"type": "string"
						},
						{
							"internalType": "bytes",
							"name": "secrets",
							"type": "bytes"
						},
						{
							"internalType": "enum Functions.Location",
							"name": "secretsLocation",
							"type": "uint8"
						},
						{
							"internalType": "string[]",
							"name": "args",
							"type": "string[]"
						},
						{
							"internalType": "uint64",
							"name": "subscriptionId",
							"type": "uint64"
						},
						{
							"internalType": "uint32",
							"name": "gasLimit",
							"type": "uint32"
						}
					],
					"name": "executeRequest",
					"outputs": [
						{
							"internalType": "bytes32",
							"name": "",
							"type": "bytes32"
						}
					],
					"stateMutability": "nonpayable",
					"type": "function"
				},
				{
					"inputs": [],
					"name": "getDONPublicKey",
					"outputs": [
						{
							"internalType": "bytes",
							"name": "",
							"type": "bytes"
						}
					],
					"stateMutability": "view",
					"type": "function"
				},
				{
					"inputs": [
						{
							"internalType": "bytes32",
							"name": "requestId",
							"type": "bytes32"
						},
						{
							"internalType": "bytes",
							"name": "response",
							"type": "bytes"
						},
						{
							"internalType": "bytes",
							"name": "err",
							"type": "bytes"
						}
					],
					"name": "handleOracleFulfillment",
					"outputs": [],
					"stateMutability": "nonpayable",
					"type": "function"
				},
				{
					"inputs": [],
					"name": "latestError",
					"outputs": [
						{
							"internalType": "bytes",
							"name": "",
							"type": "bytes"
						}
					],
					"stateMutability": "view",
					"type": "function"
				},
				{
					"inputs": [],
					"name": "latestRequestId",
					"outputs": [
						{
							"internalType": "bytes32",
							"name": "",
							"type": "bytes32"
						}
					],
					"stateMutability": "view",
					"type": "function"
				},
				{
					"inputs": [],
					"name": "latestResponse",
					"outputs": [
						{
							"internalType": "bytes",
							"name": "",
							"type": "bytes"
						}
					],
					"stateMutability": "view",
					"type": "function"
				},
				{
					"inputs": [],
					"name": "owner",
					"outputs": [
						{
							"internalType": "address",
							"name": "",
							"type": "address"
						}
					],
					"stateMutability": "view",
					"type": "function"
				},
				{
					"inputs": [
						{
							"internalType": "address",
							"name": "to",
							"type": "address"
						}
					],
					"name": "transferOwnership",
					"outputs": [],
					"stateMutability": "nonpayable",
					"type": "function"
				},
				{
					"inputs": [
						{
							"internalType": "address",
							"name": "oracle",
							"type": "address"
						}
					],
					"name": "updateOracleAddress",
					"outputs": [],
					"stateMutability": "nonpayable",
					"type": "function"
				}
			],
			"devdoc": {
				"kind": "dev",
				"methods": {
					"constructor": {
						"params": {
							"oracle": "- The FunctionsOracle contract"
						}
					},
					"estimateCost((uint8,uint8,uint8,string,bytes,string[]),uint64,uint32,uint256)": {
						"params": {
							"gasLimit": "gas limit for the fulfillment callback",
							"req": "The initialized Functions.Request",
							"subscriptionId": "The subscription ID"
						},
						"returns": {
							"_0": "billedCost Cost in Juels (1e18) of LINK"
						}
					},
					"executeRequest(string,bytes,uint8,string[],uint64,uint32)": {
						"params": {
							"args": "List of arguments accessible from within the source code",
							"gasLimit": "Maximum amount of gas used to call the client contract's `handleOracleFulfillment` function",
							"secrets": "Encrypted secrets payload",
							"secretsLocation": "Location of encrypted secrets (0 for inline, 1 for remote)",
							"source": "JavaScript source code",
							"subscriptionId": "Funtions billing subscription ID"
						},
						"returns": {
							"_0": "Functions request ID"
						}
					},
					"getDONPublicKey()": {
						"details": "All Oracles nodes have the corresponding private key needed to decrypt the secrets encrypted with the public key",
						"returns": {
							"_0": "publicKey DON's public key"
						}
					},
					"handleOracleFulfillment(bytes32,bytes,bytes)": {
						"params": {
							"err": "Aggregated error either from the user code or from the execution pipeline. Either response or error parameter will be set, but never both.",
							"requestId": "The requestId returned by FunctionsClient.sendRequest().",
							"response": "Aggregated response from the user code."
						}
					},
					"updateOracleAddress(address)": {
						"params": {
							"oracle": "New oracle address"
						}
					}
				},
				"title": "Functions Consumer contract",
				"version": 1
			},
			"evm": {
				"assembly": "    /* \"FunctionsConsumer.sol\":487:3230  contract FunctionsConsumer is FunctionsClient, ConfirmedOwner {... */\n  mstore(0x40, 0x80)\n    /* \"FunctionsConsumer.sol\":914:995  constructor(address oracle) FunctionsClient(oracle) ConfirmedOwner(msg.sender) {} */\n  callvalue\n  dup1\n  iszero\n  tag_1\n  jumpi\n  0x00\n  dup1\n  revert\ntag_1:\n  pop\n  mload(0x40)\n  sub(codesize, bytecodeSize)\n  dup1\n  bytecodeSize\n  dup4\n  codecopy\n  dup2\n  dup2\n  add\n  0x40\n  mstore\n  dup2\n  add\n  swap1\n  tag_2\n  swap2\n  swap1\n  tag_3\n  jump\t// in\ntag_2:\n    /* \"FunctionsConsumer.sol\":981:991  msg.sender */\n  caller\n    /* \"@chainlink/contracts/src/v0.8/ConfirmedOwner.sol\":327:335  newOwner */\n  dup1\n    /* \"@chainlink/contracts/src/v0.8/ConfirmedOwner.sol\":345:346  0 */\n  0x00\n    /* \"FunctionsConsumer.sol\":958:964  oracle */\n  dup4\n    /* \"https://github.com/smartcontractkit/functions-hardhat-starter-kit/blob/main/contracts/dev/functions/FunctionsClient.sol\":741:758  setOracle(oracle) */\n  tag_9\n    /* \"https://github.com/smartcontractkit/functions-hardhat-starter-kit/blob/main/contracts/dev/functions/FunctionsClient.sol\":751:757  oracle */\n  dup2\n    /* \"https://github.com/smartcontractkit/functions-hardhat-starter-kit/blob/main/contracts/dev/functions/FunctionsClient.sol\":741:750  setOracle */\n  shl(0x20, tag_10)\n    /* \"https://github.com/smartcontractkit/functions-hardhat-starter-kit/blob/main/contracts/dev/functions/FunctionsClient.sol\":741:758  setOracle(oracle) */\n  0x20\n  shr\n  jump\t// in\ntag_9:\n    /* \"https://github.com/smartcontractkit/functions-hardhat-starter-kit/blob/main/contracts/dev/functions/FunctionsClient.sol\":707:763  constructor(address oracle) {... */\n  pop\n    /* \"@chainlink/contracts/src/v0.8/ConfirmedOwnerWithProposal.sol\":572:573  0 */\n  0x00\n    /* \"@chainlink/contracts/src/v0.8/ConfirmedOwnerWithProposal.sol\":552:574  newOwner != address(0) */\n  0xffffffffffffffffffffffffffffffffffffffff\n  and\n    /* \"@chainlink/contracts/src/v0.8/ConfirmedOwnerWithProposal.sol\":552:560  newOwner */\n  dup3\n    /* \"@chainlink/contracts/src/v0.8/ConfirmedOwnerWithProposal.sol\":552:574  newOwner != address(0) */\n  0xffffffffffffffffffffffffffffffffffffffff\n  and\n  sub\n    /* \"@chainlink/contracts/src/v0.8/ConfirmedOwnerWithProposal.sol\":544:603  require(newOwner != address(0), \"Cannot set owner to zero\") */\n  tag_12\n  jumpi\n  mload(0x40)\n  0x08c379a000000000000000000000000000000000000000000000000000000000\n  dup2\n  mstore\n  0x04\n  add\n  tag_13\n  swap1\n  tag_14\n  jump\t// in\ntag_13:\n  mload(0x40)\n  dup1\n  swap2\n  sub\n  swap1\n  revert\ntag_12:\n    /* \"@chainlink/contracts/src/v0.8/ConfirmedOwnerWithProposal.sol\":620:628  newOwner */\n  dup2\n    /* \"@chainlink/contracts/src/v0.8/ConfirmedOwnerWithProposal.sol\":610:617  s_owner */\n  0x02\n  0x00\n    /* \"@chainlink/contracts/src/v0.8/ConfirmedOwnerWithProposal.sol\":610:628  s_owner = newOwner */\n  0x0100\n  exp\n  dup2\n  sload\n  dup2\n  0xffffffffffffffffffffffffffffffffffffffff\n  mul\n  not\n  and\n  swap1\n  dup4\n  0xffffffffffffffffffffffffffffffffffffffff\n  and\n  mul\n  or\n  swap1\n  sstore\n  pop\n    /* \"@chainlink/contracts/src/v0.8/ConfirmedOwnerWithProposal.sol\":662:663  0 */\n  0x00\n    /* \"@chainlink/contracts/src/v0.8/ConfirmedOwnerWithProposal.sol\":638:664  pendingOwner != address(0) */\n  0xffffffffffffffffffffffffffffffffffffffff\n  and\n    /* \"@chainlink/contracts/src/v0.8/ConfirmedOwnerWithProposal.sol\":638:650  pendingOwner */\n  dup2\n    /* \"@chainlink/contracts/src/v0.8/ConfirmedOwnerWithProposal.sol\":638:664  pendingOwner != address(0) */\n  0xffffffffffffffffffffffffffffffffffffffff\n  and\n  eq\n    /* \"@chainlink/contracts/src/v0.8/ConfirmedOwnerWithProposal.sol\":634:713  if (pendingOwner != address(0)) {... */\n  tag_15\n  jumpi\n    /* \"@chainlink/contracts/src/v0.8/ConfirmedOwnerWithProposal.sol\":674:706  _transferOwnership(pendingOwner) */\n  tag_16\n    /* \"@chainlink/contracts/src/v0.8/ConfirmedOwnerWithProposal.sol\":693:705  pendingOwner */\n  dup2\n    /* \"@chainlink/contracts/src/v0.8/ConfirmedOwnerWithProposal.sol\":674:692  _transferOwnership */\n  shl(0x20, tag_17)\n    /* \"@chainlink/contracts/src/v0.8/ConfirmedOwnerWithProposal.sol\":674:706  _transferOwnership(pendingOwner) */\n  0x20\n  shr\n  jump\t// in\ntag_16:\n    /* \"@chainlink/contracts/src/v0.8/ConfirmedOwnerWithProposal.sol\":634:713  if (pendingOwner != address(0)) {... */\ntag_15:\n    /* \"@chainlink/contracts/src/v0.8/ConfirmedOwnerWithProposal.sol\":486:717  constructor(address newOwner, address pendingOwner) {... */\n  pop\n  pop\n    /* \"@chainlink/contracts/src/v0.8/ConfirmedOwner.sol\":270:351  constructor(address newOwner) ConfirmedOwnerWithProposal(newOwner, address(0)) {} */\n  pop\n    /* \"FunctionsConsumer.sol\":914:995  constructor(address oracle) FunctionsClient(oracle) ConfirmedOwner(msg.sender) {} */\n  pop\n    /* \"FunctionsConsumer.sol\":487:3230  contract FunctionsConsumer is FunctionsClient, ConfirmedOwner {... */\n  jump(tag_20)\n    /* \"https://github.com/smartcontractkit/functions-hardhat-starter-kit/blob/main/contracts/dev/functions/FunctionsClient.sol\":3081:3179  function setOracle(address oracle) internal {... */\ntag_10:\n    /* \"https://github.com/smartcontractkit/functions-hardhat-starter-kit/blob/main/contracts/dev/functions/FunctionsClient.sol\":3167:3173  oracle */\n  dup1\n    /* \"https://github.com/smartcontractkit/functions-hardhat-starter-kit/blob/main/contracts/dev/functions/FunctionsClient.sol\":3131:3139  s_oracle */\n  0x00\n  dup1\n    /* \"https://github.com/smartcontractkit/functions-hardhat-starter-kit/blob/main/contracts/dev/functions/FunctionsClient.sol\":3131:3174  s_oracle = FunctionsOracleInterface(oracle) */\n  0x0100\n  exp\n  dup2\n  sload\n  dup2\n  0xffffffffffffffffffffffffffffffffffffffff\n  mul\n  not\n  and\n  swap1\n  dup4\n  0xffffffffffffffffffffffffffffffffffffffff\n  and\n  mul\n  or\n  swap1\n  sstore\n  pop\n    /* \"https://github.com/smartcontractkit/functions-hardhat-starter-kit/blob/main/contracts/dev/functions/FunctionsClient.sol\":3081:3179  function setOracle(address oracle) internal {... */\n  pop\n  jump\t// out\n    /* \"@chainlink/contracts/src/v0.8/ConfirmedOwnerWithProposal.sol\":1497:1685  function _transferOwnership(address to) private {... */\ntag_17:\n    /* \"@chainlink/contracts/src/v0.8/ConfirmedOwnerWithProposal.sol\":1565:1575  msg.sender */\n  caller\n    /* \"@chainlink/contracts/src/v0.8/ConfirmedOwnerWithProposal.sol\":1559:1575  to != msg.sender */\n  0xffffffffffffffffffffffffffffffffffffffff\n  and\n    /* \"@chainlink/contracts/src/v0.8/ConfirmedOwnerWithProposal.sol\":1559:1561  to */\n  dup2\n    /* \"@chainlink/contracts/src/v0.8/ConfirmedOwnerWithProposal.sol\":1559:1575  to != msg.sender */\n  0xffffffffffffffffffffffffffffffffffffffff\n  and\n  sub\n    /* \"@chainlink/contracts/src/v0.8/ConfirmedOwnerWithProposal.sol\":1551:1603  require(to != msg.sender, \"Cannot transfer to self\") */\n  tag_23\n  jumpi\n  mload(0x40)\n  0x08c379a000000000000000000000000000000000000000000000000000000000\n  dup2\n  mstore\n  0x04\n  add\n  tag_24\n  swap1\n  tag_25\n  jump\t// in\ntag_24:\n  mload(0x40)\n  dup1\n  swap2\n  sub\n  swap1\n  revert\ntag_23:\n    /* \"@chainlink/contracts/src/v0.8/ConfirmedOwnerWithProposal.sol\":1627:1629  to */\n  dup1\n    /* \"@chainlink/contracts/src/v0.8/ConfirmedOwnerWithProposal.sol\":1610:1624  s_pendingOwner */\n  0x03\n  0x00\n    /* \"@chainlink/contracts/src/v0.8/ConfirmedOwnerWithProposal.sol\":1610:1629  s_pendingOwner = to */\n  0x0100\n  exp\n  dup2\n  sload\n  dup2\n  0xffffffffffffffffffffffffffffffffffffffff\n  mul\n  not\n  and\n  swap1\n  dup4\n  0xffffffffffffffffffffffffffffffffffffffff\n  and\n  mul\n  or\n  swap1\n  sstore\n  pop\n    /* \"@chainlink/contracts/src/v0.8/ConfirmedOwnerWithProposal.sol\":1677:1679  to */\n  dup1\n    /* \"@chainlink/contracts/src/v0.8/ConfirmedOwnerWithProposal.sol\":1641:1680  OwnershipTransferRequested(s_owner, to) */\n  0xffffffffffffffffffffffffffffffffffffffff\n  and\n    /* \"@chainlink/contracts/src/v0.8/ConfirmedOwnerWithProposal.sol\":1668:1675  s_owner */\n  0x02\n  0x00\n  swap1\n  sload\n  swap1\n  0x0100\n  exp\n  swap1\n  div\n  0xffffffffffffffffffffffffffffffffffffffff\n  and\n    /* \"@chainlink/contracts/src/v0.8/ConfirmedOwnerWithProposal.sol\":1641:1680  OwnershipTransferRequested(s_owner, to) */\n  0xffffffffffffffffffffffffffffffffffffffff\n  and\n  0xed8889f560326eb138920d842192f0eb3dd22b4f139c87a2c57538e05bae1278\n  mload(0x40)\n  mload(0x40)\n  dup1\n  swap2\n  sub\n  swap1\n  log3\n    /* \"@chainlink/contracts/src/v0.8/ConfirmedOwnerWithProposal.sol\":1497:1685  function _transferOwnership(address to) private {... */\n  pop\n  jump\t// out\n    /* \"#utility.yul\":88:205   */\ntag_27:\n    /* \"#utility.yul\":197:198   */\n  0x00\n    /* \"#utility.yul\":194:195   */\n  dup1\n    /* \"#utility.yul\":187:199   */\n  revert\n    /* \"#utility.yul\":334:460   */\ntag_29:\n    /* \"#utility.yul\":371:378   */\n  0x00\n    /* \"#utility.yul\":411:453   */\n  0xffffffffffffffffffffffffffffffffffffffff\n    /* \"#utility.yul\":404:409   */\n  dup3\n    /* \"#utility.yul\":400:454   */\n  and\n    /* \"#utility.yul\":389:454   */\n  swap1\n  pop\n    /* \"#utility.yul\":334:460   */\n  swap2\n  swap1\n  pop\n  jump\t// out\n    /* \"#utility.yul\":466:562   */\ntag_30:\n    /* \"#utility.yul\":503:510   */\n  0x00\n    /* \"#utility.yul\":532:556   */\n  tag_44\n    /* \"#utility.yul\":550:555   */\n  dup3\n    /* \"#utility.yul\":532:556   */\n  tag_29\n  jump\t// in\ntag_44:\n    /* \"#utility.yul\":521:556   */\n  swap1\n  pop\n    /* \"#utility.yul\":466:562   */\n  swap2\n  swap1\n  pop\n  jump\t// out\n    /* \"#utility.yul\":568:690   */\ntag_31:\n    /* \"#utility.yul\":641:665   */\n  tag_46\n    /* \"#utility.yul\":659:664   */\n  dup2\n    /* \"#utility.yul\":641:665   */\n  tag_30\n  jump\t// in\ntag_46:\n    /* \"#utility.yul\":634:639   */\n  dup2\n    /* \"#utility.yul\":631:666   */\n  eq\n    /* \"#utility.yul\":621:684   */\n  tag_47\n  jumpi\n    /* \"#utility.yul\":680:681   */\n  0x00\n    /* \"#utility.yul\":677:678   */\n  dup1\n    /* \"#utility.yul\":670:682   */\n  revert\n    /* \"#utility.yul\":621:684   */\ntag_47:\n    /* \"#utility.yul\":568:690   */\n  pop\n  jump\t// out\n    /* \"#utility.yul\":696:839   */\ntag_32:\n    /* \"#utility.yul\":753:758   */\n  0x00\n    /* \"#utility.yul\":784:790   */\n  dup2\n    /* \"#utility.yul\":778:791   */\n  mload\n    /* \"#utility.yul\":769:791   */\n  swap1\n  pop\n    /* \"#utility.yul\":800:833   */\n  tag_49\n    /* \"#utility.yul\":827:832   */\n  dup2\n    /* \"#utility.yul\":800:833   */\n  tag_31\n  jump\t// in\ntag_49:\n    /* \"#utility.yul\":696:839   */\n  swap3\n  swap2\n  pop\n  pop\n  jump\t// out\n    /* \"#utility.yul\":845:1196   */\ntag_3:\n    /* \"#utility.yul\":915:921   */\n  0x00\n    /* \"#utility.yul\":964:966   */\n  0x20\n    /* \"#utility.yul\":952:961   */\n  dup3\n    /* \"#utility.yul\":943:950   */\n  dup5\n    /* \"#utility.yul\":939:962   */\n  sub\n    /* \"#utility.yul\":935:967   */\n  slt\n    /* \"#utility.yul\":932:1051   */\n  iszero\n  tag_51\n  jumpi\n    /* \"#utility.yul\":970:1049   */\n  tag_52\n  tag_27\n  jump\t// in\ntag_52:\n    /* \"#utility.yul\":932:1051   */\ntag_51:\n    /* \"#utility.yul\":1090:1091   */\n  0x00\n    /* \"#utility.yul\":1115:1179   */\n  tag_53\n    /* \"#utility.yul\":1171:1178   */\n  dup5\n    /* \"#utility.yul\":1162:1168   */\n  dup3\n    /* \"#utility.yul\":1151:1160   */\n  dup6\n    /* \"#utility.yul\":1147:1169   */\n  add\n    /* \"#utility.yul\":1115:1179   */\n  tag_32\n  jump\t// in\ntag_53:\n    /* \"#utility.yul\":1105:1179   */\n  swap2\n  pop\n    /* \"#utility.yul\":1061:1189   */\n  pop\n    /* \"#utility.yul\":845:1196   */\n  swap3\n  swap2\n  pop\n  pop\n  jump\t// out\n    /* \"#utility.yul\":1202:1371   */\ntag_33:\n    /* \"#utility.yul\":1286:1297   */\n  0x00\n    /* \"#utility.yul\":1320:1326   */\n  dup3\n    /* \"#utility.yul\":1315:1318   */\n  dup3\n    /* \"#utility.yul\":1308:1327   */\n  mstore\n    /* \"#utility.yul\":1360:1364   */\n  0x20\n    /* \"#utility.yul\":1355:1358   */\n  dup3\n    /* \"#utility.yul\":1351:1365   */\n  add\n    /* \"#utility.yul\":1336:1365   */\n  swap1\n  pop\n    /* \"#utility.yul\":1202:1371   */\n  swap3\n  swap2\n  pop\n  pop\n  jump\t// out\n    /* \"#utility.yul\":1377:1551   */\ntag_34:\n    /* \"#utility.yul\":1517:1543   */\n  0x43616e6e6f7420736574206f776e657220746f207a65726f0000000000000000\n    /* \"#utility.yul\":1513:1514   */\n  0x00\n    /* \"#utility.yul\":1505:1511   */\n  dup3\n    /* \"#utility.yul\":1501:1515   */\n  add\n    /* \"#utility.yul\":1494:1544   */\n  mstore\n    /* \"#utility.yul\":1377:1551   */\n  pop\n  jump\t// out\n    /* \"#utility.yul\":1557:1923   */\ntag_35:\n    /* \"#utility.yul\":1699:1702   */\n  0x00\n    /* \"#utility.yul\":1720:1787   */\n  tag_57\n    /* \"#utility.yul\":1784:1786   */\n  0x18\n    /* \"#utility.yul\":1779:1782   */\n  dup4\n    /* \"#utility.yul\":1720:1787   */\n  tag_33\n  jump\t// in\ntag_57:\n    /* \"#utility.yul\":1713:1787   */\n  swap2\n  pop\n    /* \"#utility.yul\":1796:1889   */\n  tag_58\n    /* \"#utility.yul\":1885:1888   */\n  dup3\n    /* \"#utility.yul\":1796:1889   */\n  tag_34\n  jump\t// in\ntag_58:\n    /* \"#utility.yul\":1914:1916   */\n  0x20\n    /* \"#utility.yul\":1909:1912   */\n  dup3\n    /* \"#utility.yul\":1905:1917   */\n  add\n    /* \"#utility.yul\":1898:1917   */\n  swap1\n  pop\n    /* \"#utility.yul\":1557:1923   */\n  swap2\n  swap1\n  pop\n  jump\t// out\n    /* \"#utility.yul\":1929:2348   */\ntag_14:\n    /* \"#utility.yul\":2095:2099   */\n  0x00\n    /* \"#utility.yul\":2133:2135   */\n  0x20\n    /* \"#utility.yul\":2122:2131   */\n  dup3\n    /* \"#utility.yul\":2118:2136   */\n  add\n    /* \"#utility.yul\":2110:2136   */\n  swap1\n  pop\n    /* \"#utility.yul\":2182:2191   */\n  dup2\n    /* \"#utility.yul\":2176:2180   */\n  dup2\n    /* \"#utility.yul\":2172:2192   */\n  sub\n    /* \"#utility.yul\":2168:2169   */\n  0x00\n    /* \"#utility.yul\":2157:2166   */\n  dup4\n    /* \"#utility.yul\":2153:2170   */\n  add\n    /* \"#utility.yul\":2146:2193   */\n  mstore\n    /* \"#utility.yul\":2210:2341   */\n  tag_60\n    /* \"#utility.yul\":2336:2340   */\n  dup2\n    /* \"#utility.yul\":2210:2341   */\n  tag_35\n  jump\t// in\ntag_60:\n    /* \"#utility.yul\":2202:2341   */\n  swap1\n  pop\n    /* \"#utility.yul\":1929:2348   */\n  swap2\n  swap1\n  pop\n  jump\t// out\n    /* \"#utility.yul\":2354:2527   */\ntag_36:\n    /* \"#utility.yul\":2494:2519   */\n  0x43616e6e6f74207472616e7366657220746f2073656c66000000000000000000\n    /* \"#utility.yul\":2490:2491   */\n  0x00\n    /* \"#utility.yul\":2482:2488   */\n  dup3\n    /* \"#utility.yul\":2478:2492   */\n  add\n    /* \"#utility.yul\":2471:2520   */\n  mstore\n    /* \"#utility.yul\":2354:2527   */\n  pop\n  jump\t// out\n    /* \"#utility.yul\":2533:2899   */\ntag_37:\n    /* \"#utility.yul\":2675:2678   */\n  0x00\n    /* \"#utility.yul\":2696:2763   */\n  tag_63\n    /* \"#utility.yul\":2760:2762   */\n  0x17\n    /* \"#utility.yul\":2755:2758   */\n  dup4\n    /* \"#utility.yul\":2696:2763   */\n  tag_33\n  jump\t// in\ntag_63:\n    /* \"#utility.yul\":2689:2763   */\n  swap2\n  pop\n    /* \"#utility.yul\":2772:2865   */\n  tag_64\n    /* \"#utility.yul\":2861:2864   */\n  dup3\n    /* \"#utility.yul\":2772:2865   */\n  tag_36\n  jump\t// in\ntag_64:\n    /* \"#utility.yul\":2890:2892   */\n  0x20\n    /* \"#utility.yul\":2885:2888   */\n  dup3\n    /* \"#utility.yul\":2881:2893   */\n  add\n    /* \"#utility.yul\":2874:2893   */\n  swap1\n  pop\n    /* \"#utility.yul\":2533:2899   */\n  swap2\n  swap1\n  pop\n  jump\t// out\n    /* \"#utility.yul\":2905:3324   */\ntag_25:\n    /* \"#utility.yul\":3071:3075   */\n  0x00\n    /* \"#utility.yul\":3109:3111   */\n  0x20\n    /* \"#utility.yul\":3098:3107   */\n  dup3\n    /* \"#utility.yul\":3094:3112   */\n  add\n    /* \"#utility.yul\":3086:3112   */\n  swap1\n  pop\n    /* \"#utility.yul\":3158:3167   */\n  dup2\n    /* \"#utility.yul\":3152:3156   */\n  dup2\n    /* \"#utility.yul\":3148:3168   */\n  sub\n    /* \"#utility.yul\":3144:3145   */\n  0x00\n    /* \"#utility.yul\":3133:3142   */\n  dup4\n    /* \"#utility.yul\":3129:3146   */\n  add\n    /* \"#utility.yul\":3122:3169   */\n  mstore\n    /* \"#utility.yul\":3186:3317   */\n  tag_66\n    /* \"#utility.yul\":3312:3316   */\n  dup2\n    /* \"#utility.yul\":3186:3317   */\n  tag_37\n  jump\t// in\ntag_66:\n    /* \"#utility.yul\":3178:3317   */\n  swap1\n  pop\n    /* \"#utility.yul\":2905:3324   */\n  swap2\n  swap1\n  pop\n  jump\t// out\n    /* \"FunctionsConsumer.sol\":487:3230  contract FunctionsConsumer is FunctionsClient, ConfirmedOwner {... */\ntag_20:\n  dataSize(sub_0)\n  dup1\n  dataOffset(sub_0)\n  0x00\n  codecopy\n  0x00\n  return\nstop\n\nsub_0: assembly {\n        /* \"FunctionsConsumer.sol\":487:3230  contract FunctionsConsumer is FunctionsClient, ConfirmedOwner {... */\n      mstore(0x40, 0x80)\n      callvalue\n      dup1\n      iszero\n      tag_1\n      jumpi\n      0x00\n      dup1\n      revert\n    tag_1:\n      pop\n      jumpi(tag_2, lt(calldatasize, 0x04))\n      shr(0xe0, calldataload(0x00))\n      dup1\n      0xd22b224a\n      gt\n      tag_15\n      jumpi\n      dup1\n      0xd22b224a\n      eq\n      tag_9\n      jumpi\n      dup1\n      0xd328a91e\n      eq\n      tag_10\n      jumpi\n      dup1\n      0xd4b39175\n      eq\n      tag_11\n      jumpi\n      dup1\n      0xf2fde38b\n      eq\n      tag_12\n      jumpi\n      dup1\n      0xf7023bb6\n      eq\n      tag_13\n      jumpi\n      dup1\n      0xfffeb84e\n      eq\n      tag_14\n      jumpi\n      jump(tag_2)\n    tag_15:\n      dup1\n      0x0ca76175\n      eq\n      tag_3\n      jumpi\n      dup1\n      0x1aa46f59\n      eq\n      tag_4\n      jumpi\n      dup1\n      0x30bda99d\n      eq\n      tag_5\n      jumpi\n      dup1\n      0x79ba5097\n      eq\n      tag_6\n      jumpi\n      dup1\n      0x8da5cb5b\n      eq\n      tag_7\n      jumpi\n      dup1\n      0xbef3a2f0\n      eq\n      tag_8\n      jumpi\n    tag_2:\n      0x00\n      dup1\n      revert\n        /* \"https://github.com/smartcontractkit/functions-hardhat-starter-kit/blob/main/contracts/dev/functions/FunctionsClient.sol\":2745:2961  function handleOracleFulfillment(... */\n    tag_3:\n      tag_16\n      0x04\n      dup1\n      calldatasize\n      sub\n      dup2\n      add\n      swap1\n      tag_17\n      swap2\n      swap1\n      tag_18\n      jump\t// in\n    tag_17:\n      tag_19\n      jump\t// in\n    tag_16:\n      stop\n        /* \"FunctionsConsumer.sol\":595:625  bytes32 public latestRequestId */\n    tag_4:\n      tag_20\n      tag_21\n      jump\t// in\n    tag_20:\n      mload(0x40)\n      tag_22\n      swap2\n      swap1\n      tag_23\n      jump\t// in\n    tag_22:\n      mload(0x40)\n      dup1\n      swap2\n      sub\n      swap1\n      return\n        /* \"FunctionsConsumer.sol\":3083:3228  function addSimulatedRequestId(address oracleAddress, bytes32 requestId) public onlyOwner {... */\n    tag_5:\n      tag_24\n      0x04\n      dup1\n      calldatasize\n      sub\n      dup2\n      add\n      swap1\n      tag_25\n      swap2\n      swap1\n      tag_26\n      jump\t// in\n    tag_25:\n      tag_27\n      jump\t// in\n    tag_24:\n      stop\n        /* \"@chainlink/contracts/src/v0.8/ConfirmedOwnerWithProposal.sol\":1016:1281  function acceptOwnership() external override {... */\n    tag_6:\n      tag_28\n      tag_29\n      jump\t// in\n    tag_28:\n      stop\n        /* \"@chainlink/contracts/src/v0.8/ConfirmedOwnerWithProposal.sol\":1332:1413  function owner() public view override returns (address) {... */\n    tag_7:\n      tag_30\n      tag_31\n      jump\t// in\n    tag_30:\n      mload(0x40)\n      tag_32\n      swap2\n      swap1\n      tag_33\n      jump\t// in\n    tag_32:\n      mload(0x40)\n      dup1\n      swap2\n      sub\n      swap1\n      return\n        /* \"FunctionsConsumer.sol\":629:656  bytes public latestResponse */\n    tag_8:\n      tag_34\n      tag_35\n      jump\t// in\n    tag_34:\n      mload(0x40)\n      tag_36\n      swap2\n      swap1\n      tag_37\n      jump\t// in\n    tag_36:\n      mload(0x40)\n      dup1\n      swap2\n      sub\n      swap1\n      return\n        /* \"FunctionsConsumer.sol\":1508:2254  function executeRequest(... */\n    tag_9:\n      tag_38\n      0x04\n      dup1\n      calldatasize\n      sub\n      dup2\n      add\n      swap1\n      tag_39\n      swap2\n      swap1\n      tag_40\n      jump\t// in\n    tag_39:\n      tag_41\n      jump\t// in\n    tag_38:\n      mload(0x40)\n      tag_42\n      swap2\n      swap1\n      tag_23\n      jump\t// in\n    tag_42:\n      mload(0x40)\n      dup1\n      swap2\n      sub\n      swap1\n      return\n        /* \"https://github.com/smartcontractkit/functions-hardhat-starter-kit/blob/main/contracts/dev/functions/FunctionsClient.sol\":821:938  function getDONPublicKey() external view override returns (bytes memory) {... */\n    tag_10:\n      tag_43\n      tag_44\n      jump\t// in\n    tag_43:\n      mload(0x40)\n      tag_45\n      swap2\n      swap1\n      tag_37\n      jump\t// in\n    tag_45:\n      mload(0x40)\n      dup1\n      swap2\n      sub\n      swap1\n      return\n        /* \"https://github.com/smartcontractkit/functions-hardhat-starter-kit/blob/main/contracts/dev/functions/FunctionsClient.sol\":1311:1572  function estimateCost(... */\n    tag_11:\n      tag_46\n      0x04\n      dup1\n      calldatasize\n      sub\n      dup2\n      add\n      swap1\n      tag_47\n      swap2\n      swap1\n      tag_48\n      jump\t// in\n    tag_47:\n      tag_49\n      jump\t// in\n    tag_46:\n      mload(0x40)\n      tag_50\n      swap2\n      swap1\n      tag_51\n      jump\t// in\n    tag_50:\n      mload(0x40)\n      dup1\n      swap2\n      sub\n      swap1\n      return\n        /* \"@chainlink/contracts/src/v0.8/ConfirmedOwnerWithProposal.sol\":826:924  function transferOwnership(address to) public override onlyOwner {... */\n    tag_12:\n      tag_52\n      0x04\n      dup1\n      calldatasize\n      sub\n      dup2\n      add\n      swap1\n      tag_53\n      swap2\n      swap1\n      tag_54\n      jump\t// in\n    tag_53:\n      tag_55\n      jump\t// in\n    tag_52:\n      stop\n        /* \"FunctionsConsumer.sol\":2989:3079  function updateOracleAddress(address oracle) public onlyOwner {... */\n    tag_13:\n      tag_56\n      0x04\n      dup1\n      calldatasize\n      sub\n      dup2\n      add\n      swap1\n      tag_57\n      swap2\n      swap1\n      tag_54\n      jump\t// in\n    tag_57:\n      tag_58\n      jump\t// in\n    tag_56:\n      stop\n        /* \"FunctionsConsumer.sol\":660:684  bytes public latestError */\n    tag_14:\n      tag_59\n      tag_60\n      jump\t// in\n    tag_59:\n      mload(0x40)\n      tag_61\n      swap2\n      swap1\n      tag_37\n      jump\t// in\n    tag_61:\n      mload(0x40)\n      dup1\n      swap2\n      sub\n      swap1\n      return\n        /* \"https://github.com/smartcontractkit/functions-hardhat-starter-kit/blob/main/contracts/dev/functions/FunctionsClient.sol\":2745:2961  function handleOracleFulfillment(... */\n    tag_19:\n        /* \"https://github.com/smartcontractkit/functions-hardhat-starter-kit/blob/main/contracts/dev/functions/FunctionsClient.sol\":2899:2908  requestId */\n      dup3\n        /* \"https://github.com/smartcontractkit/functions-hardhat-starter-kit/blob/main/contracts/dev/functions/FunctionsClient.sol\":4106:4123  s_pendingRequests */\n      0x01\n        /* \"https://github.com/smartcontractkit/functions-hardhat-starter-kit/blob/main/contracts/dev/functions/FunctionsClient.sol\":4106:4134  s_pendingRequests[requestId] */\n      0x00\n        /* \"https://github.com/smartcontractkit/functions-hardhat-starter-kit/blob/main/contracts/dev/functions/FunctionsClient.sol\":4124:4133  requestId */\n      dup3\n        /* \"https://github.com/smartcontractkit/functions-hardhat-starter-kit/blob/main/contracts/dev/functions/FunctionsClient.sol\":4106:4134  s_pendingRequests[requestId] */\n      dup2\n      mstore\n      0x20\n      add\n      swap1\n      dup2\n      mstore\n      0x20\n      add\n      0x00\n      keccak256\n      0x00\n      swap1\n      sload\n      swap1\n      0x0100\n      exp\n      swap1\n      div\n      0xffffffffffffffffffffffffffffffffffffffff\n      and\n        /* \"https://github.com/smartcontractkit/functions-hardhat-starter-kit/blob/main/contracts/dev/functions/FunctionsClient.sol\":4092:4134  msg.sender != s_pendingRequests[requestId] */\n      0xffffffffffffffffffffffffffffffffffffffff\n      and\n        /* \"https://github.com/smartcontractkit/functions-hardhat-starter-kit/blob/main/contracts/dev/functions/FunctionsClient.sol\":4092:4102  msg.sender */\n      caller\n        /* \"https://github.com/smartcontractkit/functions-hardhat-starter-kit/blob/main/contracts/dev/functions/FunctionsClient.sol\":4092:4134  msg.sender != s_pendingRequests[requestId] */\n      0xffffffffffffffffffffffffffffffffffffffff\n      and\n      eq\n        /* \"https://github.com/smartcontractkit/functions-hardhat-starter-kit/blob/main/contracts/dev/functions/FunctionsClient.sol\":4088:4179  if (msg.sender != s_pendingRequests[requestId]) {... */\n      tag_63\n      jumpi\n        /* \"https://github.com/smartcontractkit/functions-hardhat-starter-kit/blob/main/contracts/dev/functions/FunctionsClient.sol\":4151:4172  SenderIsNotRegistry() */\n      mload(0x40)\n      0xa0c5ec6300000000000000000000000000000000000000000000000000000000\n      dup2\n      mstore\n      0x04\n      add\n      mload(0x40)\n      dup1\n      swap2\n      sub\n      swap1\n      revert\n        /* \"https://github.com/smartcontractkit/functions-hardhat-starter-kit/blob/main/contracts/dev/functions/FunctionsClient.sol\":4088:4179  if (msg.sender != s_pendingRequests[requestId]) {... */\n    tag_63:\n        /* \"https://github.com/smartcontractkit/functions-hardhat-starter-kit/blob/main/contracts/dev/functions/FunctionsClient.sol\":4191:4208  s_pendingRequests */\n      0x01\n        /* \"https://github.com/smartcontractkit/functions-hardhat-starter-kit/blob/main/contracts/dev/functions/FunctionsClient.sol\":4191:4219  s_pendingRequests[requestId] */\n      0x00\n        /* \"https://github.com/smartcontractkit/functions-hardhat-starter-kit/blob/main/contracts/dev/functions/FunctionsClient.sol\":4209:4218  requestId */\n      dup3\n        /* \"https://github.com/smartcontractkit/functions-hardhat-starter-kit/blob/main/contracts/dev/functions/FunctionsClient.sol\":4191:4219  s_pendingRequests[requestId] */\n      dup2\n      mstore\n      0x20\n      add\n      swap1\n      dup2\n      mstore\n      0x20\n      add\n      0x00\n      keccak256\n      0x00\n        /* \"https://github.com/smartcontractkit/functions-hardhat-starter-kit/blob/main/contracts/dev/functions/FunctionsClient.sol\":4184:4219  delete s_pendingRequests[requestId] */\n      0x0100\n      exp\n      dup2\n      sload\n      swap1\n      0xffffffffffffffffffffffffffffffffffffffff\n      mul\n      not\n      and\n      swap1\n      sstore\n        /* \"https://github.com/smartcontractkit/functions-hardhat-starter-kit/blob/main/contracts/dev/functions/FunctionsClient.sol\":4247:4256  requestId */\n      dup1\n        /* \"https://github.com/smartcontractkit/functions-hardhat-starter-kit/blob/main/contracts/dev/functions/FunctionsClient.sol\":4230:4257  RequestFulfilled(requestId) */\n      0x85e1543bf2f84fe80c6badbce3648c8539ad1df4d2b3d822938ca0538be727e6\n      mload(0x40)\n      mload(0x40)\n      dup1\n      swap2\n      sub\n      swap1\n      log2\n        /* \"https://github.com/smartcontractkit/functions-hardhat-starter-kit/blob/main/contracts/dev/functions/FunctionsClient.sol\":2916:2956  fulfillRequest(requestId, response, err) */\n      tag_65\n        /* \"https://github.com/smartcontractkit/functions-hardhat-starter-kit/blob/main/contracts/dev/functions/FunctionsClient.sol\":2931:2940  requestId */\n      dup5\n        /* \"https://github.com/smartcontractkit/functions-hardhat-starter-kit/blob/main/contracts/dev/functions/FunctionsClient.sol\":2942:2950  response */\n      dup5\n        /* \"https://github.com/smartcontractkit/functions-hardhat-starter-kit/blob/main/contracts/dev/functions/FunctionsClient.sol\":2952:2955  err */\n      dup5\n        /* \"https://github.com/smartcontractkit/functions-hardhat-starter-kit/blob/main/contracts/dev/functions/FunctionsClient.sol\":2916:2930  fulfillRequest */\n      tag_66\n        /* \"https://github.com/smartcontractkit/functions-hardhat-starter-kit/blob/main/contracts/dev/functions/FunctionsClient.sol\":2916:2956  fulfillRequest(requestId, response, err) */\n      jump\t// in\n    tag_65:\n        /* \"https://github.com/smartcontractkit/functions-hardhat-starter-kit/blob/main/contracts/dev/functions/FunctionsClient.sol\":2745:2961  function handleOracleFulfillment(... */\n      pop\n      pop\n      pop\n      pop\n      jump\t// out\n        /* \"FunctionsConsumer.sol\":595:625  bytes32 public latestRequestId */\n    tag_21:\n      sload(0x04)\n      dup2\n      jump\t// out\n        /* \"FunctionsConsumer.sol\":3083:3228  function addSimulatedRequestId(address oracleAddress, bytes32 requestId) public onlyOwner {... */\n    tag_27:\n        /* \"@chainlink/contracts/src/v0.8/ConfirmedOwnerWithProposal.sol\":1956:1976  _validateOwnership() */\n      tag_68\n        /* \"@chainlink/contracts/src/v0.8/ConfirmedOwnerWithProposal.sol\":1956:1974  _validateOwnership */\n      tag_69\n        /* \"@chainlink/contracts/src/v0.8/ConfirmedOwnerWithProposal.sol\":1956:1976  _validateOwnership() */\n      jump\t// in\n    tag_68:\n        /* \"FunctionsConsumer.sol\":3179:3223  addExternalRequest(oracleAddress, requestId) */\n      tag_71\n        /* \"FunctionsConsumer.sol\":3198:3211  oracleAddress */\n      dup3\n        /* \"FunctionsConsumer.sol\":3213:3222  requestId */\n      dup3\n        /* \"FunctionsConsumer.sol\":3179:3197  addExternalRequest */\n      tag_72\n        /* \"FunctionsConsumer.sol\":3179:3223  addExternalRequest(oracleAddress, requestId) */\n      jump\t// in\n    tag_71:\n        /* \"FunctionsConsumer.sol\":3083:3228  function addSimulatedRequestId(address oracleAddress, bytes32 requestId) public onlyOwner {... */\n      pop\n      pop\n      jump\t// out\n        /* \"@chainlink/contracts/src/v0.8/ConfirmedOwnerWithProposal.sol\":1016:1281  function acceptOwnership() external override {... */\n    tag_29:\n        /* \"@chainlink/contracts/src/v0.8/ConfirmedOwnerWithProposal.sol\":1089:1103  s_pendingOwner */\n      0x03\n      0x00\n      swap1\n      sload\n      swap1\n      0x0100\n      exp\n      swap1\n      div\n      0xffffffffffffffffffffffffffffffffffffffff\n      and\n        /* \"@chainlink/contracts/src/v0.8/ConfirmedOwnerWithProposal.sol\":1075:1103  msg.sender == s_pendingOwner */\n      0xffffffffffffffffffffffffffffffffffffffff\n      and\n        /* \"@chainlink/contracts/src/v0.8/ConfirmedOwnerWithProposal.sol\":1075:1085  msg.sender */\n      caller\n        /* \"@chainlink/contracts/src/v0.8/ConfirmedOwnerWithProposal.sol\":1075:1103  msg.sender == s_pendingOwner */\n      0xffffffffffffffffffffffffffffffffffffffff\n      and\n      eq\n        /* \"@chainlink/contracts/src/v0.8/ConfirmedOwnerWithProposal.sol\":1067:1130  require(msg.sender == s_pendingOwner, \"Must be proposed owner\") */\n      tag_74\n      jumpi\n      mload(0x40)\n      0x08c379a000000000000000000000000000000000000000000000000000000000\n      dup2\n      mstore\n      0x04\n      add\n      tag_75\n      swap1\n      tag_76\n      jump\t// in\n    tag_75:\n      mload(0x40)\n      dup1\n      swap2\n      sub\n      swap1\n      revert\n    tag_74:\n        /* \"@chainlink/contracts/src/v0.8/ConfirmedOwnerWithProposal.sol\":1137:1153  address oldOwner */\n      0x00\n        /* \"@chainlink/contracts/src/v0.8/ConfirmedOwnerWithProposal.sol\":1156:1163  s_owner */\n      0x02\n      0x00\n      swap1\n      sload\n      swap1\n      0x0100\n      exp\n      swap1\n      div\n      0xffffffffffffffffffffffffffffffffffffffff\n      and\n        /* \"@chainlink/contracts/src/v0.8/ConfirmedOwnerWithProposal.sol\":1137:1163  address oldOwner = s_owner */\n      swap1\n      pop\n        /* \"@chainlink/contracts/src/v0.8/ConfirmedOwnerWithProposal.sol\":1179:1189  msg.sender */\n      caller\n        /* \"@chainlink/contracts/src/v0.8/ConfirmedOwnerWithProposal.sol\":1169:1176  s_owner */\n      0x02\n      0x00\n        /* \"@chainlink/contracts/src/v0.8/ConfirmedOwnerWithProposal.sol\":1169:1189  s_owner = msg.sender */\n      0x0100\n      exp\n      dup2\n      sload\n      dup2\n      0xffffffffffffffffffffffffffffffffffffffff\n      mul\n      not\n      and\n      swap1\n      dup4\n      0xffffffffffffffffffffffffffffffffffffffff\n      and\n      mul\n      or\n      swap1\n      sstore\n      pop\n        /* \"@chainlink/contracts/src/v0.8/ConfirmedOwnerWithProposal.sol\":1220:1221  0 */\n      0x00\n        /* \"@chainlink/contracts/src/v0.8/ConfirmedOwnerWithProposal.sol\":1195:1209  s_pendingOwner */\n      0x03\n      0x00\n        /* \"@chainlink/contracts/src/v0.8/ConfirmedOwnerWithProposal.sol\":1195:1222  s_pendingOwner = address(0) */\n      0x0100\n      exp\n      dup2\n      sload\n      dup2\n      0xffffffffffffffffffffffffffffffffffffffff\n      mul\n      not\n      and\n      swap1\n      dup4\n      0xffffffffffffffffffffffffffffffffffffffff\n      and\n      mul\n      or\n      swap1\n      sstore\n      pop\n        /* \"@chainlink/contracts/src/v0.8/ConfirmedOwnerWithProposal.sol\":1265:1275  msg.sender */\n      caller\n        /* \"@chainlink/contracts/src/v0.8/ConfirmedOwnerWithProposal.sol\":1234:1276  OwnershipTransferred(oldOwner, msg.sender) */\n      0xffffffffffffffffffffffffffffffffffffffff\n      and\n        /* \"@chainlink/contracts/src/v0.8/ConfirmedOwnerWithProposal.sol\":1255:1263  oldOwner */\n      dup2\n        /* \"@chainlink/contracts/src/v0.8/ConfirmedOwnerWithProposal.sol\":1234:1276  OwnershipTransferred(oldOwner, msg.sender) */\n      0xffffffffffffffffffffffffffffffffffffffff\n      and\n      0x8be0079c531659141344cd1fd0a4f28419497f9722a3daafe3b4186f6b6457e0\n      mload(0x40)\n      mload(0x40)\n      dup1\n      swap2\n      sub\n      swap1\n      log3\n        /* \"@chainlink/contracts/src/v0.8/ConfirmedOwnerWithProposal.sol\":1061:1281  {... */\n      pop\n        /* \"@chainlink/contracts/src/v0.8/ConfirmedOwnerWithProposal.sol\":1016:1281  function acceptOwnership() external override {... */\n      jump\t// out\n        /* \"@chainlink/contracts/src/v0.8/ConfirmedOwnerWithProposal.sol\":1332:1413  function owner() public view override returns (address) {... */\n    tag_31:\n        /* \"@chainlink/contracts/src/v0.8/ConfirmedOwnerWithProposal.sol\":1379:1386  address */\n      0x00\n        /* \"@chainlink/contracts/src/v0.8/ConfirmedOwnerWithProposal.sol\":1401:1408  s_owner */\n      0x02\n      0x00\n      swap1\n      sload\n      swap1\n      0x0100\n      exp\n      swap1\n      div\n      0xffffffffffffffffffffffffffffffffffffffff\n      and\n        /* \"@chainlink/contracts/src/v0.8/ConfirmedOwnerWithProposal.sol\":1394:1408  return s_owner */\n      swap1\n      pop\n        /* \"@chainlink/contracts/src/v0.8/ConfirmedOwnerWithProposal.sol\":1332:1413  function owner() public view override returns (address) {... */\n      swap1\n      jump\t// out\n        /* \"FunctionsConsumer.sol\":629:656  bytes public latestResponse */\n    tag_35:\n      0x05\n      dup1\n      sload\n      tag_78\n      swap1\n      tag_79\n      jump\t// in\n    tag_78:\n      dup1\n      0x1f\n      add\n      0x20\n      dup1\n      swap2\n      div\n      mul\n      0x20\n      add\n      mload(0x40)\n      swap1\n      dup2\n      add\n      0x40\n      mstore\n      dup1\n      swap3\n      swap2\n      swap1\n      dup2\n      dup2\n      mstore\n      0x20\n      add\n      dup3\n      dup1\n      sload\n      tag_80\n      swap1\n      tag_79\n      jump\t// in\n    tag_80:\n      dup1\n      iszero\n      tag_81\n      jumpi\n      dup1\n      0x1f\n      lt\n      tag_82\n      jumpi\n      0x0100\n      dup1\n      dup4\n      sload\n      div\n      mul\n      dup4\n      mstore\n      swap2\n      0x20\n      add\n      swap2\n      jump(tag_81)\n    tag_82:\n      dup3\n      add\n      swap2\n      swap1\n      0x00\n      mstore\n      keccak256(0x00, 0x20)\n      swap1\n    tag_83:\n      dup2\n      sload\n      dup2\n      mstore\n      swap1\n      0x01\n      add\n      swap1\n      0x20\n      add\n      dup1\n      dup4\n      gt\n      tag_83\n      jumpi\n      dup3\n      swap1\n      sub\n      0x1f\n      and\n      dup3\n      add\n      swap2\n    tag_81:\n      pop\n      pop\n      pop\n      pop\n      pop\n      dup2\n      jump\t// out\n        /* \"FunctionsConsumer.sol\":1508:2254  function executeRequest(... */\n    tag_41:\n        /* \"FunctionsConsumer.sol\":1734:1741  bytes32 */\n      0x00\n        /* \"@chainlink/contracts/src/v0.8/ConfirmedOwnerWithProposal.sol\":1956:1976  _validateOwnership() */\n      tag_85\n        /* \"@chainlink/contracts/src/v0.8/ConfirmedOwnerWithProposal.sol\":1956:1974  _validateOwnership */\n      tag_69\n        /* \"@chainlink/contracts/src/v0.8/ConfirmedOwnerWithProposal.sol\":1956:1976  _validateOwnership() */\n      jump\t// in\n    tag_85:\n        /* \"FunctionsConsumer.sol\":1749:1777  Functions.Request memory req */\n      tag_87\n      tag_88\n      jump\t// in\n    tag_87:\n        /* \"FunctionsConsumer.sol\":1783:1874  req.initializeRequest(Functions.Location.Inline, Functions.CodeLanguage.JavaScript, source) */\n      tag_89\n        /* \"FunctionsConsumer.sol\":1805:1830  Functions.Location.Inline */\n      0x00\n        /* \"FunctionsConsumer.sol\":1832:1865  Functions.CodeLanguage.JavaScript */\n      dup1\n        /* \"FunctionsConsumer.sol\":1867:1873  source */\n      dup14\n      dup14\n        /* \"FunctionsConsumer.sol\":1783:1874  req.initializeRequest(Functions.Location.Inline, Functions.CodeLanguage.JavaScript, source) */\n      dup1\n      dup1\n      0x1f\n      add\n      0x20\n      dup1\n      swap2\n      div\n      mul\n      0x20\n      add\n      mload(0x40)\n      swap1\n      dup2\n      add\n      0x40\n      mstore\n      dup1\n      swap4\n      swap3\n      swap2\n      swap1\n      dup2\n      dup2\n      mstore\n      0x20\n      add\n      dup4\n      dup4\n      dup1\n      dup3\n      dup5\n      calldatacopy\n      0x00\n      dup2\n      dup5\n      add\n      mstore\n      not(0x1f)\n      0x1f\n      dup3\n      add\n      and\n      swap1\n      pop\n      dup1\n      dup4\n      add\n      swap3\n      pop\n      pop\n      pop\n      pop\n      pop\n      pop\n      pop\n        /* \"FunctionsConsumer.sol\":1783:1786  req */\n      dup5\n        /* \"FunctionsConsumer.sol\":1783:1804  req.initializeRequest */\n      tag_90\n      swap1\n        /* \"FunctionsConsumer.sol\":1783:1874  req.initializeRequest(Functions.Location.Inline, Functions.CodeLanguage.JavaScript, source) */\n      swap4\n      swap3\n      swap2\n      swap1\n      0xffffffff\n      and\n      jump\t// in\n    tag_89:\n        /* \"FunctionsConsumer.sol\":1901:1902  0 */\n      0x00\n        /* \"FunctionsConsumer.sol\":1884:1891  secrets */\n      dup10\n      dup10\n        /* \"FunctionsConsumer.sol\":1884:1898  secrets.length */\n      swap1\n      pop\n        /* \"FunctionsConsumer.sol\":1884:1902  secrets.length > 0 */\n      gt\n        /* \"FunctionsConsumer.sol\":1880:2070  if (secrets.length > 0) {... */\n      iszero\n      tag_91\n      jumpi\n        /* \"FunctionsConsumer.sol\":1935:1960  Functions.Location.Inline */\n      0x00\n        /* \"FunctionsConsumer.sol\":1916:1960  secretsLocation == Functions.Location.Inline */\n      0x01\n      dup2\n      gt\n      iszero\n      tag_92\n      jumpi\n      tag_93\n      tag_94\n      jump\t// in\n    tag_93:\n    tag_92:\n        /* \"FunctionsConsumer.sol\":1916:1931  secretsLocation */\n      dup8\n        /* \"FunctionsConsumer.sol\":1916:1960  secretsLocation == Functions.Location.Inline */\n      0x01\n      dup2\n      gt\n      iszero\n      tag_95\n      jumpi\n      tag_96\n      tag_94\n      jump\t// in\n    tag_96:\n    tag_95:\n      sub\n        /* \"FunctionsConsumer.sol\":1912:2064  if (secretsLocation == Functions.Location.Inline) {... */\n      tag_97\n      jumpi\n        /* \"FunctionsConsumer.sol\":1972:2001  req.addInlineSecrets(secrets) */\n      tag_98\n        /* \"FunctionsConsumer.sol\":1993:2000  secrets */\n      dup10\n      dup10\n        /* \"FunctionsConsumer.sol\":1972:2001  req.addInlineSecrets(secrets) */\n      dup1\n      dup1\n      0x1f\n      add\n      0x20\n      dup1\n      swap2\n      div\n      mul\n      0x20\n      add\n      mload(0x40)\n      swap1\n      dup2\n      add\n      0x40\n      mstore\n      dup1\n      swap4\n      swap3\n      swap2\n      swap1\n      dup2\n      dup2\n      mstore\n      0x20\n      add\n      dup4\n      dup4\n      dup1\n      dup3\n      dup5\n      calldatacopy\n      0x00\n      dup2\n      dup5\n      add\n      mstore\n      not(0x1f)\n      0x1f\n      dup3\n      add\n      and\n      swap1\n      pop\n      dup1\n      dup4\n      add\n      swap3\n      pop\n      pop\n      pop\n      pop\n      pop\n      pop\n      pop\n        /* \"FunctionsConsumer.sol\":1972:1975  req */\n      dup3\n        /* \"FunctionsConsumer.sol\":1972:1992  req.addInlineSecrets */\n      tag_99\n      swap1\n        /* \"FunctionsConsumer.sol\":1972:2001  req.addInlineSecrets(secrets) */\n      swap2\n      swap1\n      0xffffffff\n      and\n      jump\t// in\n    tag_98:\n        /* \"FunctionsConsumer.sol\":1912:2064  if (secretsLocation == Functions.Location.Inline) {... */\n      jump(tag_100)\n    tag_97:\n        /* \"FunctionsConsumer.sol\":2026:2055  req.addRemoteSecrets(secrets) */\n      tag_101\n        /* \"FunctionsConsumer.sol\":2047:2054  secrets */\n      dup10\n      dup10\n        /* \"FunctionsConsumer.sol\":2026:2055  req.addRemoteSecrets(secrets) */\n      dup1\n      dup1\n      0x1f\n      add\n      0x20\n      dup1\n      swap2\n      div\n      mul\n      0x20\n      add\n      mload(0x40)\n      swap1\n      dup2\n      add\n      0x40\n      mstore\n      dup1\n      swap4\n      swap3\n      swap2\n      swap1\n      dup2\n      dup2\n      mstore\n      0x20\n      add\n      dup4\n      dup4\n      dup1\n      dup3\n      dup5\n      calldatacopy\n      0x00\n      dup2\n      dup5\n      add\n      mstore\n      not(0x1f)\n      0x1f\n      dup3\n      add\n      and\n      swap1\n      pop\n      dup1\n      dup4\n      add\n      swap3\n      pop\n      pop\n      pop\n      pop\n      pop\n      pop\n      pop\n        /* \"FunctionsConsumer.sol\":2026:2029  req */\n      dup3\n        /* \"FunctionsConsumer.sol\":2026:2046  req.addRemoteSecrets */\n      tag_102\n      swap1\n        /* \"FunctionsConsumer.sol\":2026:2055  req.addRemoteSecrets(secrets) */\n      swap2\n      swap1\n      0xffffffff\n      and\n      jump\t// in\n    tag_101:\n        /* \"FunctionsConsumer.sol\":1912:2064  if (secretsLocation == Functions.Location.Inline) {... */\n    tag_100:\n        /* \"FunctionsConsumer.sol\":1880:2070  if (secrets.length > 0) {... */\n    tag_91:\n        /* \"FunctionsConsumer.sol\":2093:2094  0 */\n      0x00\n        /* \"FunctionsConsumer.sol\":2079:2083  args */\n      dup7\n      dup7\n        /* \"FunctionsConsumer.sol\":2079:2090  args.length */\n      swap1\n      pop\n        /* \"FunctionsConsumer.sol\":2079:2094  args.length > 0 */\n      gt\n        /* \"FunctionsConsumer.sol\":2075:2113  if (args.length > 0) req.addArgs(args) */\n      iszero\n      tag_103\n      jumpi\n        /* \"FunctionsConsumer.sol\":2096:2113  req.addArgs(args) */\n      tag_104\n        /* \"FunctionsConsumer.sol\":2108:2112  args */\n      dup7\n      dup7\n        /* \"FunctionsConsumer.sol\":2096:2113  req.addArgs(args) */\n      swap1\n      tag_105\n      swap2\n      swap1\n      tag_106\n      jump\t// in\n    tag_105:\n        /* \"FunctionsConsumer.sol\":2096:2099  req */\n      dup3\n        /* \"FunctionsConsumer.sol\":2096:2107  req.addArgs */\n      tag_107\n      swap1\n        /* \"FunctionsConsumer.sol\":2096:2113  req.addArgs(args) */\n      swap2\n      swap1\n      0xffffffff\n      and\n      jump\t// in\n    tag_104:\n        /* \"FunctionsConsumer.sol\":2075:2113  if (args.length > 0) req.addArgs(args) */\n    tag_103:\n        /* \"FunctionsConsumer.sol\":2120:2141  bytes32 assignedReqID */\n      0x00\n        /* \"FunctionsConsumer.sol\":2144:2186  sendRequest(req, subscriptionId, gasLimit) */\n      tag_108\n        /* \"FunctionsConsumer.sol\":2156:2159  req */\n      dup3\n        /* \"FunctionsConsumer.sol\":2161:2175  subscriptionId */\n      dup7\n        /* \"FunctionsConsumer.sol\":2177:2185  gasLimit */\n      dup7\n        /* \"FunctionsConsumer.sol\":2144:2155  sendRequest */\n      tag_109\n        /* \"FunctionsConsumer.sol\":2144:2186  sendRequest(req, subscriptionId, gasLimit) */\n      jump\t// in\n    tag_108:\n        /* \"FunctionsConsumer.sol\":2120:2186  bytes32 assignedReqID = sendRequest(req, subscriptionId, gasLimit) */\n      swap1\n      pop\n        /* \"FunctionsConsumer.sol\":2210:2223  assignedReqID */\n      dup1\n        /* \"FunctionsConsumer.sol\":2192:2207  latestRequestId */\n      0x04\n        /* \"FunctionsConsumer.sol\":2192:2223  latestRequestId = assignedReqID */\n      dup2\n      swap1\n      sstore\n      pop\n        /* \"FunctionsConsumer.sol\":2236:2249  assignedReqID */\n      dup1\n        /* \"FunctionsConsumer.sol\":2229:2249  return assignedReqID */\n      swap3\n      pop\n      pop\n      pop\n        /* \"FunctionsConsumer.sol\":1508:2254  function executeRequest(... */\n      swap10\n      swap9\n      pop\n      pop\n      pop\n      pop\n      pop\n      pop\n      pop\n      pop\n      pop\n      jump\t// out\n        /* \"https://github.com/smartcontractkit/functions-hardhat-starter-kit/blob/main/contracts/dev/functions/FunctionsClient.sol\":821:938  function getDONPublicKey() external view override returns (bytes memory) {... */\n    tag_44:\n        /* \"https://github.com/smartcontractkit/functions-hardhat-starter-kit/blob/main/contracts/dev/functions/FunctionsClient.sol\":880:892  bytes memory */\n      0x60\n        /* \"https://github.com/smartcontractkit/functions-hardhat-starter-kit/blob/main/contracts/dev/functions/FunctionsClient.sol\":907:915  s_oracle */\n      0x00\n      dup1\n      sload\n      swap1\n      0x0100\n      exp\n      swap1\n      div\n      0xffffffffffffffffffffffffffffffffffffffff\n      and\n        /* \"https://github.com/smartcontractkit/functions-hardhat-starter-kit/blob/main/contracts/dev/functions/FunctionsClient.sol\":907:931  s_oracle.getDONPublicKey */\n      0xffffffffffffffffffffffffffffffffffffffff\n      and\n      0xd328a91e\n        /* \"https://github.com/smartcontractkit/functions-hardhat-starter-kit/blob/main/contracts/dev/functions/FunctionsClient.sol\":907:933  s_oracle.getDONPublicKey() */\n      mload(0x40)\n      dup2\n      0xffffffff\n      and\n      0xe0\n      shl\n      dup2\n      mstore\n      0x04\n      add\n      0x00\n      mload(0x40)\n      dup1\n      dup4\n      sub\n      dup2\n      dup7\n      gas\n      staticcall\n      iszero\n      dup1\n      iszero\n      tag_112\n      jumpi\n      returndatasize\n      0x00\n      dup1\n      returndatacopy\n      revert(0x00, returndatasize)\n    tag_112:\n      pop\n      pop\n      pop\n      pop\n      mload(0x40)\n      returndatasize\n      0x00\n      dup3\n      returndatacopy\n      returndatasize\n      not(0x1f)\n      0x1f\n      dup3\n      add\n      and\n      dup3\n      add\n      dup1\n      0x40\n      mstore\n      pop\n      dup2\n      add\n      swap1\n      tag_113\n      swap2\n      swap1\n      tag_114\n      jump\t// in\n    tag_113:\n        /* \"https://github.com/smartcontractkit/functions-hardhat-starter-kit/blob/main/contracts/dev/functions/FunctionsClient.sol\":900:933  return s_oracle.getDONPublicKey() */\n      swap1\n      pop\n        /* \"https://github.com/smartcontractkit/functions-hardhat-starter-kit/blob/main/contracts/dev/functions/FunctionsClient.sol\":821:938  function getDONPublicKey() external view override returns (bytes memory) {... */\n      swap1\n      jump\t// out\n        /* \"https://github.com/smartcontractkit/functions-hardhat-starter-kit/blob/main/contracts/dev/functions/FunctionsClient.sol\":1311:1572  function estimateCost(... */\n    tag_49:\n        /* \"https://github.com/smartcontractkit/functions-hardhat-starter-kit/blob/main/contracts/dev/functions/FunctionsClient.sol\":1462:1468  uint96 */\n      0x00\n        /* \"https://github.com/smartcontractkit/functions-hardhat-starter-kit/blob/main/contracts/dev/functions/FunctionsClient.sol\":1483:1491  s_oracle */\n      dup1\n      0x00\n      swap1\n      sload\n      swap1\n      0x0100\n      exp\n      swap1\n      div\n      0xffffffffffffffffffffffffffffffffffffffff\n      and\n        /* \"https://github.com/smartcontractkit/functions-hardhat-starter-kit/blob/main/contracts/dev/functions/FunctionsClient.sol\":1483:1504  s_oracle.estimateCost */\n      0xffffffffffffffffffffffffffffffffffffffff\n      and\n      0xd227d245\n        /* \"https://github.com/smartcontractkit/functions-hardhat-starter-kit/blob/main/contracts/dev/functions/FunctionsClient.sol\":1505:1519  subscriptionId */\n      dup6\n        /* \"https://github.com/smartcontractkit/functions-hardhat-starter-kit/blob/main/contracts/dev/functions/FunctionsClient.sol\":1521:1546  Functions.encodeCBOR(req) */\n      tag_116\n        /* \"https://github.com/smartcontractkit/functions-hardhat-starter-kit/blob/main/contracts/dev/functions/FunctionsClient.sol\":1542:1545  req */\n      dup9\n        /* \"https://github.com/smartcontractkit/functions-hardhat-starter-kit/blob/main/contracts/dev/functions/FunctionsClient.sol\":1521:1541  Functions.encodeCBOR */\n      tag_117\n        /* \"https://github.com/smartcontractkit/functions-hardhat-starter-kit/blob/main/contracts/dev/functions/FunctionsClient.sol\":1521:1546  Functions.encodeCBOR(req) */\n      jump\t// in\n    tag_116:\n        /* \"https://github.com/smartcontractkit/functions-hardhat-starter-kit/blob/main/contracts/dev/functions/FunctionsClient.sol\":1548:1556  gasLimit */\n      dup7\n        /* \"https://github.com/smartcontractkit/functions-hardhat-starter-kit/blob/main/contracts/dev/functions/FunctionsClient.sol\":1558:1566  gasPrice */\n      dup7\n        /* \"https://github.com/smartcontractkit/functions-hardhat-starter-kit/blob/main/contracts/dev/functions/FunctionsClient.sol\":1483:1567  s_oracle.estimateCost(subscriptionId, Functions.encodeCBOR(req), gasLimit, gasPrice) */\n      mload(0x40)\n      dup6\n      0xffffffff\n      and\n      0xe0\n      shl\n      dup2\n      mstore\n      0x04\n      add\n      tag_118\n      swap5\n      swap4\n      swap3\n      swap2\n      swap1\n      tag_119\n      jump\t// in\n    tag_118:\n      0x20\n      mload(0x40)\n      dup1\n      dup4\n      sub\n      dup2\n      dup7\n      gas\n      staticcall\n      iszero\n      dup1\n      iszero\n      tag_121\n      jumpi\n      returndatasize\n      0x00\n      dup1\n      returndatacopy\n      revert(0x00, returndatasize)\n    tag_121:\n      pop\n      pop\n      pop\n      pop\n      mload(0x40)\n      returndatasize\n      not(0x1f)\n      0x1f\n      dup3\n      add\n      and\n      dup3\n      add\n      dup1\n      0x40\n      mstore\n      pop\n      dup2\n      add\n      swap1\n      tag_122\n      swap2\n      swap1\n      tag_123\n      jump\t// in\n    tag_122:\n        /* \"https://github.com/smartcontractkit/functions-hardhat-starter-kit/blob/main/contracts/dev/functions/FunctionsClient.sol\":1476:1567  return s_oracle.estimateCost(subscriptionId, Functions.encodeCBOR(req), gasLimit, gasPrice) */\n      swap1\n      pop\n        /* \"https://github.com/smartcontractkit/functions-hardhat-starter-kit/blob/main/contracts/dev/functions/FunctionsClient.sol\":1311:1572  function estimateCost(... */\n      swap5\n      swap4\n      pop\n      pop\n      pop\n      pop\n      jump\t// out\n        /* \"@chainlink/contracts/src/v0.8/ConfirmedOwnerWithProposal.sol\":826:924  function transferOwnership(address to) public override onlyOwner {... */\n    tag_55:\n        /* \"@chainlink/contracts/src/v0.8/ConfirmedOwnerWithProposal.sol\":1956:1976  _validateOwnership() */\n      tag_125\n        /* \"@chainlink/contracts/src/v0.8/ConfirmedOwnerWithProposal.sol\":1956:1974  _validateOwnership */\n      tag_69\n        /* \"@chainlink/contracts/src/v0.8/ConfirmedOwnerWithProposal.sol\":1956:1976  _validateOwnership() */\n      jump\t// in\n    tag_125:\n        /* \"@chainlink/contracts/src/v0.8/ConfirmedOwnerWithProposal.sol\":897:919  _transferOwnership(to) */\n      tag_127\n        /* \"@chainlink/contracts/src/v0.8/ConfirmedOwnerWithProposal.sol\":916:918  to */\n      dup2\n        /* \"@chainlink/contracts/src/v0.8/ConfirmedOwnerWithProposal.sol\":897:915  _transferOwnership */\n      tag_128\n        /* \"@chainlink/contracts/src/v0.8/ConfirmedOwnerWithProposal.sol\":897:919  _transferOwnership(to) */\n      jump\t// in\n    tag_127:\n        /* \"@chainlink/contracts/src/v0.8/ConfirmedOwnerWithProposal.sol\":826:924  function transferOwnership(address to) public override onlyOwner {... */\n      pop\n      jump\t// out\n        /* \"FunctionsConsumer.sol\":2989:3079  function updateOracleAddress(address oracle) public onlyOwner {... */\n    tag_58:\n        /* \"@chainlink/contracts/src/v0.8/ConfirmedOwnerWithProposal.sol\":1956:1976  _validateOwnership() */\n      tag_130\n        /* \"@chainlink/contracts/src/v0.8/ConfirmedOwnerWithProposal.sol\":1956:1974  _validateOwnership */\n      tag_69\n        /* \"@chainlink/contracts/src/v0.8/ConfirmedOwnerWithProposal.sol\":1956:1976  _validateOwnership() */\n      jump\t// in\n    tag_130:\n        /* \"FunctionsConsumer.sol\":3057:3074  setOracle(oracle) */\n      tag_132\n        /* \"FunctionsConsumer.sol\":3067:3073  oracle */\n      dup2\n        /* \"FunctionsConsumer.sol\":3057:3066  setOracle */\n      tag_133\n        /* \"FunctionsConsumer.sol\":3057:3074  setOracle(oracle) */\n      jump\t// in\n    tag_132:\n        /* \"FunctionsConsumer.sol\":2989:3079  function updateOracleAddress(address oracle) public onlyOwner {... */\n      pop\n      jump\t// out\n        /* \"FunctionsConsumer.sol\":660:684  bytes public latestError */\n    tag_60:\n      0x06\n      dup1\n      sload\n      tag_134\n      swap1\n      tag_79\n      jump\t// in\n    tag_134:\n      dup1\n      0x1f\n      add\n      0x20\n      dup1\n      swap2\n      div\n      mul\n      0x20\n      add\n      mload(0x40)\n      swap1\n      dup2\n      add\n      0x40\n      mstore\n      dup1\n      swap3\n      swap2\n      swap1\n      dup2\n      dup2\n      mstore\n      0x20\n      add\n      dup3\n      dup1\n      sload\n      tag_135\n      swap1\n      tag_79\n      jump\t// in\n    tag_135:\n      dup1\n      iszero\n      tag_136\n      jumpi\n      dup1\n      0x1f\n      lt\n      tag_137\n      jumpi\n      0x0100\n      dup1\n      dup4\n      sload\n      div\n      mul\n      dup4\n      mstore\n      swap2\n      0x20\n      add\n      swap2\n      jump(tag_136)\n    tag_137:\n      dup3\n      add\n      swap2\n      swap1\n      0x00\n      mstore\n      keccak256(0x00, 0x20)\n      swap1\n    tag_138:\n      dup2\n      sload\n      dup2\n      mstore\n      swap1\n      0x01\n      add\n      swap1\n      0x20\n      add\n      dup1\n      dup4\n      gt\n      tag_138\n      jumpi\n      dup3\n      swap1\n      sub\n      0x1f\n      and\n      dup3\n      add\n      swap2\n    tag_136:\n      pop\n      pop\n      pop\n      pop\n      pop\n      dup2\n      jump\t// out\n        /* \"FunctionsConsumer.sol\":2642:2867  function fulfillRequest(... */\n    tag_66:\n        /* \"FunctionsConsumer.sol\":2783:2791  response */\n      dup2\n        /* \"FunctionsConsumer.sol\":2766:2780  latestResponse */\n      0x05\n        /* \"FunctionsConsumer.sol\":2766:2791  latestResponse = response */\n      swap1\n      dup2\n      tag_140\n      swap2\n      swap1\n      tag_141\n      jump\t// in\n    tag_140:\n      pop\n        /* \"FunctionsConsumer.sol\":2811:2814  err */\n      dup1\n        /* \"FunctionsConsumer.sol\":2797:2808  latestError */\n      0x06\n        /* \"FunctionsConsumer.sol\":2797:2814  latestError = err */\n      swap1\n      dup2\n      tag_142\n      swap2\n      swap1\n      tag_141\n      jump\t// in\n    tag_142:\n      pop\n        /* \"FunctionsConsumer.sol\":2837:2846  requestId */\n      dup3\n        /* \"FunctionsConsumer.sol\":2825:2862  OCRResponse(requestId, response, err) */\n      0x7bab0ec163b5c132c72b8146ac4d6e067e82ed58f8b131150aa71c9258911562\n        /* \"FunctionsConsumer.sol\":2848:2856  response */\n      dup4\n        /* \"FunctionsConsumer.sol\":2858:2861  err */\n      dup4\n        /* \"FunctionsConsumer.sol\":2825:2862  OCRResponse(requestId, response, err) */\n      mload(0x40)\n      tag_143\n      swap3\n      swap2\n      swap1\n      tag_144\n      jump\t// in\n    tag_143:\n      mload(0x40)\n      dup1\n      swap2\n      sub\n      swap1\n      log2\n        /* \"FunctionsConsumer.sol\":2642:2867  function fulfillRequest(... */\n      pop\n      pop\n      pop\n      jump\t// out\n        /* \"@chainlink/contracts/src/v0.8/ConfirmedOwnerWithProposal.sol\":1730:1841  function _validateOwnership() internal view {... */\n    tag_69:\n        /* \"@chainlink/contracts/src/v0.8/ConfirmedOwnerWithProposal.sol\":1802:1809  s_owner */\n      0x02\n      0x00\n      swap1\n      sload\n      swap1\n      0x0100\n      exp\n      swap1\n      div\n      0xffffffffffffffffffffffffffffffffffffffff\n      and\n        /* \"@chainlink/contracts/src/v0.8/ConfirmedOwnerWithProposal.sol\":1788:1809  msg.sender == s_owner */\n      0xffffffffffffffffffffffffffffffffffffffff\n      and\n        /* \"@chainlink/contracts/src/v0.8/ConfirmedOwnerWithProposal.sol\":1788:1798  msg.sender */\n      caller\n        /* \"@chainlink/contracts/src/v0.8/ConfirmedOwnerWithProposal.sol\":1788:1809  msg.sender == s_owner */\n      0xffffffffffffffffffffffffffffffffffffffff\n      and\n      eq\n        /* \"@chainlink/contracts/src/v0.8/ConfirmedOwnerWithProposal.sol\":1780:1836  require(msg.sender == s_owner, \"Only callable by owner\") */\n      tag_146\n      jumpi\n      mload(0x40)\n      0x08c379a000000000000000000000000000000000000000000000000000000000\n      dup2\n      mstore\n      0x04\n      add\n      tag_147\n      swap1\n      tag_148\n      jump\t// in\n    tag_147:\n      mload(0x40)\n      dup1\n      swap2\n      sub\n      swap1\n      revert\n    tag_146:\n        /* \"@chainlink/contracts/src/v0.8/ConfirmedOwnerWithProposal.sol\":1730:1841  function _validateOwnership() internal view {... */\n      jump\t// out\n        /* \"https://github.com/smartcontractkit/functions-hardhat-starter-kit/blob/main/contracts/dev/functions/FunctionsClient.sol\":3683:3846  function addExternalRequest(address oracleAddress, bytes32 requestId) internal notPendingRequest(requestId) {... */\n    tag_72:\n        /* \"https://github.com/smartcontractkit/functions-hardhat-starter-kit/blob/main/contracts/dev/functions/FunctionsClient.sol\":3780:3789  requestId */\n      dup1\n        /* \"https://github.com/smartcontractkit/functions-hardhat-starter-kit/blob/main/contracts/dev/functions/FunctionsClient.sol\":4486:4487  0 */\n      0x00\n        /* \"https://github.com/smartcontractkit/functions-hardhat-starter-kit/blob/main/contracts/dev/functions/FunctionsClient.sol\":4446:4488  s_pendingRequests[requestId] != address(0) */\n      0xffffffffffffffffffffffffffffffffffffffff\n      and\n        /* \"https://github.com/smartcontractkit/functions-hardhat-starter-kit/blob/main/contracts/dev/functions/FunctionsClient.sol\":4446:4463  s_pendingRequests */\n      0x01\n        /* \"https://github.com/smartcontractkit/functions-hardhat-starter-kit/blob/main/contracts/dev/functions/FunctionsClient.sol\":4446:4474  s_pendingRequests[requestId] */\n      0x00\n        /* \"https://github.com/smartcontractkit/functions-hardhat-starter-kit/blob/main/contracts/dev/functions/FunctionsClient.sol\":4464:4473  requestId */\n      dup4\n        /* \"https://github.com/smartcontractkit/functions-hardhat-starter-kit/blob/main/contracts/dev/functions/FunctionsClient.sol\":4446:4474  s_pendingRequests[requestId] */\n      dup2\n      mstore\n      0x20\n      add\n      swap1\n      dup2\n      mstore\n      0x20\n      add\n      0x00\n      keccak256\n      0x00\n      swap1\n      sload\n      swap1\n      0x0100\n      exp\n      swap1\n      div\n      0xffffffffffffffffffffffffffffffffffffffff\n      and\n        /* \"https://github.com/smartcontractkit/functions-hardhat-starter-kit/blob/main/contracts/dev/functions/FunctionsClient.sol\":4446:4488  s_pendingRequests[requestId] != address(0) */\n      0xffffffffffffffffffffffffffffffffffffffff\n      and\n      eq\n        /* \"https://github.com/smartcontractkit/functions-hardhat-starter-kit/blob/main/contracts/dev/functions/FunctionsClient.sol\":4442:4537  if (s_pendingRequests[requestId] != address(0)) {... */\n      tag_150\n      jumpi\n        /* \"https://github.com/smartcontractkit/functions-hardhat-starter-kit/blob/main/contracts/dev/functions/FunctionsClient.sol\":4505:4530  RequestIsAlreadyPending() */\n      mload(0x40)\n      0x8b457ad200000000000000000000000000000000000000000000000000000000\n      dup2\n      mstore\n      0x04\n      add\n      mload(0x40)\n      dup1\n      swap2\n      sub\n      swap1\n      revert\n        /* \"https://github.com/smartcontractkit/functions-hardhat-starter-kit/blob/main/contracts/dev/functions/FunctionsClient.sol\":4442:4537  if (s_pendingRequests[requestId] != address(0)) {... */\n    tag_150:\n        /* \"https://github.com/smartcontractkit/functions-hardhat-starter-kit/blob/main/contracts/dev/functions/FunctionsClient.sol\":3828:3841  oracleAddress */\n      dup3\n        /* \"https://github.com/smartcontractkit/functions-hardhat-starter-kit/blob/main/contracts/dev/functions/FunctionsClient.sol\":3797:3814  s_pendingRequests */\n      0x01\n        /* \"https://github.com/smartcontractkit/functions-hardhat-starter-kit/blob/main/contracts/dev/functions/FunctionsClient.sol\":3797:3825  s_pendingRequests[requestId] */\n      0x00\n        /* \"https://github.com/smartcontractkit/functions-hardhat-starter-kit/blob/main/contracts/dev/functions/FunctionsClient.sol\":3815:3824  requestId */\n      dup5\n        /* \"https://github.com/smartcontractkit/functions-hardhat-starter-kit/blob/main/contracts/dev/functions/FunctionsClient.sol\":3797:3825  s_pendingRequests[requestId] */\n      dup2\n      mstore\n      0x20\n      add\n      swap1\n      dup2\n      mstore\n      0x20\n      add\n      0x00\n      keccak256\n      0x00\n        /* \"https://github.com/smartcontractkit/functions-hardhat-starter-kit/blob/main/contracts/dev/functions/FunctionsClient.sol\":3797:3841  s_pendingRequests[requestId] = oracleAddress */\n      0x0100\n      exp\n      dup2\n      sload\n      dup2\n      0xffffffffffffffffffffffffffffffffffffffff\n      mul\n      not\n      and\n      swap1\n      dup4\n      0xffffffffffffffffffffffffffffffffffffffff\n      and\n      mul\n      or\n      swap1\n      sstore\n      pop\n        /* \"https://github.com/smartcontractkit/functions-hardhat-starter-kit/blob/main/contracts/dev/functions/FunctionsClient.sol\":3683:3846  function addExternalRequest(address oracleAddress, bytes32 requestId) internal notPendingRequest(requestId) {... */\n      pop\n      pop\n      pop\n      jump\t// out\n        /* \"https://github.com/smartcontractkit/functions-hardhat-starter-kit/blob/main/contracts/dev/functions/Functions.sol\":2291:2590  function initializeRequest(... */\n    tag_90:\n        /* \"https://github.com/smartcontractkit/functions-hardhat-starter-kit/blob/main/contracts/dev/functions/Functions.sol\":2471:2472  0 */\n      0x00\n        /* \"https://github.com/smartcontractkit/functions-hardhat-starter-kit/blob/main/contracts/dev/functions/Functions.sol\":2453:2459  source */\n      dup2\n        /* \"https://github.com/smartcontractkit/functions-hardhat-starter-kit/blob/main/contracts/dev/functions/Functions.sol\":2447:2467  bytes(source).length */\n      mload\n        /* \"https://github.com/smartcontractkit/functions-hardhat-starter-kit/blob/main/contracts/dev/functions/Functions.sol\":2447:2472  bytes(source).length == 0 */\n      sub\n        /* \"https://github.com/smartcontractkit/functions-hardhat-starter-kit/blob/main/contracts/dev/functions/Functions.sol\":2443:2494  if (bytes(source).length == 0) revert EmptySource() */\n      tag_153\n      jumpi\n        /* \"https://github.com/smartcontractkit/functions-hardhat-starter-kit/blob/main/contracts/dev/functions/Functions.sol\":2481:2494  EmptySource() */\n      mload(0x40)\n      0x22ce3edd00000000000000000000000000000000000000000000000000000000\n      dup2\n      mstore\n      0x04\n      add\n      mload(0x40)\n      dup1\n      swap2\n      sub\n      swap1\n      revert\n        /* \"https://github.com/smartcontractkit/functions-hardhat-starter-kit/blob/main/contracts/dev/functions/Functions.sol\":2443:2494  if (bytes(source).length == 0) revert EmptySource() */\n    tag_153:\n        /* \"https://github.com/smartcontractkit/functions-hardhat-starter-kit/blob/main/contracts/dev/functions/Functions.sol\":2521:2529  location */\n      dup3\n        /* \"https://github.com/smartcontractkit/functions-hardhat-starter-kit/blob/main/contracts/dev/functions/Functions.sol\":2501:2505  self */\n      dup5\n        /* \"https://github.com/smartcontractkit/functions-hardhat-starter-kit/blob/main/contracts/dev/functions/Functions.sol\":2501:2518  self.codeLocation */\n      0x00\n      add\n        /* \"https://github.com/smartcontractkit/functions-hardhat-starter-kit/blob/main/contracts/dev/functions/Functions.sol\":2501:2529  self.codeLocation = location */\n      swap1\n      0x01\n      dup2\n      gt\n      iszero\n      tag_154\n      jumpi\n      tag_155\n      tag_94\n      jump\t// in\n    tag_155:\n    tag_154:\n      swap1\n      dup2\n      0x01\n      dup2\n      gt\n      iszero\n      tag_156\n      jumpi\n      tag_157\n      tag_94\n      jump\t// in\n    tag_157:\n    tag_156:\n      dup2\n      mstore\n      pop\n      pop\n        /* \"https://github.com/smartcontractkit/functions-hardhat-starter-kit/blob/main/contracts/dev/functions/Functions.sol\":2551:2559  language */\n      dup2\n        /* \"https://github.com/smartcontractkit/functions-hardhat-starter-kit/blob/main/contracts/dev/functions/Functions.sol\":2535:2539  self */\n      dup5\n        /* \"https://github.com/smartcontractkit/functions-hardhat-starter-kit/blob/main/contracts/dev/functions/Functions.sol\":2535:2548  self.language */\n      0x40\n      add\n        /* \"https://github.com/smartcontractkit/functions-hardhat-starter-kit/blob/main/contracts/dev/functions/Functions.sol\":2535:2559  self.language = language */\n      swap1\n      0x00\n      dup2\n      gt\n      iszero\n      tag_158\n      jumpi\n      tag_159\n      tag_94\n      jump\t// in\n    tag_159:\n    tag_158:\n      swap1\n      dup2\n      0x00\n      dup2\n      gt\n      iszero\n      tag_160\n      jumpi\n      tag_161\n      tag_94\n      jump\t// in\n    tag_161:\n    tag_160:\n      dup2\n      mstore\n      pop\n      pop\n        /* \"https://github.com/smartcontractkit/functions-hardhat-starter-kit/blob/main/contracts/dev/functions/Functions.sol\":2579:2585  source */\n      dup1\n        /* \"https://github.com/smartcontractkit/functions-hardhat-starter-kit/blob/main/contracts/dev/functions/Functions.sol\":2565:2569  self */\n      dup5\n        /* \"https://github.com/smartcontractkit/functions-hardhat-starter-kit/blob/main/contracts/dev/functions/Functions.sol\":2565:2576  self.source */\n      0x60\n      add\n        /* \"https://github.com/smartcontractkit/functions-hardhat-starter-kit/blob/main/contracts/dev/functions/Functions.sol\":2565:2585  self.source = source */\n      dup2\n      swap1\n      mstore\n      pop\n        /* \"https://github.com/smartcontractkit/functions-hardhat-starter-kit/blob/main/contracts/dev/functions/Functions.sol\":2291:2590  function initializeRequest(... */\n      pop\n      pop\n      pop\n      pop\n      jump\t// out\n        /* \"https://github.com/smartcontractkit/functions-hardhat-starter-kit/blob/main/contracts/dev/functions/Functions.sol\":3229:3442  function addInlineSecrets(Request memory self, bytes memory secrets) internal pure {... */\n    tag_99:\n        /* \"https://github.com/smartcontractkit/functions-hardhat-starter-kit/blob/main/contracts/dev/functions/Functions.sol\":3340:3341  0 */\n      0x00\n        /* \"https://github.com/smartcontractkit/functions-hardhat-starter-kit/blob/main/contracts/dev/functions/Functions.sol\":3322:3329  secrets */\n      dup2\n        /* \"https://github.com/smartcontractkit/functions-hardhat-starter-kit/blob/main/contracts/dev/functions/Functions.sol\":3322:3336  secrets.length */\n      mload\n        /* \"https://github.com/smartcontractkit/functions-hardhat-starter-kit/blob/main/contracts/dev/functions/Functions.sol\":3322:3341  secrets.length == 0 */\n      sub\n        /* \"https://github.com/smartcontractkit/functions-hardhat-starter-kit/blob/main/contracts/dev/functions/Functions.sol\":3318:3364  if (secrets.length == 0) revert EmptySecrets() */\n      tag_163\n      jumpi\n        /* \"https://github.com/smartcontractkit/functions-hardhat-starter-kit/blob/main/contracts/dev/functions/Functions.sol\":3350:3364  EmptySecrets() */\n      mload(0x40)\n      0xe889636f00000000000000000000000000000000000000000000000000000000\n      dup2\n      mstore\n      0x04\n      add\n      mload(0x40)\n      dup1\n      swap2\n      sub\n      swap1\n      revert\n        /* \"https://github.com/smartcontractkit/functions-hardhat-starter-kit/blob/main/contracts/dev/functions/Functions.sol\":3318:3364  if (secrets.length == 0) revert EmptySecrets() */\n    tag_163:\n        /* \"https://github.com/smartcontractkit/functions-hardhat-starter-kit/blob/main/contracts/dev/functions/Functions.sol\":3394:3409  Location.Inline */\n      0x00\n        /* \"https://github.com/smartcontractkit/functions-hardhat-starter-kit/blob/main/contracts/dev/functions/Functions.sol\":3371:3375  self */\n      dup3\n        /* \"https://github.com/smartcontractkit/functions-hardhat-starter-kit/blob/main/contracts/dev/functions/Functions.sol\":3371:3391  self.secretsLocation */\n      0x20\n      add\n        /* \"https://github.com/smartcontractkit/functions-hardhat-starter-kit/blob/main/contracts/dev/functions/Functions.sol\":3371:3409  self.secretsLocation = Location.Inline */\n      swap1\n      0x01\n      dup2\n      gt\n      iszero\n      tag_164\n      jumpi\n      tag_165\n      tag_94\n      jump\t// in\n    tag_165:\n    tag_164:\n      swap1\n      dup2\n      0x01\n      dup2\n      gt\n      iszero\n      tag_166\n      jumpi\n      tag_167\n      tag_94\n      jump\t// in\n    tag_167:\n    tag_166:\n      dup2\n      mstore\n      pop\n      pop\n        /* \"https://github.com/smartcontractkit/functions-hardhat-starter-kit/blob/main/contracts/dev/functions/Functions.sol\":3430:3437  secrets */\n      dup1\n        /* \"https://github.com/smartcontractkit/functions-hardhat-starter-kit/blob/main/contracts/dev/functions/Functions.sol\":3415:3419  self */\n      dup3\n        /* \"https://github.com/smartcontractkit/functions-hardhat-starter-kit/blob/main/contracts/dev/functions/Functions.sol\":3415:3427  self.secrets */\n      0x80\n      add\n        /* \"https://github.com/smartcontractkit/functions-hardhat-starter-kit/blob/main/contracts/dev/functions/Functions.sol\":3415:3437  self.secrets = secrets */\n      dup2\n      swap1\n      mstore\n      pop\n        /* \"https://github.com/smartcontractkit/functions-hardhat-starter-kit/blob/main/contracts/dev/functions/Functions.sol\":3229:3442  function addInlineSecrets(Request memory self, bytes memory secrets) internal pure {... */\n      pop\n      pop\n      jump\t// out\n        /* \"https://github.com/smartcontractkit/functions-hardhat-starter-kit/blob/main/contracts/dev/functions/Functions.sol\":3664:3916  function addRemoteSecrets(Request memory self, bytes memory encryptedSecretsURLs) internal pure {... */\n    tag_102:\n        /* \"https://github.com/smartcontractkit/functions-hardhat-starter-kit/blob/main/contracts/dev/functions/Functions.sol\":3801:3802  0 */\n      0x00\n        /* \"https://github.com/smartcontractkit/functions-hardhat-starter-kit/blob/main/contracts/dev/functions/Functions.sol\":3770:3790  encryptedSecretsURLs */\n      dup2\n        /* \"https://github.com/smartcontractkit/functions-hardhat-starter-kit/blob/main/contracts/dev/functions/Functions.sol\":3770:3797  encryptedSecretsURLs.length */\n      mload\n        /* \"https://github.com/smartcontractkit/functions-hardhat-starter-kit/blob/main/contracts/dev/functions/Functions.sol\":3770:3802  encryptedSecretsURLs.length == 0 */\n      sub\n        /* \"https://github.com/smartcontractkit/functions-hardhat-starter-kit/blob/main/contracts/dev/functions/Functions.sol\":3766:3825  if (encryptedSecretsURLs.length == 0) revert EmptySecrets() */\n      tag_169\n      jumpi\n        /* \"https://github.com/smartcontractkit/functions-hardhat-starter-kit/blob/main/contracts/dev/functions/Functions.sol\":3811:3825  EmptySecrets() */\n      mload(0x40)\n      0xe889636f00000000000000000000000000000000000000000000000000000000\n      dup2\n      mstore\n      0x04\n      add\n      mload(0x40)\n      dup1\n      swap2\n      sub\n      swap1\n      revert\n        /* \"https://github.com/smartcontractkit/functions-hardhat-starter-kit/blob/main/contracts/dev/functions/Functions.sol\":3766:3825  if (encryptedSecretsURLs.length == 0) revert EmptySecrets() */\n    tag_169:\n        /* \"https://github.com/smartcontractkit/functions-hardhat-starter-kit/blob/main/contracts/dev/functions/Functions.sol\":3855:3870  Location.Remote */\n      0x01\n        /* \"https://github.com/smartcontractkit/functions-hardhat-starter-kit/blob/main/contracts/dev/functions/Functions.sol\":3832:3836  self */\n      dup3\n        /* \"https://github.com/smartcontractkit/functions-hardhat-starter-kit/blob/main/contracts/dev/functions/Functions.sol\":3832:3852  self.secretsLocation */\n      0x20\n      add\n        /* \"https://github.com/smartcontractkit/functions-hardhat-starter-kit/blob/main/contracts/dev/functions/Functions.sol\":3832:3870  self.secretsLocation = Location.Remote */\n      swap1\n      0x01\n      dup2\n      gt\n      iszero\n      tag_170\n      jumpi\n      tag_171\n      tag_94\n      jump\t// in\n    tag_171:\n    tag_170:\n      swap1\n      dup2\n      0x01\n      dup2\n      gt\n      iszero\n      tag_172\n      jumpi\n      tag_173\n      tag_94\n      jump\t// in\n    tag_173:\n    tag_172:\n      dup2\n      mstore\n      pop\n      pop\n        /* \"https://github.com/smartcontractkit/functions-hardhat-starter-kit/blob/main/contracts/dev/functions/Functions.sol\":3891:3911  encryptedSecretsURLs */\n      dup1\n        /* \"https://github.com/smartcontractkit/functions-hardhat-starter-kit/blob/main/contracts/dev/functions/Functions.sol\":3876:3880  self */\n      dup3\n        /* \"https://github.com/smartcontractkit/functions-hardhat-starter-kit/blob/main/contracts/dev/functions/Functions.sol\":3876:3888  self.secrets */\n      0x80\n      add\n        /* \"https://github.com/smartcontractkit/functions-hardhat-starter-kit/blob/main/contracts/dev/functions/Functions.sol\":3876:3911  self.secrets = encryptedSecretsURLs */\n      dup2\n      swap1\n      mstore\n      pop\n        /* \"https://github.com/smartcontractkit/functions-hardhat-starter-kit/blob/main/contracts/dev/functions/Functions.sol\":3664:3916  function addRemoteSecrets(Request memory self, bytes memory encryptedSecretsURLs) internal pure {... */\n      pop\n      pop\n      jump\t// out\n        /* \"https://github.com/smartcontractkit/functions-hardhat-starter-kit/blob/main/contracts/dev/functions/Functions.sol\":4077:4225  function addArgs(Request memory self, string[] memory args) internal pure {... */\n    tag_107:\n        /* \"https://github.com/smartcontractkit/functions-hardhat-starter-kit/blob/main/contracts/dev/functions/Functions.sol\":4176:4177  0 */\n      0x00\n        /* \"https://github.com/smartcontractkit/functions-hardhat-starter-kit/blob/main/contracts/dev/functions/Functions.sol\":4161:4165  args */\n      dup2\n        /* \"https://github.com/smartcontractkit/functions-hardhat-starter-kit/blob/main/contracts/dev/functions/Functions.sol\":4161:4172  args.length */\n      mload\n        /* \"https://github.com/smartcontractkit/functions-hardhat-starter-kit/blob/main/contracts/dev/functions/Functions.sol\":4161:4177  args.length == 0 */\n      sub\n        /* \"https://github.com/smartcontractkit/functions-hardhat-starter-kit/blob/main/contracts/dev/functions/Functions.sol\":4157:4197  if (args.length == 0) revert EmptyArgs() */\n      tag_175\n      jumpi\n        /* \"https://github.com/smartcontractkit/functions-hardhat-starter-kit/blob/main/contracts/dev/functions/Functions.sol\":4186:4197  EmptyArgs() */\n      mload(0x40)\n      0xfe936cb700000000000000000000000000000000000000000000000000000000\n      dup2\n      mstore\n      0x04\n      add\n      mload(0x40)\n      dup1\n      swap2\n      sub\n      swap1\n      revert\n        /* \"https://github.com/smartcontractkit/functions-hardhat-starter-kit/blob/main/contracts/dev/functions/Functions.sol\":4157:4197  if (args.length == 0) revert EmptyArgs() */\n    tag_175:\n        /* \"https://github.com/smartcontractkit/functions-hardhat-starter-kit/blob/main/contracts/dev/functions/Functions.sol\":4216:4220  args */\n      dup1\n        /* \"https://github.com/smartcontractkit/functions-hardhat-starter-kit/blob/main/contracts/dev/functions/Functions.sol\":4204:4208  self */\n      dup3\n        /* \"https://github.com/smartcontractkit/functions-hardhat-starter-kit/blob/main/contracts/dev/functions/Functions.sol\":4204:4213  self.args */\n      0xa0\n      add\n        /* \"https://github.com/smartcontractkit/functions-hardhat-starter-kit/blob/main/contracts/dev/functions/Functions.sol\":4204:4220  self.args = args */\n      dup2\n      swap1\n      mstore\n      pop\n        /* \"https://github.com/smartcontractkit/functions-hardhat-starter-kit/blob/main/contracts/dev/functions/Functions.sol\":4077:4225  function addArgs(Request memory self, string[] memory args) internal pure {... */\n      pop\n      pop\n      jump\t// out\n        /* \"https://github.com/smartcontractkit/functions-hardhat-starter-kit/blob/main/contracts/dev/functions/FunctionsClient.sol\":1871:2223  function sendRequest(... */\n    tag_109:\n        /* \"https://github.com/smartcontractkit/functions-hardhat-starter-kit/blob/main/contracts/dev/functions/FunctionsClient.sol\":1996:2003  bytes32 */\n      0x00\n        /* \"https://github.com/smartcontractkit/functions-hardhat-starter-kit/blob/main/contracts/dev/functions/FunctionsClient.sol\":2011:2028  bytes32 requestId */\n      dup1\n        /* \"https://github.com/smartcontractkit/functions-hardhat-starter-kit/blob/main/contracts/dev/functions/FunctionsClient.sol\":2031:2039  s_oracle */\n      0x00\n      dup1\n      sload\n      swap1\n      0x0100\n      exp\n      swap1\n      div\n      0xffffffffffffffffffffffffffffffffffffffff\n      and\n        /* \"https://github.com/smartcontractkit/functions-hardhat-starter-kit/blob/main/contracts/dev/functions/FunctionsClient.sol\":2031:2051  s_oracle.sendRequest */\n      0xffffffffffffffffffffffffffffffffffffffff\n      and\n      0x28242b04\n        /* \"https://github.com/smartcontractkit/functions-hardhat-starter-kit/blob/main/contracts/dev/functions/FunctionsClient.sol\":2052:2066  subscriptionId */\n      dup6\n        /* \"https://github.com/smartcontractkit/functions-hardhat-starter-kit/blob/main/contracts/dev/functions/FunctionsClient.sol\":2068:2093  Functions.encodeCBOR(req) */\n      tag_177\n        /* \"https://github.com/smartcontractkit/functions-hardhat-starter-kit/blob/main/contracts/dev/functions/FunctionsClient.sol\":2089:2092  req */\n      dup9\n        /* \"https://github.com/smartcontractkit/functions-hardhat-starter-kit/blob/main/contracts/dev/functions/FunctionsClient.sol\":2068:2088  Functions.encodeCBOR */\n      tag_117\n        /* \"https://github.com/smartcontractkit/functions-hardhat-starter-kit/blob/main/contracts/dev/functions/FunctionsClient.sol\":2068:2093  Functions.encodeCBOR(req) */\n      jump\t// in\n    tag_177:\n        /* \"https://github.com/smartcontractkit/functions-hardhat-starter-kit/blob/main/contracts/dev/functions/FunctionsClient.sol\":2095:2103  gasLimit */\n      dup7\n        /* \"https://github.com/smartcontractkit/functions-hardhat-starter-kit/blob/main/contracts/dev/functions/FunctionsClient.sol\":2031:2104  s_oracle.sendRequest(subscriptionId, Functions.encodeCBOR(req), gasLimit) */\n      mload(0x40)\n      dup5\n      0xffffffff\n      and\n      0xe0\n      shl\n      dup2\n      mstore\n      0x04\n      add\n      tag_178\n      swap4\n      swap3\n      swap2\n      swap1\n      tag_179\n      jump\t// in\n    tag_178:\n      0x20\n      mload(0x40)\n      dup1\n      dup4\n      sub\n      dup2\n      0x00\n      dup8\n      gas\n      call\n      iszero\n      dup1\n      iszero\n      tag_181\n      jumpi\n      returndatasize\n      0x00\n      dup1\n      returndatacopy\n      revert(0x00, returndatasize)\n    tag_181:\n      pop\n      pop\n      pop\n      pop\n      mload(0x40)\n      returndatasize\n      not(0x1f)\n      0x1f\n      dup3\n      add\n      and\n      dup3\n      add\n      dup1\n      0x40\n      mstore\n      pop\n      dup2\n      add\n      swap1\n      tag_182\n      swap2\n      swap1\n      tag_183\n      jump\t// in\n    tag_182:\n        /* \"https://github.com/smartcontractkit/functions-hardhat-starter-kit/blob/main/contracts/dev/functions/FunctionsClient.sol\":2011:2104  bytes32 requestId = s_oracle.sendRequest(subscriptionId, Functions.encodeCBOR(req), gasLimit) */\n      swap1\n      pop\n        /* \"https://github.com/smartcontractkit/functions-hardhat-starter-kit/blob/main/contracts/dev/functions/FunctionsClient.sol\":2141:2149  s_oracle */\n      0x00\n      dup1\n      sload\n      swap1\n      0x0100\n      exp\n      swap1\n      div\n      0xffffffffffffffffffffffffffffffffffffffff\n      and\n        /* \"https://github.com/smartcontractkit/functions-hardhat-starter-kit/blob/main/contracts/dev/functions/FunctionsClient.sol\":2141:2161  s_oracle.getRegistry */\n      0xffffffffffffffffffffffffffffffffffffffff\n      and\n      0x5ab1bd53\n        /* \"https://github.com/smartcontractkit/functions-hardhat-starter-kit/blob/main/contracts/dev/functions/FunctionsClient.sol\":2141:2163  s_oracle.getRegistry() */\n      mload(0x40)\n      dup2\n      0xffffffff\n      and\n      0xe0\n      shl\n      dup2\n      mstore\n      0x04\n      add\n      0x20\n      mload(0x40)\n      dup1\n      dup4\n      sub\n      dup2\n      dup7\n      gas\n      staticcall\n      iszero\n      dup1\n      iszero\n      tag_185\n      jumpi\n      returndatasize\n      0x00\n      dup1\n      returndatacopy\n      revert(0x00, returndatasize)\n    tag_185:\n      pop\n      pop\n      pop\n      pop\n      mload(0x40)\n      returndatasize\n      not(0x1f)\n      0x1f\n      dup3\n      add\n      and\n      dup3\n      add\n      dup1\n      0x40\n      mstore\n      pop\n      dup2\n      add\n      swap1\n      tag_186\n      swap2\n      swap1\n      tag_187\n      jump\t// in\n    tag_186:\n        /* \"https://github.com/smartcontractkit/functions-hardhat-starter-kit/blob/main/contracts/dev/functions/FunctionsClient.sol\":2110:2127  s_pendingRequests */\n      0x01\n        /* \"https://github.com/smartcontractkit/functions-hardhat-starter-kit/blob/main/contracts/dev/functions/FunctionsClient.sol\":2110:2138  s_pendingRequests[requestId] */\n      0x00\n        /* \"https://github.com/smartcontractkit/functions-hardhat-starter-kit/blob/main/contracts/dev/functions/FunctionsClient.sol\":2128:2137  requestId */\n      dup4\n        /* \"https://github.com/smartcontractkit/functions-hardhat-starter-kit/blob/main/contracts/dev/functions/FunctionsClient.sol\":2110:2138  s_pendingRequests[requestId] */\n      dup2\n      mstore\n      0x20\n      add\n      swap1\n      dup2\n      mstore\n      0x20\n      add\n      0x00\n      keccak256\n      0x00\n        /* \"https://github.com/smartcontractkit/functions-hardhat-starter-kit/blob/main/contracts/dev/functions/FunctionsClient.sol\":2110:2163  s_pendingRequests[requestId] = s_oracle.getRegistry() */\n      0x0100\n      exp\n      dup2\n      sload\n      dup2\n      0xffffffffffffffffffffffffffffffffffffffff\n      mul\n      not\n      and\n      swap1\n      dup4\n      0xffffffffffffffffffffffffffffffffffffffff\n      and\n      mul\n      or\n      swap1\n      sstore\n      pop\n        /* \"https://github.com/smartcontractkit/functions-hardhat-starter-kit/blob/main/contracts/dev/functions/FunctionsClient.sol\":2186:2195  requestId */\n      dup1\n        /* \"https://github.com/smartcontractkit/functions-hardhat-starter-kit/blob/main/contracts/dev/functions/FunctionsClient.sol\":2174:2196  RequestSent(requestId) */\n      0x1131472297a800fee664d1d89cfa8f7676ff07189ecc53f80bbb5f4969099db8\n      mload(0x40)\n      mload(0x40)\n      dup1\n      swap2\n      sub\n      swap1\n      log2\n        /* \"https://github.com/smartcontractkit/functions-hardhat-starter-kit/blob/main/contracts/dev/functions/FunctionsClient.sol\":2209:2218  requestId */\n      dup1\n        /* \"https://github.com/smartcontractkit/functions-hardhat-starter-kit/blob/main/contracts/dev/functions/FunctionsClient.sol\":2202:2218  return requestId */\n      swap2\n      pop\n      pop\n        /* \"https://github.com/smartcontractkit/functions-hardhat-starter-kit/blob/main/contracts/dev/functions/FunctionsClient.sol\":1871:2223  function sendRequest(... */\n      swap4\n      swap3\n      pop\n      pop\n      pop\n      jump\t// out\n        /* \"https://github.com/smartcontractkit/functions-hardhat-starter-kit/blob/main/contracts/dev/functions/Functions.sol\":1078:1940  function encodeCBOR(Request memory self) internal pure returns (bytes memory) {... */\n    tag_117:\n        /* \"https://github.com/smartcontractkit/functions-hardhat-starter-kit/blob/main/contracts/dev/functions/Functions.sol\":1142:1154  bytes memory */\n      0x60\n        /* \"https://github.com/smartcontractkit/functions-hardhat-starter-kit/blob/main/contracts/dev/functions/Functions.sol\":1162:1195  BufferChainlink.buffer memory buf */\n      tag_189\n      tag_190\n      jump\t// in\n    tag_189:\n        /* \"https://github.com/smartcontractkit/functions-hardhat-starter-kit/blob/main/contracts/dev/functions/Functions.sol\":1201:1247  BufferChainlink.init(buf, DEFAULT_BUFFER_SIZE) */\n      tag_191\n        /* \"https://github.com/smartcontractkit/functions-hardhat-starter-kit/blob/main/contracts/dev/functions/Functions.sol\":1222:1225  buf */\n      dup2\n        /* \"https://github.com/smartcontractkit/functions-hardhat-starter-kit/blob/main/contracts/dev/functions/Functions.sol\":354:357  256 */\n      0x0100\n        /* \"https://github.com/smartcontractkit/functions-hardhat-starter-kit/blob/main/contracts/dev/functions/Functions.sol\":1201:1221  BufferChainlink.init */\n      tag_192\n        /* \"https://github.com/smartcontractkit/functions-hardhat-starter-kit/blob/main/contracts/dev/functions/Functions.sol\":1201:1247  BufferChainlink.init(buf, DEFAULT_BUFFER_SIZE) */\n      jump\t// in\n    tag_191:\n      pop\n        /* \"https://github.com/smartcontractkit/functions-hardhat-starter-kit/blob/main/contracts/dev/functions/Functions.sol\":1254:1286  buf.encodeString(\"codeLocation\") */\n      tag_193\n      mload(0x40)\n      dup1\n      0x40\n      add\n      0x40\n      mstore\n      dup1\n      0x0c\n      dup2\n      mstore\n      0x20\n      add\n      0x636f64654c6f636174696f6e0000000000000000000000000000000000000000\n      dup2\n      mstore\n      pop\n        /* \"https://github.com/smartcontractkit/functions-hardhat-starter-kit/blob/main/contracts/dev/functions/Functions.sol\":1254:1257  buf */\n      dup3\n        /* \"https://github.com/smartcontractkit/functions-hardhat-starter-kit/blob/main/contracts/dev/functions/Functions.sol\":1254:1270  buf.encodeString */\n      tag_194\n      swap1\n        /* \"https://github.com/smartcontractkit/functions-hardhat-starter-kit/blob/main/contracts/dev/functions/Functions.sol\":1254:1286  buf.encodeString(\"codeLocation\") */\n      swap2\n      swap1\n      0xffffffff\n      and\n      jump\t// in\n    tag_193:\n        /* \"https://github.com/smartcontractkit/functions-hardhat-starter-kit/blob/main/contracts/dev/functions/Functions.sol\":1292:1334  buf.encodeUInt(uint256(self.codeLocation)) */\n      tag_195\n        /* \"https://github.com/smartcontractkit/functions-hardhat-starter-kit/blob/main/contracts/dev/functions/Functions.sol\":1315:1319  self */\n      dup4\n        /* \"https://github.com/smartcontractkit/functions-hardhat-starter-kit/blob/main/contracts/dev/functions/Functions.sol\":1315:1332  self.codeLocation */\n      0x00\n      add\n      mload\n        /* \"https://github.com/smartcontractkit/functions-hardhat-starter-kit/blob/main/contracts/dev/functions/Functions.sol\":1307:1333  uint256(self.codeLocation) */\n      0x01\n      dup2\n      gt\n      iszero\n      tag_196\n      jumpi\n      tag_197\n      tag_94\n      jump\t// in\n    tag_197:\n    tag_196:\n        /* \"https://github.com/smartcontractkit/functions-hardhat-starter-kit/blob/main/contracts/dev/functions/Functions.sol\":1292:1295  buf */\n      dup3\n        /* \"https://github.com/smartcontractkit/functions-hardhat-starter-kit/blob/main/contracts/dev/functions/Functions.sol\":1292:1306  buf.encodeUInt */\n      tag_198\n      swap1\n        /* \"https://github.com/smartcontractkit/functions-hardhat-starter-kit/blob/main/contracts/dev/functions/Functions.sol\":1292:1334  buf.encodeUInt(uint256(self.codeLocation)) */\n      swap2\n      swap1\n      0xffffffff\n      and\n      jump\t// in\n    tag_195:\n        /* \"https://github.com/smartcontractkit/functions-hardhat-starter-kit/blob/main/contracts/dev/functions/Functions.sol\":1341:1369  buf.encodeString(\"language\") */\n      tag_199\n      mload(0x40)\n      dup1\n      0x40\n      add\n      0x40\n      mstore\n      dup1\n      0x08\n      dup2\n      mstore\n      0x20\n      add\n      0x6c616e6775616765000000000000000000000000000000000000000000000000\n      dup2\n      mstore\n      pop\n        /* \"https://github.com/smartcontractkit/functions-hardhat-starter-kit/blob/main/contracts/dev/functions/Functions.sol\":1341:1344  buf */\n      dup3\n        /* \"https://github.com/smartcontractkit/functions-hardhat-starter-kit/blob/main/contracts/dev/functions/Functions.sol\":1341:1357  buf.encodeString */\n      tag_194\n      swap1\n        /* \"https://github.com/smartcontractkit/functions-hardhat-starter-kit/blob/main/contracts/dev/functions/Functions.sol\":1341:1369  buf.encodeString(\"language\") */\n      swap2\n      swap1\n      0xffffffff\n      and\n      jump\t// in\n    tag_199:\n        /* \"https://github.com/smartcontractkit/functions-hardhat-starter-kit/blob/main/contracts/dev/functions/Functions.sol\":1375:1413  buf.encodeUInt(uint256(self.language)) */\n      tag_200\n        /* \"https://github.com/smartcontractkit/functions-hardhat-starter-kit/blob/main/contracts/dev/functions/Functions.sol\":1398:1402  self */\n      dup4\n        /* \"https://github.com/smartcontractkit/functions-hardhat-starter-kit/blob/main/contracts/dev/functions/Functions.sol\":1398:1411  self.language */\n      0x40\n      add\n      mload\n        /* \"https://github.com/smartcontractkit/functions-hardhat-starter-kit/blob/main/contracts/dev/functions/Functions.sol\":1390:1412  uint256(self.language) */\n      0x00\n      dup2\n      gt\n      iszero\n      tag_201\n      jumpi\n      tag_202\n      tag_94\n      jump\t// in\n    tag_202:\n    tag_201:\n        /* \"https://github.com/smartcontractkit/functions-hardhat-starter-kit/blob/main/contracts/dev/functions/Functions.sol\":1375:1378  buf */\n      dup3\n        /* \"https://github.com/smartcontractkit/functions-hardhat-starter-kit/blob/main/contracts/dev/functions/Functions.sol\":1375:1389  buf.encodeUInt */\n      tag_198\n      swap1\n        /* \"https://github.com/smartcontractkit/functions-hardhat-starter-kit/blob/main/contracts/dev/functions/Functions.sol\":1375:1413  buf.encodeUInt(uint256(self.language)) */\n      swap2\n      swap1\n      0xffffffff\n      and\n      jump\t// in\n    tag_200:\n        /* \"https://github.com/smartcontractkit/functions-hardhat-starter-kit/blob/main/contracts/dev/functions/Functions.sol\":1420:1446  buf.encodeString(\"source\") */\n      tag_203\n      mload(0x40)\n      dup1\n      0x40\n      add\n      0x40\n      mstore\n      dup1\n      0x06\n      dup2\n      mstore\n      0x20\n      add\n      0x736f757263650000000000000000000000000000000000000000000000000000\n      dup2\n      mstore\n      pop\n        /* \"https://github.com/smartcontractkit/functions-hardhat-starter-kit/blob/main/contracts/dev/functions/Functions.sol\":1420:1423  buf */\n      dup3\n        /* \"https://github.com/smartcontractkit/functions-hardhat-starter-kit/blob/main/contracts/dev/functions/Functions.sol\":1420:1436  buf.encodeString */\n      tag_194\n      swap1\n        /* \"https://github.com/smartcontractkit/functions-hardhat-starter-kit/blob/main/contracts/dev/functions/Functions.sol\":1420:1446  buf.encodeString(\"source\") */\n      swap2\n      swap1\n      0xffffffff\n      and\n      jump\t// in\n    tag_203:\n        /* \"https://github.com/smartcontractkit/functions-hardhat-starter-kit/blob/main/contracts/dev/functions/Functions.sol\":1452:1481  buf.encodeString(self.source) */\n      tag_204\n        /* \"https://github.com/smartcontractkit/functions-hardhat-starter-kit/blob/main/contracts/dev/functions/Functions.sol\":1469:1473  self */\n      dup4\n        /* \"https://github.com/smartcontractkit/functions-hardhat-starter-kit/blob/main/contracts/dev/functions/Functions.sol\":1469:1480  self.source */\n      0x60\n      add\n      mload\n        /* \"https://github.com/smartcontractkit/functions-hardhat-starter-kit/blob/main/contracts/dev/functions/Functions.sol\":1452:1455  buf */\n      dup3\n        /* \"https://github.com/smartcontractkit/functions-hardhat-starter-kit/blob/main/contracts/dev/functions/Functions.sol\":1452:1468  buf.encodeString */\n      tag_194\n      swap1\n        /* \"https://github.com/smartcontractkit/functions-hardhat-starter-kit/blob/main/contracts/dev/functions/Functions.sol\":1452:1481  buf.encodeString(self.source) */\n      swap2\n      swap1\n      0xffffffff\n      and\n      jump\t// in\n    tag_204:\n        /* \"https://github.com/smartcontractkit/functions-hardhat-starter-kit/blob/main/contracts/dev/functions/Functions.sol\":1511:1512  0 */\n      0x00\n        /* \"https://github.com/smartcontractkit/functions-hardhat-starter-kit/blob/main/contracts/dev/functions/Functions.sol\":1492:1496  self */\n      dup4\n        /* \"https://github.com/smartcontractkit/functions-hardhat-starter-kit/blob/main/contracts/dev/functions/Functions.sol\":1492:1501  self.args */\n      0xa0\n      add\n      mload\n        /* \"https://github.com/smartcontractkit/functions-hardhat-starter-kit/blob/main/contracts/dev/functions/Functions.sol\":1492:1508  self.args.length */\n      mload\n        /* \"https://github.com/smartcontractkit/functions-hardhat-starter-kit/blob/main/contracts/dev/functions/Functions.sol\":1492:1512  self.args.length > 0 */\n      gt\n        /* \"https://github.com/smartcontractkit/functions-hardhat-starter-kit/blob/main/contracts/dev/functions/Functions.sol\":1488:1705  if (self.args.length > 0) {... */\n      iszero\n      tag_205\n      jumpi\n        /* \"https://github.com/smartcontractkit/functions-hardhat-starter-kit/blob/main/contracts/dev/functions/Functions.sol\":1522:1546  buf.encodeString(\"args\") */\n      tag_206\n      mload(0x40)\n      dup1\n      0x40\n      add\n      0x40\n      mstore\n      dup1\n      0x04\n      dup2\n      mstore\n      0x20\n      add\n      0x6172677300000000000000000000000000000000000000000000000000000000\n      dup2\n      mstore\n      pop\n        /* \"https://github.com/smartcontractkit/functions-hardhat-starter-kit/blob/main/contracts/dev/functions/Functions.sol\":1522:1525  buf */\n      dup3\n        /* \"https://github.com/smartcontractkit/functions-hardhat-starter-kit/blob/main/contracts/dev/functions/Functions.sol\":1522:1538  buf.encodeString */\n      tag_194\n      swap1\n        /* \"https://github.com/smartcontractkit/functions-hardhat-starter-kit/blob/main/contracts/dev/functions/Functions.sol\":1522:1546  buf.encodeString(\"args\") */\n      swap2\n      swap1\n      0xffffffff\n      and\n      jump\t// in\n    tag_206:\n        /* \"https://github.com/smartcontractkit/functions-hardhat-starter-kit/blob/main/contracts/dev/functions/Functions.sol\":1554:1570  buf.startArray() */\n      tag_207\n        /* \"https://github.com/smartcontractkit/functions-hardhat-starter-kit/blob/main/contracts/dev/functions/Functions.sol\":1554:1557  buf */\n      dup2\n        /* \"https://github.com/smartcontractkit/functions-hardhat-starter-kit/blob/main/contracts/dev/functions/Functions.sol\":1554:1568  buf.startArray */\n      tag_208\n        /* \"https://github.com/smartcontractkit/functions-hardhat-starter-kit/blob/main/contracts/dev/functions/Functions.sol\":1554:1570  buf.startArray() */\n      jump\t// in\n    tag_207:\n        /* \"https://github.com/smartcontractkit/functions-hardhat-starter-kit/blob/main/contracts/dev/functions/Functions.sol\":1583:1592  uint256 i */\n      0x00\n        /* \"https://github.com/smartcontractkit/functions-hardhat-starter-kit/blob/main/contracts/dev/functions/Functions.sol\":1578:1674  for (uint256 i = 0; i < self.args.length; i++) {... */\n    tag_209:\n        /* \"https://github.com/smartcontractkit/functions-hardhat-starter-kit/blob/main/contracts/dev/functions/Functions.sol\":1602:1606  self */\n      dup4\n        /* \"https://github.com/smartcontractkit/functions-hardhat-starter-kit/blob/main/contracts/dev/functions/Functions.sol\":1602:1611  self.args */\n      0xa0\n      add\n      mload\n        /* \"https://github.com/smartcontractkit/functions-hardhat-starter-kit/blob/main/contracts/dev/functions/Functions.sol\":1602:1618  self.args.length */\n      mload\n        /* \"https://github.com/smartcontractkit/functions-hardhat-starter-kit/blob/main/contracts/dev/functions/Functions.sol\":1598:1599  i */\n      dup2\n        /* \"https://github.com/smartcontractkit/functions-hardhat-starter-kit/blob/main/contracts/dev/functions/Functions.sol\":1598:1618  i < self.args.length */\n      lt\n        /* \"https://github.com/smartcontractkit/functions-hardhat-starter-kit/blob/main/contracts/dev/functions/Functions.sol\":1578:1674  for (uint256 i = 0; i < self.args.length; i++) {... */\n      iszero\n      tag_210\n      jumpi\n        /* \"https://github.com/smartcontractkit/functions-hardhat-starter-kit/blob/main/contracts/dev/functions/Functions.sol\":1635:1665  buf.encodeString(self.args[i]) */\n      tag_212\n        /* \"https://github.com/smartcontractkit/functions-hardhat-starter-kit/blob/main/contracts/dev/functions/Functions.sol\":1652:1656  self */\n      dup5\n        /* \"https://github.com/smartcontractkit/functions-hardhat-starter-kit/blob/main/contracts/dev/functions/Functions.sol\":1652:1661  self.args */\n      0xa0\n      add\n      mload\n        /* \"https://github.com/smartcontractkit/functions-hardhat-starter-kit/blob/main/contracts/dev/functions/Functions.sol\":1662:1663  i */\n      dup3\n        /* \"https://github.com/smartcontractkit/functions-hardhat-starter-kit/blob/main/contracts/dev/functions/Functions.sol\":1652:1664  self.args[i] */\n      dup2\n      mload\n      dup2\n      lt\n      tag_213\n      jumpi\n      tag_214\n      tag_215\n      jump\t// in\n    tag_214:\n    tag_213:\n      0x20\n      mul\n      0x20\n      add\n      add\n      mload\n        /* \"https://github.com/smartcontractkit/functions-hardhat-starter-kit/blob/main/contracts/dev/functions/Functions.sol\":1635:1638  buf */\n      dup4\n        /* \"https://github.com/smartcontractkit/functions-hardhat-starter-kit/blob/main/contracts/dev/functions/Functions.sol\":1635:1651  buf.encodeString */\n      tag_194\n      swap1\n        /* \"https://github.com/smartcontractkit/functions-hardhat-starter-kit/blob/main/contracts/dev/functions/Functions.sol\":1635:1665  buf.encodeString(self.args[i]) */\n      swap2\n      swap1\n      0xffffffff\n      and\n      jump\t// in\n    tag_212:\n        /* \"https://github.com/smartcontractkit/functions-hardhat-starter-kit/blob/main/contracts/dev/functions/Functions.sol\":1620:1623  i++ */\n      dup1\n      dup1\n      tag_216\n      swap1\n      tag_217\n      jump\t// in\n    tag_216:\n      swap2\n      pop\n      pop\n        /* \"https://github.com/smartcontractkit/functions-hardhat-starter-kit/blob/main/contracts/dev/functions/Functions.sol\":1578:1674  for (uint256 i = 0; i < self.args.length; i++) {... */\n      jump(tag_209)\n    tag_210:\n      pop\n        /* \"https://github.com/smartcontractkit/functions-hardhat-starter-kit/blob/main/contracts/dev/functions/Functions.sol\":1681:1698  buf.endSequence() */\n      tag_218\n        /* \"https://github.com/smartcontractkit/functions-hardhat-starter-kit/blob/main/contracts/dev/functions/Functions.sol\":1681:1684  buf */\n      dup2\n        /* \"https://github.com/smartcontractkit/functions-hardhat-starter-kit/blob/main/contracts/dev/functions/Functions.sol\":1681:1696  buf.endSequence */\n      tag_219\n        /* \"https://github.com/smartcontractkit/functions-hardhat-starter-kit/blob/main/contracts/dev/functions/Functions.sol\":1681:1698  buf.endSequence() */\n      jump\t// in\n    tag_218:\n        /* \"https://github.com/smartcontractkit/functions-hardhat-starter-kit/blob/main/contracts/dev/functions/Functions.sol\":1488:1705  if (self.args.length > 0) {... */\n    tag_205:\n        /* \"https://github.com/smartcontractkit/functions-hardhat-starter-kit/blob/main/contracts/dev/functions/Functions.sol\":1737:1738  0 */\n      0x00\n        /* \"https://github.com/smartcontractkit/functions-hardhat-starter-kit/blob/main/contracts/dev/functions/Functions.sol\":1715:1719  self */\n      dup4\n        /* \"https://github.com/smartcontractkit/functions-hardhat-starter-kit/blob/main/contracts/dev/functions/Functions.sol\":1715:1727  self.secrets */\n      0x80\n      add\n      mload\n        /* \"https://github.com/smartcontractkit/functions-hardhat-starter-kit/blob/main/contracts/dev/functions/Functions.sol\":1715:1734  self.secrets.length */\n      mload\n        /* \"https://github.com/smartcontractkit/functions-hardhat-starter-kit/blob/main/contracts/dev/functions/Functions.sol\":1715:1738  self.secrets.length > 0 */\n      gt\n        /* \"https://github.com/smartcontractkit/functions-hardhat-starter-kit/blob/main/contracts/dev/functions/Functions.sol\":1711:1915  if (self.secrets.length > 0) {... */\n      iszero\n      tag_220\n      jumpi\n        /* \"https://github.com/smartcontractkit/functions-hardhat-starter-kit/blob/main/contracts/dev/functions/Functions.sol\":1748:1783  buf.encodeString(\"secretsLocation\") */\n      tag_221\n      mload(0x40)\n      dup1\n      0x40\n      add\n      0x40\n      mstore\n      dup1\n      0x0f\n      dup2\n      mstore\n      0x20\n      add\n      0x736563726574734c6f636174696f6e0000000000000000000000000000000000\n      dup2\n      mstore\n      pop\n        /* \"https://github.com/smartcontractkit/functions-hardhat-starter-kit/blob/main/contracts/dev/functions/Functions.sol\":1748:1751  buf */\n      dup3\n        /* \"https://github.com/smartcontractkit/functions-hardhat-starter-kit/blob/main/contracts/dev/functions/Functions.sol\":1748:1764  buf.encodeString */\n      tag_194\n      swap1\n        /* \"https://github.com/smartcontractkit/functions-hardhat-starter-kit/blob/main/contracts/dev/functions/Functions.sol\":1748:1783  buf.encodeString(\"secretsLocation\") */\n      swap2\n      swap1\n      0xffffffff\n      and\n      jump\t// in\n    tag_221:\n        /* \"https://github.com/smartcontractkit/functions-hardhat-starter-kit/blob/main/contracts/dev/functions/Functions.sol\":1791:1836  buf.encodeUInt(uint256(self.secretsLocation)) */\n      tag_222\n        /* \"https://github.com/smartcontractkit/functions-hardhat-starter-kit/blob/main/contracts/dev/functions/Functions.sol\":1814:1818  self */\n      dup4\n        /* \"https://github.com/smartcontractkit/functions-hardhat-starter-kit/blob/main/contracts/dev/functions/Functions.sol\":1814:1834  self.secretsLocation */\n      0x20\n      add\n      mload\n        /* \"https://github.com/smartcontractkit/functions-hardhat-starter-kit/blob/main/contracts/dev/functions/Functions.sol\":1806:1835  uint256(self.secretsLocation) */\n      0x01\n      dup2\n      gt\n      iszero\n      tag_223\n      jumpi\n      tag_224\n      tag_94\n      jump\t// in\n    tag_224:\n    tag_223:\n        /* \"https://github.com/smartcontractkit/functions-hardhat-starter-kit/blob/main/contracts/dev/functions/Functions.sol\":1791:1794  buf */\n      dup3\n        /* \"https://github.com/smartcontractkit/functions-hardhat-starter-kit/blob/main/contracts/dev/functions/Functions.sol\":1791:1805  buf.encodeUInt */\n      tag_198\n      swap1\n        /* \"https://github.com/smartcontractkit/functions-hardhat-starter-kit/blob/main/contracts/dev/functions/Functions.sol\":1791:1836  buf.encodeUInt(uint256(self.secretsLocation)) */\n      swap2\n      swap1\n      0xffffffff\n      and\n      jump\t// in\n    tag_222:\n        /* \"https://github.com/smartcontractkit/functions-hardhat-starter-kit/blob/main/contracts/dev/functions/Functions.sol\":1844:1871  buf.encodeString(\"secrets\") */\n      tag_225\n      mload(0x40)\n      dup1\n      0x40\n      add\n      0x40\n      mstore\n      dup1\n      0x07\n      dup2\n      mstore\n      0x20\n      add\n      0x7365637265747300000000000000000000000000000000000000000000000000\n      dup2\n      mstore\n      pop\n        /* \"https://github.com/smartcontractkit/functions-hardhat-starter-kit/blob/main/contracts/dev/functions/Functions.sol\":1844:1847  buf */\n      dup3\n        /* \"https://github.com/smartcontractkit/functions-hardhat-starter-kit/blob/main/contracts/dev/functions/Functions.sol\":1844:1860  buf.encodeString */\n      tag_194\n      swap1\n        /* \"https://github.com/smartcontractkit/functions-hardhat-starter-kit/blob/main/contracts/dev/functions/Functions.sol\":1844:1871  buf.encodeString(\"secrets\") */\n      swap2\n      swap1\n      0xffffffff\n      and\n      jump\t// in\n    tag_225:\n        /* \"https://github.com/smartcontractkit/functions-hardhat-starter-kit/blob/main/contracts/dev/functions/Functions.sol\":1879:1908  buf.encodeBytes(self.secrets) */\n      tag_226\n        /* \"https://github.com/smartcontractkit/functions-hardhat-starter-kit/blob/main/contracts/dev/functions/Functions.sol\":1895:1899  self */\n      dup4\n        /* \"https://github.com/smartcontractkit/functions-hardhat-starter-kit/blob/main/contracts/dev/functions/Functions.sol\":1895:1907  self.secrets */\n      0x80\n      add\n      mload\n        /* \"https://github.com/smartcontractkit/functions-hardhat-starter-kit/blob/main/contracts/dev/functions/Functions.sol\":1879:1882  buf */\n      dup3\n        /* \"https://github.com/smartcontractkit/functions-hardhat-starter-kit/blob/main/contracts/dev/functions/Functions.sol\":1879:1894  buf.encodeBytes */\n      tag_227\n      swap1\n        /* \"https://github.com/smartcontractkit/functions-hardhat-starter-kit/blob/main/contracts/dev/functions/Functions.sol\":1879:1908  buf.encodeBytes(self.secrets) */\n      swap2\n      swap1\n      0xffffffff\n      and\n      jump\t// in\n    tag_226:\n        /* \"https://github.com/smartcontractkit/functions-hardhat-starter-kit/blob/main/contracts/dev/functions/Functions.sol\":1711:1915  if (self.secrets.length > 0) {... */\n    tag_220:\n        /* \"https://github.com/smartcontractkit/functions-hardhat-starter-kit/blob/main/contracts/dev/functions/Functions.sol\":1928:1931  buf */\n      dup1\n        /* \"https://github.com/smartcontractkit/functions-hardhat-starter-kit/blob/main/contracts/dev/functions/Functions.sol\":1928:1935  buf.buf */\n      0x00\n      add\n      mload\n        /* \"https://github.com/smartcontractkit/functions-hardhat-starter-kit/blob/main/contracts/dev/functions/Functions.sol\":1921:1935  return buf.buf */\n      swap2\n      pop\n      pop\n        /* \"https://github.com/smartcontractkit/functions-hardhat-starter-kit/blob/main/contracts/dev/functions/Functions.sol\":1078:1940  function encodeCBOR(Request memory self) internal pure returns (bytes memory) {... */\n      swap2\n      swap1\n      pop\n      jump\t// out\n        /* \"@chainlink/contracts/src/v0.8/ConfirmedOwnerWithProposal.sol\":1497:1685  function _transferOwnership(address to) private {... */\n    tag_128:\n        /* \"@chainlink/contracts/src/v0.8/ConfirmedOwnerWithProposal.sol\":1565:1575  msg.sender */\n      caller\n        /* \"@chainlink/contracts/src/v0.8/ConfirmedOwnerWithProposal.sol\":1559:1575  to != msg.sender */\n      0xffffffffffffffffffffffffffffffffffffffff\n      and\n        /* \"@chainlink/contracts/src/v0.8/ConfirmedOwnerWithProposal.sol\":1559:1561  to */\n      dup2\n        /* \"@chainlink/contracts/src/v0.8/ConfirmedOwnerWithProposal.sol\":1559:1575  to != msg.sender */\n      0xffffffffffffffffffffffffffffffffffffffff\n      and\n      sub\n        /* \"@chainlink/contracts/src/v0.8/ConfirmedOwnerWithProposal.sol\":1551:1603  require(to != msg.sender, \"Cannot transfer to self\") */\n      tag_229\n      jumpi\n      mload(0x40)\n      0x08c379a000000000000000000000000000000000000000000000000000000000\n      dup2\n      mstore\n      0x04\n      add\n      tag_230\n      swap1\n      tag_231\n      jump\t// in\n    tag_230:\n      mload(0x40)\n      dup1\n      swap2\n      sub\n      swap1\n      revert\n    tag_229:\n        /* \"@chainlink/contracts/src/v0.8/ConfirmedOwnerWithProposal.sol\":1627:1629  to */\n      dup1\n        /* \"@chainlink/contracts/src/v0.8/ConfirmedOwnerWithProposal.sol\":1610:1624  s_pendingOwner */\n      0x03\n      0x00\n        /* \"@chainlink/contracts/src/v0.8/ConfirmedOwnerWithProposal.sol\":1610:1629  s_pendingOwner = to */\n      0x0100\n      exp\n      dup2\n      sload\n      dup2\n      0xffffffffffffffffffffffffffffffffffffffff\n      mul\n      not\n      and\n      swap1\n      dup4\n      0xffffffffffffffffffffffffffffffffffffffff\n      and\n      mul\n      or\n      swap1\n      sstore\n      pop\n        /* \"@chainlink/contracts/src/v0.8/ConfirmedOwnerWithProposal.sol\":1677:1679  to */\n      dup1\n        /* \"@chainlink/contracts/src/v0.8/ConfirmedOwnerWithProposal.sol\":1641:1680  OwnershipTransferRequested(s_owner, to) */\n      0xffffffffffffffffffffffffffffffffffffffff\n      and\n        /* \"@chainlink/contracts/src/v0.8/ConfirmedOwnerWithProposal.sol\":1668:1675  s_owner */\n      0x02\n      0x00\n      swap1\n      sload\n      swap1\n      0x0100\n      exp\n      swap1\n      div\n      0xffffffffffffffffffffffffffffffffffffffff\n      and\n        /* \"@chainlink/contracts/src/v0.8/ConfirmedOwnerWithProposal.sol\":1641:1680  OwnershipTransferRequested(s_owner, to) */\n      0xffffffffffffffffffffffffffffffffffffffff\n      and\n      0xed8889f560326eb138920d842192f0eb3dd22b4f139c87a2c57538e05bae1278\n      mload(0x40)\n      mload(0x40)\n      dup1\n      swap2\n      sub\n      swap1\n      log3\n        /* \"@chainlink/contracts/src/v0.8/ConfirmedOwnerWithProposal.sol\":1497:1685  function _transferOwnership(address to) private {... */\n      pop\n      jump\t// out\n        /* \"https://github.com/smartcontractkit/functions-hardhat-starter-kit/blob/main/contracts/dev/functions/FunctionsClient.sol\":3081:3179  function setOracle(address oracle) internal {... */\n    tag_133:\n        /* \"https://github.com/smartcontractkit/functions-hardhat-starter-kit/blob/main/contracts/dev/functions/FunctionsClient.sol\":3167:3173  oracle */\n      dup1\n        /* \"https://github.com/smartcontractkit/functions-hardhat-starter-kit/blob/main/contracts/dev/functions/FunctionsClient.sol\":3131:3139  s_oracle */\n      0x00\n      dup1\n        /* \"https://github.com/smartcontractkit/functions-hardhat-starter-kit/blob/main/contracts/dev/functions/FunctionsClient.sol\":3131:3174  s_oracle = FunctionsOracleInterface(oracle) */\n      0x0100\n      exp\n      dup2\n      sload\n      dup2\n      0xffffffffffffffffffffffffffffffffffffffff\n      mul\n      not\n      and\n      swap1\n      dup4\n      0xffffffffffffffffffffffffffffffffffffffff\n      and\n      mul\n      or\n      swap1\n      sstore\n      pop\n        /* \"https://github.com/smartcontractkit/functions-hardhat-starter-kit/blob/main/contracts/dev/functions/FunctionsClient.sol\":3081:3179  function setOracle(address oracle) internal {... */\n      pop\n      jump\t// out\n        /* \"@chainlink/contracts/src/v0.8/vendor/BufferChainlink.sol\":1001:1400  function init(buffer memory buf, uint256 capacity) internal pure returns (buffer memory) {... */\n    tag_192:\n        /* \"@chainlink/contracts/src/v0.8/vendor/BufferChainlink.sol\":1075:1088  buffer memory */\n      tag_233\n      tag_190\n      jump\t// in\n    tag_233:\n        /* \"@chainlink/contracts/src/v0.8/vendor/BufferChainlink.sol\":1117:1118  0 */\n      0x00\n        /* \"@chainlink/contracts/src/v0.8/vendor/BufferChainlink.sol\":1111:1113  32 */\n      0x20\n        /* \"@chainlink/contracts/src/v0.8/vendor/BufferChainlink.sol\":1100:1108  capacity */\n      dup4\n        /* \"@chainlink/contracts/src/v0.8/vendor/BufferChainlink.sol\":1100:1113  capacity % 32 */\n      tag_235\n      swap2\n      swap1\n      tag_236\n      jump\t// in\n    tag_235:\n        /* \"@chainlink/contracts/src/v0.8/vendor/BufferChainlink.sol\":1100:1118  capacity % 32 != 0 */\n      eq\n        /* \"@chainlink/contracts/src/v0.8/vendor/BufferChainlink.sol\":1096:1167  if (capacity % 32 != 0) {... */\n      tag_237\n      jumpi\n        /* \"@chainlink/contracts/src/v0.8/vendor/BufferChainlink.sol\":1157:1159  32 */\n      0x20\n        /* \"@chainlink/contracts/src/v0.8/vendor/BufferChainlink.sol\":1146:1154  capacity */\n      dup3\n        /* \"@chainlink/contracts/src/v0.8/vendor/BufferChainlink.sol\":1146:1159  capacity % 32 */\n      tag_238\n      swap2\n      swap1\n      tag_236\n      jump\t// in\n    tag_238:\n        /* \"@chainlink/contracts/src/v0.8/vendor/BufferChainlink.sol\":1140:1142  32 */\n      0x20\n        /* \"@chainlink/contracts/src/v0.8/vendor/BufferChainlink.sol\":1140:1160  32 - (capacity % 32) */\n      tag_239\n      swap2\n      swap1\n      tag_240\n      jump\t// in\n    tag_239:\n        /* \"@chainlink/contracts/src/v0.8/vendor/BufferChainlink.sol\":1128:1160  capacity += 32 - (capacity % 32) */\n      dup3\n      tag_241\n      swap2\n      swap1\n      tag_242\n      jump\t// in\n    tag_241:\n      swap2\n      pop\n        /* \"@chainlink/contracts/src/v0.8/vendor/BufferChainlink.sol\":1096:1167  if (capacity % 32 != 0) {... */\n    tag_237:\n        /* \"@chainlink/contracts/src/v0.8/vendor/BufferChainlink.sol\":1229:1237  capacity */\n      dup2\n        /* \"@chainlink/contracts/src/v0.8/vendor/BufferChainlink.sol\":1214:1217  buf */\n      dup4\n        /* \"@chainlink/contracts/src/v0.8/vendor/BufferChainlink.sol\":1214:1226  buf.capacity */\n      0x20\n      add\n        /* \"@chainlink/contracts/src/v0.8/vendor/BufferChainlink.sol\":1214:1237  buf.capacity = capacity */\n      dup2\n      dup2\n      mstore\n      pop\n      pop\n        /* \"@chainlink/contracts/src/v0.8/vendor/BufferChainlink.sol\":1277:1281  0x40 */\n      0x40\n        /* \"@chainlink/contracts/src/v0.8/vendor/BufferChainlink.sol\":1271:1282  mload(0x40) */\n      mload\n        /* \"@chainlink/contracts/src/v0.8/vendor/BufferChainlink.sol\":1301:1304  ptr */\n      dup1\n        /* \"@chainlink/contracts/src/v0.8/vendor/BufferChainlink.sol\":1296:1299  buf */\n      dup5\n        /* \"@chainlink/contracts/src/v0.8/vendor/BufferChainlink.sol\":1289:1305  mstore(buf, ptr) */\n      mstore\n        /* \"@chainlink/contracts/src/v0.8/vendor/BufferChainlink.sol\":1324:1325  0 */\n      0x00\n        /* \"@chainlink/contracts/src/v0.8/vendor/BufferChainlink.sol\":1319:1322  ptr */\n      dup2\n        /* \"@chainlink/contracts/src/v0.8/vendor/BufferChainlink.sol\":1312:1326  mstore(ptr, 0) */\n      mstore\n        /* \"@chainlink/contracts/src/v0.8/vendor/BufferChainlink.sol\":1363:1371  capacity */\n      dup3\n        /* \"@chainlink/contracts/src/v0.8/vendor/BufferChainlink.sol\":1358:1361  ptr */\n      dup2\n        /* \"@chainlink/contracts/src/v0.8/vendor/BufferChainlink.sol\":1354:1372  add(ptr, capacity) */\n      add\n        /* \"@chainlink/contracts/src/v0.8/vendor/BufferChainlink.sol\":1350:1352  32 */\n      0x20\n        /* \"@chainlink/contracts/src/v0.8/vendor/BufferChainlink.sol\":1346:1373  add(32, add(ptr, capacity)) */\n      add\n        /* \"@chainlink/contracts/src/v0.8/vendor/BufferChainlink.sol\":1340:1344  0x40 */\n      0x40\n        /* \"@chainlink/contracts/src/v0.8/vendor/BufferChainlink.sol\":1333:1374  mstore(0x40, add(32, add(ptr, capacity))) */\n      mstore\n        /* \"@chainlink/contracts/src/v0.8/vendor/BufferChainlink.sol\":1252:1380  {... */\n      pop\n        /* \"@chainlink/contracts/src/v0.8/vendor/BufferChainlink.sol\":1392:1395  buf */\n      dup3\n        /* \"@chainlink/contracts/src/v0.8/vendor/BufferChainlink.sol\":1385:1395  return buf */\n      swap1\n      pop\n        /* \"@chainlink/contracts/src/v0.8/vendor/BufferChainlink.sol\":1001:1400  function init(buffer memory buf, uint256 capacity) internal pure returns (buffer memory) {... */\n      swap3\n      swap2\n      pop\n      pop\n      jump\t// out\n        /* \"@chainlink/contracts/src/v0.8/vendor/CBORChainlink.sol\":2777:2981  function encodeString(BufferChainlink.buffer memory buf, string memory value) internal pure {... */\n    tag_194:\n        /* \"@chainlink/contracts/src/v0.8/vendor/CBORChainlink.sol\":2875:2946  encodeFixedNumeric(buf, MAJOR_TYPE_STRING, uint64(bytes(value).length)) */\n      tag_244\n        /* \"@chainlink/contracts/src/v0.8/vendor/CBORChainlink.sol\":2894:2897  buf */\n      dup3\n        /* \"@chainlink/contracts/src/v0.8/vendor/CBORChainlink.sol\":383:384  3 */\n      0x03\n        /* \"@chainlink/contracts/src/v0.8/vendor/CBORChainlink.sol\":2931:2936  value */\n      dup4\n        /* \"@chainlink/contracts/src/v0.8/vendor/CBORChainlink.sol\":2925:2944  bytes(value).length */\n      mload\n        /* \"@chainlink/contracts/src/v0.8/vendor/CBORChainlink.sol\":2875:2893  encodeFixedNumeric */\n      tag_245\n        /* \"@chainlink/contracts/src/v0.8/vendor/CBORChainlink.sol\":2875:2946  encodeFixedNumeric(buf, MAJOR_TYPE_STRING, uint64(bytes(value).length)) */\n      jump\t// in\n    tag_244:\n        /* \"@chainlink/contracts/src/v0.8/vendor/CBORChainlink.sol\":2952:2976  buf.append(bytes(value)) */\n      tag_246\n        /* \"@chainlink/contracts/src/v0.8/vendor/CBORChainlink.sol\":2969:2974  value */\n      dup2\n        /* \"@chainlink/contracts/src/v0.8/vendor/CBORChainlink.sol\":2952:2955  buf */\n      dup4\n        /* \"@chainlink/contracts/src/v0.8/vendor/CBORChainlink.sol\":2952:2962  buf.append */\n      tag_247\n      swap1\n        /* \"@chainlink/contracts/src/v0.8/vendor/CBORChainlink.sol\":2952:2976  buf.append(bytes(value)) */\n      swap2\n      swap1\n      0xffffffff\n      and\n      jump\t// in\n    tag_246:\n      pop\n        /* \"@chainlink/contracts/src/v0.8/vendor/CBORChainlink.sol\":2777:2981  function encodeString(BufferChainlink.buffer memory buf, string memory value) internal pure {... */\n      pop\n      pop\n      jump\t// out\n        /* \"@chainlink/contracts/src/v0.8/vendor/CBORChainlink.sol\":1464:1700  function encodeUInt(BufferChainlink.buffer memory buf, uint value) internal pure {... */\n    tag_198:\n        /* \"@chainlink/contracts/src/v0.8/vendor/CBORChainlink.sol\":1562:1580  0xFFFFFFFFFFFFFFFF */\n      0xffffffffffffffff\n        /* \"@chainlink/contracts/src/v0.8/vendor/CBORChainlink.sol\":1554:1559  value */\n      dup2\n        /* \"@chainlink/contracts/src/v0.8/vendor/CBORChainlink.sol\":1554:1580  value > 0xFFFFFFFFFFFFFFFF */\n      gt\n        /* \"@chainlink/contracts/src/v0.8/vendor/CBORChainlink.sol\":1551:1696  if(value > 0xFFFFFFFFFFFFFFFF) {... */\n      iszero\n      tag_249\n      jumpi\n        /* \"@chainlink/contracts/src/v0.8/vendor/CBORChainlink.sol\":1590:1614  encodeBigNum(buf, value) */\n      tag_250\n        /* \"@chainlink/contracts/src/v0.8/vendor/CBORChainlink.sol\":1603:1606  buf */\n      dup3\n        /* \"@chainlink/contracts/src/v0.8/vendor/CBORChainlink.sol\":1608:1613  value */\n      dup3\n        /* \"@chainlink/contracts/src/v0.8/vendor/CBORChainlink.sol\":1590:1602  encodeBigNum */\n      tag_251\n        /* \"@chainlink/contracts/src/v0.8/vendor/CBORChainlink.sol\":1590:1614  encodeBigNum(buf, value) */\n      jump\t// in\n    tag_250:\n        /* \"@chainlink/contracts/src/v0.8/vendor/CBORChainlink.sol\":1551:1696  if(value > 0xFFFFFFFFFFFFFFFF) {... */\n      jump(tag_252)\n    tag_249:\n        /* \"@chainlink/contracts/src/v0.8/vendor/CBORChainlink.sol\":1635:1689  encodeFixedNumeric(buf, MAJOR_TYPE_INT, uint64(value)) */\n      tag_253\n        /* \"@chainlink/contracts/src/v0.8/vendor/CBORChainlink.sol\":1654:1657  buf */\n      dup3\n        /* \"@chainlink/contracts/src/v0.8/vendor/CBORChainlink.sol\":234:235  0 */\n      0x00\n        /* \"@chainlink/contracts/src/v0.8/vendor/CBORChainlink.sol\":1682:1687  value */\n      dup4\n        /* \"@chainlink/contracts/src/v0.8/vendor/CBORChainlink.sol\":1635:1653  encodeFixedNumeric */\n      tag_245\n        /* \"@chainlink/contracts/src/v0.8/vendor/CBORChainlink.sol\":1635:1689  encodeFixedNumeric(buf, MAJOR_TYPE_INT, uint64(value)) */\n      jump\t// in\n    tag_253:\n        /* \"@chainlink/contracts/src/v0.8/vendor/CBORChainlink.sol\":1551:1696  if(value > 0xFFFFFFFFFFFFFFFF) {... */\n    tag_252:\n        /* \"@chainlink/contracts/src/v0.8/vendor/CBORChainlink.sol\":1464:1700  function encodeUInt(BufferChainlink.buffer memory buf, uint value) internal pure {... */\n      pop\n      pop\n      jump\t// out\n        /* \"@chainlink/contracts/src/v0.8/vendor/CBORChainlink.sol\":2985:3114  function startArray(BufferChainlink.buffer memory buf) internal pure {... */\n    tag_208:\n        /* \"@chainlink/contracts/src/v0.8/vendor/CBORChainlink.sol\":3060:3109  encodeIndefiniteLengthType(buf, MAJOR_TYPE_ARRAY) */\n      tag_255\n        /* \"@chainlink/contracts/src/v0.8/vendor/CBORChainlink.sol\":3087:3090  buf */\n      dup2\n        /* \"@chainlink/contracts/src/v0.8/vendor/CBORChainlink.sol\":430:431  4 */\n      0x04\n        /* \"@chainlink/contracts/src/v0.8/vendor/CBORChainlink.sol\":3060:3086  encodeIndefiniteLengthType */\n      tag_256\n        /* \"@chainlink/contracts/src/v0.8/vendor/CBORChainlink.sol\":3060:3109  encodeIndefiniteLengthType(buf, MAJOR_TYPE_ARRAY) */\n      jump\t// in\n    tag_255:\n        /* \"@chainlink/contracts/src/v0.8/vendor/CBORChainlink.sol\":2985:3114  function startArray(BufferChainlink.buffer memory buf) internal pure {... */\n      pop\n      jump\t// out\n        /* \"@chainlink/contracts/src/v0.8/vendor/CBORChainlink.sol\":3247:3384  function endSequence(BufferChainlink.buffer memory buf) internal pure {... */\n    tag_219:\n        /* \"@chainlink/contracts/src/v0.8/vendor/CBORChainlink.sol\":3323:3379  encodeIndefiniteLengthType(buf, MAJOR_TYPE_CONTENT_FREE) */\n      tag_258\n        /* \"@chainlink/contracts/src/v0.8/vendor/CBORChainlink.sol\":3350:3353  buf */\n      dup2\n        /* \"@chainlink/contracts/src/v0.8/vendor/CBORChainlink.sol\":574:575  7 */\n      0x07\n        /* \"@chainlink/contracts/src/v0.8/vendor/CBORChainlink.sol\":3323:3349  encodeIndefiniteLengthType */\n      tag_256\n        /* \"@chainlink/contracts/src/v0.8/vendor/CBORChainlink.sol\":3323:3379  encodeIndefiniteLengthType(buf, MAJOR_TYPE_CONTENT_FREE) */\n      jump\t// in\n    tag_258:\n        /* \"@chainlink/contracts/src/v0.8/vendor/CBORChainlink.sol\":3247:3384  function endSequence(BufferChainlink.buffer memory buf) internal pure {... */\n      pop\n      jump\t// out\n        /* \"@chainlink/contracts/src/v0.8/vendor/CBORChainlink.sol\":2154:2341  function encodeBytes(BufferChainlink.buffer memory buf, bytes memory value) internal pure {... */\n    tag_227:\n        /* \"@chainlink/contracts/src/v0.8/vendor/CBORChainlink.sol\":2250:2313  encodeFixedNumeric(buf, MAJOR_TYPE_BYTES, uint64(value.length)) */\n      tag_260\n        /* \"@chainlink/contracts/src/v0.8/vendor/CBORChainlink.sol\":2269:2272  buf */\n      dup3\n        /* \"@chainlink/contracts/src/v0.8/vendor/CBORChainlink.sol\":335:336  2 */\n      0x02\n        /* \"@chainlink/contracts/src/v0.8/vendor/CBORChainlink.sol\":2299:2304  value */\n      dup4\n        /* \"@chainlink/contracts/src/v0.8/vendor/CBORChainlink.sol\":2299:2311  value.length */\n      mload\n        /* \"@chainlink/contracts/src/v0.8/vendor/CBORChainlink.sol\":2250:2268  encodeFixedNumeric */\n      tag_245\n        /* \"@chainlink/contracts/src/v0.8/vendor/CBORChainlink.sol\":2250:2313  encodeFixedNumeric(buf, MAJOR_TYPE_BYTES, uint64(value.length)) */\n      jump\t// in\n    tag_260:\n        /* \"@chainlink/contracts/src/v0.8/vendor/CBORChainlink.sol\":2319:2336  buf.append(value) */\n      tag_261\n        /* \"@chainlink/contracts/src/v0.8/vendor/CBORChainlink.sol\":2330:2335  value */\n      dup2\n        /* \"@chainlink/contracts/src/v0.8/vendor/CBORChainlink.sol\":2319:2322  buf */\n      dup4\n        /* \"@chainlink/contracts/src/v0.8/vendor/CBORChainlink.sol\":2319:2329  buf.append */\n      tag_247\n      swap1\n        /* \"@chainlink/contracts/src/v0.8/vendor/CBORChainlink.sol\":2319:2336  buf.append(value) */\n      swap2\n      swap1\n      0xffffffff\n      and\n      jump\t// in\n    tag_261:\n      pop\n        /* \"@chainlink/contracts/src/v0.8/vendor/CBORChainlink.sol\":2154:2341  function encodeBytes(BufferChainlink.buffer memory buf, bytes memory value) internal pure {... */\n      pop\n      pop\n      jump\t// out\n        /* \"@chainlink/contracts/src/v0.8/vendor/CBORChainlink.sol\":682:1307  function encodeFixedNumeric(BufferChainlink.buffer memory buf, uint8 major, uint64 value) private pure {... */\n    tag_245:\n        /* \"@chainlink/contracts/src/v0.8/vendor/CBORChainlink.sol\":803:805  23 */\n      0x17\n        /* \"@chainlink/contracts/src/v0.8/vendor/CBORChainlink.sol\":794:799  value */\n      dup2\n        /* \"@chainlink/contracts/src/v0.8/vendor/CBORChainlink.sol\":794:805  value <= 23 */\n      0xffffffffffffffff\n      and\n      gt\n        /* \"@chainlink/contracts/src/v0.8/vendor/CBORChainlink.sol\":791:1303  if(value <= 23) {... */\n      tag_263\n      jumpi\n        /* \"@chainlink/contracts/src/v0.8/vendor/CBORChainlink.sol\":815:859  buf.appendUint8(uint8((major << 5) | value)) */\n      tag_264\n        /* \"@chainlink/contracts/src/v0.8/vendor/CBORChainlink.sol\":852:857  value */\n      dup2\n        /* \"@chainlink/contracts/src/v0.8/vendor/CBORChainlink.sol\":847:848  5 */\n      0x05\n        /* \"@chainlink/contracts/src/v0.8/vendor/CBORChainlink.sol\":838:843  major */\n      dup5\n        /* \"@chainlink/contracts/src/v0.8/vendor/CBORChainlink.sol\":838:848  major << 5 */\n      0xff\n      and\n      swap1\n      shl\n        /* \"@chainlink/contracts/src/v0.8/vendor/CBORChainlink.sol\":837:857  (major << 5) | value */\n      0xff\n      and\n      or\n        /* \"@chainlink/contracts/src/v0.8/vendor/CBORChainlink.sol\":815:818  buf */\n      dup5\n        /* \"@chainlink/contracts/src/v0.8/vendor/CBORChainlink.sol\":815:830  buf.appendUint8 */\n      tag_265\n      swap1\n        /* \"@chainlink/contracts/src/v0.8/vendor/CBORChainlink.sol\":815:859  buf.appendUint8(uint8((major << 5) | value)) */\n      swap2\n      swap1\n      0xffffffff\n      and\n      jump\t// in\n    tag_264:\n      pop\n        /* \"@chainlink/contracts/src/v0.8/vendor/CBORChainlink.sol\":791:1303  if(value <= 23) {... */\n      jump(tag_266)\n    tag_263:\n        /* \"@chainlink/contracts/src/v0.8/vendor/CBORChainlink.sol\":885:889  0xFF */\n      0xff\n        /* \"@chainlink/contracts/src/v0.8/vendor/CBORChainlink.sol\":876:881  value */\n      dup2\n        /* \"@chainlink/contracts/src/v0.8/vendor/CBORChainlink.sol\":876:889  value <= 0xFF */\n      0xffffffffffffffff\n      and\n      gt\n        /* \"@chainlink/contracts/src/v0.8/vendor/CBORChainlink.sol\":872:1303  if (value <= 0xFF) {... */\n      tag_267\n      jumpi\n        /* \"@chainlink/contracts/src/v0.8/vendor/CBORChainlink.sol\":899:940  buf.appendUint8(uint8((major << 5) | 24)) */\n      tag_268\n        /* \"@chainlink/contracts/src/v0.8/vendor/CBORChainlink.sol\":936:938  24 */\n      0x18\n        /* \"@chainlink/contracts/src/v0.8/vendor/CBORChainlink.sol\":931:932  5 */\n      0x05\n        /* \"@chainlink/contracts/src/v0.8/vendor/CBORChainlink.sol\":922:927  major */\n      dup5\n        /* \"@chainlink/contracts/src/v0.8/vendor/CBORChainlink.sol\":922:932  major << 5 */\n      0xff\n      and\n      swap1\n      shl\n        /* \"@chainlink/contracts/src/v0.8/vendor/CBORChainlink.sol\":921:938  (major << 5) | 24 */\n      or\n        /* \"@chainlink/contracts/src/v0.8/vendor/CBORChainlink.sol\":899:902  buf */\n      dup5\n        /* \"@chainlink/contracts/src/v0.8/vendor/CBORChainlink.sol\":899:914  buf.appendUint8 */\n      tag_265\n      swap1\n        /* \"@chainlink/contracts/src/v0.8/vendor/CBORChainlink.sol\":899:940  buf.appendUint8(uint8((major << 5) | 24)) */\n      swap2\n      swap1\n      0xffffffff\n      and\n      jump\t// in\n    tag_268:\n      pop\n        /* \"@chainlink/contracts/src/v0.8/vendor/CBORChainlink.sol\":948:971  buf.appendInt(value, 1) */\n      tag_269\n        /* \"@chainlink/contracts/src/v0.8/vendor/CBORChainlink.sol\":962:967  value */\n      dup2\n        /* \"@chainlink/contracts/src/v0.8/vendor/CBORChainlink.sol\":948:971  buf.appendInt(value, 1) */\n      0xffffffffffffffff\n      and\n        /* \"@chainlink/contracts/src/v0.8/vendor/CBORChainlink.sol\":969:970  1 */\n      0x01\n        /* \"@chainlink/contracts/src/v0.8/vendor/CBORChainlink.sol\":948:951  buf */\n      dup6\n        /* \"@chainlink/contracts/src/v0.8/vendor/CBORChainlink.sol\":948:961  buf.appendInt */\n      tag_270\n      swap1\n        /* \"@chainlink/contracts/src/v0.8/vendor/CBORChainlink.sol\":948:971  buf.appendInt(value, 1) */\n      swap3\n      swap2\n      swap1\n      0xffffffff\n      and\n      jump\t// in\n    tag_269:\n      pop\n        /* \"@chainlink/contracts/src/v0.8/vendor/CBORChainlink.sol\":872:1303  if (value <= 0xFF) {... */\n      jump(tag_271)\n    tag_267:\n        /* \"@chainlink/contracts/src/v0.8/vendor/CBORChainlink.sol\":997:1003  0xFFFF */\n      0xffff\n        /* \"@chainlink/contracts/src/v0.8/vendor/CBORChainlink.sol\":988:993  value */\n      dup2\n        /* \"@chainlink/contracts/src/v0.8/vendor/CBORChainlink.sol\":988:1003  value <= 0xFFFF */\n      0xffffffffffffffff\n      and\n      gt\n        /* \"@chainlink/contracts/src/v0.8/vendor/CBORChainlink.sol\":984:1303  if (value <= 0xFFFF) {... */\n      tag_272\n      jumpi\n        /* \"@chainlink/contracts/src/v0.8/vendor/CBORChainlink.sol\":1013:1054  buf.appendUint8(uint8((major << 5) | 25)) */\n      tag_273\n        /* \"@chainlink/contracts/src/v0.8/vendor/CBORChainlink.sol\":1050:1052  25 */\n      0x19\n        /* \"@chainlink/contracts/src/v0.8/vendor/CBORChainlink.sol\":1045:1046  5 */\n      0x05\n        /* \"@chainlink/contracts/src/v0.8/vendor/CBORChainlink.sol\":1036:1041  major */\n      dup5\n        /* \"@chainlink/contracts/src/v0.8/vendor/CBORChainlink.sol\":1036:1046  major << 5 */\n      0xff\n      and\n      swap1\n      shl\n        /* \"@chainlink/contracts/src/v0.8/vendor/CBORChainlink.sol\":1035:1052  (major << 5) | 25 */\n      or\n        /* \"@chainlink/contracts/src/v0.8/vendor/CBORChainlink.sol\":1013:1016  buf */\n      dup5\n        /* \"@chainlink/contracts/src/v0.8/vendor/CBORChainlink.sol\":1013:1028  buf.appendUint8 */\n      tag_265\n      swap1\n        /* \"@chainlink/contracts/src/v0.8/vendor/CBORChainlink.sol\":1013:1054  buf.appendUint8(uint8((major << 5) | 25)) */\n      swap2\n      swap1\n      0xffffffff\n      and\n      jump\t// in\n    tag_273:\n      pop\n        /* \"@chainlink/contracts/src/v0.8/vendor/CBORChainlink.sol\":1062:1085  buf.appendInt(value, 2) */\n      tag_274\n        /* \"@chainlink/contracts/src/v0.8/vendor/CBORChainlink.sol\":1076:1081  value */\n      dup2\n        /* \"@chainlink/contracts/src/v0.8/vendor/CBORChainlink.sol\":1062:1085  buf.appendInt(value, 2) */\n      0xffffffffffffffff\n      and\n        /* \"@chainlink/contracts/src/v0.8/vendor/CBORChainlink.sol\":1083:1084  2 */\n      0x02\n        /* \"@chainlink/contracts/src/v0.8/vendor/CBORChainlink.sol\":1062:1065  buf */\n      dup6\n        /* \"@chainlink/contracts/src/v0.8/vendor/CBORChainlink.sol\":1062:1075  buf.appendInt */\n      tag_270\n      swap1\n        /* \"@chainlink/contracts/src/v0.8/vendor/CBORChainlink.sol\":1062:1085  buf.appendInt(value, 2) */\n      swap3\n      swap2\n      swap1\n      0xffffffff\n      and\n      jump\t// in\n    tag_274:\n      pop\n        /* \"@chainlink/contracts/src/v0.8/vendor/CBORChainlink.sol\":984:1303  if (value <= 0xFFFF) {... */\n      jump(tag_275)\n    tag_272:\n        /* \"@chainlink/contracts/src/v0.8/vendor/CBORChainlink.sol\":1111:1121  0xFFFFFFFF */\n      0xffffffff\n        /* \"@chainlink/contracts/src/v0.8/vendor/CBORChainlink.sol\":1102:1107  value */\n      dup2\n        /* \"@chainlink/contracts/src/v0.8/vendor/CBORChainlink.sol\":1102:1121  value <= 0xFFFFFFFF */\n      0xffffffffffffffff\n      and\n      gt\n        /* \"@chainlink/contracts/src/v0.8/vendor/CBORChainlink.sol\":1098:1303  if (value <= 0xFFFFFFFF) {... */\n      tag_276\n      jumpi\n        /* \"@chainlink/contracts/src/v0.8/vendor/CBORChainlink.sol\":1131:1172  buf.appendUint8(uint8((major << 5) | 26)) */\n      tag_277\n        /* \"@chainlink/contracts/src/v0.8/vendor/CBORChainlink.sol\":1168:1170  26 */\n      0x1a\n        /* \"@chainlink/contracts/src/v0.8/vendor/CBORChainlink.sol\":1163:1164  5 */\n      0x05\n        /* \"@chainlink/contracts/src/v0.8/vendor/CBORChainlink.sol\":1154:1159  major */\n      dup5\n        /* \"@chainlink/contracts/src/v0.8/vendor/CBORChainlink.sol\":1154:1164  major << 5 */\n      0xff\n      and\n      swap1\n      shl\n        /* \"@chainlink/contracts/src/v0.8/vendor/CBORChainlink.sol\":1153:1170  (major << 5) | 26 */\n      or\n        /* \"@chainlink/contracts/src/v0.8/vendor/CBORChainlink.sol\":1131:1134  buf */\n      dup5\n        /* \"@chainlink/contracts/src/v0.8/vendor/CBORChainlink.sol\":1131:1146  buf.appendUint8 */\n      tag_265\n      swap1\n        /* \"@chainlink/contracts/src/v0.8/vendor/CBORChainlink.sol\":1131:1172  buf.appendUint8(uint8((major << 5) | 26)) */\n      swap2\n      swap1\n      0xffffffff\n      and\n      jump\t// in\n    tag_277:\n      pop\n        /* \"@chainlink/contracts/src/v0.8/vendor/CBORChainlink.sol\":1180:1203  buf.appendInt(value, 4) */\n      tag_278\n        /* \"@chainlink/contracts/src/v0.8/vendor/CBORChainlink.sol\":1194:1199  value */\n      dup2\n        /* \"@chainlink/contracts/src/v0.8/vendor/CBORChainlink.sol\":1180:1203  buf.appendInt(value, 4) */\n      0xffffffffffffffff\n      and\n        /* \"@chainlink/contracts/src/v0.8/vendor/CBORChainlink.sol\":1201:1202  4 */\n      0x04\n        /* \"@chainlink/contracts/src/v0.8/vendor/CBORChainlink.sol\":1180:1183  buf */\n      dup6\n        /* \"@chainlink/contracts/src/v0.8/vendor/CBORChainlink.sol\":1180:1193  buf.appendInt */\n      tag_270\n      swap1\n        /* \"@chainlink/contracts/src/v0.8/vendor/CBORChainlink.sol\":1180:1203  buf.appendInt(value, 4) */\n      swap3\n      swap2\n      swap1\n      0xffffffff\n      and\n      jump\t// in\n    tag_278:\n      pop\n        /* \"@chainlink/contracts/src/v0.8/vendor/CBORChainlink.sol\":1098:1303  if (value <= 0xFFFFFFFF) {... */\n      jump(tag_279)\n    tag_276:\n        /* \"@chainlink/contracts/src/v0.8/vendor/CBORChainlink.sol\":1224:1265  buf.appendUint8(uint8((major << 5) | 27)) */\n      tag_280\n        /* \"@chainlink/contracts/src/v0.8/vendor/CBORChainlink.sol\":1261:1263  27 */\n      0x1b\n        /* \"@chainlink/contracts/src/v0.8/vendor/CBORChainlink.sol\":1256:1257  5 */\n      0x05\n        /* \"@chainlink/contracts/src/v0.8/vendor/CBORChainlink.sol\":1247:1252  major */\n      dup5\n        /* \"@chainlink/contracts/src/v0.8/vendor/CBORChainlink.sol\":1247:1257  major << 5 */\n      0xff\n      and\n      swap1\n      shl\n        /* \"@chainlink/contracts/src/v0.8/vendor/CBORChainlink.sol\":1246:1263  (major << 5) | 27 */\n      or\n        /* \"@chainlink/contracts/src/v0.8/vendor/CBORChainlink.sol\":1224:1227  buf */\n      dup5\n        /* \"@chainlink/contracts/src/v0.8/vendor/CBORChainlink.sol\":1224:1239  buf.appendUint8 */\n      tag_265\n      swap1\n        /* \"@chainlink/contracts/src/v0.8/vendor/CBORChainlink.sol\":1224:1265  buf.appendUint8(uint8((major << 5) | 27)) */\n      swap2\n      swap1\n      0xffffffff\n      and\n      jump\t// in\n    tag_280:\n      pop\n        /* \"@chainlink/contracts/src/v0.8/vendor/CBORChainlink.sol\":1273:1296  buf.appendInt(value, 8) */\n      tag_281\n        /* \"@chainlink/contracts/src/v0.8/vendor/CBORChainlink.sol\":1287:1292  value */\n      dup2\n        /* \"@chainlink/contracts/src/v0.8/vendor/CBORChainlink.sol\":1273:1296  buf.appendInt(value, 8) */\n      0xffffffffffffffff\n      and\n        /* \"@chainlink/contracts/src/v0.8/vendor/CBORChainlink.sol\":1294:1295  8 */\n      0x08\n        /* \"@chainlink/contracts/src/v0.8/vendor/CBORChainlink.sol\":1273:1276  buf */\n      dup6\n        /* \"@chainlink/contracts/src/v0.8/vendor/CBORChainlink.sol\":1273:1286  buf.appendInt */\n      tag_270\n      swap1\n        /* \"@chainlink/contracts/src/v0.8/vendor/CBORChainlink.sol\":1273:1296  buf.appendInt(value, 8) */\n      swap3\n      swap2\n      swap1\n      0xffffffff\n      and\n      jump\t// in\n    tag_281:\n      pop\n        /* \"@chainlink/contracts/src/v0.8/vendor/CBORChainlink.sol\":1098:1303  if (value <= 0xFFFFFFFF) {... */\n    tag_279:\n        /* \"@chainlink/contracts/src/v0.8/vendor/CBORChainlink.sol\":984:1303  if (value <= 0xFFFF) {... */\n    tag_275:\n        /* \"@chainlink/contracts/src/v0.8/vendor/CBORChainlink.sol\":872:1303  if (value <= 0xFF) {... */\n    tag_271:\n        /* \"@chainlink/contracts/src/v0.8/vendor/CBORChainlink.sol\":791:1303  if(value <= 23) {... */\n    tag_266:\n        /* \"@chainlink/contracts/src/v0.8/vendor/CBORChainlink.sol\":682:1307  function encodeFixedNumeric(BufferChainlink.buffer memory buf, uint8 major, uint64 value) private pure {... */\n      pop\n      pop\n      pop\n      jump\t// out\n        /* \"@chainlink/contracts/src/v0.8/vendor/BufferChainlink.sol\":4692:4847  function append(buffer memory buf, bytes memory data) internal pure returns (buffer memory) {... */\n    tag_247:\n        /* \"@chainlink/contracts/src/v0.8/vendor/BufferChainlink.sol\":4769:4782  buffer memory */\n      tag_282\n      tag_190\n      jump\t// in\n    tag_282:\n        /* \"@chainlink/contracts/src/v0.8/vendor/BufferChainlink.sol\":4797:4842  write(buf, buf.buf.length, data, data.length) */\n      tag_284\n        /* \"@chainlink/contracts/src/v0.8/vendor/BufferChainlink.sol\":4803:4806  buf */\n      dup4\n        /* \"@chainlink/contracts/src/v0.8/vendor/BufferChainlink.sol\":4808:4811  buf */\n      dup5\n        /* \"@chainlink/contracts/src/v0.8/vendor/BufferChainlink.sol\":4808:4815  buf.buf */\n      0x00\n      add\n      mload\n        /* \"@chainlink/contracts/src/v0.8/vendor/BufferChainlink.sol\":4808:4822  buf.buf.length */\n      mload\n        /* \"@chainlink/contracts/src/v0.8/vendor/BufferChainlink.sol\":4824:4828  data */\n      dup5\n        /* \"@chainlink/contracts/src/v0.8/vendor/BufferChainlink.sol\":4830:4834  data */\n      dup6\n        /* \"@chainlink/contracts/src/v0.8/vendor/BufferChainlink.sol\":4830:4841  data.length */\n      mload\n        /* \"@chainlink/contracts/src/v0.8/vendor/BufferChainlink.sol\":4797:4802  write */\n      tag_285\n        /* \"@chainlink/contracts/src/v0.8/vendor/BufferChainlink.sol\":4797:4842  write(buf, buf.buf.length, data, data.length) */\n      jump\t// in\n    tag_284:\n        /* \"@chainlink/contracts/src/v0.8/vendor/BufferChainlink.sol\":4790:4842  return write(buf, buf.buf.length, data, data.length) */\n      swap1\n      pop\n        /* \"@chainlink/contracts/src/v0.8/vendor/BufferChainlink.sol\":4692:4847  function append(buffer memory buf, bytes memory data) internal pure returns (buffer memory) {... */\n      swap3\n      swap2\n      pop\n      pop\n      jump\t// out\n        /* \"@chainlink/contracts/src/v0.8/vendor/CBORChainlink.sol\":2345:2543  function encodeBigNum(BufferChainlink.buffer memory buf, uint value) internal pure {... */\n    tag_251:\n        /* \"@chainlink/contracts/src/v0.8/vendor/CBORChainlink.sol\":2434:2497  buf.appendUint8(uint8((MAJOR_TYPE_TAG << 5) | TAG_TYPE_BIGNUM)) */\n      tag_287\n        /* \"@chainlink/contracts/src/v0.8/vendor/CBORChainlink.sol\":621:622  2 */\n      0x02\n        /* \"@chainlink/contracts/src/v0.8/vendor/CBORChainlink.sol\":2475:2476  5 */\n      0x05\n        /* \"@chainlink/contracts/src/v0.8/vendor/CBORChainlink.sol\":520:521  6 */\n      0x06\n        /* \"@chainlink/contracts/src/v0.8/vendor/CBORChainlink.sol\":2457:2476  MAJOR_TYPE_TAG << 5 */\n      0xff\n      and\n      swap1\n      shl\n        /* \"@chainlink/contracts/src/v0.8/vendor/CBORChainlink.sol\":2456:2495  (MAJOR_TYPE_TAG << 5) | TAG_TYPE_BIGNUM */\n      or\n        /* \"@chainlink/contracts/src/v0.8/vendor/CBORChainlink.sol\":2434:2437  buf */\n      dup4\n        /* \"@chainlink/contracts/src/v0.8/vendor/CBORChainlink.sol\":2434:2449  buf.appendUint8 */\n      tag_265\n      swap1\n        /* \"@chainlink/contracts/src/v0.8/vendor/CBORChainlink.sol\":2434:2497  buf.appendUint8(uint8((MAJOR_TYPE_TAG << 5) | TAG_TYPE_BIGNUM)) */\n      swap2\n      swap1\n      0xffffffff\n      and\n      jump\t// in\n    tag_287:\n      pop\n        /* \"@chainlink/contracts/src/v0.8/vendor/CBORChainlink.sol\":2503:2538  encodeBytes(buf, abi.encode(value)) */\n      tag_288\n        /* \"@chainlink/contracts/src/v0.8/vendor/CBORChainlink.sol\":2515:2518  buf */\n      dup3\n        /* \"@chainlink/contracts/src/v0.8/vendor/CBORChainlink.sol\":2531:2536  value */\n      dup3\n        /* \"@chainlink/contracts/src/v0.8/vendor/CBORChainlink.sol\":2520:2537  abi.encode(value) */\n      add(0x20, mload(0x40))\n      tag_289\n      swap2\n      swap1\n      tag_290\n      jump\t// in\n    tag_289:\n      mload(0x40)\n      0x20\n      dup2\n      dup4\n      sub\n      sub\n      dup2\n      mstore\n      swap1\n      0x40\n      mstore\n        /* \"@chainlink/contracts/src/v0.8/vendor/CBORChainlink.sol\":2503:2514  encodeBytes */\n      tag_227\n        /* \"@chainlink/contracts/src/v0.8/vendor/CBORChainlink.sol\":2503:2538  encodeBytes(buf, abi.encode(value)) */\n      jump\t// in\n    tag_288:\n        /* \"@chainlink/contracts/src/v0.8/vendor/CBORChainlink.sol\":2345:2543  function encodeBigNum(BufferChainlink.buffer memory buf, uint value) internal pure {... */\n      pop\n      pop\n      jump\t// out\n        /* \"@chainlink/contracts/src/v0.8/vendor/CBORChainlink.sol\":1311:1460  function encodeIndefiniteLengthType(BufferChainlink.buffer memory buf, uint8 major) private pure {... */\n    tag_256:\n        /* \"@chainlink/contracts/src/v0.8/vendor/CBORChainlink.sol\":1414:1455  buf.appendUint8(uint8((major << 5) | 31)) */\n      tag_292\n        /* \"@chainlink/contracts/src/v0.8/vendor/CBORChainlink.sol\":1451:1453  31 */\n      0x1f\n        /* \"@chainlink/contracts/src/v0.8/vendor/CBORChainlink.sol\":1446:1447  5 */\n      0x05\n        /* \"@chainlink/contracts/src/v0.8/vendor/CBORChainlink.sol\":1437:1442  major */\n      dup4\n        /* \"@chainlink/contracts/src/v0.8/vendor/CBORChainlink.sol\":1437:1447  major << 5 */\n      0xff\n      and\n      swap1\n      shl\n        /* \"@chainlink/contracts/src/v0.8/vendor/CBORChainlink.sol\":1436:1453  (major << 5) | 31 */\n      or\n        /* \"@chainlink/contracts/src/v0.8/vendor/CBORChainlink.sol\":1414:1417  buf */\n      dup4\n        /* \"@chainlink/contracts/src/v0.8/vendor/CBORChainlink.sol\":1414:1429  buf.appendUint8 */\n      tag_265\n      swap1\n        /* \"@chainlink/contracts/src/v0.8/vendor/CBORChainlink.sol\":1414:1455  buf.appendUint8(uint8((major << 5) | 31)) */\n      swap2\n      swap1\n      0xffffffff\n      and\n      jump\t// in\n    tag_292:\n      pop\n        /* \"@chainlink/contracts/src/v0.8/vendor/CBORChainlink.sol\":1311:1460  function encodeIndefiniteLengthType(BufferChainlink.buffer memory buf, uint8 major) private pure {... */\n      pop\n      pop\n      jump\t// out\n        /* \"@chainlink/contracts/src/v0.8/vendor/BufferChainlink.sol\":6040:6185  function appendUint8(buffer memory buf, uint8 data) internal pure returns (buffer memory) {... */\n    tag_265:\n        /* \"@chainlink/contracts/src/v0.8/vendor/BufferChainlink.sol\":6115:6128  buffer memory */\n      tag_293\n      tag_190\n      jump\t// in\n    tag_293:\n        /* \"@chainlink/contracts/src/v0.8/vendor/BufferChainlink.sol\":6143:6180  writeUint8(buf, buf.buf.length, data) */\n      tag_295\n        /* \"@chainlink/contracts/src/v0.8/vendor/BufferChainlink.sol\":6154:6157  buf */\n      dup4\n        /* \"@chainlink/contracts/src/v0.8/vendor/BufferChainlink.sol\":6159:6162  buf */\n      dup5\n        /* \"@chainlink/contracts/src/v0.8/vendor/BufferChainlink.sol\":6159:6166  buf.buf */\n      0x00\n      add\n      mload\n        /* \"@chainlink/contracts/src/v0.8/vendor/BufferChainlink.sol\":6159:6173  buf.buf.length */\n      mload\n        /* \"@chainlink/contracts/src/v0.8/vendor/BufferChainlink.sol\":6175:6179  data */\n      dup5\n        /* \"@chainlink/contracts/src/v0.8/vendor/BufferChainlink.sol\":6143:6153  writeUint8 */\n      tag_296\n        /* \"@chainlink/contracts/src/v0.8/vendor/BufferChainlink.sol\":6143:6180  writeUint8(buf, buf.buf.length, data) */\n      jump\t// in\n    tag_295:\n        /* \"@chainlink/contracts/src/v0.8/vendor/BufferChainlink.sol\":6136:6180  return writeUint8(buf, buf.buf.length, data) */\n      swap1\n      pop\n        /* \"@chainlink/contracts/src/v0.8/vendor/BufferChainlink.sol\":6040:6185  function appendUint8(buffer memory buf, uint8 data) internal pure returns (buffer memory) {... */\n      swap3\n      swap2\n      pop\n      pop\n      jump\t// out\n        /* \"@chainlink/contracts/src/v0.8/vendor/BufferChainlink.sol\":9894:10071  function appendInt(... */\n    tag_270:\n        /* \"@chainlink/contracts/src/v0.8/vendor/BufferChainlink.sol\":9998:10011  buffer memory */\n      tag_297\n      tag_190\n      jump\t// in\n    tag_297:\n        /* \"@chainlink/contracts/src/v0.8/vendor/BufferChainlink.sol\":10026:10066  writeInt(buf, buf.buf.length, data, len) */\n      tag_299\n        /* \"@chainlink/contracts/src/v0.8/vendor/BufferChainlink.sol\":10035:10038  buf */\n      dup5\n        /* \"@chainlink/contracts/src/v0.8/vendor/BufferChainlink.sol\":10040:10043  buf */\n      dup6\n        /* \"@chainlink/contracts/src/v0.8/vendor/BufferChainlink.sol\":10040:10047  buf.buf */\n      0x00\n      add\n      mload\n        /* \"@chainlink/contracts/src/v0.8/vendor/BufferChainlink.sol\":10040:10054  buf.buf.length */\n      mload\n        /* \"@chainlink/contracts/src/v0.8/vendor/BufferChainlink.sol\":10056:10060  data */\n      dup6\n        /* \"@chainlink/contracts/src/v0.8/vendor/BufferChainlink.sol\":10062:10065  len */\n      dup6\n        /* \"@chainlink/contracts/src/v0.8/vendor/BufferChainlink.sol\":10026:10034  writeInt */\n      tag_300\n        /* \"@chainlink/contracts/src/v0.8/vendor/BufferChainlink.sol\":10026:10066  writeInt(buf, buf.buf.length, data, len) */\n      jump\t// in\n    tag_299:\n        /* \"@chainlink/contracts/src/v0.8/vendor/BufferChainlink.sol\":10019:10066  return writeInt(buf, buf.buf.length, data, len) */\n      swap1\n      pop\n        /* \"@chainlink/contracts/src/v0.8/vendor/BufferChainlink.sol\":9894:10071  function appendInt(... */\n      swap4\n      swap3\n      pop\n      pop\n      pop\n      jump\t// out\n        /* \"@chainlink/contracts/src/v0.8/vendor/BufferChainlink.sol\":2745:3955  function write(... */\n    tag_285:\n        /* \"@chainlink/contracts/src/v0.8/vendor/BufferChainlink.sol\":2867:2880  buffer memory */\n      tag_301\n      tag_190\n      jump\t// in\n    tag_301:\n        /* \"@chainlink/contracts/src/v0.8/vendor/BufferChainlink.sol\":2903:2907  data */\n      dup3\n        /* \"@chainlink/contracts/src/v0.8/vendor/BufferChainlink.sol\":2903:2914  data.length */\n      mload\n        /* \"@chainlink/contracts/src/v0.8/vendor/BufferChainlink.sol\":2896:2899  len */\n      dup3\n        /* \"@chainlink/contracts/src/v0.8/vendor/BufferChainlink.sol\":2896:2914  len <= data.length */\n      gt\n      iszero\n        /* \"@chainlink/contracts/src/v0.8/vendor/BufferChainlink.sol\":2888:2915  require(len <= data.length) */\n      tag_303\n      jumpi\n      0x00\n      dup1\n      revert\n    tag_303:\n        /* \"@chainlink/contracts/src/v0.8/vendor/BufferChainlink.sol\":2938:2941  buf */\n      dup5\n        /* \"@chainlink/contracts/src/v0.8/vendor/BufferChainlink.sol\":2938:2950  buf.capacity */\n      0x20\n      add\n      mload\n        /* \"@chainlink/contracts/src/v0.8/vendor/BufferChainlink.sol\":2932:2935  len */\n      dup3\n        /* \"@chainlink/contracts/src/v0.8/vendor/BufferChainlink.sol\":2926:2929  off */\n      dup6\n        /* \"@chainlink/contracts/src/v0.8/vendor/BufferChainlink.sol\":2926:2935  off + len */\n      tag_304\n      swap2\n      swap1\n      tag_242\n      jump\t// in\n    tag_304:\n        /* \"@chainlink/contracts/src/v0.8/vendor/BufferChainlink.sol\":2926:2950  off + len > buf.capacity */\n      gt\n        /* \"@chainlink/contracts/src/v0.8/vendor/BufferChainlink.sol\":2922:3012  if (off + len > buf.capacity) {... */\n      iszero\n      tag_305\n      jumpi\n        /* \"@chainlink/contracts/src/v0.8/vendor/BufferChainlink.sol\":2960:3005  resize(buf, max(buf.capacity, len + off) * 2) */\n      tag_306\n        /* \"@chainlink/contracts/src/v0.8/vendor/BufferChainlink.sol\":2967:2970  buf */\n      dup6\n        /* \"@chainlink/contracts/src/v0.8/vendor/BufferChainlink.sol\":3003:3004  2 */\n      0x02\n        /* \"@chainlink/contracts/src/v0.8/vendor/BufferChainlink.sol\":2972:3000  max(buf.capacity, len + off) */\n      tag_307\n        /* \"@chainlink/contracts/src/v0.8/vendor/BufferChainlink.sol\":2976:2979  buf */\n      dup9\n        /* \"@chainlink/contracts/src/v0.8/vendor/BufferChainlink.sol\":2976:2988  buf.capacity */\n      0x20\n      add\n      mload\n        /* \"@chainlink/contracts/src/v0.8/vendor/BufferChainlink.sol\":2996:2999  off */\n      dup9\n        /* \"@chainlink/contracts/src/v0.8/vendor/BufferChainlink.sol\":2990:2993  len */\n      dup8\n        /* \"@chainlink/contracts/src/v0.8/vendor/BufferChainlink.sol\":2990:2999  len + off */\n      tag_308\n      swap2\n      swap1\n      tag_242\n      jump\t// in\n    tag_308:\n        /* \"@chainlink/contracts/src/v0.8/vendor/BufferChainlink.sol\":2972:2975  max */\n      tag_309\n        /* \"@chainlink/contracts/src/v0.8/vendor/BufferChainlink.sol\":2972:3000  max(buf.capacity, len + off) */\n      jump\t// in\n    tag_307:\n        /* \"@chainlink/contracts/src/v0.8/vendor/BufferChainlink.sol\":2972:3004  max(buf.capacity, len + off) * 2 */\n      tag_310\n      swap2\n      swap1\n      tag_311\n      jump\t// in\n    tag_310:\n        /* \"@chainlink/contracts/src/v0.8/vendor/BufferChainlink.sol\":2960:2966  resize */\n      tag_312\n        /* \"@chainlink/contracts/src/v0.8/vendor/BufferChainlink.sol\":2960:3005  resize(buf, max(buf.capacity, len + off) * 2) */\n      jump\t// in\n    tag_306:\n        /* \"@chainlink/contracts/src/v0.8/vendor/BufferChainlink.sol\":2922:3012  if (off + len > buf.capacity) {... */\n    tag_305:\n        /* \"@chainlink/contracts/src/v0.8/vendor/BufferChainlink.sol\":3018:3030  uint256 dest */\n      0x00\n        /* \"@chainlink/contracts/src/v0.8/vendor/BufferChainlink.sol\":3036:3047  uint256 src */\n      dup1\n        /* \"@chainlink/contracts/src/v0.8/vendor/BufferChainlink.sol\":3133:3136  buf */\n      dup7\n        /* \"@chainlink/contracts/src/v0.8/vendor/BufferChainlink.sol\":3127:3137  mload(buf) */\n      mload\n        /* \"@chainlink/contracts/src/v0.8/vendor/BufferChainlink.sol\":3204:3210  bufptr */\n      dup1\n        /* \"@chainlink/contracts/src/v0.8/vendor/BufferChainlink.sol\":3198:3211  mload(bufptr) */\n      mload\n        /* \"@chainlink/contracts/src/v0.8/vendor/BufferChainlink.sol\":3320:3323  off */\n      dup8\n        /* \"@chainlink/contracts/src/v0.8/vendor/BufferChainlink.sol\":3315:3317  32 */\n      0x20\n        /* \"@chainlink/contracts/src/v0.8/vendor/BufferChainlink.sol\":3307:3313  bufptr */\n      dup4\n        /* \"@chainlink/contracts/src/v0.8/vendor/BufferChainlink.sol\":3303:3318  add(bufptr, 32) */\n      add\n        /* \"@chainlink/contracts/src/v0.8/vendor/BufferChainlink.sol\":3299:3324  add(add(bufptr, 32), off) */\n      add\n        /* \"@chainlink/contracts/src/v0.8/vendor/BufferChainlink.sol\":3291:3324  dest := add(add(bufptr, 32), off) */\n      swap4\n      pop\n        /* \"@chainlink/contracts/src/v0.8/vendor/BufferChainlink.sol\":3404:3410  buflen */\n      dup1\n        /* \"@chainlink/contracts/src/v0.8/vendor/BufferChainlink.sol\":3398:3401  off */\n      dup9\n        /* \"@chainlink/contracts/src/v0.8/vendor/BufferChainlink.sol\":3393:3396  len */\n      dup8\n        /* \"@chainlink/contracts/src/v0.8/vendor/BufferChainlink.sol\":3389:3402  add(len, off) */\n      add\n        /* \"@chainlink/contracts/src/v0.8/vendor/BufferChainlink.sol\":3386:3411  gt(add(len, off), buflen) */\n      gt\n        /* \"@chainlink/contracts/src/v0.8/vendor/BufferChainlink.sol\":3383:3459  if gt(add(len, off), buflen) {... */\n      iszero\n      tag_313\n      jumpi\n        /* \"@chainlink/contracts/src/v0.8/vendor/BufferChainlink.sol\":3446:3449  off */\n      dup8\n        /* \"@chainlink/contracts/src/v0.8/vendor/BufferChainlink.sol\":3441:3444  len */\n      dup7\n        /* \"@chainlink/contracts/src/v0.8/vendor/BufferChainlink.sol\":3437:3450  add(len, off) */\n      add\n        /* \"@chainlink/contracts/src/v0.8/vendor/BufferChainlink.sol\":3429:3435  bufptr */\n      dup3\n        /* \"@chainlink/contracts/src/v0.8/vendor/BufferChainlink.sol\":3422:3451  mstore(bufptr, add(len, off)) */\n      mstore\n        /* \"@chainlink/contracts/src/v0.8/vendor/BufferChainlink.sol\":3383:3459  if gt(add(len, off), buflen) {... */\n    tag_313:\n        /* \"@chainlink/contracts/src/v0.8/vendor/BufferChainlink.sol\":3483:3485  32 */\n      0x20\n        /* \"@chainlink/contracts/src/v0.8/vendor/BufferChainlink.sol\":3477:3481  data */\n      dup8\n        /* \"@chainlink/contracts/src/v0.8/vendor/BufferChainlink.sol\":3473:3486  add(data, 32) */\n      add\n        /* \"@chainlink/contracts/src/v0.8/vendor/BufferChainlink.sol\":3466:3486  src := add(data, 32) */\n      swap3\n      pop\n        /* \"@chainlink/contracts/src/v0.8/vendor/BufferChainlink.sol\":3062:3492  {... */\n      pop\n      pop\n        /* \"@chainlink/contracts/src/v0.8/vendor/BufferChainlink.sol\":3544:3673  for (; len >= 32; len -= 32) {... */\n    tag_314:\n        /* \"@chainlink/contracts/src/v0.8/vendor/BufferChainlink.sol\":3558:3560  32 */\n      0x20\n        /* \"@chainlink/contracts/src/v0.8/vendor/BufferChainlink.sol\":3551:3554  len */\n      dup5\n        /* \"@chainlink/contracts/src/v0.8/vendor/BufferChainlink.sol\":3551:3560  len >= 32 */\n      lt\n        /* \"@chainlink/contracts/src/v0.8/vendor/BufferChainlink.sol\":3544:3673  for (; len >= 32; len -= 32) {... */\n      tag_315\n      jumpi\n        /* \"@chainlink/contracts/src/v0.8/vendor/BufferChainlink.sol\":3619:3622  src */\n      dup1\n        /* \"@chainlink/contracts/src/v0.8/vendor/BufferChainlink.sol\":3613:3623  mload(src) */\n      mload\n        /* \"@chainlink/contracts/src/v0.8/vendor/BufferChainlink.sol\":3607:3611  dest */\n      dup3\n        /* \"@chainlink/contracts/src/v0.8/vendor/BufferChainlink.sol\":3600:3624  mstore(dest, mload(src)) */\n      mstore\n        /* \"@chainlink/contracts/src/v0.8/vendor/BufferChainlink.sol\":3647:3649  32 */\n      0x20\n        /* \"@chainlink/contracts/src/v0.8/vendor/BufferChainlink.sol\":3639:3649  dest += 32 */\n      dup3\n      tag_317\n      swap2\n      swap1\n      tag_242\n      jump\t// in\n    tag_317:\n      swap2\n      pop\n        /* \"@chainlink/contracts/src/v0.8/vendor/BufferChainlink.sol\":3664:3666  32 */\n      0x20\n        /* \"@chainlink/contracts/src/v0.8/vendor/BufferChainlink.sol\":3657:3666  src += 32 */\n      dup2\n      tag_318\n      swap2\n      swap1\n      tag_242\n      jump\t// in\n    tag_318:\n      swap1\n      pop\n        /* \"@chainlink/contracts/src/v0.8/vendor/BufferChainlink.sol\":3569:3571  32 */\n      0x20\n        /* \"@chainlink/contracts/src/v0.8/vendor/BufferChainlink.sol\":3562:3571  len -= 32 */\n      dup5\n      tag_319\n      swap2\n      swap1\n      tag_240\n      jump\t// in\n    tag_319:\n      swap4\n      pop\n        /* \"@chainlink/contracts/src/v0.8/vendor/BufferChainlink.sol\":3544:3673  for (; len >= 32; len -= 32) {... */\n      jump(tag_314)\n    tag_315:\n        /* \"@chainlink/contracts/src/v0.8/vendor/BufferChainlink.sol\":3725:3737  uint256 mask */\n      0x00\n        /* \"@chainlink/contracts/src/v0.8/vendor/BufferChainlink.sol\":3760:3761  1 */\n      0x01\n        /* \"@chainlink/contracts/src/v0.8/vendor/BufferChainlink.sol\":3752:3755  len */\n      dup6\n        /* \"@chainlink/contracts/src/v0.8/vendor/BufferChainlink.sol\":3747:3749  32 */\n      0x20\n        /* \"@chainlink/contracts/src/v0.8/vendor/BufferChainlink.sol\":3747:3755  32 - len */\n      sub\n        /* \"@chainlink/contracts/src/v0.8/vendor/BufferChainlink.sol\":3741:3744  256 */\n      0x0100\n        /* \"@chainlink/contracts/src/v0.8/vendor/BufferChainlink.sol\":3741:3756  256**(32 - len) */\n      exp\n        /* \"@chainlink/contracts/src/v0.8/vendor/BufferChainlink.sol\":3740:3761  (256**(32 - len)) - 1 */\n      sub\n        /* \"@chainlink/contracts/src/v0.8/vendor/BufferChainlink.sol\":3725:3761  uint256 mask = (256**(32 - len)) - 1 */\n      swap1\n      pop\n        /* \"@chainlink/contracts/src/v0.8/vendor/BufferChainlink.sol\":3823:3827  mask */\n      dup1\n        /* \"@chainlink/contracts/src/v0.8/vendor/BufferChainlink.sol\":3819:3828  not(mask) */\n      not\n        /* \"@chainlink/contracts/src/v0.8/vendor/BufferChainlink.sol\":3813:3816  src */\n      dup3\n        /* \"@chainlink/contracts/src/v0.8/vendor/BufferChainlink.sol\":3807:3817  mload(src) */\n      mload\n        /* \"@chainlink/contracts/src/v0.8/vendor/BufferChainlink.sol\":3803:3829  and(mload(src), not(mask)) */\n      and\n        /* \"@chainlink/contracts/src/v0.8/vendor/BufferChainlink.sol\":3871:3875  mask */\n      dup2\n        /* \"@chainlink/contracts/src/v0.8/vendor/BufferChainlink.sol\":3864:3868  dest */\n      dup5\n        /* \"@chainlink/contracts/src/v0.8/vendor/BufferChainlink.sol\":3858:3869  mload(dest) */\n      mload\n        /* \"@chainlink/contracts/src/v0.8/vendor/BufferChainlink.sol\":3854:3876  and(mload(dest), mask) */\n      and\n        /* \"@chainlink/contracts/src/v0.8/vendor/BufferChainlink.sol\":3911:3918  srcpart */\n      dup2\n        /* \"@chainlink/contracts/src/v0.8/vendor/BufferChainlink.sol\":3901:3909  destpart */\n      dup2\n        /* \"@chainlink/contracts/src/v0.8/vendor/BufferChainlink.sol\":3898:3919  or(destpart, srcpart) */\n      or\n        /* \"@chainlink/contracts/src/v0.8/vendor/BufferChainlink.sol\":3892:3896  dest */\n      dup6\n        /* \"@chainlink/contracts/src/v0.8/vendor/BufferChainlink.sol\":3885:3920  mstore(dest, or(destpart, srcpart)) */\n      mstore\n        /* \"@chainlink/contracts/src/v0.8/vendor/BufferChainlink.sol\":3778:3928  {... */\n      pop\n      pop\n      pop\n        /* \"@chainlink/contracts/src/v0.8/vendor/BufferChainlink.sol\":3947:3950  buf */\n      dup7\n        /* \"@chainlink/contracts/src/v0.8/vendor/BufferChainlink.sol\":3940:3950  return buf */\n      swap3\n      pop\n      pop\n      pop\n        /* \"@chainlink/contracts/src/v0.8/vendor/BufferChainlink.sol\":2745:3955  function write(... */\n      swap5\n      swap4\n      pop\n      pop\n      pop\n      pop\n      jump\t// out\n        /* \"@chainlink/contracts/src/v0.8/vendor/BufferChainlink.sol\":5148:5787  function writeUint8(... */\n    tag_296:\n        /* \"@chainlink/contracts/src/v0.8/vendor/BufferChainlink.sol\":5251:5264  buffer memory */\n      tag_320\n      tag_190\n      jump\t// in\n    tag_320:\n        /* \"@chainlink/contracts/src/v0.8/vendor/BufferChainlink.sol\":5283:5286  buf */\n      dup4\n        /* \"@chainlink/contracts/src/v0.8/vendor/BufferChainlink.sol\":5283:5295  buf.capacity */\n      0x20\n      add\n      mload\n        /* \"@chainlink/contracts/src/v0.8/vendor/BufferChainlink.sol\":5276:5279  off */\n      dup4\n        /* \"@chainlink/contracts/src/v0.8/vendor/BufferChainlink.sol\":5276:5295  off >= buf.capacity */\n      lt\n        /* \"@chainlink/contracts/src/v0.8/vendor/BufferChainlink.sol\":5272:5341  if (off >= buf.capacity) {... */\n      tag_322\n      jumpi\n        /* \"@chainlink/contracts/src/v0.8/vendor/BufferChainlink.sol\":5305:5334  resize(buf, buf.capacity * 2) */\n      tag_323\n        /* \"@chainlink/contracts/src/v0.8/vendor/BufferChainlink.sol\":5312:5315  buf */\n      dup5\n        /* \"@chainlink/contracts/src/v0.8/vendor/BufferChainlink.sol\":5332:5333  2 */\n      0x02\n        /* \"@chainlink/contracts/src/v0.8/vendor/BufferChainlink.sol\":5317:5320  buf */\n      dup7\n        /* \"@chainlink/contracts/src/v0.8/vendor/BufferChainlink.sol\":5317:5329  buf.capacity */\n      0x20\n      add\n      mload\n        /* \"@chainlink/contracts/src/v0.8/vendor/BufferChainlink.sol\":5317:5333  buf.capacity * 2 */\n      tag_324\n      swap2\n      swap1\n      tag_311\n      jump\t// in\n    tag_324:\n        /* \"@chainlink/contracts/src/v0.8/vendor/BufferChainlink.sol\":5305:5311  resize */\n      tag_312\n        /* \"@chainlink/contracts/src/v0.8/vendor/BufferChainlink.sol\":5305:5334  resize(buf, buf.capacity * 2) */\n      jump\t// in\n    tag_323:\n        /* \"@chainlink/contracts/src/v0.8/vendor/BufferChainlink.sol\":5272:5341  if (off >= buf.capacity) {... */\n    tag_322:\n        /* \"@chainlink/contracts/src/v0.8/vendor/BufferChainlink.sol\":5427:5430  buf */\n      dup4\n        /* \"@chainlink/contracts/src/v0.8/vendor/BufferChainlink.sol\":5421:5431  mload(buf) */\n      mload\n        /* \"@chainlink/contracts/src/v0.8/vendor/BufferChainlink.sol\":5498:5504  bufptr */\n      dup1\n        /* \"@chainlink/contracts/src/v0.8/vendor/BufferChainlink.sol\":5492:5505  mload(bufptr) */\n      mload\n        /* \"@chainlink/contracts/src/v0.8/vendor/BufferChainlink.sol\":5610:5612  32 */\n      0x20\n        /* \"@chainlink/contracts/src/v0.8/vendor/BufferChainlink.sol\":5604:5607  off */\n      dup6\n        /* \"@chainlink/contracts/src/v0.8/vendor/BufferChainlink.sol\":5596:5602  bufptr */\n      dup4\n        /* \"@chainlink/contracts/src/v0.8/vendor/BufferChainlink.sol\":5592:5608  add(bufptr, off) */\n      add\n        /* \"@chainlink/contracts/src/v0.8/vendor/BufferChainlink.sol\":5588:5613  add(add(bufptr, off), 32) */\n      add\n        /* \"@chainlink/contracts/src/v0.8/vendor/BufferChainlink.sol\":5634:5638  data */\n      dup5\n        /* \"@chainlink/contracts/src/v0.8/vendor/BufferChainlink.sol\":5628:5632  dest */\n      dup2\n        /* \"@chainlink/contracts/src/v0.8/vendor/BufferChainlink.sol\":5620:5639  mstore8(dest, data) */\n      mstore8\n        /* \"@chainlink/contracts/src/v0.8/vendor/BufferChainlink.sol\":5705:5711  buflen */\n      dup2\n        /* \"@chainlink/contracts/src/v0.8/vendor/BufferChainlink.sol\":5700:5703  off */\n      dup7\n        /* \"@chainlink/contracts/src/v0.8/vendor/BufferChainlink.sol\":5697:5712  eq(off, buflen) */\n      sub\n        /* \"@chainlink/contracts/src/v0.8/vendor/BufferChainlink.sol\":5694:5761  if eq(off, buflen) {... */\n      tag_325\n      jumpi\n        /* \"@chainlink/contracts/src/v0.8/vendor/BufferChainlink.sol\":5750:5751  1 */\n      0x01\n        /* \"@chainlink/contracts/src/v0.8/vendor/BufferChainlink.sol\":5742:5748  buflen */\n      dup3\n        /* \"@chainlink/contracts/src/v0.8/vendor/BufferChainlink.sol\":5738:5752  add(buflen, 1) */\n      add\n        /* \"@chainlink/contracts/src/v0.8/vendor/BufferChainlink.sol\":5730:5736  bufptr */\n      dup4\n        /* \"@chainlink/contracts/src/v0.8/vendor/BufferChainlink.sol\":5723:5753  mstore(bufptr, add(buflen, 1)) */\n      mstore\n        /* \"@chainlink/contracts/src/v0.8/vendor/BufferChainlink.sol\":5694:5761  if eq(off, buflen) {... */\n    tag_325:\n        /* \"@chainlink/contracts/src/v0.8/vendor/BufferChainlink.sol\":5356:5767  {... */\n      pop\n      pop\n      pop\n        /* \"@chainlink/contracts/src/v0.8/vendor/BufferChainlink.sol\":5779:5782  buf */\n      dup4\n        /* \"@chainlink/contracts/src/v0.8/vendor/BufferChainlink.sol\":5772:5782  return buf */\n      swap1\n      pop\n        /* \"@chainlink/contracts/src/v0.8/vendor/BufferChainlink.sol\":5148:5787  function writeUint8(... */\n      swap4\n      swap3\n      pop\n      pop\n      pop\n      jump\t// out\n        /* \"@chainlink/contracts/src/v0.8/vendor/BufferChainlink.sol\":8974:9649  function writeInt(... */\n    tag_300:\n        /* \"@chainlink/contracts/src/v0.8/vendor/BufferChainlink.sol\":9093:9106  buffer memory */\n      tag_326\n      tag_190\n      jump\t// in\n    tag_326:\n        /* \"@chainlink/contracts/src/v0.8/vendor/BufferChainlink.sol\":9130:9133  buf */\n      dup5\n        /* \"@chainlink/contracts/src/v0.8/vendor/BufferChainlink.sol\":9130:9142  buf.capacity */\n      0x20\n      add\n      mload\n        /* \"@chainlink/contracts/src/v0.8/vendor/BufferChainlink.sol\":9124:9127  off */\n      dup5\n        /* \"@chainlink/contracts/src/v0.8/vendor/BufferChainlink.sol\":9118:9121  len */\n      dup4\n        /* \"@chainlink/contracts/src/v0.8/vendor/BufferChainlink.sol\":9118:9127  len + off */\n      tag_328\n      swap2\n      swap1\n      tag_242\n      jump\t// in\n    tag_328:\n        /* \"@chainlink/contracts/src/v0.8/vendor/BufferChainlink.sol\":9118:9142  len + off > buf.capacity */\n      gt\n        /* \"@chainlink/contracts/src/v0.8/vendor/BufferChainlink.sol\":9114:9187  if (len + off > buf.capacity) {... */\n      iszero\n      tag_329\n      jumpi\n        /* \"@chainlink/contracts/src/v0.8/vendor/BufferChainlink.sol\":9152:9180  resize(buf, (len + off) * 2) */\n      tag_330\n        /* \"@chainlink/contracts/src/v0.8/vendor/BufferChainlink.sol\":9159:9162  buf */\n      dup6\n        /* \"@chainlink/contracts/src/v0.8/vendor/BufferChainlink.sol\":9178:9179  2 */\n      0x02\n        /* \"@chainlink/contracts/src/v0.8/vendor/BufferChainlink.sol\":9171:9174  off */\n      dup7\n        /* \"@chainlink/contracts/src/v0.8/vendor/BufferChainlink.sol\":9165:9168  len */\n      dup6\n        /* \"@chainlink/contracts/src/v0.8/vendor/BufferChainlink.sol\":9165:9174  len + off */\n      tag_331\n      swap2\n      swap1\n      tag_242\n      jump\t// in\n    tag_331:\n        /* \"@chainlink/contracts/src/v0.8/vendor/BufferChainlink.sol\":9164:9179  (len + off) * 2 */\n      tag_332\n      swap2\n      swap1\n      tag_311\n      jump\t// in\n    tag_332:\n        /* \"@chainlink/contracts/src/v0.8/vendor/BufferChainlink.sol\":9152:9158  resize */\n      tag_312\n        /* \"@chainlink/contracts/src/v0.8/vendor/BufferChainlink.sol\":9152:9180  resize(buf, (len + off) * 2) */\n      jump\t// in\n    tag_330:\n        /* \"@chainlink/contracts/src/v0.8/vendor/BufferChainlink.sol\":9114:9187  if (len + off > buf.capacity) {... */\n    tag_329:\n        /* \"@chainlink/contracts/src/v0.8/vendor/BufferChainlink.sol\":9193:9205  uint256 mask */\n      0x00\n        /* \"@chainlink/contracts/src/v0.8/vendor/BufferChainlink.sol\":9221:9222  1 */\n      0x01\n        /* \"@chainlink/contracts/src/v0.8/vendor/BufferChainlink.sol\":9214:9217  len */\n      dup4\n        /* \"@chainlink/contracts/src/v0.8/vendor/BufferChainlink.sol\":9209:9212  256 */\n      0x0100\n        /* \"@chainlink/contracts/src/v0.8/vendor/BufferChainlink.sol\":9209:9217  256**len */\n      tag_333\n      swap2\n      swap1\n      tag_334\n      jump\t// in\n    tag_333:\n        /* \"@chainlink/contracts/src/v0.8/vendor/BufferChainlink.sol\":9208:9222  (256**len) - 1 */\n      tag_335\n      swap2\n      swap1\n      tag_240\n      jump\t// in\n    tag_335:\n        /* \"@chainlink/contracts/src/v0.8/vendor/BufferChainlink.sol\":9193:9222  uint256 mask = (256**len) - 1 */\n      swap1\n      pop\n        /* \"@chainlink/contracts/src/v0.8/vendor/BufferChainlink.sol\":9308:9311  buf */\n      dup6\n        /* \"@chainlink/contracts/src/v0.8/vendor/BufferChainlink.sol\":9302:9312  mload(buf) */\n      mload\n        /* \"@chainlink/contracts/src/v0.8/vendor/BufferChainlink.sol\":9423:9426  len */\n      dup4\n        /* \"@chainlink/contracts/src/v0.8/vendor/BufferChainlink.sol\":9417:9420  off */\n      dup7\n        /* \"@chainlink/contracts/src/v0.8/vendor/BufferChainlink.sol\":9409:9415  bufptr */\n      dup3\n        /* \"@chainlink/contracts/src/v0.8/vendor/BufferChainlink.sol\":9405:9421  add(bufptr, off) */\n      add\n        /* \"@chainlink/contracts/src/v0.8/vendor/BufferChainlink.sol\":9401:9427  add(add(bufptr, off), len) */\n      add\n        /* \"@chainlink/contracts/src/v0.8/vendor/BufferChainlink.sol\":9479:9483  data */\n      dup6\n        /* \"@chainlink/contracts/src/v0.8/vendor/BufferChainlink.sol\":9471:9475  mask */\n      dup4\n        /* \"@chainlink/contracts/src/v0.8/vendor/BufferChainlink.sol\":9467:9476  not(mask) */\n      not\n        /* \"@chainlink/contracts/src/v0.8/vendor/BufferChainlink.sol\":9460:9464  dest */\n      dup3\n        /* \"@chainlink/contracts/src/v0.8/vendor/BufferChainlink.sol\":9454:9465  mload(dest) */\n      mload\n        /* \"@chainlink/contracts/src/v0.8/vendor/BufferChainlink.sol\":9450:9477  and(mload(dest), not(mask)) */\n      and\n        /* \"@chainlink/contracts/src/v0.8/vendor/BufferChainlink.sol\":9447:9484  or(and(mload(dest), not(mask)), data) */\n      or\n        /* \"@chainlink/contracts/src/v0.8/vendor/BufferChainlink.sol\":9441:9445  dest */\n      dup2\n        /* \"@chainlink/contracts/src/v0.8/vendor/BufferChainlink.sol\":9434:9485  mstore(dest, or(and(mload(dest), not(mask)), data)) */\n      mstore\n        /* \"@chainlink/contracts/src/v0.8/vendor/BufferChainlink.sol\":9567:9573  bufptr */\n      dup2\n        /* \"@chainlink/contracts/src/v0.8/vendor/BufferChainlink.sol\":9561:9574  mload(bufptr) */\n      mload\n        /* \"@chainlink/contracts/src/v0.8/vendor/BufferChainlink.sol\":9555:9558  len */\n      dup6\n        /* \"@chainlink/contracts/src/v0.8/vendor/BufferChainlink.sol\":9550:9553  off */\n      dup9\n        /* \"@chainlink/contracts/src/v0.8/vendor/BufferChainlink.sol\":9546:9559  add(off, len) */\n      add\n        /* \"@chainlink/contracts/src/v0.8/vendor/BufferChainlink.sol\":9543:9575  gt(add(off, len), mload(bufptr)) */\n      gt\n        /* \"@chainlink/contracts/src/v0.8/vendor/BufferChainlink.sol\":9540:9623  if gt(add(off, len), mload(bufptr)) {... */\n      iszero\n      tag_336\n      jumpi\n        /* \"@chainlink/contracts/src/v0.8/vendor/BufferChainlink.sol\":9610:9613  len */\n      dup5\n        /* \"@chainlink/contracts/src/v0.8/vendor/BufferChainlink.sol\":9605:9608  off */\n      dup8\n        /* \"@chainlink/contracts/src/v0.8/vendor/BufferChainlink.sol\":9601:9614  add(off, len) */\n      add\n        /* \"@chainlink/contracts/src/v0.8/vendor/BufferChainlink.sol\":9593:9599  bufptr */\n      dup3\n        /* \"@chainlink/contracts/src/v0.8/vendor/BufferChainlink.sol\":9586:9615  mstore(bufptr, add(off, len)) */\n      mstore\n        /* \"@chainlink/contracts/src/v0.8/vendor/BufferChainlink.sol\":9540:9623  if gt(add(off, len), mload(bufptr)) {... */\n    tag_336:\n        /* \"@chainlink/contracts/src/v0.8/vendor/BufferChainlink.sol\":9237:9629  {... */\n      pop\n      pop\n        /* \"@chainlink/contracts/src/v0.8/vendor/BufferChainlink.sol\":9641:9644  buf */\n      dup6\n        /* \"@chainlink/contracts/src/v0.8/vendor/BufferChainlink.sol\":9634:9644  return buf */\n      swap2\n      pop\n      pop\n        /* \"@chainlink/contracts/src/v0.8/vendor/BufferChainlink.sol\":8974:9649  function writeInt(... */\n      swap5\n      swap4\n      pop\n      pop\n      pop\n      pop\n      jump\t// out\n        /* \"@chainlink/contracts/src/v0.8/vendor/BufferChainlink.sol\":1961:2085  function max(uint256 a, uint256 b) private pure returns (uint256) {... */\n    tag_309:\n        /* \"@chainlink/contracts/src/v0.8/vendor/BufferChainlink.sol\":2018:2025  uint256 */\n      0x00\n        /* \"@chainlink/contracts/src/v0.8/vendor/BufferChainlink.sol\":2041:2042  b */\n      dup2\n        /* \"@chainlink/contracts/src/v0.8/vendor/BufferChainlink.sol\":2037:2038  a */\n      dup4\n        /* \"@chainlink/contracts/src/v0.8/vendor/BufferChainlink.sol\":2037:2042  a > b */\n      gt\n        /* \"@chainlink/contracts/src/v0.8/vendor/BufferChainlink.sol\":2033:2067  if (a > b) {... */\n      iszero\n      tag_338\n      jumpi\n        /* \"@chainlink/contracts/src/v0.8/vendor/BufferChainlink.sol\":2059:2060  a */\n      dup3\n        /* \"@chainlink/contracts/src/v0.8/vendor/BufferChainlink.sol\":2052:2060  return a */\n      swap1\n      pop\n      jump(tag_337)\n        /* \"@chainlink/contracts/src/v0.8/vendor/BufferChainlink.sol\":2033:2067  if (a > b) {... */\n    tag_338:\n        /* \"@chainlink/contracts/src/v0.8/vendor/BufferChainlink.sol\":2079:2080  b */\n      dup2\n        /* \"@chainlink/contracts/src/v0.8/vendor/BufferChainlink.sol\":2072:2080  return b */\n      swap1\n      pop\n        /* \"@chainlink/contracts/src/v0.8/vendor/BufferChainlink.sol\":1961:2085  function max(uint256 a, uint256 b) private pure returns (uint256) {... */\n    tag_337:\n      swap3\n      swap2\n      pop\n      pop\n      jump\t// out\n        /* \"@chainlink/contracts/src/v0.8/vendor/BufferChainlink.sol\":1801:1957  function resize(buffer memory buf, uint256 capacity) private pure {... */\n    tag_312:\n        /* \"@chainlink/contracts/src/v0.8/vendor/BufferChainlink.sol\":1873:1892  bytes memory oldbuf */\n      0x00\n        /* \"@chainlink/contracts/src/v0.8/vendor/BufferChainlink.sol\":1895:1898  buf */\n      dup3\n        /* \"@chainlink/contracts/src/v0.8/vendor/BufferChainlink.sol\":1895:1902  buf.buf */\n      0x00\n      add\n      mload\n        /* \"@chainlink/contracts/src/v0.8/vendor/BufferChainlink.sol\":1873:1902  bytes memory oldbuf = buf.buf */\n      swap1\n      pop\n        /* \"@chainlink/contracts/src/v0.8/vendor/BufferChainlink.sol\":1908:1927  init(buf, capacity) */\n      tag_340\n        /* \"@chainlink/contracts/src/v0.8/vendor/BufferChainlink.sol\":1913:1916  buf */\n      dup4\n        /* \"@chainlink/contracts/src/v0.8/vendor/BufferChainlink.sol\":1918:1926  capacity */\n      dup4\n        /* \"@chainlink/contracts/src/v0.8/vendor/BufferChainlink.sol\":1908:1912  init */\n      tag_192\n        /* \"@chainlink/contracts/src/v0.8/vendor/BufferChainlink.sol\":1908:1927  init(buf, capacity) */\n      jump\t// in\n    tag_340:\n      pop\n        /* \"@chainlink/contracts/src/v0.8/vendor/BufferChainlink.sol\":1933:1952  append(buf, oldbuf) */\n      tag_341\n        /* \"@chainlink/contracts/src/v0.8/vendor/BufferChainlink.sol\":1940:1943  buf */\n      dup4\n        /* \"@chainlink/contracts/src/v0.8/vendor/BufferChainlink.sol\":1945:1951  oldbuf */\n      dup3\n        /* \"@chainlink/contracts/src/v0.8/vendor/BufferChainlink.sol\":1933:1939  append */\n      tag_247\n        /* \"@chainlink/contracts/src/v0.8/vendor/BufferChainlink.sol\":1933:1952  append(buf, oldbuf) */\n      jump\t// in\n    tag_341:\n      pop\n        /* \"@chainlink/contracts/src/v0.8/vendor/BufferChainlink.sol\":1867:1957  {... */\n      pop\n        /* \"@chainlink/contracts/src/v0.8/vendor/BufferChainlink.sol\":1801:1957  function resize(buffer memory buf, uint256 capacity) private pure {... */\n      pop\n      pop\n      jump\t// out\n    tag_88:\n      mload(0x40)\n      dup1\n      0xc0\n      add\n      0x40\n      mstore\n      dup1\n      0x00\n      0x01\n      dup2\n      gt\n      iszero\n      tag_342\n      jumpi\n      tag_343\n      tag_94\n      jump\t// in\n    tag_343:\n    tag_342:\n      dup2\n      mstore\n      0x20\n      add\n      0x00\n      0x01\n      dup2\n      gt\n      iszero\n      tag_344\n      jumpi\n      tag_345\n      tag_94\n      jump\t// in\n    tag_345:\n    tag_344:\n      dup2\n      mstore\n      0x20\n      add\n      0x00\n      dup1\n      dup2\n      gt\n      iszero\n      tag_346\n      jumpi\n      tag_347\n      tag_94\n      jump\t// in\n    tag_347:\n    tag_346:\n      dup2\n      mstore\n      0x20\n      add\n      0x60\n      dup2\n      mstore\n      0x20\n      add\n      0x60\n      dup2\n      mstore\n      0x20\n      add\n      0x60\n      dup2\n      mstore\n      pop\n      swap1\n      jump\t// out\n    tag_190:\n      mload(0x40)\n      dup1\n      0x40\n      add\n      0x40\n      mstore\n      dup1\n      0x60\n      dup2\n      mstore\n      0x20\n      add\n      0x00\n      dup2\n      mstore\n      pop\n      swap1\n      jump\t// out\n        /* \"#utility.yul\":7:82   */\n    tag_348:\n        /* \"#utility.yul\":40:46   */\n      0x00\n        /* \"#utility.yul\":73:75   */\n      0x40\n        /* \"#utility.yul\":67:76   */\n      mload\n        /* \"#utility.yul\":57:76   */\n      swap1\n      pop\n        /* \"#utility.yul\":7:82   */\n      swap1\n      jump\t// out\n        /* \"#utility.yul\":88:205   */\n    tag_349:\n        /* \"#utility.yul\":197:198   */\n      0x00\n        /* \"#utility.yul\":194:195   */\n      dup1\n        /* \"#utility.yul\":187:199   */\n      revert\n        /* \"#utility.yul\":211:328   */\n    tag_350:\n        /* \"#utility.yul\":320:321   */\n      0x00\n        /* \"#utility.yul\":317:318   */\n      dup1\n        /* \"#utility.yul\":310:322   */\n      revert\n        /* \"#utility.yul\":334:411   */\n    tag_351:\n        /* \"#utility.yul\":371:378   */\n      0x00\n        /* \"#utility.yul\":400:405   */\n      dup2\n        /* \"#utility.yul\":389:405   */\n      swap1\n      pop\n        /* \"#utility.yul\":334:411   */\n      swap2\n      swap1\n      pop\n      jump\t// out\n        /* \"#utility.yul\":417:539   */\n    tag_352:\n        /* \"#utility.yul\":490:514   */\n      tag_446\n        /* \"#utility.yul\":508:513   */\n      dup2\n        /* \"#utility.yul\":490:514   */\n      tag_351\n      jump\t// in\n    tag_446:\n        /* \"#utility.yul\":483:488   */\n      dup2\n        /* \"#utility.yul\":480:515   */\n      eq\n        /* \"#utility.yul\":470:533   */\n      tag_447\n      jumpi\n        /* \"#utility.yul\":529:530   */\n      0x00\n        /* \"#utility.yul\":526:527   */\n      dup1\n        /* \"#utility.yul\":519:531   */\n      revert\n        /* \"#utility.yul\":470:533   */\n    tag_447:\n        /* \"#utility.yul\":417:539   */\n      pop\n      jump\t// out\n        /* \"#utility.yul\":545:684   */\n    tag_353:\n        /* \"#utility.yul\":591:596   */\n      0x00\n        /* \"#utility.yul\":629:635   */\n      dup2\n        /* \"#utility.yul\":616:636   */\n      calldataload\n        /* \"#utility.yul\":607:636   */\n      swap1\n      pop\n        /* \"#utility.yul\":645:678   */\n      tag_449\n        /* \"#utility.yul\":672:677   */\n      dup2\n        /* \"#utility.yul\":645:678   */\n      tag_352\n      jump\t// in\n    tag_449:\n        /* \"#utility.yul\":545:684   */\n      swap3\n      swap2\n      pop\n      pop\n      jump\t// out\n        /* \"#utility.yul\":690:807   */\n    tag_354:\n        /* \"#utility.yul\":799:800   */\n      0x00\n        /* \"#utility.yul\":796:797   */\n      dup1\n        /* \"#utility.yul\":789:801   */\n      revert\n        /* \"#utility.yul\":813:930   */\n    tag_355:\n        /* \"#utility.yul\":922:923   */\n      0x00\n        /* \"#utility.yul\":919:920   */\n      dup1\n        /* \"#utility.yul\":912:924   */\n      revert\n        /* \"#utility.yul\":936:1038   */\n    tag_356:\n        /* \"#utility.yul\":977:983   */\n      0x00\n        /* \"#utility.yul\":1028:1030   */\n      0x1f\n        /* \"#utility.yul\":1024:1031   */\n      not\n        /* \"#utility.yul\":1019:1021   */\n      0x1f\n        /* \"#utility.yul\":1012:1017   */\n      dup4\n        /* \"#utility.yul\":1008:1022   */\n      add\n        /* \"#utility.yul\":1004:1032   */\n      and\n        /* \"#utility.yul\":994:1032   */\n      swap1\n      pop\n        /* \"#utility.yul\":936:1038   */\n      swap2\n      swap1\n      pop\n      jump\t// out\n        /* \"#utility.yul\":1044:1224   */\n    tag_357:\n        /* \"#utility.yul\":1092:1169   */\n      0x4e487b7100000000000000000000000000000000000000000000000000000000\n        /* \"#utility.yul\":1089:1090   */\n      0x00\n        /* \"#utility.yul\":1082:1170   */\n      mstore\n        /* \"#utility.yul\":1189:1193   */\n      0x41\n        /* \"#utility.yul\":1186:1187   */\n      0x04\n        /* \"#utility.yul\":1179:1194   */\n      mstore\n        /* \"#utility.yul\":1213:1217   */\n      0x24\n        /* \"#utility.yul\":1210:1211   */\n      0x00\n        /* \"#utility.yul\":1203:1218   */\n      revert\n        /* \"#utility.yul\":1230:1511   */\n    tag_358:\n        /* \"#utility.yul\":1313:1340   */\n      tag_455\n        /* \"#utility.yul\":1335:1339   */\n      dup3\n        /* \"#utility.yul\":1313:1340   */\n      tag_356\n      jump\t// in\n    tag_455:\n        /* \"#utility.yul\":1305:1311   */\n      dup2\n        /* \"#utility.yul\":1301:1341   */\n      add\n        /* \"#utility.yul\":1443:1449   */\n      dup2\n        /* \"#utility.yul\":1431:1441   */\n      dup2\n        /* \"#utility.yul\":1428:1450   */\n      lt\n        /* \"#utility.yul\":1407:1425   */\n      0xffffffffffffffff\n        /* \"#utility.yul\":1395:1405   */\n      dup3\n        /* \"#utility.yul\":1392:1426   */\n      gt\n        /* \"#utility.yul\":1389:1451   */\n      or\n        /* \"#utility.yul\":1386:1474   */\n      iszero\n      tag_456\n      jumpi\n        /* \"#utility.yul\":1454:1472   */\n      tag_457\n      tag_357\n      jump\t// in\n    tag_457:\n        /* \"#utility.yul\":1386:1474   */\n    tag_456:\n        /* \"#utility.yul\":1494:1504   */\n      dup1\n        /* \"#utility.yul\":1490:1492   */\n      0x40\n        /* \"#utility.yul\":1483:1505   */\n      mstore\n        /* \"#utility.yul\":1273:1511   */\n      pop\n        /* \"#utility.yul\":1230:1511   */\n      pop\n      pop\n      jump\t// out\n        /* \"#utility.yul\":1517:1646   */\n    tag_359:\n        /* \"#utility.yul\":1551:1557   */\n      0x00\n        /* \"#utility.yul\":1578:1598   */\n      tag_459\n      tag_348\n      jump\t// in\n    tag_459:\n        /* \"#utility.yul\":1568:1598   */\n      swap1\n      pop\n        /* \"#utility.yul\":1607:1640   */\n      tag_460\n        /* \"#utility.yul\":1635:1639   */\n      dup3\n        /* \"#utility.yul\":1627:1633   */\n      dup3\n        /* \"#utility.yul\":1607:1640   */\n      tag_358\n      jump\t// in\n    tag_460:\n        /* \"#utility.yul\":1517:1646   */\n      swap2\n      swap1\n      pop\n      jump\t// out\n        /* \"#utility.yul\":1652:1959   */\n    tag_360:\n        /* \"#utility.yul\":1713:1717   */\n      0x00\n        /* \"#utility.yul\":1803:1821   */\n      0xffffffffffffffff\n        /* \"#utility.yul\":1795:1801   */\n      dup3\n        /* \"#utility.yul\":1792:1822   */\n      gt\n        /* \"#utility.yul\":1789:1845   */\n      iszero\n      tag_462\n      jumpi\n        /* \"#utility.yul\":1825:1843   */\n      tag_463\n      tag_357\n      jump\t// in\n    tag_463:\n        /* \"#utility.yul\":1789:1845   */\n    tag_462:\n        /* \"#utility.yul\":1863:1892   */\n      tag_464\n        /* \"#utility.yul\":1885:1891   */\n      dup3\n        /* \"#utility.yul\":1863:1892   */\n      tag_356\n      jump\t// in\n    tag_464:\n        /* \"#utility.yul\":1855:1892   */\n      swap1\n      pop\n        /* \"#utility.yul\":1947:1951   */\n      0x20\n        /* \"#utility.yul\":1941:1945   */\n      dup2\n        /* \"#utility.yul\":1937:1952   */\n      add\n        /* \"#utility.yul\":1929:1952   */\n      swap1\n      pop\n        /* \"#utility.yul\":1652:1959   */\n      swap2\n      swap1\n      pop\n      jump\t// out\n        /* \"#utility.yul\":1965:2111   */\n    tag_361:\n        /* \"#utility.yul\":2062:2068   */\n      dup3\n        /* \"#utility.yul\":2057:2060   */\n      dup2\n        /* \"#utility.yul\":2052:2055   */\n      dup4\n        /* \"#utility.yul\":2039:2069   */\n      calldatacopy\n        /* \"#utility.yul\":2103:2104   */\n      0x00\n        /* \"#utility.yul\":2094:2100   */\n      dup4\n        /* \"#utility.yul\":2089:2092   */\n      dup4\n        /* \"#utility.yul\":2085:2101   */\n      add\n        /* \"#utility.yul\":2078:2105   */\n      mstore\n        /* \"#utility.yul\":1965:2111   */\n      pop\n      pop\n      pop\n      jump\t// out\n        /* \"#utility.yul\":2117:2540   */\n    tag_362:\n        /* \"#utility.yul\":2194:2199   */\n      0x00\n        /* \"#utility.yul\":2219:2284   */\n      tag_467\n        /* \"#utility.yul\":2235:2283   */\n      tag_468\n        /* \"#utility.yul\":2276:2282   */\n      dup5\n        /* \"#utility.yul\":2235:2283   */\n      tag_360\n      jump\t// in\n    tag_468:\n        /* \"#utility.yul\":2219:2284   */\n      tag_359\n      jump\t// in\n    tag_467:\n        /* \"#utility.yul\":2210:2284   */\n      swap1\n      pop\n        /* \"#utility.yul\":2307:2313   */\n      dup3\n        /* \"#utility.yul\":2300:2305   */\n      dup2\n        /* \"#utility.yul\":2293:2314   */\n      mstore\n        /* \"#utility.yul\":2345:2349   */\n      0x20\n        /* \"#utility.yul\":2338:2343   */\n      dup2\n        /* \"#utility.yul\":2334:2350   */\n      add\n        /* \"#utility.yul\":2383:2386   */\n      dup5\n        /* \"#utility.yul\":2374:2380   */\n      dup5\n        /* \"#utility.yul\":2369:2372   */\n      dup5\n        /* \"#utility.yul\":2365:2381   */\n      add\n        /* \"#utility.yul\":2362:2387   */\n      gt\n        /* \"#utility.yul\":2359:2471   */\n      iszero\n      tag_469\n      jumpi\n        /* \"#utility.yul\":2390:2469   */\n      tag_470\n      tag_355\n      jump\t// in\n    tag_470:\n        /* \"#utility.yul\":2359:2471   */\n    tag_469:\n        /* \"#utility.yul\":2480:2534   */\n      tag_471\n        /* \"#utility.yul\":2527:2533   */\n      dup5\n        /* \"#utility.yul\":2522:2525   */\n      dup3\n        /* \"#utility.yul\":2517:2520   */\n      dup6\n        /* \"#utility.yul\":2480:2534   */\n      tag_361\n      jump\t// in\n    tag_471:\n        /* \"#utility.yul\":2200:2540   */\n      pop\n        /* \"#utility.yul\":2117:2540   */\n      swap4\n      swap3\n      pop\n      pop\n      pop\n      jump\t// out\n        /* \"#utility.yul\":2559:2897   */\n    tag_363:\n        /* \"#utility.yul\":2614:2619   */\n      0x00\n        /* \"#utility.yul\":2663:2666   */\n      dup3\n        /* \"#utility.yul\":2656:2660   */\n      0x1f\n        /* \"#utility.yul\":2648:2654   */\n      dup4\n        /* \"#utility.yul\":2644:2661   */\n      add\n        /* \"#utility.yul\":2640:2667   */\n      slt\n        /* \"#utility.yul\":2630:2752   */\n      tag_473\n      jumpi\n        /* \"#utility.yul\":2671:2750   */\n      tag_474\n      tag_354\n      jump\t// in\n    tag_474:\n        /* \"#utility.yul\":2630:2752   */\n    tag_473:\n        /* \"#utility.yul\":2788:2794   */\n      dup2\n        /* \"#utility.yul\":2775:2795   */\n      calldataload\n        /* \"#utility.yul\":2813:2891   */\n      tag_475\n        /* \"#utility.yul\":2887:2890   */\n      dup5\n        /* \"#utility.yul\":2879:2885   */\n      dup3\n        /* \"#utility.yul\":2872:2876   */\n      0x20\n        /* \"#utility.yul\":2864:2870   */\n      dup7\n        /* \"#utility.yul\":2860:2877   */\n      add\n        /* \"#utility.yul\":2813:2891   */\n      tag_362\n      jump\t// in\n    tag_475:\n        /* \"#utility.yul\":2804:2891   */\n      swap2\n      pop\n        /* \"#utility.yul\":2620:2897   */\n      pop\n        /* \"#utility.yul\":2559:2897   */\n      swap3\n      swap2\n      pop\n      pop\n      jump\t// out\n        /* \"#utility.yul\":2903:3878   */\n    tag_18:\n        /* \"#utility.yul\":2998:3004   */\n      0x00\n        /* \"#utility.yul\":3006:3012   */\n      dup1\n        /* \"#utility.yul\":3014:3020   */\n      0x00\n        /* \"#utility.yul\":3063:3065   */\n      0x60\n        /* \"#utility.yul\":3051:3060   */\n      dup5\n        /* \"#utility.yul\":3042:3049   */\n      dup7\n        /* \"#utility.yul\":3038:3061   */\n      sub\n        /* \"#utility.yul\":3034:3066   */\n      slt\n        /* \"#utility.yul\":3031:3150   */\n      iszero\n      tag_477\n      jumpi\n        /* \"#utility.yul\":3069:3148   */\n      tag_478\n      tag_349\n      jump\t// in\n    tag_478:\n        /* \"#utility.yul\":3031:3150   */\n    tag_477:\n        /* \"#utility.yul\":3189:3190   */\n      0x00\n        /* \"#utility.yul\":3214:3267   */\n      tag_479\n        /* \"#utility.yul\":3259:3266   */\n      dup7\n        /* \"#utility.yul\":3250:3256   */\n      dup3\n        /* \"#utility.yul\":3239:3248   */\n      dup8\n        /* \"#utility.yul\":3235:3257   */\n      add\n        /* \"#utility.yul\":3214:3267   */\n      tag_353\n      jump\t// in\n    tag_479:\n        /* \"#utility.yul\":3204:3267   */\n      swap4\n      pop\n        /* \"#utility.yul\":3160:3277   */\n      pop\n        /* \"#utility.yul\":3344:3346   */\n      0x20\n        /* \"#utility.yul\":3333:3342   */\n      dup5\n        /* \"#utility.yul\":3329:3347   */\n      add\n        /* \"#utility.yul\":3316:3348   */\n      calldataload\n        /* \"#utility.yul\":3375:3393   */\n      0xffffffffffffffff\n        /* \"#utility.yul\":3367:3373   */\n      dup2\n        /* \"#utility.yul\":3364:3394   */\n      gt\n        /* \"#utility.yul\":3361:3478   */\n      iszero\n      tag_480\n      jumpi\n        /* \"#utility.yul\":3397:3476   */\n      tag_481\n      tag_350\n      jump\t// in\n    tag_481:\n        /* \"#utility.yul\":3361:3478   */\n    tag_480:\n        /* \"#utility.yul\":3502:3564   */\n      tag_482\n        /* \"#utility.yul\":3556:3563   */\n      dup7\n        /* \"#utility.yul\":3547:3553   */\n      dup3\n        /* \"#utility.yul\":3536:3545   */\n      dup8\n        /* \"#utility.yul\":3532:3554   */\n      add\n        /* \"#utility.yul\":3502:3564   */\n      tag_363\n      jump\t// in\n    tag_482:\n        /* \"#utility.yul\":3492:3564   */\n      swap3\n      pop\n        /* \"#utility.yul\":3287:3574   */\n      pop\n        /* \"#utility.yul\":3641:3643   */\n      0x40\n        /* \"#utility.yul\":3630:3639   */\n      dup5\n        /* \"#utility.yul\":3626:3644   */\n      add\n        /* \"#utility.yul\":3613:3645   */\n      calldataload\n        /* \"#utility.yul\":3672:3690   */\n      0xffffffffffffffff\n        /* \"#utility.yul\":3664:3670   */\n      dup2\n        /* \"#utility.yul\":3661:3691   */\n      gt\n        /* \"#utility.yul\":3658:3775   */\n      iszero\n      tag_483\n      jumpi\n        /* \"#utility.yul\":3694:3773   */\n      tag_484\n      tag_350\n      jump\t// in\n    tag_484:\n        /* \"#utility.yul\":3658:3775   */\n    tag_483:\n        /* \"#utility.yul\":3799:3861   */\n      tag_485\n        /* \"#utility.yul\":3853:3860   */\n      dup7\n        /* \"#utility.yul\":3844:3850   */\n      dup3\n        /* \"#utility.yul\":3833:3842   */\n      dup8\n        /* \"#utility.yul\":3829:3851   */\n      add\n        /* \"#utility.yul\":3799:3861   */\n      tag_363\n      jump\t// in\n    tag_485:\n        /* \"#utility.yul\":3789:3861   */\n      swap2\n      pop\n        /* \"#utility.yul\":3584:3871   */\n      pop\n        /* \"#utility.yul\":2903:3878   */\n      swap3\n      pop\n      swap3\n      pop\n      swap3\n      jump\t// out\n        /* \"#utility.yul\":3884:4002   */\n    tag_364:\n        /* \"#utility.yul\":3971:3995   */\n      tag_487\n        /* \"#utility.yul\":3989:3994   */\n      dup2\n        /* \"#utility.yul\":3971:3995   */\n      tag_351\n      jump\t// in\n    tag_487:\n        /* \"#utility.yul\":3966:3969   */\n      dup3\n        /* \"#utility.yul\":3959:3996   */\n      mstore\n        /* \"#utility.yul\":3884:4002   */\n      pop\n      pop\n      jump\t// out\n        /* \"#utility.yul\":4008:4230   */\n    tag_23:\n        /* \"#utility.yul\":4101:4105   */\n      0x00\n        /* \"#utility.yul\":4139:4141   */\n      0x20\n        /* \"#utility.yul\":4128:4137   */\n      dup3\n        /* \"#utility.yul\":4124:4142   */\n      add\n        /* \"#utility.yul\":4116:4142   */\n      swap1\n      pop\n        /* \"#utility.yul\":4152:4223   */\n      tag_489\n        /* \"#utility.yul\":4220:4221   */\n      0x00\n        /* \"#utility.yul\":4209:4218   */\n      dup4\n        /* \"#utility.yul\":4205:4222   */\n      add\n        /* \"#utility.yul\":4196:4202   */\n      dup5\n        /* \"#utility.yul\":4152:4223   */\n      tag_364\n      jump\t// in\n    tag_489:\n        /* \"#utility.yul\":4008:4230   */\n      swap3\n      swap2\n      pop\n      pop\n      jump\t// out\n        /* \"#utility.yul\":4236:4362   */\n    tag_365:\n        /* \"#utility.yul\":4273:4280   */\n      0x00\n        /* \"#utility.yul\":4313:4355   */\n      0xffffffffffffffffffffffffffffffffffffffff\n        /* \"#utility.yul\":4306:4311   */\n      dup3\n        /* \"#utility.yul\":4302:4356   */\n      and\n        /* \"#utility.yul\":4291:4356   */\n      swap1\n      pop\n        /* \"#utility.yul\":4236:4362   */\n      swap2\n      swap1\n      pop\n      jump\t// out\n        /* \"#utility.yul\":4368:4464   */\n    tag_366:\n        /* \"#utility.yul\":4405:4412   */\n      0x00\n        /* \"#utility.yul\":4434:4458   */\n      tag_492\n        /* \"#utility.yul\":4452:4457   */\n      dup3\n        /* \"#utility.yul\":4434:4458   */\n      tag_365\n      jump\t// in\n    tag_492:\n        /* \"#utility.yul\":4423:4458   */\n      swap1\n      pop\n        /* \"#utility.yul\":4368:4464   */\n      swap2\n      swap1\n      pop\n      jump\t// out\n        /* \"#utility.yul\":4470:4592   */\n    tag_367:\n        /* \"#utility.yul\":4543:4567   */\n      tag_494\n        /* \"#utility.yul\":4561:4566   */\n      dup2\n        /* \"#utility.yul\":4543:4567   */\n      tag_366\n      jump\t// in\n    tag_494:\n        /* \"#utility.yul\":4536:4541   */\n      dup2\n        /* \"#utility.yul\":4533:4568   */\n      eq\n        /* \"#utility.yul\":4523:4586   */\n      tag_495\n      jumpi\n        /* \"#utility.yul\":4582:4583   */\n      0x00\n        /* \"#utility.yul\":4579:4580   */\n      dup1\n        /* \"#utility.yul\":4572:4584   */\n      revert\n        /* \"#utility.yul\":4523:4586   */\n    tag_495:\n        /* \"#utility.yul\":4470:4592   */\n      pop\n      jump\t// out\n        /* \"#utility.yul\":4598:4737   */\n    tag_368:\n        /* \"#utility.yul\":4644:4649   */\n      0x00\n        /* \"#utility.yul\":4682:4688   */\n      dup2\n        /* \"#utility.yul\":4669:4689   */\n      calldataload\n        /* \"#utility.yul\":4660:4689   */\n      swap1\n      pop\n        /* \"#utility.yul\":4698:4731   */\n      tag_497\n        /* \"#utility.yul\":4725:4730   */\n      dup2\n        /* \"#utility.yul\":4698:4731   */\n      tag_367\n      jump\t// in\n    tag_497:\n        /* \"#utility.yul\":4598:4737   */\n      swap3\n      swap2\n      pop\n      pop\n      jump\t// out\n        /* \"#utility.yul\":4743:5217   */\n    tag_26:\n        /* \"#utility.yul\":4811:4817   */\n      0x00\n        /* \"#utility.yul\":4819:4825   */\n      dup1\n        /* \"#utility.yul\":4868:4870   */\n      0x40\n        /* \"#utility.yul\":4856:4865   */\n      dup4\n        /* \"#utility.yul\":4847:4854   */\n      dup6\n        /* \"#utility.yul\":4843:4866   */\n      sub\n        /* \"#utility.yul\":4839:4871   */\n      slt\n        /* \"#utility.yul\":4836:4955   */\n      iszero\n      tag_499\n      jumpi\n        /* \"#utility.yul\":4874:4953   */\n      tag_500\n      tag_349\n      jump\t// in\n    tag_500:\n        /* \"#utility.yul\":4836:4955   */\n    tag_499:\n        /* \"#utility.yul\":4994:4995   */\n      0x00\n        /* \"#utility.yul\":5019:5072   */\n      tag_501\n        /* \"#utility.yul\":5064:5071   */\n      dup6\n        /* \"#utility.yul\":5055:5061   */\n      dup3\n        /* \"#utility.yul\":5044:5053   */\n      dup7\n        /* \"#utility.yul\":5040:5062   */\n      add\n        /* \"#utility.yul\":5019:5072   */\n      tag_368\n      jump\t// in\n    tag_501:\n        /* \"#utility.yul\":5009:5072   */\n      swap3\n      pop\n        /* \"#utility.yul\":4965:5082   */\n      pop\n        /* \"#utility.yul\":5121:5123   */\n      0x20\n        /* \"#utility.yul\":5147:5200   */\n      tag_502\n        /* \"#utility.yul\":5192:5199   */\n      dup6\n        /* \"#utility.yul\":5183:5189   */\n      dup3\n        /* \"#utility.yul\":5172:5181   */\n      dup7\n        /* \"#utility.yul\":5168:5190   */\n      add\n        /* \"#utility.yul\":5147:5200   */\n      tag_353\n      jump\t// in\n    tag_502:\n        /* \"#utility.yul\":5137:5200   */\n      swap2\n      pop\n        /* \"#utility.yul\":5092:5210   */\n      pop\n        /* \"#utility.yul\":4743:5217   */\n      swap3\n      pop\n      swap3\n      swap1\n      pop\n      jump\t// out\n        /* \"#utility.yul\":5223:5341   */\n    tag_369:\n        /* \"#utility.yul\":5310:5334   */\n      tag_504\n        /* \"#utility.yul\":5328:5333   */\n      dup2\n        /* \"#utility.yul\":5310:5334   */\n      tag_366\n      jump\t// in\n    tag_504:\n        /* \"#utility.yul\":5305:5308   */\n      dup3\n        /* \"#utility.yul\":5298:5335   */\n      mstore\n        /* \"#utility.yul\":5223:5341   */\n      pop\n      pop\n      jump\t// out\n        /* \"#utility.yul\":5347:5569   */\n    tag_33:\n        /* \"#utility.yul\":5440:5444   */\n      0x00\n        /* \"#utility.yul\":5478:5480   */\n      0x20\n        /* \"#utility.yul\":5467:5476   */\n      dup3\n        /* \"#utility.yul\":5463:5481   */\n      add\n        /* \"#utility.yul\":5455:5481   */\n      swap1\n      pop\n        /* \"#utility.yul\":5491:5562   */\n      tag_506\n        /* \"#utility.yul\":5559:5560   */\n      0x00\n        /* \"#utility.yul\":5548:5557   */\n      dup4\n        /* \"#utility.yul\":5544:5561   */\n      add\n        /* \"#utility.yul\":5535:5541   */\n      dup5\n        /* \"#utility.yul\":5491:5562   */\n      tag_369\n      jump\t// in\n    tag_506:\n        /* \"#utility.yul\":5347:5569   */\n      swap3\n      swap2\n      pop\n      pop\n      jump\t// out\n        /* \"#utility.yul\":5575:5673   */\n    tag_370:\n        /* \"#utility.yul\":5626:5632   */\n      0x00\n        /* \"#utility.yul\":5660:5665   */\n      dup2\n        /* \"#utility.yul\":5654:5666   */\n      mload\n        /* \"#utility.yul\":5644:5666   */\n      swap1\n      pop\n        /* \"#utility.yul\":5575:5673   */\n      swap2\n      swap1\n      pop\n      jump\t// out\n        /* \"#utility.yul\":5679:5847   */\n    tag_371:\n        /* \"#utility.yul\":5762:5773   */\n      0x00\n        /* \"#utility.yul\":5796:5802   */\n      dup3\n        /* \"#utility.yul\":5791:5794   */\n      dup3\n        /* \"#utility.yul\":5784:5803   */\n      mstore\n        /* \"#utility.yul\":5836:5840   */\n      0x20\n        /* \"#utility.yul\":5831:5834   */\n      dup3\n        /* \"#utility.yul\":5827:5841   */\n      add\n        /* \"#utility.yul\":5812:5841   */\n      swap1\n      pop\n        /* \"#utility.yul\":5679:5847   */\n      swap3\n      swap2\n      pop\n      pop\n      jump\t// out\n        /* \"#utility.yul\":5853:6099   */\n    tag_372:\n        /* \"#utility.yul\":5934:5935   */\n      0x00\n        /* \"#utility.yul\":5944:6057   */\n    tag_510:\n        /* \"#utility.yul\":5958:5964   */\n      dup4\n        /* \"#utility.yul\":5955:5956   */\n      dup2\n        /* \"#utility.yul\":5952:5965   */\n      lt\n        /* \"#utility.yul\":5944:6057   */\n      iszero\n      tag_512\n      jumpi\n        /* \"#utility.yul\":6043:6044   */\n      dup1\n        /* \"#utility.yul\":6038:6041   */\n      dup3\n        /* \"#utility.yul\":6034:6045   */\n      add\n        /* \"#utility.yul\":6028:6046   */\n      mload\n        /* \"#utility.yul\":6024:6025   */\n      dup2\n        /* \"#utility.yul\":6019:6022   */\n      dup5\n        /* \"#utility.yul\":6015:6026   */\n      add\n        /* \"#utility.yul\":6008:6047   */\n      mstore\n        /* \"#utility.yul\":5980:5982   */\n      0x20\n        /* \"#utility.yul\":5977:5978   */\n      dup2\n        /* \"#utility.yul\":5973:5983   */\n      add\n        /* \"#utility.yul\":5968:5983   */\n      swap1\n      pop\n        /* \"#utility.yul\":5944:6057   */\n      jump(tag_510)\n    tag_512:\n        /* \"#utility.yul\":6091:6092   */\n      0x00\n        /* \"#utility.yul\":6082:6088   */\n      dup5\n        /* \"#utility.yul\":6077:6080   */\n      dup5\n        /* \"#utility.yul\":6073:6089   */\n      add\n        /* \"#utility.yul\":6066:6093   */\n      mstore\n        /* \"#utility.yul\":5915:6099   */\n      pop\n        /* \"#utility.yul\":5853:6099   */\n      pop\n      pop\n      pop\n      jump\t// out\n        /* \"#utility.yul\":6105:6478   */\n    tag_373:\n        /* \"#utility.yul\":6191:6194   */\n      0x00\n        /* \"#utility.yul\":6219:6257   */\n      tag_514\n        /* \"#utility.yul\":6251:6256   */\n      dup3\n        /* \"#utility.yul\":6219:6257   */\n      tag_370\n      jump\t// in\n    tag_514:\n        /* \"#utility.yul\":6273:6343   */\n      tag_515\n        /* \"#utility.yul\":6336:6342   */\n      dup2\n        /* \"#utility.yul\":6331:6334   */\n      dup6\n        /* \"#utility.yul\":6273:6343   */\n      tag_371\n      jump\t// in\n    tag_515:\n        /* \"#utility.yul\":6266:6343   */\n      swap4\n      pop\n        /* \"#utility.yul\":6352:6417   */\n      tag_516\n        /* \"#utility.yul\":6410:6416   */\n      dup2\n        /* \"#utility.yul\":6405:6408   */\n      dup6\n        /* \"#utility.yul\":6398:6402   */\n      0x20\n        /* \"#utility.yul\":6391:6396   */\n      dup7\n        /* \"#utility.yul\":6387:6403   */\n      add\n        /* \"#utility.yul\":6352:6417   */\n      tag_372\n      jump\t// in\n    tag_516:\n        /* \"#utility.yul\":6442:6471   */\n      tag_517\n        /* \"#utility.yul\":6464:6470   */\n      dup2\n        /* \"#utility.yul\":6442:6471   */\n      tag_356\n      jump\t// in\n    tag_517:\n        /* \"#utility.yul\":6437:6440   */\n      dup5\n        /* \"#utility.yul\":6433:6472   */\n      add\n        /* \"#utility.yul\":6426:6472   */\n      swap2\n      pop\n        /* \"#utility.yul\":6195:6478   */\n      pop\n        /* \"#utility.yul\":6105:6478   */\n      swap3\n      swap2\n      pop\n      pop\n      jump\t// out\n        /* \"#utility.yul\":6484:6793   */\n    tag_37:\n        /* \"#utility.yul\":6595:6599   */\n      0x00\n        /* \"#utility.yul\":6633:6635   */\n      0x20\n        /* \"#utility.yul\":6622:6631   */\n      dup3\n        /* \"#utility.yul\":6618:6636   */\n      add\n        /* \"#utility.yul\":6610:6636   */\n      swap1\n      pop\n        /* \"#utility.yul\":6682:6691   */\n      dup2\n        /* \"#utility.yul\":6676:6680   */\n      dup2\n        /* \"#utility.yul\":6672:6692   */\n      sub\n        /* \"#utility.yul\":6668:6669   */\n      0x00\n        /* \"#utility.yul\":6657:6666   */\n      dup4\n        /* \"#utility.yul\":6653:6670   */\n      add\n        /* \"#utility.yul\":6646:6693   */\n      mstore\n        /* \"#utility.yul\":6710:6786   */\n      tag_519\n        /* \"#utility.yul\":6781:6785   */\n      dup2\n        /* \"#utility.yul\":6772:6778   */\n      dup5\n        /* \"#utility.yul\":6710:6786   */\n      tag_373\n      jump\t// in\n    tag_519:\n        /* \"#utility.yul\":6702:6786   */\n      swap1\n      pop\n        /* \"#utility.yul\":6484:6793   */\n      swap3\n      swap2\n      pop\n      pop\n      jump\t// out\n        /* \"#utility.yul\":6799:6916   */\n    tag_374:\n        /* \"#utility.yul\":6908:6909   */\n      0x00\n        /* \"#utility.yul\":6905:6906   */\n      dup1\n        /* \"#utility.yul\":6898:6910   */\n      revert\n        /* \"#utility.yul\":6922:7039   */\n    tag_375:\n        /* \"#utility.yul\":7031:7032   */\n      0x00\n        /* \"#utility.yul\":7028:7029   */\n      dup1\n        /* \"#utility.yul\":7021:7033   */\n      revert\n        /* \"#utility.yul\":7059:7612   */\n    tag_376:\n        /* \"#utility.yul\":7117:7125   */\n      0x00\n        /* \"#utility.yul\":7127:7133   */\n      dup1\n        /* \"#utility.yul\":7177:7180   */\n      dup4\n        /* \"#utility.yul\":7170:7174   */\n      0x1f\n        /* \"#utility.yul\":7162:7168   */\n      dup5\n        /* \"#utility.yul\":7158:7175   */\n      add\n        /* \"#utility.yul\":7154:7181   */\n      slt\n        /* \"#utility.yul\":7144:7266   */\n      tag_523\n      jumpi\n        /* \"#utility.yul\":7185:7264   */\n      tag_524\n      tag_354\n      jump\t// in\n    tag_524:\n        /* \"#utility.yul\":7144:7266   */\n    tag_523:\n        /* \"#utility.yul\":7298:7304   */\n      dup3\n        /* \"#utility.yul\":7285:7305   */\n      calldataload\n        /* \"#utility.yul\":7275:7305   */\n      swap1\n      pop\n        /* \"#utility.yul\":7328:7346   */\n      0xffffffffffffffff\n        /* \"#utility.yul\":7320:7326   */\n      dup2\n        /* \"#utility.yul\":7317:7347   */\n      gt\n        /* \"#utility.yul\":7314:7431   */\n      iszero\n      tag_525\n      jumpi\n        /* \"#utility.yul\":7350:7429   */\n      tag_526\n      tag_374\n      jump\t// in\n    tag_526:\n        /* \"#utility.yul\":7314:7431   */\n    tag_525:\n        /* \"#utility.yul\":7464:7468   */\n      0x20\n        /* \"#utility.yul\":7456:7462   */\n      dup4\n        /* \"#utility.yul\":7452:7469   */\n      add\n        /* \"#utility.yul\":7440:7469   */\n      swap2\n      pop\n        /* \"#utility.yul\":7518:7521   */\n      dup4\n        /* \"#utility.yul\":7510:7514   */\n      0x01\n        /* \"#utility.yul\":7502:7508   */\n      dup3\n        /* \"#utility.yul\":7498:7515   */\n      mul\n        /* \"#utility.yul\":7488:7496   */\n      dup4\n        /* \"#utility.yul\":7484:7516   */\n      add\n        /* \"#utility.yul\":7481:7522   */\n      gt\n        /* \"#utility.yul\":7478:7606   */\n      iszero\n      tag_527\n      jumpi\n        /* \"#utility.yul\":7525:7604   */\n      tag_528\n      tag_375\n      jump\t// in\n    tag_528:\n        /* \"#utility.yul\":7478:7606   */\n    tag_527:\n        /* \"#utility.yul\":7059:7612   */\n      swap3\n      pop\n      swap3\n      swap1\n      pop\n      jump\t// out\n        /* \"#utility.yul\":7631:8183   */\n    tag_377:\n        /* \"#utility.yul\":7688:7696   */\n      0x00\n        /* \"#utility.yul\":7698:7704   */\n      dup1\n        /* \"#utility.yul\":7748:7751   */\n      dup4\n        /* \"#utility.yul\":7741:7745   */\n      0x1f\n        /* \"#utility.yul\":7733:7739   */\n      dup5\n        /* \"#utility.yul\":7729:7746   */\n      add\n        /* \"#utility.yul\":7725:7752   */\n      slt\n        /* \"#utility.yul\":7715:7837   */\n      tag_530\n      jumpi\n        /* \"#utility.yul\":7756:7835   */\n      tag_531\n      tag_354\n      jump\t// in\n    tag_531:\n        /* \"#utility.yul\":7715:7837   */\n    tag_530:\n        /* \"#utility.yul\":7869:7875   */\n      dup3\n        /* \"#utility.yul\":7856:7876   */\n      calldataload\n        /* \"#utility.yul\":7846:7876   */\n      swap1\n      pop\n        /* \"#utility.yul\":7899:7917   */\n      0xffffffffffffffff\n        /* \"#utility.yul\":7891:7897   */\n      dup2\n        /* \"#utility.yul\":7888:7918   */\n      gt\n        /* \"#utility.yul\":7885:8002   */\n      iszero\n      tag_532\n      jumpi\n        /* \"#utility.yul\":7921:8000   */\n      tag_533\n      tag_374\n      jump\t// in\n    tag_533:\n        /* \"#utility.yul\":7885:8002   */\n    tag_532:\n        /* \"#utility.yul\":8035:8039   */\n      0x20\n        /* \"#utility.yul\":8027:8033   */\n      dup4\n        /* \"#utility.yul\":8023:8040   */\n      add\n        /* \"#utility.yul\":8011:8040   */\n      swap2\n      pop\n        /* \"#utility.yul\":8089:8092   */\n      dup4\n        /* \"#utility.yul\":8081:8085   */\n      0x01\n        /* \"#utility.yul\":8073:8079   */\n      dup3\n        /* \"#utility.yul\":8069:8086   */\n      mul\n        /* \"#utility.yul\":8059:8067   */\n      dup4\n        /* \"#utility.yul\":8055:8087   */\n      add\n        /* \"#utility.yul\":8052:8093   */\n      gt\n        /* \"#utility.yul\":8049:8177   */\n      iszero\n      tag_534\n      jumpi\n        /* \"#utility.yul\":8096:8175   */\n      tag_535\n      tag_375\n      jump\t// in\n    tag_535:\n        /* \"#utility.yul\":8049:8177   */\n    tag_534:\n        /* \"#utility.yul\":7631:8183   */\n      swap3\n      pop\n      swap3\n      swap1\n      pop\n      jump\t// out\n        /* \"#utility.yul\":8189:8301   */\n    tag_378:\n        /* \"#utility.yul\":8275:8276   */\n      0x02\n        /* \"#utility.yul\":8268:8273   */\n      dup2\n        /* \"#utility.yul\":8265:8277   */\n      lt\n        /* \"#utility.yul\":8255:8295   */\n      tag_537\n      jumpi\n        /* \"#utility.yul\":8291:8292   */\n      0x00\n        /* \"#utility.yul\":8288:8289   */\n      dup1\n        /* \"#utility.yul\":8281:8293   */\n      revert\n        /* \"#utility.yul\":8255:8295   */\n    tag_537:\n        /* \"#utility.yul\":8189:8301   */\n      pop\n      jump\t// out\n        /* \"#utility.yul\":8307:8472   */\n    tag_379:\n        /* \"#utility.yul\":8366:8371   */\n      0x00\n        /* \"#utility.yul\":8404:8410   */\n      dup2\n        /* \"#utility.yul\":8391:8411   */\n      calldataload\n        /* \"#utility.yul\":8382:8411   */\n      swap1\n      pop\n        /* \"#utility.yul\":8420:8466   */\n      tag_539\n        /* \"#utility.yul\":8460:8465   */\n      dup2\n        /* \"#utility.yul\":8420:8466   */\n      tag_378\n      jump\t// in\n    tag_539:\n        /* \"#utility.yul\":8307:8472   */\n      swap3\n      swap2\n      pop\n      pop\n      jump\t// out\n        /* \"#utility.yul\":8494:9074   */\n    tag_380:\n        /* \"#utility.yul\":8579:8587   */\n      0x00\n        /* \"#utility.yul\":8589:8595   */\n      dup1\n        /* \"#utility.yul\":8639:8642   */\n      dup4\n        /* \"#utility.yul\":8632:8636   */\n      0x1f\n        /* \"#utility.yul\":8624:8630   */\n      dup5\n        /* \"#utility.yul\":8620:8637   */\n      add\n        /* \"#utility.yul\":8616:8643   */\n      slt\n        /* \"#utility.yul\":8606:8728   */\n      tag_541\n      jumpi\n        /* \"#utility.yul\":8647:8726   */\n      tag_542\n      tag_354\n      jump\t// in\n    tag_542:\n        /* \"#utility.yul\":8606:8728   */\n    tag_541:\n        /* \"#utility.yul\":8760:8766   */\n      dup3\n        /* \"#utility.yul\":8747:8767   */\n      calldataload\n        /* \"#utility.yul\":8737:8767   */\n      swap1\n      pop\n        /* \"#utility.yul\":8790:8808   */\n      0xffffffffffffffff\n        /* \"#utility.yul\":8782:8788   */\n      dup2\n        /* \"#utility.yul\":8779:8809   */\n      gt\n        /* \"#utility.yul\":8776:8893   */\n      iszero\n      tag_543\n      jumpi\n        /* \"#utility.yul\":8812:8891   */\n      tag_544\n      tag_374\n      jump\t// in\n    tag_544:\n        /* \"#utility.yul\":8776:8893   */\n    tag_543:\n        /* \"#utility.yul\":8926:8930   */\n      0x20\n        /* \"#utility.yul\":8918:8924   */\n      dup4\n        /* \"#utility.yul\":8914:8931   */\n      add\n        /* \"#utility.yul\":8902:8931   */\n      swap2\n      pop\n        /* \"#utility.yul\":8980:8983   */\n      dup4\n        /* \"#utility.yul\":8972:8976   */\n      0x20\n        /* \"#utility.yul\":8964:8970   */\n      dup3\n        /* \"#utility.yul\":8960:8977   */\n      mul\n        /* \"#utility.yul\":8950:8958   */\n      dup4\n        /* \"#utility.yul\":8946:8978   */\n      add\n        /* \"#utility.yul\":8943:8984   */\n      gt\n        /* \"#utility.yul\":8940:9068   */\n      iszero\n      tag_545\n      jumpi\n        /* \"#utility.yul\":8987:9066   */\n      tag_546\n      tag_375\n      jump\t// in\n    tag_546:\n        /* \"#utility.yul\":8940:9068   */\n    tag_545:\n        /* \"#utility.yul\":8494:9074   */\n      swap3\n      pop\n      swap3\n      swap1\n      pop\n      jump\t// out\n        /* \"#utility.yul\":9080:9181   */\n    tag_381:\n        /* \"#utility.yul\":9116:9123   */\n      0x00\n        /* \"#utility.yul\":9156:9174   */\n      0xffffffffffffffff\n        /* \"#utility.yul\":9149:9154   */\n      dup3\n        /* \"#utility.yul\":9145:9175   */\n      and\n        /* \"#utility.yul\":9134:9175   */\n      swap1\n      pop\n        /* \"#utility.yul\":9080:9181   */\n      swap2\n      swap1\n      pop\n      jump\t// out\n        /* \"#utility.yul\":9187:9307   */\n    tag_382:\n        /* \"#utility.yul\":9259:9282   */\n      tag_549\n        /* \"#utility.yul\":9276:9281   */\n      dup2\n        /* \"#utility.yul\":9259:9282   */\n      tag_381\n      jump\t// in\n    tag_549:\n        /* \"#utility.yul\":9252:9257   */\n      dup2\n        /* \"#utility.yul\":9249:9283   */\n      eq\n        /* \"#utility.yul\":9239:9301   */\n      tag_550\n      jumpi\n        /* \"#utility.yul\":9297:9298   */\n      0x00\n        /* \"#utility.yul\":9294:9295   */\n      dup1\n        /* \"#utility.yul\":9287:9299   */\n      revert\n        /* \"#utility.yul\":9239:9301   */\n    tag_550:\n        /* \"#utility.yul\":9187:9307   */\n      pop\n      jump\t// out\n        /* \"#utility.yul\":9313:9450   */\n    tag_383:\n        /* \"#utility.yul\":9358:9363   */\n      0x00\n        /* \"#utility.yul\":9396:9402   */\n      dup2\n        /* \"#utility.yul\":9383:9403   */\n      calldataload\n        /* \"#utility.yul\":9374:9403   */\n      swap1\n      pop\n        /* \"#utility.yul\":9412:9444   */\n      tag_552\n        /* \"#utility.yul\":9438:9443   */\n      dup2\n        /* \"#utility.yul\":9412:9444   */\n      tag_382\n      jump\t// in\n    tag_552:\n        /* \"#utility.yul\":9313:9450   */\n      swap3\n      swap2\n      pop\n      pop\n      jump\t// out\n        /* \"#utility.yul\":9456:9549   */\n    tag_384:\n        /* \"#utility.yul\":9492:9499   */\n      0x00\n        /* \"#utility.yul\":9532:9542   */\n      0xffffffff\n        /* \"#utility.yul\":9525:9530   */\n      dup3\n        /* \"#utility.yul\":9521:9543   */\n      and\n        /* \"#utility.yul\":9510:9543   */\n      swap1\n      pop\n        /* \"#utility.yul\":9456:9549   */\n      swap2\n      swap1\n      pop\n      jump\t// out\n        /* \"#utility.yul\":9555:9675   */\n    tag_385:\n        /* \"#utility.yul\":9627:9650   */\n      tag_555\n        /* \"#utility.yul\":9644:9649   */\n      dup2\n        /* \"#utility.yul\":9627:9650   */\n      tag_384\n      jump\t// in\n    tag_555:\n        /* \"#utility.yul\":9620:9625   */\n      dup2\n        /* \"#utility.yul\":9617:9651   */\n      eq\n        /* \"#utility.yul\":9607:9669   */\n      tag_556\n      jumpi\n        /* \"#utility.yul\":9665:9666   */\n      0x00\n        /* \"#utility.yul\":9662:9663   */\n      dup1\n        /* \"#utility.yul\":9655:9667   */\n      revert\n        /* \"#utility.yul\":9607:9669   */\n    tag_556:\n        /* \"#utility.yul\":9555:9675   */\n      pop\n      jump\t// out\n        /* \"#utility.yul\":9681:9818   */\n    tag_386:\n        /* \"#utility.yul\":9726:9731   */\n      0x00\n        /* \"#utility.yul\":9764:9770   */\n      dup2\n        /* \"#utility.yul\":9751:9771   */\n      calldataload\n        /* \"#utility.yul\":9742:9771   */\n      swap1\n      pop\n        /* \"#utility.yul\":9780:9812   */\n      tag_558\n        /* \"#utility.yul\":9806:9811   */\n      dup2\n        /* \"#utility.yul\":9780:9812   */\n      tag_385\n      jump\t// in\n    tag_558:\n        /* \"#utility.yul\":9681:9818   */\n      swap3\n      swap2\n      pop\n      pop\n      jump\t// out\n        /* \"#utility.yul\":9824:11555   */\n    tag_40:\n        /* \"#utility.yul\":10001:10007   */\n      0x00\n        /* \"#utility.yul\":10009:10015   */\n      dup1\n        /* \"#utility.yul\":10017:10023   */\n      0x00\n        /* \"#utility.yul\":10025:10031   */\n      dup1\n        /* \"#utility.yul\":10033:10039   */\n      0x00\n        /* \"#utility.yul\":10041:10047   */\n      dup1\n        /* \"#utility.yul\":10049:10055   */\n      0x00\n        /* \"#utility.yul\":10057:10063   */\n      dup1\n        /* \"#utility.yul\":10065:10071   */\n      0x00\n        /* \"#utility.yul\":10114:10117   */\n      0xc0\n        /* \"#utility.yul\":10102:10111   */\n      dup11\n        /* \"#utility.yul\":10093:10100   */\n      dup13\n        /* \"#utility.yul\":10089:10112   */\n      sub\n        /* \"#utility.yul\":10085:10118   */\n      slt\n        /* \"#utility.yul\":10082:10202   */\n      iszero\n      tag_560\n      jumpi\n        /* \"#utility.yul\":10121:10200   */\n      tag_561\n      tag_349\n      jump\t// in\n    tag_561:\n        /* \"#utility.yul\":10082:10202   */\n    tag_560:\n        /* \"#utility.yul\":10269:10270   */\n      0x00\n        /* \"#utility.yul\":10258:10267   */\n      dup11\n        /* \"#utility.yul\":10254:10271   */\n      add\n        /* \"#utility.yul\":10241:10272   */\n      calldataload\n        /* \"#utility.yul\":10299:10317   */\n      0xffffffffffffffff\n        /* \"#utility.yul\":10291:10297   */\n      dup2\n        /* \"#utility.yul\":10288:10318   */\n      gt\n        /* \"#utility.yul\":10285:10402   */\n      iszero\n      tag_562\n      jumpi\n        /* \"#utility.yul\":10321:10400   */\n      tag_563\n      tag_350\n      jump\t// in\n    tag_563:\n        /* \"#utility.yul\":10285:10402   */\n    tag_562:\n        /* \"#utility.yul\":10434:10499   */\n      tag_564\n        /* \"#utility.yul\":10491:10498   */\n      dup13\n        /* \"#utility.yul\":10482:10488   */\n      dup3\n        /* \"#utility.yul\":10471:10480   */\n      dup14\n        /* \"#utility.yul\":10467:10489   */\n      add\n        /* \"#utility.yul\":10434:10499   */\n      tag_376\n      jump\t// in\n    tag_564:\n        /* \"#utility.yul\":10416:10499   */\n      swap10\n      pop\n      swap10\n      pop\n        /* \"#utility.yul\":10212:10509   */\n      pop\n        /* \"#utility.yul\":10576:10578   */\n      0x20\n        /* \"#utility.yul\":10565:10574   */\n      dup11\n        /* \"#utility.yul\":10561:10579   */\n      add\n        /* \"#utility.yul\":10548:10580   */\n      calldataload\n        /* \"#utility.yul\":10607:10625   */\n      0xffffffffffffffff\n        /* \"#utility.yul\":10599:10605   */\n      dup2\n        /* \"#utility.yul\":10596:10626   */\n      gt\n        /* \"#utility.yul\":10593:10710   */\n      iszero\n      tag_565\n      jumpi\n        /* \"#utility.yul\":10629:10708   */\n      tag_566\n      tag_350\n      jump\t// in\n    tag_566:\n        /* \"#utility.yul\":10593:10710   */\n    tag_565:\n        /* \"#utility.yul\":10742:10806   */\n      tag_567\n        /* \"#utility.yul\":10798:10805   */\n      dup13\n        /* \"#utility.yul\":10789:10795   */\n      dup3\n        /* \"#utility.yul\":10778:10787   */\n      dup14\n        /* \"#utility.yul\":10774:10796   */\n      add\n        /* \"#utility.yul\":10742:10806   */\n      tag_377\n      jump\t// in\n    tag_567:\n        /* \"#utility.yul\":10724:10806   */\n      swap8\n      pop\n      swap8\n      pop\n        /* \"#utility.yul\":10519:10816   */\n      pop\n        /* \"#utility.yul\":10855:10857   */\n      0x40\n        /* \"#utility.yul\":10881:10947   */\n      tag_568\n        /* \"#utility.yul\":10939:10946   */\n      dup13\n        /* \"#utility.yul\":10930:10936   */\n      dup3\n        /* \"#utility.yul\":10919:10928   */\n      dup14\n        /* \"#utility.yul\":10915:10937   */\n      add\n        /* \"#utility.yul\":10881:10947   */\n      tag_379\n      jump\t// in\n    tag_568:\n        /* \"#utility.yul\":10871:10947   */\n      swap6\n      pop\n        /* \"#utility.yul\":10826:10957   */\n      pop\n        /* \"#utility.yul\":11024:11026   */\n      0x60\n        /* \"#utility.yul\":11013:11022   */\n      dup11\n        /* \"#utility.yul\":11009:11027   */\n      add\n        /* \"#utility.yul\":10996:11028   */\n      calldataload\n        /* \"#utility.yul\":11055:11073   */\n      0xffffffffffffffff\n        /* \"#utility.yul\":11047:11053   */\n      dup2\n        /* \"#utility.yul\":11044:11074   */\n      gt\n        /* \"#utility.yul\":11041:11158   */\n      iszero\n      tag_569\n      jumpi\n        /* \"#utility.yul\":11077:11156   */\n      tag_570\n      tag_350\n      jump\t// in\n    tag_570:\n        /* \"#utility.yul\":11041:11158   */\n    tag_569:\n        /* \"#utility.yul\":11190:11282   */\n      tag_571\n        /* \"#utility.yul\":11274:11281   */\n      dup13\n        /* \"#utility.yul\":11265:11271   */\n      dup3\n        /* \"#utility.yul\":11254:11263   */\n      dup14\n        /* \"#utility.yul\":11250:11272   */\n      add\n        /* \"#utility.yul\":11190:11282   */\n      tag_380\n      jump\t// in\n    tag_571:\n        /* \"#utility.yul\":11172:11282   */\n      swap5\n      pop\n      swap5\n      pop\n        /* \"#utility.yul\":10967:11292   */\n      pop\n        /* \"#utility.yul\":11331:11334   */\n      0x80\n        /* \"#utility.yul\":11358:11410   */\n      tag_572\n        /* \"#utility.yul\":11402:11409   */\n      dup13\n        /* \"#utility.yul\":11393:11399   */\n      dup3\n        /* \"#utility.yul\":11382:11391   */\n      dup14\n        /* \"#utility.yul\":11378:11400   */\n      add\n        /* \"#utility.yul\":11358:11410   */\n      tag_383\n      jump\t// in\n    tag_572:\n        /* \"#utility.yul\":11348:11410   */\n      swap3\n      pop\n        /* \"#utility.yul\":11302:11420   */\n      pop\n        /* \"#utility.yul\":11459:11462   */\n      0xa0\n        /* \"#utility.yul\":11486:11538   */\n      tag_573\n        /* \"#utility.yul\":11530:11537   */\n      dup13\n        /* \"#utility.yul\":11521:11527   */\n      dup3\n        /* \"#utility.yul\":11510:11519   */\n      dup14\n        /* \"#utility.yul\":11506:11528   */\n      add\n        /* \"#utility.yul\":11486:11538   */\n      tag_386\n      jump\t// in\n    tag_573:\n        /* \"#utility.yul\":11476:11538   */\n      swap2\n      pop\n        /* \"#utility.yul\":11430:11548   */\n      pop\n        /* \"#utility.yul\":9824:11555   */\n      swap3\n      swap6\n      swap9\n      pop\n      swap3\n      swap6\n      swap9\n      pop\n      swap3\n      swap6\n      swap9\n      jump\t// out\n        /* \"#utility.yul\":11561:11678   */\n    tag_387:\n        /* \"#utility.yul\":11670:11671   */\n      0x00\n        /* \"#utility.yul\":11667:11668   */\n      dup1\n        /* \"#utility.yul\":11660:11672   */\n      revert\n        /* \"#utility.yul\":11684:11801   */\n    tag_388:\n        /* \"#utility.yul\":11793:11794   */\n      0x00\n        /* \"#utility.yul\":11790:11791   */\n      dup1\n        /* \"#utility.yul\":11783:11795   */\n      revert\n        /* \"#utility.yul\":11807:11923   */\n    tag_389:\n        /* \"#utility.yul\":11897:11898   */\n      0x01\n        /* \"#utility.yul\":11890:11895   */\n      dup2\n        /* \"#utility.yul\":11887:11899   */\n      lt\n        /* \"#utility.yul\":11877:11917   */\n      tag_577\n      jumpi\n        /* \"#utility.yul\":11913:11914   */\n      0x00\n        /* \"#utility.yul\":11910:11911   */\n      dup1\n        /* \"#utility.yul\":11903:11915   */\n      revert\n        /* \"#utility.yul\":11877:11917   */\n    tag_577:\n        /* \"#utility.yul\":11807:11923   */\n      pop\n      jump\t// out\n        /* \"#utility.yul\":11929:12102   */\n    tag_390:\n        /* \"#utility.yul\":11992:11997   */\n      0x00\n        /* \"#utility.yul\":12030:12036   */\n      dup2\n        /* \"#utility.yul\":12017:12037   */\n      calldataload\n        /* \"#utility.yul\":12008:12037   */\n      swap1\n      pop\n        /* \"#utility.yul\":12046:12096   */\n      tag_579\n        /* \"#utility.yul\":12090:12095   */\n      dup2\n        /* \"#utility.yul\":12046:12096   */\n      tag_389\n      jump\t// in\n    tag_579:\n        /* \"#utility.yul\":11929:12102   */\n      swap3\n      swap2\n      pop\n      pop\n      jump\t// out\n        /* \"#utility.yul\":12108:12416   */\n    tag_391:\n        /* \"#utility.yul\":12170:12174   */\n      0x00\n        /* \"#utility.yul\":12260:12278   */\n      0xffffffffffffffff\n        /* \"#utility.yul\":12252:12258   */\n      dup3\n        /* \"#utility.yul\":12249:12279   */\n      gt\n        /* \"#utility.yul\":12246:12302   */\n      iszero\n      tag_581\n      jumpi\n        /* \"#utility.yul\":12282:12300   */\n      tag_582\n      tag_357\n      jump\t// in\n    tag_582:\n        /* \"#utility.yul\":12246:12302   */\n    tag_581:\n        /* \"#utility.yul\":12320:12349   */\n      tag_583\n        /* \"#utility.yul\":12342:12348   */\n      dup3\n        /* \"#utility.yul\":12320:12349   */\n      tag_356\n      jump\t// in\n    tag_583:\n        /* \"#utility.yul\":12312:12349   */\n      swap1\n      pop\n        /* \"#utility.yul\":12404:12408   */\n      0x20\n        /* \"#utility.yul\":12398:12402   */\n      dup2\n        /* \"#utility.yul\":12394:12409   */\n      add\n        /* \"#utility.yul\":12386:12409   */\n      swap1\n      pop\n        /* \"#utility.yul\":12108:12416   */\n      swap2\n      swap1\n      pop\n      jump\t// out\n        /* \"#utility.yul\":12422:12847   */\n    tag_392:\n        /* \"#utility.yul\":12500:12505   */\n      0x00\n        /* \"#utility.yul\":12525:12591   */\n      tag_585\n        /* \"#utility.yul\":12541:12590   */\n      tag_586\n        /* \"#utility.yul\":12583:12589   */\n      dup5\n        /* \"#utility.yul\":12541:12590   */\n      tag_391\n      jump\t// in\n    tag_586:\n        /* \"#utility.yul\":12525:12591   */\n      tag_359\n      jump\t// in\n    tag_585:\n        /* \"#utility.yul\":12516:12591   */\n      swap1\n      pop\n        /* \"#utility.yul\":12614:12620   */\n      dup3\n        /* \"#utility.yul\":12607:12612   */\n      dup2\n        /* \"#utility.yul\":12600:12621   */\n      mstore\n        /* \"#utility.yul\":12652:12656   */\n      0x20\n        /* \"#utility.yul\":12645:12650   */\n      dup2\n        /* \"#utility.yul\":12641:12657   */\n      add\n        /* \"#utility.yul\":12690:12693   */\n      dup5\n        /* \"#utility.yul\":12681:12687   */\n      dup5\n        /* \"#utility.yul\":12676:12679   */\n      dup5\n        /* \"#utility.yul\":12672:12688   */\n      add\n        /* \"#utility.yul\":12669:12694   */\n      gt\n        /* \"#utility.yul\":12666:12778   */\n      iszero\n      tag_587\n      jumpi\n        /* \"#utility.yul\":12697:12776   */\n      tag_588\n      tag_355\n      jump\t// in\n    tag_588:\n        /* \"#utility.yul\":12666:12778   */\n    tag_587:\n        /* \"#utility.yul\":12787:12841   */\n      tag_589\n        /* \"#utility.yul\":12834:12840   */\n      dup5\n        /* \"#utility.yul\":12829:12832   */\n      dup3\n        /* \"#utility.yul\":12824:12827   */\n      dup6\n        /* \"#utility.yul\":12787:12841   */\n      tag_361\n      jump\t// in\n    tag_589:\n        /* \"#utility.yul\":12506:12847   */\n      pop\n        /* \"#utility.yul\":12422:12847   */\n      swap4\n      swap3\n      pop\n      pop\n      pop\n      jump\t// out\n        /* \"#utility.yul\":12867:13207   */\n    tag_393:\n        /* \"#utility.yul\":12923:12928   */\n      0x00\n        /* \"#utility.yul\":12972:12975   */\n      dup3\n        /* \"#utility.yul\":12965:12969   */\n      0x1f\n        /* \"#utility.yul\":12957:12963   */\n      dup4\n        /* \"#utility.yul\":12953:12970   */\n      add\n        /* \"#utility.yul\":12949:12976   */\n      slt\n        /* \"#utility.yul\":12939:13061   */\n      tag_591\n      jumpi\n        /* \"#utility.yul\":12980:13059   */\n      tag_592\n      tag_354\n      jump\t// in\n    tag_592:\n        /* \"#utility.yul\":12939:13061   */\n    tag_591:\n        /* \"#utility.yul\":13097:13103   */\n      dup2\n        /* \"#utility.yul\":13084:13104   */\n      calldataload\n        /* \"#utility.yul\":13122:13201   */\n      tag_593\n        /* \"#utility.yul\":13197:13200   */\n      dup5\n        /* \"#utility.yul\":13189:13195   */\n      dup3\n        /* \"#utility.yul\":13182:13186   */\n      0x20\n        /* \"#utility.yul\":13174:13180   */\n      dup7\n        /* \"#utility.yul\":13170:13187   */\n      add\n        /* \"#utility.yul\":13122:13201   */\n      tag_392\n      jump\t// in\n    tag_593:\n        /* \"#utility.yul\":13113:13201   */\n      swap2\n      pop\n        /* \"#utility.yul\":12929:13207   */\n      pop\n        /* \"#utility.yul\":12867:13207   */\n      swap3\n      swap2\n      pop\n      pop\n      jump\t// out\n        /* \"#utility.yul\":13213:13534   */\n    tag_394:\n        /* \"#utility.yul\":13300:13304   */\n      0x00\n        /* \"#utility.yul\":13390:13408   */\n      0xffffffffffffffff\n        /* \"#utility.yul\":13382:13388   */\n      dup3\n        /* \"#utility.yul\":13379:13409   */\n      gt\n        /* \"#utility.yul\":13376:13432   */\n      iszero\n      tag_595\n      jumpi\n        /* \"#utility.yul\":13412:13430   */\n      tag_596\n      tag_357\n      jump\t// in\n    tag_596:\n        /* \"#utility.yul\":13376:13432   */\n    tag_595:\n        /* \"#utility.yul\":13462:13466   */\n      0x20\n        /* \"#utility.yul\":13454:13460   */\n      dup3\n        /* \"#utility.yul\":13450:13467   */\n      mul\n        /* \"#utility.yul\":13442:13467   */\n      swap1\n      pop\n        /* \"#utility.yul\":13522:13526   */\n      0x20\n        /* \"#utility.yul\":13516:13520   */\n      dup2\n        /* \"#utility.yul\":13512:13527   */\n      add\n        /* \"#utility.yul\":13504:13527   */\n      swap1\n      pop\n        /* \"#utility.yul\":13213:13534   */\n      swap2\n      swap1\n      pop\n      jump\t// out\n        /* \"#utility.yul\":13556:14501   */\n    tag_395:\n        /* \"#utility.yul\":13662:13667   */\n      0x00\n        /* \"#utility.yul\":13687:13778   */\n      tag_598\n        /* \"#utility.yul\":13703:13777   */\n      tag_599\n        /* \"#utility.yul\":13770:13776   */\n      dup5\n        /* \"#utility.yul\":13703:13777   */\n      tag_394\n      jump\t// in\n    tag_599:\n        /* \"#utility.yul\":13687:13778   */\n      tag_359\n      jump\t// in\n    tag_598:\n        /* \"#utility.yul\":13678:13778   */\n      swap1\n      pop\n        /* \"#utility.yul\":13798:13803   */\n      dup1\n        /* \"#utility.yul\":13827:13833   */\n      dup4\n        /* \"#utility.yul\":13820:13825   */\n      dup3\n        /* \"#utility.yul\":13813:13834   */\n      mstore\n        /* \"#utility.yul\":13861:13865   */\n      0x20\n        /* \"#utility.yul\":13854:13859   */\n      dup3\n        /* \"#utility.yul\":13850:13866   */\n      add\n        /* \"#utility.yul\":13843:13866   */\n      swap1\n      pop\n        /* \"#utility.yul\":13914:13918   */\n      0x20\n        /* \"#utility.yul\":13906:13912   */\n      dup5\n        /* \"#utility.yul\":13902:13919   */\n      mul\n        /* \"#utility.yul\":13894:13900   */\n      dup4\n        /* \"#utility.yul\":13890:13920   */\n      add\n        /* \"#utility.yul\":13943:13946   */\n      dup6\n        /* \"#utility.yul\":13935:13941   */\n      dup2\n        /* \"#utility.yul\":13932:13947   */\n      gt\n        /* \"#utility.yul\":13929:14051   */\n      iszero\n      tag_600\n      jumpi\n        /* \"#utility.yul\":13962:14041   */\n      tag_601\n      tag_375\n      jump\t// in\n    tag_601:\n        /* \"#utility.yul\":13929:14051   */\n    tag_600:\n        /* \"#utility.yul\":14077:14083   */\n      dup4\n        /* \"#utility.yul\":14060:14495   */\n    tag_602:\n        /* \"#utility.yul\":14094:14100   */\n      dup2\n        /* \"#utility.yul\":14089:14092   */\n      dup2\n        /* \"#utility.yul\":14086:14101   */\n      lt\n        /* \"#utility.yul\":14060:14495   */\n      iszero\n      tag_604\n      jumpi\n        /* \"#utility.yul\":14183:14186   */\n      dup1\n        /* \"#utility.yul\":14170:14187   */\n      calldataload\n        /* \"#utility.yul\":14219:14237   */\n      0xffffffffffffffff\n        /* \"#utility.yul\":14206:14217   */\n      dup2\n        /* \"#utility.yul\":14203:14238   */\n      gt\n        /* \"#utility.yul\":14200:14322   */\n      iszero\n      tag_605\n      jumpi\n        /* \"#utility.yul\":14241:14320   */\n      tag_606\n      tag_354\n      jump\t// in\n    tag_606:\n        /* \"#utility.yul\":14200:14322   */\n    tag_605:\n        /* \"#utility.yul\":14365:14376   */\n      dup1\n        /* \"#utility.yul\":14357:14363   */\n      dup7\n        /* \"#utility.yul\":14353:14377   */\n      add\n        /* \"#utility.yul\":14403:14450   */\n      tag_607\n        /* \"#utility.yul\":14446:14449   */\n      dup10\n        /* \"#utility.yul\":14434:14444   */\n      dup3\n        /* \"#utility.yul\":14403:14450   */\n      tag_393\n      jump\t// in\n    tag_607:\n        /* \"#utility.yul\":14398:14401   */\n      dup6\n        /* \"#utility.yul\":14391:14451   */\n      mstore\n        /* \"#utility.yul\":14480:14484   */\n      0x20\n        /* \"#utility.yul\":14475:14478   */\n      dup6\n        /* \"#utility.yul\":14471:14485   */\n      add\n        /* \"#utility.yul\":14464:14485   */\n      swap5\n      pop\n        /* \"#utility.yul\":14136:14495   */\n      pop\n      pop\n        /* \"#utility.yul\":14120:14124   */\n      0x20\n        /* \"#utility.yul\":14115:14118   */\n      dup2\n        /* \"#utility.yul\":14111:14125   */\n      add\n        /* \"#utility.yul\":14104:14125   */\n      swap1\n      pop\n        /* \"#utility.yul\":14060:14495   */\n      jump(tag_602)\n    tag_604:\n        /* \"#utility.yul\":14064:14085   */\n      pop\n        /* \"#utility.yul\":13668:14501   */\n      pop\n      pop\n        /* \"#utility.yul\":13556:14501   */\n      swap4\n      swap3\n      pop\n      pop\n      pop\n      jump\t// out\n        /* \"#utility.yul\":14523:14913   */\n    tag_396:\n        /* \"#utility.yul\":14604:14609   */\n      0x00\n        /* \"#utility.yul\":14653:14656   */\n      dup3\n        /* \"#utility.yul\":14646:14650   */\n      0x1f\n        /* \"#utility.yul\":14638:14644   */\n      dup4\n        /* \"#utility.yul\":14634:14651   */\n      add\n        /* \"#utility.yul\":14630:14657   */\n      slt\n        /* \"#utility.yul\":14620:14742   */\n      tag_609\n      jumpi\n        /* \"#utility.yul\":14661:14740   */\n      tag_610\n      tag_354\n      jump\t// in\n    tag_610:\n        /* \"#utility.yul\":14620:14742   */\n    tag_609:\n        /* \"#utility.yul\":14778:14784   */\n      dup2\n        /* \"#utility.yul\":14765:14785   */\n      calldataload\n        /* \"#utility.yul\":14803:14907   */\n      tag_611\n        /* \"#utility.yul\":14903:14906   */\n      dup5\n        /* \"#utility.yul\":14895:14901   */\n      dup3\n        /* \"#utility.yul\":14888:14892   */\n      0x20\n        /* \"#utility.yul\":14880:14886   */\n      dup7\n        /* \"#utility.yul\":14876:14893   */\n      add\n        /* \"#utility.yul\":14803:14907   */\n      tag_395\n      jump\t// in\n    tag_611:\n        /* \"#utility.yul\":14794:14907   */\n      swap2\n      pop\n        /* \"#utility.yul\":14610:14913   */\n      pop\n        /* \"#utility.yul\":14523:14913   */\n      swap3\n      swap2\n      pop\n      pop\n      jump\t// out\n        /* \"#utility.yul\":14951:16776   */\n    tag_397:\n        /* \"#utility.yul\":15025:15030   */\n      0x00\n        /* \"#utility.yul\":15069:15073   */\n      0xc0\n        /* \"#utility.yul\":15057:15066   */\n      dup3\n        /* \"#utility.yul\":15052:15055   */\n      dup5\n        /* \"#utility.yul\":15048:15067   */\n      sub\n        /* \"#utility.yul\":15044:15074   */\n      slt\n        /* \"#utility.yul\":15041:15158   */\n      iszero\n      tag_613\n      jumpi\n        /* \"#utility.yul\":15077:15156   */\n      tag_614\n      tag_387\n      jump\t// in\n    tag_614:\n        /* \"#utility.yul\":15041:15158   */\n    tag_613:\n        /* \"#utility.yul\":15176:15197   */\n      tag_615\n        /* \"#utility.yul\":15192:15196   */\n      0xc0\n        /* \"#utility.yul\":15176:15197   */\n      tag_359\n      jump\t// in\n    tag_615:\n        /* \"#utility.yul\":15167:15197   */\n      swap1\n      pop\n        /* \"#utility.yul\":15264:15265   */\n      0x00\n        /* \"#utility.yul\":15304:15366   */\n      tag_616\n        /* \"#utility.yul\":15362:15365   */\n      dup5\n        /* \"#utility.yul\":15353:15359   */\n      dup3\n        /* \"#utility.yul\":15342:15351   */\n      dup6\n        /* \"#utility.yul\":15338:15360   */\n      add\n        /* \"#utility.yul\":15304:15366   */\n      tag_379\n      jump\t// in\n    tag_616:\n        /* \"#utility.yul\":15297:15301   */\n      0x00\n        /* \"#utility.yul\":15290:15295   */\n      dup4\n        /* \"#utility.yul\":15286:15302   */\n      add\n        /* \"#utility.yul\":15279:15367   */\n      mstore\n        /* \"#utility.yul\":15207:15378   */\n      pop\n        /* \"#utility.yul\":15448:15450   */\n      0x20\n        /* \"#utility.yul\":15489:15551   */\n      tag_617\n        /* \"#utility.yul\":15547:15550   */\n      dup5\n        /* \"#utility.yul\":15538:15544   */\n      dup3\n        /* \"#utility.yul\":15527:15536   */\n      dup6\n        /* \"#utility.yul\":15523:15545   */\n      add\n        /* \"#utility.yul\":15489:15551   */\n      tag_379\n      jump\t// in\n    tag_617:\n        /* \"#utility.yul\":15482:15486   */\n      0x20\n        /* \"#utility.yul\":15475:15480   */\n      dup4\n        /* \"#utility.yul\":15471:15487   */\n      add\n        /* \"#utility.yul\":15464:15552   */\n      mstore\n        /* \"#utility.yul\":15388:15563   */\n      pop\n        /* \"#utility.yul\":15626:15628   */\n      0x40\n        /* \"#utility.yul\":15667:15733   */\n      tag_618\n        /* \"#utility.yul\":15729:15732   */\n      dup5\n        /* \"#utility.yul\":15720:15726   */\n      dup3\n        /* \"#utility.yul\":15709:15718   */\n      dup6\n        /* \"#utility.yul\":15705:15727   */\n      add\n        /* \"#utility.yul\":15667:15733   */\n      tag_390\n      jump\t// in\n    tag_618:\n        /* \"#utility.yul\":15660:15664   */\n      0x40\n        /* \"#utility.yul\":15653:15658   */\n      dup4\n        /* \"#utility.yul\":15649:15665   */\n      add\n        /* \"#utility.yul\":15642:15734   */\n      mstore\n        /* \"#utility.yul\":15573:15745   */\n      pop\n        /* \"#utility.yul\":15834:15836   */\n      0x60\n        /* \"#utility.yul\":15823:15832   */\n      dup3\n        /* \"#utility.yul\":15819:15837   */\n      add\n        /* \"#utility.yul\":15806:15838   */\n      calldataload\n        /* \"#utility.yul\":15865:15883   */\n      0xffffffffffffffff\n        /* \"#utility.yul\":15857:15863   */\n      dup2\n        /* \"#utility.yul\":15854:15884   */\n      gt\n        /* \"#utility.yul\":15851:15968   */\n      iszero\n      tag_619\n      jumpi\n        /* \"#utility.yul\":15887:15966   */\n      tag_620\n      tag_388\n      jump\t// in\n    tag_620:\n        /* \"#utility.yul\":15851:15968   */\n    tag_619:\n        /* \"#utility.yul\":16007:16066   */\n      tag_621\n        /* \"#utility.yul\":16062:16065   */\n      dup5\n        /* \"#utility.yul\":16053:16059   */\n      dup3\n        /* \"#utility.yul\":16042:16051   */\n      dup6\n        /* \"#utility.yul\":16038:16060   */\n      add\n        /* \"#utility.yul\":16007:16066   */\n      tag_393\n      jump\t// in\n    tag_621:\n        /* \"#utility.yul\":16000:16004   */\n      0x60\n        /* \"#utility.yul\":15993:15998   */\n      dup4\n        /* \"#utility.yul\":15989:16005   */\n      add\n        /* \"#utility.yul\":15982:16067   */\n      mstore\n        /* \"#utility.yul\":15755:16078   */\n      pop\n        /* \"#utility.yul\":16168:16171   */\n      0x80\n        /* \"#utility.yul\":16157:16166   */\n      dup3\n        /* \"#utility.yul\":16153:16172   */\n      add\n        /* \"#utility.yul\":16140:16173   */\n      calldataload\n        /* \"#utility.yul\":16200:16218   */\n      0xffffffffffffffff\n        /* \"#utility.yul\":16192:16198   */\n      dup2\n        /* \"#utility.yul\":16189:16219   */\n      gt\n        /* \"#utility.yul\":16186:16303   */\n      iszero\n      tag_622\n      jumpi\n        /* \"#utility.yul\":16222:16301   */\n      tag_623\n      tag_388\n      jump\t// in\n    tag_623:\n        /* \"#utility.yul\":16186:16303   */\n    tag_622:\n        /* \"#utility.yul\":16342:16400   */\n      tag_624\n        /* \"#utility.yul\":16396:16399   */\n      dup5\n        /* \"#utility.yul\":16387:16393   */\n      dup3\n        /* \"#utility.yul\":16376:16385   */\n      dup6\n        /* \"#utility.yul\":16372:16394   */\n      add\n        /* \"#utility.yul\":16342:16400   */\n      tag_363\n      jump\t// in\n    tag_624:\n        /* \"#utility.yul\":16335:16339   */\n      0x80\n        /* \"#utility.yul\":16328:16333   */\n      dup4\n        /* \"#utility.yul\":16324:16340   */\n      add\n        /* \"#utility.yul\":16317:16401   */\n      mstore\n        /* \"#utility.yul\":16088:16412   */\n      pop\n        /* \"#utility.yul\":16499:16502   */\n      0xa0\n        /* \"#utility.yul\":16488:16497   */\n      dup3\n        /* \"#utility.yul\":16484:16503   */\n      add\n        /* \"#utility.yul\":16471:16504   */\n      calldataload\n        /* \"#utility.yul\":16531:16549   */\n      0xffffffffffffffff\n        /* \"#utility.yul\":16523:16529   */\n      dup2\n        /* \"#utility.yul\":16520:16550   */\n      gt\n        /* \"#utility.yul\":16517:16634   */\n      iszero\n      tag_625\n      jumpi\n        /* \"#utility.yul\":16553:16632   */\n      tag_626\n      tag_388\n      jump\t// in\n    tag_626:\n        /* \"#utility.yul\":16517:16634   */\n    tag_625:\n        /* \"#utility.yul\":16673:16757   */\n      tag_627\n        /* \"#utility.yul\":16753:16756   */\n      dup5\n        /* \"#utility.yul\":16744:16750   */\n      dup3\n        /* \"#utility.yul\":16733:16742   */\n      dup6\n        /* \"#utility.yul\":16729:16751   */\n      add\n        /* \"#utility.yul\":16673:16757   */\n      tag_396\n      jump\t// in\n    tag_627:\n        /* \"#utility.yul\":16666:16670   */\n      0xa0\n        /* \"#utility.yul\":16659:16664   */\n      dup4\n        /* \"#utility.yul\":16655:16671   */\n      add\n        /* \"#utility.yul\":16648:16758   */\n      mstore\n        /* \"#utility.yul\":16422:16769   */\n      pop\n        /* \"#utility.yul\":14951:16776   */\n      swap3\n      swap2\n      pop\n      pop\n      jump\t// out\n        /* \"#utility.yul\":16782:16859   */\n    tag_398:\n        /* \"#utility.yul\":16819:16826   */\n      0x00\n        /* \"#utility.yul\":16848:16853   */\n      dup2\n        /* \"#utility.yul\":16837:16853   */\n      swap1\n      pop\n        /* \"#utility.yul\":16782:16859   */\n      swap2\n      swap1\n      pop\n      jump\t// out\n        /* \"#utility.yul\":16865:16987   */\n    tag_399:\n        /* \"#utility.yul\":16938:16962   */\n      tag_630\n        /* \"#utility.yul\":16956:16961   */\n      dup2\n        /* \"#utility.yul\":16938:16962   */\n      tag_398\n      jump\t// in\n    tag_630:\n        /* \"#utility.yul\":16931:16936   */\n      dup2\n        /* \"#utility.yul\":16928:16963   */\n      eq\n        /* \"#utility.yul\":16918:16981   */\n      tag_631\n      jumpi\n        /* \"#utility.yul\":16977:16978   */\n      0x00\n        /* \"#utility.yul\":16974:16975   */\n      dup1\n        /* \"#utility.yul\":16967:16979   */\n      revert\n        /* \"#utility.yul\":16918:16981   */\n    tag_631:\n        /* \"#utility.yul\":16865:16987   */\n      pop\n      jump\t// out\n        /* \"#utility.yul\":16993:17132   */\n    tag_400:\n        /* \"#utility.yul\":17039:17044   */\n      0x00\n        /* \"#utility.yul\":17077:17083   */\n      dup2\n        /* \"#utility.yul\":17064:17084   */\n      calldataload\n        /* \"#utility.yul\":17055:17084   */\n      swap1\n      pop\n        /* \"#utility.yul\":17093:17126   */\n      tag_633\n        /* \"#utility.yul\":17120:17125   */\n      dup2\n        /* \"#utility.yul\":17093:17126   */\n      tag_399\n      jump\t// in\n    tag_633:\n        /* \"#utility.yul\":16993:17132   */\n      swap3\n      swap2\n      pop\n      pop\n      jump\t// out\n        /* \"#utility.yul\":17138:18109   */\n    tag_48:\n        /* \"#utility.yul\":17247:17253   */\n      0x00\n        /* \"#utility.yul\":17255:17261   */\n      dup1\n        /* \"#utility.yul\":17263:17269   */\n      0x00\n        /* \"#utility.yul\":17271:17277   */\n      dup1\n        /* \"#utility.yul\":17320:17323   */\n      0x80\n        /* \"#utility.yul\":17308:17317   */\n      dup6\n        /* \"#utility.yul\":17299:17306   */\n      dup8\n        /* \"#utility.yul\":17295:17318   */\n      sub\n        /* \"#utility.yul\":17291:17324   */\n      slt\n        /* \"#utility.yul\":17288:17408   */\n      iszero\n      tag_635\n      jumpi\n        /* \"#utility.yul\":17327:17406   */\n      tag_636\n      tag_349\n      jump\t// in\n    tag_636:\n        /* \"#utility.yul\":17288:17408   */\n    tag_635:\n        /* \"#utility.yul\":17475:17476   */\n      0x00\n        /* \"#utility.yul\":17464:17473   */\n      dup6\n        /* \"#utility.yul\":17460:17477   */\n      add\n        /* \"#utility.yul\":17447:17478   */\n      calldataload\n        /* \"#utility.yul\":17505:17523   */\n      0xffffffffffffffff\n        /* \"#utility.yul\":17497:17503   */\n      dup2\n        /* \"#utility.yul\":17494:17524   */\n      gt\n        /* \"#utility.yul\":17491:17608   */\n      iszero\n      tag_637\n      jumpi\n        /* \"#utility.yul\":17527:17606   */\n      tag_638\n      tag_350\n      jump\t// in\n    tag_638:\n        /* \"#utility.yul\":17491:17608   */\n    tag_637:\n        /* \"#utility.yul\":17632:17710   */\n      tag_639\n        /* \"#utility.yul\":17702:17709   */\n      dup8\n        /* \"#utility.yul\":17693:17699   */\n      dup3\n        /* \"#utility.yul\":17682:17691   */\n      dup9\n        /* \"#utility.yul\":17678:17700   */\n      add\n        /* \"#utility.yul\":17632:17710   */\n      tag_397\n      jump\t// in\n    tag_639:\n        /* \"#utility.yul\":17622:17710   */\n      swap5\n      pop\n        /* \"#utility.yul\":17418:17720   */\n      pop\n        /* \"#utility.yul\":17759:17761   */\n      0x20\n        /* \"#utility.yul\":17785:17837   */\n      tag_640\n        /* \"#utility.yul\":17829:17836   */\n      dup8\n        /* \"#utility.yul\":17820:17826   */\n      dup3\n        /* \"#utility.yul\":17809:17818   */\n      dup9\n        /* \"#utility.yul\":17805:17827   */\n      add\n        /* \"#utility.yul\":17785:17837   */\n      tag_383\n      jump\t// in\n    tag_640:\n        /* \"#utility.yul\":17775:17837   */\n      swap4\n      pop\n        /* \"#utility.yul\":17730:17847   */\n      pop\n        /* \"#utility.yul\":17886:17888   */\n      0x40\n        /* \"#utility.yul\":17912:17964   */\n      tag_641\n        /* \"#utility.yul\":17956:17963   */\n      dup8\n        /* \"#utility.yul\":17947:17953   */\n      dup3\n        /* \"#utility.yul\":17936:17945   */\n      dup9\n        /* \"#utility.yul\":17932:17954   */\n      add\n        /* \"#utility.yul\":17912:17964   */\n      tag_386\n      jump\t// in\n    tag_641:\n        /* \"#utility.yul\":17902:17964   */\n      swap3\n      pop\n        /* \"#utility.yul\":17857:17974   */\n      pop\n        /* \"#utility.yul\":18013:18015   */\n      0x60\n        /* \"#utility.yul\":18039:18092   */\n      tag_642\n        /* \"#utility.yul\":18084:18091   */\n      dup8\n        /* \"#utility.yul\":18075:18081   */\n      dup3\n        /* \"#utility.yul\":18064:18073   */\n      dup9\n        /* \"#utility.yul\":18060:18082   */\n      add\n        /* \"#utility.yul\":18039:18092   */\n      tag_400\n      jump\t// in\n    tag_642:\n        /* \"#utility.yul\":18029:18092   */\n      swap2\n      pop\n        /* \"#utility.yul\":17984:18102   */\n      pop\n        /* \"#utility.yul\":17138:18109   */\n      swap3\n      swap6\n      swap2\n      swap5\n      pop\n      swap3\n      pop\n      jump\t// out\n        /* \"#utility.yul\":18115:18224   */\n    tag_401:\n        /* \"#utility.yul\":18151:18158   */\n      0x00\n        /* \"#utility.yul\":18191:18217   */\n      0xffffffffffffffffffffffff\n        /* \"#utility.yul\":18184:18189   */\n      dup3\n        /* \"#utility.yul\":18180:18218   */\n      and\n        /* \"#utility.yul\":18169:18218   */\n      swap1\n      pop\n        /* \"#utility.yul\":18115:18224   */\n      swap2\n      swap1\n      pop\n      jump\t// out\n        /* \"#utility.yul\":18230:18345   */\n    tag_402:\n        /* \"#utility.yul\":18315:18338   */\n      tag_645\n        /* \"#utility.yul\":18332:18337   */\n      dup2\n        /* \"#utility.yul\":18315:18338   */\n      tag_401\n      jump\t// in\n    tag_645:\n        /* \"#utility.yul\":18310:18313   */\n      dup3\n        /* \"#utility.yul\":18303:18339   */\n      mstore\n        /* \"#utility.yul\":18230:18345   */\n      pop\n      pop\n      jump\t// out\n        /* \"#utility.yul\":18351:18569   */\n    tag_51:\n        /* \"#utility.yul\":18442:18446   */\n      0x00\n        /* \"#utility.yul\":18480:18482   */\n      0x20\n        /* \"#utility.yul\":18469:18478   */\n      dup3\n        /* \"#utility.yul\":18465:18483   */\n      add\n        /* \"#utility.yul\":18457:18483   */\n      swap1\n      pop\n        /* \"#utility.yul\":18493:18562   */\n      tag_647\n        /* \"#utility.yul\":18559:18560   */\n      0x00\n        /* \"#utility.yul\":18548:18557   */\n      dup4\n        /* \"#utility.yul\":18544:18561   */\n      add\n        /* \"#utility.yul\":18535:18541   */\n      dup5\n        /* \"#utility.yul\":18493:18562   */\n      tag_402\n      jump\t// in\n    tag_647:\n        /* \"#utility.yul\":18351:18569   */\n      swap3\n      swap2\n      pop\n      pop\n      jump\t// out\n        /* \"#utility.yul\":18575:18904   */\n    tag_54:\n        /* \"#utility.yul\":18634:18640   */\n      0x00\n        /* \"#utility.yul\":18683:18685   */\n      0x20\n        /* \"#utility.yul\":18671:18680   */\n      dup3\n        /* \"#utility.yul\":18662:18669   */\n      dup5\n        /* \"#utility.yul\":18658:18681   */\n      sub\n        /* \"#utility.yul\":18654:18686   */\n      slt\n        /* \"#utility.yul\":18651:18770   */\n      iszero\n      tag_649\n      jumpi\n        /* \"#utility.yul\":18689:18768   */\n      tag_650\n      tag_349\n      jump\t// in\n    tag_650:\n        /* \"#utility.yul\":18651:18770   */\n    tag_649:\n        /* \"#utility.yul\":18809:18810   */\n      0x00\n        /* \"#utility.yul\":18834:18887   */\n      tag_651\n        /* \"#utility.yul\":18879:18886   */\n      dup5\n        /* \"#utility.yul\":18870:18876   */\n      dup3\n        /* \"#utility.yul\":18859:18868   */\n      dup6\n        /* \"#utility.yul\":18855:18877   */\n      add\n        /* \"#utility.yul\":18834:18887   */\n      tag_368\n      jump\t// in\n    tag_651:\n        /* \"#utility.yul\":18824:18887   */\n      swap2\n      pop\n        /* \"#utility.yul\":18780:18897   */\n      pop\n        /* \"#utility.yul\":18575:18904   */\n      swap3\n      swap2\n      pop\n      pop\n      jump\t// out\n        /* \"#utility.yul\":18910:19079   */\n    tag_403:\n        /* \"#utility.yul\":18994:19005   */\n      0x00\n        /* \"#utility.yul\":19028:19034   */\n      dup3\n        /* \"#utility.yul\":19023:19026   */\n      dup3\n        /* \"#utility.yul\":19016:19035   */\n      mstore\n        /* \"#utility.yul\":19068:19072   */\n      0x20\n        /* \"#utility.yul\":19063:19066   */\n      dup3\n        /* \"#utility.yul\":19059:19073   */\n      add\n        /* \"#utility.yul\":19044:19073   */\n      swap1\n      pop\n        /* \"#utility.yul\":18910:19079   */\n      swap3\n      swap2\n      pop\n      pop\n      jump\t// out\n        /* \"#utility.yul\":19085:19257   */\n    tag_404:\n        /* \"#utility.yul\":19225:19249   */\n      0x4d7573742062652070726f706f736564206f776e657200000000000000000000\n        /* \"#utility.yul\":19221:19222   */\n      0x00\n        /* \"#utility.yul\":19213:19219   */\n      dup3\n        /* \"#utility.yul\":19209:19223   */\n      add\n        /* \"#utility.yul\":19202:19250   */\n      mstore\n        /* \"#utility.yul\":19085:19257   */\n      pop\n      jump\t// out\n        /* \"#utility.yul\":19263:19629   */\n    tag_405:\n        /* \"#utility.yul\":19405:19408   */\n      0x00\n        /* \"#utility.yul\":19426:19493   */\n      tag_655\n        /* \"#utility.yul\":19490:19492   */\n      0x16\n        /* \"#utility.yul\":19485:19488   */\n      dup4\n        /* \"#utility.yul\":19426:19493   */\n      tag_403\n      jump\t// in\n    tag_655:\n        /* \"#utility.yul\":19419:19493   */\n      swap2\n      pop\n        /* \"#utility.yul\":19502:19595   */\n      tag_656\n        /* \"#utility.yul\":19591:19594   */\n      dup3\n        /* \"#utility.yul\":19502:19595   */\n      tag_404\n      jump\t// in\n    tag_656:\n        /* \"#utility.yul\":19620:19622   */\n      0x20\n        /* \"#utility.yul\":19615:19618   */\n      dup3\n        /* \"#utility.yul\":19611:19623   */\n      add\n        /* \"#utility.yul\":19604:19623   */\n      swap1\n      pop\n        /* \"#utility.yul\":19263:19629   */\n      swap2\n      swap1\n      pop\n      jump\t// out\n        /* \"#utility.yul\":19635:20054   */\n    tag_76:\n        /* \"#utility.yul\":19801:19805   */\n      0x00\n        /* \"#utility.yul\":19839:19841   */\n      0x20\n        /* \"#utility.yul\":19828:19837   */\n      dup3\n        /* \"#utility.yul\":19824:19842   */\n      add\n        /* \"#utility.yul\":19816:19842   */\n      swap1\n      pop\n        /* \"#utility.yul\":19888:19897   */\n      dup2\n        /* \"#utility.yul\":19882:19886   */\n      dup2\n        /* \"#utility.yul\":19878:19898   */\n      sub\n        /* \"#utility.yul\":19874:19875   */\n      0x00\n        /* \"#utility.yul\":19863:19872   */\n      dup4\n        /* \"#utility.yul\":19859:19876   */\n      add\n        /* \"#utility.yul\":19852:19899   */\n      mstore\n        /* \"#utility.yul\":19916:20047   */\n      tag_658\n        /* \"#utility.yul\":20042:20046   */\n      dup2\n        /* \"#utility.yul\":19916:20047   */\n      tag_405\n      jump\t// in\n    tag_658:\n        /* \"#utility.yul\":19908:20047   */\n      swap1\n      pop\n        /* \"#utility.yul\":19635:20054   */\n      swap2\n      swap1\n      pop\n      jump\t// out\n        /* \"#utility.yul\":20060:20240   */\n    tag_406:\n        /* \"#utility.yul\":20108:20185   */\n      0x4e487b7100000000000000000000000000000000000000000000000000000000\n        /* \"#utility.yul\":20105:20106   */\n      0x00\n        /* \"#utility.yul\":20098:20186   */\n      mstore\n        /* \"#utility.yul\":20205:20209   */\n      0x22\n        /* \"#utility.yul\":20202:20203   */\n      0x04\n        /* \"#utility.yul\":20195:20210   */\n      mstore\n        /* \"#utility.yul\":20229:20233   */\n      0x24\n        /* \"#utility.yul\":20226:20227   */\n      0x00\n        /* \"#utility.yul\":20219:20234   */\n      revert\n        /* \"#utility.yul\":20246:20566   */\n    tag_79:\n        /* \"#utility.yul\":20290:20296   */\n      0x00\n        /* \"#utility.yul\":20327:20328   */\n      0x02\n        /* \"#utility.yul\":20321:20325   */\n      dup3\n        /* \"#utility.yul\":20317:20329   */\n      div\n        /* \"#utility.yul\":20307:20329   */\n      swap1\n      pop\n        /* \"#utility.yul\":20374:20375   */\n      0x01\n        /* \"#utility.yul\":20368:20372   */\n      dup3\n        /* \"#utility.yul\":20364:20376   */\n      and\n        /* \"#utility.yul\":20395:20413   */\n      dup1\n        /* \"#utility.yul\":20385:20466   */\n      tag_661\n      jumpi\n        /* \"#utility.yul\":20451:20455   */\n      0x7f\n        /* \"#utility.yul\":20443:20449   */\n      dup3\n        /* \"#utility.yul\":20439:20456   */\n      and\n        /* \"#utility.yul\":20429:20456   */\n      swap2\n      pop\n        /* \"#utility.yul\":20385:20466   */\n    tag_661:\n        /* \"#utility.yul\":20513:20515   */\n      0x20\n        /* \"#utility.yul\":20505:20511   */\n      dup3\n        /* \"#utility.yul\":20502:20516   */\n      lt\n        /* \"#utility.yul\":20482:20500   */\n      dup2\n        /* \"#utility.yul\":20479:20517   */\n      sub\n        /* \"#utility.yul\":20476:20560   */\n      tag_662\n      jumpi\n        /* \"#utility.yul\":20532:20550   */\n      tag_663\n      tag_406\n      jump\t// in\n    tag_663:\n        /* \"#utility.yul\":20476:20560   */\n    tag_662:\n        /* \"#utility.yul\":20297:20566   */\n      pop\n        /* \"#utility.yul\":20246:20566   */\n      swap2\n      swap1\n      pop\n      jump\t// out\n        /* \"#utility.yul\":20572:20752   */\n    tag_94:\n        /* \"#utility.yul\":20620:20697   */\n      0x4e487b7100000000000000000000000000000000000000000000000000000000\n        /* \"#utility.yul\":20617:20618   */\n      0x00\n        /* \"#utility.yul\":20610:20698   */\n      mstore\n        /* \"#utility.yul\":20717:20721   */\n      0x21\n        /* \"#utility.yul\":20714:20715   */\n      0x04\n        /* \"#utility.yul\":20707:20722   */\n      mstore\n        /* \"#utility.yul\":20741:20745   */\n      0x24\n        /* \"#utility.yul\":20738:20739   */\n      0x00\n        /* \"#utility.yul\":20731:20746   */\n      revert\n        /* \"#utility.yul\":20758:21105   */\n    tag_106:\n        /* \"#utility.yul\":20896:20905   */\n      0x00\n        /* \"#utility.yul\":20995:21098   */\n      tag_666\n        /* \"#utility.yul\":21083:21097   */\n      calldatasize\n        /* \"#utility.yul\":21075:21081   */\n      dup5\n        /* \"#utility.yul\":21068:21073   */\n      dup5\n        /* \"#utility.yul\":20995:21098   */\n      tag_395\n      jump\t// in\n    tag_666:\n        /* \"#utility.yul\":20973:21098   */\n      swap1\n      pop\n        /* \"#utility.yul\":20758:21105   */\n      swap3\n      swap2\n      pop\n      pop\n      jump\t// out\n        /* \"#utility.yul\":21111:21543   */\n    tag_407:\n        /* \"#utility.yul\":21199:21204   */\n      0x00\n        /* \"#utility.yul\":21224:21289   */\n      tag_668\n        /* \"#utility.yul\":21240:21288   */\n      tag_669\n        /* \"#utility.yul\":21281:21287   */\n      dup5\n        /* \"#utility.yul\":21240:21288   */\n      tag_360\n      jump\t// in\n    tag_669:\n        /* \"#utility.yul\":21224:21289   */\n      tag_359\n      jump\t// in\n    tag_668:\n        /* \"#utility.yul\":21215:21289   */\n      swap1\n      pop\n        /* \"#utility.yul\":21312:21318   */\n      dup3\n        /* \"#utility.yul\":21305:21310   */\n      dup2\n        /* \"#utility.yul\":21298:21319   */\n      mstore\n        /* \"#utility.yul\":21350:21354   */\n      0x20\n        /* \"#utility.yul\":21343:21348   */\n      dup2\n        /* \"#utility.yul\":21339:21355   */\n      add\n        /* \"#utility.yul\":21388:21391   */\n      dup5\n        /* \"#utility.yul\":21379:21385   */\n      dup5\n        /* \"#utility.yul\":21374:21377   */\n      dup5\n        /* \"#utility.yul\":21370:21386   */\n      add\n        /* \"#utility.yul\":21367:21392   */\n      gt\n        /* \"#utility.yul\":21364:21476   */\n      iszero\n      tag_670\n      jumpi\n        /* \"#utility.yul\":21395:21474   */\n      tag_671\n      tag_355\n      jump\t// in\n    tag_671:\n        /* \"#utility.yul\":21364:21476   */\n    tag_670:\n        /* \"#utility.yul\":21485:21537   */\n      tag_672\n        /* \"#utility.yul\":21530:21536   */\n      dup5\n        /* \"#utility.yul\":21525:21528   */\n      dup3\n        /* \"#utility.yul\":21520:21523   */\n      dup6\n        /* \"#utility.yul\":21485:21537   */\n      tag_372\n      jump\t// in\n    tag_672:\n        /* \"#utility.yul\":21205:21543   */\n      pop\n        /* \"#utility.yul\":21111:21543   */\n      swap4\n      swap3\n      pop\n      pop\n      pop\n      jump\t// out\n        /* \"#utility.yul\":21562:21915   */\n    tag_408:\n        /* \"#utility.yul\":21628:21633   */\n      0x00\n        /* \"#utility.yul\":21677:21680   */\n      dup3\n        /* \"#utility.yul\":21670:21674   */\n      0x1f\n        /* \"#utility.yul\":21662:21668   */\n      dup4\n        /* \"#utility.yul\":21658:21675   */\n      add\n        /* \"#utility.yul\":21654:21681   */\n      slt\n        /* \"#utility.yul\":21644:21766   */\n      tag_674\n      jumpi\n        /* \"#utility.yul\":21685:21764   */\n      tag_675\n      tag_354\n      jump\t// in\n    tag_675:\n        /* \"#utility.yul\":21644:21766   */\n    tag_674:\n        /* \"#utility.yul\":21795:21801   */\n      dup2\n        /* \"#utility.yul\":21789:21802   */\n      mload\n        /* \"#utility.yul\":21820:21909   */\n      tag_676\n        /* \"#utility.yul\":21905:21908   */\n      dup5\n        /* \"#utility.yul\":21897:21903   */\n      dup3\n        /* \"#utility.yul\":21890:21894   */\n      0x20\n        /* \"#utility.yul\":21882:21888   */\n      dup7\n        /* \"#utility.yul\":21878:21895   */\n      add\n        /* \"#utility.yul\":21820:21909   */\n      tag_407\n      jump\t// in\n    tag_676:\n        /* \"#utility.yul\":21811:21909   */\n      swap2\n      pop\n        /* \"#utility.yul\":21634:21915   */\n      pop\n        /* \"#utility.yul\":21562:21915   */\n      swap3\n      swap2\n      pop\n      pop\n      jump\t// out\n        /* \"#utility.yul\":21921:22443   */\n    tag_114:\n        /* \"#utility.yul\":22000:22006   */\n      0x00\n        /* \"#utility.yul\":22049:22051   */\n      0x20\n        /* \"#utility.yul\":22037:22046   */\n      dup3\n        /* \"#utility.yul\":22028:22035   */\n      dup5\n        /* \"#utility.yul\":22024:22047   */\n      sub\n        /* \"#utility.yul\":22020:22052   */\n      slt\n        /* \"#utility.yul\":22017:22136   */\n      iszero\n      tag_678\n      jumpi\n        /* \"#utility.yul\":22055:22134   */\n      tag_679\n      tag_349\n      jump\t// in\n    tag_679:\n        /* \"#utility.yul\":22017:22136   */\n    tag_678:\n        /* \"#utility.yul\":22196:22197   */\n      0x00\n        /* \"#utility.yul\":22185:22194   */\n      dup3\n        /* \"#utility.yul\":22181:22198   */\n      add\n        /* \"#utility.yul\":22175:22199   */\n      mload\n        /* \"#utility.yul\":22226:22244   */\n      0xffffffffffffffff\n        /* \"#utility.yul\":22218:22224   */\n      dup2\n        /* \"#utility.yul\":22215:22245   */\n      gt\n        /* \"#utility.yul\":22212:22329   */\n      iszero\n      tag_680\n      jumpi\n        /* \"#utility.yul\":22248:22327   */\n      tag_681\n      tag_350\n      jump\t// in\n    tag_681:\n        /* \"#utility.yul\":22212:22329   */\n    tag_680:\n        /* \"#utility.yul\":22353:22426   */\n      tag_682\n        /* \"#utility.yul\":22418:22425   */\n      dup5\n        /* \"#utility.yul\":22409:22415   */\n      dup3\n        /* \"#utility.yul\":22398:22407   */\n      dup6\n        /* \"#utility.yul\":22394:22416   */\n      add\n        /* \"#utility.yul\":22353:22426   */\n      tag_408\n      jump\t// in\n    tag_682:\n        /* \"#utility.yul\":22343:22426   */\n      swap2\n      pop\n        /* \"#utility.yul\":22146:22436   */\n      pop\n        /* \"#utility.yul\":21921:22443   */\n      swap3\n      swap2\n      pop\n      pop\n      jump\t// out\n        /* \"#utility.yul\":22449:22564   */\n    tag_409:\n        /* \"#utility.yul\":22534:22557   */\n      tag_684\n        /* \"#utility.yul\":22551:22556   */\n      dup2\n        /* \"#utility.yul\":22534:22557   */\n      tag_381\n      jump\t// in\n    tag_684:\n        /* \"#utility.yul\":22529:22532   */\n      dup3\n        /* \"#utility.yul\":22522:22558   */\n      mstore\n        /* \"#utility.yul\":22449:22564   */\n      pop\n      pop\n      jump\t// out\n        /* \"#utility.yul\":22570:22685   */\n    tag_410:\n        /* \"#utility.yul\":22655:22678   */\n      tag_686\n        /* \"#utility.yul\":22672:22677   */\n      dup2\n        /* \"#utility.yul\":22655:22678   */\n      tag_384\n      jump\t// in\n    tag_686:\n        /* \"#utility.yul\":22650:22653   */\n      dup3\n        /* \"#utility.yul\":22643:22679   */\n      mstore\n        /* \"#utility.yul\":22570:22685   */\n      pop\n      pop\n      jump\t// out\n        /* \"#utility.yul\":22691:22809   */\n    tag_411:\n        /* \"#utility.yul\":22778:22802   */\n      tag_688\n        /* \"#utility.yul\":22796:22801   */\n      dup2\n        /* \"#utility.yul\":22778:22802   */\n      tag_398\n      jump\t// in\n    tag_688:\n        /* \"#utility.yul\":22773:22776   */\n      dup3\n        /* \"#utility.yul\":22766:22803   */\n      mstore\n        /* \"#utility.yul\":22691:22809   */\n      pop\n      pop\n      jump\t// out\n        /* \"#utility.yul\":22815:23447   */\n    tag_119:\n        /* \"#utility.yul\":23006:23010   */\n      0x00\n        /* \"#utility.yul\":23044:23047   */\n      0x80\n        /* \"#utility.yul\":23033:23042   */\n      dup3\n        /* \"#utility.yul\":23029:23048   */\n      add\n        /* \"#utility.yul\":23021:23048   */\n      swap1\n      pop\n        /* \"#utility.yul\":23058:23127   */\n      tag_690\n        /* \"#utility.yul\":23124:23125   */\n      0x00\n        /* \"#utility.yul\":23113:23122   */\n      dup4\n        /* \"#utility.yul\":23109:23126   */\n      add\n        /* \"#utility.yul\":23100:23106   */\n      dup8\n        /* \"#utility.yul\":23058:23127   */\n      tag_409\n      jump\t// in\n    tag_690:\n        /* \"#utility.yul\":23174:23183   */\n      dup2\n        /* \"#utility.yul\":23168:23172   */\n      dup2\n        /* \"#utility.yul\":23164:23184   */\n      sub\n        /* \"#utility.yul\":23159:23161   */\n      0x20\n        /* \"#utility.yul\":23148:23157   */\n      dup4\n        /* \"#utility.yul\":23144:23162   */\n      add\n        /* \"#utility.yul\":23137:23185   */\n      mstore\n        /* \"#utility.yul\":23202:23278   */\n      tag_691\n        /* \"#utility.yul\":23273:23277   */\n      dup2\n        /* \"#utility.yul\":23264:23270   */\n      dup7\n        /* \"#utility.yul\":23202:23278   */\n      tag_373\n      jump\t// in\n    tag_691:\n        /* \"#utility.yul\":23194:23278   */\n      swap1\n      pop\n        /* \"#utility.yul\":23288:23358   */\n      tag_692\n        /* \"#utility.yul\":23354:23356   */\n      0x40\n        /* \"#utility.yul\":23343:23352   */\n      dup4\n        /* \"#utility.yul\":23339:23357   */\n      add\n        /* \"#utility.yul\":23330:23336   */\n      dup6\n        /* \"#utility.yul\":23288:23358   */\n      tag_410\n      jump\t// in\n    tag_692:\n        /* \"#utility.yul\":23368:23440   */\n      tag_693\n        /* \"#utility.yul\":23436:23438   */\n      0x60\n        /* \"#utility.yul\":23425:23434   */\n      dup4\n        /* \"#utility.yul\":23421:23439   */\n      add\n        /* \"#utility.yul\":23412:23418   */\n      dup5\n        /* \"#utility.yul\":23368:23440   */\n      tag_411\n      jump\t// in\n    tag_693:\n        /* \"#utility.yul\":22815:23447   */\n      swap6\n      swap5\n      pop\n      pop\n      pop\n      pop\n      pop\n      jump\t// out\n        /* \"#utility.yul\":23453:23573   */\n    tag_412:\n        /* \"#utility.yul\":23525:23548   */\n      tag_695\n        /* \"#utility.yul\":23542:23547   */\n      dup2\n        /* \"#utility.yul\":23525:23548   */\n      tag_401\n      jump\t// in\n    tag_695:\n        /* \"#utility.yul\":23518:23523   */\n      dup2\n        /* \"#utility.yul\":23515:23549   */\n      eq\n        /* \"#utility.yul\":23505:23567   */\n      tag_696\n      jumpi\n        /* \"#utility.yul\":23563:23564   */\n      0x00\n        /* \"#utility.yul\":23560:23561   */\n      dup1\n        /* \"#utility.yul\":23553:23565   */\n      revert\n        /* \"#utility.yul\":23505:23567   */\n    tag_696:\n        /* \"#utility.yul\":23453:23573   */\n      pop\n      jump\t// out\n        /* \"#utility.yul\":23579:23720   */\n    tag_413:\n        /* \"#utility.yul\":23635:23640   */\n      0x00\n        /* \"#utility.yul\":23666:23672   */\n      dup2\n        /* \"#utility.yul\":23660:23673   */\n      mload\n        /* \"#utility.yul\":23651:23673   */\n      swap1\n      pop\n        /* \"#utility.yul\":23682:23714   */\n      tag_698\n        /* \"#utility.yul\":23708:23713   */\n      dup2\n        /* \"#utility.yul\":23682:23714   */\n      tag_412\n      jump\t// in\n    tag_698:\n        /* \"#utility.yul\":23579:23720   */\n      swap3\n      swap2\n      pop\n      pop\n      jump\t// out\n        /* \"#utility.yul\":23726:24075   */\n    tag_123:\n        /* \"#utility.yul\":23795:23801   */\n      0x00\n        /* \"#utility.yul\":23844:23846   */\n      0x20\n        /* \"#utility.yul\":23832:23841   */\n      dup3\n        /* \"#utility.yul\":23823:23830   */\n      dup5\n        /* \"#utility.yul\":23819:23842   */\n      sub\n        /* \"#utility.yul\":23815:23847   */\n      slt\n        /* \"#utility.yul\":23812:23931   */\n      iszero\n      tag_700\n      jumpi\n        /* \"#utility.yul\":23850:23929   */\n      tag_701\n      tag_349\n      jump\t// in\n    tag_701:\n        /* \"#utility.yul\":23812:23931   */\n    tag_700:\n        /* \"#utility.yul\":23970:23971   */\n      0x00\n        /* \"#utility.yul\":23995:24058   */\n      tag_702\n        /* \"#utility.yul\":24050:24057   */\n      dup5\n        /* \"#utility.yul\":24041:24047   */\n      dup3\n        /* \"#utility.yul\":24030:24039   */\n      dup6\n        /* \"#utility.yul\":24026:24048   */\n      add\n        /* \"#utility.yul\":23995:24058   */\n      tag_413\n      jump\t// in\n    tag_702:\n        /* \"#utility.yul\":23985:24058   */\n      swap2\n      pop\n        /* \"#utility.yul\":23941:24068   */\n      pop\n        /* \"#utility.yul\":23726:24075   */\n      swap3\n      swap2\n      pop\n      pop\n      jump\t// out\n        /* \"#utility.yul\":24081:24221   */\n    tag_414:\n        /* \"#utility.yul\":24129:24133   */\n      0x00\n        /* \"#utility.yul\":24152:24155   */\n      dup2\n        /* \"#utility.yul\":24144:24155   */\n      swap1\n      pop\n        /* \"#utility.yul\":24175:24178   */\n      dup2\n        /* \"#utility.yul\":24172:24173   */\n      0x00\n        /* \"#utility.yul\":24165:24179   */\n      mstore\n        /* \"#utility.yul\":24209:24213   */\n      0x20\n        /* \"#utility.yul\":24206:24207   */\n      0x00\n        /* \"#utility.yul\":24196:24214   */\n      keccak256\n        /* \"#utility.yul\":24188:24214   */\n      swap1\n      pop\n        /* \"#utility.yul\":24081:24221   */\n      swap2\n      swap1\n      pop\n      jump\t// out\n        /* \"#utility.yul\":24227:24320   */\n    tag_415:\n        /* \"#utility.yul\":24264:24270   */\n      0x00\n        /* \"#utility.yul\":24311:24313   */\n      0x20\n        /* \"#utility.yul\":24306:24308   */\n      0x1f\n        /* \"#utility.yul\":24299:24304   */\n      dup4\n        /* \"#utility.yul\":24295:24309   */\n      add\n        /* \"#utility.yul\":24291:24314   */\n      div\n        /* \"#utility.yul\":24281:24314   */\n      swap1\n      pop\n        /* \"#utility.yul\":24227:24320   */\n      swap2\n      swap1\n      pop\n      jump\t// out\n        /* \"#utility.yul\":24326:24433   */\n    tag_416:\n        /* \"#utility.yul\":24370:24378   */\n      0x00\n        /* \"#utility.yul\":24420:24425   */\n      dup3\n        /* \"#utility.yul\":24414:24418   */\n      dup3\n        /* \"#utility.yul\":24410:24426   */\n      shl\n        /* \"#utility.yul\":24389:24426   */\n      swap1\n      pop\n        /* \"#utility.yul\":24326:24433   */\n      swap3\n      swap2\n      pop\n      pop\n      jump\t// out\n        /* \"#utility.yul\":24439:24832   */\n    tag_417:\n        /* \"#utility.yul\":24508:24514   */\n      0x00\n        /* \"#utility.yul\":24558:24559   */\n      0x08\n        /* \"#utility.yul\":24546:24556   */\n      dup4\n        /* \"#utility.yul\":24542:24560   */\n      mul\n        /* \"#utility.yul\":24581:24678   */\n      tag_707\n        /* \"#utility.yul\":24611:24677   */\n      0xffffffffffffffffffffffffffffffffffffffffffffffffffffffffffffffff\n        /* \"#utility.yul\":24600:24609   */\n      dup3\n        /* \"#utility.yul\":24581:24678   */\n      tag_416\n      jump\t// in\n    tag_707:\n        /* \"#utility.yul\":24699:24738   */\n      tag_708\n        /* \"#utility.yul\":24729:24737   */\n      dup7\n        /* \"#utility.yul\":24718:24727   */\n      dup4\n        /* \"#utility.yul\":24699:24738   */\n      tag_416\n      jump\t// in\n    tag_708:\n        /* \"#utility.yul\":24687:24738   */\n      swap6\n      pop\n        /* \"#utility.yul\":24771:24775   */\n      dup1\n        /* \"#utility.yul\":24767:24776   */\n      not\n        /* \"#utility.yul\":24760:24765   */\n      dup5\n        /* \"#utility.yul\":24756:24777   */\n      and\n        /* \"#utility.yul\":24747:24777   */\n      swap4\n      pop\n        /* \"#utility.yul\":24820:24824   */\n      dup1\n        /* \"#utility.yul\":24810:24818   */\n      dup7\n        /* \"#utility.yul\":24806:24825   */\n      and\n        /* \"#utility.yul\":24799:24804   */\n      dup5\n        /* \"#utility.yul\":24796:24826   */\n      or\n        /* \"#utility.yul\":24786:24826   */\n      swap3\n      pop\n        /* \"#utility.yul\":24515:24832   */\n      pop\n      pop\n        /* \"#utility.yul\":24439:24832   */\n      swap4\n      swap3\n      pop\n      pop\n      pop\n      jump\t// out\n        /* \"#utility.yul\":24838:24898   */\n    tag_418:\n        /* \"#utility.yul\":24866:24869   */\n      0x00\n        /* \"#utility.yul\":24887:24892   */\n      dup2\n        /* \"#utility.yul\":24880:24892   */\n      swap1\n      pop\n        /* \"#utility.yul\":24838:24898   */\n      swap2\n      swap1\n      pop\n      jump\t// out\n        /* \"#utility.yul\":24904:25046   */\n    tag_419:\n        /* \"#utility.yul\":24954:24963   */\n      0x00\n        /* \"#utility.yul\":24987:25040   */\n      tag_711\n        /* \"#utility.yul\":25005:25039   */\n      tag_712\n        /* \"#utility.yul\":25014:25038   */\n      tag_713\n        /* \"#utility.yul\":25032:25037   */\n      dup5\n        /* \"#utility.yul\":25014:25038   */\n      tag_398\n      jump\t// in\n    tag_713:\n        /* \"#utility.yul\":25005:25039   */\n      tag_418\n      jump\t// in\n    tag_712:\n        /* \"#utility.yul\":24987:25040   */\n      tag_398\n      jump\t// in\n    tag_711:\n        /* \"#utility.yul\":24974:25040   */\n      swap1\n      pop\n        /* \"#utility.yul\":24904:25046   */\n      swap2\n      swap1\n      pop\n      jump\t// out\n        /* \"#utility.yul\":25052:25127   */\n    tag_420:\n        /* \"#utility.yul\":25095:25098   */\n      0x00\n        /* \"#utility.yul\":25116:25121   */\n      dup2\n        /* \"#utility.yul\":25109:25121   */\n      swap1\n      pop\n        /* \"#utility.yul\":25052:25127   */\n      swap2\n      swap1\n      pop\n      jump\t// out\n        /* \"#utility.yul\":25133:25402   */\n    tag_421:\n        /* \"#utility.yul\":25243:25282   */\n      tag_716\n        /* \"#utility.yul\":25274:25281   */\n      dup4\n        /* \"#utility.yul\":25243:25282   */\n      tag_419\n      jump\t// in\n    tag_716:\n        /* \"#utility.yul\":25304:25395   */\n      tag_717\n        /* \"#utility.yul\":25353:25394   */\n      tag_718\n        /* \"#utility.yul\":25377:25393   */\n      dup3\n        /* \"#utility.yul\":25353:25394   */\n      tag_420\n      jump\t// in\n    tag_718:\n        /* \"#utility.yul\":25345:25351   */\n      dup5\n        /* \"#utility.yul\":25338:25342   */\n      dup5\n        /* \"#utility.yul\":25332:25343   */\n      sload\n        /* \"#utility.yul\":25304:25395   */\n      tag_417\n      jump\t// in\n    tag_717:\n        /* \"#utility.yul\":25298:25302   */\n      dup3\n        /* \"#utility.yul\":25291:25396   */\n      sstore\n        /* \"#utility.yul\":25209:25402   */\n      pop\n        /* \"#utility.yul\":25133:25402   */\n      pop\n      pop\n      pop\n      jump\t// out\n        /* \"#utility.yul\":25408:25481   */\n    tag_422:\n        /* \"#utility.yul\":25453:25456   */\n      0x00\n        /* \"#utility.yul\":25408:25481   */\n      swap1\n      jump\t// out\n        /* \"#utility.yul\":25487:25676   */\n    tag_423:\n        /* \"#utility.yul\":25564:25596   */\n      tag_721\n      tag_422\n      jump\t// in\n    tag_721:\n        /* \"#utility.yul\":25605:25670   */\n      tag_722\n        /* \"#utility.yul\":25663:25669   */\n      dup2\n        /* \"#utility.yul\":25655:25661   */\n      dup5\n        /* \"#utility.yul\":25649:25653   */\n      dup5\n        /* \"#utility.yul\":25605:25670   */\n      tag_421\n      jump\t// in\n    tag_722:\n        /* \"#utility.yul\":25540:25676   */\n      pop\n        /* \"#utility.yul\":25487:25676   */\n      pop\n      pop\n      jump\t// out\n        /* \"#utility.yul\":25682:25868   */\n    tag_424:\n        /* \"#utility.yul\":25742:25862   */\n    tag_724:\n        /* \"#utility.yul\":25759:25762   */\n      dup2\n        /* \"#utility.yul\":25752:25757   */\n      dup2\n        /* \"#utility.yul\":25749:25763   */\n      lt\n        /* \"#utility.yul\":25742:25862   */\n      iszero\n      tag_726\n      jumpi\n        /* \"#utility.yul\":25813:25852   */\n      tag_727\n        /* \"#utility.yul\":25850:25851   */\n      0x00\n        /* \"#utility.yul\":25843:25848   */\n      dup3\n        /* \"#utility.yul\":25813:25852   */\n      tag_423\n      jump\t// in\n    tag_727:\n        /* \"#utility.yul\":25786:25787   */\n      0x01\n        /* \"#utility.yul\":25779:25784   */\n      dup2\n        /* \"#utility.yul\":25775:25788   */\n      add\n        /* \"#utility.yul\":25766:25788   */\n      swap1\n      pop\n        /* \"#utility.yul\":25742:25862   */\n      jump(tag_724)\n    tag_726:\n        /* \"#utility.yul\":25682:25868   */\n      pop\n      pop\n      jump\t// out\n        /* \"#utility.yul\":25874:26415   */\n    tag_425:\n        /* \"#utility.yul\":25974:25976   */\n      0x1f\n        /* \"#utility.yul\":25969:25972   */\n      dup3\n        /* \"#utility.yul\":25966:25977   */\n      gt\n        /* \"#utility.yul\":25963:26408   */\n      iszero\n      tag_729\n      jumpi\n        /* \"#utility.yul\":26008:26045   */\n      tag_730\n        /* \"#utility.yul\":26039:26044   */\n      dup2\n        /* \"#utility.yul\":26008:26045   */\n      tag_414\n      jump\t// in\n    tag_730:\n        /* \"#utility.yul\":26091:26120   */\n      tag_731\n        /* \"#utility.yul\":26109:26119   */\n      dup5\n        /* \"#utility.yul\":26091:26120   */\n      tag_415\n      jump\t// in\n    tag_731:\n        /* \"#utility.yul\":26081:26089   */\n      dup2\n        /* \"#utility.yul\":26077:26121   */\n      add\n        /* \"#utility.yul\":26274:26276   */\n      0x20\n        /* \"#utility.yul\":26262:26272   */\n      dup6\n        /* \"#utility.yul\":26259:26277   */\n      lt\n        /* \"#utility.yul\":26256:26305   */\n      iszero\n      tag_732\n      jumpi\n        /* \"#utility.yul\":26295:26303   */\n      dup2\n        /* \"#utility.yul\":26280:26303   */\n      swap1\n      pop\n        /* \"#utility.yul\":26256:26305   */\n    tag_732:\n        /* \"#utility.yul\":26318:26398   */\n      tag_733\n        /* \"#utility.yul\":26374:26396   */\n      tag_734\n        /* \"#utility.yul\":26392:26395   */\n      dup6\n        /* \"#utility.yul\":26374:26396   */\n      tag_415\n      jump\t// in\n    tag_734:\n        /* \"#utility.yul\":26364:26372   */\n      dup4\n        /* \"#utility.yul\":26360:26397   */\n      add\n        /* \"#utility.yul\":26347:26358   */\n      dup3\n        /* \"#utility.yul\":26318:26398   */\n      tag_424\n      jump\t// in\n    tag_733:\n        /* \"#utility.yul\":25978:26408   */\n      pop\n      pop\n        /* \"#utility.yul\":25963:26408   */\n    tag_729:\n        /* \"#utility.yul\":25874:26415   */\n      pop\n      pop\n      pop\n      jump\t// out\n        /* \"#utility.yul\":26421:26538   */\n    tag_426:\n        /* \"#utility.yul\":26475:26483   */\n      0x00\n        /* \"#utility.yul\":26525:26530   */\n      dup3\n        /* \"#utility.yul\":26519:26523   */\n      dup3\n        /* \"#utility.yul\":26515:26531   */\n      shr\n        /* \"#utility.yul\":26494:26531   */\n      swap1\n      pop\n        /* \"#utility.yul\":26421:26538   */\n      swap3\n      swap2\n      pop\n      pop\n      jump\t// out\n        /* \"#utility.yul\":26544:26713   */\n    tag_427:\n        /* \"#utility.yul\":26588:26594   */\n      0x00\n        /* \"#utility.yul\":26621:26672   */\n      tag_737\n        /* \"#utility.yul\":26669:26670   */\n      0x00\n        /* \"#utility.yul\":26665:26671   */\n      not\n        /* \"#utility.yul\":26657:26662   */\n      dup5\n        /* \"#utility.yul\":26654:26655   */\n      0x08\n        /* \"#utility.yul\":26650:26663   */\n      mul\n        /* \"#utility.yul\":26621:26672   */\n      tag_426\n      jump\t// in\n    tag_737:\n        /* \"#utility.yul\":26617:26673   */\n      not\n        /* \"#utility.yul\":26702:26706   */\n      dup1\n        /* \"#utility.yul\":26696:26700   */\n      dup4\n        /* \"#utility.yul\":26692:26707   */\n      and\n        /* \"#utility.yul\":26682:26707   */\n      swap2\n      pop\n        /* \"#utility.yul\":26595:26713   */\n      pop\n        /* \"#utility.yul\":26544:26713   */\n      swap3\n      swap2\n      pop\n      pop\n      jump\t// out\n        /* \"#utility.yul\":26718:27013   */\n    tag_428:\n        /* \"#utility.yul\":26794:26798   */\n      0x00\n        /* \"#utility.yul\":26940:26969   */\n      tag_739\n        /* \"#utility.yul\":26965:26968   */\n      dup4\n        /* \"#utility.yul\":26959:26963   */\n      dup4\n        /* \"#utility.yul\":26940:26969   */\n      tag_427\n      jump\t// in\n    tag_739:\n        /* \"#utility.yul\":26932:26969   */\n      swap2\n      pop\n        /* \"#utility.yul\":27002:27005   */\n      dup3\n        /* \"#utility.yul\":26999:27000   */\n      0x02\n        /* \"#utility.yul\":26995:27006   */\n      mul\n        /* \"#utility.yul\":26989:26993   */\n      dup3\n        /* \"#utility.yul\":26986:27007   */\n      or\n        /* \"#utility.yul\":26978:27007   */\n      swap1\n      pop\n        /* \"#utility.yul\":26718:27013   */\n      swap3\n      swap2\n      pop\n      pop\n      jump\t// out\n        /* \"#utility.yul\":27018:28408   */\n    tag_141:\n        /* \"#utility.yul\":27133:27169   */\n      tag_741\n        /* \"#utility.yul\":27165:27168   */\n      dup3\n        /* \"#utility.yul\":27133:27169   */\n      tag_370\n      jump\t// in\n    tag_741:\n        /* \"#utility.yul\":27234:27252   */\n      0xffffffffffffffff\n        /* \"#utility.yul\":27226:27232   */\n      dup2\n        /* \"#utility.yul\":27223:27253   */\n      gt\n        /* \"#utility.yul\":27220:27276   */\n      iszero\n      tag_742\n      jumpi\n        /* \"#utility.yul\":27256:27274   */\n      tag_743\n      tag_357\n      jump\t// in\n    tag_743:\n        /* \"#utility.yul\":27220:27276   */\n    tag_742:\n        /* \"#utility.yul\":27300:27338   */\n      tag_744\n        /* \"#utility.yul\":27332:27336   */\n      dup3\n        /* \"#utility.yul\":27326:27337   */\n      sload\n        /* \"#utility.yul\":27300:27338   */\n      tag_79\n      jump\t// in\n    tag_744:\n        /* \"#utility.yul\":27385:27451   */\n      tag_745\n        /* \"#utility.yul\":27444:27450   */\n      dup3\n        /* \"#utility.yul\":27436:27442   */\n      dup3\n        /* \"#utility.yul\":27430:27434   */\n      dup6\n        /* \"#utility.yul\":27385:27451   */\n      tag_425\n      jump\t// in\n    tag_745:\n        /* \"#utility.yul\":27478:27479   */\n      0x00\n        /* \"#utility.yul\":27502:27506   */\n      0x20\n        /* \"#utility.yul\":27489:27506   */\n      swap1\n      pop\n        /* \"#utility.yul\":27534:27536   */\n      0x1f\n        /* \"#utility.yul\":27526:27532   */\n      dup4\n        /* \"#utility.yul\":27523:27537   */\n      gt\n        /* \"#utility.yul\":27551:27552   */\n      0x01\n        /* \"#utility.yul\":27546:28163   */\n      dup2\n      eq\n      tag_747\n      jumpi\n        /* \"#utility.yul\":28207:28208   */\n      0x00\n        /* \"#utility.yul\":28224:28230   */\n      dup5\n        /* \"#utility.yul\":28221:28298   */\n      iszero\n      tag_748\n      jumpi\n        /* \"#utility.yul\":28273:28282   */\n      dup3\n        /* \"#utility.yul\":28268:28271   */\n      dup8\n        /* \"#utility.yul\":28264:28283   */\n      add\n        /* \"#utility.yul\":28258:28284   */\n      mload\n        /* \"#utility.yul\":28249:28284   */\n      swap1\n      pop\n        /* \"#utility.yul\":28221:28298   */\n    tag_748:\n        /* \"#utility.yul\":28324:28391   */\n      tag_749\n        /* \"#utility.yul\":28384:28390   */\n      dup6\n        /* \"#utility.yul\":28377:28382   */\n      dup3\n        /* \"#utility.yul\":28324:28391   */\n      tag_428\n      jump\t// in\n    tag_749:\n        /* \"#utility.yul\":28318:28322   */\n      dup7\n        /* \"#utility.yul\":28311:28392   */\n      sstore\n        /* \"#utility.yul\":28180:28402   */\n      pop\n        /* \"#utility.yul\":27516:28402   */\n      jump(tag_746)\n        /* \"#utility.yul\":27546:28163   */\n    tag_747:\n        /* \"#utility.yul\":27598:27602   */\n      0x1f\n        /* \"#utility.yul\":27594:27603   */\n      not\n        /* \"#utility.yul\":27586:27592   */\n      dup5\n        /* \"#utility.yul\":27582:27604   */\n      and\n        /* \"#utility.yul\":27632:27668   */\n      tag_750\n        /* \"#utility.yul\":27663:27667   */\n      dup7\n        /* \"#utility.yul\":27632:27668   */\n      tag_414\n      jump\t// in\n    tag_750:\n        /* \"#utility.yul\":27690:27691   */\n      0x00\n        /* \"#utility.yul\":27704:27912   */\n    tag_751:\n        /* \"#utility.yul\":27718:27725   */\n      dup3\n        /* \"#utility.yul\":27715:27716   */\n      dup2\n        /* \"#utility.yul\":27712:27726   */\n      lt\n        /* \"#utility.yul\":27704:27912   */\n      iszero\n      tag_753\n      jumpi\n        /* \"#utility.yul\":27797:27806   */\n      dup5\n        /* \"#utility.yul\":27792:27795   */\n      dup10\n        /* \"#utility.yul\":27788:27807   */\n      add\n        /* \"#utility.yul\":27782:27808   */\n      mload\n        /* \"#utility.yul\":27774:27780   */\n      dup3\n        /* \"#utility.yul\":27767:27809   */\n      sstore\n        /* \"#utility.yul\":27848:27849   */\n      0x01\n        /* \"#utility.yul\":27840:27846   */\n      dup3\n        /* \"#utility.yul\":27836:27850   */\n      add\n        /* \"#utility.yul\":27826:27850   */\n      swap2\n      pop\n        /* \"#utility.yul\":27895:27897   */\n      0x20\n        /* \"#utility.yul\":27884:27893   */\n      dup6\n        /* \"#utility.yul\":27880:27898   */\n      add\n        /* \"#utility.yul\":27867:27898   */\n      swap5\n      pop\n        /* \"#utility.yul\":27741:27745   */\n      0x20\n        /* \"#utility.yul\":27738:27739   */\n      dup2\n        /* \"#utility.yul\":27734:27746   */\n      add\n        /* \"#utility.yul\":27729:27746   */\n      swap1\n      pop\n        /* \"#utility.yul\":27704:27912   */\n      jump(tag_751)\n    tag_753:\n        /* \"#utility.yul\":27940:27946   */\n      dup7\n        /* \"#utility.yul\":27931:27938   */\n      dup4\n        /* \"#utility.yul\":27928:27947   */\n      lt\n        /* \"#utility.yul\":27925:28104   */\n      iszero\n      tag_754\n      jumpi\n        /* \"#utility.yul\":27998:28007   */\n      dup5\n        /* \"#utility.yul\":27993:27996   */\n      dup10\n        /* \"#utility.yul\":27989:28008   */\n      add\n        /* \"#utility.yul\":27983:28009   */\n      mload\n        /* \"#utility.yul\":28041:28089   */\n      tag_755\n        /* \"#utility.yul\":28083:28087   */\n      0x1f\n        /* \"#utility.yul\":28075:28081   */\n      dup10\n        /* \"#utility.yul\":28071:28088   */\n      and\n        /* \"#utility.yul\":28060:28069   */\n      dup3\n        /* \"#utility.yul\":28041:28089   */\n      tag_427\n      jump\t// in\n    tag_755:\n        /* \"#utility.yul\":28033:28039   */\n      dup4\n        /* \"#utility.yul\":28026:28090   */\n      sstore\n        /* \"#utility.yul\":27948:28104   */\n      pop\n        /* \"#utility.yul\":27925:28104   */\n    tag_754:\n        /* \"#utility.yul\":28150:28151   */\n      0x01\n        /* \"#utility.yul\":28146:28147   */\n      0x02\n        /* \"#utility.yul\":28138:28144   */\n      dup9\n        /* \"#utility.yul\":28134:28148   */\n      mul\n        /* \"#utility.yul\":28130:28152   */\n      add\n        /* \"#utility.yul\":28124:28128   */\n      dup9\n        /* \"#utility.yul\":28117:28153   */\n      sstore\n        /* \"#utility.yul\":27553:28163   */\n      pop\n      pop\n      pop\n        /* \"#utility.yul\":27516:28402   */\n    tag_746:\n      pop\n        /* \"#utility.yul\":27108:28408   */\n      pop\n      pop\n      pop\n        /* \"#utility.yul\":27018:28408   */\n      pop\n      pop\n      jump\t// out\n        /* \"#utility.yul\":28414:28920   */\n    tag_144:\n        /* \"#utility.yul\":28571:28575   */\n      0x00\n        /* \"#utility.yul\":28609:28611   */\n      0x40\n        /* \"#utility.yul\":28598:28607   */\n      dup3\n        /* \"#utility.yul\":28594:28612   */\n      add\n        /* \"#utility.yul\":28586:28612   */\n      swap1\n      pop\n        /* \"#utility.yul\":28658:28667   */\n      dup2\n        /* \"#utility.yul\":28652:28656   */\n      dup2\n        /* \"#utility.yul\":28648:28668   */\n      sub\n        /* \"#utility.yul\":28644:28645   */\n      0x00\n        /* \"#utility.yul\":28633:28642   */\n      dup4\n        /* \"#utility.yul\":28629:28646   */\n      add\n        /* \"#utility.yul\":28622:28669   */\n      mstore\n        /* \"#utility.yul\":28686:28762   */\n      tag_757\n        /* \"#utility.yul\":28757:28761   */\n      dup2\n        /* \"#utility.yul\":28748:28754   */\n      dup6\n        /* \"#utility.yul\":28686:28762   */\n      tag_373\n      jump\t// in\n    tag_757:\n        /* \"#utility.yul\":28678:28762   */\n      swap1\n      pop\n        /* \"#utility.yul\":28809:28818   */\n      dup2\n        /* \"#utility.yul\":28803:28807   */\n      dup2\n        /* \"#utility.yul\":28799:28819   */\n      sub\n        /* \"#utility.yul\":28794:28796   */\n      0x20\n        /* \"#utility.yul\":28783:28792   */\n      dup4\n        /* \"#utility.yul\":28779:28797   */\n      add\n        /* \"#utility.yul\":28772:28820   */\n      mstore\n        /* \"#utility.yul\":28837:28913   */\n      tag_758\n        /* \"#utility.yul\":28908:28912   */\n      dup2\n        /* \"#utility.yul\":28899:28905   */\n      dup5\n        /* \"#utility.yul\":28837:28913   */\n      tag_373\n      jump\t// in\n    tag_758:\n        /* \"#utility.yul\":28829:28913   */\n      swap1\n      pop\n        /* \"#utility.yul\":28414:28920   */\n      swap4\n      swap3\n      pop\n      pop\n      pop\n      jump\t// out\n        /* \"#utility.yul\":28926:29098   */\n    tag_429:\n        /* \"#utility.yul\":29066:29090   */\n      0x4f6e6c792063616c6c61626c65206279206f776e657200000000000000000000\n        /* \"#utility.yul\":29062:29063   */\n      0x00\n        /* \"#utility.yul\":29054:29060   */\n      dup3\n        /* \"#utility.yul\":29050:29064   */\n      add\n        /* \"#utility.yul\":29043:29091   */\n      mstore\n        /* \"#utility.yul\":28926:29098   */\n      pop\n      jump\t// out\n        /* \"#utility.yul\":29104:29470   */\n    tag_430:\n        /* \"#utility.yul\":29246:29249   */\n      0x00\n        /* \"#utility.yul\":29267:29334   */\n      tag_761\n        /* \"#utility.yul\":29331:29333   */\n      0x16\n        /* \"#utility.yul\":29326:29329   */\n      dup4\n        /* \"#utility.yul\":29267:29334   */\n      tag_403\n      jump\t// in\n    tag_761:\n        /* \"#utility.yul\":29260:29334   */\n      swap2\n      pop\n        /* \"#utility.yul\":29343:29436   */\n      tag_762\n        /* \"#utility.yul\":29432:29435   */\n      dup3\n        /* \"#utility.yul\":29343:29436   */\n      tag_429\n      jump\t// in\n    tag_762:\n        /* \"#utility.yul\":29461:29463   */\n      0x20\n        /* \"#utility.yul\":29456:29459   */\n      dup3\n        /* \"#utility.yul\":29452:29464   */\n      add\n        /* \"#utility.yul\":29445:29464   */\n      swap1\n      pop\n        /* \"#utility.yul\":29104:29470   */\n      swap2\n      swap1\n      pop\n      jump\t// out\n        /* \"#utility.yul\":29476:29895   */\n    tag_148:\n        /* \"#utility.yul\":29642:29646   */\n      0x00\n        /* \"#utility.yul\":29680:29682   */\n      0x20\n        /* \"#utility.yul\":29669:29678   */\n      dup3\n        /* \"#utility.yul\":29665:29683   */\n      add\n        /* \"#utility.yul\":29657:29683   */\n      swap1\n      pop\n        /* \"#utility.yul\":29729:29738   */\n      dup2\n        /* \"#utility.yul\":29723:29727   */\n      dup2\n        /* \"#utility.yul\":29719:29739   */\n      sub\n        /* \"#utility.yul\":29715:29716   */\n      0x00\n        /* \"#utility.yul\":29704:29713   */\n      dup4\n        /* \"#utility.yul\":29700:29717   */\n      add\n        /* \"#utility.yul\":29693:29740   */\n      mstore\n        /* \"#utility.yul\":29757:29888   */\n      tag_764\n        /* \"#utility.yul\":29883:29887   */\n      dup2\n        /* \"#utility.yul\":29757:29888   */\n      tag_430\n      jump\t// in\n    tag_764:\n        /* \"#utility.yul\":29749:29888   */\n      swap1\n      pop\n        /* \"#utility.yul\":29476:29895   */\n      swap2\n      swap1\n      pop\n      jump\t// out\n        /* \"#utility.yul\":29901:30422   */\n    tag_179:\n        /* \"#utility.yul\":30064:30068   */\n      0x00\n        /* \"#utility.yul\":30102:30104   */\n      0x60\n        /* \"#utility.yul\":30091:30100   */\n      dup3\n        /* \"#utility.yul\":30087:30105   */\n      add\n        /* \"#utility.yul\":30079:30105   */\n      swap1\n      pop\n        /* \"#utility.yul\":30115:30184   */\n      tag_766\n        /* \"#utility.yul\":30181:30182   */\n      0x00\n        /* \"#utility.yul\":30170:30179   */\n      dup4\n        /* \"#utility.yul\":30166:30183   */\n      add\n        /* \"#utility.yul\":30157:30163   */\n      dup7\n        /* \"#utility.yul\":30115:30184   */\n      tag_409\n      jump\t// in\n    tag_766:\n        /* \"#utility.yul\":30231:30240   */\n      dup2\n        /* \"#utility.yul\":30225:30229   */\n      dup2\n        /* \"#utility.yul\":30221:30241   */\n      sub\n        /* \"#utility.yul\":30216:30218   */\n      0x20\n        /* \"#utility.yul\":30205:30214   */\n      dup4\n        /* \"#utility.yul\":30201:30219   */\n      add\n        /* \"#utility.yul\":30194:30242   */\n      mstore\n        /* \"#utility.yul\":30259:30335   */\n      tag_767\n        /* \"#utility.yul\":30330:30334   */\n      dup2\n        /* \"#utility.yul\":30321:30327   */\n      dup6\n        /* \"#utility.yul\":30259:30335   */\n      tag_373\n      jump\t// in\n    tag_767:\n        /* \"#utility.yul\":30251:30335   */\n      swap1\n      pop\n        /* \"#utility.yul\":30345:30415   */\n      tag_768\n        /* \"#utility.yul\":30411:30413   */\n      0x40\n        /* \"#utility.yul\":30400:30409   */\n      dup4\n        /* \"#utility.yul\":30396:30414   */\n      add\n        /* \"#utility.yul\":30387:30393   */\n      dup5\n        /* \"#utility.yul\":30345:30415   */\n      tag_410\n      jump\t// in\n    tag_768:\n        /* \"#utility.yul\":29901:30422   */\n      swap5\n      swap4\n      pop\n      pop\n      pop\n      pop\n      jump\t// out\n        /* \"#utility.yul\":30428:30571   */\n    tag_431:\n        /* \"#utility.yul\":30485:30490   */\n      0x00\n        /* \"#utility.yul\":30516:30522   */\n      dup2\n        /* \"#utility.yul\":30510:30523   */\n      mload\n        /* \"#utility.yul\":30501:30523   */\n      swap1\n      pop\n        /* \"#utility.yul\":30532:30565   */\n      tag_770\n        /* \"#utility.yul\":30559:30564   */\n      dup2\n        /* \"#utility.yul\":30532:30565   */\n      tag_352\n      jump\t// in\n    tag_770:\n        /* \"#utility.yul\":30428:30571   */\n      swap3\n      swap2\n      pop\n      pop\n      jump\t// out\n        /* \"#utility.yul\":30577:30928   */\n    tag_183:\n        /* \"#utility.yul\":30647:30653   */\n      0x00\n        /* \"#utility.yul\":30696:30698   */\n      0x20\n        /* \"#utility.yul\":30684:30693   */\n      dup3\n        /* \"#utility.yul\":30675:30682   */\n      dup5\n        /* \"#utility.yul\":30671:30694   */\n      sub\n        /* \"#utility.yul\":30667:30699   */\n      slt\n        /* \"#utility.yul\":30664:30783   */\n      iszero\n      tag_772\n      jumpi\n        /* \"#utility.yul\":30702:30781   */\n      tag_773\n      tag_349\n      jump\t// in\n    tag_773:\n        /* \"#utility.yul\":30664:30783   */\n    tag_772:\n        /* \"#utility.yul\":30822:30823   */\n      0x00\n        /* \"#utility.yul\":30847:30911   */\n      tag_774\n        /* \"#utility.yul\":30903:30910   */\n      dup5\n        /* \"#utility.yul\":30894:30900   */\n      dup3\n        /* \"#utility.yul\":30883:30892   */\n      dup6\n        /* \"#utility.yul\":30879:30901   */\n      add\n        /* \"#utility.yul\":30847:30911   */\n      tag_431\n      jump\t// in\n    tag_774:\n        /* \"#utility.yul\":30837:30911   */\n      swap2\n      pop\n        /* \"#utility.yul\":30793:30921   */\n      pop\n        /* \"#utility.yul\":30577:30928   */\n      swap3\n      swap2\n      pop\n      pop\n      jump\t// out\n        /* \"#utility.yul\":30934:31077   */\n    tag_432:\n        /* \"#utility.yul\":30991:30996   */\n      0x00\n        /* \"#utility.yul\":31022:31028   */\n      dup2\n        /* \"#utility.yul\":31016:31029   */\n      mload\n        /* \"#utility.yul\":31007:31029   */\n      swap1\n      pop\n        /* \"#utility.yul\":31038:31071   */\n      tag_776\n        /* \"#utility.yul\":31065:31070   */\n      dup2\n        /* \"#utility.yul\":31038:31071   */\n      tag_367\n      jump\t// in\n    tag_776:\n        /* \"#utility.yul\":30934:31077   */\n      swap3\n      swap2\n      pop\n      pop\n      jump\t// out\n        /* \"#utility.yul\":31083:31434   */\n    tag_187:\n        /* \"#utility.yul\":31153:31159   */\n      0x00\n        /* \"#utility.yul\":31202:31204   */\n      0x20\n        /* \"#utility.yul\":31190:31199   */\n      dup3\n        /* \"#utility.yul\":31181:31188   */\n      dup5\n        /* \"#utility.yul\":31177:31200   */\n      sub\n        /* \"#utility.yul\":31173:31205   */\n      slt\n        /* \"#utility.yul\":31170:31289   */\n      iszero\n      tag_778\n      jumpi\n        /* \"#utility.yul\":31208:31287   */\n      tag_779\n      tag_349\n      jump\t// in\n    tag_779:\n        /* \"#utility.yul\":31170:31289   */\n    tag_778:\n        /* \"#utility.yul\":31328:31329   */\n      0x00\n        /* \"#utility.yul\":31353:31417   */\n      tag_780\n        /* \"#utility.yul\":31409:31416   */\n      dup5\n        /* \"#utility.yul\":31400:31406   */\n      dup3\n        /* \"#utility.yul\":31389:31398   */\n      dup6\n        /* \"#utility.yul\":31385:31407   */\n      add\n        /* \"#utility.yul\":31353:31417   */\n      tag_432\n      jump\t// in\n    tag_780:\n        /* \"#utility.yul\":31343:31417   */\n      swap2\n      pop\n        /* \"#utility.yul\":31299:31427   */\n      pop\n        /* \"#utility.yul\":31083:31434   */\n      swap3\n      swap2\n      pop\n      pop\n      jump\t// out\n        /* \"#utility.yul\":31440:31620   */\n    tag_215:\n        /* \"#utility.yul\":31488:31565   */\n      0x4e487b7100000000000000000000000000000000000000000000000000000000\n        /* \"#utility.yul\":31485:31486   */\n      0x00\n        /* \"#utility.yul\":31478:31566   */\n      mstore\n        /* \"#utility.yul\":31585:31589   */\n      0x32\n        /* \"#utility.yul\":31582:31583   */\n      0x04\n        /* \"#utility.yul\":31575:31590   */\n      mstore\n        /* \"#utility.yul\":31609:31613   */\n      0x24\n        /* \"#utility.yul\":31606:31607   */\n      0x00\n        /* \"#utility.yul\":31599:31614   */\n      revert\n        /* \"#utility.yul\":31626:31806   */\n    tag_433:\n        /* \"#utility.yul\":31674:31751   */\n      0x4e487b7100000000000000000000000000000000000000000000000000000000\n        /* \"#utility.yul\":31671:31672   */\n      0x00\n        /* \"#utility.yul\":31664:31752   */\n      mstore\n        /* \"#utility.yul\":31771:31775   */\n      0x11\n        /* \"#utility.yul\":31768:31769   */\n      0x04\n        /* \"#utility.yul\":31761:31776   */\n      mstore\n        /* \"#utility.yul\":31795:31799   */\n      0x24\n        /* \"#utility.yul\":31792:31793   */\n      0x00\n        /* \"#utility.yul\":31785:31800   */\n      revert\n        /* \"#utility.yul\":31812:32045   */\n    tag_217:\n        /* \"#utility.yul\":31851:31854   */\n      0x00\n        /* \"#utility.yul\":31874:31898   */\n      tag_784\n        /* \"#utility.yul\":31892:31897   */\n      dup3\n        /* \"#utility.yul\":31874:31898   */\n      tag_398\n      jump\t// in\n    tag_784:\n        /* \"#utility.yul\":31865:31898   */\n      swap2\n      pop\n        /* \"#utility.yul\":31920:31986   */\n      0xffffffffffffffffffffffffffffffffffffffffffffffffffffffffffffffff\n        /* \"#utility.yul\":31913:31918   */\n      dup3\n        /* \"#utility.yul\":31910:31987   */\n      sub\n        /* \"#utility.yul\":31907:32010   */\n      tag_785\n      jumpi\n        /* \"#utility.yul\":31990:32008   */\n      tag_786\n      tag_433\n      jump\t// in\n    tag_786:\n        /* \"#utility.yul\":31907:32010   */\n    tag_785:\n        /* \"#utility.yul\":32037:32038   */\n      0x01\n        /* \"#utility.yul\":32030:32035   */\n      dup3\n        /* \"#utility.yul\":32026:32039   */\n      add\n        /* \"#utility.yul\":32019:32039   */\n      swap1\n      pop\n        /* \"#utility.yul\":31812:32045   */\n      swap2\n      swap1\n      pop\n      jump\t// out\n        /* \"#utility.yul\":32051:32224   */\n    tag_434:\n        /* \"#utility.yul\":32191:32216   */\n      0x43616e6e6f74207472616e7366657220746f2073656c66000000000000000000\n        /* \"#utility.yul\":32187:32188   */\n      0x00\n        /* \"#utility.yul\":32179:32185   */\n      dup3\n        /* \"#utility.yul\":32175:32189   */\n      add\n        /* \"#utility.yul\":32168:32217   */\n      mstore\n        /* \"#utility.yul\":32051:32224   */\n      pop\n      jump\t// out\n        /* \"#utility.yul\":32230:32596   */\n    tag_435:\n        /* \"#utility.yul\":32372:32375   */\n      0x00\n        /* \"#utility.yul\":32393:32460   */\n      tag_789\n        /* \"#utility.yul\":32457:32459   */\n      0x17\n        /* \"#utility.yul\":32452:32455   */\n      dup4\n        /* \"#utility.yul\":32393:32460   */\n      tag_403\n      jump\t// in\n    tag_789:\n        /* \"#utility.yul\":32386:32460   */\n      swap2\n      pop\n        /* \"#utility.yul\":32469:32562   */\n      tag_790\n        /* \"#utility.yul\":32558:32561   */\n      dup3\n        /* \"#utility.yul\":32469:32562   */\n      tag_434\n      jump\t// in\n    tag_790:\n        /* \"#utility.yul\":32587:32589   */\n      0x20\n        /* \"#utility.yul\":32582:32585   */\n      dup3\n        /* \"#utility.yul\":32578:32590   */\n      add\n        /* \"#utility.yul\":32571:32590   */\n      swap1\n      pop\n        /* \"#utility.yul\":32230:32596   */\n      swap2\n      swap1\n      pop\n      jump\t// out\n        /* \"#utility.yul\":32602:33021   */\n    tag_231:\n        /* \"#utility.yul\":32768:32772   */\n      0x00\n        /* \"#utility.yul\":32806:32808   */\n      0x20\n        /* \"#utility.yul\":32795:32804   */\n      dup3\n        /* \"#utility.yul\":32791:32809   */\n      add\n        /* \"#utility.yul\":32783:32809   */\n      swap1\n      pop\n        /* \"#utility.yul\":32855:32864   */\n      dup2\n        /* \"#utility.yul\":32849:32853   */\n      dup2\n        /* \"#utility.yul\":32845:32865   */\n      sub\n        /* \"#utility.yul\":32841:32842   */\n      0x00\n        /* \"#utility.yul\":32830:32839   */\n      dup4\n        /* \"#utility.yul\":32826:32843   */\n      add\n        /* \"#utility.yul\":32819:32866   */\n      mstore\n        /* \"#utility.yul\":32883:33014   */\n      tag_792\n        /* \"#utility.yul\":33009:33013   */\n      dup2\n        /* \"#utility.yul\":32883:33014   */\n      tag_435\n      jump\t// in\n    tag_792:\n        /* \"#utility.yul\":32875:33014   */\n      swap1\n      pop\n        /* \"#utility.yul\":32602:33021   */\n      swap2\n      swap1\n      pop\n      jump\t// out\n        /* \"#utility.yul\":33027:33207   */\n    tag_436:\n        /* \"#utility.yul\":33075:33152   */\n      0x4e487b7100000000000000000000000000000000000000000000000000000000\n        /* \"#utility.yul\":33072:33073   */\n      0x00\n        /* \"#utility.yul\":33065:33153   */\n      mstore\n        /* \"#utility.yul\":33172:33176   */\n      0x12\n        /* \"#utility.yul\":33169:33170   */\n      0x04\n        /* \"#utility.yul\":33162:33177   */\n      mstore\n        /* \"#utility.yul\":33196:33200   */\n      0x24\n        /* \"#utility.yul\":33193:33194   */\n      0x00\n        /* \"#utility.yul\":33186:33201   */\n      revert\n        /* \"#utility.yul\":33213:33389   */\n    tag_236:\n        /* \"#utility.yul\":33245:33246   */\n      0x00\n        /* \"#utility.yul\":33262:33282   */\n      tag_795\n        /* \"#utility.yul\":33280:33281   */\n      dup3\n        /* \"#utility.yul\":33262:33282   */\n      tag_398\n      jump\t// in\n    tag_795:\n        /* \"#utility.yul\":33257:33282   */\n      swap2\n      pop\n        /* \"#utility.yul\":33296:33316   */\n      tag_796\n        /* \"#utility.yul\":33314:33315   */\n      dup4\n        /* \"#utility.yul\":33296:33316   */\n      tag_398\n      jump\t// in\n    tag_796:\n        /* \"#utility.yul\":33291:33316   */\n      swap3\n      pop\n        /* \"#utility.yul\":33335:33336   */\n      dup3\n        /* \"#utility.yul\":33325:33360   */\n      tag_797\n      jumpi\n        /* \"#utility.yul\":33340:33358   */\n      tag_798\n      tag_436\n      jump\t// in\n    tag_798:\n        /* \"#utility.yul\":33325:33360   */\n    tag_797:\n        /* \"#utility.yul\":33381:33382   */\n      dup3\n        /* \"#utility.yul\":33378:33379   */\n      dup3\n        /* \"#utility.yul\":33374:33383   */\n      mod\n        /* \"#utility.yul\":33369:33383   */\n      swap1\n      pop\n        /* \"#utility.yul\":33213:33389   */\n      swap3\n      swap2\n      pop\n      pop\n      jump\t// out\n        /* \"#utility.yul\":33395:33589   */\n    tag_240:\n        /* \"#utility.yul\":33435:33439   */\n      0x00\n        /* \"#utility.yul\":33455:33475   */\n      tag_800\n        /* \"#utility.yul\":33473:33474   */\n      dup3\n        /* \"#utility.yul\":33455:33475   */\n      tag_398\n      jump\t// in\n    tag_800:\n        /* \"#utility.yul\":33450:33475   */\n      swap2\n      pop\n        /* \"#utility.yul\":33489:33509   */\n      tag_801\n        /* \"#utility.yul\":33507:33508   */\n      dup4\n        /* \"#utility.yul\":33489:33509   */\n      tag_398\n      jump\t// in\n    tag_801:\n        /* \"#utility.yul\":33484:33509   */\n      swap3\n      pop\n        /* \"#utility.yul\":33533:33534   */\n      dup3\n        /* \"#utility.yul\":33530:33531   */\n      dup3\n        /* \"#utility.yul\":33526:33535   */\n      sub\n        /* \"#utility.yul\":33518:33535   */\n      swap1\n      pop\n        /* \"#utility.yul\":33557:33558   */\n      dup2\n        /* \"#utility.yul\":33551:33555   */\n      dup2\n        /* \"#utility.yul\":33548:33559   */\n      gt\n        /* \"#utility.yul\":33545:33582   */\n      iszero\n      tag_802\n      jumpi\n        /* \"#utility.yul\":33562:33580   */\n      tag_803\n      tag_433\n      jump\t// in\n    tag_803:\n        /* \"#utility.yul\":33545:33582   */\n    tag_802:\n        /* \"#utility.yul\":33395:33589   */\n      swap3\n      swap2\n      pop\n      pop\n      jump\t// out\n        /* \"#utility.yul\":33595:33786   */\n    tag_242:\n        /* \"#utility.yul\":33635:33638   */\n      0x00\n        /* \"#utility.yul\":33654:33674   */\n      tag_805\n        /* \"#utility.yul\":33672:33673   */\n      dup3\n        /* \"#utility.yul\":33654:33674   */\n      tag_398\n      jump\t// in\n    tag_805:\n        /* \"#utility.yul\":33649:33674   */\n      swap2\n      pop\n        /* \"#utility.yul\":33688:33708   */\n      tag_806\n        /* \"#utility.yul\":33706:33707   */\n      dup4\n        /* \"#utility.yul\":33688:33708   */\n      tag_398\n      jump\t// in\n    tag_806:\n        /* \"#utility.yul\":33683:33708   */\n      swap3\n      pop\n        /* \"#utility.yul\":33731:33732   */\n      dup3\n        /* \"#utility.yul\":33728:33729   */\n      dup3\n        /* \"#utility.yul\":33724:33733   */\n      add\n        /* \"#utility.yul\":33717:33733   */\n      swap1\n      pop\n        /* \"#utility.yul\":33752:33755   */\n      dup1\n        /* \"#utility.yul\":33749:33750   */\n      dup3\n        /* \"#utility.yul\":33746:33756   */\n      gt\n        /* \"#utility.yul\":33743:33779   */\n      iszero\n      tag_807\n      jumpi\n        /* \"#utility.yul\":33759:33777   */\n      tag_808\n      tag_433\n      jump\t// in\n    tag_808:\n        /* \"#utility.yul\":33743:33779   */\n    tag_807:\n        /* \"#utility.yul\":33595:33786   */\n      swap3\n      swap2\n      pop\n      pop\n      jump\t// out\n        /* \"#utility.yul\":33792:34014   */\n    tag_290:\n        /* \"#utility.yul\":33885:33889   */\n      0x00\n        /* \"#utility.yul\":33923:33925   */\n      0x20\n        /* \"#utility.yul\":33912:33921   */\n      dup3\n        /* \"#utility.yul\":33908:33926   */\n      add\n        /* \"#utility.yul\":33900:33926   */\n      swap1\n      pop\n        /* \"#utility.yul\":33936:34007   */\n      tag_810\n        /* \"#utility.yul\":34004:34005   */\n      0x00\n        /* \"#utility.yul\":33993:34002   */\n      dup4\n        /* \"#utility.yul\":33989:34006   */\n      add\n        /* \"#utility.yul\":33980:33986   */\n      dup5\n        /* \"#utility.yul\":33936:34007   */\n      tag_411\n      jump\t// in\n    tag_810:\n        /* \"#utility.yul\":33792:34014   */\n      swap3\n      swap2\n      pop\n      pop\n      jump\t// out\n        /* \"#utility.yul\":34020:34430   */\n    tag_311:\n        /* \"#utility.yul\":34060:34067   */\n      0x00\n        /* \"#utility.yul\":34083:34103   */\n      tag_812\n        /* \"#utility.yul\":34101:34102   */\n      dup3\n        /* \"#utility.yul\":34083:34103   */\n      tag_398\n      jump\t// in\n    tag_812:\n        /* \"#utility.yul\":34078:34103   */\n      swap2\n      pop\n        /* \"#utility.yul\":34117:34137   */\n      tag_813\n        /* \"#utility.yul\":34135:34136   */\n      dup4\n        /* \"#utility.yul\":34117:34137   */\n      tag_398\n      jump\t// in\n    tag_813:\n        /* \"#utility.yul\":34112:34137   */\n      swap3\n      pop\n        /* \"#utility.yul\":34172:34173   */\n      dup3\n        /* \"#utility.yul\":34169:34170   */\n      dup3\n        /* \"#utility.yul\":34165:34174   */\n      mul\n        /* \"#utility.yul\":34194:34224   */\n      tag_814\n        /* \"#utility.yul\":34212:34223   */\n      dup2\n        /* \"#utility.yul\":34194:34224   */\n      tag_398\n      jump\t// in\n    tag_814:\n        /* \"#utility.yul\":34183:34224   */\n      swap2\n      pop\n        /* \"#utility.yul\":34373:34374   */\n      dup3\n        /* \"#utility.yul\":34364:34371   */\n      dup3\n        /* \"#utility.yul\":34360:34375   */\n      div\n        /* \"#utility.yul\":34357:34358   */\n      dup5\n        /* \"#utility.yul\":34354:34376   */\n      eq\n        /* \"#utility.yul\":34334:34335   */\n      dup4\n        /* \"#utility.yul\":34327:34336   */\n      iszero\n        /* \"#utility.yul\":34307:34390   */\n      or\n        /* \"#utility.yul\":34284:34423   */\n      tag_815\n      jumpi\n        /* \"#utility.yul\":34403:34421   */\n      tag_816\n      tag_433\n      jump\t// in\n    tag_816:\n        /* \"#utility.yul\":34284:34423   */\n    tag_815:\n        /* \"#utility.yul\":34068:34430   */\n      pop\n        /* \"#utility.yul\":34020:34430   */\n      swap3\n      swap2\n      pop\n      pop\n      jump\t// out\n        /* \"#utility.yul\":34436:34538   */\n    tag_437:\n        /* \"#utility.yul\":34478:34486   */\n      0x00\n        /* \"#utility.yul\":34525:34530   */\n      dup2\n        /* \"#utility.yul\":34522:34523   */\n      0x01\n        /* \"#utility.yul\":34518:34531   */\n      shr\n        /* \"#utility.yul\":34497:34531   */\n      swap1\n      pop\n        /* \"#utility.yul\":34436:34538   */\n      swap2\n      swap1\n      pop\n      jump\t// out\n        /* \"#utility.yul\":34544:35392   */\n    tag_438:\n        /* \"#utility.yul\":34605:34610   */\n      0x00\n        /* \"#utility.yul\":34612:34616   */\n      dup1\n        /* \"#utility.yul\":34636:34642   */\n      dup3\n        /* \"#utility.yul\":34627:34642   */\n      swap2\n      pop\n        /* \"#utility.yul\":34660:34665   */\n      dup4\n        /* \"#utility.yul\":34651:34665   */\n      swap1\n      pop\n        /* \"#utility.yul\":34674:35386   */\n    tag_819:\n        /* \"#utility.yul\":34695:34696   */\n      0x01\n        /* \"#utility.yul\":34685:34693   */\n      dup6\n        /* \"#utility.yul\":34682:34697   */\n      gt\n        /* \"#utility.yul\":34674:35386   */\n      iszero\n      tag_821\n      jumpi\n        /* \"#utility.yul\":34790:34794   */\n      dup1\n        /* \"#utility.yul\":34785:34788   */\n      dup7\n        /* \"#utility.yul\":34781:34795   */\n      div\n        /* \"#utility.yul\":34775:34779   */\n      dup2\n        /* \"#utility.yul\":34772:34796   */\n      gt\n        /* \"#utility.yul\":34769:34819   */\n      iszero\n      tag_822\n      jumpi\n        /* \"#utility.yul\":34799:34817   */\n      tag_823\n      tag_433\n      jump\t// in\n    tag_823:\n        /* \"#utility.yul\":34769:34819   */\n    tag_822:\n        /* \"#utility.yul\":34849:34850   */\n      0x01\n        /* \"#utility.yul\":34839:34847   */\n      dup6\n        /* \"#utility.yul\":34835:34851   */\n      and\n        /* \"#utility.yul\":34832:35283   */\n      iszero\n      tag_824\n      jumpi\n        /* \"#utility.yul\":35264:35268   */\n      dup1\n        /* \"#utility.yul\":35257:35262   */\n      dup3\n        /* \"#utility.yul\":35253:35269   */\n      mul\n        /* \"#utility.yul\":35244:35269   */\n      swap2\n      pop\n        /* \"#utility.yul\":34832:35283   */\n    tag_824:\n        /* \"#utility.yul\":35314:35318   */\n      dup1\n        /* \"#utility.yul\":35308:35312   */\n      dup2\n        /* \"#utility.yul\":35304:35319   */\n      mul\n        /* \"#utility.yul\":35296:35319   */\n      swap1\n      pop\n        /* \"#utility.yul\":35344:35376   */\n      tag_825\n        /* \"#utility.yul\":35367:35375   */\n      dup6\n        /* \"#utility.yul\":35344:35376   */\n      tag_437\n      jump\t// in\n    tag_825:\n        /* \"#utility.yul\":35332:35376   */\n      swap5\n      pop\n        /* \"#utility.yul\":34674:35386   */\n      jump(tag_819)\n    tag_821:\n        /* \"#utility.yul\":34544:35392   */\n      swap5\n      pop\n      swap5\n      swap3\n      pop\n      pop\n      pop\n      jump\t// out\n        /* \"#utility.yul\":35398:36471   */\n    tag_439:\n        /* \"#utility.yul\":35452:35457   */\n      0x00\n        /* \"#utility.yul\":35643:35651   */\n      dup3\n        /* \"#utility.yul\":35633:35673   */\n      tag_827\n      jumpi\n        /* \"#utility.yul\":35664:35665   */\n      0x01\n        /* \"#utility.yul\":35655:35665   */\n      swap1\n      pop\n        /* \"#utility.yul\":35666:35671   */\n      jump(tag_826)\n        /* \"#utility.yul\":35633:35673   */\n    tag_827:\n        /* \"#utility.yul\":35692:35696   */\n      dup2\n        /* \"#utility.yul\":35682:35718   */\n      tag_828\n      jumpi\n        /* \"#utility.yul\":35709:35710   */\n      0x00\n        /* \"#utility.yul\":35700:35710   */\n      swap1\n      pop\n        /* \"#utility.yul\":35711:35716   */\n      jump(tag_826)\n        /* \"#utility.yul\":35682:35718   */\n    tag_828:\n        /* \"#utility.yul\":35778:35782   */\n      dup2\n        /* \"#utility.yul\":35826:35827   */\n      0x01\n        /* \"#utility.yul\":35821:35848   */\n      dup2\n      eq\n      tag_830\n      jumpi\n        /* \"#utility.yul\":35862:35863   */\n      0x02\n        /* \"#utility.yul\":35857:36048   */\n      dup2\n      eq\n      tag_831\n      jumpi\n        /* \"#utility.yul\":35771:36048   */\n      jump(tag_829)\n        /* \"#utility.yul\":35821:35848   */\n    tag_830:\n        /* \"#utility.yul\":35839:35840   */\n      0x01\n        /* \"#utility.yul\":35830:35840   */\n      swap2\n      pop\n        /* \"#utility.yul\":35841:35846   */\n      pop\n      jump(tag_826)\n        /* \"#utility.yul\":35857:36048   */\n    tag_831:\n        /* \"#utility.yul\":35902:35905   */\n      0xff\n        /* \"#utility.yul\":35892:35900   */\n      dup5\n        /* \"#utility.yul\":35889:35906   */\n      gt\n        /* \"#utility.yul\":35886:35929   */\n      iszero\n      tag_832\n      jumpi\n        /* \"#utility.yul\":35909:35927   */\n      tag_833\n      tag_433\n      jump\t// in\n    tag_833:\n        /* \"#utility.yul\":35886:35929   */\n    tag_832:\n        /* \"#utility.yul\":35958:35966   */\n      dup4\n        /* \"#utility.yul\":35955:35956   */\n      0x02\n        /* \"#utility.yul\":35951:35967   */\n      exp\n        /* \"#utility.yul\":35942:35967   */\n      swap2\n      pop\n        /* \"#utility.yul\":35993:35996   */\n      dup5\n        /* \"#utility.yul\":35986:35991   */\n      dup3\n        /* \"#utility.yul\":35983:35997   */\n      gt\n        /* \"#utility.yul\":35980:36020   */\n      iszero\n      tag_834\n      jumpi\n        /* \"#utility.yul\":36000:36018   */\n      tag_835\n      tag_433\n      jump\t// in\n    tag_835:\n        /* \"#utility.yul\":35980:36020   */\n    tag_834:\n        /* \"#utility.yul\":36033:36038   */\n      pop\n      jump(tag_826)\n        /* \"#utility.yul\":35771:36048   */\n    tag_829:\n      pop\n        /* \"#utility.yul\":36157:36159   */\n      0x20\n        /* \"#utility.yul\":36147:36155   */\n      dup4\n        /* \"#utility.yul\":36144:36160   */\n      lt\n        /* \"#utility.yul\":36138:36141   */\n      0x0133\n        /* \"#utility.yul\":36132:36136   */\n      dup4\n        /* \"#utility.yul\":36129:36142   */\n      lt\n        /* \"#utility.yul\":36125:36161   */\n      and\n        /* \"#utility.yul\":36107:36109   */\n      0x4e\n        /* \"#utility.yul\":36097:36105   */\n      dup5\n        /* \"#utility.yul\":36094:36110   */\n      lt\n        /* \"#utility.yul\":36089:36091   */\n      0x0b\n        /* \"#utility.yul\":36083:36087   */\n      dup5\n        /* \"#utility.yul\":36080:36092   */\n      lt\n        /* \"#utility.yul\":36076:36111   */\n      and\n        /* \"#utility.yul\":36060:36171   */\n      or\n        /* \"#utility.yul\":36057:36303   */\n      iszero\n      tag_836\n      jumpi\n        /* \"#utility.yul\":36213:36221   */\n      dup3\n        /* \"#utility.yul\":36207:36211   */\n      dup3\n        /* \"#utility.yul\":36203:36222   */\n      exp\n        /* \"#utility.yul\":36194:36222   */\n      swap1\n      pop\n        /* \"#utility.yul\":36248:36251   */\n      dup4\n        /* \"#utility.yul\":36241:36246   */\n      dup2\n        /* \"#utility.yul\":36238:36252   */\n      gt\n        /* \"#utility.yul\":36235:36275   */\n      iszero\n      tag_837\n      jumpi\n        /* \"#utility.yul\":36255:36273   */\n      tag_838\n      tag_433\n      jump\t// in\n    tag_838:\n        /* \"#utility.yul\":36235:36275   */\n    tag_837:\n        /* \"#utility.yul\":36288:36293   */\n      jump(tag_826)\n        /* \"#utility.yul\":36057:36303   */\n    tag_836:\n        /* \"#utility.yul\":36328:36370   */\n      tag_839\n        /* \"#utility.yul\":36366:36369   */\n      dup5\n        /* \"#utility.yul\":36356:36364   */\n      dup5\n        /* \"#utility.yul\":36350:36354   */\n      dup5\n        /* \"#utility.yul\":36347:36348   */\n      0x01\n        /* \"#utility.yul\":36328:36370   */\n      tag_438\n      jump\t// in\n    tag_839:\n        /* \"#utility.yul\":36313:36370   */\n      swap3\n      pop\n      swap1\n      pop\n        /* \"#utility.yul\":36402:36406   */\n      dup2\n        /* \"#utility.yul\":36397:36400   */\n      dup5\n        /* \"#utility.yul\":36393:36407   */\n      div\n        /* \"#utility.yul\":36386:36391   */\n      dup2\n        /* \"#utility.yul\":36383:36408   */\n      gt\n        /* \"#utility.yul\":36380:36431   */\n      iszero\n      tag_840\n      jumpi\n        /* \"#utility.yul\":36411:36429   */\n      tag_841\n      tag_433\n      jump\t// in\n    tag_841:\n        /* \"#utility.yul\":36380:36431   */\n    tag_840:\n        /* \"#utility.yul\":36460:36464   */\n      dup2\n        /* \"#utility.yul\":36453:36458   */\n      dup2\n        /* \"#utility.yul\":36449:36465   */\n      mul\n        /* \"#utility.yul\":36440:36465   */\n      swap1\n      pop\n        /* \"#utility.yul\":35398:36471   */\n    tag_826:\n      swap4\n      swap3\n      pop\n      pop\n      pop\n      jump\t// out\n        /* \"#utility.yul\":36477:36762   */\n    tag_334:\n        /* \"#utility.yul\":36537:36542   */\n      0x00\n        /* \"#utility.yul\":36561:36584   */\n      tag_843\n        /* \"#utility.yul\":36579:36583   */\n      dup3\n        /* \"#utility.yul\":36561:36584   */\n      tag_398\n      jump\t// in\n    tag_843:\n        /* \"#utility.yul\":36553:36584   */\n      swap2\n      pop\n        /* \"#utility.yul\":36605:36632   */\n      tag_844\n        /* \"#utility.yul\":36623:36631   */\n      dup4\n        /* \"#utility.yul\":36605:36632   */\n      tag_398\n      jump\t// in\n    tag_844:\n        /* \"#utility.yul\":36593:36632   */\n      swap3\n      pop\n        /* \"#utility.yul\":36651:36755   */\n      tag_845\n        /* \"#utility.yul\":36688:36754   */\n      0xffffffffffffffffffffffffffffffffffffffffffffffffffffffffffffffff\n        /* \"#utility.yul\":36678:36686   */\n      dup5\n        /* \"#utility.yul\":36672:36676   */\n      dup5\n        /* \"#utility.yul\":36651:36755   */\n      tag_439\n      jump\t// in\n    tag_845:\n        /* \"#utility.yul\":36642:36755   */\n      swap1\n      pop\n        /* \"#utility.yul\":36477:36762   */\n      swap3\n      swap2\n      pop\n      pop\n      jump\t// out\n\n    auxdata: 0xa26469706673582212207f7f37e82d61a0f19b15777fed9a7961e7563053b5b292e7b7c802d1972e2ccb64736f6c63430008120033\n}\n",
				"bytecode": {
					"linkReferences": {},
					"object": "60806040523480156200001157600080fd5b506040516200323b3803806200323b833981810160405281019062000037919062000330565b33806000836200004d816200015260201b60201c565b50600073ffffffffffffffffffffffffffffffffffffffff168273ffffffffffffffffffffffffffffffffffffffff1603620000c0576040517f08c379a0000000000000000000000000000000000000000000000000000000008152600401620000b790620003c3565b60405180910390fd5b81600260006101000a81548173ffffffffffffffffffffffffffffffffffffffff021916908373ffffffffffffffffffffffffffffffffffffffff160217905550600073ffffffffffffffffffffffffffffffffffffffff168173ffffffffffffffffffffffffffffffffffffffff1614620001485762000147816200019560201b60201c565b5b5050505062000457565b806000806101000a81548173ffffffffffffffffffffffffffffffffffffffff021916908373ffffffffffffffffffffffffffffffffffffffff16021790555050565b3373ffffffffffffffffffffffffffffffffffffffff168173ffffffffffffffffffffffffffffffffffffffff160362000206576040517f08c379a0000000000000000000000000000000000000000000000000000000008152600401620001fd9062000435565b60405180910390fd5b80600360006101000a81548173ffffffffffffffffffffffffffffffffffffffff021916908373ffffffffffffffffffffffffffffffffffffffff1602179055508073ffffffffffffffffffffffffffffffffffffffff16600260009054906101000a900473ffffffffffffffffffffffffffffffffffffffff1673ffffffffffffffffffffffffffffffffffffffff167fed8889f560326eb138920d842192f0eb3dd22b4f139c87a2c57538e05bae127860405160405180910390a350565b600080fd5b600073ffffffffffffffffffffffffffffffffffffffff82169050919050565b6000620002f882620002cb565b9050919050565b6200030a81620002eb565b81146200031657600080fd5b50565b6000815190506200032a81620002ff565b92915050565b600060208284031215620003495762000348620002c6565b5b6000620003598482850162000319565b91505092915050565b600082825260208201905092915050565b7f43616e6e6f7420736574206f776e657220746f207a65726f0000000000000000600082015250565b6000620003ab60188362000362565b9150620003b88262000373565b602082019050919050565b60006020820190508181036000830152620003de816200039c565b9050919050565b7f43616e6e6f74207472616e7366657220746f2073656c66000000000000000000600082015250565b60006200041d60178362000362565b91506200042a82620003e5565b602082019050919050565b6000602082019050818103600083015262000450816200040e565b9050919050565b612dd480620004676000396000f3fe608060405234801561001057600080fd5b50600436106100b45760003560e01c8063d22b224a11610071578063d22b224a14610155578063d328a91e14610185578063d4b39175146101a3578063f2fde38b146101d3578063f7023bb6146101ef578063fffeb84e1461020b576100b4565b80630ca76175146100b95780631aa46f59146100d557806330bda99d146100f357806379ba50971461010f5780638da5cb5b14610119578063bef3a2f014610137575b600080fd5b6100d360048036038101906100ce9190611ad3565b610229565b005b6100dd610336565b6040516100ea9190611b6d565b60405180910390f35b61010d60048036038101906101089190611be6565b61033c565b005b610117610352565b005b6101216104e9565b60405161012e9190611c35565b60405180910390f35b61013f610513565b60405161014c9190611ccf565b60405180910390f35b61016f600480360381019061016a9190611e9e565b6105a1565b60405161017c9190611b6d565b60405180910390f35b61018d610750565b60405161019a9190611ccf565b60405180910390f35b6101bd60048036038101906101b89190612268565b6107eb565b6040516101ca9190612312565b60405180910390f35b6101ed60048036038101906101e8919061232d565b6108a0565b005b6102096004803603810190610204919061232d565b6108b4565b005b6102136108c8565b6040516102209190611ccf565b60405180910390f35b826001600082815260200190815260200160002060009054906101000a900473ffffffffffffffffffffffffffffffffffffffff1673ffffffffffffffffffffffffffffffffffffffff163373ffffffffffffffffffffffffffffffffffffffff16146102c2576040517fa0c5ec6300000000000000000000000000000000000000000000000000000000815260040160405180910390fd5b6001600082815260200190815260200160002060006101000a81549073ffffffffffffffffffffffffffffffffffffffff0219169055807f85e1543bf2f84fe80c6badbce3648c8539ad1df4d2b3d822938ca0538be727e660405160405180910390a2610330848484610956565b50505050565b60045481565b6103446109b5565b61034e8282610a47565b5050565b600360009054906101000a900473ffffffffffffffffffffffffffffffffffffffff1673ffffffffffffffffffffffffffffffffffffffff163373ffffffffffffffffffffffffffffffffffffffff16146103e2576040517f08c379a00000000000000000000000000000000000000000000000000000000081526004016103d9906123b7565b60405180910390fd5b6000600260009054906101000a900473ffffffffffffffffffffffffffffffffffffffff16905033600260006101000a81548173ffffffffffffffffffffffffffffffffffffffff021916908373ffffffffffffffffffffffffffffffffffffffff1602179055506000600360006101000a81548173ffffffffffffffffffffffffffffffffffffffff021916908373ffffffffffffffffffffffffffffffffffffffff1602179055503373ffffffffffffffffffffffffffffffffffffffff168173ffffffffffffffffffffffffffffffffffffffff167f8be0079c531659141344cd1fd0a4f28419497f9722a3daafe3b4186f6b6457e060405160405180910390a350565b6000600260009054906101000a900473ffffffffffffffffffffffffffffffffffffffff16905090565b6005805461052090612406565b80601f016020809104026020016040519081016040528092919081815260200182805461054c90612406565b80156105995780601f1061056e57610100808354040283529160200191610599565b820191906000526020600020905b81548152906001019060200180831161057c57829003601f168201915b505050505081565b60006105ab6109b5565b6105b36118be565b61060f6000808d8d8080601f016020809104026020016040519081016040528093929190818152602001838380828437600081840152601f19601f8201169050808301925050505050505084610b38909392919063ffffffff16565b60008989905011156106fc576000600181111561062f5761062e612437565b5b87600181111561064257610641612437565b5b036106a35761069e89898080601f016020809104026020016040519081016040528093929190818152602001838380828437600081840152601f19601f8201169050808301925050505050505082610be290919063ffffffff16565b6106fb565b6106fa89898080601f016020809104026020016040519081016040528093929190818152602001838380828437600081840152601f19601f8201169050808301925050505050505082610c5b90919063ffffffff16565b5b5b6000868690501115610728576107278686906107189190612466565b82610cd490919063ffffffff16565b5b6000610735828686610d1c565b90508060048190555080925050509998505050505050505050565b606060008054906101000a900473ffffffffffffffffffffffffffffffffffffffff1673ffffffffffffffffffffffffffffffffffffffff1663d328a91e6040518163ffffffff1660e01b8152600401600060405180830381865afa1580156107bd573d6000803e3d6000fd5b505050506040513d6000823e3d601f19601f820116820180604052508101906107e691906124eb565b905090565b60008060009054906101000a900473ffffffffffffffffffffffffffffffffffffffff1673ffffffffffffffffffffffffffffffffffffffff1663d227d2458561083488610ee1565b86866040518563ffffffff1660e01b81526004016108559493929190612561565b602060405180830381865afa158015610872573d6000803e3d6000fd5b505050506040513d601f19601f8201168201806040525081019061089691906125d9565b9050949350505050565b6108a86109b5565b6108b1816111e3565b50565b6108bc6109b5565b6108c581611311565b50565b600680546108d590612406565b80601f016020809104026020016040519081016040528092919081815260200182805461090190612406565b801561094e5780601f106109235761010080835404028352916020019161094e565b820191906000526020600020905b81548152906001019060200180831161093157829003601f168201915b505050505081565b816005908161096591906127b2565b50806006908161097591906127b2565b50827f7bab0ec163b5c132c72b8146ac4d6e067e82ed58f8b131150aa71c925891156283836040516109a8929190612884565b60405180910390a2505050565b600260009054906101000a900473ffffffffffffffffffffffffffffffffffffffff1673ffffffffffffffffffffffffffffffffffffffff163373ffffffffffffffffffffffffffffffffffffffff1614610a45576040517f08c379a0000000000000000000000000000000000000000000000000000000008152600401610a3c90612907565b60405180910390fd5b565b80600073ffffffffffffffffffffffffffffffffffffffff166001600083815260200190815260200160002060009054906101000a900473ffffffffffffffffffffffffffffffffffffffff1673ffffffffffffffffffffffffffffffffffffffff1614610ae1576040517f8b457ad200000000000000000000000000000000000000000000000000000000815260040160405180910390fd5b826001600084815260200190815260200160002060006101000a81548173ffffffffffffffffffffffffffffffffffffffff021916908373ffffffffffffffffffffffffffffffffffffffff160217905550505050565b6000815103610b73576040517f22ce3edd00000000000000000000000000000000000000000000000000000000815260040160405180910390fd5b8284600001906001811115610b8b57610b8a612437565b5b90816001811115610b9f57610b9e612437565b5b815250508184604001906000811115610bbb57610bba612437565b5b90816000811115610bcf57610bce612437565b5b8152505080846060018190525050505050565b6000815103610c1d576040517fe889636f00000000000000000000000000000000000000000000000000000000815260040160405180910390fd5b600082602001906001811115610c3657610c35612437565b5b90816001811115610c4a57610c49612437565b5b815250508082608001819052505050565b6000815103610c96576040517fe889636f00000000000000000000000000000000000000000000000000000000815260040160405180910390fd5b600182602001906001811115610caf57610cae612437565b5b90816001811115610cc357610cc2612437565b5b815250508082608001819052505050565b6000815103610d0f576040517ffe936cb700000000000000000000000000000000000000000000000000000000815260040160405180910390fd5b808260a001819052505050565b60008060008054906101000a900473ffffffffffffffffffffffffffffffffffffffff1673ffffffffffffffffffffffffffffffffffffffff166328242b0485610d6588610ee1565b866040518463ffffffff1660e01b8152600401610d8493929190612927565b6020604051808303816000875af1158015610da3573d6000803e3d6000fd5b505050506040513d601f19601f82011682018060405250810190610dc7919061297a565b905060008054906101000a900473ffffffffffffffffffffffffffffffffffffffff1673ffffffffffffffffffffffffffffffffffffffff16635ab1bd536040518163ffffffff1660e01b8152600401602060405180830381865afa158015610e34573d6000803e3d6000fd5b505050506040513d601f19601f82011682018060405250810190610e5891906129bc565b6001600083815260200190815260200160002060006101000a81548173ffffffffffffffffffffffffffffffffffffffff021916908373ffffffffffffffffffffffffffffffffffffffff160217905550807f1131472297a800fee664d1d89cfa8f7676ff07189ecc53f80bbb5f4969099db860405160405180910390a2809150509392505050565b6060610eeb611929565b610ef781610100611354565b50610f406040518060400160405280600c81526020017f636f64654c6f636174696f6e0000000000000000000000000000000000000000815250826113be90919063ffffffff16565b610f6983600001516001811115610f5a57610f59612437565b5b826113e390919063ffffffff16565b610fb16040518060400160405280600881526020017f6c616e6775616765000000000000000000000000000000000000000000000000815250826113be90919063ffffffff16565b610fda83604001516000811115610fcb57610fca612437565b5b826113e390919063ffffffff16565b6110226040518060400160405280600681526020017f736f757263650000000000000000000000000000000000000000000000000000815250826113be90919063ffffffff16565b6110398360600151826113be90919063ffffffff16565b60008360a001515111156110f75761108f6040518060400160405280600481526020017f6172677300000000000000000000000000000000000000000000000000000000815250826113be90919063ffffffff16565b61109881611413565b60005b8360a00151518110156110ec576110d98460a0015182815181106110c2576110c16129e9565b5b6020026020010151836113be90919063ffffffff16565b80806110e490612a47565b91505061109b565b506110f681611421565b5b600083608001515111156111d65761114d6040518060400160405280600f81526020017f736563726574734c6f636174696f6e0000000000000000000000000000000000815250826113be90919063ffffffff16565b6111768360200151600181111561116757611166612437565b5b826113e390919063ffffffff16565b6111be6040518060400160405280600781526020017f7365637265747300000000000000000000000000000000000000000000000000815250826113be90919063ffffffff16565b6111d583608001518261142f90919063ffffffff16565b5b8060000151915050919050565b3373ffffffffffffffffffffffffffffffffffffffff168173ffffffffffffffffffffffffffffffffffffffff1603611251576040517f08c379a000000000000000000000000000000000000000000000000000000000815260040161124890612adb565b60405180910390fd5b80600360006101000a81548173ffffffffffffffffffffffffffffffffffffffff021916908373ffffffffffffffffffffffffffffffffffffffff1602179055508073ffffffffffffffffffffffffffffffffffffffff16600260009054906101000a900473ffffffffffffffffffffffffffffffffffffffff1673ffffffffffffffffffffffffffffffffffffffff167fed8889f560326eb138920d842192f0eb3dd22b4f139c87a2c57538e05bae127860405160405180910390a350565b806000806101000a81548173ffffffffffffffffffffffffffffffffffffffff021916908373ffffffffffffffffffffffffffffffffffffffff16021790555050565b61135c611929565b600060208361136b9190612b2a565b146113975760208261137d9190612b2a565b60206113899190612b5b565b826113949190612b8f565b91505b81836020018181525050604051808452600081528281016020016040525082905092915050565b6113cb8260038351611454565b6113de81836115d990919063ffffffff16565b505050565b67ffffffffffffffff811115611402576113fd82826115fb565b61140f565b61140e82600083611454565b5b5050565b61141e816004611647565b50565b61142c816007611647565b50565b61143c8260028351611454565b61144f81836115d990919063ffffffff16565b505050565b60178167ffffffffffffffff161161148b576114858160058460ff16901b60ff16178461166990919063ffffffff16565b506115d4565b60ff8167ffffffffffffffff16116114e1576114ba601860058460ff16901b178461166990919063ffffffff16565b506114db8167ffffffffffffffff166001856116899092919063ffffffff16565b506115d3565b61ffff8167ffffffffffffffff161161153857611511601960058460ff16901b178461166990919063ffffffff16565b506115328167ffffffffffffffff166002856116899092919063ffffffff16565b506115d2565b63ffffffff8167ffffffffffffffff16116115915761156a601a60058460ff16901b178461166990919063ffffffff16565b5061158b8167ffffffffffffffff166004856116899092919063ffffffff16565b506115d1565b6115ae601b60058460ff16901b178461166990919063ffffffff16565b506115cf8167ffffffffffffffff166008856116899092919063ffffffff16565b505b5b5b5b505050565b6115e1611929565b6115f3838460000151518485516116ab565b905092915050565b61161960026005600660ff16901b178361166990919063ffffffff16565b50611643828260405160200161162f9190612bc3565b60405160208183030381529060405261142f565b5050565b611664601f60058360ff16901b178361166990919063ffffffff16565b505050565b611671611929565b611681838460000151518461179a565b905092915050565b611691611929565b6116a28485600001515185856117f0565b90509392505050565b6116b3611929565b82518211156116c157600080fd5b846020015182856116d29190612b8f565b1115611707576117068560026116f7886020015188876116f29190612b8f565b61187e565b6117019190612bde565b61189a565b5b6000808651805187602083010193508088870111156117265787860182525b60208701925050505b6020841061176d57805182526020826117489190612b8f565b91506020816117579190612b8f565b90506020846117669190612b5b565b935061172f565b60006001856020036101000a03905080198251168184511681811785525050508692505050949350505050565b6117a2611929565b836020015183106117c8576117c784600286602001516117c29190612bde565b61189a565b5b835180516020858301018481538186036117e3576001820183525b5050508390509392505050565b6117f8611929565b846020015184836118099190612b8f565b11156118315761183085600286856118219190612b8f565b61182b9190612bde565b61189a565b5b60006001836101006118439190612d53565b61184d9190612b5b565b905085518386820101858319825116178152815185880111156118705784870182525b505085915050949350505050565b60008183111561189057829050611894565b8190505b92915050565b6000826000015190506118ad8383611354565b506118b883826115d9565b50505050565b6040518060c00160405280600060018111156118dd576118dc612437565b5b8152602001600060018111156118f6576118f5612437565b5b815260200160008081111561190e5761190d612437565b5b81526020016060815260200160608152602001606081525090565b604051806040016040528060608152602001600081525090565b6000604051905090565b600080fd5b600080fd5b6000819050919050565b61196a81611957565b811461197557600080fd5b50565b60008135905061198781611961565b92915050565b600080fd5b600080fd5b6000601f19601f8301169050919050565b7f4e487b7100000000000000000000000000000000000000000000000000000000600052604160045260246000fd5b6119e082611997565b810181811067ffffffffffffffff821117156119ff576119fe6119a8565b5b80604052505050565b6000611a12611943565b9050611a1e82826119d7565b919050565b600067ffffffffffffffff821115611a3e57611a3d6119a8565b5b611a4782611997565b9050602081019050919050565b82818337600083830152505050565b6000611a76611a7184611a23565b611a08565b905082815260208101848484011115611a9257611a91611992565b5b611a9d848285611a54565b509392505050565b600082601f830112611aba57611ab961198d565b5b8135611aca848260208601611a63565b91505092915050565b600080600060608486031215611aec57611aeb61194d565b5b6000611afa86828701611978565b935050602084013567ffffffffffffffff811115611b1b57611b1a611952565b5b611b2786828701611aa5565b925050604084013567ffffffffffffffff811115611b4857611b47611952565b5b611b5486828701611aa5565b9150509250925092565b611b6781611957565b82525050565b6000602082019050611b826000830184611b5e565b92915050565b600073ffffffffffffffffffffffffffffffffffffffff82169050919050565b6000611bb382611b88565b9050919050565b611bc381611ba8565b8114611bce57600080fd5b50565b600081359050611be081611bba565b92915050565b60008060408385031215611bfd57611bfc61194d565b5b6000611c0b85828601611bd1565b9250506020611c1c85828601611978565b9150509250929050565b611c2f81611ba8565b82525050565b6000602082019050611c4a6000830184611c26565b92915050565b600081519050919050565b600082825260208201905092915050565b60005b83811015611c8a578082015181840152602081019050611c6f565b60008484015250505050565b6000611ca182611c50565b611cab8185611c5b565b9350611cbb818560208601611c6c565b611cc481611997565b840191505092915050565b60006020820190508181036000830152611ce98184611c96565b905092915050565b600080fd5b600080fd5b60008083601f840112611d1157611d1061198d565b5b8235905067ffffffffffffffff811115611d2e57611d2d611cf1565b5b602083019150836001820283011115611d4a57611d49611cf6565b5b9250929050565b60008083601f840112611d6757611d6661198d565b5b8235905067ffffffffffffffff811115611d8457611d83611cf1565b5b602083019150836001820283011115611da057611d9f611cf6565b5b9250929050565b60028110611db457600080fd5b50565b600081359050611dc681611da7565b92915050565b60008083601f840112611de257611de161198d565b5b8235905067ffffffffffffffff811115611dff57611dfe611cf1565b5b602083019150836020820283011115611e1b57611e1a611cf6565b5b9250929050565b600067ffffffffffffffff82169050919050565b611e3f81611e22565b8114611e4a57600080fd5b50565b600081359050611e5c81611e36565b92915050565b600063ffffffff82169050919050565b611e7b81611e62565b8114611e8657600080fd5b50565b600081359050611e9881611e72565b92915050565b600080600080600080600080600060c08a8c031215611ec057611ebf61194d565b5b60008a013567ffffffffffffffff811115611ede57611edd611952565b5b611eea8c828d01611cfb565b995099505060208a013567ffffffffffffffff811115611f0d57611f0c611952565b5b611f198c828d01611d51565b97509750506040611f2c8c828d01611db7565b95505060608a013567ffffffffffffffff811115611f4d57611f4c611952565b5b611f598c828d01611dcc565b94509450506080611f6c8c828d01611e4d565b92505060a0611f7d8c828d01611e89565b9150509295985092959850929598565b600080fd5b600080fd5b60018110611fa457600080fd5b50565b600081359050611fb681611f97565b92915050565b600067ffffffffffffffff821115611fd757611fd66119a8565b5b611fe082611997565b9050602081019050919050565b6000612000611ffb84611fbc565b611a08565b90508281526020810184848401111561201c5761201b611992565b5b612027848285611a54565b509392505050565b600082601f8301126120445761204361198d565b5b8135612054848260208601611fed565b91505092915050565b600067ffffffffffffffff821115612078576120776119a8565b5b602082029050602081019050919050565b600061209c6120978461205d565b611a08565b905080838252602082019050602084028301858111156120bf576120be611cf6565b5b835b8181101561210657803567ffffffffffffffff8111156120e4576120e361198d565b5b8086016120f1898261202f565b855260208501945050506020810190506120c1565b5050509392505050565b600082601f8301126121255761212461198d565b5b8135612135848260208601612089565b91505092915050565b600060c0828403121561215457612153611f8d565b5b61215e60c0611a08565b9050600061216e84828501611db7565b600083015250602061218284828501611db7565b602083015250604061219684828501611fa7565b604083015250606082013567ffffffffffffffff8111156121ba576121b9611f92565b5b6121c68482850161202f565b606083015250608082013567ffffffffffffffff8111156121ea576121e9611f92565b5b6121f684828501611aa5565b60808301525060a082013567ffffffffffffffff81111561221a57612219611f92565b5b61222684828501612110565b60a08301525092915050565b6000819050919050565b61224581612232565b811461225057600080fd5b50565b6000813590506122628161223c565b92915050565b600080600080608085870312156122825761228161194d565b5b600085013567ffffffffffffffff8111156122a05761229f611952565b5b6122ac8782880161213e565b94505060206122bd87828801611e4d565b93505060406122ce87828801611e89565b92505060606122df87828801612253565b91505092959194509250565b60006bffffffffffffffffffffffff82169050919050565b61230c816122eb565b82525050565b60006020820190506123276000830184612303565b92915050565b6000602082840312156123435761234261194d565b5b600061235184828501611bd1565b91505092915050565b600082825260208201905092915050565b7f4d7573742062652070726f706f736564206f776e657200000000000000000000600082015250565b60006123a160168361235a565b91506123ac8261236b565b602082019050919050565b600060208201905081810360008301526123d081612394565b9050919050565b7f4e487b7100000000000000000000000000000000000000000000000000000000600052602260045260246000fd5b6000600282049050600182168061241e57607f821691505b602082108103612431576124306123d7565b5b50919050565b7f4e487b7100000000000000000000000000000000000000000000000000000000600052602160045260246000fd5b6000612473368484612089565b905092915050565b600061248e61248984611a23565b611a08565b9050828152602081018484840111156124aa576124a9611992565b5b6124b5848285611c6c565b509392505050565b600082601f8301126124d2576124d161198d565b5b81516124e284826020860161247b565b91505092915050565b6000602082840312156125015761250061194d565b5b600082015167ffffffffffffffff81111561251f5761251e611952565b5b61252b848285016124bd565b91505092915050565b61253d81611e22565b82525050565b61254c81611e62565b82525050565b61255b81612232565b82525050565b60006080820190506125766000830187612534565b81810360208301526125888186611c96565b90506125976040830185612543565b6125a46060830184612552565b95945050505050565b6125b6816122eb565b81146125c157600080fd5b50565b6000815190506125d3816125ad565b92915050565b6000602082840312156125ef576125ee61194d565b5b60006125fd848285016125c4565b91505092915050565b60008190508160005260206000209050919050565b60006020601f8301049050919050565b600082821b905092915050565b6000600883026126687fffffffffffffffffffffffffffffffffffffffffffffffffffffffffffffffff8261262b565b612672868361262b565b95508019841693508086168417925050509392505050565b6000819050919050565b60006126af6126aa6126a584612232565b61268a565b612232565b9050919050565b6000819050919050565b6126c983612694565b6126dd6126d5826126b6565b848454612638565b825550505050565b600090565b6126f26126e5565b6126fd8184846126c0565b505050565b5b81811015612721576127166000826126ea565b600181019050612703565b5050565b601f8211156127665761273781612606565b6127408461261b565b8101602085101561274f578190505b61276361275b8561261b565b830182612702565b50505b505050565b600082821c905092915050565b60006127896000198460080261276b565b1980831691505092915050565b60006127a28383612778565b9150826002028217905092915050565b6127bb82611c50565b67ffffffffffffffff8111156127d4576127d36119a8565b5b6127de8254612406565b6127e9828285612725565b600060209050601f83116001811461281c576000841561280a578287015190505b6128148582612796565b86555061287c565b601f19841661282a86612606565b60005b828110156128525784890151825560018201915060208501945060208101905061282d565b8683101561286f578489015161286b601f891682612778565b8355505b6001600288020188555050505b505050505050565b6000604082019050818103600083015261289e8185611c96565b905081810360208301526128b28184611c96565b90509392505050565b7f4f6e6c792063616c6c61626c65206279206f776e657200000000000000000000600082015250565b60006128f160168361235a565b91506128fc826128bb565b602082019050919050565b60006020820190508181036000830152612920816128e4565b9050919050565b600060608201905061293c6000830186612534565b818103602083015261294e8185611c96565b905061295d6040830184612543565b949350505050565b60008151905061297481611961565b92915050565b6000602082840312156129905761298f61194d565b5b600061299e84828501612965565b91505092915050565b6000815190506129b681611bba565b92915050565b6000602082840312156129d2576129d161194d565b5b60006129e0848285016129a7565b91505092915050565b7f4e487b7100000000000000000000000000000000000000000000000000000000600052603260045260246000fd5b7f4e487b7100000000000000000000000000000000000000000000000000000000600052601160045260246000fd5b6000612a5282612232565b91507fffffffffffffffffffffffffffffffffffffffffffffffffffffffffffffffff8203612a8457612a83612a18565b5b600182019050919050565b7f43616e6e6f74207472616e7366657220746f2073656c66000000000000000000600082015250565b6000612ac560178361235a565b9150612ad082612a8f565b602082019050919050565b60006020820190508181036000830152612af481612ab8565b9050919050565b7f4e487b7100000000000000000000000000000000000000000000000000000000600052601260045260246000fd5b6000612b3582612232565b9150612b4083612232565b925082612b5057612b4f612afb565b5b828206905092915050565b6000612b6682612232565b9150612b7183612232565b9250828203905081811115612b8957612b88612a18565b5b92915050565b6000612b9a82612232565b9150612ba583612232565b9250828201905080821115612bbd57612bbc612a18565b5b92915050565b6000602082019050612bd86000830184612552565b92915050565b6000612be982612232565b9150612bf483612232565b9250828202612c0281612232565b91508282048414831517612c1957612c18612a18565b5b5092915050565b60008160011c9050919050565b6000808291508390505b6001851115612c7757808604811115612c5357612c52612a18565b5b6001851615612c625780820291505b8081029050612c7085612c20565b9450612c37565b94509492505050565b600082612c905760019050612d4c565b81612c9e5760009050612d4c565b8160018114612cb45760028114612cbe57612ced565b6001915050612d4c565b60ff841115612cd057612ccf612a18565b5b8360020a915084821115612ce757612ce6612a18565b5b50612d4c565b5060208310610133831016604e8410600b8410161715612d225782820a905083811115612d1d57612d1c612a18565b5b612d4c565b612d2f8484846001612c2d565b92509050818404811115612d4657612d45612a18565b5b81810290505b9392505050565b6000612d5e82612232565b9150612d6983612232565b9250612d967fffffffffffffffffffffffffffffffffffffffffffffffffffffffffffffffff8484612c80565b90509291505056fea26469706673582212207f7f37e82d61a0f19b15777fed9a7961e7563053b5b292e7b7c802d1972e2ccb64736f6c63430008120033",
					"opcodes": "PUSH1 0x80 PUSH1 0x40 MSTORE CALLVALUE DUP1 ISZERO PUSH3 0x11 JUMPI PUSH1 0x0 DUP1 REVERT JUMPDEST POP PUSH1 0x40 MLOAD PUSH3 0x323B CODESIZE SUB DUP1 PUSH3 0x323B DUP4 CODECOPY DUP2 DUP2 ADD PUSH1 0x40 MSTORE DUP2 ADD SWAP1 PUSH3 0x37 SWAP2 SWAP1 PUSH3 0x330 JUMP JUMPDEST CALLER DUP1 PUSH1 0x0 DUP4 PUSH3 0x4D DUP2 PUSH3 0x152 PUSH1 0x20 SHL PUSH1 0x20 SHR JUMP JUMPDEST POP PUSH1 0x0 PUSH20 0xFFFFFFFFFFFFFFFFFFFFFFFFFFFFFFFFFFFFFFFF AND DUP3 PUSH20 0xFFFFFFFFFFFFFFFFFFFFFFFFFFFFFFFFFFFFFFFF AND SUB PUSH3 0xC0 JUMPI PUSH1 0x40 MLOAD PUSH32 0x8C379A000000000000000000000000000000000000000000000000000000000 DUP2 MSTORE PUSH1 0x4 ADD PUSH3 0xB7 SWAP1 PUSH3 0x3C3 JUMP JUMPDEST PUSH1 0x40 MLOAD DUP1 SWAP2 SUB SWAP1 REVERT JUMPDEST DUP2 PUSH1 0x2 PUSH1 0x0 PUSH2 0x100 EXP DUP2 SLOAD DUP2 PUSH20 0xFFFFFFFFFFFFFFFFFFFFFFFFFFFFFFFFFFFFFFFF MUL NOT AND SWAP1 DUP4 PUSH20 0xFFFFFFFFFFFFFFFFFFFFFFFFFFFFFFFFFFFFFFFF AND MUL OR SWAP1 SSTORE POP PUSH1 0x0 PUSH20 0xFFFFFFFFFFFFFFFFFFFFFFFFFFFFFFFFFFFFFFFF AND DUP2 PUSH20 0xFFFFFFFFFFFFFFFFFFFFFFFFFFFFFFFFFFFFFFFF AND EQ PUSH3 0x148 JUMPI PUSH3 0x147 DUP2 PUSH3 0x195 PUSH1 0x20 SHL PUSH1 0x20 SHR JUMP JUMPDEST JUMPDEST POP POP POP POP PUSH3 0x457 JUMP JUMPDEST DUP1 PUSH1 0x0 DUP1 PUSH2 0x100 EXP DUP2 SLOAD DUP2 PUSH20 0xFFFFFFFFFFFFFFFFFFFFFFFFFFFFFFFFFFFFFFFF MUL NOT AND SWAP1 DUP4 PUSH20 0xFFFFFFFFFFFFFFFFFFFFFFFFFFFFFFFFFFFFFFFF AND MUL OR SWAP1 SSTORE POP POP JUMP JUMPDEST CALLER PUSH20 0xFFFFFFFFFFFFFFFFFFFFFFFFFFFFFFFFFFFFFFFF AND DUP2 PUSH20 0xFFFFFFFFFFFFFFFFFFFFFFFFFFFFFFFFFFFFFFFF AND SUB PUSH3 0x206 JUMPI PUSH1 0x40 MLOAD PUSH32 0x8C379A000000000000000000000000000000000000000000000000000000000 DUP2 MSTORE PUSH1 0x4 ADD PUSH3 0x1FD SWAP1 PUSH3 0x435 JUMP JUMPDEST PUSH1 0x40 MLOAD DUP1 SWAP2 SUB SWAP1 REVERT JUMPDEST DUP1 PUSH1 0x3 PUSH1 0x0 PUSH2 0x100 EXP DUP2 SLOAD DUP2 PUSH20 0xFFFFFFFFFFFFFFFFFFFFFFFFFFFFFFFFFFFFFFFF MUL NOT AND SWAP1 DUP4 PUSH20 0xFFFFFFFFFFFFFFFFFFFFFFFFFFFFFFFFFFFFFFFF AND MUL OR SWAP1 SSTORE POP DUP1 PUSH20 0xFFFFFFFFFFFFFFFFFFFFFFFFFFFFFFFFFFFFFFFF AND PUSH1 0x2 PUSH1 0x0 SWAP1 SLOAD SWAP1 PUSH2 0x100 EXP SWAP1 DIV PUSH20 0xFFFFFFFFFFFFFFFFFFFFFFFFFFFFFFFFFFFFFFFF AND PUSH20 0xFFFFFFFFFFFFFFFFFFFFFFFFFFFFFFFFFFFFFFFF AND PUSH32 0xED8889F560326EB138920D842192F0EB3DD22B4F139C87A2C57538E05BAE1278 PUSH1 0x40 MLOAD PUSH1 0x40 MLOAD DUP1 SWAP2 SUB SWAP1 LOG3 POP JUMP JUMPDEST PUSH1 0x0 DUP1 REVERT JUMPDEST PUSH1 0x0 PUSH20 0xFFFFFFFFFFFFFFFFFFFFFFFFFFFFFFFFFFFFFFFF DUP3 AND SWAP1 POP SWAP2 SWAP1 POP JUMP JUMPDEST PUSH1 0x0 PUSH3 0x2F8 DUP3 PUSH3 0x2CB JUMP JUMPDEST SWAP1 POP SWAP2 SWAP1 POP JUMP JUMPDEST PUSH3 0x30A DUP2 PUSH3 0x2EB JUMP JUMPDEST DUP2 EQ PUSH3 0x316 JUMPI PUSH1 0x0 DUP1 REVERT JUMPDEST POP JUMP JUMPDEST PUSH1 0x0 DUP2 MLOAD SWAP1 POP PUSH3 0x32A DUP2 PUSH3 0x2FF JUMP JUMPDEST SWAP3 SWAP2 POP POP JUMP JUMPDEST PUSH1 0x0 PUSH1 0x20 DUP3 DUP5 SUB SLT ISZERO PUSH3 0x349 JUMPI PUSH3 0x348 PUSH3 0x2C6 JUMP JUMPDEST JUMPDEST PUSH1 0x0 PUSH3 0x359 DUP5 DUP3 DUP6 ADD PUSH3 0x319 JUMP JUMPDEST SWAP2 POP POP SWAP3 SWAP2 POP POP JUMP JUMPDEST PUSH1 0x0 DUP3 DUP3 MSTORE PUSH1 0x20 DUP3 ADD SWAP1 POP SWAP3 SWAP2 POP POP JUMP JUMPDEST PUSH32 0x43616E6E6F7420736574206F776E657220746F207A65726F0000000000000000 PUSH1 0x0 DUP3 ADD MSTORE POP JUMP JUMPDEST PUSH1 0x0 PUSH3 0x3AB PUSH1 0x18 DUP4 PUSH3 0x362 JUMP JUMPDEST SWAP2 POP PUSH3 0x3B8 DUP3 PUSH3 0x373 JUMP JUMPDEST PUSH1 0x20 DUP3 ADD SWAP1 POP SWAP2 SWAP1 POP JUMP JUMPDEST PUSH1 0x0 PUSH1 0x20 DUP3 ADD SWAP1 POP DUP2 DUP2 SUB PUSH1 0x0 DUP4 ADD MSTORE PUSH3 0x3DE DUP2 PUSH3 0x39C JUMP JUMPDEST SWAP1 POP SWAP2 SWAP1 POP JUMP JUMPDEST PUSH32 0x43616E6E6F74207472616E7366657220746F2073656C66000000000000000000 PUSH1 0x0 DUP3 ADD MSTORE POP JUMP JUMPDEST PUSH1 0x0 PUSH3 0x41D PUSH1 0x17 DUP4 PUSH3 0x362 JUMP JUMPDEST SWAP2 POP PUSH3 0x42A DUP3 PUSH3 0x3E5 JUMP JUMPDEST PUSH1 0x20 DUP3 ADD SWAP1 POP SWAP2 SWAP1 POP JUMP JUMPDEST PUSH1 0x0 PUSH1 0x20 DUP3 ADD SWAP1 POP DUP2 DUP2 SUB PUSH1 0x0 DUP4 ADD MSTORE PUSH3 0x450 DUP2 PUSH3 0x40E JUMP JUMPDEST SWAP1 POP SWAP2 SWAP1 POP JUMP JUMPDEST PUSH2 0x2DD4 DUP1 PUSH3 0x467 PUSH1 0x0 CODECOPY PUSH1 0x0 RETURN INVALID PUSH1 0x80 PUSH1 0x40 MSTORE CALLVALUE DUP1 ISZERO PUSH2 0x10 JUMPI PUSH1 0x0 DUP1 REVERT JUMPDEST POP PUSH1 0x4 CALLDATASIZE LT PUSH2 0xB4 JUMPI PUSH1 0x0 CALLDATALOAD PUSH1 0xE0 SHR DUP1 PUSH4 0xD22B224A GT PUSH2 0x71 JUMPI DUP1 PUSH4 0xD22B224A EQ PUSH2 0x155 JUMPI DUP1 PUSH4 0xD328A91E EQ PUSH2 0x185 JUMPI DUP1 PUSH4 0xD4B39175 EQ PUSH2 0x1A3 JUMPI DUP1 PUSH4 0xF2FDE38B EQ PUSH2 0x1D3 JUMPI DUP1 PUSH4 0xF7023BB6 EQ PUSH2 0x1EF JUMPI DUP1 PUSH4 0xFFFEB84E EQ PUSH2 0x20B JUMPI PUSH2 0xB4 JUMP JUMPDEST DUP1 PUSH4 0xCA76175 EQ PUSH2 0xB9 JUMPI DUP1 PUSH4 0x1AA46F59 EQ PUSH2 0xD5 JUMPI DUP1 PUSH4 0x30BDA99D EQ PUSH2 0xF3 JUMPI DUP1 PUSH4 0x79BA5097 EQ PUSH2 0x10F JUMPI DUP1 PUSH4 0x8DA5CB5B EQ PUSH2 0x119 JUMPI DUP1 PUSH4 0xBEF3A2F0 EQ PUSH2 0x137 JUMPI JUMPDEST PUSH1 0x0 DUP1 REVERT JUMPDEST PUSH2 0xD3 PUSH1 0x4 DUP1 CALLDATASIZE SUB DUP2 ADD SWAP1 PUSH2 0xCE SWAP2 SWAP1 PUSH2 0x1AD3 JUMP JUMPDEST PUSH2 0x229 JUMP JUMPDEST STOP JUMPDEST PUSH2 0xDD PUSH2 0x336 JUMP JUMPDEST PUSH1 0x40 MLOAD PUSH2 0xEA SWAP2 SWAP1 PUSH2 0x1B6D JUMP JUMPDEST PUSH1 0x40 MLOAD DUP1 SWAP2 SUB SWAP1 RETURN JUMPDEST PUSH2 0x10D PUSH1 0x4 DUP1 CALLDATASIZE SUB DUP2 ADD SWAP1 PUSH2 0x108 SWAP2 SWAP1 PUSH2 0x1BE6 JUMP JUMPDEST PUSH2 0x33C JUMP JUMPDEST STOP JUMPDEST PUSH2 0x117 PUSH2 0x352 JUMP JUMPDEST STOP JUMPDEST PUSH2 0x121 PUSH2 0x4E9 JUMP JUMPDEST PUSH1 0x40 MLOAD PUSH2 0x12E SWAP2 SWAP1 PUSH2 0x1C35 JUMP JUMPDEST PUSH1 0x40 MLOAD DUP1 SWAP2 SUB SWAP1 RETURN JUMPDEST PUSH2 0x13F PUSH2 0x513 JUMP JUMPDEST PUSH1 0x40 MLOAD PUSH2 0x14C SWAP2 SWAP1 PUSH2 0x1CCF JUMP JUMPDEST PUSH1 0x40 MLOAD DUP1 SWAP2 SUB SWAP1 RETURN JUMPDEST PUSH2 0x16F PUSH1 0x4 DUP1 CALLDATASIZE SUB DUP2 ADD SWAP1 PUSH2 0x16A SWAP2 SWAP1 PUSH2 0x1E9E JUMP JUMPDEST PUSH2 0x5A1 JUMP JUMPDEST PUSH1 0x40 MLOAD PUSH2 0x17C SWAP2 SWAP1 PUSH2 0x1B6D JUMP JUMPDEST PUSH1 0x40 MLOAD DUP1 SWAP2 SUB SWAP1 RETURN JUMPDEST PUSH2 0x18D PUSH2 0x750 JUMP JUMPDEST PUSH1 0x40 MLOAD PUSH2 0x19A SWAP2 SWAP1 PUSH2 0x1CCF JUMP JUMPDEST PUSH1 0x40 MLOAD DUP1 SWAP2 SUB SWAP1 RETURN JUMPDEST PUSH2 0x1BD PUSH1 0x4 DUP1 CALLDATASIZE SUB DUP2 ADD SWAP1 PUSH2 0x1B8 SWAP2 SWAP1 PUSH2 0x2268 JUMP JUMPDEST PUSH2 0x7EB JUMP JUMPDEST PUSH1 0x40 MLOAD PUSH2 0x1CA SWAP2 SWAP1 PUSH2 0x2312 JUMP JUMPDEST PUSH1 0x40 MLOAD DUP1 SWAP2 SUB SWAP1 RETURN JUMPDEST PUSH2 0x1ED PUSH1 0x4 DUP1 CALLDATASIZE SUB DUP2 ADD SWAP1 PUSH2 0x1E8 SWAP2 SWAP1 PUSH2 0x232D JUMP JUMPDEST PUSH2 0x8A0 JUMP JUMPDEST STOP JUMPDEST PUSH2 0x209 PUSH1 0x4 DUP1 CALLDATASIZE SUB DUP2 ADD SWAP1 PUSH2 0x204 SWAP2 SWAP1 PUSH2 0x232D JUMP JUMPDEST PUSH2 0x8B4 JUMP JUMPDEST STOP JUMPDEST PUSH2 0x213 PUSH2 0x8C8 JUMP JUMPDEST PUSH1 0x40 MLOAD PUSH2 0x220 SWAP2 SWAP1 PUSH2 0x1CCF JUMP JUMPDEST PUSH1 0x40 MLOAD DUP1 SWAP2 SUB SWAP1 RETURN JUMPDEST DUP3 PUSH1 0x1 PUSH1 0x0 DUP3 DUP2 MSTORE PUSH1 0x20 ADD SWAP1 DUP2 MSTORE PUSH1 0x20 ADD PUSH1 0x0 KECCAK256 PUSH1 0x0 SWAP1 SLOAD SWAP1 PUSH2 0x100 EXP SWAP1 DIV PUSH20 0xFFFFFFFFFFFFFFFFFFFFFFFFFFFFFFFFFFFFFFFF AND PUSH20 0xFFFFFFFFFFFFFFFFFFFFFFFFFFFFFFFFFFFFFFFF AND CALLER PUSH20 0xFFFFFFFFFFFFFFFFFFFFFFFFFFFFFFFFFFFFFFFF AND EQ PUSH2 0x2C2 JUMPI PUSH1 0x40 MLOAD PUSH32 0xA0C5EC6300000000000000000000000000000000000000000000000000000000 DUP2 MSTORE PUSH1 0x4 ADD PUSH1 0x40 MLOAD DUP1 SWAP2 SUB SWAP1 REVERT JUMPDEST PUSH1 0x1 PUSH1 0x0 DUP3 DUP2 MSTORE PUSH1 0x20 ADD SWAP1 DUP2 MSTORE PUSH1 0x20 ADD PUSH1 0x0 KECCAK256 PUSH1 0x0 PUSH2 0x100 EXP DUP2 SLOAD SWAP1 PUSH20 0xFFFFFFFFFFFFFFFFFFFFFFFFFFFFFFFFFFFFFFFF MUL NOT AND SWAP1 SSTORE DUP1 PUSH32 0x85E1543BF2F84FE80C6BADBCE3648C8539AD1DF4D2B3D822938CA0538BE727E6 PUSH1 0x40 MLOAD PUSH1 0x40 MLOAD DUP1 SWAP2 SUB SWAP1 LOG2 PUSH2 0x330 DUP5 DUP5 DUP5 PUSH2 0x956 JUMP JUMPDEST POP POP POP POP JUMP JUMPDEST PUSH1 0x4 SLOAD DUP2 JUMP JUMPDEST PUSH2 0x344 PUSH2 0x9B5 JUMP JUMPDEST PUSH2 0x34E DUP3 DUP3 PUSH2 0xA47 JUMP JUMPDEST POP POP JUMP JUMPDEST PUSH1 0x3 PUSH1 0x0 SWAP1 SLOAD SWAP1 PUSH2 0x100 EXP SWAP1 DIV PUSH20 0xFFFFFFFFFFFFFFFFFFFFFFFFFFFFFFFFFFFFFFFF AND PUSH20 0xFFFFFFFFFFFFFFFFFFFFFFFFFFFFFFFFFFFFFFFF AND CALLER PUSH20 0xFFFFFFFFFFFFFFFFFFFFFFFFFFFFFFFFFFFFFFFF AND EQ PUSH2 0x3E2 JUMPI PUSH1 0x40 MLOAD PUSH32 0x8C379A000000000000000000000000000000000000000000000000000000000 DUP2 MSTORE PUSH1 0x4 ADD PUSH2 0x3D9 SWAP1 PUSH2 0x23B7 JUMP JUMPDEST PUSH1 0x40 MLOAD DUP1 SWAP2 SUB SWAP1 REVERT JUMPDEST PUSH1 0x0 PUSH1 0x2 PUSH1 0x0 SWAP1 SLOAD SWAP1 PUSH2 0x100 EXP SWAP1 DIV PUSH20 0xFFFFFFFFFFFFFFFFFFFFFFFFFFFFFFFFFFFFFFFF AND SWAP1 POP CALLER PUSH1 0x2 PUSH1 0x0 PUSH2 0x100 EXP DUP2 SLOAD DUP2 PUSH20 0xFFFFFFFFFFFFFFFFFFFFFFFFFFFFFFFFFFFFFFFF MUL NOT AND SWAP1 DUP4 PUSH20 0xFFFFFFFFFFFFFFFFFFFFFFFFFFFFFFFFFFFFFFFF AND MUL OR SWAP1 SSTORE POP PUSH1 0x0 PUSH1 0x3 PUSH1 0x0 PUSH2 0x100 EXP DUP2 SLOAD DUP2 PUSH20 0xFFFFFFFFFFFFFFFFFFFFFFFFFFFFFFFFFFFFFFFF MUL NOT AND SWAP1 DUP4 PUSH20 0xFFFFFFFFFFFFFFFFFFFFFFFFFFFFFFFFFFFFFFFF AND MUL OR SWAP1 SSTORE POP CALLER PUSH20 0xFFFFFFFFFFFFFFFFFFFFFFFFFFFFFFFFFFFFFFFF AND DUP2 PUSH20 0xFFFFFFFFFFFFFFFFFFFFFFFFFFFFFFFFFFFFFFFF AND PUSH32 0x8BE0079C531659141344CD1FD0A4F28419497F9722A3DAAFE3B4186F6B6457E0 PUSH1 0x40 MLOAD PUSH1 0x40 MLOAD DUP1 SWAP2 SUB SWAP1 LOG3 POP JUMP JUMPDEST PUSH1 0x0 PUSH1 0x2 PUSH1 0x0 SWAP1 SLOAD SWAP1 PUSH2 0x100 EXP SWAP1 DIV PUSH20 0xFFFFFFFFFFFFFFFFFFFFFFFFFFFFFFFFFFFFFFFF AND SWAP1 POP SWAP1 JUMP JUMPDEST PUSH1 0x5 DUP1 SLOAD PUSH2 0x520 SWAP1 PUSH2 0x2406 JUMP JUMPDEST DUP1 PUSH1 0x1F ADD PUSH1 0x20 DUP1 SWAP2 DIV MUL PUSH1 0x20 ADD PUSH1 0x40 MLOAD SWAP1 DUP2 ADD PUSH1 0x40 MSTORE DUP1 SWAP3 SWAP2 SWAP1 DUP2 DUP2 MSTORE PUSH1 0x20 ADD DUP3 DUP1 SLOAD PUSH2 0x54C SWAP1 PUSH2 0x2406 JUMP JUMPDEST DUP1 ISZERO PUSH2 0x599 JUMPI DUP1 PUSH1 0x1F LT PUSH2 0x56E JUMPI PUSH2 0x100 DUP1 DUP4 SLOAD DIV MUL DUP4 MSTORE SWAP2 PUSH1 0x20 ADD SWAP2 PUSH2 0x599 JUMP JUMPDEST DUP3 ADD SWAP2 SWAP1 PUSH1 0x0 MSTORE PUSH1 0x20 PUSH1 0x0 KECCAK256 SWAP1 JUMPDEST DUP2 SLOAD DUP2 MSTORE SWAP1 PUSH1 0x1 ADD SWAP1 PUSH1 0x20 ADD DUP1 DUP4 GT PUSH2 0x57C JUMPI DUP3 SWAP1 SUB PUSH1 0x1F AND DUP3 ADD SWAP2 JUMPDEST POP POP POP POP POP DUP2 JUMP JUMPDEST PUSH1 0x0 PUSH2 0x5AB PUSH2 0x9B5 JUMP JUMPDEST PUSH2 0x5B3 PUSH2 0x18BE JUMP JUMPDEST PUSH2 0x60F PUSH1 0x0 DUP1 DUP14 DUP14 DUP1 DUP1 PUSH1 0x1F ADD PUSH1 0x20 DUP1 SWAP2 DIV MUL PUSH1 0x20 ADD PUSH1 0x40 MLOAD SWAP1 DUP2 ADD PUSH1 0x40 MSTORE DUP1 SWAP4 SWAP3 SWAP2 SWAP1 DUP2 DUP2 MSTORE PUSH1 0x20 ADD DUP4 DUP4 DUP1 DUP3 DUP5 CALLDATACOPY PUSH1 0x0 DUP2 DUP5 ADD MSTORE PUSH1 0x1F NOT PUSH1 0x1F DUP3 ADD AND SWAP1 POP DUP1 DUP4 ADD SWAP3 POP POP POP POP POP POP POP DUP5 PUSH2 0xB38 SWAP1 SWAP4 SWAP3 SWAP2 SWAP1 PUSH4 0xFFFFFFFF AND JUMP JUMPDEST PUSH1 0x0 DUP10 DUP10 SWAP1 POP GT ISZERO PUSH2 0x6FC JUMPI PUSH1 0x0 PUSH1 0x1 DUP2 GT ISZERO PUSH2 0x62F JUMPI PUSH2 0x62E PUSH2 0x2437 JUMP JUMPDEST JUMPDEST DUP8 PUSH1 0x1 DUP2 GT ISZERO PUSH2 0x642 JUMPI PUSH2 0x641 PUSH2 0x2437 JUMP JUMPDEST JUMPDEST SUB PUSH2 0x6A3 JUMPI PUSH2 0x69E DUP10 DUP10 DUP1 DUP1 PUSH1 0x1F ADD PUSH1 0x20 DUP1 SWAP2 DIV MUL PUSH1 0x20 ADD PUSH1 0x40 MLOAD SWAP1 DUP2 ADD PUSH1 0x40 MSTORE DUP1 SWAP4 SWAP3 SWAP2 SWAP1 DUP2 DUP2 MSTORE PUSH1 0x20 ADD DUP4 DUP4 DUP1 DUP3 DUP5 CALLDATACOPY PUSH1 0x0 DUP2 DUP5 ADD MSTORE PUSH1 0x1F NOT PUSH1 0x1F DUP3 ADD AND SWAP1 POP DUP1 DUP4 ADD SWAP3 POP POP POP POP POP POP POP DUP3 PUSH2 0xBE2 SWAP1 SWAP2 SWAP1 PUSH4 0xFFFFFFFF AND JUMP JUMPDEST PUSH2 0x6FB JUMP JUMPDEST PUSH2 0x6FA DUP10 DUP10 DUP1 DUP1 PUSH1 0x1F ADD PUSH1 0x20 DUP1 SWAP2 DIV MUL PUSH1 0x20 ADD PUSH1 0x40 MLOAD SWAP1 DUP2 ADD PUSH1 0x40 MSTORE DUP1 SWAP4 SWAP3 SWAP2 SWAP1 DUP2 DUP2 MSTORE PUSH1 0x20 ADD DUP4 DUP4 DUP1 DUP3 DUP5 CALLDATACOPY PUSH1 0x0 DUP2 DUP5 ADD MSTORE PUSH1 0x1F NOT PUSH1 0x1F DUP3 ADD AND SWAP1 POP DUP1 DUP4 ADD SWAP3 POP POP POP POP POP POP POP DUP3 PUSH2 0xC5B SWAP1 SWAP2 SWAP1 PUSH4 0xFFFFFFFF AND JUMP JUMPDEST JUMPDEST JUMPDEST PUSH1 0x0 DUP7 DUP7 SWAP1 POP GT ISZERO PUSH2 0x728 JUMPI PUSH2 0x727 DUP7 DUP7 SWAP1 PUSH2 0x718 SWAP2 SWAP1 PUSH2 0x2466 JUMP JUMPDEST DUP3 PUSH2 0xCD4 SWAP1 SWAP2 SWAP1 PUSH4 0xFFFFFFFF AND JUMP JUMPDEST JUMPDEST PUSH1 0x0 PUSH2 0x735 DUP3 DUP7 DUP7 PUSH2 0xD1C JUMP JUMPDEST SWAP1 POP DUP1 PUSH1 0x4 DUP2 SWAP1 SSTORE POP DUP1 SWAP3 POP POP POP SWAP10 SWAP9 POP POP POP POP POP POP POP POP POP JUMP JUMPDEST PUSH1 0x60 PUSH1 0x0 DUP1 SLOAD SWAP1 PUSH2 0x100 EXP SWAP1 DIV PUSH20 0xFFFFFFFFFFFFFFFFFFFFFFFFFFFFFFFFFFFFFFFF AND PUSH20 0xFFFFFFFFFFFFFFFFFFFFFFFFFFFFFFFFFFFFFFFF AND PUSH4 0xD328A91E PUSH1 0x40 MLOAD DUP2 PUSH4 0xFFFFFFFF AND PUSH1 0xE0 SHL DUP2 MSTORE PUSH1 0x4 ADD PUSH1 0x0 PUSH1 0x40 MLOAD DUP1 DUP4 SUB DUP2 DUP7 GAS STATICCALL ISZERO DUP1 ISZERO PUSH2 0x7BD JUMPI RETURNDATASIZE PUSH1 0x0 DUP1 RETURNDATACOPY RETURNDATASIZE PUSH1 0x0 REVERT JUMPDEST POP POP POP POP PUSH1 0x40 MLOAD RETURNDATASIZE PUSH1 0x0 DUP3 RETURNDATACOPY RETURNDATASIZE PUSH1 0x1F NOT PUSH1 0x1F DUP3 ADD AND DUP3 ADD DUP1 PUSH1 0x40 MSTORE POP DUP2 ADD SWAP1 PUSH2 0x7E6 SWAP2 SWAP1 PUSH2 0x24EB JUMP JUMPDEST SWAP1 POP SWAP1 JUMP JUMPDEST PUSH1 0x0 DUP1 PUSH1 0x0 SWAP1 SLOAD SWAP1 PUSH2 0x100 EXP SWAP1 DIV PUSH20 0xFFFFFFFFFFFFFFFFFFFFFFFFFFFFFFFFFFFFFFFF AND PUSH20 0xFFFFFFFFFFFFFFFFFFFFFFFFFFFFFFFFFFFFFFFF AND PUSH4 0xD227D245 DUP6 PUSH2 0x834 DUP9 PUSH2 0xEE1 JUMP JUMPDEST DUP7 DUP7 PUSH1 0x40 MLOAD DUP6 PUSH4 0xFFFFFFFF AND PUSH1 0xE0 SHL DUP2 MSTORE PUSH1 0x4 ADD PUSH2 0x855 SWAP5 SWAP4 SWAP3 SWAP2 SWAP1 PUSH2 0x2561 JUMP JUMPDEST PUSH1 0x20 PUSH1 0x40 MLOAD DUP1 DUP4 SUB DUP2 DUP7 GAS STATICCALL ISZERO DUP1 ISZERO PUSH2 0x872 JUMPI RETURNDATASIZE PUSH1 0x0 DUP1 RETURNDATACOPY RETURNDATASIZE PUSH1 0x0 REVERT JUMPDEST POP POP POP POP PUSH1 0x40 MLOAD RETURNDATASIZE PUSH1 0x1F NOT PUSH1 0x1F DUP3 ADD AND DUP3 ADD DUP1 PUSH1 0x40 MSTORE POP DUP2 ADD SWAP1 PUSH2 0x896 SWAP2 SWAP1 PUSH2 0x25D9 JUMP JUMPDEST SWAP1 POP SWAP5 SWAP4 POP POP POP POP JUMP JUMPDEST PUSH2 0x8A8 PUSH2 0x9B5 JUMP JUMPDEST PUSH2 0x8B1 DUP2 PUSH2 0x11E3 JUMP JUMPDEST POP JUMP JUMPDEST PUSH2 0x8BC PUSH2 0x9B5 JUMP JUMPDEST PUSH2 0x8C5 DUP2 PUSH2 0x1311 JUMP JUMPDEST POP JUMP JUMPDEST PUSH1 0x6 DUP1 SLOAD PUSH2 0x8D5 SWAP1 PUSH2 0x2406 JUMP JUMPDEST DUP1 PUSH1 0x1F ADD PUSH1 0x20 DUP1 SWAP2 DIV MUL PUSH1 0x20 ADD PUSH1 0x40 MLOAD SWAP1 DUP2 ADD PUSH1 0x40 MSTORE DUP1 SWAP3 SWAP2 SWAP1 DUP2 DUP2 MSTORE PUSH1 0x20 ADD DUP3 DUP1 SLOAD PUSH2 0x901 SWAP1 PUSH2 0x2406 JUMP JUMPDEST DUP1 ISZERO PUSH2 0x94E JUMPI DUP1 PUSH1 0x1F LT PUSH2 0x923 JUMPI PUSH2 0x100 DUP1 DUP4 SLOAD DIV MUL DUP4 MSTORE SWAP2 PUSH1 0x20 ADD SWAP2 PUSH2 0x94E JUMP JUMPDEST DUP3 ADD SWAP2 SWAP1 PUSH1 0x0 MSTORE PUSH1 0x20 PUSH1 0x0 KECCAK256 SWAP1 JUMPDEST DUP2 SLOAD DUP2 MSTORE SWAP1 PUSH1 0x1 ADD SWAP1 PUSH1 0x20 ADD DUP1 DUP4 GT PUSH2 0x931 JUMPI DUP3 SWAP1 SUB PUSH1 0x1F AND DUP3 ADD SWAP2 JUMPDEST POP POP POP POP POP DUP2 JUMP JUMPDEST DUP2 PUSH1 0x5 SWAP1 DUP2 PUSH2 0x965 SWAP2 SWAP1 PUSH2 0x27B2 JUMP JUMPDEST POP DUP1 PUSH1 0x6 SWAP1 DUP2 PUSH2 0x975 SWAP2 SWAP1 PUSH2 0x27B2 JUMP JUMPDEST POP DUP3 PUSH32 0x7BAB0EC163B5C132C72B8146AC4D6E067E82ED58F8B131150AA71C9258911562 DUP4 DUP4 PUSH1 0x40 MLOAD PUSH2 0x9A8 SWAP3 SWAP2 SWAP1 PUSH2 0x2884 JUMP JUMPDEST PUSH1 0x40 MLOAD DUP1 SWAP2 SUB SWAP1 LOG2 POP POP POP JUMP JUMPDEST PUSH1 0x2 PUSH1 0x0 SWAP1 SLOAD SWAP1 PUSH2 0x100 EXP SWAP1 DIV PUSH20 0xFFFFFFFFFFFFFFFFFFFFFFFFFFFFFFFFFFFFFFFF AND PUSH20 0xFFFFFFFFFFFFFFFFFFFFFFFFFFFFFFFFFFFFFFFF AND CALLER PUSH20 0xFFFFFFFFFFFFFFFFFFFFFFFFFFFFFFFFFFFFFFFF AND EQ PUSH2 0xA45 JUMPI PUSH1 0x40 MLOAD PUSH32 0x8C379A000000000000000000000000000000000000000000000000000000000 DUP2 MSTORE PUSH1 0x4 ADD PUSH2 0xA3C SWAP1 PUSH2 0x2907 JUMP JUMPDEST PUSH1 0x40 MLOAD DUP1 SWAP2 SUB SWAP1 REVERT JUMPDEST JUMP JUMPDEST DUP1 PUSH1 0x0 PUSH20 0xFFFFFFFFFFFFFFFFFFFFFFFFFFFFFFFFFFFFFFFF AND PUSH1 0x1 PUSH1 0x0 DUP4 DUP2 MSTORE PUSH1 0x20 ADD SWAP1 DUP2 MSTORE PUSH1 0x20 ADD PUSH1 0x0 KECCAK256 PUSH1 0x0 SWAP1 SLOAD SWAP1 PUSH2 0x100 EXP SWAP1 DIV PUSH20 0xFFFFFFFFFFFFFFFFFFFFFFFFFFFFFFFFFFFFFFFF AND PUSH20 0xFFFFFFFFFFFFFFFFFFFFFFFFFFFFFFFFFFFFFFFF AND EQ PUSH2 0xAE1 JUMPI PUSH1 0x40 MLOAD PUSH32 0x8B457AD200000000000000000000000000000000000000000000000000000000 DUP2 MSTORE PUSH1 0x4 ADD PUSH1 0x40 MLOAD DUP1 SWAP2 SUB SWAP1 REVERT JUMPDEST DUP3 PUSH1 0x1 PUSH1 0x0 DUP5 DUP2 MSTORE PUSH1 0x20 ADD SWAP1 DUP2 MSTORE PUSH1 0x20 ADD PUSH1 0x0 KECCAK256 PUSH1 0x0 PUSH2 0x100 EXP DUP2 SLOAD DUP2 PUSH20 0xFFFFFFFFFFFFFFFFFFFFFFFFFFFFFFFFFFFFFFFF MUL NOT AND SWAP1 DUP4 PUSH20 0xFFFFFFFFFFFFFFFFFFFFFFFFFFFFFFFFFFFFFFFF AND MUL OR SWAP1 SSTORE POP POP POP POP JUMP JUMPDEST PUSH1 0x0 DUP2 MLOAD SUB PUSH2 0xB73 JUMPI PUSH1 0x40 MLOAD PUSH32 0x22CE3EDD00000000000000000000000000000000000000000000000000000000 DUP2 MSTORE PUSH1 0x4 ADD PUSH1 0x40 MLOAD DUP1 SWAP2 SUB SWAP1 REVERT JUMPDEST DUP3 DUP5 PUSH1 0x0 ADD SWAP1 PUSH1 0x1 DUP2 GT ISZERO PUSH2 0xB8B JUMPI PUSH2 0xB8A PUSH2 0x2437 JUMP JUMPDEST JUMPDEST SWAP1 DUP2 PUSH1 0x1 DUP2 GT ISZERO PUSH2 0xB9F JUMPI PUSH2 0xB9E PUSH2 0x2437 JUMP JUMPDEST JUMPDEST DUP2 MSTORE POP POP DUP2 DUP5 PUSH1 0x40 ADD SWAP1 PUSH1 0x0 DUP2 GT ISZERO PUSH2 0xBBB JUMPI PUSH2 0xBBA PUSH2 0x2437 JUMP JUMPDEST JUMPDEST SWAP1 DUP2 PUSH1 0x0 DUP2 GT ISZERO PUSH2 0xBCF JUMPI PUSH2 0xBCE PUSH2 0x2437 JUMP JUMPDEST JUMPDEST DUP2 MSTORE POP POP DUP1 DUP5 PUSH1 0x60 ADD DUP2 SWAP1 MSTORE POP POP POP POP POP JUMP JUMPDEST PUSH1 0x0 DUP2 MLOAD SUB PUSH2 0xC1D JUMPI PUSH1 0x40 MLOAD PUSH32 0xE889636F00000000000000000000000000000000000000000000000000000000 DUP2 MSTORE PUSH1 0x4 ADD PUSH1 0x40 MLOAD DUP1 SWAP2 SUB SWAP1 REVERT JUMPDEST PUSH1 0x0 DUP3 PUSH1 0x20 ADD SWAP1 PUSH1 0x1 DUP2 GT ISZERO PUSH2 0xC36 JUMPI PUSH2 0xC35 PUSH2 0x2437 JUMP JUMPDEST JUMPDEST SWAP1 DUP2 PUSH1 0x1 DUP2 GT ISZERO PUSH2 0xC4A JUMPI PUSH2 0xC49 PUSH2 0x2437 JUMP JUMPDEST JUMPDEST DUP2 MSTORE POP POP DUP1 DUP3 PUSH1 0x80 ADD DUP2 SWAP1 MSTORE POP POP POP JUMP JUMPDEST PUSH1 0x0 DUP2 MLOAD SUB PUSH2 0xC96 JUMPI PUSH1 0x40 MLOAD PUSH32 0xE889636F00000000000000000000000000000000000000000000000000000000 DUP2 MSTORE PUSH1 0x4 ADD PUSH1 0x40 MLOAD DUP1 SWAP2 SUB SWAP1 REVERT JUMPDEST PUSH1 0x1 DUP3 PUSH1 0x20 ADD SWAP1 PUSH1 0x1 DUP2 GT ISZERO PUSH2 0xCAF JUMPI PUSH2 0xCAE PUSH2 0x2437 JUMP JUMPDEST JUMPDEST SWAP1 DUP2 PUSH1 0x1 DUP2 GT ISZERO PUSH2 0xCC3 JUMPI PUSH2 0xCC2 PUSH2 0x2437 JUMP JUMPDEST JUMPDEST DUP2 MSTORE POP POP DUP1 DUP3 PUSH1 0x80 ADD DUP2 SWAP1 MSTORE POP POP POP JUMP JUMPDEST PUSH1 0x0 DUP2 MLOAD SUB PUSH2 0xD0F JUMPI PUSH1 0x40 MLOAD PUSH32 0xFE936CB700000000000000000000000000000000000000000000000000000000 DUP2 MSTORE PUSH1 0x4 ADD PUSH1 0x40 MLOAD DUP1 SWAP2 SUB SWAP1 REVERT JUMPDEST DUP1 DUP3 PUSH1 0xA0 ADD DUP2 SWAP1 MSTORE POP POP POP JUMP JUMPDEST PUSH1 0x0 DUP1 PUSH1 0x0 DUP1 SLOAD SWAP1 PUSH2 0x100 EXP SWAP1 DIV PUSH20 0xFFFFFFFFFFFFFFFFFFFFFFFFFFFFFFFFFFFFFFFF AND PUSH20 0xFFFFFFFFFFFFFFFFFFFFFFFFFFFFFFFFFFFFFFFF AND PUSH4 0x28242B04 DUP6 PUSH2 0xD65 DUP9 PUSH2 0xEE1 JUMP JUMPDEST DUP7 PUSH1 0x40 MLOAD DUP5 PUSH4 0xFFFFFFFF AND PUSH1 0xE0 SHL DUP2 MSTORE PUSH1 0x4 ADD PUSH2 0xD84 SWAP4 SWAP3 SWAP2 SWAP1 PUSH2 0x2927 JUMP JUMPDEST PUSH1 0x20 PUSH1 0x40 MLOAD DUP1 DUP4 SUB DUP2 PUSH1 0x0 DUP8 GAS CALL ISZERO DUP1 ISZERO PUSH2 0xDA3 JUMPI RETURNDATASIZE PUSH1 0x0 DUP1 RETURNDATACOPY RETURNDATASIZE PUSH1 0x0 REVERT JUMPDEST POP POP POP POP PUSH1 0x40 MLOAD RETURNDATASIZE PUSH1 0x1F NOT PUSH1 0x1F DUP3 ADD AND DUP3 ADD DUP1 PUSH1 0x40 MSTORE POP DUP2 ADD SWAP1 PUSH2 0xDC7 SWAP2 SWAP1 PUSH2 0x297A JUMP JUMPDEST SWAP1 POP PUSH1 0x0 DUP1 SLOAD SWAP1 PUSH2 0x100 EXP SWAP1 DIV PUSH20 0xFFFFFFFFFFFFFFFFFFFFFFFFFFFFFFFFFFFFFFFF AND PUSH20 0xFFFFFFFFFFFFFFFFFFFFFFFFFFFFFFFFFFFFFFFF AND PUSH4 0x5AB1BD53 PUSH1 0x40 MLOAD DUP2 PUSH4 0xFFFFFFFF AND PUSH1 0xE0 SHL DUP2 MSTORE PUSH1 0x4 ADD PUSH1 0x20 PUSH1 0x40 MLOAD DUP1 DUP4 SUB DUP2 DUP7 GAS STATICCALL ISZERO DUP1 ISZERO PUSH2 0xE34 JUMPI RETURNDATASIZE PUSH1 0x0 DUP1 RETURNDATACOPY RETURNDATASIZE PUSH1 0x0 REVERT JUMPDEST POP POP POP POP PUSH1 0x40 MLOAD RETURNDATASIZE PUSH1 0x1F NOT PUSH1 0x1F DUP3 ADD AND DUP3 ADD DUP1 PUSH1 0x40 MSTORE POP DUP2 ADD SWAP1 PUSH2 0xE58 SWAP2 SWAP1 PUSH2 0x29BC JUMP JUMPDEST PUSH1 0x1 PUSH1 0x0 DUP4 DUP2 MSTORE PUSH1 0x20 ADD SWAP1 DUP2 MSTORE PUSH1 0x20 ADD PUSH1 0x0 KECCAK256 PUSH1 0x0 PUSH2 0x100 EXP DUP2 SLOAD DUP2 PUSH20 0xFFFFFFFFFFFFFFFFFFFFFFFFFFFFFFFFFFFFFFFF MUL NOT AND SWAP1 DUP4 PUSH20 0xFFFFFFFFFFFFFFFFFFFFFFFFFFFFFFFFFFFFFFFF AND MUL OR SWAP1 SSTORE POP DUP1 PUSH32 0x1131472297A800FEE664D1D89CFA8F7676FF07189ECC53F80BBB5F4969099DB8 PUSH1 0x40 MLOAD PUSH1 0x40 MLOAD DUP1 SWAP2 SUB SWAP1 LOG2 DUP1 SWAP2 POP POP SWAP4 SWAP3 POP POP POP JUMP JUMPDEST PUSH1 0x60 PUSH2 0xEEB PUSH2 0x1929 JUMP JUMPDEST PUSH2 0xEF7 DUP2 PUSH2 0x100 PUSH2 0x1354 JUMP JUMPDEST POP PUSH2 0xF40 PUSH1 0x40 MLOAD DUP1 PUSH1 0x40 ADD PUSH1 0x40 MSTORE DUP1 PUSH1 0xC DUP2 MSTORE PUSH1 0x20 ADD PUSH32 0x636F64654C6F636174696F6E0000000000000000000000000000000000000000 DUP2 MSTORE POP DUP3 PUSH2 0x13BE SWAP1 SWAP2 SWAP1 PUSH4 0xFFFFFFFF AND JUMP JUMPDEST PUSH2 0xF69 DUP4 PUSH1 0x0 ADD MLOAD PUSH1 0x1 DUP2 GT ISZERO PUSH2 0xF5A JUMPI PUSH2 0xF59 PUSH2 0x2437 JUMP JUMPDEST JUMPDEST DUP3 PUSH2 0x13E3 SWAP1 SWAP2 SWAP1 PUSH4 0xFFFFFFFF AND JUMP JUMPDEST PUSH2 0xFB1 PUSH1 0x40 MLOAD DUP1 PUSH1 0x40 ADD PUSH1 0x40 MSTORE DUP1 PUSH1 0x8 DUP2 MSTORE PUSH1 0x20 ADD PUSH32 0x6C616E6775616765000000000000000000000000000000000000000000000000 DUP2 MSTORE POP DUP3 PUSH2 0x13BE SWAP1 SWAP2 SWAP1 PUSH4 0xFFFFFFFF AND JUMP JUMPDEST PUSH2 0xFDA DUP4 PUSH1 0x40 ADD MLOAD PUSH1 0x0 DUP2 GT ISZERO PUSH2 0xFCB JUMPI PUSH2 0xFCA PUSH2 0x2437 JUMP JUMPDEST JUMPDEST DUP3 PUSH2 0x13E3 SWAP1 SWAP2 SWAP1 PUSH4 0xFFFFFFFF AND JUMP JUMPDEST PUSH2 0x1022 PUSH1 0x40 MLOAD DUP1 PUSH1 0x40 ADD PUSH1 0x40 MSTORE DUP1 PUSH1 0x6 DUP2 MSTORE PUSH1 0x20 ADD PUSH32 0x736F757263650000000000000000000000000000000000000000000000000000 DUP2 MSTORE POP DUP3 PUSH2 0x13BE SWAP1 SWAP2 SWAP1 PUSH4 0xFFFFFFFF AND JUMP JUMPDEST PUSH2 0x1039 DUP4 PUSH1 0x60 ADD MLOAD DUP3 PUSH2 0x13BE SWAP1 SWAP2 SWAP1 PUSH4 0xFFFFFFFF AND JUMP JUMPDEST PUSH1 0x0 DUP4 PUSH1 0xA0 ADD MLOAD MLOAD GT ISZERO PUSH2 0x10F7 JUMPI PUSH2 0x108F PUSH1 0x40 MLOAD DUP1 PUSH1 0x40 ADD PUSH1 0x40 MSTORE DUP1 PUSH1 0x4 DUP2 MSTORE PUSH1 0x20 ADD PUSH32 0x6172677300000000000000000000000000000000000000000000000000000000 DUP2 MSTORE POP DUP3 PUSH2 0x13BE SWAP1 SWAP2 SWAP1 PUSH4 0xFFFFFFFF AND JUMP JUMPDEST PUSH2 0x1098 DUP2 PUSH2 0x1413 JUMP JUMPDEST PUSH1 0x0 JUMPDEST DUP4 PUSH1 0xA0 ADD MLOAD MLOAD DUP2 LT ISZERO PUSH2 0x10EC JUMPI PUSH2 0x10D9 DUP5 PUSH1 0xA0 ADD MLOAD DUP3 DUP2 MLOAD DUP2 LT PUSH2 0x10C2 JUMPI PUSH2 0x10C1 PUSH2 0x29E9 JUMP JUMPDEST JUMPDEST PUSH1 0x20 MUL PUSH1 0x20 ADD ADD MLOAD DUP4 PUSH2 0x13BE SWAP1 SWAP2 SWAP1 PUSH4 0xFFFFFFFF AND JUMP JUMPDEST DUP1 DUP1 PUSH2 0x10E4 SWAP1 PUSH2 0x2A47 JUMP JUMPDEST SWAP2 POP POP PUSH2 0x109B JUMP JUMPDEST POP PUSH2 0x10F6 DUP2 PUSH2 0x1421 JUMP JUMPDEST JUMPDEST PUSH1 0x0 DUP4 PUSH1 0x80 ADD MLOAD MLOAD GT ISZERO PUSH2 0x11D6 JUMPI PUSH2 0x114D PUSH1 0x40 MLOAD DUP1 PUSH1 0x40 ADD PUSH1 0x40 MSTORE DUP1 PUSH1 0xF DUP2 MSTORE PUSH1 0x20 ADD PUSH32 0x736563726574734C6F636174696F6E0000000000000000000000000000000000 DUP2 MSTORE POP DUP3 PUSH2 0x13BE SWAP1 SWAP2 SWAP1 PUSH4 0xFFFFFFFF AND JUMP JUMPDEST PUSH2 0x1176 DUP4 PUSH1 0x20 ADD MLOAD PUSH1 0x1 DUP2 GT ISZERO PUSH2 0x1167 JUMPI PUSH2 0x1166 PUSH2 0x2437 JUMP JUMPDEST JUMPDEST DUP3 PUSH2 0x13E3 SWAP1 SWAP2 SWAP1 PUSH4 0xFFFFFFFF AND JUMP JUMPDEST PUSH2 0x11BE PUSH1 0x40 MLOAD DUP1 PUSH1 0x40 ADD PUSH1 0x40 MSTORE DUP1 PUSH1 0x7 DUP2 MSTORE PUSH1 0x20 ADD PUSH32 0x7365637265747300000000000000000000000000000000000000000000000000 DUP2 MSTORE POP DUP3 PUSH2 0x13BE SWAP1 SWAP2 SWAP1 PUSH4 0xFFFFFFFF AND JUMP JUMPDEST PUSH2 0x11D5 DUP4 PUSH1 0x80 ADD MLOAD DUP3 PUSH2 0x142F SWAP1 SWAP2 SWAP1 PUSH4 0xFFFFFFFF AND JUMP JUMPDEST JUMPDEST DUP1 PUSH1 0x0 ADD MLOAD SWAP2 POP POP SWAP2 SWAP1 POP JUMP JUMPDEST CALLER PUSH20 0xFFFFFFFFFFFFFFFFFFFFFFFFFFFFFFFFFFFFFFFF AND DUP2 PUSH20 0xFFFFFFFFFFFFFFFFFFFFFFFFFFFFFFFFFFFFFFFF AND SUB PUSH2 0x1251 JUMPI PUSH1 0x40 MLOAD PUSH32 0x8C379A000000000000000000000000000000000000000000000000000000000 DUP2 MSTORE PUSH1 0x4 ADD PUSH2 0x1248 SWAP1 PUSH2 0x2ADB JUMP JUMPDEST PUSH1 0x40 MLOAD DUP1 SWAP2 SUB SWAP1 REVERT JUMPDEST DUP1 PUSH1 0x3 PUSH1 0x0 PUSH2 0x100 EXP DUP2 SLOAD DUP2 PUSH20 0xFFFFFFFFFFFFFFFFFFFFFFFFFFFFFFFFFFFFFFFF MUL NOT AND SWAP1 DUP4 PUSH20 0xFFFFFFFFFFFFFFFFFFFFFFFFFFFFFFFFFFFFFFFF AND MUL OR SWAP1 SSTORE POP DUP1 PUSH20 0xFFFFFFFFFFFFFFFFFFFFFFFFFFFFFFFFFFFFFFFF AND PUSH1 0x2 PUSH1 0x0 SWAP1 SLOAD SWAP1 PUSH2 0x100 EXP SWAP1 DIV PUSH20 0xFFFFFFFFFFFFFFFFFFFFFFFFFFFFFFFFFFFFFFFF AND PUSH20 0xFFFFFFFFFFFFFFFFFFFFFFFFFFFFFFFFFFFFFFFF AND PUSH32 0xED8889F560326EB138920D842192F0EB3DD22B4F139C87A2C57538E05BAE1278 PUSH1 0x40 MLOAD PUSH1 0x40 MLOAD DUP1 SWAP2 SUB SWAP1 LOG3 POP JUMP JUMPDEST DUP1 PUSH1 0x0 DUP1 PUSH2 0x100 EXP DUP2 SLOAD DUP2 PUSH20 0xFFFFFFFFFFFFFFFFFFFFFFFFFFFFFFFFFFFFFFFF MUL NOT AND SWAP1 DUP4 PUSH20 0xFFFFFFFFFFFFFFFFFFFFFFFFFFFFFFFFFFFFFFFF AND MUL OR SWAP1 SSTORE POP POP JUMP JUMPDEST PUSH2 0x135C PUSH2 0x1929 JUMP JUMPDEST PUSH1 0x0 PUSH1 0x20 DUP4 PUSH2 0x136B SWAP2 SWAP1 PUSH2 0x2B2A JUMP JUMPDEST EQ PUSH2 0x1397 JUMPI PUSH1 0x20 DUP3 PUSH2 0x137D SWAP2 SWAP1 PUSH2 0x2B2A JUMP JUMPDEST PUSH1 0x20 PUSH2 0x1389 SWAP2 SWAP1 PUSH2 0x2B5B JUMP JUMPDEST DUP3 PUSH2 0x1394 SWAP2 SWAP1 PUSH2 0x2B8F JUMP JUMPDEST SWAP2 POP JUMPDEST DUP2 DUP4 PUSH1 0x20 ADD DUP2 DUP2 MSTORE POP POP PUSH1 0x40 MLOAD DUP1 DUP5 MSTORE PUSH1 0x0 DUP2 MSTORE DUP3 DUP2 ADD PUSH1 0x20 ADD PUSH1 0x40 MSTORE POP DUP3 SWAP1 POP SWAP3 SWAP2 POP POP JUMP JUMPDEST PUSH2 0x13CB DUP3 PUSH1 0x3 DUP4 MLOAD PUSH2 0x1454 JUMP JUMPDEST PUSH2 0x13DE DUP2 DUP4 PUSH2 0x15D9 SWAP1 SWAP2 SWAP1 PUSH4 0xFFFFFFFF AND JUMP JUMPDEST POP POP POP JUMP JUMPDEST PUSH8 0xFFFFFFFFFFFFFFFF DUP2 GT ISZERO PUSH2 0x1402 JUMPI PUSH2 0x13FD DUP3 DUP3 PUSH2 0x15FB JUMP JUMPDEST PUSH2 0x140F JUMP JUMPDEST PUSH2 0x140E DUP3 PUSH1 0x0 DUP4 PUSH2 0x1454 JUMP JUMPDEST JUMPDEST POP POP JUMP JUMPDEST PUSH2 0x141E DUP2 PUSH1 0x4 PUSH2 0x1647 JUMP JUMPDEST POP JUMP JUMPDEST PUSH2 0x142C DUP2 PUSH1 0x7 PUSH2 0x1647 JUMP JUMPDEST POP JUMP JUMPDEST PUSH2 0x143C DUP3 PUSH1 0x2 DUP4 MLOAD PUSH2 0x1454 JUMP JUMPDEST PUSH2 0x144F DUP2 DUP4 PUSH2 0x15D9 SWAP1 SWAP2 SWAP1 PUSH4 0xFFFFFFFF AND JUMP JUMPDEST POP POP POP JUMP JUMPDEST PUSH1 0x17 DUP2 PUSH8 0xFFFFFFFFFFFFFFFF AND GT PUSH2 0x148B JUMPI PUSH2 0x1485 DUP2 PUSH1 0x5 DUP5 PUSH1 0xFF AND SWAP1 SHL PUSH1 0xFF AND OR DUP5 PUSH2 0x1669 SWAP1 SWAP2 SWAP1 PUSH4 0xFFFFFFFF AND JUMP JUMPDEST POP PUSH2 0x15D4 JUMP JUMPDEST PUSH1 0xFF DUP2 PUSH8 0xFFFFFFFFFFFFFFFF AND GT PUSH2 0x14E1 JUMPI PUSH2 0x14BA PUSH1 0x18 PUSH1 0x5 DUP5 PUSH1 0xFF AND SWAP1 SHL OR DUP5 PUSH2 0x1669 SWAP1 SWAP2 SWAP1 PUSH4 0xFFFFFFFF AND JUMP JUMPDEST POP PUSH2 0x14DB DUP2 PUSH8 0xFFFFFFFFFFFFFFFF AND PUSH1 0x1 DUP6 PUSH2 0x1689 SWAP1 SWAP3 SWAP2 SWAP1 PUSH4 0xFFFFFFFF AND JUMP JUMPDEST POP PUSH2 0x15D3 JUMP JUMPDEST PUSH2 0xFFFF DUP2 PUSH8 0xFFFFFFFFFFFFFFFF AND GT PUSH2 0x1538 JUMPI PUSH2 0x1511 PUSH1 0x19 PUSH1 0x5 DUP5 PUSH1 0xFF AND SWAP1 SHL OR DUP5 PUSH2 0x1669 SWAP1 SWAP2 SWAP1 PUSH4 0xFFFFFFFF AND JUMP JUMPDEST POP PUSH2 0x1532 DUP2 PUSH8 0xFFFFFFFFFFFFFFFF AND PUSH1 0x2 DUP6 PUSH2 0x1689 SWAP1 SWAP3 SWAP2 SWAP1 PUSH4 0xFFFFFFFF AND JUMP JUMPDEST POP PUSH2 0x15D2 JUMP JUMPDEST PUSH4 0xFFFFFFFF DUP2 PUSH8 0xFFFFFFFFFFFFFFFF AND GT PUSH2 0x1591 JUMPI PUSH2 0x156A PUSH1 0x1A PUSH1 0x5 DUP5 PUSH1 0xFF AND SWAP1 SHL OR DUP5 PUSH2 0x1669 SWAP1 SWAP2 SWAP1 PUSH4 0xFFFFFFFF AND JUMP JUMPDEST POP PUSH2 0x158B DUP2 PUSH8 0xFFFFFFFFFFFFFFFF AND PUSH1 0x4 DUP6 PUSH2 0x1689 SWAP1 SWAP3 SWAP2 SWAP1 PUSH4 0xFFFFFFFF AND JUMP JUMPDEST POP PUSH2 0x15D1 JUMP JUMPDEST PUSH2 0x15AE PUSH1 0x1B PUSH1 0x5 DUP5 PUSH1 0xFF AND SWAP1 SHL OR DUP5 PUSH2 0x1669 SWAP1 SWAP2 SWAP1 PUSH4 0xFFFFFFFF AND JUMP JUMPDEST POP PUSH2 0x15CF DUP2 PUSH8 0xFFFFFFFFFFFFFFFF AND PUSH1 0x8 DUP6 PUSH2 0x1689 SWAP1 SWAP3 SWAP2 SWAP1 PUSH4 0xFFFFFFFF AND JUMP JUMPDEST POP JUMPDEST JUMPDEST JUMPDEST JUMPDEST POP POP POP JUMP JUMPDEST PUSH2 0x15E1 PUSH2 0x1929 JUMP JUMPDEST PUSH2 0x15F3 DUP4 DUP5 PUSH1 0x0 ADD MLOAD MLOAD DUP5 DUP6 MLOAD PUSH2 0x16AB JUMP JUMPDEST SWAP1 POP SWAP3 SWAP2 POP POP JUMP JUMPDEST PUSH2 0x1619 PUSH1 0x2 PUSH1 0x5 PUSH1 0x6 PUSH1 0xFF AND SWAP1 SHL OR DUP4 PUSH2 0x1669 SWAP1 SWAP2 SWAP1 PUSH4 0xFFFFFFFF AND JUMP JUMPDEST POP PUSH2 0x1643 DUP3 DUP3 PUSH1 0x40 MLOAD PUSH1 0x20 ADD PUSH2 0x162F SWAP2 SWAP1 PUSH2 0x2BC3 JUMP JUMPDEST PUSH1 0x40 MLOAD PUSH1 0x20 DUP2 DUP4 SUB SUB DUP2 MSTORE SWAP1 PUSH1 0x40 MSTORE PUSH2 0x142F JUMP JUMPDEST POP POP JUMP JUMPDEST PUSH2 0x1664 PUSH1 0x1F PUSH1 0x5 DUP4 PUSH1 0xFF AND SWAP1 SHL OR DUP4 PUSH2 0x1669 SWAP1 SWAP2 SWAP1 PUSH4 0xFFFFFFFF AND JUMP JUMPDEST POP POP POP JUMP JUMPDEST PUSH2 0x1671 PUSH2 0x1929 JUMP JUMPDEST PUSH2 0x1681 DUP4 DUP5 PUSH1 0x0 ADD MLOAD MLOAD DUP5 PUSH2 0x179A JUMP JUMPDEST SWAP1 POP SWAP3 SWAP2 POP POP JUMP JUMPDEST PUSH2 0x1691 PUSH2 0x1929 JUMP JUMPDEST PUSH2 0x16A2 DUP5 DUP6 PUSH1 0x0 ADD MLOAD MLOAD DUP6 DUP6 PUSH2 0x17F0 JUMP JUMPDEST SWAP1 POP SWAP4 SWAP3 POP POP POP JUMP JUMPDEST PUSH2 0x16B3 PUSH2 0x1929 JUMP JUMPDEST DUP3 MLOAD DUP3 GT ISZERO PUSH2 0x16C1 JUMPI PUSH1 0x0 DUP1 REVERT JUMPDEST DUP5 PUSH1 0x20 ADD MLOAD DUP3 DUP6 PUSH2 0x16D2 SWAP2 SWAP1 PUSH2 0x2B8F JUMP JUMPDEST GT ISZERO PUSH2 0x1707 JUMPI PUSH2 0x1706 DUP6 PUSH1 0x2 PUSH2 0x16F7 DUP9 PUSH1 0x20 ADD MLOAD DUP9 DUP8 PUSH2 0x16F2 SWAP2 SWAP1 PUSH2 0x2B8F JUMP JUMPDEST PUSH2 0x187E JUMP JUMPDEST PUSH2 0x1701 SWAP2 SWAP1 PUSH2 0x2BDE JUMP JUMPDEST PUSH2 0x189A JUMP JUMPDEST JUMPDEST PUSH1 0x0 DUP1 DUP7 MLOAD DUP1 MLOAD DUP8 PUSH1 0x20 DUP4 ADD ADD SWAP4 POP DUP1 DUP9 DUP8 ADD GT ISZERO PUSH2 0x1726 JUMPI DUP8 DUP7 ADD DUP3 MSTORE JUMPDEST PUSH1 0x20 DUP8 ADD SWAP3 POP POP POP JUMPDEST PUSH1 0x20 DUP5 LT PUSH2 0x176D JUMPI DUP1 MLOAD DUP3 MSTORE PUSH1 0x20 DUP3 PUSH2 0x1748 SWAP2 SWAP1 PUSH2 0x2B8F JUMP JUMPDEST SWAP2 POP PUSH1 0x20 DUP2 PUSH2 0x1757 SWAP2 SWAP1 PUSH2 0x2B8F JUMP JUMPDEST SWAP1 POP PUSH1 0x20 DUP5 PUSH2 0x1766 SWAP2 SWAP1 PUSH2 0x2B5B JUMP JUMPDEST SWAP4 POP PUSH2 0x172F JUMP JUMPDEST PUSH1 0x0 PUSH1 0x1 DUP6 PUSH1 0x20 SUB PUSH2 0x100 EXP SUB SWAP1 POP DUP1 NOT DUP3 MLOAD AND DUP2 DUP5 MLOAD AND DUP2 DUP2 OR DUP6 MSTORE POP POP POP DUP7 SWAP3 POP POP POP SWAP5 SWAP4 POP POP POP POP JUMP JUMPDEST PUSH2 0x17A2 PUSH2 0x1929 JUMP JUMPDEST DUP4 PUSH1 0x20 ADD MLOAD DUP4 LT PUSH2 0x17C8 JUMPI PUSH2 0x17C7 DUP5 PUSH1 0x2 DUP7 PUSH1 0x20 ADD MLOAD PUSH2 0x17C2 SWAP2 SWAP1 PUSH2 0x2BDE JUMP JUMPDEST PUSH2 0x189A JUMP JUMPDEST JUMPDEST DUP4 MLOAD DUP1 MLOAD PUSH1 0x20 DUP6 DUP4 ADD ADD DUP5 DUP2 MSTORE8 DUP2 DUP7 SUB PUSH2 0x17E3 JUMPI PUSH1 0x1 DUP3 ADD DUP4 MSTORE JUMPDEST POP POP POP DUP4 SWAP1 POP SWAP4 SWAP3 POP POP POP JUMP JUMPDEST PUSH2 0x17F8 PUSH2 0x1929 JUMP JUMPDEST DUP5 PUSH1 0x20 ADD MLOAD DUP5 DUP4 PUSH2 0x1809 SWAP2 SWAP1 PUSH2 0x2B8F JUMP JUMPDEST GT ISZERO PUSH2 0x1831 JUMPI PUSH2 0x1830 DUP6 PUSH1 0x2 DUP7 DUP6 PUSH2 0x1821 SWAP2 SWAP1 PUSH2 0x2B8F JUMP JUMPDEST PUSH2 0x182B SWAP2 SWAP1 PUSH2 0x2BDE JUMP JUMPDEST PUSH2 0x189A JUMP JUMPDEST JUMPDEST PUSH1 0x0 PUSH1 0x1 DUP4 PUSH2 0x100 PUSH2 0x1843 SWAP2 SWAP1 PUSH2 0x2D53 JUMP JUMPDEST PUSH2 0x184D SWAP2 SWAP1 PUSH2 0x2B5B JUMP JUMPDEST SWAP1 POP DUP6 MLOAD DUP4 DUP7 DUP3 ADD ADD DUP6 DUP4 NOT DUP3 MLOAD AND OR DUP2 MSTORE DUP2 MLOAD DUP6 DUP9 ADD GT ISZERO PUSH2 0x1870 JUMPI DUP5 DUP8 ADD DUP3 MSTORE JUMPDEST POP POP DUP6 SWAP2 POP POP SWAP5 SWAP4 POP POP POP POP JUMP JUMPDEST PUSH1 0x0 DUP2 DUP4 GT ISZERO PUSH2 0x1890 JUMPI DUP3 SWAP1 POP PUSH2 0x1894 JUMP JUMPDEST DUP2 SWAP1 POP JUMPDEST SWAP3 SWAP2 POP POP JUMP JUMPDEST PUSH1 0x0 DUP3 PUSH1 0x0 ADD MLOAD SWAP1 POP PUSH2 0x18AD DUP4 DUP4 PUSH2 0x1354 JUMP JUMPDEST POP PUSH2 0x18B8 DUP4 DUP3 PUSH2 0x15D9 JUMP JUMPDEST POP POP POP POP JUMP JUMPDEST PUSH1 0x40 MLOAD DUP1 PUSH1 0xC0 ADD PUSH1 0x40 MSTORE DUP1 PUSH1 0x0 PUSH1 0x1 DUP2 GT ISZERO PUSH2 0x18DD JUMPI PUSH2 0x18DC PUSH2 0x2437 JUMP JUMPDEST JUMPDEST DUP2 MSTORE PUSH1 0x20 ADD PUSH1 0x0 PUSH1 0x1 DUP2 GT ISZERO PUSH2 0x18F6 JUMPI PUSH2 0x18F5 PUSH2 0x2437 JUMP JUMPDEST JUMPDEST DUP2 MSTORE PUSH1 0x20 ADD PUSH1 0x0 DUP1 DUP2 GT ISZERO PUSH2 0x190E JUMPI PUSH2 0x190D PUSH2 0x2437 JUMP JUMPDEST JUMPDEST DUP2 MSTORE PUSH1 0x20 ADD PUSH1 0x60 DUP2 MSTORE PUSH1 0x20 ADD PUSH1 0x60 DUP2 MSTORE PUSH1 0x20 ADD PUSH1 0x60 DUP2 MSTORE POP SWAP1 JUMP JUMPDEST PUSH1 0x40 MLOAD DUP1 PUSH1 0x40 ADD PUSH1 0x40 MSTORE DUP1 PUSH1 0x60 DUP2 MSTORE PUSH1 0x20 ADD PUSH1 0x0 DUP2 MSTORE POP SWAP1 JUMP JUMPDEST PUSH1 0x0 PUSH1 0x40 MLOAD SWAP1 POP SWAP1 JUMP JUMPDEST PUSH1 0x0 DUP1 REVERT JUMPDEST PUSH1 0x0 DUP1 REVERT JUMPDEST PUSH1 0x0 DUP2 SWAP1 POP SWAP2 SWAP1 POP JUMP JUMPDEST PUSH2 0x196A DUP2 PUSH2 0x1957 JUMP JUMPDEST DUP2 EQ PUSH2 0x1975 JUMPI PUSH1 0x0 DUP1 REVERT JUMPDEST POP JUMP JUMPDEST PUSH1 0x0 DUP2 CALLDATALOAD SWAP1 POP PUSH2 0x1987 DUP2 PUSH2 0x1961 JUMP JUMPDEST SWAP3 SWAP2 POP POP JUMP JUMPDEST PUSH1 0x0 DUP1 REVERT JUMPDEST PUSH1 0x0 DUP1 REVERT JUMPDEST PUSH1 0x0 PUSH1 0x1F NOT PUSH1 0x1F DUP4 ADD AND SWAP1 POP SWAP2 SWAP1 POP JUMP JUMPDEST PUSH32 0x4E487B7100000000000000000000000000000000000000000000000000000000 PUSH1 0x0 MSTORE PUSH1 0x41 PUSH1 0x4 MSTORE PUSH1 0x24 PUSH1 0x0 REVERT JUMPDEST PUSH2 0x19E0 DUP3 PUSH2 0x1997 JUMP JUMPDEST DUP2 ADD DUP2 DUP2 LT PUSH8 0xFFFFFFFFFFFFFFFF DUP3 GT OR ISZERO PUSH2 0x19FF JUMPI PUSH2 0x19FE PUSH2 0x19A8 JUMP JUMPDEST JUMPDEST DUP1 PUSH1 0x40 MSTORE POP POP POP JUMP JUMPDEST PUSH1 0x0 PUSH2 0x1A12 PUSH2 0x1943 JUMP JUMPDEST SWAP1 POP PUSH2 0x1A1E DUP3 DUP3 PUSH2 0x19D7 JUMP JUMPDEST SWAP2 SWAP1 POP JUMP JUMPDEST PUSH1 0x0 PUSH8 0xFFFFFFFFFFFFFFFF DUP3 GT ISZERO PUSH2 0x1A3E JUMPI PUSH2 0x1A3D PUSH2 0x19A8 JUMP JUMPDEST JUMPDEST PUSH2 0x1A47 DUP3 PUSH2 0x1997 JUMP JUMPDEST SWAP1 POP PUSH1 0x20 DUP2 ADD SWAP1 POP SWAP2 SWAP1 POP JUMP JUMPDEST DUP3 DUP2 DUP4 CALLDATACOPY PUSH1 0x0 DUP4 DUP4 ADD MSTORE POP POP POP JUMP JUMPDEST PUSH1 0x0 PUSH2 0x1A76 PUSH2 0x1A71 DUP5 PUSH2 0x1A23 JUMP JUMPDEST PUSH2 0x1A08 JUMP JUMPDEST SWAP1 POP DUP3 DUP2 MSTORE PUSH1 0x20 DUP2 ADD DUP5 DUP5 DUP5 ADD GT ISZERO PUSH2 0x1A92 JUMPI PUSH2 0x1A91 PUSH2 0x1992 JUMP JUMPDEST JUMPDEST PUSH2 0x1A9D DUP5 DUP3 DUP6 PUSH2 0x1A54 JUMP JUMPDEST POP SWAP4 SWAP3 POP POP POP JUMP JUMPDEST PUSH1 0x0 DUP3 PUSH1 0x1F DUP4 ADD SLT PUSH2 0x1ABA JUMPI PUSH2 0x1AB9 PUSH2 0x198D JUMP JUMPDEST JUMPDEST DUP2 CALLDATALOAD PUSH2 0x1ACA DUP5 DUP3 PUSH1 0x20 DUP7 ADD PUSH2 0x1A63 JUMP JUMPDEST SWAP2 POP POP SWAP3 SWAP2 POP POP JUMP JUMPDEST PUSH1 0x0 DUP1 PUSH1 0x0 PUSH1 0x60 DUP5 DUP7 SUB SLT ISZERO PUSH2 0x1AEC JUMPI PUSH2 0x1AEB PUSH2 0x194D JUMP JUMPDEST JUMPDEST PUSH1 0x0 PUSH2 0x1AFA DUP7 DUP3 DUP8 ADD PUSH2 0x1978 JUMP JUMPDEST SWAP4 POP POP PUSH1 0x20 DUP5 ADD CALLDATALOAD PUSH8 0xFFFFFFFFFFFFFFFF DUP2 GT ISZERO PUSH2 0x1B1B JUMPI PUSH2 0x1B1A PUSH2 0x1952 JUMP JUMPDEST JUMPDEST PUSH2 0x1B27 DUP7 DUP3 DUP8 ADD PUSH2 0x1AA5 JUMP JUMPDEST SWAP3 POP POP PUSH1 0x40 DUP5 ADD CALLDATALOAD PUSH8 0xFFFFFFFFFFFFFFFF DUP2 GT ISZERO PUSH2 0x1B48 JUMPI PUSH2 0x1B47 PUSH2 0x1952 JUMP JUMPDEST JUMPDEST PUSH2 0x1B54 DUP7 DUP3 DUP8 ADD PUSH2 0x1AA5 JUMP JUMPDEST SWAP2 POP POP SWAP3 POP SWAP3 POP SWAP3 JUMP JUMPDEST PUSH2 0x1B67 DUP2 PUSH2 0x1957 JUMP JUMPDEST DUP3 MSTORE POP POP JUMP JUMPDEST PUSH1 0x0 PUSH1 0x20 DUP3 ADD SWAP1 POP PUSH2 0x1B82 PUSH1 0x0 DUP4 ADD DUP5 PUSH2 0x1B5E JUMP JUMPDEST SWAP3 SWAP2 POP POP JUMP JUMPDEST PUSH1 0x0 PUSH20 0xFFFFFFFFFFFFFFFFFFFFFFFFFFFFFFFFFFFFFFFF DUP3 AND SWAP1 POP SWAP2 SWAP1 POP JUMP JUMPDEST PUSH1 0x0 PUSH2 0x1BB3 DUP3 PUSH2 0x1B88 JUMP JUMPDEST SWAP1 POP SWAP2 SWAP1 POP JUMP JUMPDEST PUSH2 0x1BC3 DUP2 PUSH2 0x1BA8 JUMP JUMPDEST DUP2 EQ PUSH2 0x1BCE JUMPI PUSH1 0x0 DUP1 REVERT JUMPDEST POP JUMP JUMPDEST PUSH1 0x0 DUP2 CALLDATALOAD SWAP1 POP PUSH2 0x1BE0 DUP2 PUSH2 0x1BBA JUMP JUMPDEST SWAP3 SWAP2 POP POP JUMP JUMPDEST PUSH1 0x0 DUP1 PUSH1 0x40 DUP4 DUP6 SUB SLT ISZERO PUSH2 0x1BFD JUMPI PUSH2 0x1BFC PUSH2 0x194D JUMP JUMPDEST JUMPDEST PUSH1 0x0 PUSH2 0x1C0B DUP6 DUP3 DUP7 ADD PUSH2 0x1BD1 JUMP JUMPDEST SWAP3 POP POP PUSH1 0x20 PUSH2 0x1C1C DUP6 DUP3 DUP7 ADD PUSH2 0x1978 JUMP JUMPDEST SWAP2 POP POP SWAP3 POP SWAP3 SWAP1 POP JUMP JUMPDEST PUSH2 0x1C2F DUP2 PUSH2 0x1BA8 JUMP JUMPDEST DUP3 MSTORE POP POP JUMP JUMPDEST PUSH1 0x0 PUSH1 0x20 DUP3 ADD SWAP1 POP PUSH2 0x1C4A PUSH1 0x0 DUP4 ADD DUP5 PUSH2 0x1C26 JUMP JUMPDEST SWAP3 SWAP2 POP POP JUMP JUMPDEST PUSH1 0x0 DUP2 MLOAD SWAP1 POP SWAP2 SWAP1 POP JUMP JUMPDEST PUSH1 0x0 DUP3 DUP3 MSTORE PUSH1 0x20 DUP3 ADD SWAP1 POP SWAP3 SWAP2 POP POP JUMP JUMPDEST PUSH1 0x0 JUMPDEST DUP4 DUP2 LT ISZERO PUSH2 0x1C8A JUMPI DUP1 DUP3 ADD MLOAD DUP2 DUP5 ADD MSTORE PUSH1 0x20 DUP2 ADD SWAP1 POP PUSH2 0x1C6F JUMP JUMPDEST PUSH1 0x0 DUP5 DUP5 ADD MSTORE POP POP POP POP JUMP JUMPDEST PUSH1 0x0 PUSH2 0x1CA1 DUP3 PUSH2 0x1C50 JUMP JUMPDEST PUSH2 0x1CAB DUP2 DUP6 PUSH2 0x1C5B JUMP JUMPDEST SWAP4 POP PUSH2 0x1CBB DUP2 DUP6 PUSH1 0x20 DUP7 ADD PUSH2 0x1C6C JUMP JUMPDEST PUSH2 0x1CC4 DUP2 PUSH2 0x1997 JUMP JUMPDEST DUP5 ADD SWAP2 POP POP SWAP3 SWAP2 POP POP JUMP JUMPDEST PUSH1 0x0 PUSH1 0x20 DUP3 ADD SWAP1 POP DUP2 DUP2 SUB PUSH1 0x0 DUP4 ADD MSTORE PUSH2 0x1CE9 DUP2 DUP5 PUSH2 0x1C96 JUMP JUMPDEST SWAP1 POP SWAP3 SWAP2 POP POP JUMP JUMPDEST PUSH1 0x0 DUP1 REVERT JUMPDEST PUSH1 0x0 DUP1 REVERT JUMPDEST PUSH1 0x0 DUP1 DUP4 PUSH1 0x1F DUP5 ADD SLT PUSH2 0x1D11 JUMPI PUSH2 0x1D10 PUSH2 0x198D JUMP JUMPDEST JUMPDEST DUP3 CALLDATALOAD SWAP1 POP PUSH8 0xFFFFFFFFFFFFFFFF DUP2 GT ISZERO PUSH2 0x1D2E JUMPI PUSH2 0x1D2D PUSH2 0x1CF1 JUMP JUMPDEST JUMPDEST PUSH1 0x20 DUP4 ADD SWAP2 POP DUP4 PUSH1 0x1 DUP3 MUL DUP4 ADD GT ISZERO PUSH2 0x1D4A JUMPI PUSH2 0x1D49 PUSH2 0x1CF6 JUMP JUMPDEST JUMPDEST SWAP3 POP SWAP3 SWAP1 POP JUMP JUMPDEST PUSH1 0x0 DUP1 DUP4 PUSH1 0x1F DUP5 ADD SLT PUSH2 0x1D67 JUMPI PUSH2 0x1D66 PUSH2 0x198D JUMP JUMPDEST JUMPDEST DUP3 CALLDATALOAD SWAP1 POP PUSH8 0xFFFFFFFFFFFFFFFF DUP2 GT ISZERO PUSH2 0x1D84 JUMPI PUSH2 0x1D83 PUSH2 0x1CF1 JUMP JUMPDEST JUMPDEST PUSH1 0x20 DUP4 ADD SWAP2 POP DUP4 PUSH1 0x1 DUP3 MUL DUP4 ADD GT ISZERO PUSH2 0x1DA0 JUMPI PUSH2 0x1D9F PUSH2 0x1CF6 JUMP JUMPDEST JUMPDEST SWAP3 POP SWAP3 SWAP1 POP JUMP JUMPDEST PUSH1 0x2 DUP2 LT PUSH2 0x1DB4 JUMPI PUSH1 0x0 DUP1 REVERT JUMPDEST POP JUMP JUMPDEST PUSH1 0x0 DUP2 CALLDATALOAD SWAP1 POP PUSH2 0x1DC6 DUP2 PUSH2 0x1DA7 JUMP JUMPDEST SWAP3 SWAP2 POP POP JUMP JUMPDEST PUSH1 0x0 DUP1 DUP4 PUSH1 0x1F DUP5 ADD SLT PUSH2 0x1DE2 JUMPI PUSH2 0x1DE1 PUSH2 0x198D JUMP JUMPDEST JUMPDEST DUP3 CALLDATALOAD SWAP1 POP PUSH8 0xFFFFFFFFFFFFFFFF DUP2 GT ISZERO PUSH2 0x1DFF JUMPI PUSH2 0x1DFE PUSH2 0x1CF1 JUMP JUMPDEST JUMPDEST PUSH1 0x20 DUP4 ADD SWAP2 POP DUP4 PUSH1 0x20 DUP3 MUL DUP4 ADD GT ISZERO PUSH2 0x1E1B JUMPI PUSH2 0x1E1A PUSH2 0x1CF6 JUMP JUMPDEST JUMPDEST SWAP3 POP SWAP3 SWAP1 POP JUMP JUMPDEST PUSH1 0x0 PUSH8 0xFFFFFFFFFFFFFFFF DUP3 AND SWAP1 POP SWAP2 SWAP1 POP JUMP JUMPDEST PUSH2 0x1E3F DUP2 PUSH2 0x1E22 JUMP JUMPDEST DUP2 EQ PUSH2 0x1E4A JUMPI PUSH1 0x0 DUP1 REVERT JUMPDEST POP JUMP JUMPDEST PUSH1 0x0 DUP2 CALLDATALOAD SWAP1 POP PUSH2 0x1E5C DUP2 PUSH2 0x1E36 JUMP JUMPDEST SWAP3 SWAP2 POP POP JUMP JUMPDEST PUSH1 0x0 PUSH4 0xFFFFFFFF DUP3 AND SWAP1 POP SWAP2 SWAP1 POP JUMP JUMPDEST PUSH2 0x1E7B DUP2 PUSH2 0x1E62 JUMP JUMPDEST DUP2 EQ PUSH2 0x1E86 JUMPI PUSH1 0x0 DUP1 REVERT JUMPDEST POP JUMP JUMPDEST PUSH1 0x0 DUP2 CALLDATALOAD SWAP1 POP PUSH2 0x1E98 DUP2 PUSH2 0x1E72 JUMP JUMPDEST SWAP3 SWAP2 POP POP JUMP JUMPDEST PUSH1 0x0 DUP1 PUSH1 0x0 DUP1 PUSH1 0x0 DUP1 PUSH1 0x0 DUP1 PUSH1 0x0 PUSH1 0xC0 DUP11 DUP13 SUB SLT ISZERO PUSH2 0x1EC0 JUMPI PUSH2 0x1EBF PUSH2 0x194D JUMP JUMPDEST JUMPDEST PUSH1 0x0 DUP11 ADD CALLDATALOAD PUSH8 0xFFFFFFFFFFFFFFFF DUP2 GT ISZERO PUSH2 0x1EDE JUMPI PUSH2 0x1EDD PUSH2 0x1952 JUMP JUMPDEST JUMPDEST PUSH2 0x1EEA DUP13 DUP3 DUP14 ADD PUSH2 0x1CFB JUMP JUMPDEST SWAP10 POP SWAP10 POP POP PUSH1 0x20 DUP11 ADD CALLDATALOAD PUSH8 0xFFFFFFFFFFFFFFFF DUP2 GT ISZERO PUSH2 0x1F0D JUMPI PUSH2 0x1F0C PUSH2 0x1952 JUMP JUMPDEST JUMPDEST PUSH2 0x1F19 DUP13 DUP3 DUP14 ADD PUSH2 0x1D51 JUMP JUMPDEST SWAP8 POP SWAP8 POP POP PUSH1 0x40 PUSH2 0x1F2C DUP13 DUP3 DUP14 ADD PUSH2 0x1DB7 JUMP JUMPDEST SWAP6 POP POP PUSH1 0x60 DUP11 ADD CALLDATALOAD PUSH8 0xFFFFFFFFFFFFFFFF DUP2 GT ISZERO PUSH2 0x1F4D JUMPI PUSH2 0x1F4C PUSH2 0x1952 JUMP JUMPDEST JUMPDEST PUSH2 0x1F59 DUP13 DUP3 DUP14 ADD PUSH2 0x1DCC JUMP JUMPDEST SWAP5 POP SWAP5 POP POP PUSH1 0x80 PUSH2 0x1F6C DUP13 DUP3 DUP14 ADD PUSH2 0x1E4D JUMP JUMPDEST SWAP3 POP POP PUSH1 0xA0 PUSH2 0x1F7D DUP13 DUP3 DUP14 ADD PUSH2 0x1E89 JUMP JUMPDEST SWAP2 POP POP SWAP3 SWAP6 SWAP9 POP SWAP3 SWAP6 SWAP9 POP SWAP3 SWAP6 SWAP9 JUMP JUMPDEST PUSH1 0x0 DUP1 REVERT JUMPDEST PUSH1 0x0 DUP1 REVERT JUMPDEST PUSH1 0x1 DUP2 LT PUSH2 0x1FA4 JUMPI PUSH1 0x0 DUP1 REVERT JUMPDEST POP JUMP JUMPDEST PUSH1 0x0 DUP2 CALLDATALOAD SWAP1 POP PUSH2 0x1FB6 DUP2 PUSH2 0x1F97 JUMP JUMPDEST SWAP3 SWAP2 POP POP JUMP JUMPDEST PUSH1 0x0 PUSH8 0xFFFFFFFFFFFFFFFF DUP3 GT ISZERO PUSH2 0x1FD7 JUMPI PUSH2 0x1FD6 PUSH2 0x19A8 JUMP JUMPDEST JUMPDEST PUSH2 0x1FE0 DUP3 PUSH2 0x1997 JUMP JUMPDEST SWAP1 POP PUSH1 0x20 DUP2 ADD SWAP1 POP SWAP2 SWAP1 POP JUMP JUMPDEST PUSH1 0x0 PUSH2 0x2000 PUSH2 0x1FFB DUP5 PUSH2 0x1FBC JUMP JUMPDEST PUSH2 0x1A08 JUMP JUMPDEST SWAP1 POP DUP3 DUP2 MSTORE PUSH1 0x20 DUP2 ADD DUP5 DUP5 DUP5 ADD GT ISZERO PUSH2 0x201C JUMPI PUSH2 0x201B PUSH2 0x1992 JUMP JUMPDEST JUMPDEST PUSH2 0x2027 DUP5 DUP3 DUP6 PUSH2 0x1A54 JUMP JUMPDEST POP SWAP4 SWAP3 POP POP POP JUMP JUMPDEST PUSH1 0x0 DUP3 PUSH1 0x1F DUP4 ADD SLT PUSH2 0x2044 JUMPI PUSH2 0x2043 PUSH2 0x198D JUMP JUMPDEST JUMPDEST DUP2 CALLDATALOAD PUSH2 0x2054 DUP5 DUP3 PUSH1 0x20 DUP7 ADD PUSH2 0x1FED JUMP JUMPDEST SWAP2 POP POP SWAP3 SWAP2 POP POP JUMP JUMPDEST PUSH1 0x0 PUSH8 0xFFFFFFFFFFFFFFFF DUP3 GT ISZERO PUSH2 0x2078 JUMPI PUSH2 0x2077 PUSH2 0x19A8 JUMP JUMPDEST JUMPDEST PUSH1 0x20 DUP3 MUL SWAP1 POP PUSH1 0x20 DUP2 ADD SWAP1 POP SWAP2 SWAP1 POP JUMP JUMPDEST PUSH1 0x0 PUSH2 0x209C PUSH2 0x2097 DUP5 PUSH2 0x205D JUMP JUMPDEST PUSH2 0x1A08 JUMP JUMPDEST SWAP1 POP DUP1 DUP4 DUP3 MSTORE PUSH1 0x20 DUP3 ADD SWAP1 POP PUSH1 0x20 DUP5 MUL DUP4 ADD DUP6 DUP2 GT ISZERO PUSH2 0x20BF JUMPI PUSH2 0x20BE PUSH2 0x1CF6 JUMP JUMPDEST JUMPDEST DUP4 JUMPDEST DUP2 DUP2 LT ISZERO PUSH2 0x2106 JUMPI DUP1 CALLDATALOAD PUSH8 0xFFFFFFFFFFFFFFFF DUP2 GT ISZERO PUSH2 0x20E4 JUMPI PUSH2 0x20E3 PUSH2 0x198D JUMP JUMPDEST JUMPDEST DUP1 DUP7 ADD PUSH2 0x20F1 DUP10 DUP3 PUSH2 0x202F JUMP JUMPDEST DUP6 MSTORE PUSH1 0x20 DUP6 ADD SWAP5 POP POP POP PUSH1 0x20 DUP2 ADD SWAP1 POP PUSH2 0x20C1 JUMP JUMPDEST POP POP POP SWAP4 SWAP3 POP POP POP JUMP JUMPDEST PUSH1 0x0 DUP3 PUSH1 0x1F DUP4 ADD SLT PUSH2 0x2125 JUMPI PUSH2 0x2124 PUSH2 0x198D JUMP JUMPDEST JUMPDEST DUP2 CALLDATALOAD PUSH2 0x2135 DUP5 DUP3 PUSH1 0x20 DUP7 ADD PUSH2 0x2089 JUMP JUMPDEST SWAP2 POP POP SWAP3 SWAP2 POP POP JUMP JUMPDEST PUSH1 0x0 PUSH1 0xC0 DUP3 DUP5 SUB SLT ISZERO PUSH2 0x2154 JUMPI PUSH2 0x2153 PUSH2 0x1F8D JUMP JUMPDEST JUMPDEST PUSH2 0x215E PUSH1 0xC0 PUSH2 0x1A08 JUMP JUMPDEST SWAP1 POP PUSH1 0x0 PUSH2 0x216E DUP5 DUP3 DUP6 ADD PUSH2 0x1DB7 JUMP JUMPDEST PUSH1 0x0 DUP4 ADD MSTORE POP PUSH1 0x20 PUSH2 0x2182 DUP5 DUP3 DUP6 ADD PUSH2 0x1DB7 JUMP JUMPDEST PUSH1 0x20 DUP4 ADD MSTORE POP PUSH1 0x40 PUSH2 0x2196 DUP5 DUP3 DUP6 ADD PUSH2 0x1FA7 JUMP JUMPDEST PUSH1 0x40 DUP4 ADD MSTORE POP PUSH1 0x60 DUP3 ADD CALLDATALOAD PUSH8 0xFFFFFFFFFFFFFFFF DUP2 GT ISZERO PUSH2 0x21BA JUMPI PUSH2 0x21B9 PUSH2 0x1F92 JUMP JUMPDEST JUMPDEST PUSH2 0x21C6 DUP5 DUP3 DUP6 ADD PUSH2 0x202F JUMP JUMPDEST PUSH1 0x60 DUP4 ADD MSTORE POP PUSH1 0x80 DUP3 ADD CALLDATALOAD PUSH8 0xFFFFFFFFFFFFFFFF DUP2 GT ISZERO PUSH2 0x21EA JUMPI PUSH2 0x21E9 PUSH2 0x1F92 JUMP JUMPDEST JUMPDEST PUSH2 0x21F6 DUP5 DUP3 DUP6 ADD PUSH2 0x1AA5 JUMP JUMPDEST PUSH1 0x80 DUP4 ADD MSTORE POP PUSH1 0xA0 DUP3 ADD CALLDATALOAD PUSH8 0xFFFFFFFFFFFFFFFF DUP2 GT ISZERO PUSH2 0x221A JUMPI PUSH2 0x2219 PUSH2 0x1F92 JUMP JUMPDEST JUMPDEST PUSH2 0x2226 DUP5 DUP3 DUP6 ADD PUSH2 0x2110 JUMP JUMPDEST PUSH1 0xA0 DUP4 ADD MSTORE POP SWAP3 SWAP2 POP POP JUMP JUMPDEST PUSH1 0x0 DUP2 SWAP1 POP SWAP2 SWAP1 POP JUMP JUMPDEST PUSH2 0x2245 DUP2 PUSH2 0x2232 JUMP JUMPDEST DUP2 EQ PUSH2 0x2250 JUMPI PUSH1 0x0 DUP1 REVERT JUMPDEST POP JUMP JUMPDEST PUSH1 0x0 DUP2 CALLDATALOAD SWAP1 POP PUSH2 0x2262 DUP2 PUSH2 0x223C JUMP JUMPDEST SWAP3 SWAP2 POP POP JUMP JUMPDEST PUSH1 0x0 DUP1 PUSH1 0x0 DUP1 PUSH1 0x80 DUP6 DUP8 SUB SLT ISZERO PUSH2 0x2282 JUMPI PUSH2 0x2281 PUSH2 0x194D JUMP JUMPDEST JUMPDEST PUSH1 0x0 DUP6 ADD CALLDATALOAD PUSH8 0xFFFFFFFFFFFFFFFF DUP2 GT ISZERO PUSH2 0x22A0 JUMPI PUSH2 0x229F PUSH2 0x1952 JUMP JUMPDEST JUMPDEST PUSH2 0x22AC DUP8 DUP3 DUP9 ADD PUSH2 0x213E JUMP JUMPDEST SWAP5 POP POP PUSH1 0x20 PUSH2 0x22BD DUP8 DUP3 DUP9 ADD PUSH2 0x1E4D JUMP JUMPDEST SWAP4 POP POP PUSH1 0x40 PUSH2 0x22CE DUP8 DUP3 DUP9 ADD PUSH2 0x1E89 JUMP JUMPDEST SWAP3 POP POP PUSH1 0x60 PUSH2 0x22DF DUP8 DUP3 DUP9 ADD PUSH2 0x2253 JUMP JUMPDEST SWAP2 POP POP SWAP3 SWAP6 SWAP2 SWAP5 POP SWAP3 POP JUMP JUMPDEST PUSH1 0x0 PUSH12 0xFFFFFFFFFFFFFFFFFFFFFFFF DUP3 AND SWAP1 POP SWAP2 SWAP1 POP JUMP JUMPDEST PUSH2 0x230C DUP2 PUSH2 0x22EB JUMP JUMPDEST DUP3 MSTORE POP POP JUMP JUMPDEST PUSH1 0x0 PUSH1 0x20 DUP3 ADD SWAP1 POP PUSH2 0x2327 PUSH1 0x0 DUP4 ADD DUP5 PUSH2 0x2303 JUMP JUMPDEST SWAP3 SWAP2 POP POP JUMP JUMPDEST PUSH1 0x0 PUSH1 0x20 DUP3 DUP5 SUB SLT ISZERO PUSH2 0x2343 JUMPI PUSH2 0x2342 PUSH2 0x194D JUMP JUMPDEST JUMPDEST PUSH1 0x0 PUSH2 0x2351 DUP5 DUP3 DUP6 ADD PUSH2 0x1BD1 JUMP JUMPDEST SWAP2 POP POP SWAP3 SWAP2 POP POP JUMP JUMPDEST PUSH1 0x0 DUP3 DUP3 MSTORE PUSH1 0x20 DUP3 ADD SWAP1 POP SWAP3 SWAP2 POP POP JUMP JUMPDEST PUSH32 0x4D7573742062652070726F706F736564206F776E657200000000000000000000 PUSH1 0x0 DUP3 ADD MSTORE POP JUMP JUMPDEST PUSH1 0x0 PUSH2 0x23A1 PUSH1 0x16 DUP4 PUSH2 0x235A JUMP JUMPDEST SWAP2 POP PUSH2 0x23AC DUP3 PUSH2 0x236B JUMP JUMPDEST PUSH1 0x20 DUP3 ADD SWAP1 POP SWAP2 SWAP1 POP JUMP JUMPDEST PUSH1 0x0 PUSH1 0x20 DUP3 ADD SWAP1 POP DUP2 DUP2 SUB PUSH1 0x0 DUP4 ADD MSTORE PUSH2 0x23D0 DUP2 PUSH2 0x2394 JUMP JUMPDEST SWAP1 POP SWAP2 SWAP1 POP JUMP JUMPDEST PUSH32 0x4E487B7100000000000000000000000000000000000000000000000000000000 PUSH1 0x0 MSTORE PUSH1 0x22 PUSH1 0x4 MSTORE PUSH1 0x24 PUSH1 0x0 REVERT JUMPDEST PUSH1 0x0 PUSH1 0x2 DUP3 DIV SWAP1 POP PUSH1 0x1 DUP3 AND DUP1 PUSH2 0x241E JUMPI PUSH1 0x7F DUP3 AND SWAP2 POP JUMPDEST PUSH1 0x20 DUP3 LT DUP2 SUB PUSH2 0x2431 JUMPI PUSH2 0x2430 PUSH2 0x23D7 JUMP JUMPDEST JUMPDEST POP SWAP2 SWAP1 POP JUMP JUMPDEST PUSH32 0x4E487B7100000000000000000000000000000000000000000000000000000000 PUSH1 0x0 MSTORE PUSH1 0x21 PUSH1 0x4 MSTORE PUSH1 0x24 PUSH1 0x0 REVERT JUMPDEST PUSH1 0x0 PUSH2 0x2473 CALLDATASIZE DUP5 DUP5 PUSH2 0x2089 JUMP JUMPDEST SWAP1 POP SWAP3 SWAP2 POP POP JUMP JUMPDEST PUSH1 0x0 PUSH2 0x248E PUSH2 0x2489 DUP5 PUSH2 0x1A23 JUMP JUMPDEST PUSH2 0x1A08 JUMP JUMPDEST SWAP1 POP DUP3 DUP2 MSTORE PUSH1 0x20 DUP2 ADD DUP5 DUP5 DUP5 ADD GT ISZERO PUSH2 0x24AA JUMPI PUSH2 0x24A9 PUSH2 0x1992 JUMP JUMPDEST JUMPDEST PUSH2 0x24B5 DUP5 DUP3 DUP6 PUSH2 0x1C6C JUMP JUMPDEST POP SWAP4 SWAP3 POP POP POP JUMP JUMPDEST PUSH1 0x0 DUP3 PUSH1 0x1F DUP4 ADD SLT PUSH2 0x24D2 JUMPI PUSH2 0x24D1 PUSH2 0x198D JUMP JUMPDEST JUMPDEST DUP2 MLOAD PUSH2 0x24E2 DUP5 DUP3 PUSH1 0x20 DUP7 ADD PUSH2 0x247B JUMP JUMPDEST SWAP2 POP POP SWAP3 SWAP2 POP POP JUMP JUMPDEST PUSH1 0x0 PUSH1 0x20 DUP3 DUP5 SUB SLT ISZERO PUSH2 0x2501 JUMPI PUSH2 0x2500 PUSH2 0x194D JUMP JUMPDEST JUMPDEST PUSH1 0x0 DUP3 ADD MLOAD PUSH8 0xFFFFFFFFFFFFFFFF DUP2 GT ISZERO PUSH2 0x251F JUMPI PUSH2 0x251E PUSH2 0x1952 JUMP JUMPDEST JUMPDEST PUSH2 0x252B DUP5 DUP3 DUP6 ADD PUSH2 0x24BD JUMP JUMPDEST SWAP2 POP POP SWAP3 SWAP2 POP POP JUMP JUMPDEST PUSH2 0x253D DUP2 PUSH2 0x1E22 JUMP JUMPDEST DUP3 MSTORE POP POP JUMP JUMPDEST PUSH2 0x254C DUP2 PUSH2 0x1E62 JUMP JUMPDEST DUP3 MSTORE POP POP JUMP JUMPDEST PUSH2 0x255B DUP2 PUSH2 0x2232 JUMP JUMPDEST DUP3 MSTORE POP POP JUMP JUMPDEST PUSH1 0x0 PUSH1 0x80 DUP3 ADD SWAP1 POP PUSH2 0x2576 PUSH1 0x0 DUP4 ADD DUP8 PUSH2 0x2534 JUMP JUMPDEST DUP2 DUP2 SUB PUSH1 0x20 DUP4 ADD MSTORE PUSH2 0x2588 DUP2 DUP7 PUSH2 0x1C96 JUMP JUMPDEST SWAP1 POP PUSH2 0x2597 PUSH1 0x40 DUP4 ADD DUP6 PUSH2 0x2543 JUMP JUMPDEST PUSH2 0x25A4 PUSH1 0x60 DUP4 ADD DUP5 PUSH2 0x2552 JUMP JUMPDEST SWAP6 SWAP5 POP POP POP POP POP JUMP JUMPDEST PUSH2 0x25B6 DUP2 PUSH2 0x22EB JUMP JUMPDEST DUP2 EQ PUSH2 0x25C1 JUMPI PUSH1 0x0 DUP1 REVERT JUMPDEST POP JUMP JUMPDEST PUSH1 0x0 DUP2 MLOAD SWAP1 POP PUSH2 0x25D3 DUP2 PUSH2 0x25AD JUMP JUMPDEST SWAP3 SWAP2 POP POP JUMP JUMPDEST PUSH1 0x0 PUSH1 0x20 DUP3 DUP5 SUB SLT ISZERO PUSH2 0x25EF JUMPI PUSH2 0x25EE PUSH2 0x194D JUMP JUMPDEST JUMPDEST PUSH1 0x0 PUSH2 0x25FD DUP5 DUP3 DUP6 ADD PUSH2 0x25C4 JUMP JUMPDEST SWAP2 POP POP SWAP3 SWAP2 POP POP JUMP JUMPDEST PUSH1 0x0 DUP2 SWAP1 POP DUP2 PUSH1 0x0 MSTORE PUSH1 0x20 PUSH1 0x0 KECCAK256 SWAP1 POP SWAP2 SWAP1 POP JUMP JUMPDEST PUSH1 0x0 PUSH1 0x20 PUSH1 0x1F DUP4 ADD DIV SWAP1 POP SWAP2 SWAP1 POP JUMP JUMPDEST PUSH1 0x0 DUP3 DUP3 SHL SWAP1 POP SWAP3 SWAP2 POP POP JUMP JUMPDEST PUSH1 0x0 PUSH1 0x8 DUP4 MUL PUSH2 0x2668 PUSH32 0xFFFFFFFFFFFFFFFFFFFFFFFFFFFFFFFFFFFFFFFFFFFFFFFFFFFFFFFFFFFFFFFF DUP3 PUSH2 0x262B JUMP JUMPDEST PUSH2 0x2672 DUP7 DUP4 PUSH2 0x262B JUMP JUMPDEST SWAP6 POP DUP1 NOT DUP5 AND SWAP4 POP DUP1 DUP7 AND DUP5 OR SWAP3 POP POP POP SWAP4 SWAP3 POP POP POP JUMP JUMPDEST PUSH1 0x0 DUP2 SWAP1 POP SWAP2 SWAP1 POP JUMP JUMPDEST PUSH1 0x0 PUSH2 0x26AF PUSH2 0x26AA PUSH2 0x26A5 DUP5 PUSH2 0x2232 JUMP JUMPDEST PUSH2 0x268A JUMP JUMPDEST PUSH2 0x2232 JUMP JUMPDEST SWAP1 POP SWAP2 SWAP1 POP JUMP JUMPDEST PUSH1 0x0 DUP2 SWAP1 POP SWAP2 SWAP1 POP JUMP JUMPDEST PUSH2 0x26C9 DUP4 PUSH2 0x2694 JUMP JUMPDEST PUSH2 0x26DD PUSH2 0x26D5 DUP3 PUSH2 0x26B6 JUMP JUMPDEST DUP5 DUP5 SLOAD PUSH2 0x2638 JUMP JUMPDEST DUP3 SSTORE POP POP POP POP JUMP JUMPDEST PUSH1 0x0 SWAP1 JUMP JUMPDEST PUSH2 0x26F2 PUSH2 0x26E5 JUMP JUMPDEST PUSH2 0x26FD DUP2 DUP5 DUP5 PUSH2 0x26C0 JUMP JUMPDEST POP POP POP JUMP JUMPDEST JUMPDEST DUP2 DUP2 LT ISZERO PUSH2 0x2721 JUMPI PUSH2 0x2716 PUSH1 0x0 DUP3 PUSH2 0x26EA JUMP JUMPDEST PUSH1 0x1 DUP2 ADD SWAP1 POP PUSH2 0x2703 JUMP JUMPDEST POP POP JUMP JUMPDEST PUSH1 0x1F DUP3 GT ISZERO PUSH2 0x2766 JUMPI PUSH2 0x2737 DUP2 PUSH2 0x2606 JUMP JUMPDEST PUSH2 0x2740 DUP5 PUSH2 0x261B JUMP JUMPDEST DUP2 ADD PUSH1 0x20 DUP6 LT ISZERO PUSH2 0x274F JUMPI DUP2 SWAP1 POP JUMPDEST PUSH2 0x2763 PUSH2 0x275B DUP6 PUSH2 0x261B JUMP JUMPDEST DUP4 ADD DUP3 PUSH2 0x2702 JUMP JUMPDEST POP POP JUMPDEST POP POP POP JUMP JUMPDEST PUSH1 0x0 DUP3 DUP3 SHR SWAP1 POP SWAP3 SWAP2 POP POP JUMP JUMPDEST PUSH1 0x0 PUSH2 0x2789 PUSH1 0x0 NOT DUP5 PUSH1 0x8 MUL PUSH2 0x276B JUMP JUMPDEST NOT DUP1 DUP4 AND SWAP2 POP POP SWAP3 SWAP2 POP POP JUMP JUMPDEST PUSH1 0x0 PUSH2 0x27A2 DUP4 DUP4 PUSH2 0x2778 JUMP JUMPDEST SWAP2 POP DUP3 PUSH1 0x2 MUL DUP3 OR SWAP1 POP SWAP3 SWAP2 POP POP JUMP JUMPDEST PUSH2 0x27BB DUP3 PUSH2 0x1C50 JUMP JUMPDEST PUSH8 0xFFFFFFFFFFFFFFFF DUP2 GT ISZERO PUSH2 0x27D4 JUMPI PUSH2 0x27D3 PUSH2 0x19A8 JUMP JUMPDEST JUMPDEST PUSH2 0x27DE DUP3 SLOAD PUSH2 0x2406 JUMP JUMPDEST PUSH2 0x27E9 DUP3 DUP3 DUP6 PUSH2 0x2725 JUMP JUMPDEST PUSH1 0x0 PUSH1 0x20 SWAP1 POP PUSH1 0x1F DUP4 GT PUSH1 0x1 DUP2 EQ PUSH2 0x281C JUMPI PUSH1 0x0 DUP5 ISZERO PUSH2 0x280A JUMPI DUP3 DUP8 ADD MLOAD SWAP1 POP JUMPDEST PUSH2 0x2814 DUP6 DUP3 PUSH2 0x2796 JUMP JUMPDEST DUP7 SSTORE POP PUSH2 0x287C JUMP JUMPDEST PUSH1 0x1F NOT DUP5 AND PUSH2 0x282A DUP7 PUSH2 0x2606 JUMP JUMPDEST PUSH1 0x0 JUMPDEST DUP3 DUP2 LT ISZERO PUSH2 0x2852 JUMPI DUP5 DUP10 ADD MLOAD DUP3 SSTORE PUSH1 0x1 DUP3 ADD SWAP2 POP PUSH1 0x20 DUP6 ADD SWAP5 POP PUSH1 0x20 DUP2 ADD SWAP1 POP PUSH2 0x282D JUMP JUMPDEST DUP7 DUP4 LT ISZERO PUSH2 0x286F JUMPI DUP5 DUP10 ADD MLOAD PUSH2 0x286B PUSH1 0x1F DUP10 AND DUP3 PUSH2 0x2778 JUMP JUMPDEST DUP4 SSTORE POP JUMPDEST PUSH1 0x1 PUSH1 0x2 DUP9 MUL ADD DUP9 SSTORE POP POP POP JUMPDEST POP POP POP POP POP POP JUMP JUMPDEST PUSH1 0x0 PUSH1 0x40 DUP3 ADD SWAP1 POP DUP2 DUP2 SUB PUSH1 0x0 DUP4 ADD MSTORE PUSH2 0x289E DUP2 DUP6 PUSH2 0x1C96 JUMP JUMPDEST SWAP1 POP DUP2 DUP2 SUB PUSH1 0x20 DUP4 ADD MSTORE PUSH2 0x28B2 DUP2 DUP5 PUSH2 0x1C96 JUMP JUMPDEST SWAP1 POP SWAP4 SWAP3 POP POP POP JUMP JUMPDEST PUSH32 0x4F6E6C792063616C6C61626C65206279206F776E657200000000000000000000 PUSH1 0x0 DUP3 ADD MSTORE POP JUMP JUMPDEST PUSH1 0x0 PUSH2 0x28F1 PUSH1 0x16 DUP4 PUSH2 0x235A JUMP JUMPDEST SWAP2 POP PUSH2 0x28FC DUP3 PUSH2 0x28BB JUMP JUMPDEST PUSH1 0x20 DUP3 ADD SWAP1 POP SWAP2 SWAP1 POP JUMP JUMPDEST PUSH1 0x0 PUSH1 0x20 DUP3 ADD SWAP1 POP DUP2 DUP2 SUB PUSH1 0x0 DUP4 ADD MSTORE PUSH2 0x2920 DUP2 PUSH2 0x28E4 JUMP JUMPDEST SWAP1 POP SWAP2 SWAP1 POP JUMP JUMPDEST PUSH1 0x0 PUSH1 0x60 DUP3 ADD SWAP1 POP PUSH2 0x293C PUSH1 0x0 DUP4 ADD DUP7 PUSH2 0x2534 JUMP JUMPDEST DUP2 DUP2 SUB PUSH1 0x20 DUP4 ADD MSTORE PUSH2 0x294E DUP2 DUP6 PUSH2 0x1C96 JUMP JUMPDEST SWAP1 POP PUSH2 0x295D PUSH1 0x40 DUP4 ADD DUP5 PUSH2 0x2543 JUMP JUMPDEST SWAP5 SWAP4 POP POP POP POP JUMP JUMPDEST PUSH1 0x0 DUP2 MLOAD SWAP1 POP PUSH2 0x2974 DUP2 PUSH2 0x1961 JUMP JUMPDEST SWAP3 SWAP2 POP POP JUMP JUMPDEST PUSH1 0x0 PUSH1 0x20 DUP3 DUP5 SUB SLT ISZERO PUSH2 0x2990 JUMPI PUSH2 0x298F PUSH2 0x194D JUMP JUMPDEST JUMPDEST PUSH1 0x0 PUSH2 0x299E DUP5 DUP3 DUP6 ADD PUSH2 0x2965 JUMP JUMPDEST SWAP2 POP POP SWAP3 SWAP2 POP POP JUMP JUMPDEST PUSH1 0x0 DUP2 MLOAD SWAP1 POP PUSH2 0x29B6 DUP2 PUSH2 0x1BBA JUMP JUMPDEST SWAP3 SWAP2 POP POP JUMP JUMPDEST PUSH1 0x0 PUSH1 0x20 DUP3 DUP5 SUB SLT ISZERO PUSH2 0x29D2 JUMPI PUSH2 0x29D1 PUSH2 0x194D JUMP JUMPDEST JUMPDEST PUSH1 0x0 PUSH2 0x29E0 DUP5 DUP3 DUP6 ADD PUSH2 0x29A7 JUMP JUMPDEST SWAP2 POP POP SWAP3 SWAP2 POP POP JUMP JUMPDEST PUSH32 0x4E487B7100000000000000000000000000000000000000000000000000000000 PUSH1 0x0 MSTORE PUSH1 0x32 PUSH1 0x4 MSTORE PUSH1 0x24 PUSH1 0x0 REVERT JUMPDEST PUSH32 0x4E487B7100000000000000000000000000000000000000000000000000000000 PUSH1 0x0 MSTORE PUSH1 0x11 PUSH1 0x4 MSTORE PUSH1 0x24 PUSH1 0x0 REVERT JUMPDEST PUSH1 0x0 PUSH2 0x2A52 DUP3 PUSH2 0x2232 JUMP JUMPDEST SWAP2 POP PUSH32 0xFFFFFFFFFFFFFFFFFFFFFFFFFFFFFFFFFFFFFFFFFFFFFFFFFFFFFFFFFFFFFFFF DUP3 SUB PUSH2 0x2A84 JUMPI PUSH2 0x2A83 PUSH2 0x2A18 JUMP JUMPDEST JUMPDEST PUSH1 0x1 DUP3 ADD SWAP1 POP SWAP2 SWAP1 POP JUMP JUMPDEST PUSH32 0x43616E6E6F74207472616E7366657220746F2073656C66000000000000000000 PUSH1 0x0 DUP3 ADD MSTORE POP JUMP JUMPDEST PUSH1 0x0 PUSH2 0x2AC5 PUSH1 0x17 DUP4 PUSH2 0x235A JUMP JUMPDEST SWAP2 POP PUSH2 0x2AD0 DUP3 PUSH2 0x2A8F JUMP JUMPDEST PUSH1 0x20 DUP3 ADD SWAP1 POP SWAP2 SWAP1 POP JUMP JUMPDEST PUSH1 0x0 PUSH1 0x20 DUP3 ADD SWAP1 POP DUP2 DUP2 SUB PUSH1 0x0 DUP4 ADD MSTORE PUSH2 0x2AF4 DUP2 PUSH2 0x2AB8 JUMP JUMPDEST SWAP1 POP SWAP2 SWAP1 POP JUMP JUMPDEST PUSH32 0x4E487B7100000000000000000000000000000000000000000000000000000000 PUSH1 0x0 MSTORE PUSH1 0x12 PUSH1 0x4 MSTORE PUSH1 0x24 PUSH1 0x0 REVERT JUMPDEST PUSH1 0x0 PUSH2 0x2B35 DUP3 PUSH2 0x2232 JUMP JUMPDEST SWAP2 POP PUSH2 0x2B40 DUP4 PUSH2 0x2232 JUMP JUMPDEST SWAP3 POP DUP3 PUSH2 0x2B50 JUMPI PUSH2 0x2B4F PUSH2 0x2AFB JUMP JUMPDEST JUMPDEST DUP3 DUP3 MOD SWAP1 POP SWAP3 SWAP2 POP POP JUMP JUMPDEST PUSH1 0x0 PUSH2 0x2B66 DUP3 PUSH2 0x2232 JUMP JUMPDEST SWAP2 POP PUSH2 0x2B71 DUP4 PUSH2 0x2232 JUMP JUMPDEST SWAP3 POP DUP3 DUP3 SUB SWAP1 POP DUP2 DUP2 GT ISZERO PUSH2 0x2B89 JUMPI PUSH2 0x2B88 PUSH2 0x2A18 JUMP JUMPDEST JUMPDEST SWAP3 SWAP2 POP POP JUMP JUMPDEST PUSH1 0x0 PUSH2 0x2B9A DUP3 PUSH2 0x2232 JUMP JUMPDEST SWAP2 POP PUSH2 0x2BA5 DUP4 PUSH2 0x2232 JUMP JUMPDEST SWAP3 POP DUP3 DUP3 ADD SWAP1 POP DUP1 DUP3 GT ISZERO PUSH2 0x2BBD JUMPI PUSH2 0x2BBC PUSH2 0x2A18 JUMP JUMPDEST JUMPDEST SWAP3 SWAP2 POP POP JUMP JUMPDEST PUSH1 0x0 PUSH1 0x20 DUP3 ADD SWAP1 POP PUSH2 0x2BD8 PUSH1 0x0 DUP4 ADD DUP5 PUSH2 0x2552 JUMP JUMPDEST SWAP3 SWAP2 POP POP JUMP JUMPDEST PUSH1 0x0 PUSH2 0x2BE9 DUP3 PUSH2 0x2232 JUMP JUMPDEST SWAP2 POP PUSH2 0x2BF4 DUP4 PUSH2 0x2232 JUMP JUMPDEST SWAP3 POP DUP3 DUP3 MUL PUSH2 0x2C02 DUP2 PUSH2 0x2232 JUMP JUMPDEST SWAP2 POP DUP3 DUP3 DIV DUP5 EQ DUP4 ISZERO OR PUSH2 0x2C19 JUMPI PUSH2 0x2C18 PUSH2 0x2A18 JUMP JUMPDEST JUMPDEST POP SWAP3 SWAP2 POP POP JUMP JUMPDEST PUSH1 0x0 DUP2 PUSH1 0x1 SHR SWAP1 POP SWAP2 SWAP1 POP JUMP JUMPDEST PUSH1 0x0 DUP1 DUP3 SWAP2 POP DUP4 SWAP1 POP JUMPDEST PUSH1 0x1 DUP6 GT ISZERO PUSH2 0x2C77 JUMPI DUP1 DUP7 DIV DUP2 GT ISZERO PUSH2 0x2C53 JUMPI PUSH2 0x2C52 PUSH2 0x2A18 JUMP JUMPDEST JUMPDEST PUSH1 0x1 DUP6 AND ISZERO PUSH2 0x2C62 JUMPI DUP1 DUP3 MUL SWAP2 POP JUMPDEST DUP1 DUP2 MUL SWAP1 POP PUSH2 0x2C70 DUP6 PUSH2 0x2C20 JUMP JUMPDEST SWAP5 POP PUSH2 0x2C37 JUMP JUMPDEST SWAP5 POP SWAP5 SWAP3 POP POP POP JUMP JUMPDEST PUSH1 0x0 DUP3 PUSH2 0x2C90 JUMPI PUSH1 0x1 SWAP1 POP PUSH2 0x2D4C JUMP JUMPDEST DUP2 PUSH2 0x2C9E JUMPI PUSH1 0x0 SWAP1 POP PUSH2 0x2D4C JUMP JUMPDEST DUP2 PUSH1 0x1 DUP2 EQ PUSH2 0x2CB4 JUMPI PUSH1 0x2 DUP2 EQ PUSH2 0x2CBE JUMPI PUSH2 0x2CED JUMP JUMPDEST PUSH1 0x1 SWAP2 POP POP PUSH2 0x2D4C JUMP JUMPDEST PUSH1 0xFF DUP5 GT ISZERO PUSH2 0x2CD0 JUMPI PUSH2 0x2CCF PUSH2 0x2A18 JUMP JUMPDEST JUMPDEST DUP4 PUSH1 0x2 EXP SWAP2 POP DUP5 DUP3 GT ISZERO PUSH2 0x2CE7 JUMPI PUSH2 0x2CE6 PUSH2 0x2A18 JUMP JUMPDEST JUMPDEST POP PUSH2 0x2D4C JUMP JUMPDEST POP PUSH1 0x20 DUP4 LT PUSH2 0x133 DUP4 LT AND PUSH1 0x4E DUP5 LT PUSH1 0xB DUP5 LT AND OR ISZERO PUSH2 0x2D22 JUMPI DUP3 DUP3 EXP SWAP1 POP DUP4 DUP2 GT ISZERO PUSH2 0x2D1D JUMPI PUSH2 0x2D1C PUSH2 0x2A18 JUMP JUMPDEST JUMPDEST PUSH2 0x2D4C JUMP JUMPDEST PUSH2 0x2D2F DUP5 DUP5 DUP5 PUSH1 0x1 PUSH2 0x2C2D JUMP JUMPDEST SWAP3 POP SWAP1 POP DUP2 DUP5 DIV DUP2 GT ISZERO PUSH2 0x2D46 JUMPI PUSH2 0x2D45 PUSH2 0x2A18 JUMP JUMPDEST JUMPDEST DUP2 DUP2 MUL SWAP1 POP JUMPDEST SWAP4 SWAP3 POP POP POP JUMP JUMPDEST PUSH1 0x0 PUSH2 0x2D5E DUP3 PUSH2 0x2232 JUMP JUMPDEST SWAP2 POP PUSH2 0x2D69 DUP4 PUSH2 0x2232 JUMP JUMPDEST SWAP3 POP PUSH2 0x2D96 PUSH32 0xFFFFFFFFFFFFFFFFFFFFFFFFFFFFFFFFFFFFFFFFFFFFFFFFFFFFFFFFFFFFFFFF DUP5 DUP5 PUSH2 0x2C80 JUMP JUMPDEST SWAP1 POP SWAP3 SWAP2 POP POP JUMP INVALID LOG2 PUSH5 0x6970667358 0x22 SLT KECCAK256 PUSH32 0x7F37E82D61A0F19B15777FED9A7961E7563053B5B292E7B7C802D1972E2CCB64 PUSH20 0x6F6C634300081200330000000000000000000000 "
				},
				"gasEstimates": {
					"creation": {
						"codeDepositCost": "2346400",
						"executionCost": "infinite",
						"totalCost": "infinite"
					},
					"external": {
						"acceptOwnership()": "54607",
						"addSimulatedRequestId(address,bytes32)": "29500",
						"estimateCost((uint8,uint8,uint8,string,bytes,string[]),uint64,uint32,uint256)": "infinite",
						"executeRequest(string,bytes,uint8,string[],uint64,uint32)": "infinite",
						"getDONPublicKey()": "infinite",
						"handleOracleFulfillment(bytes32,bytes,bytes)": "infinite",
						"latestError()": "infinite",
						"latestRequestId()": "2452",
						"latestResponse()": "infinite",
						"owner()": "2611",
						"transferOwnership(address)": "30726",
						"updateOracleAddress(address)": "27033"
					},
					"internal": {
						"fulfillRequest(bytes32,bytes memory,bytes memory)": "infinite"
					}
				},
				"methodIdentifiers": {
					"acceptOwnership()": "79ba5097",
					"addSimulatedRequestId(address,bytes32)": "30bda99d",
					"estimateCost((uint8,uint8,uint8,string,bytes,string[]),uint64,uint32,uint256)": "d4b39175",
					"executeRequest(string,bytes,uint8,string[],uint64,uint32)": "d22b224a",
					"getDONPublicKey()": "d328a91e",
					"handleOracleFulfillment(bytes32,bytes,bytes)": "0ca76175",
					"latestError()": "fffeb84e",
					"latestRequestId()": "1aa46f59",
					"latestResponse()": "bef3a2f0",
					"owner()": "8da5cb5b",
					"transferOwnership(address)": "f2fde38b",
					"updateOracleAddress(address)": "f7023bb6"
				}
			},
			"storageLayout": {
				"storage": [
					{
						"astId": 1714,
						"contract": "FunctionsConsumer.sol:FunctionsConsumer",
						"label": "s_oracle",
						"offset": 0,
						"slot": "0",
						"type": "t_contract(FunctionsOracleInterface)2143"
					},
					{
						"astId": 1718,
						"contract": "FunctionsConsumer.sol:FunctionsConsumer",
						"label": "s_pendingRequests",
						"offset": 0,
						"slot": "1",
						"type": "t_mapping(t_bytes32,t_address)"
					},
					{
						"astId": 27,
						"contract": "FunctionsConsumer.sol:FunctionsConsumer",
						"label": "s_owner",
						"offset": 0,
						"slot": "2",
						"type": "t_address"
					},
					{
						"astId": 29,
						"contract": "FunctionsConsumer.sol:FunctionsConsumer",
						"label": "s_pendingOwner",
						"offset": 0,
						"slot": "3",
						"type": "t_address"
					},
					{
						"astId": 1181,
						"contract": "FunctionsConsumer.sol:FunctionsConsumer",
						"label": "latestRequestId",
						"offset": 0,
						"slot": "4",
						"type": "t_bytes32"
					},
					{
						"astId": 1183,
						"contract": "FunctionsConsumer.sol:FunctionsConsumer",
						"label": "latestResponse",
						"offset": 0,
						"slot": "5",
						"type": "t_bytes_storage"
					},
					{
						"astId": 1185,
						"contract": "FunctionsConsumer.sol:FunctionsConsumer",
						"label": "latestError",
						"offset": 0,
						"slot": "6",
						"type": "t_bytes_storage"
					}
				],
				"types": {
					"t_address": {
						"encoding": "inplace",
						"label": "address",
						"numberOfBytes": "20"
					},
					"t_bytes32": {
						"encoding": "inplace",
						"label": "bytes32",
						"numberOfBytes": "32"
					},
					"t_bytes_storage": {
						"encoding": "bytes",
						"label": "bytes",
						"numberOfBytes": "32"
					},
					"t_contract(FunctionsOracleInterface)2143": {
						"encoding": "inplace",
						"label": "contract FunctionsOracleInterface",
						"numberOfBytes": "20"
					},
					"t_mapping(t_bytes32,t_address)": {
						"encoding": "mapping",
						"key": "t_bytes32",
						"label": "mapping(bytes32 => address)",
						"numberOfBytes": "32",
						"value": "t_address"
					}
				}
			},
			"userdoc": {
				"kind": "user",
				"methods": {
					"acceptOwnership()": {
						"notice": "Allows an ownership transfer to be completed by the recipient."
					},
					"constructor": {
						"notice": "Executes once when a contract is created to initialize state variables"
					},
					"estimateCost((uint8,uint8,uint8,string,bytes,string[]),uint64,uint32,uint256)": {
						"notice": "Estimate the total cost that will be charged to a subscription to make a request: gas re-imbursement, plus DON fee, plus Registry fee"
					},
					"executeRequest(string,bytes,uint8,string[],uint64,uint32)": {
						"notice": "Send a simple request "
					},
					"getDONPublicKey()": {
						"notice": "Returns the DON's secp256k1 public key used to encrypt secrets"
					},
					"handleOracleFulfillment(bytes32,bytes,bytes)": {
						"notice": "Chainlink Functions response handler called by the designated transmitter node in an OCR round."
					},
					"owner()": {
						"notice": "Get the current owner"
					},
					"transferOwnership(address)": {
						"notice": "Allows an owner to begin transferring ownership to a new address, pending."
					},
					"updateOracleAddress(address)": {
						"notice": "Allows the Functions oracle address to be updated"
					}
				},
				"notice": "This contract is a demonstration of using Functions.NOT FOR PRODUCTION USE",
				"version": 1
			}
		}
	}
}