{
	"hola.sol": {
		"BoardGame": {
			"abi": [
				{
					"inputs": [
						{
							"internalType": "uint64",
							"name": "subscriptionId",
							"type": "uint64"
						},
						{
							"internalType": "address",
							"name": "vrfCoordinator",
							"type": "address"
						},
						{
							"internalType": "bytes32",
							"name": "keyHash",
							"type": "bytes32"
						},
						{
							"internalType": "uint32",
							"name": "callbackGasLimit",
							"type": "uint32"
						},
						{
							"internalType": "uint16",
							"name": "requestConfirmations",
							"type": "uint16"
						}
					],
					"stateMutability": "nonpayable",
					"type": "constructor"
				},
				{
					"inputs": [
						{
							"internalType": "address",
							"name": "have",
							"type": "address"
						},
						{
							"internalType": "address",
							"name": "want",
							"type": "address"
						}
					],
					"name": "OnlyCoordinatorCanFulfill",
					"type": "error"
				},
				{
					"anonymous": false,
					"inputs": [
						{
							"indexed": true,
							"internalType": "address",
							"name": "player",
							"type": "address"
						},
						{
							"indexed": true,
							"internalType": "uint32",
							"name": "newFieldPosition",
							"type": "uint32"
						}
					],
					"name": "Moved",
					"type": "event"
				},
				{
					"anonymous": false,
					"inputs": [
						{
							"indexed": true,
							"internalType": "address",
							"name": "player",
							"type": "address"
						},
						{
							"indexed": true,
							"internalType": "string",
							"name": "name",
							"type": "string"
						}
					],
					"name": "NewPlayer",
					"type": "event"
				},
				{
					"anonymous": false,
					"inputs": [
						{
							"indexed": true,
							"internalType": "address",
							"name": "player",
							"type": "address"
						}
					],
					"name": "NewTurn",
					"type": "event"
				},
				{
					"inputs": [],
					"name": "getAllPlayers",
					"outputs": [
						{
							"components": [
								{
									"internalType": "uint32",
									"name": "fieldPosition",
									"type": "uint32"
								},
								{
									"internalType": "uint32",
									"name": "happiness",
									"type": "uint32"
								},
								{
									"internalType": "uint32",
									"name": "speed",
									"type": "uint32"
								},
								{
									"internalType": "uint32",
									"name": "wealth",
									"type": "uint32"
								},
								{
									"internalType": "bool",
									"name": "isYourTurnInProgress",
									"type": "bool"
								},
								{
									"internalType": "string",
									"name": "name",
									"type": "string"
								}
							],
							"internalType": "struct BoardGame.Profile[]",
							"name": "",
							"type": "tuple[]"
						}
					],
					"stateMutability": "view",
					"type": "function"
				},
				{
					"inputs": [
						{
							"internalType": "uint32",
							"name": "fieldPosition",
							"type": "uint32"
						}
					],
					"name": "getReward",
					"outputs": [
						{
							"internalType": "uint32",
							"name": "happiness",
							"type": "uint32"
						},
						{
							"internalType": "uint32",
							"name": "speed",
							"type": "uint32"
						},
						{
							"internalType": "uint32",
							"name": "wealth",
							"type": "uint32"
						}
					],
					"stateMutability": "pure",
					"type": "function"
				},
				{
					"inputs": [
						{
							"internalType": "address",
							"name": "player",
							"type": "address"
						}
					],
					"name": "getScore",
					"outputs": [
						{
							"internalType": "uint32",
							"name": "happiness",
							"type": "uint32"
						},
						{
							"internalType": "uint32",
							"name": "speed",
							"type": "uint32"
						},
						{
							"internalType": "uint32",
							"name": "wealth",
							"type": "uint32"
						},
						{
							"internalType": "uint32",
							"name": "fieldPosition",
							"type": "uint32"
						},
						{
							"internalType": "string",
							"name": "name",
							"type": "string"
						}
					],
					"stateMutability": "view",
					"type": "function"
				},
				{
					"inputs": [
						{
							"internalType": "uint256",
							"name": "requestId",
							"type": "uint256"
						},
						{
							"internalType": "uint256[]",
							"name": "randomWords",
							"type": "uint256[]"
						}
					],
					"name": "rawFulfillRandomWords",
					"outputs": [],
					"stateMutability": "nonpayable",
					"type": "function"
				},
				{
					"inputs": [
						{
							"internalType": "string",
							"name": "name",
							"type": "string"
						}
					],
					"name": "register",
					"outputs": [],
					"stateMutability": "nonpayable",
					"type": "function"
				},
				{
					"inputs": [],
					"name": "roleDice",
					"outputs": [],
					"stateMutability": "nonpayable",
					"type": "function"
				}
			],
			"devdoc": {
				"kind": "dev",
				"methods": {},
				"version": 1
			},
			"evm": {
				"assembly": "    /* \"hola.sol\":259:7305  contract BoardGame is VRFConsumerBaseV2 {... */\n  mstore(0x40, 0x0160)\n    /* \"hola.sol\":1122:1607  constructor(... */\n  callvalue\n  dup1\n  iszero\n  tag_1\n  jumpi\n  0x00\n  dup1\n  revert\ntag_1:\n  pop\n  mload(0x40)\n  sub(codesize, bytecodeSize)\n  dup1\n  bytecodeSize\n  dup4\n  codecopy\n  dup2\n  dup2\n  add\n  0x40\n  mstore\n  dup2\n  add\n  swap1\n  tag_2\n  swap2\n  swap1\n  tag_3\n  jump\t// in\ntag_2:\n    /* \"hola.sol\":1316:1330  vrfCoordinator */\n  dup4\n    /* \"@chainlink/contracts/src/v0.8/VRFConsumerBaseV2.sol\":5616:5631  _vrfCoordinator */\n  dup1\n    /* \"@chainlink/contracts/src/v0.8/VRFConsumerBaseV2.sol\":5599:5631  vrfCoordinator = _vrfCoordinator */\n  0xffffffffffffffffffffffffffffffffffffffff\n  and\n  0x80\n  dup2\n  0xffffffffffffffffffffffffffffffffffffffff\n  and\n  dup2\n  mstore\n  pop\n  pop\n    /* \"@chainlink/contracts/src/v0.8/VRFConsumerBaseV2.sol\":5556:5636  constructor(address _vrfCoordinator) {... */\n  pop\n    /* \"hola.sol\":1387:1401  vrfCoordinator */\n  dup4\n    /* \"hola.sol\":1342:1402  i_vrfCoordinator = VRFCoordinatorV2Interface(vrfCoordinator) */\n  0xffffffffffffffffffffffffffffffffffffffff\n  and\n  0xa0\n  dup2\n  0xffffffffffffffffffffffffffffffffffffffff\n  and\n  dup2\n  mstore\n  pop\n  pop\n    /* \"hola.sol\":1431:1445  subscriptionId */\n  dup5\n    /* \"hola.sol\":1412:1445  i_subscriptionId = subscriptionId */\n  0xffffffffffffffff\n  and\n  0xc0\n  dup2\n  0xffffffffffffffff\n  and\n  dup2\n  mstore\n  pop\n  pop\n    /* \"hola.sol\":1467:1474  keyHash */\n  dup3\n    /* \"hola.sol\":1455:1474  i_keyHash = keyHash */\n  0xe0\n  dup2\n  dup2\n  mstore\n  pop\n  pop\n    /* \"hola.sol\":1505:1521  callbackGasLimit */\n  dup2\n    /* \"hola.sol\":1484:1521  i_callbackGasLimit = callbackGasLimit */\n  0xffffffff\n  and\n  0x0100\n  dup2\n  0xffffffff\n  and\n  dup2\n  mstore\n  pop\n  pop\n    /* \"hola.sol\":1556:1576  requestConfirmations */\n  dup1\n    /* \"hola.sol\":1531:1576  i_requestConfirmations = requestConfirmations */\n  0xffff\n  and\n  0x0120\n  dup2\n  0xffff\n  and\n  dup2\n  mstore\n  pop\n  pop\n    /* \"hola.sol\":1599:1600  1 */\n  0x01\n    /* \"hola.sol\":1586:1600  i_numWords = 1 */\n  0xffffffff\n  and\n  0x0140\n  dup2\n  0xffffffff\n  and\n  dup2\n  mstore\n  pop\n  pop\n    /* \"hola.sol\":1122:1607  constructor(... */\n  pop\n  pop\n  pop\n  pop\n  pop\n    /* \"hola.sol\":259:7305  contract BoardGame is VRFConsumerBaseV2 {... */\n  jump(tag_8)\n    /* \"#utility.yul\":88:205   */\ntag_10:\n    /* \"#utility.yul\":197:198   */\n  0x00\n    /* \"#utility.yul\":194:195   */\n  dup1\n    /* \"#utility.yul\":187:199   */\n  revert\n    /* \"#utility.yul\":334:435   */\ntag_12:\n    /* \"#utility.yul\":370:377   */\n  0x00\n    /* \"#utility.yul\":410:428   */\n  0xffffffffffffffff\n    /* \"#utility.yul\":403:408   */\n  dup3\n    /* \"#utility.yul\":399:429   */\n  and\n    /* \"#utility.yul\":388:429   */\n  swap1\n  pop\n    /* \"#utility.yul\":334:435   */\n  swap2\n  swap1\n  pop\n  jump\t// out\n    /* \"#utility.yul\":441:561   */\ntag_13:\n    /* \"#utility.yul\":513:536   */\n  tag_34\n    /* \"#utility.yul\":530:535   */\n  dup2\n    /* \"#utility.yul\":513:536   */\n  tag_12\n  jump\t// in\ntag_34:\n    /* \"#utility.yul\":506:511   */\n  dup2\n    /* \"#utility.yul\":503:537   */\n  eq\n    /* \"#utility.yul\":493:555   */\n  tag_35\n  jumpi\n    /* \"#utility.yul\":551:552   */\n  0x00\n    /* \"#utility.yul\":548:549   */\n  dup1\n    /* \"#utility.yul\":541:553   */\n  revert\n    /* \"#utility.yul\":493:555   */\ntag_35:\n    /* \"#utility.yul\":441:561   */\n  pop\n  jump\t// out\n    /* \"#utility.yul\":567:708   */\ntag_14:\n    /* \"#utility.yul\":623:628   */\n  0x00\n    /* \"#utility.yul\":654:660   */\n  dup2\n    /* \"#utility.yul\":648:661   */\n  mload\n    /* \"#utility.yul\":639:661   */\n  swap1\n  pop\n    /* \"#utility.yul\":670:702   */\n  tag_37\n    /* \"#utility.yul\":696:701   */\n  dup2\n    /* \"#utility.yul\":670:702   */\n  tag_13\n  jump\t// in\ntag_37:\n    /* \"#utility.yul\":567:708   */\n  swap3\n  swap2\n  pop\n  pop\n  jump\t// out\n    /* \"#utility.yul\":714:840   */\ntag_15:\n    /* \"#utility.yul\":751:758   */\n  0x00\n    /* \"#utility.yul\":791:833   */\n  0xffffffffffffffffffffffffffffffffffffffff\n    /* \"#utility.yul\":784:789   */\n  dup3\n    /* \"#utility.yul\":780:834   */\n  and\n    /* \"#utility.yul\":769:834   */\n  swap1\n  pop\n    /* \"#utility.yul\":714:840   */\n  swap2\n  swap1\n  pop\n  jump\t// out\n    /* \"#utility.yul\":846:942   */\ntag_16:\n    /* \"#utility.yul\":883:890   */\n  0x00\n    /* \"#utility.yul\":912:936   */\n  tag_40\n    /* \"#utility.yul\":930:935   */\n  dup3\n    /* \"#utility.yul\":912:936   */\n  tag_15\n  jump\t// in\ntag_40:\n    /* \"#utility.yul\":901:936   */\n  swap1\n  pop\n    /* \"#utility.yul\":846:942   */\n  swap2\n  swap1\n  pop\n  jump\t// out\n    /* \"#utility.yul\":948:1070   */\ntag_17:\n    /* \"#utility.yul\":1021:1045   */\n  tag_42\n    /* \"#utility.yul\":1039:1044   */\n  dup2\n    /* \"#utility.yul\":1021:1045   */\n  tag_16\n  jump\t// in\ntag_42:\n    /* \"#utility.yul\":1014:1019   */\n  dup2\n    /* \"#utility.yul\":1011:1046   */\n  eq\n    /* \"#utility.yul\":1001:1064   */\n  tag_43\n  jumpi\n    /* \"#utility.yul\":1060:1061   */\n  0x00\n    /* \"#utility.yul\":1057:1058   */\n  dup1\n    /* \"#utility.yul\":1050:1062   */\n  revert\n    /* \"#utility.yul\":1001:1064   */\ntag_43:\n    /* \"#utility.yul\":948:1070   */\n  pop\n  jump\t// out\n    /* \"#utility.yul\":1076:1219   */\ntag_18:\n    /* \"#utility.yul\":1133:1138   */\n  0x00\n    /* \"#utility.yul\":1164:1170   */\n  dup2\n    /* \"#utility.yul\":1158:1171   */\n  mload\n    /* \"#utility.yul\":1149:1171   */\n  swap1\n  pop\n    /* \"#utility.yul\":1180:1213   */\n  tag_45\n    /* \"#utility.yul\":1207:1212   */\n  dup2\n    /* \"#utility.yul\":1180:1213   */\n  tag_17\n  jump\t// in\ntag_45:\n    /* \"#utility.yul\":1076:1219   */\n  swap3\n  swap2\n  pop\n  pop\n  jump\t// out\n    /* \"#utility.yul\":1225:1302   */\ntag_19:\n    /* \"#utility.yul\":1262:1269   */\n  0x00\n    /* \"#utility.yul\":1291:1296   */\n  dup2\n    /* \"#utility.yul\":1280:1296   */\n  swap1\n  pop\n    /* \"#utility.yul\":1225:1302   */\n  swap2\n  swap1\n  pop\n  jump\t// out\n    /* \"#utility.yul\":1308:1430   */\ntag_20:\n    /* \"#utility.yul\":1381:1405   */\n  tag_48\n    /* \"#utility.yul\":1399:1404   */\n  dup2\n    /* \"#utility.yul\":1381:1405   */\n  tag_19\n  jump\t// in\ntag_48:\n    /* \"#utility.yul\":1374:1379   */\n  dup2\n    /* \"#utility.yul\":1371:1406   */\n  eq\n    /* \"#utility.yul\":1361:1424   */\n  tag_49\n  jumpi\n    /* \"#utility.yul\":1420:1421   */\n  0x00\n    /* \"#utility.yul\":1417:1418   */\n  dup1\n    /* \"#utility.yul\":1410:1422   */\n  revert\n    /* \"#utility.yul\":1361:1424   */\ntag_49:\n    /* \"#utility.yul\":1308:1430   */\n  pop\n  jump\t// out\n    /* \"#utility.yul\":1436:1579   */\ntag_21:\n    /* \"#utility.yul\":1493:1498   */\n  0x00\n    /* \"#utility.yul\":1524:1530   */\n  dup2\n    /* \"#utility.yul\":1518:1531   */\n  mload\n    /* \"#utility.yul\":1509:1531   */\n  swap1\n  pop\n    /* \"#utility.yul\":1540:1573   */\n  tag_51\n    /* \"#utility.yul\":1567:1572   */\n  dup2\n    /* \"#utility.yul\":1540:1573   */\n  tag_20\n  jump\t// in\ntag_51:\n    /* \"#utility.yul\":1436:1579   */\n  swap3\n  swap2\n  pop\n  pop\n  jump\t// out\n    /* \"#utility.yul\":1585:1678   */\ntag_22:\n    /* \"#utility.yul\":1621:1628   */\n  0x00\n    /* \"#utility.yul\":1661:1671   */\n  0xffffffff\n    /* \"#utility.yul\":1654:1659   */\n  dup3\n    /* \"#utility.yul\":1650:1672   */\n  and\n    /* \"#utility.yul\":1639:1672   */\n  swap1\n  pop\n    /* \"#utility.yul\":1585:1678   */\n  swap2\n  swap1\n  pop\n  jump\t// out\n    /* \"#utility.yul\":1684:1804   */\ntag_23:\n    /* \"#utility.yul\":1756:1779   */\n  tag_54\n    /* \"#utility.yul\":1773:1778   */\n  dup2\n    /* \"#utility.yul\":1756:1779   */\n  tag_22\n  jump\t// in\ntag_54:\n    /* \"#utility.yul\":1749:1754   */\n  dup2\n    /* \"#utility.yul\":1746:1780   */\n  eq\n    /* \"#utility.yul\":1736:1798   */\n  tag_55\n  jumpi\n    /* \"#utility.yul\":1794:1795   */\n  0x00\n    /* \"#utility.yul\":1791:1792   */\n  dup1\n    /* \"#utility.yul\":1784:1796   */\n  revert\n    /* \"#utility.yul\":1736:1798   */\ntag_55:\n    /* \"#utility.yul\":1684:1804   */\n  pop\n  jump\t// out\n    /* \"#utility.yul\":1810:1951   */\ntag_24:\n    /* \"#utility.yul\":1866:1871   */\n  0x00\n    /* \"#utility.yul\":1897:1903   */\n  dup2\n    /* \"#utility.yul\":1891:1904   */\n  mload\n    /* \"#utility.yul\":1882:1904   */\n  swap1\n  pop\n    /* \"#utility.yul\":1913:1945   */\n  tag_57\n    /* \"#utility.yul\":1939:1944   */\n  dup2\n    /* \"#utility.yul\":1913:1945   */\n  tag_23\n  jump\t// in\ntag_57:\n    /* \"#utility.yul\":1810:1951   */\n  swap3\n  swap2\n  pop\n  pop\n  jump\t// out\n    /* \"#utility.yul\":1957:2046   */\ntag_25:\n    /* \"#utility.yul\":1993:2000   */\n  0x00\n    /* \"#utility.yul\":2033:2039   */\n  0xffff\n    /* \"#utility.yul\":2026:2031   */\n  dup3\n    /* \"#utility.yul\":2022:2040   */\n  and\n    /* \"#utility.yul\":2011:2040   */\n  swap1\n  pop\n    /* \"#utility.yul\":1957:2046   */\n  swap2\n  swap1\n  pop\n  jump\t// out\n    /* \"#utility.yul\":2052:2172   */\ntag_26:\n    /* \"#utility.yul\":2124:2147   */\n  tag_60\n    /* \"#utility.yul\":2141:2146   */\n  dup2\n    /* \"#utility.yul\":2124:2147   */\n  tag_25\n  jump\t// in\ntag_60:\n    /* \"#utility.yul\":2117:2122   */\n  dup2\n    /* \"#utility.yul\":2114:2148   */\n  eq\n    /* \"#utility.yul\":2104:2166   */\n  tag_61\n  jumpi\n    /* \"#utility.yul\":2162:2163   */\n  0x00\n    /* \"#utility.yul\":2159:2160   */\n  dup1\n    /* \"#utility.yul\":2152:2164   */\n  revert\n    /* \"#utility.yul\":2104:2166   */\ntag_61:\n    /* \"#utility.yul\":2052:2172   */\n  pop\n  jump\t// out\n    /* \"#utility.yul\":2178:2319   */\ntag_27:\n    /* \"#utility.yul\":2234:2239   */\n  0x00\n    /* \"#utility.yul\":2265:2271   */\n  dup2\n    /* \"#utility.yul\":2259:2272   */\n  mload\n    /* \"#utility.yul\":2250:2272   */\n  swap1\n  pop\n    /* \"#utility.yul\":2281:2313   */\n  tag_63\n    /* \"#utility.yul\":2307:2312   */\n  dup2\n    /* \"#utility.yul\":2281:2313   */\n  tag_26\n  jump\t// in\ntag_63:\n    /* \"#utility.yul\":2178:2319   */\n  swap3\n  swap2\n  pop\n  pop\n  jump\t// out\n    /* \"#utility.yul\":2325:3296   */\ntag_3:\n    /* \"#utility.yul\":2428:2434   */\n  0x00\n    /* \"#utility.yul\":2436:2442   */\n  dup1\n    /* \"#utility.yul\":2444:2450   */\n  0x00\n    /* \"#utility.yul\":2452:2458   */\n  dup1\n    /* \"#utility.yul\":2460:2466   */\n  0x00\n    /* \"#utility.yul\":2509:2512   */\n  0xa0\n    /* \"#utility.yul\":2497:2506   */\n  dup7\n    /* \"#utility.yul\":2488:2495   */\n  dup9\n    /* \"#utility.yul\":2484:2507   */\n  sub\n    /* \"#utility.yul\":2480:2513   */\n  slt\n    /* \"#utility.yul\":2477:2597   */\n  iszero\n  tag_65\n  jumpi\n    /* \"#utility.yul\":2516:2595   */\n  tag_66\n  tag_10\n  jump\t// in\ntag_66:\n    /* \"#utility.yul\":2477:2597   */\ntag_65:\n    /* \"#utility.yul\":2636:2637   */\n  0x00\n    /* \"#utility.yul\":2661:2724   */\n  tag_67\n    /* \"#utility.yul\":2716:2723   */\n  dup9\n    /* \"#utility.yul\":2707:2713   */\n  dup3\n    /* \"#utility.yul\":2696:2705   */\n  dup10\n    /* \"#utility.yul\":2692:2714   */\n  add\n    /* \"#utility.yul\":2661:2724   */\n  tag_14\n  jump\t// in\ntag_67:\n    /* \"#utility.yul\":2651:2724   */\n  swap6\n  pop\n    /* \"#utility.yul\":2607:2734   */\n  pop\n    /* \"#utility.yul\":2773:2775   */\n  0x20\n    /* \"#utility.yul\":2799:2863   */\n  tag_68\n    /* \"#utility.yul\":2855:2862   */\n  dup9\n    /* \"#utility.yul\":2846:2852   */\n  dup3\n    /* \"#utility.yul\":2835:2844   */\n  dup10\n    /* \"#utility.yul\":2831:2853   */\n  add\n    /* \"#utility.yul\":2799:2863   */\n  tag_18\n  jump\t// in\ntag_68:\n    /* \"#utility.yul\":2789:2863   */\n  swap5\n  pop\n    /* \"#utility.yul\":2744:2873   */\n  pop\n    /* \"#utility.yul\":2912:2914   */\n  0x40\n    /* \"#utility.yul\":2938:3002   */\n  tag_69\n    /* \"#utility.yul\":2994:3001   */\n  dup9\n    /* \"#utility.yul\":2985:2991   */\n  dup3\n    /* \"#utility.yul\":2974:2983   */\n  dup10\n    /* \"#utility.yul\":2970:2992   */\n  add\n    /* \"#utility.yul\":2938:3002   */\n  tag_21\n  jump\t// in\ntag_69:\n    /* \"#utility.yul\":2928:3002   */\n  swap4\n  pop\n    /* \"#utility.yul\":2883:3012   */\n  pop\n    /* \"#utility.yul\":3051:3053   */\n  0x60\n    /* \"#utility.yul\":3077:3140   */\n  tag_70\n    /* \"#utility.yul\":3132:3139   */\n  dup9\n    /* \"#utility.yul\":3123:3129   */\n  dup3\n    /* \"#utility.yul\":3112:3121   */\n  dup10\n    /* \"#utility.yul\":3108:3130   */\n  add\n    /* \"#utility.yul\":3077:3140   */\n  tag_24\n  jump\t// in\ntag_70:\n    /* \"#utility.yul\":3067:3140   */\n  swap3\n  pop\n    /* \"#utility.yul\":3022:3150   */\n  pop\n    /* \"#utility.yul\":3189:3192   */\n  0x80\n    /* \"#utility.yul\":3216:3279   */\n  tag_71\n    /* \"#utility.yul\":3271:3278   */\n  dup9\n    /* \"#utility.yul\":3262:3268   */\n  dup3\n    /* \"#utility.yul\":3251:3260   */\n  dup10\n    /* \"#utility.yul\":3247:3269   */\n  add\n    /* \"#utility.yul\":3216:3279   */\n  tag_27\n  jump\t// in\ntag_71:\n    /* \"#utility.yul\":3206:3279   */\n  swap2\n  pop\n    /* \"#utility.yul\":3160:3289   */\n  pop\n    /* \"#utility.yul\":2325:3296   */\n  swap3\n  swap6\n  pop\n  swap3\n  swap6\n  swap1\n  swap4\n  pop\n  jump\t// out\n    /* \"hola.sol\":259:7305  contract BoardGame is VRFConsumerBaseV2 {... */\ntag_8:\n  mload(0x80)\n  mload(0xa0)\n  mload(0xc0)\n  mload(0xe0)\n  mload(0x0100)\n  mload(0x0120)\n  mload(0x0140)\n  codecopy(0x00, dataOffset(sub_0), dataSize(sub_0))\n  0x00\n  assignImmutable(\"0x911a39fbf665a24ad3b6efc185d4b936bbda1900793ae2f7c00f4d18bdd96685\")\n  0x00\n  assignImmutable(\"0xa4f21281edf90d86f21da3432ee4f5dff8abfbde6aab55afd7f9f7d4d3676c77\")\n  0x00\n  assignImmutable(\"0x9d6b7fbd0ded42ab14e47300e428df3f38e4fbb3a7f790d898a87bff4f86606b\")\n  0x00\n  assignImmutable(\"0xb35cf579f54ccafa8cda334bf8f538b0f7a8230c902d5a84be1ea7996ef7fb49\")\n  0x00\n  assignImmutable(\"0xb82efe928ba8047fc73c44199ae87270ba92aad773ed77645c6bc82e384fdb71\")\n  0x00\n  assignImmutable(\"0xca1c98d2cee18ab5da51a9df7bbf45ca91ab83c708e48aed82f5115320306ab4\")\n  0x00\n  assignImmutable(\"0x1a192fabce13988b84994d4296e6cdc418d55e2f1d7f942188d4040b94fc57ac\")\n  return(0x00, dataSize(sub_0))\nstop\n\nsub_0: assembly {\n        /* \"hola.sol\":259:7305  contract BoardGame is VRFConsumerBaseV2 {... */\n      mstore(0x40, 0x80)\n      callvalue\n      dup1\n      iszero\n      tag_1\n      jumpi\n      0x00\n      dup1\n      revert\n    tag_1:\n      pop\n      jumpi(tag_2, lt(calldatasize, 0x04))\n      shr(0xe0, calldataload(0x00))\n      dup1\n      0x1fe543e3\n      eq\n      tag_3\n      jumpi\n      dup1\n      0x2f0c2c7c\n      eq\n      tag_4\n      jumpi\n      dup1\n      0xc7b3c11e\n      eq\n      tag_5\n      jumpi\n      dup1\n      0xd47875d0\n      eq\n      tag_6\n      jumpi\n      dup1\n      0xefa1c482\n      eq\n      tag_7\n      jumpi\n      dup1\n      0xf2c298be\n      eq\n      tag_8\n      jumpi\n    tag_2:\n      0x00\n      dup1\n      revert\n        /* \"@chainlink/contracts/src/v0.8/VRFConsumerBaseV2.sol\":6618:6874  function rawFulfillRandomWords(uint256 requestId, uint256[] memory randomWords) external {... */\n    tag_3:\n      tag_9\n      0x04\n      dup1\n      calldatasize\n      sub\n      dup2\n      add\n      swap1\n      tag_10\n      swap2\n      swap1\n      tag_11\n      jump\t// in\n    tag_10:\n      tag_12\n      jump\t// in\n    tag_9:\n      stop\n        /* \"hola.sol\":3428:6677  function getReward(uint32 fieldPosition)... */\n    tag_4:\n      tag_13\n      0x04\n      dup1\n      calldatasize\n      sub\n      dup2\n      add\n      swap1\n      tag_14\n      swap2\n      swap1\n      tag_15\n      jump\t// in\n    tag_14:\n      tag_16\n      jump\t// in\n    tag_13:\n      mload(0x40)\n      tag_17\n      swap4\n      swap3\n      swap2\n      swap1\n      tag_18\n      jump\t// in\n    tag_17:\n      mload(0x40)\n      dup1\n      swap2\n      sub\n      swap1\n      return\n        /* \"hola.sol\":1918:2520  function roleDice() external {... */\n    tag_5:\n      tag_19\n      tag_20\n      jump\t// in\n    tag_19:\n      stop\n        /* \"hola.sol\":2526:3043  function getScore(address player)... */\n    tag_6:\n      tag_21\n      0x04\n      dup1\n      calldatasize\n      sub\n      dup2\n      add\n      swap1\n      tag_22\n      swap2\n      swap1\n      tag_23\n      jump\t// in\n    tag_22:\n      tag_24\n      jump\t// in\n    tag_21:\n      mload(0x40)\n      tag_25\n      swap6\n      swap5\n      swap4\n      swap3\n      swap2\n      swap1\n      tag_26\n      jump\t// in\n    tag_25:\n      mload(0x40)\n      dup1\n      swap2\n      sub\n      swap1\n      return\n        /* \"hola.sol\":3049:3422  function getAllPlayers() external view returns (Profile[] memory) {... */\n    tag_7:\n      tag_27\n      tag_28\n      jump\t// in\n    tag_27:\n      mload(0x40)\n      tag_29\n      swap2\n      swap1\n      tag_30\n      jump\t// in\n    tag_29:\n      mload(0x40)\n      dup1\n      swap2\n      sub\n      swap1\n      return\n        /* \"hola.sol\":1613:1912  function register(string memory name) external {... */\n    tag_8:\n      tag_31\n      0x04\n      dup1\n      calldatasize\n      sub\n      dup2\n      add\n      swap1\n      tag_32\n      swap2\n      swap1\n      tag_33\n      jump\t// in\n    tag_32:\n      tag_34\n      jump\t// in\n    tag_31:\n      stop\n        /* \"@chainlink/contracts/src/v0.8/VRFConsumerBaseV2.sol\":6618:6874  function rawFulfillRandomWords(uint256 requestId, uint256[] memory randomWords) external {... */\n    tag_12:\n        /* \"@chainlink/contracts/src/v0.8/VRFConsumerBaseV2.sol\":6731:6745  vrfCoordinator */\n      immutable(\"0x1a192fabce13988b84994d4296e6cdc418d55e2f1d7f942188d4040b94fc57ac\")\n        /* \"@chainlink/contracts/src/v0.8/VRFConsumerBaseV2.sol\":6717:6745  msg.sender != vrfCoordinator */\n      0xffffffffffffffffffffffffffffffffffffffff\n      and\n        /* \"@chainlink/contracts/src/v0.8/VRFConsumerBaseV2.sol\":6717:6727  msg.sender */\n      caller\n        /* \"@chainlink/contracts/src/v0.8/VRFConsumerBaseV2.sol\":6717:6745  msg.sender != vrfCoordinator */\n      0xffffffffffffffffffffffffffffffffffffffff\n      and\n      eq\n        /* \"@chainlink/contracts/src/v0.8/VRFConsumerBaseV2.sol\":6713:6822  if (msg.sender != vrfCoordinator) {... */\n      tag_36\n      jumpi\n        /* \"@chainlink/contracts/src/v0.8/VRFConsumerBaseV2.sol\":6788:6798  msg.sender */\n      caller\n        /* \"@chainlink/contracts/src/v0.8/VRFConsumerBaseV2.sol\":6800:6814  vrfCoordinator */\n      immutable(\"0x1a192fabce13988b84994d4296e6cdc418d55e2f1d7f942188d4040b94fc57ac\")\n        /* \"@chainlink/contracts/src/v0.8/VRFConsumerBaseV2.sol\":6762:6815  OnlyCoordinatorCanFulfill(msg.sender, vrfCoordinator) */\n      mload(0x40)\n      0x1cf993f400000000000000000000000000000000000000000000000000000000\n      dup2\n      mstore\n      0x04\n      add\n      tag_37\n      swap3\n      swap2\n      swap1\n      tag_38\n      jump\t// in\n    tag_37:\n      mload(0x40)\n      dup1\n      swap2\n      sub\n      swap1\n      revert\n        /* \"@chainlink/contracts/src/v0.8/VRFConsumerBaseV2.sol\":6713:6822  if (msg.sender != vrfCoordinator) {... */\n    tag_36:\n        /* \"@chainlink/contracts/src/v0.8/VRFConsumerBaseV2.sol\":6827:6869  fulfillRandomWords(requestId, randomWords) */\n      tag_39\n        /* \"@chainlink/contracts/src/v0.8/VRFConsumerBaseV2.sol\":6846:6855  requestId */\n      dup3\n        /* \"@chainlink/contracts/src/v0.8/VRFConsumerBaseV2.sol\":6857:6868  randomWords */\n      dup3\n        /* \"@chainlink/contracts/src/v0.8/VRFConsumerBaseV2.sol\":6827:6845  fulfillRandomWords */\n      tag_40\n        /* \"@chainlink/contracts/src/v0.8/VRFConsumerBaseV2.sol\":6827:6869  fulfillRandomWords(requestId, randomWords) */\n      jump\t// in\n    tag_39:\n        /* \"@chainlink/contracts/src/v0.8/VRFConsumerBaseV2.sol\":6618:6874  function rawFulfillRandomWords(uint256 requestId, uint256[] memory randomWords) external {... */\n      pop\n      pop\n      jump\t// out\n        /* \"hola.sol\":3428:6677  function getReward(uint32 fieldPosition)... */\n    tag_16:\n        /* \"hola.sol\":3527:3543  uint32 happiness */\n      0x00\n        /* \"hola.sol\":3557:3569  uint32 speed */\n      dup1\n        /* \"hola.sol\":3583:3596  uint32 wealth */\n      0x00\n        /* \"hola.sol\":3642:3643  0 */\n      dup1\n        /* \"hola.sol\":3625:3638  fieldPosition */\n      dup5\n        /* \"hola.sol\":3625:3643  fieldPosition == 0 */\n      0xffffffff\n      and\n      sub\n        /* \"hola.sol\":3621:6671  if (fieldPosition == 0) {... */\n      tag_42\n      jumpi\n        /* \"hola.sol\":3667:3668  0 */\n      0x00\n        /* \"hola.sol\":3670:3671  0 */\n      dup1\n        /* \"hola.sol\":3673:3674  0 */\n      0x00\n        /* \"hola.sol\":3659:3675  return (0, 0, 0) */\n      swap3\n      pop\n      swap3\n      pop\n      swap3\n      pop\n      jump(tag_41)\n        /* \"hola.sol\":3621:6671  if (fieldPosition == 0) {... */\n    tag_42:\n        /* \"hola.sol\":3713:3714  1 */\n      0x01\n        /* \"hola.sol\":3696:3709  fieldPosition */\n      dup5\n        /* \"hola.sol\":3696:3714  fieldPosition == 1 */\n      0xffffffff\n      and\n      sub\n        /* \"hola.sol\":3692:6671  if (fieldPosition == 1) {... */\n      tag_44\n      jumpi\n        /* \"hola.sol\":3738:3740  10 */\n      0x0a\n        /* \"hola.sol\":3742:3743  0 */\n      0x00\n        /* \"hola.sol\":3745:3746  0 */\n      dup1\n        /* \"hola.sol\":3730:3747  return (10, 0, 0) */\n      swap3\n      pop\n      swap3\n      pop\n      swap3\n      pop\n      jump(tag_41)\n        /* \"hola.sol\":3692:6671  if (fieldPosition == 1) {... */\n    tag_44:\n        /* \"hola.sol\":3785:3786  2 */\n      0x02\n        /* \"hola.sol\":3768:3781  fieldPosition */\n      dup5\n        /* \"hola.sol\":3768:3786  fieldPosition == 2 */\n      0xffffffff\n      and\n      sub\n        /* \"hola.sol\":3764:6671  if (fieldPosition == 2) {... */\n      tag_46\n      jumpi\n        /* \"hola.sol\":3810:3811  0 */\n      0x00\n        /* \"hola.sol\":3813:3815  10 */\n      0x0a\n        /* \"hola.sol\":3817:3818  0 */\n      0x00\n        /* \"hola.sol\":3802:3819  return (0, 10, 0) */\n      swap3\n      pop\n      swap3\n      pop\n      swap3\n      pop\n      jump(tag_41)\n        /* \"hola.sol\":3764:6671  if (fieldPosition == 2) {... */\n    tag_46:\n        /* \"hola.sol\":3857:3858  3 */\n      0x03\n        /* \"hola.sol\":3840:3853  fieldPosition */\n      dup5\n        /* \"hola.sol\":3840:3858  fieldPosition == 3 */\n      0xffffffff\n      and\n      sub\n        /* \"hola.sol\":3836:6671  if (fieldPosition == 3) {... */\n      tag_48\n      jumpi\n        /* \"hola.sol\":3882:3883  0 */\n      0x00\n        /* \"hola.sol\":3885:3886  0 */\n      dup1\n        /* \"hola.sol\":3888:3890  10 */\n      0x0a\n        /* \"hola.sol\":3874:3891  return (0, 0, 10) */\n      swap3\n      pop\n      swap3\n      pop\n      swap3\n      pop\n      jump(tag_41)\n        /* \"hola.sol\":3836:6671  if (fieldPosition == 3) {... */\n    tag_48:\n        /* \"hola.sol\":3929:3930  4 */\n      0x04\n        /* \"hola.sol\":3912:3925  fieldPosition */\n      dup5\n        /* \"hola.sol\":3912:3930  fieldPosition == 4 */\n      0xffffffff\n      and\n      sub\n        /* \"hola.sol\":3908:6671  if (fieldPosition == 4) {... */\n      tag_50\n      jumpi\n        /* \"hola.sol\":3954:3956  10 */\n      0x0a\n        /* \"hola.sol\":3958:3960  10 */\n      dup1\n        /* \"hola.sol\":3962:3963  0 */\n      0x00\n        /* \"hola.sol\":3946:3964  return (10, 10, 0) */\n      swap3\n      pop\n      swap3\n      pop\n      swap3\n      pop\n      jump(tag_41)\n        /* \"hola.sol\":3908:6671  if (fieldPosition == 4) {... */\n    tag_50:\n        /* \"hola.sol\":4002:4003  5 */\n      0x05\n        /* \"hola.sol\":3985:3998  fieldPosition */\n      dup5\n        /* \"hola.sol\":3985:4003  fieldPosition == 5 */\n      0xffffffff\n      and\n      sub\n        /* \"hola.sol\":3981:6671  if (fieldPosition == 5) {... */\n      tag_52\n      jumpi\n        /* \"hola.sol\":4027:4029  10 */\n      0x0a\n        /* \"hola.sol\":4031:4032  0 */\n      0x00\n        /* \"hola.sol\":4034:4036  10 */\n      0x0a\n        /* \"hola.sol\":4019:4037  return (10, 0, 10) */\n      swap3\n      pop\n      swap3\n      pop\n      swap3\n      pop\n      jump(tag_41)\n        /* \"hola.sol\":3981:6671  if (fieldPosition == 5) {... */\n    tag_52:\n        /* \"hola.sol\":4075:4076  6 */\n      0x06\n        /* \"hola.sol\":4058:4071  fieldPosition */\n      dup5\n        /* \"hola.sol\":4058:4076  fieldPosition == 6 */\n      0xffffffff\n      and\n      sub\n        /* \"hola.sol\":4054:6671  if (fieldPosition == 6) {... */\n      tag_54\n      jumpi\n        /* \"hola.sol\":4100:4101  0 */\n      0x00\n        /* \"hola.sol\":4103:4105  10 */\n      0x0a\n        /* \"hola.sol\":4107:4109  10 */\n      dup1\n        /* \"hola.sol\":4092:4110  return (0, 10, 10) */\n      swap3\n      pop\n      swap3\n      pop\n      swap3\n      pop\n      jump(tag_41)\n        /* \"hola.sol\":4054:6671  if (fieldPosition == 6) {... */\n    tag_54:\n        /* \"hola.sol\":4148:4149  7 */\n      0x07\n        /* \"hola.sol\":4131:4144  fieldPosition */\n      dup5\n        /* \"hola.sol\":4131:4149  fieldPosition == 7 */\n      0xffffffff\n      and\n      sub\n        /* \"hola.sol\":4127:6671  if (fieldPosition == 7) {... */\n      tag_56\n      jumpi\n        /* \"hola.sol\":4173:4175  10 */\n      0x0a\n        /* \"hola.sol\":4177:4179  10 */\n      dup1\n        /* \"hola.sol\":4181:4183  10 */\n      0x0a\n        /* \"hola.sol\":4165:4184  return (10, 10, 10) */\n      swap3\n      pop\n      swap3\n      pop\n      swap3\n      pop\n      jump(tag_41)\n        /* \"hola.sol\":4127:6671  if (fieldPosition == 7) {... */\n    tag_56:\n        /* \"hola.sol\":4222:4223  8 */\n      0x08\n        /* \"hola.sol\":4205:4218  fieldPosition */\n      dup5\n        /* \"hola.sol\":4205:4223  fieldPosition == 8 */\n      0xffffffff\n      and\n      sub\n        /* \"hola.sol\":4201:6671  if (fieldPosition == 8) {... */\n      tag_58\n      jumpi\n        /* \"hola.sol\":4247:4249  10 */\n      0x0a\n        /* \"hola.sol\":4251:4252  0 */\n      0x00\n        /* \"hola.sol\":4254:4255  0 */\n      dup1\n        /* \"hola.sol\":4239:4256  return (10, 0, 0) */\n      swap3\n      pop\n      swap3\n      pop\n      swap3\n      pop\n      jump(tag_41)\n        /* \"hola.sol\":4201:6671  if (fieldPosition == 8) {... */\n    tag_58:\n        /* \"hola.sol\":4294:4295  9 */\n      0x09\n        /* \"hola.sol\":4277:4290  fieldPosition */\n      dup5\n        /* \"hola.sol\":4277:4295  fieldPosition == 9 */\n      0xffffffff\n      and\n      sub\n        /* \"hola.sol\":4273:6671  if (fieldPosition == 9) {... */\n      tag_60\n      jumpi\n        /* \"hola.sol\":4319:4320  0 */\n      0x00\n        /* \"hola.sol\":4322:4324  10 */\n      0x0a\n        /* \"hola.sol\":4326:4327  0 */\n      0x00\n        /* \"hola.sol\":4311:4328  return (0, 10, 0) */\n      swap3\n      pop\n      swap3\n      pop\n      swap3\n      pop\n      jump(tag_41)\n        /* \"hola.sol\":4273:6671  if (fieldPosition == 9) {... */\n    tag_60:\n        /* \"hola.sol\":4366:4368  10 */\n      0x0a\n        /* \"hola.sol\":4349:4362  fieldPosition */\n      dup5\n        /* \"hola.sol\":4349:4368  fieldPosition == 10 */\n      0xffffffff\n      and\n      sub\n        /* \"hola.sol\":4345:6671  if (fieldPosition == 10) {... */\n      tag_62\n      jumpi\n        /* \"hola.sol\":4392:4393  0 */\n      0x00\n        /* \"hola.sol\":4395:4396  0 */\n      dup1\n        /* \"hola.sol\":4398:4400  10 */\n      0x0a\n        /* \"hola.sol\":4384:4401  return (0, 0, 10) */\n      swap3\n      pop\n      swap3\n      pop\n      swap3\n      pop\n      jump(tag_41)\n        /* \"hola.sol\":4345:6671  if (fieldPosition == 10) {... */\n    tag_62:\n        /* \"hola.sol\":4439:4441  11 */\n      0x0b\n        /* \"hola.sol\":4422:4435  fieldPosition */\n      dup5\n        /* \"hola.sol\":4422:4441  fieldPosition == 11 */\n      0xffffffff\n      and\n      sub\n        /* \"hola.sol\":4418:6671  if (fieldPosition == 11) {... */\n      tag_64\n      jumpi\n        /* \"hola.sol\":4465:4467  10 */\n      0x0a\n        /* \"hola.sol\":4469:4471  10 */\n      dup1\n        /* \"hola.sol\":4473:4474  0 */\n      0x00\n        /* \"hola.sol\":4457:4475  return (10, 10, 0) */\n      swap3\n      pop\n      swap3\n      pop\n      swap3\n      pop\n      jump(tag_41)\n        /* \"hola.sol\":4418:6671  if (fieldPosition == 11) {... */\n    tag_64:\n        /* \"hola.sol\":4513:4515  12 */\n      0x0c\n        /* \"hola.sol\":4496:4509  fieldPosition */\n      dup5\n        /* \"hola.sol\":4496:4515  fieldPosition == 12 */\n      0xffffffff\n      and\n      sub\n        /* \"hola.sol\":4492:6671  if (fieldPosition == 12) {... */\n      tag_66\n      jumpi\n        /* \"hola.sol\":4539:4541  10 */\n      0x0a\n        /* \"hola.sol\":4543:4544  0 */\n      0x00\n        /* \"hola.sol\":4546:4548  10 */\n      0x0a\n        /* \"hola.sol\":4531:4549  return (10, 0, 10) */\n      swap3\n      pop\n      swap3\n      pop\n      swap3\n      pop\n      jump(tag_41)\n        /* \"hola.sol\":4492:6671  if (fieldPosition == 12) {... */\n    tag_66:\n        /* \"hola.sol\":4587:4589  13 */\n      0x0d\n        /* \"hola.sol\":4570:4583  fieldPosition */\n      dup5\n        /* \"hola.sol\":4570:4589  fieldPosition == 13 */\n      0xffffffff\n      and\n      sub\n        /* \"hola.sol\":4566:6671  if (fieldPosition == 13) {... */\n      tag_68\n      jumpi\n        /* \"hola.sol\":4613:4614  0 */\n      0x00\n        /* \"hola.sol\":4616:4618  10 */\n      0x0a\n        /* \"hola.sol\":4620:4622  10 */\n      dup1\n        /* \"hola.sol\":4605:4623  return (0, 10, 10) */\n      swap3\n      pop\n      swap3\n      pop\n      swap3\n      pop\n      jump(tag_41)\n        /* \"hola.sol\":4566:6671  if (fieldPosition == 13) {... */\n    tag_68:\n        /* \"hola.sol\":4661:4663  14 */\n      0x0e\n        /* \"hola.sol\":4644:4657  fieldPosition */\n      dup5\n        /* \"hola.sol\":4644:4663  fieldPosition == 14 */\n      0xffffffff\n      and\n      sub\n        /* \"hola.sol\":4640:6671  if (fieldPosition == 14) {... */\n      tag_70\n      jumpi\n        /* \"hola.sol\":4687:4689  10 */\n      0x0a\n        /* \"hola.sol\":4691:4693  10 */\n      dup1\n        /* \"hola.sol\":4695:4697  10 */\n      0x0a\n        /* \"hola.sol\":4679:4698  return (10, 10, 10) */\n      swap3\n      pop\n      swap3\n      pop\n      swap3\n      pop\n      jump(tag_41)\n        /* \"hola.sol\":4640:6671  if (fieldPosition == 14) {... */\n    tag_70:\n        /* \"hola.sol\":4736:4738  15 */\n      0x0f\n        /* \"hola.sol\":4719:4732  fieldPosition */\n      dup5\n        /* \"hola.sol\":4719:4738  fieldPosition == 15 */\n      0xffffffff\n      and\n      sub\n        /* \"hola.sol\":4715:6671  if (fieldPosition == 15) {... */\n      tag_72\n      jumpi\n        /* \"hola.sol\":4762:4764  10 */\n      0x0a\n        /* \"hola.sol\":4766:4767  0 */\n      0x00\n        /* \"hola.sol\":4769:4770  0 */\n      dup1\n        /* \"hola.sol\":4754:4771  return (10, 0, 0) */\n      swap3\n      pop\n      swap3\n      pop\n      swap3\n      pop\n      jump(tag_41)\n        /* \"hola.sol\":4715:6671  if (fieldPosition == 15) {... */\n    tag_72:\n        /* \"hola.sol\":4809:4811  16 */\n      0x10\n        /* \"hola.sol\":4792:4805  fieldPosition */\n      dup5\n        /* \"hola.sol\":4792:4811  fieldPosition == 16 */\n      0xffffffff\n      and\n      sub\n        /* \"hola.sol\":4788:6671  if (fieldPosition == 16) {... */\n      tag_74\n      jumpi\n        /* \"hola.sol\":4835:4836  0 */\n      0x00\n        /* \"hola.sol\":4838:4840  10 */\n      0x0a\n        /* \"hola.sol\":4842:4843  0 */\n      0x00\n        /* \"hola.sol\":4827:4844  return (0, 10, 0) */\n      swap3\n      pop\n      swap3\n      pop\n      swap3\n      pop\n      jump(tag_41)\n        /* \"hola.sol\":4788:6671  if (fieldPosition == 16) {... */\n    tag_74:\n        /* \"hola.sol\":4882:4884  17 */\n      0x11\n        /* \"hola.sol\":4865:4878  fieldPosition */\n      dup5\n        /* \"hola.sol\":4865:4884  fieldPosition == 17 */\n      0xffffffff\n      and\n      sub\n        /* \"hola.sol\":4861:6671  if (fieldPosition == 17) {... */\n      tag_76\n      jumpi\n        /* \"hola.sol\":4908:4909  0 */\n      0x00\n        /* \"hola.sol\":4911:4912  0 */\n      dup1\n        /* \"hola.sol\":4914:4916  10 */\n      0x0a\n        /* \"hola.sol\":4900:4917  return (0, 0, 10) */\n      swap3\n      pop\n      swap3\n      pop\n      swap3\n      pop\n      jump(tag_41)\n        /* \"hola.sol\":4861:6671  if (fieldPosition == 17) {... */\n    tag_76:\n        /* \"hola.sol\":4955:4957  18 */\n      0x12\n        /* \"hola.sol\":4938:4951  fieldPosition */\n      dup5\n        /* \"hola.sol\":4938:4957  fieldPosition == 18 */\n      0xffffffff\n      and\n      sub\n        /* \"hola.sol\":4934:6671  if (fieldPosition == 18) {... */\n      tag_78\n      jumpi\n        /* \"hola.sol\":4981:4983  10 */\n      0x0a\n        /* \"hola.sol\":4985:4987  10 */\n      dup1\n        /* \"hola.sol\":4989:4990  0 */\n      0x00\n        /* \"hola.sol\":4973:4991  return (10, 10, 0) */\n      swap3\n      pop\n      swap3\n      pop\n      swap3\n      pop\n      jump(tag_41)\n        /* \"hola.sol\":4934:6671  if (fieldPosition == 18) {... */\n    tag_78:\n        /* \"hola.sol\":5029:5031  19 */\n      0x13\n        /* \"hola.sol\":5012:5025  fieldPosition */\n      dup5\n        /* \"hola.sol\":5012:5031  fieldPosition == 19 */\n      0xffffffff\n      and\n      sub\n        /* \"hola.sol\":5008:6671  if (fieldPosition == 19) {... */\n      tag_80\n      jumpi\n        /* \"hola.sol\":5055:5057  10 */\n      0x0a\n        /* \"hola.sol\":5059:5060  0 */\n      0x00\n        /* \"hola.sol\":5062:5064  10 */\n      0x0a\n        /* \"hola.sol\":5047:5065  return (10, 0, 10) */\n      swap3\n      pop\n      swap3\n      pop\n      swap3\n      pop\n      jump(tag_41)\n        /* \"hola.sol\":5008:6671  if (fieldPosition == 19) {... */\n    tag_80:\n        /* \"hola.sol\":5103:5105  20 */\n      0x14\n        /* \"hola.sol\":5086:5099  fieldPosition */\n      dup5\n        /* \"hola.sol\":5086:5105  fieldPosition == 20 */\n      0xffffffff\n      and\n      sub\n        /* \"hola.sol\":5082:6671  if (fieldPosition == 20) {... */\n      tag_82\n      jumpi\n        /* \"hola.sol\":5129:5130  0 */\n      0x00\n        /* \"hola.sol\":5132:5134  10 */\n      0x0a\n        /* \"hola.sol\":5136:5138  10 */\n      dup1\n        /* \"hola.sol\":5121:5139  return (0, 10, 10) */\n      swap3\n      pop\n      swap3\n      pop\n      swap3\n      pop\n      jump(tag_41)\n        /* \"hola.sol\":5082:6671  if (fieldPosition == 20) {... */\n    tag_82:\n        /* \"hola.sol\":5177:5179  21 */\n      0x15\n        /* \"hola.sol\":5160:5173  fieldPosition */\n      dup5\n        /* \"hola.sol\":5160:5179  fieldPosition == 21 */\n      0xffffffff\n      and\n      sub\n        /* \"hola.sol\":5156:6671  if (fieldPosition == 21) {... */\n      tag_84\n      jumpi\n        /* \"hola.sol\":5203:5205  10 */\n      0x0a\n        /* \"hola.sol\":5207:5209  10 */\n      dup1\n        /* \"hola.sol\":5211:5213  10 */\n      0x0a\n        /* \"hola.sol\":5195:5214  return (10, 10, 10) */\n      swap3\n      pop\n      swap3\n      pop\n      swap3\n      pop\n      jump(tag_41)\n        /* \"hola.sol\":5156:6671  if (fieldPosition == 21) {... */\n    tag_84:\n        /* \"hola.sol\":5252:5254  22 */\n      0x16\n        /* \"hola.sol\":5235:5248  fieldPosition */\n      dup5\n        /* \"hola.sol\":5235:5254  fieldPosition == 22 */\n      0xffffffff\n      and\n      sub\n        /* \"hola.sol\":5231:6671  if (fieldPosition == 22) {... */\n      tag_86\n      jumpi\n        /* \"hola.sol\":5278:5280  10 */\n      0x0a\n        /* \"hola.sol\":5282:5283  0 */\n      0x00\n        /* \"hola.sol\":5285:5286  0 */\n      dup1\n        /* \"hola.sol\":5270:5287  return (10, 0, 0) */\n      swap3\n      pop\n      swap3\n      pop\n      swap3\n      pop\n      jump(tag_41)\n        /* \"hola.sol\":5231:6671  if (fieldPosition == 22) {... */\n    tag_86:\n        /* \"hola.sol\":5325:5327  23 */\n      0x17\n        /* \"hola.sol\":5308:5321  fieldPosition */\n      dup5\n        /* \"hola.sol\":5308:5327  fieldPosition == 23 */\n      0xffffffff\n      and\n      sub\n        /* \"hola.sol\":5304:6671  if (fieldPosition == 23) {... */\n      tag_88\n      jumpi\n        /* \"hola.sol\":5351:5352  0 */\n      0x00\n        /* \"hola.sol\":5354:5356  10 */\n      0x0a\n        /* \"hola.sol\":5358:5359  0 */\n      0x00\n        /* \"hola.sol\":5343:5360  return (0, 10, 0) */\n      swap3\n      pop\n      swap3\n      pop\n      swap3\n      pop\n      jump(tag_41)\n        /* \"hola.sol\":5304:6671  if (fieldPosition == 23) {... */\n    tag_88:\n        /* \"hola.sol\":5398:5400  24 */\n      0x18\n        /* \"hola.sol\":5381:5394  fieldPosition */\n      dup5\n        /* \"hola.sol\":5381:5400  fieldPosition == 24 */\n      0xffffffff\n      and\n      sub\n        /* \"hola.sol\":5377:6671  if (fieldPosition == 24) {... */\n      tag_90\n      jumpi\n        /* \"hola.sol\":5424:5425  0 */\n      0x00\n        /* \"hola.sol\":5427:5428  0 */\n      dup1\n        /* \"hola.sol\":5430:5432  10 */\n      0x0a\n        /* \"hola.sol\":5416:5433  return (0, 0, 10) */\n      swap3\n      pop\n      swap3\n      pop\n      swap3\n      pop\n      jump(tag_41)\n        /* \"hola.sol\":5377:6671  if (fieldPosition == 24) {... */\n    tag_90:\n        /* \"hola.sol\":5471:5473  25 */\n      0x19\n        /* \"hola.sol\":5454:5467  fieldPosition */\n      dup5\n        /* \"hola.sol\":5454:5473  fieldPosition == 25 */\n      0xffffffff\n      and\n      sub\n        /* \"hola.sol\":5450:6671  if (fieldPosition == 25) {... */\n      tag_92\n      jumpi\n        /* \"hola.sol\":5497:5499  10 */\n      0x0a\n        /* \"hola.sol\":5501:5503  10 */\n      dup1\n        /* \"hola.sol\":5505:5506  0 */\n      0x00\n        /* \"hola.sol\":5489:5507  return (10, 10, 0) */\n      swap3\n      pop\n      swap3\n      pop\n      swap3\n      pop\n      jump(tag_41)\n        /* \"hola.sol\":5450:6671  if (fieldPosition == 25) {... */\n    tag_92:\n        /* \"hola.sol\":5545:5547  26 */\n      0x1a\n        /* \"hola.sol\":5528:5541  fieldPosition */\n      dup5\n        /* \"hola.sol\":5528:5547  fieldPosition == 26 */\n      0xffffffff\n      and\n      sub\n        /* \"hola.sol\":5524:6671  if (fieldPosition == 26) {... */\n      tag_94\n      jumpi\n        /* \"hola.sol\":5571:5573  10 */\n      0x0a\n        /* \"hola.sol\":5575:5576  0 */\n      0x00\n        /* \"hola.sol\":5578:5580  10 */\n      0x0a\n        /* \"hola.sol\":5563:5581  return (10, 0, 10) */\n      swap3\n      pop\n      swap3\n      pop\n      swap3\n      pop\n      jump(tag_41)\n        /* \"hola.sol\":5524:6671  if (fieldPosition == 26) {... */\n    tag_94:\n        /* \"hola.sol\":5619:5621  27 */\n      0x1b\n        /* \"hola.sol\":5602:5615  fieldPosition */\n      dup5\n        /* \"hola.sol\":5602:5621  fieldPosition == 27 */\n      0xffffffff\n      and\n      sub\n        /* \"hola.sol\":5598:6671  if (fieldPosition == 27) {... */\n      tag_96\n      jumpi\n        /* \"hola.sol\":5645:5646  0 */\n      0x00\n        /* \"hola.sol\":5648:5650  10 */\n      0x0a\n        /* \"hola.sol\":5652:5654  10 */\n      dup1\n        /* \"hola.sol\":5637:5655  return (0, 10, 10) */\n      swap3\n      pop\n      swap3\n      pop\n      swap3\n      pop\n      jump(tag_41)\n        /* \"hola.sol\":5598:6671  if (fieldPosition == 27) {... */\n    tag_96:\n        /* \"hola.sol\":5693:5695  28 */\n      0x1c\n        /* \"hola.sol\":5676:5689  fieldPosition */\n      dup5\n        /* \"hola.sol\":5676:5695  fieldPosition == 28 */\n      0xffffffff\n      and\n      sub\n        /* \"hola.sol\":5672:6671  if (fieldPosition == 28) {... */\n      tag_98\n      jumpi\n        /* \"hola.sol\":5719:5721  10 */\n      0x0a\n        /* \"hola.sol\":5723:5725  10 */\n      dup1\n        /* \"hola.sol\":5727:5729  10 */\n      0x0a\n        /* \"hola.sol\":5711:5730  return (10, 10, 10) */\n      swap3\n      pop\n      swap3\n      pop\n      swap3\n      pop\n      jump(tag_41)\n        /* \"hola.sol\":5672:6671  if (fieldPosition == 28) {... */\n    tag_98:\n        /* \"hola.sol\":5768:5770  29 */\n      0x1d\n        /* \"hola.sol\":5751:5764  fieldPosition */\n      dup5\n        /* \"hola.sol\":5751:5770  fieldPosition == 29 */\n      0xffffffff\n      and\n      sub\n        /* \"hola.sol\":5747:6671  if (fieldPosition == 29) {... */\n      tag_100\n      jumpi\n        /* \"hola.sol\":5794:5796  10 */\n      0x0a\n        /* \"hola.sol\":5798:5799  0 */\n      0x00\n        /* \"hola.sol\":5801:5802  0 */\n      dup1\n        /* \"hola.sol\":5786:5803  return (10, 0, 0) */\n      swap3\n      pop\n      swap3\n      pop\n      swap3\n      pop\n      jump(tag_41)\n        /* \"hola.sol\":5747:6671  if (fieldPosition == 29) {... */\n    tag_100:\n        /* \"hola.sol\":5841:5843  30 */\n      0x1e\n        /* \"hola.sol\":5824:5837  fieldPosition */\n      dup5\n        /* \"hola.sol\":5824:5843  fieldPosition == 30 */\n      0xffffffff\n      and\n      sub\n        /* \"hola.sol\":5820:6671  if (fieldPosition == 30) {... */\n      tag_102\n      jumpi\n        /* \"hola.sol\":5867:5868  0 */\n      0x00\n        /* \"hola.sol\":5870:5872  10 */\n      0x0a\n        /* \"hola.sol\":5874:5875  0 */\n      0x00\n        /* \"hola.sol\":5859:5876  return (0, 10, 0) */\n      swap3\n      pop\n      swap3\n      pop\n      swap3\n      pop\n      jump(tag_41)\n        /* \"hola.sol\":5820:6671  if (fieldPosition == 30) {... */\n    tag_102:\n        /* \"hola.sol\":5914:5916  31 */\n      0x1f\n        /* \"hola.sol\":5897:5910  fieldPosition */\n      dup5\n        /* \"hola.sol\":5897:5916  fieldPosition == 31 */\n      0xffffffff\n      and\n      sub\n        /* \"hola.sol\":5893:6671  if (fieldPosition == 31) {... */\n      tag_104\n      jumpi\n        /* \"hola.sol\":5940:5941  0 */\n      0x00\n        /* \"hola.sol\":5943:5944  0 */\n      dup1\n        /* \"hola.sol\":5946:5948  10 */\n      0x0a\n        /* \"hola.sol\":5932:5949  return (0, 0, 10) */\n      swap3\n      pop\n      swap3\n      pop\n      swap3\n      pop\n      jump(tag_41)\n        /* \"hola.sol\":5893:6671  if (fieldPosition == 31) {... */\n    tag_104:\n        /* \"hola.sol\":5987:5989  32 */\n      0x20\n        /* \"hola.sol\":5970:5983  fieldPosition */\n      dup5\n        /* \"hola.sol\":5970:5989  fieldPosition == 32 */\n      0xffffffff\n      and\n      sub\n        /* \"hola.sol\":5966:6671  if (fieldPosition == 32) {... */\n      tag_106\n      jumpi\n        /* \"hola.sol\":6013:6015  10 */\n      0x0a\n        /* \"hola.sol\":6017:6019  10 */\n      dup1\n        /* \"hola.sol\":6021:6022  0 */\n      0x00\n        /* \"hola.sol\":6005:6023  return (10, 10, 0) */\n      swap3\n      pop\n      swap3\n      pop\n      swap3\n      pop\n      jump(tag_41)\n        /* \"hola.sol\":5966:6671  if (fieldPosition == 32) {... */\n    tag_106:\n        /* \"hola.sol\":6061:6063  33 */\n      0x21\n        /* \"hola.sol\":6044:6057  fieldPosition */\n      dup5\n        /* \"hola.sol\":6044:6063  fieldPosition == 33 */\n      0xffffffff\n      and\n      sub\n        /* \"hola.sol\":6040:6671  if (fieldPosition == 33) {... */\n      tag_108\n      jumpi\n        /* \"hola.sol\":6087:6089  10 */\n      0x0a\n        /* \"hola.sol\":6091:6092  0 */\n      0x00\n        /* \"hola.sol\":6094:6096  10 */\n      0x0a\n        /* \"hola.sol\":6079:6097  return (10, 0, 10) */\n      swap3\n      pop\n      swap3\n      pop\n      swap3\n      pop\n      jump(tag_41)\n        /* \"hola.sol\":6040:6671  if (fieldPosition == 33) {... */\n    tag_108:\n        /* \"hola.sol\":6135:6137  34 */\n      0x22\n        /* \"hola.sol\":6118:6131  fieldPosition */\n      dup5\n        /* \"hola.sol\":6118:6137  fieldPosition == 34 */\n      0xffffffff\n      and\n      sub\n        /* \"hola.sol\":6114:6671  if (fieldPosition == 34) {... */\n      tag_110\n      jumpi\n        /* \"hola.sol\":6161:6162  0 */\n      0x00\n        /* \"hola.sol\":6164:6166  10 */\n      0x0a\n        /* \"hola.sol\":6168:6170  10 */\n      dup1\n        /* \"hola.sol\":6153:6171  return (0, 10, 10) */\n      swap3\n      pop\n      swap3\n      pop\n      swap3\n      pop\n      jump(tag_41)\n        /* \"hola.sol\":6114:6671  if (fieldPosition == 34) {... */\n    tag_110:\n        /* \"hola.sol\":6209:6211  35 */\n      0x23\n        /* \"hola.sol\":6192:6205  fieldPosition */\n      dup5\n        /* \"hola.sol\":6192:6211  fieldPosition == 35 */\n      0xffffffff\n      and\n      sub\n        /* \"hola.sol\":6188:6671  if (fieldPosition == 35) {... */\n      tag_112\n      jumpi\n        /* \"hola.sol\":6235:6237  10 */\n      0x0a\n        /* \"hola.sol\":6239:6241  10 */\n      dup1\n        /* \"hola.sol\":6243:6245  10 */\n      0x0a\n        /* \"hola.sol\":6227:6246  return (10, 10, 10) */\n      swap3\n      pop\n      swap3\n      pop\n      swap3\n      pop\n      jump(tag_41)\n        /* \"hola.sol\":6188:6671  if (fieldPosition == 35) {... */\n    tag_112:\n        /* \"hola.sol\":6284:6286  36 */\n      0x24\n        /* \"hola.sol\":6267:6280  fieldPosition */\n      dup5\n        /* \"hola.sol\":6267:6286  fieldPosition == 36 */\n      0xffffffff\n      and\n      sub\n        /* \"hola.sol\":6263:6671  if (fieldPosition == 36) {... */\n      tag_114\n      jumpi\n        /* \"hola.sol\":6310:6312  10 */\n      0x0a\n        /* \"hola.sol\":6314:6315  0 */\n      0x00\n        /* \"hola.sol\":6317:6318  0 */\n      dup1\n        /* \"hola.sol\":6302:6319  return (10, 0, 0) */\n      swap3\n      pop\n      swap3\n      pop\n      swap3\n      pop\n      jump(tag_41)\n        /* \"hola.sol\":6263:6671  if (fieldPosition == 36) {... */\n    tag_114:\n        /* \"hola.sol\":6357:6359  37 */\n      0x25\n        /* \"hola.sol\":6340:6353  fieldPosition */\n      dup5\n        /* \"hola.sol\":6340:6359  fieldPosition == 37 */\n      0xffffffff\n      and\n      sub\n        /* \"hola.sol\":6336:6671  if (fieldPosition == 37) {... */\n      tag_116\n      jumpi\n        /* \"hola.sol\":6383:6384  0 */\n      0x00\n        /* \"hola.sol\":6386:6388  10 */\n      0x0a\n        /* \"hola.sol\":6390:6391  0 */\n      0x00\n        /* \"hola.sol\":6375:6392  return (0, 10, 0) */\n      swap3\n      pop\n      swap3\n      pop\n      swap3\n      pop\n      jump(tag_41)\n        /* \"hola.sol\":6336:6671  if (fieldPosition == 37) {... */\n    tag_116:\n        /* \"hola.sol\":6430:6432  38 */\n      0x26\n        /* \"hola.sol\":6413:6426  fieldPosition */\n      dup5\n        /* \"hola.sol\":6413:6432  fieldPosition == 38 */\n      0xffffffff\n      and\n      sub\n        /* \"hola.sol\":6409:6671  if (fieldPosition == 38) {... */\n      tag_118\n      jumpi\n        /* \"hola.sol\":6456:6457  0 */\n      0x00\n        /* \"hola.sol\":6459:6460  0 */\n      dup1\n        /* \"hola.sol\":6462:6464  10 */\n      0x0a\n        /* \"hola.sol\":6448:6465  return (0, 0, 10) */\n      swap3\n      pop\n      swap3\n      pop\n      swap3\n      pop\n      jump(tag_41)\n        /* \"hola.sol\":6409:6671  if (fieldPosition == 38) {... */\n    tag_118:\n        /* \"hola.sol\":6503:6505  39 */\n      0x27\n        /* \"hola.sol\":6486:6499  fieldPosition */\n      dup5\n        /* \"hola.sol\":6486:6505  fieldPosition == 39 */\n      0xffffffff\n      and\n      sub\n        /* \"hola.sol\":6482:6671  if (fieldPosition == 39) {... */\n      tag_120\n      jumpi\n        /* \"hola.sol\":6529:6531  10 */\n      0x0a\n        /* \"hola.sol\":6533:6535  10 */\n      dup1\n        /* \"hola.sol\":6537:6538  0 */\n      0x00\n        /* \"hola.sol\":6521:6539  return (10, 10, 0) */\n      swap3\n      pop\n      swap3\n      pop\n      swap3\n      pop\n      jump(tag_41)\n        /* \"hola.sol\":6482:6671  if (fieldPosition == 39) {... */\n    tag_120:\n        /* \"hola.sol\":6577:6579  40 */\n      0x28\n        /* \"hola.sol\":6560:6573  fieldPosition */\n      dup5\n        /* \"hola.sol\":6560:6579  fieldPosition == 40 */\n      0xffffffff\n      and\n      sub\n        /* \"hola.sol\":6556:6671  if (fieldPosition == 40) {... */\n      tag_122\n      jumpi\n        /* \"hola.sol\":6603:6605  10 */\n      0x0a\n        /* \"hola.sol\":6607:6608  0 */\n      0x00\n        /* \"hola.sol\":6610:6612  10 */\n      0x0a\n        /* \"hola.sol\":6595:6613  return (10, 0, 10) */\n      swap3\n      pop\n      swap3\n      pop\n      swap3\n      pop\n      jump(tag_41)\n        /* \"hola.sol\":6556:6671  if (fieldPosition == 40) {... */\n    tag_122:\n        /* \"hola.sol\":6652:6653  0 */\n      0x00\n        /* \"hola.sol\":6655:6656  0 */\n      dup1\n        /* \"hola.sol\":6658:6659  0 */\n      0x00\n        /* \"hola.sol\":6644:6660  return (0, 0, 0) */\n      swap3\n      pop\n      swap3\n      pop\n      swap3\n      pop\n        /* \"hola.sol\":3428:6677  function getReward(uint32 fieldPosition)... */\n    tag_41:\n      swap2\n      swap4\n      swap1\n      swap3\n      pop\n      jump\t// out\n        /* \"hola.sol\":1918:2520  function roleDice() external {... */\n    tag_20:\n        /* \"hola.sol\":1979:1986  players */\n      0x00\n        /* \"hola.sol\":1979:1998  players[msg.sender] */\n      dup1\n        /* \"hola.sol\":1987:1997  msg.sender */\n      caller\n        /* \"hola.sol\":1979:1998  players[msg.sender] */\n      0xffffffffffffffffffffffffffffffffffffffff\n      and\n      0xffffffffffffffffffffffffffffffffffffffff\n      and\n      dup2\n      mstore\n      0x20\n      add\n      swap1\n      dup2\n      mstore\n      0x20\n      add\n      0x00\n      keccak256\n        /* \"hola.sol\":1979:2019  players[msg.sender].isYourTurnInProgress */\n      0x00\n      add\n      0x10\n      swap1\n      sload\n      swap1\n      0x0100\n      exp\n      swap1\n      div\n      0xff\n      and\n        /* \"hola.sol\":1978:2019  !players[msg.sender].isYourTurnInProgress */\n      iszero\n        /* \"hola.sol\":1957:2084  require(... */\n      tag_125\n      jumpi\n      mload(0x40)\n      0x08c379a000000000000000000000000000000000000000000000000000000000\n      dup2\n      mstore\n      0x04\n      add\n      tag_126\n      swap1\n      tag_127\n      jump\t// in\n    tag_126:\n      mload(0x40)\n      dup1\n      swap2\n      sub\n      swap1\n      revert\n    tag_125:\n        /* \"hola.sol\":2138:2140  40 */\n      0x28\n        /* \"hola.sol\":2102:2109  players */\n      0x00\n        /* \"hola.sol\":2102:2121  players[msg.sender] */\n      dup1\n        /* \"hola.sol\":2110:2120  msg.sender */\n      caller\n        /* \"hola.sol\":2102:2121  players[msg.sender] */\n      0xffffffffffffffffffffffffffffffffffffffff\n      and\n      0xffffffffffffffffffffffffffffffffffffffff\n      and\n      dup2\n      mstore\n      0x20\n      add\n      swap1\n      dup2\n      mstore\n      0x20\n      add\n      0x00\n      keccak256\n        /* \"hola.sol\":2102:2135  players[msg.sender].fieldPosition */\n      0x00\n      add\n      0x00\n      swap1\n      sload\n      swap1\n      0x0100\n      exp\n      swap1\n      div\n      0xffffffff\n      and\n        /* \"hola.sol\":2102:2140  players[msg.sender].fieldPosition < 40 */\n      0xffffffff\n      and\n      lt\n        /* \"hola.sol\":2094:2154  require(players[msg.sender].fieldPosition < 40, \"Game over\") */\n      tag_128\n      jumpi\n      mload(0x40)\n      0x08c379a000000000000000000000000000000000000000000000000000000000\n      dup2\n      mstore\n      0x04\n      add\n      tag_129\n      swap1\n      tag_130\n      jump\t// in\n    tag_129:\n      mload(0x40)\n      dup1\n      swap2\n      sub\n      swap1\n      revert\n    tag_128:\n        /* \"hola.sol\":2208:2212  true */\n      0x01\n        /* \"hola.sol\":2165:2172  players */\n      0x00\n        /* \"hola.sol\":2165:2184  players[msg.sender] */\n      dup1\n        /* \"hola.sol\":2173:2183  msg.sender */\n      caller\n        /* \"hola.sol\":2165:2184  players[msg.sender] */\n      0xffffffffffffffffffffffffffffffffffffffff\n      and\n      0xffffffffffffffffffffffffffffffffffffffff\n      and\n      dup2\n      mstore\n      0x20\n      add\n      swap1\n      dup2\n      mstore\n      0x20\n      add\n      0x00\n      keccak256\n        /* \"hola.sol\":2165:2205  players[msg.sender].isYourTurnInProgress */\n      0x00\n      add\n      0x10\n        /* \"hola.sol\":2165:2212  players[msg.sender].isYourTurnInProgress = true */\n      0x0100\n      exp\n      dup2\n      sload\n      dup2\n      0xff\n      mul\n      not\n      and\n      swap1\n      dup4\n      iszero\n      iszero\n      mul\n      or\n      swap1\n      sstore\n      pop\n        /* \"hola.sol\":2223:2240  uint256 requestId */\n      0x00\n        /* \"hola.sol\":2243:2259  i_vrfCoordinator */\n      immutable(\"0xca1c98d2cee18ab5da51a9df7bbf45ca91ab83c708e48aed82f5115320306ab4\")\n        /* \"hola.sol\":2243:2278  i_vrfCoordinator.requestRandomWords */\n      0xffffffffffffffffffffffffffffffffffffffff\n      and\n      0x5d3b1d30\n        /* \"hola.sol\":2292:2301  i_keyHash */\n      immutable(\"0xb35cf579f54ccafa8cda334bf8f538b0f7a8230c902d5a84be1ea7996ef7fb49\")\n        /* \"hola.sol\":2315:2331  i_subscriptionId */\n      immutable(\"0xb82efe928ba8047fc73c44199ae87270ba92aad773ed77645c6bc82e384fdb71\")\n        /* \"hola.sol\":2345:2367  i_requestConfirmations */\n      immutable(\"0xa4f21281edf90d86f21da3432ee4f5dff8abfbde6aab55afd7f9f7d4d3676c77\")\n        /* \"hola.sol\":2381:2399  i_callbackGasLimit */\n      immutable(\"0x9d6b7fbd0ded42ab14e47300e428df3f38e4fbb3a7f790d898a87bff4f86606b\")\n        /* \"hola.sol\":2413:2423  i_numWords */\n      immutable(\"0x911a39fbf665a24ad3b6efc185d4b936bbda1900793ae2f7c00f4d18bdd96685\")\n        /* \"hola.sol\":2243:2433  i_vrfCoordinator.requestRandomWords(... */\n      mload(0x40)\n      dup7\n      0xffffffff\n      and\n      0xe0\n      shl\n      dup2\n      mstore\n      0x04\n      add\n      tag_131\n      swap6\n      swap5\n      swap4\n      swap3\n      swap2\n      swap1\n      tag_132\n      jump\t// in\n    tag_131:\n      0x20\n      mload(0x40)\n      dup1\n      dup4\n      sub\n      dup2\n      0x00\n      dup8\n      gas\n      call\n      iszero\n      dup1\n      iszero\n      tag_134\n      jumpi\n      returndatasize\n      0x00\n      dup1\n      returndatacopy\n      revert(0x00, returndatasize)\n    tag_134:\n      pop\n      pop\n      pop\n      pop\n      mload(0x40)\n      returndatasize\n      not(0x1f)\n      0x1f\n      dup3\n      add\n      and\n      dup3\n      add\n      dup1\n      0x40\n      mstore\n      pop\n      dup2\n      add\n      swap1\n      tag_135\n      swap2\n      swap1\n      tag_136\n      jump\t// in\n    tag_135:\n        /* \"hola.sol\":2223:2433  uint256 requestId = i_vrfCoordinator.requestRandomWords(... */\n      swap1\n      pop\n        /* \"hola.sol\":2468:2478  msg.sender */\n      caller\n        /* \"hola.sol\":2444:2454  requestIds */\n      0x01\n        /* \"hola.sol\":2444:2465  requestIds[requestId] */\n      0x00\n        /* \"hola.sol\":2455:2464  requestId */\n      dup4\n        /* \"hola.sol\":2444:2465  requestIds[requestId] */\n      dup2\n      mstore\n      0x20\n      add\n      swap1\n      dup2\n      mstore\n      0x20\n      add\n      0x00\n      keccak256\n      0x00\n        /* \"hola.sol\":2444:2478  requestIds[requestId] = msg.sender */\n      0x0100\n      exp\n      dup2\n      sload\n      dup2\n      0xffffffffffffffffffffffffffffffffffffffff\n      mul\n      not\n      and\n      swap1\n      dup4\n      0xffffffffffffffffffffffffffffffffffffffff\n      and\n      mul\n      or\n      swap1\n      sstore\n      pop\n        /* \"hola.sol\":2502:2512  msg.sender */\n      caller\n        /* \"hola.sol\":2494:2513  NewTurn(msg.sender) */\n      0xffffffffffffffffffffffffffffffffffffffff\n      and\n      0x41d1a459ab67bcb3138612c208da7ec5021c56ce9ffe7b8b209159f3446e1e9d\n      mload(0x40)\n      mload(0x40)\n      dup1\n      swap2\n      sub\n      swap1\n      log2\n        /* \"hola.sol\":1947:2520  {... */\n      pop\n        /* \"hola.sol\":1918:2520  function roleDice() external {... */\n      jump\t// out\n        /* \"hola.sol\":2526:3043  function getScore(address player)... */\n    tag_24:\n        /* \"hola.sol\":2620:2636  uint32 happiness */\n      0x00\n        /* \"hola.sol\":2650:2662  uint32 speed */\n      dup1\n        /* \"hola.sol\":2676:2689  uint32 wealth */\n      0x00\n        /* \"hola.sol\":2703:2723  uint32 fieldPosition */\n      dup1\n        /* \"hola.sol\":2737:2755  string memory name */\n      0x60\n        /* \"hola.sol\":2780:2809  Profile memory playersProfile */\n      0x00\n        /* \"hola.sol\":2812:2819  players */\n      dup1\n        /* \"hola.sol\":2812:2827  players[player] */\n      0x00\n        /* \"hola.sol\":2820:2826  player */\n      dup9\n        /* \"hola.sol\":2812:2827  players[player] */\n      0xffffffffffffffffffffffffffffffffffffffff\n      and\n      0xffffffffffffffffffffffffffffffffffffffff\n      and\n      dup2\n      mstore\n      0x20\n      add\n      swap1\n      dup2\n      mstore\n      0x20\n      add\n      0x00\n      keccak256\n        /* \"hola.sol\":2780:2827  Profile memory playersProfile = players[player] */\n      mload(0x40)\n      dup1\n      0xc0\n      add\n      0x40\n      mstore\n      swap1\n      dup2\n      0x00\n      dup3\n      add\n      0x00\n      swap1\n      sload\n      swap1\n      0x0100\n      exp\n      swap1\n      div\n      0xffffffff\n      and\n      0xffffffff\n      and\n      0xffffffff\n      and\n      dup2\n      mstore\n      0x20\n      add\n      0x00\n      dup3\n      add\n      0x04\n      swap1\n      sload\n      swap1\n      0x0100\n      exp\n      swap1\n      div\n      0xffffffff\n      and\n      0xffffffff\n      and\n      0xffffffff\n      and\n      dup2\n      mstore\n      0x20\n      add\n      0x00\n      dup3\n      add\n      0x08\n      swap1\n      sload\n      swap1\n      0x0100\n      exp\n      swap1\n      div\n      0xffffffff\n      and\n      0xffffffff\n      and\n      0xffffffff\n      and\n      dup2\n      mstore\n      0x20\n      add\n      0x00\n      dup3\n      add\n      0x0c\n      swap1\n      sload\n      swap1\n      0x0100\n      exp\n      swap1\n      div\n      0xffffffff\n      and\n      0xffffffff\n      and\n      0xffffffff\n      and\n      dup2\n      mstore\n      0x20\n      add\n      0x00\n      dup3\n      add\n      0x10\n      swap1\n      sload\n      swap1\n      0x0100\n      exp\n      swap1\n      div\n      0xff\n      and\n      iszero\n      iszero\n      iszero\n      iszero\n      dup2\n      mstore\n      0x20\n      add\n      0x01\n      dup3\n      add\n      dup1\n      sload\n      tag_138\n      swap1\n      tag_139\n      jump\t// in\n    tag_138:\n      dup1\n      0x1f\n      add\n      0x20\n      dup1\n      swap2\n      div\n      mul\n      0x20\n      add\n      mload(0x40)\n      swap1\n      dup2\n      add\n      0x40\n      mstore\n      dup1\n      swap3\n      swap2\n      swap1\n      dup2\n      dup2\n      mstore\n      0x20\n      add\n      dup3\n      dup1\n      sload\n      tag_140\n      swap1\n      tag_139\n      jump\t// in\n    tag_140:\n      dup1\n      iszero\n      tag_141\n      jumpi\n      dup1\n      0x1f\n      lt\n      tag_142\n      jumpi\n      0x0100\n      dup1\n      dup4\n      sload\n      div\n      mul\n      dup4\n      mstore\n      swap2\n      0x20\n      add\n      swap2\n      jump(tag_141)\n    tag_142:\n      dup3\n      add\n      swap2\n      swap1\n      0x00\n      mstore\n      keccak256(0x00, 0x20)\n      swap1\n    tag_143:\n      dup2\n      sload\n      dup2\n      mstore\n      swap1\n      0x01\n      add\n      swap1\n      0x20\n      add\n      dup1\n      dup4\n      gt\n      tag_143\n      jumpi\n      dup3\n      swap1\n      sub\n      0x1f\n      and\n      dup3\n      add\n      swap2\n    tag_141:\n      pop\n      pop\n      pop\n      pop\n      pop\n      dup2\n      mstore\n      pop\n      pop\n      swap1\n      pop\n        /* \"hola.sol\":2858:2872  playersProfile */\n      dup1\n        /* \"hola.sol\":2858:2882  playersProfile.happiness */\n      0x20\n      add\n      mload\n        /* \"hola.sol\":2896:2910  playersProfile */\n      dup2\n        /* \"hola.sol\":2896:2916  playersProfile.speed */\n      0x40\n      add\n      mload\n        /* \"hola.sol\":2930:2944  playersProfile */\n      dup3\n        /* \"hola.sol\":2930:2951  playersProfile.wealth */\n      0x60\n      add\n      mload\n        /* \"hola.sol\":2965:2979  playersProfile */\n      dup4\n        /* \"hola.sol\":2965:2993  playersProfile.fieldPosition */\n      0x00\n      add\n      mload\n        /* \"hola.sol\":3007:3021  playersProfile */\n      dup5\n        /* \"hola.sol\":3007:3026  playersProfile.name */\n      0xa0\n      add\n      mload\n        /* \"hola.sol\":2837:3036  return (... */\n      swap6\n      pop\n      swap6\n      pop\n      swap6\n      pop\n      swap6\n      pop\n      swap6\n      pop\n      pop\n        /* \"hola.sol\":2526:3043  function getScore(address player)... */\n      swap2\n      swap4\n      swap6\n      swap1\n      swap3\n      swap5\n      pop\n      jump\t// out\n        /* \"hola.sol\":3049:3422  function getAllPlayers() external view returns (Profile[] memory) {... */\n    tag_28:\n        /* \"hola.sol\":3097:3113  Profile[] memory */\n      0x60\n        /* \"hola.sol\":3125:3139  uint256 length */\n      0x00\n        /* \"hola.sol\":3142:3157  playerAddresses */\n      0x02\n        /* \"hola.sol\":3142:3164  playerAddresses.length */\n      dup1\n      sload\n      swap1\n      pop\n        /* \"hola.sol\":3125:3164  uint256 length = playerAddresses.length */\n      swap1\n      pop\n        /* \"hola.sol\":3174:3199  Profile[] memory _players */\n      0x00\n        /* \"hola.sol\":3216:3222  length */\n      dup2\n        /* \"hola.sol\":3202:3223  new Profile[](length) */\n      0xffffffffffffffff\n      dup2\n      gt\n      iszero\n      tag_145\n      jumpi\n      tag_146\n      tag_147\n      jump\t// in\n    tag_146:\n    tag_145:\n      mload(0x40)\n      swap1\n      dup1\n      dup3\n      mstore\n      dup1\n      0x20\n      mul\n      0x20\n      add\n      dup3\n      add\n      0x40\n      mstore\n      dup1\n      iszero\n      tag_148\n      jumpi\n      dup2\n      0x20\n      add\n    tag_149:\n      tag_150\n      tag_151\n      jump\t// in\n    tag_150:\n      dup2\n      mstore\n      0x20\n      add\n      swap1\n      0x01\n      swap1\n      sub\n      swap1\n      dup2\n      tag_149\n      jumpi\n      swap1\n      pop\n    tag_148:\n      pop\n        /* \"hola.sol\":3174:3223  Profile[] memory _players = new Profile[](length) */\n      swap1\n      pop\n        /* \"hola.sol\":3239:3245  uint i */\n      0x00\n        /* \"hola.sol\":3234:3390  for (uint i = 0; i < length; ) {... */\n    tag_152:\n        /* \"hola.sol\":3255:3261  length */\n      dup3\n        /* \"hola.sol\":3251:3252  i */\n      dup2\n        /* \"hola.sol\":3251:3261  i < length */\n      lt\n        /* \"hola.sol\":3234:3390  for (uint i = 0; i < length; ) {... */\n      iszero\n      tag_153\n      jumpi\n        /* \"hola.sol\":3293:3300  players */\n      0x00\n        /* \"hola.sol\":3293:3320  players[playerAddresses[i]] */\n      dup1\n        /* \"hola.sol\":3301:3316  playerAddresses */\n      0x02\n        /* \"hola.sol\":3317:3318  i */\n      dup4\n        /* \"hola.sol\":3301:3319  playerAddresses[i] */\n      dup2\n      sload\n      dup2\n      lt\n      tag_155\n      jumpi\n      tag_156\n      tag_157\n      jump\t// in\n    tag_156:\n    tag_155:\n      swap1\n      0x00\n      mstore\n      keccak256(0x00, 0x20)\n      add\n      0x00\n      swap1\n      sload\n      swap1\n      0x0100\n      exp\n      swap1\n      div\n      0xffffffffffffffffffffffffffffffffffffffff\n      and\n        /* \"hola.sol\":3293:3320  players[playerAddresses[i]] */\n      0xffffffffffffffffffffffffffffffffffffffff\n      and\n      0xffffffffffffffffffffffffffffffffffffffff\n      and\n      dup2\n      mstore\n      0x20\n      add\n      swap1\n      dup2\n      mstore\n      0x20\n      add\n      0x00\n      keccak256\n        /* \"hola.sol\":3279:3320  _players[i] = players[playerAddresses[i]] */\n      mload(0x40)\n      dup1\n      0xc0\n      add\n      0x40\n      mstore\n      swap1\n      dup2\n      0x00\n      dup3\n      add\n      0x00\n      swap1\n      sload\n      swap1\n      0x0100\n      exp\n      swap1\n      div\n      0xffffffff\n      and\n      0xffffffff\n      and\n      0xffffffff\n      and\n      dup2\n      mstore\n      0x20\n      add\n      0x00\n      dup3\n      add\n      0x04\n      swap1\n      sload\n      swap1\n      0x0100\n      exp\n      swap1\n      div\n      0xffffffff\n      and\n      0xffffffff\n      and\n      0xffffffff\n      and\n      dup2\n      mstore\n      0x20\n      add\n      0x00\n      dup3\n      add\n      0x08\n      swap1\n      sload\n      swap1\n      0x0100\n      exp\n      swap1\n      div\n      0xffffffff\n      and\n      0xffffffff\n      and\n      0xffffffff\n      and\n      dup2\n      mstore\n      0x20\n      add\n      0x00\n      dup3\n      add\n      0x0c\n      swap1\n      sload\n      swap1\n      0x0100\n      exp\n      swap1\n      div\n      0xffffffff\n      and\n      0xffffffff\n      and\n      0xffffffff\n      and\n      dup2\n      mstore\n      0x20\n      add\n      0x00\n      dup3\n      add\n      0x10\n      swap1\n      sload\n      swap1\n      0x0100\n      exp\n      swap1\n      div\n      0xff\n      and\n      iszero\n      iszero\n      iszero\n      iszero\n      dup2\n      mstore\n      0x20\n      add\n      0x01\n      dup3\n      add\n      dup1\n      sload\n      tag_159\n      swap1\n      tag_139\n      jump\t// in\n    tag_159:\n      dup1\n      0x1f\n      add\n      0x20\n      dup1\n      swap2\n      div\n      mul\n      0x20\n      add\n      mload(0x40)\n      swap1\n      dup2\n      add\n      0x40\n      mstore\n      dup1\n      swap3\n      swap2\n      swap1\n      dup2\n      dup2\n      mstore\n      0x20\n      add\n      dup3\n      dup1\n      sload\n      tag_160\n      swap1\n      tag_139\n      jump\t// in\n    tag_160:\n      dup1\n      iszero\n      tag_161\n      jumpi\n      dup1\n      0x1f\n      lt\n      tag_162\n      jumpi\n      0x0100\n      dup1\n      dup4\n      sload\n      div\n      mul\n      dup4\n      mstore\n      swap2\n      0x20\n      add\n      swap2\n      jump(tag_161)\n    tag_162:\n      dup3\n      add\n      swap2\n      swap1\n      0x00\n      mstore\n      keccak256(0x00, 0x20)\n      swap1\n    tag_163:\n      dup2\n      sload\n      dup2\n      mstore\n      swap1\n      0x01\n      add\n      swap1\n      0x20\n      add\n      dup1\n      dup4\n      gt\n      tag_163\n      jumpi\n      dup3\n      swap1\n      sub\n      0x1f\n      and\n      dup3\n      add\n      swap2\n    tag_161:\n      pop\n      pop\n      pop\n      pop\n      pop\n      dup2\n      mstore\n      pop\n      pop\n        /* \"hola.sol\":3279:3287  _players */\n      dup3\n        /* \"hola.sol\":3288:3289  i */\n      dup3\n        /* \"hola.sol\":3279:3290  _players[i] */\n      dup2\n      mload\n      dup2\n      lt\n      tag_164\n      jumpi\n      tag_165\n      tag_157\n      jump\t// in\n    tag_165:\n    tag_164:\n      0x20\n      mul\n      0x20\n      add\n      add\n        /* \"hola.sol\":3279:3320  _players[i] = players[playerAddresses[i]] */\n      dup2\n      swap1\n      mstore\n      pop\n        /* \"hola.sol\":3362:3365  ++i */\n      dup1\n      0x01\n      add\n      swap1\n      pop\n        /* \"hola.sol\":3234:3390  for (uint i = 0; i < length; ) {... */\n      jump(tag_152)\n    tag_153:\n      pop\n        /* \"hola.sol\":3407:3415  _players */\n      dup1\n        /* \"hola.sol\":3400:3415  return _players */\n      swap3\n      pop\n      pop\n      pop\n        /* \"hola.sol\":3049:3422  function getAllPlayers() external view returns (Profile[] memory) {... */\n      swap1\n      jump\t// out\n        /* \"hola.sol\":1613:1912  function register(string memory name) external {... */\n    tag_34:\n        /* \"hola.sol\":1733:1734  0 */\n      0x00\n        /* \"hola.sol\":1697:1704  players */\n      dup1\n        /* \"hola.sol\":1697:1716  players[msg.sender] */\n      0x00\n        /* \"hola.sol\":1705:1715  msg.sender */\n      caller\n        /* \"hola.sol\":1697:1716  players[msg.sender] */\n      0xffffffffffffffffffffffffffffffffffffffff\n      and\n      0xffffffffffffffffffffffffffffffffffffffff\n      and\n      dup2\n      mstore\n      0x20\n      add\n      swap1\n      dup2\n      mstore\n      0x20\n      add\n      0x00\n      keccak256\n        /* \"hola.sol\":1697:1721  players[msg.sender].name */\n      0x01\n      add\n        /* \"hola.sol\":1691:1729  bytes(players[msg.sender].name).length */\n      dup1\n      sload\n      tag_167\n      swap1\n      tag_139\n      jump\t// in\n    tag_167:\n      swap1\n      pop\n        /* \"hola.sol\":1691:1734  bytes(players[msg.sender].name).length == 0 */\n      eq\n        /* \"hola.sol\":1670:1778  require(... */\n      tag_168\n      jumpi\n      mload(0x40)\n      0x08c379a000000000000000000000000000000000000000000000000000000000\n      dup2\n      mstore\n      0x04\n      add\n      tag_169\n      swap1\n      tag_170\n      jump\t// in\n    tag_169:\n      mload(0x40)\n      dup1\n      swap2\n      sub\n      swap1\n      revert\n    tag_168:\n        /* \"hola.sol\":1816:1820  name */\n      dup1\n        /* \"hola.sol\":1789:1796  players */\n      0x00\n        /* \"hola.sol\":1789:1808  players[msg.sender] */\n      dup1\n        /* \"hola.sol\":1797:1807  msg.sender */\n      caller\n        /* \"hola.sol\":1789:1808  players[msg.sender] */\n      0xffffffffffffffffffffffffffffffffffffffff\n      and\n      0xffffffffffffffffffffffffffffffffffffffff\n      and\n      dup2\n      mstore\n      0x20\n      add\n      swap1\n      dup2\n      mstore\n      0x20\n      add\n      0x00\n      keccak256\n        /* \"hola.sol\":1789:1813  players[msg.sender].name */\n      0x01\n      add\n        /* \"hola.sol\":1789:1820  players[msg.sender].name = name */\n      swap1\n      dup2\n      tag_171\n      swap2\n      swap1\n      tag_172\n      jump\t// in\n    tag_171:\n      pop\n        /* \"hola.sol\":1830:1845  playerAddresses */\n      0x02\n        /* \"hola.sol\":1851:1861  msg.sender */\n      caller\n        /* \"hola.sol\":1830:1862  playerAddresses.push(msg.sender) */\n      swap1\n      dup1\n      0x01\n      dup2\n      sload\n      add\n      dup1\n      dup3\n      sstore\n      dup1\n      swap2\n      pop\n      pop\n      0x01\n      swap1\n      sub\n      swap1\n      0x00\n      mstore\n      keccak256(0x00, 0x20)\n      add\n      0x00\n      swap1\n      swap2\n      swap1\n      swap2\n      swap1\n      swap2\n      0x0100\n      exp\n      dup2\n      sload\n      dup2\n      0xffffffffffffffffffffffffffffffffffffffff\n      mul\n      not\n      and\n      swap1\n      dup4\n      0xffffffffffffffffffffffffffffffffffffffff\n      and\n      mul\n      or\n      swap1\n      sstore\n      pop\n        /* \"hola.sol\":1900:1904  name */\n      dup1\n        /* \"hola.sol\":1878:1905  NewPlayer(msg.sender, name) */\n      mload(0x40)\n      tag_174\n      swap2\n      swap1\n      tag_175\n      jump\t// in\n    tag_174:\n      mload(0x40)\n      dup1\n      swap2\n      sub\n      swap1\n      keccak256\n        /* \"hola.sol\":1888:1898  msg.sender */\n      caller\n        /* \"hola.sol\":1878:1905  NewPlayer(msg.sender, name) */\n      0xffffffffffffffffffffffffffffffffffffffff\n      and\n      0x81ef79d1cda814a60c0fc60792e648a06d9c6bae67176346d1cc8b63030bfccd\n      mload(0x40)\n      mload(0x40)\n      dup1\n      swap2\n      sub\n      swap1\n      log3\n        /* \"hola.sol\":1613:1912  function register(string memory name) external {... */\n      pop\n      jump\t// out\n        /* \"hola.sol\":6702:7303  function fulfillRandomWords(uint256 requestId, uint256[] memory randomWords)... */\n    tag_40:\n        /* \"hola.sol\":6827:6844  uint256 diceValue */\n      0x00\n        /* \"hola.sol\":6870:6871  1 */\n      0x01\n        /* \"hola.sol\":6865:6866  6 */\n      0x06\n        /* \"hola.sol\":6848:6859  randomWords */\n      dup4\n        /* \"hola.sol\":6860:6861  0 */\n      0x00\n        /* \"hola.sol\":6848:6862  randomWords[0] */\n      dup2\n      mload\n      dup2\n      lt\n      tag_177\n      jumpi\n      tag_178\n      tag_157\n      jump\t// in\n    tag_178:\n    tag_177:\n      0x20\n      mul\n      0x20\n      add\n      add\n      mload\n        /* \"hola.sol\":6848:6866  randomWords[0] % 6 */\n      tag_179\n      swap2\n      swap1\n      tag_180\n      jump\t// in\n    tag_179:\n        /* \"hola.sol\":6847:6871  (randomWords[0] % 6) + 1 */\n      tag_181\n      swap2\n      swap1\n      tag_182\n      jump\t// in\n    tag_181:\n        /* \"hola.sol\":6827:6871  uint256 diceValue = (randomWords[0] % 6) + 1 */\n      swap1\n      pop\n        /* \"hola.sol\":6881:6895  address player */\n      0x00\n        /* \"hola.sol\":6898:6908  requestIds */\n      0x01\n        /* \"hola.sol\":6898:6919  requestIds[requestId] */\n      0x00\n        /* \"hola.sol\":6909:6918  requestId */\n      dup6\n        /* \"hola.sol\":6898:6919  requestIds[requestId] */\n      dup2\n      mstore\n      0x20\n      add\n      swap1\n      dup2\n      mstore\n      0x20\n      add\n      0x00\n      keccak256\n      0x00\n      swap1\n      sload\n      swap1\n      0x0100\n      exp\n      swap1\n      div\n      0xffffffffffffffffffffffffffffffffffffffff\n      and\n        /* \"hola.sol\":6881:6919  address player = requestIds[requestId] */\n      swap1\n      pop\n        /* \"hola.sol\":6970:6979  diceValue */\n      dup2\n        /* \"hola.sol\":6930:6937  players */\n      0x00\n        /* \"hola.sol\":6930:6945  players[player] */\n      dup1\n        /* \"hola.sol\":6938:6944  player */\n      dup4\n        /* \"hola.sol\":6930:6945  players[player] */\n      0xffffffffffffffffffffffffffffffffffffffff\n      and\n      0xffffffffffffffffffffffffffffffffffffffff\n      and\n      dup2\n      mstore\n      0x20\n      add\n      swap1\n      dup2\n      mstore\n      0x20\n      add\n      0x00\n      keccak256\n        /* \"hola.sol\":6930:6959  players[player].fieldPosition */\n      0x00\n      add\n      0x00\n        /* \"hola.sol\":6930:6980  players[player].fieldPosition += uint32(diceValue) */\n      dup3\n      dup3\n      dup3\n      swap1\n      sload\n      swap1\n      0x0100\n      exp\n      swap1\n      div\n      0xffffffff\n      and\n      tag_183\n      swap2\n      swap1\n      tag_184\n      jump\t// in\n    tag_183:\n      swap3\n      pop\n      0x0100\n      exp\n      dup2\n      sload\n      dup2\n      0xffffffff\n      mul\n      not\n      and\n      swap1\n      dup4\n      0xffffffff\n      and\n      mul\n      or\n      swap1\n      sstore\n      pop\n        /* \"hola.sol\":6991:7007  uint32 happiness */\n      0x00\n        /* \"hola.sol\":7009:7021  uint32 speed */\n      dup1\n        /* \"hola.sol\":7023:7036  uint32 wealth */\n      0x00\n        /* \"hola.sol\":7040:7102  getReward(... */\n      tag_185\n        /* \"hola.sol\":7063:7070  players */\n      0x00\n        /* \"hola.sol\":7063:7078  players[player] */\n      dup1\n        /* \"hola.sol\":7071:7077  player */\n      dup7\n        /* \"hola.sol\":7063:7078  players[player] */\n      0xffffffffffffffffffffffffffffffffffffffff\n      and\n      0xffffffffffffffffffffffffffffffffffffffff\n      and\n      dup2\n      mstore\n      0x20\n      add\n      swap1\n      dup2\n      mstore\n      0x20\n      add\n      0x00\n      keccak256\n        /* \"hola.sol\":7063:7092  players[player].fieldPosition */\n      0x00\n      add\n      0x00\n      swap1\n      sload\n      swap1\n      0x0100\n      exp\n      swap1\n      div\n      0xffffffff\n      and\n        /* \"hola.sol\":7040:7049  getReward */\n      tag_16\n        /* \"hola.sol\":7040:7102  getReward(... */\n      jump\t// in\n    tag_185:\n        /* \"hola.sol\":6990:7102  (uint32 happiness, uint32 speed, uint32 wealth) = getReward(... */\n      swap3\n      pop\n      swap3\n      pop\n      swap3\n      pop\n        /* \"hola.sol\":7141:7150  happiness */\n      dup3\n        /* \"hola.sol\":7112:7119  players */\n      0x00\n        /* \"hola.sol\":7112:7127  players[player] */\n      dup1\n        /* \"hola.sol\":7120:7126  player */\n      dup7\n        /* \"hola.sol\":7112:7127  players[player] */\n      0xffffffffffffffffffffffffffffffffffffffff\n      and\n      0xffffffffffffffffffffffffffffffffffffffff\n      and\n      dup2\n      mstore\n      0x20\n      add\n      swap1\n      dup2\n      mstore\n      0x20\n      add\n      0x00\n      keccak256\n        /* \"hola.sol\":7112:7137  players[player].happiness */\n      0x00\n      add\n      0x04\n        /* \"hola.sol\":7112:7150  players[player].happiness += happiness */\n      dup3\n      dup3\n      dup3\n      swap1\n      sload\n      swap1\n      0x0100\n      exp\n      swap1\n      div\n      0xffffffff\n      and\n      tag_186\n      swap2\n      swap1\n      tag_184\n      jump\t// in\n    tag_186:\n      swap3\n      pop\n      0x0100\n      exp\n      dup2\n      sload\n      dup2\n      0xffffffff\n      mul\n      not\n      and\n      swap1\n      dup4\n      0xffffffff\n      and\n      mul\n      or\n      swap1\n      sstore\n      pop\n        /* \"hola.sol\":7185:7190  speed */\n      dup2\n        /* \"hola.sol\":7160:7167  players */\n      0x00\n        /* \"hola.sol\":7160:7175  players[player] */\n      dup1\n        /* \"hola.sol\":7168:7174  player */\n      dup7\n        /* \"hola.sol\":7160:7175  players[player] */\n      0xffffffffffffffffffffffffffffffffffffffff\n      and\n      0xffffffffffffffffffffffffffffffffffffffff\n      and\n      dup2\n      mstore\n      0x20\n      add\n      swap1\n      dup2\n      mstore\n      0x20\n      add\n      0x00\n      keccak256\n        /* \"hola.sol\":7160:7181  players[player].speed */\n      0x00\n      add\n      0x08\n        /* \"hola.sol\":7160:7190  players[player].speed += speed */\n      dup3\n      dup3\n      dup3\n      swap1\n      sload\n      swap1\n      0x0100\n      exp\n      swap1\n      div\n      0xffffffff\n      and\n      tag_187\n      swap2\n      swap1\n      tag_184\n      jump\t// in\n    tag_187:\n      swap3\n      pop\n      0x0100\n      exp\n      dup2\n      sload\n      dup2\n      0xffffffff\n      mul\n      not\n      and\n      swap1\n      dup4\n      0xffffffff\n      and\n      mul\n      or\n      swap1\n      sstore\n      pop\n        /* \"hola.sol\":7226:7232  wealth */\n      dup1\n        /* \"hola.sol\":7200:7207  players */\n      0x00\n        /* \"hola.sol\":7200:7215  players[player] */\n      dup1\n        /* \"hola.sol\":7208:7214  player */\n      dup7\n        /* \"hola.sol\":7200:7215  players[player] */\n      0xffffffffffffffffffffffffffffffffffffffff\n      and\n      0xffffffffffffffffffffffffffffffffffffffff\n      and\n      dup2\n      mstore\n      0x20\n      add\n      swap1\n      dup2\n      mstore\n      0x20\n      add\n      0x00\n      keccak256\n        /* \"hola.sol\":7200:7222  players[player].wealth */\n      0x00\n      add\n      0x0c\n        /* \"hola.sol\":7200:7232  players[player].wealth += wealth */\n      dup3\n      dup3\n      dup3\n      swap1\n      sload\n      swap1\n      0x0100\n      exp\n      swap1\n      div\n      0xffffffff\n      and\n      tag_188\n      swap2\n      swap1\n      tag_184\n      jump\t// in\n    tag_188:\n      swap3\n      pop\n      0x0100\n      exp\n      dup2\n      sload\n      dup2\n      0xffffffff\n      mul\n      not\n      and\n      swap1\n      dup4\n      0xffffffff\n      and\n      mul\n      or\n      swap1\n      sstore\n      pop\n        /* \"hola.sol\":7266:7273  players */\n      0x00\n        /* \"hola.sol\":7266:7281  players[player] */\n      dup1\n        /* \"hola.sol\":7274:7280  player */\n      dup6\n        /* \"hola.sol\":7266:7281  players[player] */\n      0xffffffffffffffffffffffffffffffffffffffff\n      and\n      0xffffffffffffffffffffffffffffffffffffffff\n      and\n      dup2\n      mstore\n      0x20\n      add\n      swap1\n      dup2\n      mstore\n      0x20\n      add\n      0x00\n      keccak256\n        /* \"hola.sol\":7266:7295  players[player].fieldPosition */\n      0x00\n      add\n      0x00\n      swap1\n      sload\n      swap1\n      0x0100\n      exp\n      swap1\n      div\n      0xffffffff\n      and\n        /* \"hola.sol\":7248:7296  Moved(msg.sender, players[player].fieldPosition) */\n      0xffffffff\n      and\n        /* \"hola.sol\":7254:7264  msg.sender */\n      caller\n        /* \"hola.sol\":7248:7296  Moved(msg.sender, players[player].fieldPosition) */\n      0xffffffffffffffffffffffffffffffffffffffff\n      and\n      0x31141dd41deaf78e87c4165bec72fd6162afc0f21b75cc969cf032611285b386\n      mload(0x40)\n      mload(0x40)\n      dup1\n      swap2\n      sub\n      swap1\n      log3\n        /* \"hola.sol\":6817:7303  {... */\n      pop\n      pop\n      pop\n      pop\n      pop\n        /* \"hola.sol\":6702:7303  function fulfillRandomWords(uint256 requestId, uint256[] memory randomWords)... */\n      pop\n      pop\n      jump\t// out\n    tag_151:\n      mload(0x40)\n      dup1\n      0xc0\n      add\n      0x40\n      mstore\n      dup1\n      and(0xffffffff, 0x00)\n      dup2\n      mstore\n      0x20\n      add\n      and(0xffffffff, 0x00)\n      dup2\n      mstore\n      0x20\n      add\n      and(0xffffffff, 0x00)\n      dup2\n      mstore\n      0x20\n      add\n      and(0xffffffff, 0x00)\n      dup2\n      mstore\n      0x20\n      add\n      iszero(iszero(0x00))\n      dup2\n      mstore\n      0x20\n      add\n      0x60\n      dup2\n      mstore\n      pop\n      swap1\n      jump\t// out\n        /* \"#utility.yul\":7:82   */\n    tag_189:\n        /* \"#utility.yul\":40:46   */\n      0x00\n        /* \"#utility.yul\":73:75   */\n      0x40\n        /* \"#utility.yul\":67:76   */\n      mload\n        /* \"#utility.yul\":57:76   */\n      swap1\n      pop\n        /* \"#utility.yul\":7:82   */\n      swap1\n      jump\t// out\n        /* \"#utility.yul\":88:205   */\n    tag_190:\n        /* \"#utility.yul\":197:198   */\n      0x00\n        /* \"#utility.yul\":194:195   */\n      dup1\n        /* \"#utility.yul\":187:199   */\n      revert\n        /* \"#utility.yul\":211:328   */\n    tag_191:\n        /* \"#utility.yul\":320:321   */\n      0x00\n        /* \"#utility.yul\":317:318   */\n      dup1\n        /* \"#utility.yul\":310:322   */\n      revert\n        /* \"#utility.yul\":334:411   */\n    tag_192:\n        /* \"#utility.yul\":371:378   */\n      0x00\n        /* \"#utility.yul\":400:405   */\n      dup2\n        /* \"#utility.yul\":389:405   */\n      swap1\n      pop\n        /* \"#utility.yul\":334:411   */\n      swap2\n      swap1\n      pop\n      jump\t// out\n        /* \"#utility.yul\":417:539   */\n    tag_193:\n        /* \"#utility.yul\":490:514   */\n      tag_272\n        /* \"#utility.yul\":508:513   */\n      dup2\n        /* \"#utility.yul\":490:514   */\n      tag_192\n      jump\t// in\n    tag_272:\n        /* \"#utility.yul\":483:488   */\n      dup2\n        /* \"#utility.yul\":480:515   */\n      eq\n        /* \"#utility.yul\":470:533   */\n      tag_273\n      jumpi\n        /* \"#utility.yul\":529:530   */\n      0x00\n        /* \"#utility.yul\":526:527   */\n      dup1\n        /* \"#utility.yul\":519:531   */\n      revert\n        /* \"#utility.yul\":470:533   */\n    tag_273:\n        /* \"#utility.yul\":417:539   */\n      pop\n      jump\t// out\n        /* \"#utility.yul\":545:684   */\n    tag_194:\n        /* \"#utility.yul\":591:596   */\n      0x00\n        /* \"#utility.yul\":629:635   */\n      dup2\n        /* \"#utility.yul\":616:636   */\n      calldataload\n        /* \"#utility.yul\":607:636   */\n      swap1\n      pop\n        /* \"#utility.yul\":645:678   */\n      tag_275\n        /* \"#utility.yul\":672:677   */\n      dup2\n        /* \"#utility.yul\":645:678   */\n      tag_193\n      jump\t// in\n    tag_275:\n        /* \"#utility.yul\":545:684   */\n      swap3\n      swap2\n      pop\n      pop\n      jump\t// out\n        /* \"#utility.yul\":690:807   */\n    tag_195:\n        /* \"#utility.yul\":799:800   */\n      0x00\n        /* \"#utility.yul\":796:797   */\n      dup1\n        /* \"#utility.yul\":789:801   */\n      revert\n        /* \"#utility.yul\":813:915   */\n    tag_196:\n        /* \"#utility.yul\":854:860   */\n      0x00\n        /* \"#utility.yul\":905:907   */\n      0x1f\n        /* \"#utility.yul\":901:908   */\n      not\n        /* \"#utility.yul\":896:898   */\n      0x1f\n        /* \"#utility.yul\":889:894   */\n      dup4\n        /* \"#utility.yul\":885:899   */\n      add\n        /* \"#utility.yul\":881:909   */\n      and\n        /* \"#utility.yul\":871:909   */\n      swap1\n      pop\n        /* \"#utility.yul\":813:915   */\n      swap2\n      swap1\n      pop\n      jump\t// out\n        /* \"#utility.yul\":921:1101   */\n    tag_147:\n        /* \"#utility.yul\":969:1046   */\n      0x4e487b7100000000000000000000000000000000000000000000000000000000\n        /* \"#utility.yul\":966:967   */\n      0x00\n        /* \"#utility.yul\":959:1047   */\n      mstore\n        /* \"#utility.yul\":1066:1070   */\n      0x41\n        /* \"#utility.yul\":1063:1064   */\n      0x04\n        /* \"#utility.yul\":1056:1071   */\n      mstore\n        /* \"#utility.yul\":1090:1094   */\n      0x24\n        /* \"#utility.yul\":1087:1088   */\n      0x00\n        /* \"#utility.yul\":1080:1095   */\n      revert\n        /* \"#utility.yul\":1107:1388   */\n    tag_197:\n        /* \"#utility.yul\":1190:1217   */\n      tag_280\n        /* \"#utility.yul\":1212:1216   */\n      dup3\n        /* \"#utility.yul\":1190:1217   */\n      tag_196\n      jump\t// in\n    tag_280:\n        /* \"#utility.yul\":1182:1188   */\n      dup2\n        /* \"#utility.yul\":1178:1218   */\n      add\n        /* \"#utility.yul\":1320:1326   */\n      dup2\n        /* \"#utility.yul\":1308:1318   */\n      dup2\n        /* \"#utility.yul\":1305:1327   */\n      lt\n        /* \"#utility.yul\":1284:1302   */\n      0xffffffffffffffff\n        /* \"#utility.yul\":1272:1282   */\n      dup3\n        /* \"#utility.yul\":1269:1303   */\n      gt\n        /* \"#utility.yul\":1266:1328   */\n      or\n        /* \"#utility.yul\":1263:1351   */\n      iszero\n      tag_281\n      jumpi\n        /* \"#utility.yul\":1331:1349   */\n      tag_282\n      tag_147\n      jump\t// in\n    tag_282:\n        /* \"#utility.yul\":1263:1351   */\n    tag_281:\n        /* \"#utility.yul\":1371:1381   */\n      dup1\n        /* \"#utility.yul\":1367:1369   */\n      0x40\n        /* \"#utility.yul\":1360:1382   */\n      mstore\n        /* \"#utility.yul\":1150:1388   */\n      pop\n        /* \"#utility.yul\":1107:1388   */\n      pop\n      pop\n      jump\t// out\n        /* \"#utility.yul\":1394:1523   */\n    tag_198:\n        /* \"#utility.yul\":1428:1434   */\n      0x00\n        /* \"#utility.yul\":1455:1475   */\n      tag_284\n      tag_189\n      jump\t// in\n    tag_284:\n        /* \"#utility.yul\":1445:1475   */\n      swap1\n      pop\n        /* \"#utility.yul\":1484:1517   */\n      tag_285\n        /* \"#utility.yul\":1512:1516   */\n      dup3\n        /* \"#utility.yul\":1504:1510   */\n      dup3\n        /* \"#utility.yul\":1484:1517   */\n      tag_197\n      jump\t// in\n    tag_285:\n        /* \"#utility.yul\":1394:1523   */\n      swap2\n      swap1\n      pop\n      jump\t// out\n        /* \"#utility.yul\":1529:1840   */\n    tag_199:\n        /* \"#utility.yul\":1606:1610   */\n      0x00\n        /* \"#utility.yul\":1696:1714   */\n      0xffffffffffffffff\n        /* \"#utility.yul\":1688:1694   */\n      dup3\n        /* \"#utility.yul\":1685:1715   */\n      gt\n        /* \"#utility.yul\":1682:1738   */\n      iszero\n      tag_287\n      jumpi\n        /* \"#utility.yul\":1718:1736   */\n      tag_288\n      tag_147\n      jump\t// in\n    tag_288:\n        /* \"#utility.yul\":1682:1738   */\n    tag_287:\n        /* \"#utility.yul\":1768:1772   */\n      0x20\n        /* \"#utility.yul\":1760:1766   */\n      dup3\n        /* \"#utility.yul\":1756:1773   */\n      mul\n        /* \"#utility.yul\":1748:1773   */\n      swap1\n      pop\n        /* \"#utility.yul\":1828:1832   */\n      0x20\n        /* \"#utility.yul\":1822:1826   */\n      dup2\n        /* \"#utility.yul\":1818:1833   */\n      add\n        /* \"#utility.yul\":1810:1833   */\n      swap1\n      pop\n        /* \"#utility.yul\":1529:1840   */\n      swap2\n      swap1\n      pop\n      jump\t// out\n        /* \"#utility.yul\":1846:1963   */\n    tag_200:\n        /* \"#utility.yul\":1955:1956   */\n      0x00\n        /* \"#utility.yul\":1952:1953   */\n      dup1\n        /* \"#utility.yul\":1945:1957   */\n      revert\n        /* \"#utility.yul\":1986:2696   */\n    tag_201:\n        /* \"#utility.yul\":2082:2087   */\n      0x00\n        /* \"#utility.yul\":2107:2188   */\n      tag_291\n        /* \"#utility.yul\":2123:2187   */\n      tag_292\n        /* \"#utility.yul\":2180:2186   */\n      dup5\n        /* \"#utility.yul\":2123:2187   */\n      tag_199\n      jump\t// in\n    tag_292:\n        /* \"#utility.yul\":2107:2188   */\n      tag_198\n      jump\t// in\n    tag_291:\n        /* \"#utility.yul\":2098:2188   */\n      swap1\n      pop\n        /* \"#utility.yul\":2208:2213   */\n      dup1\n        /* \"#utility.yul\":2237:2243   */\n      dup4\n        /* \"#utility.yul\":2230:2235   */\n      dup3\n        /* \"#utility.yul\":2223:2244   */\n      mstore\n        /* \"#utility.yul\":2271:2275   */\n      0x20\n        /* \"#utility.yul\":2264:2269   */\n      dup3\n        /* \"#utility.yul\":2260:2276   */\n      add\n        /* \"#utility.yul\":2253:2276   */\n      swap1\n      pop\n        /* \"#utility.yul\":2324:2328   */\n      0x20\n        /* \"#utility.yul\":2316:2322   */\n      dup5\n        /* \"#utility.yul\":2312:2329   */\n      mul\n        /* \"#utility.yul\":2304:2310   */\n      dup4\n        /* \"#utility.yul\":2300:2330   */\n      add\n        /* \"#utility.yul\":2353:2356   */\n      dup6\n        /* \"#utility.yul\":2345:2351   */\n      dup2\n        /* \"#utility.yul\":2342:2357   */\n      gt\n        /* \"#utility.yul\":2339:2461   */\n      iszero\n      tag_293\n      jumpi\n        /* \"#utility.yul\":2372:2451   */\n      tag_294\n      tag_200\n      jump\t// in\n    tag_294:\n        /* \"#utility.yul\":2339:2461   */\n    tag_293:\n        /* \"#utility.yul\":2487:2493   */\n      dup4\n        /* \"#utility.yul\":2470:2690   */\n    tag_295:\n        /* \"#utility.yul\":2504:2510   */\n      dup2\n        /* \"#utility.yul\":2499:2502   */\n      dup2\n        /* \"#utility.yul\":2496:2511   */\n      lt\n        /* \"#utility.yul\":2470:2690   */\n      iszero\n      tag_297\n      jumpi\n        /* \"#utility.yul\":2579:2582   */\n      dup1\n        /* \"#utility.yul\":2608:2645   */\n      tag_298\n        /* \"#utility.yul\":2641:2644   */\n      dup9\n        /* \"#utility.yul\":2629:2639   */\n      dup3\n        /* \"#utility.yul\":2608:2645   */\n      tag_194\n      jump\t// in\n    tag_298:\n        /* \"#utility.yul\":2603:2606   */\n      dup5\n        /* \"#utility.yul\":2596:2646   */\n      mstore\n        /* \"#utility.yul\":2675:2679   */\n      0x20\n        /* \"#utility.yul\":2670:2673   */\n      dup5\n        /* \"#utility.yul\":2666:2680   */\n      add\n        /* \"#utility.yul\":2659:2680   */\n      swap4\n      pop\n        /* \"#utility.yul\":2546:2690   */\n      pop\n        /* \"#utility.yul\":2530:2534   */\n      0x20\n        /* \"#utility.yul\":2525:2528   */\n      dup2\n        /* \"#utility.yul\":2521:2535   */\n      add\n        /* \"#utility.yul\":2514:2535   */\n      swap1\n      pop\n        /* \"#utility.yul\":2470:2690   */\n      jump(tag_295)\n    tag_297:\n        /* \"#utility.yul\":2474:2495   */\n      pop\n        /* \"#utility.yul\":2088:2696   */\n      pop\n      pop\n        /* \"#utility.yul\":1986:2696   */\n      swap4\n      swap3\n      pop\n      pop\n      pop\n      jump\t// out\n        /* \"#utility.yul\":2719:3089   */\n    tag_202:\n        /* \"#utility.yul\":2790:2795   */\n      0x00\n        /* \"#utility.yul\":2839:2842   */\n      dup3\n        /* \"#utility.yul\":2832:2836   */\n      0x1f\n        /* \"#utility.yul\":2824:2830   */\n      dup4\n        /* \"#utility.yul\":2820:2837   */\n      add\n        /* \"#utility.yul\":2816:2843   */\n      slt\n        /* \"#utility.yul\":2806:2928   */\n      tag_300\n      jumpi\n        /* \"#utility.yul\":2847:2926   */\n      tag_301\n      tag_195\n      jump\t// in\n    tag_301:\n        /* \"#utility.yul\":2806:2928   */\n    tag_300:\n        /* \"#utility.yul\":2964:2970   */\n      dup2\n        /* \"#utility.yul\":2951:2971   */\n      calldataload\n        /* \"#utility.yul\":2989:3083   */\n      tag_302\n        /* \"#utility.yul\":3079:3082   */\n      dup5\n        /* \"#utility.yul\":3071:3077   */\n      dup3\n        /* \"#utility.yul\":3064:3068   */\n      0x20\n        /* \"#utility.yul\":3056:3062   */\n      dup7\n        /* \"#utility.yul\":3052:3069   */\n      add\n        /* \"#utility.yul\":2989:3083   */\n      tag_201\n      jump\t// in\n    tag_302:\n        /* \"#utility.yul\":2980:3083   */\n      swap2\n      pop\n        /* \"#utility.yul\":2796:3089   */\n      pop\n        /* \"#utility.yul\":2719:3089   */\n      swap3\n      swap2\n      pop\n      pop\n      jump\t// out\n        /* \"#utility.yul\":3095:3779   */\n    tag_11:\n        /* \"#utility.yul\":3188:3194   */\n      0x00\n        /* \"#utility.yul\":3196:3202   */\n      dup1\n        /* \"#utility.yul\":3245:3247   */\n      0x40\n        /* \"#utility.yul\":3233:3242   */\n      dup4\n        /* \"#utility.yul\":3224:3231   */\n      dup6\n        /* \"#utility.yul\":3220:3243   */\n      sub\n        /* \"#utility.yul\":3216:3248   */\n      slt\n        /* \"#utility.yul\":3213:3332   */\n      iszero\n      tag_304\n      jumpi\n        /* \"#utility.yul\":3251:3330   */\n      tag_305\n      tag_190\n      jump\t// in\n    tag_305:\n        /* \"#utility.yul\":3213:3332   */\n    tag_304:\n        /* \"#utility.yul\":3371:3372   */\n      0x00\n        /* \"#utility.yul\":3396:3449   */\n      tag_306\n        /* \"#utility.yul\":3441:3448   */\n      dup6\n        /* \"#utility.yul\":3432:3438   */\n      dup3\n        /* \"#utility.yul\":3421:3430   */\n      dup7\n        /* \"#utility.yul\":3417:3439   */\n      add\n        /* \"#utility.yul\":3396:3449   */\n      tag_194\n      jump\t// in\n    tag_306:\n        /* \"#utility.yul\":3386:3449   */\n      swap3\n      pop\n        /* \"#utility.yul\":3342:3459   */\n      pop\n        /* \"#utility.yul\":3526:3528   */\n      0x20\n        /* \"#utility.yul\":3515:3524   */\n      dup4\n        /* \"#utility.yul\":3511:3529   */\n      add\n        /* \"#utility.yul\":3498:3530   */\n      calldataload\n        /* \"#utility.yul\":3557:3575   */\n      0xffffffffffffffff\n        /* \"#utility.yul\":3549:3555   */\n      dup2\n        /* \"#utility.yul\":3546:3576   */\n      gt\n        /* \"#utility.yul\":3543:3660   */\n      iszero\n      tag_307\n      jumpi\n        /* \"#utility.yul\":3579:3658   */\n      tag_308\n      tag_191\n      jump\t// in\n    tag_308:\n        /* \"#utility.yul\":3543:3660   */\n    tag_307:\n        /* \"#utility.yul\":3684:3762   */\n      tag_309\n        /* \"#utility.yul\":3754:3761   */\n      dup6\n        /* \"#utility.yul\":3745:3751   */\n      dup3\n        /* \"#utility.yul\":3734:3743   */\n      dup7\n        /* \"#utility.yul\":3730:3752   */\n      add\n        /* \"#utility.yul\":3684:3762   */\n      tag_202\n      jump\t// in\n    tag_309:\n        /* \"#utility.yul\":3674:3762   */\n      swap2\n      pop\n        /* \"#utility.yul\":3469:3772   */\n      pop\n        /* \"#utility.yul\":3095:3779   */\n      swap3\n      pop\n      swap3\n      swap1\n      pop\n      jump\t// out\n        /* \"#utility.yul\":3785:3878   */\n    tag_203:\n        /* \"#utility.yul\":3821:3828   */\n      0x00\n        /* \"#utility.yul\":3861:3871   */\n      0xffffffff\n        /* \"#utility.yul\":3854:3859   */\n      dup3\n        /* \"#utility.yul\":3850:3872   */\n      and\n        /* \"#utility.yul\":3839:3872   */\n      swap1\n      pop\n        /* \"#utility.yul\":3785:3878   */\n      swap2\n      swap1\n      pop\n      jump\t// out\n        /* \"#utility.yul\":3884:4004   */\n    tag_204:\n        /* \"#utility.yul\":3956:3979   */\n      tag_312\n        /* \"#utility.yul\":3973:3978   */\n      dup2\n        /* \"#utility.yul\":3956:3979   */\n      tag_203\n      jump\t// in\n    tag_312:\n        /* \"#utility.yul\":3949:3954   */\n      dup2\n        /* \"#utility.yul\":3946:3980   */\n      eq\n        /* \"#utility.yul\":3936:3998   */\n      tag_313\n      jumpi\n        /* \"#utility.yul\":3994:3995   */\n      0x00\n        /* \"#utility.yul\":3991:3992   */\n      dup1\n        /* \"#utility.yul\":3984:3996   */\n      revert\n        /* \"#utility.yul\":3936:3998   */\n    tag_313:\n        /* \"#utility.yul\":3884:4004   */\n      pop\n      jump\t// out\n        /* \"#utility.yul\":4010:4147   */\n    tag_205:\n        /* \"#utility.yul\":4055:4060   */\n      0x00\n        /* \"#utility.yul\":4093:4099   */\n      dup2\n        /* \"#utility.yul\":4080:4100   */\n      calldataload\n        /* \"#utility.yul\":4071:4100   */\n      swap1\n      pop\n        /* \"#utility.yul\":4109:4141   */\n      tag_315\n        /* \"#utility.yul\":4135:4140   */\n      dup2\n        /* \"#utility.yul\":4109:4141   */\n      tag_204\n      jump\t// in\n    tag_315:\n        /* \"#utility.yul\":4010:4147   */\n      swap3\n      swap2\n      pop\n      pop\n      jump\t// out\n        /* \"#utility.yul\":4153:4480   */\n    tag_15:\n        /* \"#utility.yul\":4211:4217   */\n      0x00\n        /* \"#utility.yul\":4260:4262   */\n      0x20\n        /* \"#utility.yul\":4248:4257   */\n      dup3\n        /* \"#utility.yul\":4239:4246   */\n      dup5\n        /* \"#utility.yul\":4235:4258   */\n      sub\n        /* \"#utility.yul\":4231:4263   */\n      slt\n        /* \"#utility.yul\":4228:4347   */\n      iszero\n      tag_317\n      jumpi\n        /* \"#utility.yul\":4266:4345   */\n      tag_318\n      tag_190\n      jump\t// in\n    tag_318:\n        /* \"#utility.yul\":4228:4347   */\n    tag_317:\n        /* \"#utility.yul\":4386:4387   */\n      0x00\n        /* \"#utility.yul\":4411:4463   */\n      tag_319\n        /* \"#utility.yul\":4455:4462   */\n      dup5\n        /* \"#utility.yul\":4446:4452   */\n      dup3\n        /* \"#utility.yul\":4435:4444   */\n      dup6\n        /* \"#utility.yul\":4431:4453   */\n      add\n        /* \"#utility.yul\":4411:4463   */\n      tag_205\n      jump\t// in\n    tag_319:\n        /* \"#utility.yul\":4401:4463   */\n      swap2\n      pop\n        /* \"#utility.yul\":4357:4473   */\n      pop\n        /* \"#utility.yul\":4153:4480   */\n      swap3\n      swap2\n      pop\n      pop\n      jump\t// out\n        /* \"#utility.yul\":4486:4601   */\n    tag_206:\n        /* \"#utility.yul\":4571:4594   */\n      tag_321\n        /* \"#utility.yul\":4588:4593   */\n      dup2\n        /* \"#utility.yul\":4571:4594   */\n      tag_203\n      jump\t// in\n    tag_321:\n        /* \"#utility.yul\":4566:4569   */\n      dup3\n        /* \"#utility.yul\":4559:4595   */\n      mstore\n        /* \"#utility.yul\":4486:4601   */\n      pop\n      pop\n      jump\t// out\n        /* \"#utility.yul\":4607:5037   */\n    tag_18:\n        /* \"#utility.yul\":4750:4754   */\n      0x00\n        /* \"#utility.yul\":4788:4790   */\n      0x60\n        /* \"#utility.yul\":4777:4786   */\n      dup3\n        /* \"#utility.yul\":4773:4791   */\n      add\n        /* \"#utility.yul\":4765:4791   */\n      swap1\n      pop\n        /* \"#utility.yul\":4801:4870   */\n      tag_323\n        /* \"#utility.yul\":4867:4868   */\n      0x00\n        /* \"#utility.yul\":4856:4865   */\n      dup4\n        /* \"#utility.yul\":4852:4869   */\n      add\n        /* \"#utility.yul\":4843:4849   */\n      dup7\n        /* \"#utility.yul\":4801:4870   */\n      tag_206\n      jump\t// in\n    tag_323:\n        /* \"#utility.yul\":4880:4950   */\n      tag_324\n        /* \"#utility.yul\":4946:4948   */\n      0x20\n        /* \"#utility.yul\":4935:4944   */\n      dup4\n        /* \"#utility.yul\":4931:4949   */\n      add\n        /* \"#utility.yul\":4922:4928   */\n      dup6\n        /* \"#utility.yul\":4880:4950   */\n      tag_206\n      jump\t// in\n    tag_324:\n        /* \"#utility.yul\":4960:5030   */\n      tag_325\n        /* \"#utility.yul\":5026:5028   */\n      0x40\n        /* \"#utility.yul\":5015:5024   */\n      dup4\n        /* \"#utility.yul\":5011:5029   */\n      add\n        /* \"#utility.yul\":5002:5008   */\n      dup5\n        /* \"#utility.yul\":4960:5030   */\n      tag_206\n      jump\t// in\n    tag_325:\n        /* \"#utility.yul\":4607:5037   */\n      swap5\n      swap4\n      pop\n      pop\n      pop\n      pop\n      jump\t// out\n        /* \"#utility.yul\":5043:5169   */\n    tag_207:\n        /* \"#utility.yul\":5080:5087   */\n      0x00\n        /* \"#utility.yul\":5120:5162   */\n      0xffffffffffffffffffffffffffffffffffffffff\n        /* \"#utility.yul\":5113:5118   */\n      dup3\n        /* \"#utility.yul\":5109:5163   */\n      and\n        /* \"#utility.yul\":5098:5163   */\n      swap1\n      pop\n        /* \"#utility.yul\":5043:5169   */\n      swap2\n      swap1\n      pop\n      jump\t// out\n        /* \"#utility.yul\":5175:5271   */\n    tag_208:\n        /* \"#utility.yul\":5212:5219   */\n      0x00\n        /* \"#utility.yul\":5241:5265   */\n      tag_328\n        /* \"#utility.yul\":5259:5264   */\n      dup3\n        /* \"#utility.yul\":5241:5265   */\n      tag_207\n      jump\t// in\n    tag_328:\n        /* \"#utility.yul\":5230:5265   */\n      swap1\n      pop\n        /* \"#utility.yul\":5175:5271   */\n      swap2\n      swap1\n      pop\n      jump\t// out\n        /* \"#utility.yul\":5277:5399   */\n    tag_209:\n        /* \"#utility.yul\":5350:5374   */\n      tag_330\n        /* \"#utility.yul\":5368:5373   */\n      dup2\n        /* \"#utility.yul\":5350:5374   */\n      tag_208\n      jump\t// in\n    tag_330:\n        /* \"#utility.yul\":5343:5348   */\n      dup2\n        /* \"#utility.yul\":5340:5375   */\n      eq\n        /* \"#utility.yul\":5330:5393   */\n      tag_331\n      jumpi\n        /* \"#utility.yul\":5389:5390   */\n      0x00\n        /* \"#utility.yul\":5386:5387   */\n      dup1\n        /* \"#utility.yul\":5379:5391   */\n      revert\n        /* \"#utility.yul\":5330:5393   */\n    tag_331:\n        /* \"#utility.yul\":5277:5399   */\n      pop\n      jump\t// out\n        /* \"#utility.yul\":5405:5544   */\n    tag_210:\n        /* \"#utility.yul\":5451:5456   */\n      0x00\n        /* \"#utility.yul\":5489:5495   */\n      dup2\n        /* \"#utility.yul\":5476:5496   */\n      calldataload\n        /* \"#utility.yul\":5467:5496   */\n      swap1\n      pop\n        /* \"#utility.yul\":5505:5538   */\n      tag_333\n        /* \"#utility.yul\":5532:5537   */\n      dup2\n        /* \"#utility.yul\":5505:5538   */\n      tag_209\n      jump\t// in\n    tag_333:\n        /* \"#utility.yul\":5405:5544   */\n      swap3\n      swap2\n      pop\n      pop\n      jump\t// out\n        /* \"#utility.yul\":5550:5879   */\n    tag_23:\n        /* \"#utility.yul\":5609:5615   */\n      0x00\n        /* \"#utility.yul\":5658:5660   */\n      0x20\n        /* \"#utility.yul\":5646:5655   */\n      dup3\n        /* \"#utility.yul\":5637:5644   */\n      dup5\n        /* \"#utility.yul\":5633:5656   */\n      sub\n        /* \"#utility.yul\":5629:5661   */\n      slt\n        /* \"#utility.yul\":5626:5745   */\n      iszero\n      tag_335\n      jumpi\n        /* \"#utility.yul\":5664:5743   */\n      tag_336\n      tag_190\n      jump\t// in\n    tag_336:\n        /* \"#utility.yul\":5626:5745   */\n    tag_335:\n        /* \"#utility.yul\":5784:5785   */\n      0x00\n        /* \"#utility.yul\":5809:5862   */\n      tag_337\n        /* \"#utility.yul\":5854:5861   */\n      dup5\n        /* \"#utility.yul\":5845:5851   */\n      dup3\n        /* \"#utility.yul\":5834:5843   */\n      dup6\n        /* \"#utility.yul\":5830:5852   */\n      add\n        /* \"#utility.yul\":5809:5862   */\n      tag_210\n      jump\t// in\n    tag_337:\n        /* \"#utility.yul\":5799:5862   */\n      swap2\n      pop\n        /* \"#utility.yul\":5755:5872   */\n      pop\n        /* \"#utility.yul\":5550:5879   */\n      swap3\n      swap2\n      pop\n      pop\n      jump\t// out\n        /* \"#utility.yul\":5885:5984   */\n    tag_211:\n        /* \"#utility.yul\":5937:5943   */\n      0x00\n        /* \"#utility.yul\":5971:5976   */\n      dup2\n        /* \"#utility.yul\":5965:5977   */\n      mload\n        /* \"#utility.yul\":5955:5977   */\n      swap1\n      pop\n        /* \"#utility.yul\":5885:5984   */\n      swap2\n      swap1\n      pop\n      jump\t// out\n        /* \"#utility.yul\":5990:6159   */\n    tag_212:\n        /* \"#utility.yul\":6074:6085   */\n      0x00\n        /* \"#utility.yul\":6108:6114   */\n      dup3\n        /* \"#utility.yul\":6103:6106   */\n      dup3\n        /* \"#utility.yul\":6096:6115   */\n      mstore\n        /* \"#utility.yul\":6148:6152   */\n      0x20\n        /* \"#utility.yul\":6143:6146   */\n      dup3\n        /* \"#utility.yul\":6139:6153   */\n      add\n        /* \"#utility.yul\":6124:6153   */\n      swap1\n      pop\n        /* \"#utility.yul\":5990:6159   */\n      swap3\n      swap2\n      pop\n      pop\n      jump\t// out\n        /* \"#utility.yul\":6165:6411   */\n    tag_213:\n        /* \"#utility.yul\":6246:6247   */\n      0x00\n        /* \"#utility.yul\":6256:6369   */\n    tag_341:\n        /* \"#utility.yul\":6270:6276   */\n      dup4\n        /* \"#utility.yul\":6267:6268   */\n      dup2\n        /* \"#utility.yul\":6264:6277   */\n      lt\n        /* \"#utility.yul\":6256:6369   */\n      iszero\n      tag_343\n      jumpi\n        /* \"#utility.yul\":6355:6356   */\n      dup1\n        /* \"#utility.yul\":6350:6353   */\n      dup3\n        /* \"#utility.yul\":6346:6357   */\n      add\n        /* \"#utility.yul\":6340:6358   */\n      mload\n        /* \"#utility.yul\":6336:6337   */\n      dup2\n        /* \"#utility.yul\":6331:6334   */\n      dup5\n        /* \"#utility.yul\":6327:6338   */\n      add\n        /* \"#utility.yul\":6320:6359   */\n      mstore\n        /* \"#utility.yul\":6292:6294   */\n      0x20\n        /* \"#utility.yul\":6289:6290   */\n      dup2\n        /* \"#utility.yul\":6285:6295   */\n      add\n        /* \"#utility.yul\":6280:6295   */\n      swap1\n      pop\n        /* \"#utility.yul\":6256:6369   */\n      jump(tag_341)\n    tag_343:\n        /* \"#utility.yul\":6403:6404   */\n      0x00\n        /* \"#utility.yul\":6394:6400   */\n      dup5\n        /* \"#utility.yul\":6389:6392   */\n      dup5\n        /* \"#utility.yul\":6385:6401   */\n      add\n        /* \"#utility.yul\":6378:6405   */\n      mstore\n        /* \"#utility.yul\":6227:6411   */\n      pop\n        /* \"#utility.yul\":6165:6411   */\n      pop\n      pop\n      pop\n      jump\t// out\n        /* \"#utility.yul\":6417:6794   */\n    tag_214:\n        /* \"#utility.yul\":6505:6508   */\n      0x00\n        /* \"#utility.yul\":6533:6572   */\n      tag_345\n        /* \"#utility.yul\":6566:6571   */\n      dup3\n        /* \"#utility.yul\":6533:6572   */\n      tag_211\n      jump\t// in\n    tag_345:\n        /* \"#utility.yul\":6588:6659   */\n      tag_346\n        /* \"#utility.yul\":6652:6658   */\n      dup2\n        /* \"#utility.yul\":6647:6650   */\n      dup6\n        /* \"#utility.yul\":6588:6659   */\n      tag_212\n      jump\t// in\n    tag_346:\n        /* \"#utility.yul\":6581:6659   */\n      swap4\n      pop\n        /* \"#utility.yul\":6668:6733   */\n      tag_347\n        /* \"#utility.yul\":6726:6732   */\n      dup2\n        /* \"#utility.yul\":6721:6724   */\n      dup6\n        /* \"#utility.yul\":6714:6718   */\n      0x20\n        /* \"#utility.yul\":6707:6712   */\n      dup7\n        /* \"#utility.yul\":6703:6719   */\n      add\n        /* \"#utility.yul\":6668:6733   */\n      tag_213\n      jump\t// in\n    tag_347:\n        /* \"#utility.yul\":6758:6787   */\n      tag_348\n        /* \"#utility.yul\":6780:6786   */\n      dup2\n        /* \"#utility.yul\":6758:6787   */\n      tag_196\n      jump\t// in\n    tag_348:\n        /* \"#utility.yul\":6753:6756   */\n      dup5\n        /* \"#utility.yul\":6749:6788   */\n      add\n        /* \"#utility.yul\":6742:6788   */\n      swap2\n      pop\n        /* \"#utility.yul\":6509:6794   */\n      pop\n        /* \"#utility.yul\":6417:6794   */\n      swap3\n      swap2\n      pop\n      pop\n      jump\t// out\n        /* \"#utility.yul\":6800:7539   */\n    tag_26:\n        /* \"#utility.yul\":7017:7021   */\n      0x00\n        /* \"#utility.yul\":7055:7058   */\n      0xa0\n        /* \"#utility.yul\":7044:7053   */\n      dup3\n        /* \"#utility.yul\":7040:7059   */\n      add\n        /* \"#utility.yul\":7032:7059   */\n      swap1\n      pop\n        /* \"#utility.yul\":7069:7138   */\n      tag_350\n        /* \"#utility.yul\":7135:7136   */\n      0x00\n        /* \"#utility.yul\":7124:7133   */\n      dup4\n        /* \"#utility.yul\":7120:7137   */\n      add\n        /* \"#utility.yul\":7111:7117   */\n      dup9\n        /* \"#utility.yul\":7069:7138   */\n      tag_206\n      jump\t// in\n    tag_350:\n        /* \"#utility.yul\":7148:7218   */\n      tag_351\n        /* \"#utility.yul\":7214:7216   */\n      0x20\n        /* \"#utility.yul\":7203:7212   */\n      dup4\n        /* \"#utility.yul\":7199:7217   */\n      add\n        /* \"#utility.yul\":7190:7196   */\n      dup8\n        /* \"#utility.yul\":7148:7218   */\n      tag_206\n      jump\t// in\n    tag_351:\n        /* \"#utility.yul\":7228:7298   */\n      tag_352\n        /* \"#utility.yul\":7294:7296   */\n      0x40\n        /* \"#utility.yul\":7283:7292   */\n      dup4\n        /* \"#utility.yul\":7279:7297   */\n      add\n        /* \"#utility.yul\":7270:7276   */\n      dup7\n        /* \"#utility.yul\":7228:7298   */\n      tag_206\n      jump\t// in\n    tag_352:\n        /* \"#utility.yul\":7308:7378   */\n      tag_353\n        /* \"#utility.yul\":7374:7376   */\n      0x60\n        /* \"#utility.yul\":7363:7372   */\n      dup4\n        /* \"#utility.yul\":7359:7377   */\n      add\n        /* \"#utility.yul\":7350:7356   */\n      dup6\n        /* \"#utility.yul\":7308:7378   */\n      tag_206\n      jump\t// in\n    tag_353:\n        /* \"#utility.yul\":7426:7435   */\n      dup2\n        /* \"#utility.yul\":7420:7424   */\n      dup2\n        /* \"#utility.yul\":7416:7436   */\n      sub\n        /* \"#utility.yul\":7410:7413   */\n      0x80\n        /* \"#utility.yul\":7399:7408   */\n      dup4\n        /* \"#utility.yul\":7395:7414   */\n      add\n        /* \"#utility.yul\":7388:7437   */\n      mstore\n        /* \"#utility.yul\":7454:7532   */\n      tag_354\n        /* \"#utility.yul\":7527:7531   */\n      dup2\n        /* \"#utility.yul\":7518:7524   */\n      dup5\n        /* \"#utility.yul\":7454:7532   */\n      tag_214\n      jump\t// in\n    tag_354:\n        /* \"#utility.yul\":7446:7532   */\n      swap1\n      pop\n        /* \"#utility.yul\":6800:7539   */\n      swap7\n      swap6\n      pop\n      pop\n      pop\n      pop\n      pop\n      pop\n      jump\t// out\n        /* \"#utility.yul\":7545:7683   */\n    tag_215:\n        /* \"#utility.yul\":7636:7642   */\n      0x00\n        /* \"#utility.yul\":7670:7675   */\n      dup2\n        /* \"#utility.yul\":7664:7676   */\n      mload\n        /* \"#utility.yul\":7654:7676   */\n      swap1\n      pop\n        /* \"#utility.yul\":7545:7683   */\n      swap2\n      swap1\n      pop\n      jump\t// out\n        /* \"#utility.yul\":7689:7897   */\n    tag_216:\n        /* \"#utility.yul\":7812:7823   */\n      0x00\n        /* \"#utility.yul\":7846:7852   */\n      dup3\n        /* \"#utility.yul\":7841:7844   */\n      dup3\n        /* \"#utility.yul\":7834:7853   */\n      mstore\n        /* \"#utility.yul\":7886:7890   */\n      0x20\n        /* \"#utility.yul\":7881:7884   */\n      dup3\n        /* \"#utility.yul\":7877:7891   */\n      add\n        /* \"#utility.yul\":7862:7891   */\n      swap1\n      pop\n        /* \"#utility.yul\":7689:7897   */\n      swap3\n      swap2\n      pop\n      pop\n      jump\t// out\n        /* \"#utility.yul\":7903:8059   */\n    tag_217:\n        /* \"#utility.yul\":7994:7998   */\n      0x00\n        /* \"#utility.yul\":8017:8020   */\n      dup2\n        /* \"#utility.yul\":8009:8020   */\n      swap1\n      pop\n        /* \"#utility.yul\":8047:8051   */\n      0x20\n        /* \"#utility.yul\":8042:8045   */\n      dup3\n        /* \"#utility.yul\":8038:8052   */\n      add\n        /* \"#utility.yul\":8030:8052   */\n      swap1\n      pop\n        /* \"#utility.yul\":7903:8059   */\n      swap2\n      swap1\n      pop\n      jump\t// out\n        /* \"#utility.yul\":8065:8170   */\n    tag_218:\n        /* \"#utility.yul\":8140:8163   */\n      tag_359\n        /* \"#utility.yul\":8157:8162   */\n      dup2\n        /* \"#utility.yul\":8140:8163   */\n      tag_203\n      jump\t// in\n    tag_359:\n        /* \"#utility.yul\":8135:8138   */\n      dup3\n        /* \"#utility.yul\":8128:8164   */\n      mstore\n        /* \"#utility.yul\":8065:8170   */\n      pop\n      pop\n      jump\t// out\n        /* \"#utility.yul\":8176:8266   */\n    tag_219:\n        /* \"#utility.yul\":8210:8217   */\n      0x00\n        /* \"#utility.yul\":8253:8258   */\n      dup2\n        /* \"#utility.yul\":8246:8259   */\n      iszero\n        /* \"#utility.yul\":8239:8260   */\n      iszero\n        /* \"#utility.yul\":8228:8260   */\n      swap1\n      pop\n        /* \"#utility.yul\":8176:8266   */\n      swap2\n      swap1\n      pop\n      jump\t// out\n        /* \"#utility.yul\":8272:8371   */\n    tag_220:\n        /* \"#utility.yul\":8343:8364   */\n      tag_362\n        /* \"#utility.yul\":8358:8363   */\n      dup2\n        /* \"#utility.yul\":8343:8364   */\n      tag_219\n      jump\t// in\n    tag_362:\n        /* \"#utility.yul\":8338:8341   */\n      dup3\n        /* \"#utility.yul\":8331:8365   */\n      mstore\n        /* \"#utility.yul\":8272:8371   */\n      pop\n      pop\n      jump\t// out\n        /* \"#utility.yul\":8377:8536   */\n    tag_221:\n        /* \"#utility.yul\":8451:8462   */\n      0x00\n        /* \"#utility.yul\":8485:8491   */\n      dup3\n        /* \"#utility.yul\":8480:8483   */\n      dup3\n        /* \"#utility.yul\":8473:8492   */\n      mstore\n        /* \"#utility.yul\":8525:8529   */\n      0x20\n        /* \"#utility.yul\":8520:8523   */\n      dup3\n        /* \"#utility.yul\":8516:8530   */\n      add\n        /* \"#utility.yul\":8501:8530   */\n      swap1\n      pop\n        /* \"#utility.yul\":8377:8536   */\n      swap3\n      swap2\n      pop\n      pop\n      jump\t// out\n        /* \"#utility.yul\":8542:8899   */\n    tag_222:\n        /* \"#utility.yul\":8620:8623   */\n      0x00\n        /* \"#utility.yul\":8648:8687   */\n      tag_365\n        /* \"#utility.yul\":8681:8686   */\n      dup3\n        /* \"#utility.yul\":8648:8687   */\n      tag_211\n      jump\t// in\n    tag_365:\n        /* \"#utility.yul\":8703:8764   */\n      tag_366\n        /* \"#utility.yul\":8757:8763   */\n      dup2\n        /* \"#utility.yul\":8752:8755   */\n      dup6\n        /* \"#utility.yul\":8703:8764   */\n      tag_221\n      jump\t// in\n    tag_366:\n        /* \"#utility.yul\":8696:8764   */\n      swap4\n      pop\n        /* \"#utility.yul\":8773:8838   */\n      tag_367\n        /* \"#utility.yul\":8831:8837   */\n      dup2\n        /* \"#utility.yul\":8826:8829   */\n      dup6\n        /* \"#utility.yul\":8819:8823   */\n      0x20\n        /* \"#utility.yul\":8812:8817   */\n      dup7\n        /* \"#utility.yul\":8808:8824   */\n      add\n        /* \"#utility.yul\":8773:8838   */\n      tag_213\n      jump\t// in\n    tag_367:\n        /* \"#utility.yul\":8863:8892   */\n      tag_368\n        /* \"#utility.yul\":8885:8891   */\n      dup2\n        /* \"#utility.yul\":8863:8892   */\n      tag_196\n      jump\t// in\n    tag_368:\n        /* \"#utility.yul\":8858:8861   */\n      dup5\n        /* \"#utility.yul\":8854:8893   */\n      add\n        /* \"#utility.yul\":8847:8893   */\n      swap2\n      pop\n        /* \"#utility.yul\":8624:8899   */\n      pop\n        /* \"#utility.yul\":8542:8899   */\n      swap3\n      swap2\n      pop\n      pop\n      jump\t// out\n        /* \"#utility.yul\":8965:10274   */\n    tag_223:\n        /* \"#utility.yul\":9072:9075   */\n      0x00\n        /* \"#utility.yul\":9108:9112   */\n      0xc0\n        /* \"#utility.yul\":9103:9106   */\n      dup4\n        /* \"#utility.yul\":9099:9113   */\n      add\n        /* \"#utility.yul\":9204:9208   */\n      0x00\n        /* \"#utility.yul\":9197:9202   */\n      dup4\n        /* \"#utility.yul\":9193:9209   */\n      add\n        /* \"#utility.yul\":9187:9210   */\n      mload\n        /* \"#utility.yul\":9223:9284   */\n      tag_370\n        /* \"#utility.yul\":9278:9282   */\n      0x00\n        /* \"#utility.yul\":9273:9276   */\n      dup7\n        /* \"#utility.yul\":9269:9283   */\n      add\n        /* \"#utility.yul\":9255:9267   */\n      dup3\n        /* \"#utility.yul\":9223:9284   */\n      tag_218\n      jump\t// in\n    tag_370:\n        /* \"#utility.yul\":9123:9294   */\n      pop\n        /* \"#utility.yul\":9381:9385   */\n      0x20\n        /* \"#utility.yul\":9374:9379   */\n      dup4\n        /* \"#utility.yul\":9370:9386   */\n      add\n        /* \"#utility.yul\":9364:9387   */\n      mload\n        /* \"#utility.yul\":9400:9461   */\n      tag_371\n        /* \"#utility.yul\":9455:9459   */\n      0x20\n        /* \"#utility.yul\":9450:9453   */\n      dup7\n        /* \"#utility.yul\":9446:9460   */\n      add\n        /* \"#utility.yul\":9432:9444   */\n      dup3\n        /* \"#utility.yul\":9400:9461   */\n      tag_218\n      jump\t// in\n    tag_371:\n        /* \"#utility.yul\":9304:9471   */\n      pop\n        /* \"#utility.yul\":9554:9558   */\n      0x40\n        /* \"#utility.yul\":9547:9552   */\n      dup4\n        /* \"#utility.yul\":9543:9559   */\n      add\n        /* \"#utility.yul\":9537:9560   */\n      mload\n        /* \"#utility.yul\":9573:9634   */\n      tag_372\n        /* \"#utility.yul\":9628:9632   */\n      0x40\n        /* \"#utility.yul\":9623:9626   */\n      dup7\n        /* \"#utility.yul\":9619:9633   */\n      add\n        /* \"#utility.yul\":9605:9617   */\n      dup3\n        /* \"#utility.yul\":9573:9634   */\n      tag_218\n      jump\t// in\n    tag_372:\n        /* \"#utility.yul\":9481:9644   */\n      pop\n        /* \"#utility.yul\":9728:9732   */\n      0x60\n        /* \"#utility.yul\":9721:9726   */\n      dup4\n        /* \"#utility.yul\":9717:9733   */\n      add\n        /* \"#utility.yul\":9711:9734   */\n      mload\n        /* \"#utility.yul\":9747:9808   */\n      tag_373\n        /* \"#utility.yul\":9802:9806   */\n      0x60\n        /* \"#utility.yul\":9797:9800   */\n      dup7\n        /* \"#utility.yul\":9793:9807   */\n      add\n        /* \"#utility.yul\":9779:9791   */\n      dup3\n        /* \"#utility.yul\":9747:9808   */\n      tag_218\n      jump\t// in\n    tag_373:\n        /* \"#utility.yul\":9654:9818   */\n      pop\n        /* \"#utility.yul\":9916:9920   */\n      0x80\n        /* \"#utility.yul\":9909:9914   */\n      dup4\n        /* \"#utility.yul\":9905:9921   */\n      add\n        /* \"#utility.yul\":9899:9922   */\n      mload\n        /* \"#utility.yul\":9935:9992   */\n      tag_374\n        /* \"#utility.yul\":9986:9990   */\n      0x80\n        /* \"#utility.yul\":9981:9984   */\n      dup7\n        /* \"#utility.yul\":9977:9991   */\n      add\n        /* \"#utility.yul\":9963:9975   */\n      dup3\n        /* \"#utility.yul\":9935:9992   */\n      tag_220\n      jump\t// in\n    tag_374:\n        /* \"#utility.yul\":9828:10002   */\n      pop\n        /* \"#utility.yul\":10084:10088   */\n      0xa0\n        /* \"#utility.yul\":10077:10082   */\n      dup4\n        /* \"#utility.yul\":10073:10089   */\n      add\n        /* \"#utility.yul\":10067:10090   */\n      mload\n        /* \"#utility.yul\":10137:10140   */\n      dup5\n        /* \"#utility.yul\":10131:10135   */\n      dup3\n        /* \"#utility.yul\":10127:10141   */\n      sub\n        /* \"#utility.yul\":10120:10124   */\n      0xa0\n        /* \"#utility.yul\":10115:10118   */\n      dup7\n        /* \"#utility.yul\":10111:10125   */\n      add\n        /* \"#utility.yul\":10104:10142   */\n      mstore\n        /* \"#utility.yul\":10163:10236   */\n      tag_375\n        /* \"#utility.yul\":10231:10235   */\n      dup3\n        /* \"#utility.yul\":10217:10229   */\n      dup3\n        /* \"#utility.yul\":10163:10236   */\n      tag_222\n      jump\t// in\n    tag_375:\n        /* \"#utility.yul\":10155:10236   */\n      swap2\n      pop\n        /* \"#utility.yul\":10012:10247   */\n      pop\n        /* \"#utility.yul\":10264:10268   */\n      dup1\n        /* \"#utility.yul\":10257:10268   */\n      swap2\n      pop\n        /* \"#utility.yul\":9077:10274   */\n      pop\n        /* \"#utility.yul\":8965:10274   */\n      swap3\n      swap2\n      pop\n      pop\n      jump\t// out\n        /* \"#utility.yul\":10280:10532   */\n    tag_224:\n        /* \"#utility.yul\":10397:10407   */\n      0x00\n        /* \"#utility.yul\":10432:10526   */\n      tag_377\n        /* \"#utility.yul\":10522:10525   */\n      dup4\n        /* \"#utility.yul\":10514:10520   */\n      dup4\n        /* \"#utility.yul\":10432:10526   */\n      tag_223\n      jump\t// in\n    tag_377:\n        /* \"#utility.yul\":10418:10526   */\n      swap1\n      pop\n        /* \"#utility.yul\":10280:10532   */\n      swap3\n      swap2\n      pop\n      pop\n      jump\t// out\n        /* \"#utility.yul\":10538:10675   */\n    tag_225:\n        /* \"#utility.yul\":10632:10636   */\n      0x00\n        /* \"#utility.yul\":10664:10668   */\n      0x20\n        /* \"#utility.yul\":10659:10662   */\n      dup3\n        /* \"#utility.yul\":10655:10669   */\n      add\n        /* \"#utility.yul\":10647:10669   */\n      swap1\n      pop\n        /* \"#utility.yul\":10538:10675   */\n      swap2\n      swap1\n      pop\n      jump\t// out\n        /* \"#utility.yul\":10745:11848   */\n    tag_226:\n        /* \"#utility.yul\":10912:10915   */\n      0x00\n        /* \"#utility.yul\":10941:11019   */\n      tag_380\n        /* \"#utility.yul\":11013:11018   */\n      dup3\n        /* \"#utility.yul\":10941:11019   */\n      tag_215\n      jump\t// in\n    tag_380:\n        /* \"#utility.yul\":11035:11145   */\n      tag_381\n        /* \"#utility.yul\":11138:11144   */\n      dup2\n        /* \"#utility.yul\":11133:11136   */\n      dup6\n        /* \"#utility.yul\":11035:11145   */\n      tag_216\n      jump\t// in\n    tag_381:\n        /* \"#utility.yul\":11028:11145   */\n      swap4\n      pop\n        /* \"#utility.yul\":11171:11174   */\n      dup4\n        /* \"#utility.yul\":11216:11220   */\n      0x20\n        /* \"#utility.yul\":11208:11214   */\n      dup3\n        /* \"#utility.yul\":11204:11221   */\n      mul\n        /* \"#utility.yul\":11199:11202   */\n      dup6\n        /* \"#utility.yul\":11195:11222   */\n      add\n        /* \"#utility.yul\":11246:11326   */\n      tag_382\n        /* \"#utility.yul\":11320:11325   */\n      dup6\n        /* \"#utility.yul\":11246:11326   */\n      tag_217\n      jump\t// in\n    tag_382:\n        /* \"#utility.yul\":11349:11356   */\n      dup1\n        /* \"#utility.yul\":11380:11381   */\n      0x00\n        /* \"#utility.yul\":11365:11803   */\n    tag_383:\n        /* \"#utility.yul\":11390:11396   */\n      dup6\n        /* \"#utility.yul\":11387:11388   */\n      dup2\n        /* \"#utility.yul\":11384:11397   */\n      lt\n        /* \"#utility.yul\":11365:11803   */\n      iszero\n      tag_385\n      jumpi\n        /* \"#utility.yul\":11461:11470   */\n      dup5\n        /* \"#utility.yul\":11455:11459   */\n      dup5\n        /* \"#utility.yul\":11451:11471   */\n      sub\n        /* \"#utility.yul\":11446:11449   */\n      dup10\n        /* \"#utility.yul\":11439:11472   */\n      mstore\n        /* \"#utility.yul\":11512:11518   */\n      dup2\n        /* \"#utility.yul\":11506:11519   */\n      mload\n        /* \"#utility.yul\":11540:11652   */\n      tag_386\n        /* \"#utility.yul\":11647:11651   */\n      dup6\n        /* \"#utility.yul\":11632:11645   */\n      dup3\n        /* \"#utility.yul\":11540:11652   */\n      tag_224\n      jump\t// in\n    tag_386:\n        /* \"#utility.yul\":11532:11652   */\n      swap5\n      pop\n        /* \"#utility.yul\":11675:11759   */\n      tag_387\n        /* \"#utility.yul\":11752:11758   */\n      dup4\n        /* \"#utility.yul\":11675:11759   */\n      tag_225\n      jump\t// in\n    tag_387:\n        /* \"#utility.yul\":11665:11759   */\n      swap3\n      pop\n        /* \"#utility.yul\":11788:11792   */\n      0x20\n        /* \"#utility.yul\":11783:11786   */\n      dup11\n        /* \"#utility.yul\":11779:11793   */\n      add\n        /* \"#utility.yul\":11772:11793   */\n      swap10\n      pop\n        /* \"#utility.yul\":11425:11803   */\n      pop\n        /* \"#utility.yul\":11412:11413   */\n      0x01\n        /* \"#utility.yul\":11409:11410   */\n      dup2\n        /* \"#utility.yul\":11405:11414   */\n      add\n        /* \"#utility.yul\":11400:11414   */\n      swap1\n      pop\n        /* \"#utility.yul\":11365:11803   */\n      jump(tag_383)\n    tag_385:\n        /* \"#utility.yul\":11369:11383   */\n      pop\n        /* \"#utility.yul\":11819:11823   */\n      dup3\n        /* \"#utility.yul\":11812:11823   */\n      swap8\n      pop\n        /* \"#utility.yul\":11839:11842   */\n      dup8\n        /* \"#utility.yul\":11832:11842   */\n      swap6\n      pop\n        /* \"#utility.yul\":10917:11848   */\n      pop\n      pop\n      pop\n      pop\n      pop\n        /* \"#utility.yul\":10745:11848   */\n      swap3\n      swap2\n      pop\n      pop\n      jump\t// out\n        /* \"#utility.yul\":11854:12323   */\n    tag_30:\n        /* \"#utility.yul\":12045:12049   */\n      0x00\n        /* \"#utility.yul\":12083:12085   */\n      0x20\n        /* \"#utility.yul\":12072:12081   */\n      dup3\n        /* \"#utility.yul\":12068:12086   */\n      add\n        /* \"#utility.yul\":12060:12086   */\n      swap1\n      pop\n        /* \"#utility.yul\":12132:12141   */\n      dup2\n        /* \"#utility.yul\":12126:12130   */\n      dup2\n        /* \"#utility.yul\":12122:12142   */\n      sub\n        /* \"#utility.yul\":12118:12119   */\n      0x00\n        /* \"#utility.yul\":12107:12116   */\n      dup4\n        /* \"#utility.yul\":12103:12120   */\n      add\n        /* \"#utility.yul\":12096:12143   */\n      mstore\n        /* \"#utility.yul\":12160:12316   */\n      tag_389\n        /* \"#utility.yul\":12311:12315   */\n      dup2\n        /* \"#utility.yul\":12302:12308   */\n      dup5\n        /* \"#utility.yul\":12160:12316   */\n      tag_226\n      jump\t// in\n    tag_389:\n        /* \"#utility.yul\":12152:12316   */\n      swap1\n      pop\n        /* \"#utility.yul\":11854:12323   */\n      swap3\n      swap2\n      pop\n      pop\n      jump\t// out\n        /* \"#utility.yul\":12329:12446   */\n    tag_227:\n        /* \"#utility.yul\":12438:12439   */\n      0x00\n        /* \"#utility.yul\":12435:12436   */\n      dup1\n        /* \"#utility.yul\":12428:12440   */\n      revert\n        /* \"#utility.yul\":12452:12760   */\n    tag_228:\n        /* \"#utility.yul\":12514:12518   */\n      0x00\n        /* \"#utility.yul\":12604:12622   */\n      0xffffffffffffffff\n        /* \"#utility.yul\":12596:12602   */\n      dup3\n        /* \"#utility.yul\":12593:12623   */\n      gt\n        /* \"#utility.yul\":12590:12646   */\n      iszero\n      tag_392\n      jumpi\n        /* \"#utility.yul\":12626:12644   */\n      tag_393\n      tag_147\n      jump\t// in\n    tag_393:\n        /* \"#utility.yul\":12590:12646   */\n    tag_392:\n        /* \"#utility.yul\":12664:12693   */\n      tag_394\n        /* \"#utility.yul\":12686:12692   */\n      dup3\n        /* \"#utility.yul\":12664:12693   */\n      tag_196\n      jump\t// in\n    tag_394:\n        /* \"#utility.yul\":12656:12693   */\n      swap1\n      pop\n        /* \"#utility.yul\":12748:12752   */\n      0x20\n        /* \"#utility.yul\":12742:12746   */\n      dup2\n        /* \"#utility.yul\":12738:12753   */\n      add\n        /* \"#utility.yul\":12730:12753   */\n      swap1\n      pop\n        /* \"#utility.yul\":12452:12760   */\n      swap2\n      swap1\n      pop\n      jump\t// out\n        /* \"#utility.yul\":12766:12912   */\n    tag_229:\n        /* \"#utility.yul\":12863:12869   */\n      dup3\n        /* \"#utility.yul\":12858:12861   */\n      dup2\n        /* \"#utility.yul\":12853:12856   */\n      dup4\n        /* \"#utility.yul\":12840:12870   */\n      calldatacopy\n        /* \"#utility.yul\":12904:12905   */\n      0x00\n        /* \"#utility.yul\":12895:12901   */\n      dup4\n        /* \"#utility.yul\":12890:12893   */\n      dup4\n        /* \"#utility.yul\":12886:12902   */\n      add\n        /* \"#utility.yul\":12879:12906   */\n      mstore\n        /* \"#utility.yul\":12766:12912   */\n      pop\n      pop\n      pop\n      jump\t// out\n        /* \"#utility.yul\":12918:13343   */\n    tag_230:\n        /* \"#utility.yul\":12996:13001   */\n      0x00\n        /* \"#utility.yul\":13021:13087   */\n      tag_397\n        /* \"#utility.yul\":13037:13086   */\n      tag_398\n        /* \"#utility.yul\":13079:13085   */\n      dup5\n        /* \"#utility.yul\":13037:13086   */\n      tag_228\n      jump\t// in\n    tag_398:\n        /* \"#utility.yul\":13021:13087   */\n      tag_198\n      jump\t// in\n    tag_397:\n        /* \"#utility.yul\":13012:13087   */\n      swap1\n      pop\n        /* \"#utility.yul\":13110:13116   */\n      dup3\n        /* \"#utility.yul\":13103:13108   */\n      dup2\n        /* \"#utility.yul\":13096:13117   */\n      mstore\n        /* \"#utility.yul\":13148:13152   */\n      0x20\n        /* \"#utility.yul\":13141:13146   */\n      dup2\n        /* \"#utility.yul\":13137:13153   */\n      add\n        /* \"#utility.yul\":13186:13189   */\n      dup5\n        /* \"#utility.yul\":13177:13183   */\n      dup5\n        /* \"#utility.yul\":13172:13175   */\n      dup5\n        /* \"#utility.yul\":13168:13184   */\n      add\n        /* \"#utility.yul\":13165:13190   */\n      gt\n        /* \"#utility.yul\":13162:13274   */\n      iszero\n      tag_399\n      jumpi\n        /* \"#utility.yul\":13193:13272   */\n      tag_400\n      tag_227\n      jump\t// in\n    tag_400:\n        /* \"#utility.yul\":13162:13274   */\n    tag_399:\n        /* \"#utility.yul\":13283:13337   */\n      tag_401\n        /* \"#utility.yul\":13330:13336   */\n      dup5\n        /* \"#utility.yul\":13325:13328   */\n      dup3\n        /* \"#utility.yul\":13320:13323   */\n      dup6\n        /* \"#utility.yul\":13283:13337   */\n      tag_229\n      jump\t// in\n    tag_401:\n        /* \"#utility.yul\":13002:13343   */\n      pop\n        /* \"#utility.yul\":12918:13343   */\n      swap4\n      swap3\n      pop\n      pop\n      pop\n      jump\t// out\n        /* \"#utility.yul\":13363:13703   */\n    tag_231:\n        /* \"#utility.yul\":13419:13424   */\n      0x00\n        /* \"#utility.yul\":13468:13471   */\n      dup3\n        /* \"#utility.yul\":13461:13465   */\n      0x1f\n        /* \"#utility.yul\":13453:13459   */\n      dup4\n        /* \"#utility.yul\":13449:13466   */\n      add\n        /* \"#utility.yul\":13445:13472   */\n      slt\n        /* \"#utility.yul\":13435:13557   */\n      tag_403\n      jumpi\n        /* \"#utility.yul\":13476:13555   */\n      tag_404\n      tag_195\n      jump\t// in\n    tag_404:\n        /* \"#utility.yul\":13435:13557   */\n    tag_403:\n        /* \"#utility.yul\":13593:13599   */\n      dup2\n        /* \"#utility.yul\":13580:13600   */\n      calldataload\n        /* \"#utility.yul\":13618:13697   */\n      tag_405\n        /* \"#utility.yul\":13693:13696   */\n      dup5\n        /* \"#utility.yul\":13685:13691   */\n      dup3\n        /* \"#utility.yul\":13678:13682   */\n      0x20\n        /* \"#utility.yul\":13670:13676   */\n      dup7\n        /* \"#utility.yul\":13666:13683   */\n      add\n        /* \"#utility.yul\":13618:13697   */\n      tag_230\n      jump\t// in\n    tag_405:\n        /* \"#utility.yul\":13609:13697   */\n      swap2\n      pop\n        /* \"#utility.yul\":13425:13703   */\n      pop\n        /* \"#utility.yul\":13363:13703   */\n      swap3\n      swap2\n      pop\n      pop\n      jump\t// out\n        /* \"#utility.yul\":13709:14218   */\n    tag_33:\n        /* \"#utility.yul\":13778:13784   */\n      0x00\n        /* \"#utility.yul\":13827:13829   */\n      0x20\n        /* \"#utility.yul\":13815:13824   */\n      dup3\n        /* \"#utility.yul\":13806:13813   */\n      dup5\n        /* \"#utility.yul\":13802:13825   */\n      sub\n        /* \"#utility.yul\":13798:13830   */\n      slt\n        /* \"#utility.yul\":13795:13914   */\n      iszero\n      tag_407\n      jumpi\n        /* \"#utility.yul\":13833:13912   */\n      tag_408\n      tag_190\n      jump\t// in\n    tag_408:\n        /* \"#utility.yul\":13795:13914   */\n    tag_407:\n        /* \"#utility.yul\":13981:13982   */\n      0x00\n        /* \"#utility.yul\":13970:13979   */\n      dup3\n        /* \"#utility.yul\":13966:13983   */\n      add\n        /* \"#utility.yul\":13953:13984   */\n      calldataload\n        /* \"#utility.yul\":14011:14029   */\n      0xffffffffffffffff\n        /* \"#utility.yul\":14003:14009   */\n      dup2\n        /* \"#utility.yul\":14000:14030   */\n      gt\n        /* \"#utility.yul\":13997:14114   */\n      iszero\n      tag_409\n      jumpi\n        /* \"#utility.yul\":14033:14112   */\n      tag_410\n      tag_191\n      jump\t// in\n    tag_410:\n        /* \"#utility.yul\":13997:14114   */\n    tag_409:\n        /* \"#utility.yul\":14138:14201   */\n      tag_411\n        /* \"#utility.yul\":14193:14200   */\n      dup5\n        /* \"#utility.yul\":14184:14190   */\n      dup3\n        /* \"#utility.yul\":14173:14182   */\n      dup6\n        /* \"#utility.yul\":14169:14191   */\n      add\n        /* \"#utility.yul\":14138:14201   */\n      tag_231\n      jump\t// in\n    tag_411:\n        /* \"#utility.yul\":14128:14201   */\n      swap2\n      pop\n        /* \"#utility.yul\":13924:14211   */\n      pop\n        /* \"#utility.yul\":13709:14218   */\n      swap3\n      swap2\n      pop\n      pop\n      jump\t// out\n        /* \"#utility.yul\":14224:14342   */\n    tag_232:\n        /* \"#utility.yul\":14311:14335   */\n      tag_413\n        /* \"#utility.yul\":14329:14334   */\n      dup2\n        /* \"#utility.yul\":14311:14335   */\n      tag_208\n      jump\t// in\n    tag_413:\n        /* \"#utility.yul\":14306:14309   */\n      dup3\n        /* \"#utility.yul\":14299:14336   */\n      mstore\n        /* \"#utility.yul\":14224:14342   */\n      pop\n      pop\n      jump\t// out\n        /* \"#utility.yul\":14348:14680   */\n    tag_38:\n        /* \"#utility.yul\":14469:14473   */\n      0x00\n        /* \"#utility.yul\":14507:14509   */\n      0x40\n        /* \"#utility.yul\":14496:14505   */\n      dup3\n        /* \"#utility.yul\":14492:14510   */\n      add\n        /* \"#utility.yul\":14484:14510   */\n      swap1\n      pop\n        /* \"#utility.yul\":14520:14591   */\n      tag_415\n        /* \"#utility.yul\":14588:14589   */\n      0x00\n        /* \"#utility.yul\":14577:14586   */\n      dup4\n        /* \"#utility.yul\":14573:14590   */\n      add\n        /* \"#utility.yul\":14564:14570   */\n      dup6\n        /* \"#utility.yul\":14520:14591   */\n      tag_232\n      jump\t// in\n    tag_415:\n        /* \"#utility.yul\":14601:14673   */\n      tag_416\n        /* \"#utility.yul\":14669:14671   */\n      0x20\n        /* \"#utility.yul\":14658:14667   */\n      dup4\n        /* \"#utility.yul\":14654:14672   */\n      add\n        /* \"#utility.yul\":14645:14651   */\n      dup5\n        /* \"#utility.yul\":14601:14673   */\n      tag_232\n      jump\t// in\n    tag_416:\n        /* \"#utility.yul\":14348:14680   */\n      swap4\n      swap3\n      pop\n      pop\n      pop\n      jump\t// out\n        /* \"#utility.yul\":14686:14912   */\n    tag_233:\n        /* \"#utility.yul\":14826:14860   */\n      0x596f75722070726576696f7573207475726e206973207374696c6c20696e2070\n        /* \"#utility.yul\":14822:14823   */\n      0x00\n        /* \"#utility.yul\":14814:14820   */\n      dup3\n        /* \"#utility.yul\":14810:14824   */\n      add\n        /* \"#utility.yul\":14803:14861   */\n      mstore\n        /* \"#utility.yul\":14895:14904   */\n      0x726f677265737300000000000000000000000000000000000000000000000000\n        /* \"#utility.yul\":14890:14892   */\n      0x20\n        /* \"#utility.yul\":14882:14888   */\n      dup3\n        /* \"#utility.yul\":14878:14893   */\n      add\n        /* \"#utility.yul\":14871:14905   */\n      mstore\n        /* \"#utility.yul\":14686:14912   */\n      pop\n      jump\t// out\n        /* \"#utility.yul\":14918:15284   */\n    tag_234:\n        /* \"#utility.yul\":15060:15063   */\n      0x00\n        /* \"#utility.yul\":15081:15148   */\n      tag_419\n        /* \"#utility.yul\":15145:15147   */\n      0x27\n        /* \"#utility.yul\":15140:15143   */\n      dup4\n        /* \"#utility.yul\":15081:15148   */\n      tag_212\n      jump\t// in\n    tag_419:\n        /* \"#utility.yul\":15074:15148   */\n      swap2\n      pop\n        /* \"#utility.yul\":15157:15250   */\n      tag_420\n        /* \"#utility.yul\":15246:15249   */\n      dup3\n        /* \"#utility.yul\":15157:15250   */\n      tag_233\n      jump\t// in\n    tag_420:\n        /* \"#utility.yul\":15275:15277   */\n      0x40\n        /* \"#utility.yul\":15270:15273   */\n      dup3\n        /* \"#utility.yul\":15266:15278   */\n      add\n        /* \"#utility.yul\":15259:15278   */\n      swap1\n      pop\n        /* \"#utility.yul\":14918:15284   */\n      swap2\n      swap1\n      pop\n      jump\t// out\n        /* \"#utility.yul\":15290:15709   */\n    tag_127:\n        /* \"#utility.yul\":15456:15460   */\n      0x00\n        /* \"#utility.yul\":15494:15496   */\n      0x20\n        /* \"#utility.yul\":15483:15492   */\n      dup3\n        /* \"#utility.yul\":15479:15497   */\n      add\n        /* \"#utility.yul\":15471:15497   */\n      swap1\n      pop\n        /* \"#utility.yul\":15543:15552   */\n      dup2\n        /* \"#utility.yul\":15537:15541   */\n      dup2\n        /* \"#utility.yul\":15533:15553   */\n      sub\n        /* \"#utility.yul\":15529:15530   */\n      0x00\n        /* \"#utility.yul\":15518:15527   */\n      dup4\n        /* \"#utility.yul\":15514:15531   */\n      add\n        /* \"#utility.yul\":15507:15554   */\n      mstore\n        /* \"#utility.yul\":15571:15702   */\n      tag_422\n        /* \"#utility.yul\":15697:15701   */\n      dup2\n        /* \"#utility.yul\":15571:15702   */\n      tag_234\n      jump\t// in\n    tag_422:\n        /* \"#utility.yul\":15563:15702   */\n      swap1\n      pop\n        /* \"#utility.yul\":15290:15709   */\n      swap2\n      swap1\n      pop\n      jump\t// out\n        /* \"#utility.yul\":15715:15874   */\n    tag_235:\n        /* \"#utility.yul\":15855:15866   */\n      0x47616d65206f7665720000000000000000000000000000000000000000000000\n        /* \"#utility.yul\":15851:15852   */\n      0x00\n        /* \"#utility.yul\":15843:15849   */\n      dup3\n        /* \"#utility.yul\":15839:15853   */\n      add\n        /* \"#utility.yul\":15832:15867   */\n      mstore\n        /* \"#utility.yul\":15715:15874   */\n      pop\n      jump\t// out\n        /* \"#utility.yul\":15880:16245   */\n    tag_236:\n        /* \"#utility.yul\":16022:16025   */\n      0x00\n        /* \"#utility.yul\":16043:16109   */\n      tag_425\n        /* \"#utility.yul\":16107:16108   */\n      0x09\n        /* \"#utility.yul\":16102:16105   */\n      dup4\n        /* \"#utility.yul\":16043:16109   */\n      tag_212\n      jump\t// in\n    tag_425:\n        /* \"#utility.yul\":16036:16109   */\n      swap2\n      pop\n        /* \"#utility.yul\":16118:16211   */\n      tag_426\n        /* \"#utility.yul\":16207:16210   */\n      dup3\n        /* \"#utility.yul\":16118:16211   */\n      tag_235\n      jump\t// in\n    tag_426:\n        /* \"#utility.yul\":16236:16238   */\n      0x20\n        /* \"#utility.yul\":16231:16234   */\n      dup3\n        /* \"#utility.yul\":16227:16239   */\n      add\n        /* \"#utility.yul\":16220:16239   */\n      swap1\n      pop\n        /* \"#utility.yul\":15880:16245   */\n      swap2\n      swap1\n      pop\n      jump\t// out\n        /* \"#utility.yul\":16251:16670   */\n    tag_130:\n        /* \"#utility.yul\":16417:16421   */\n      0x00\n        /* \"#utility.yul\":16455:16457   */\n      0x20\n        /* \"#utility.yul\":16444:16453   */\n      dup3\n        /* \"#utility.yul\":16440:16458   */\n      add\n        /* \"#utility.yul\":16432:16458   */\n      swap1\n      pop\n        /* \"#utility.yul\":16504:16513   */\n      dup2\n        /* \"#utility.yul\":16498:16502   */\n      dup2\n        /* \"#utility.yul\":16494:16514   */\n      sub\n        /* \"#utility.yul\":16490:16491   */\n      0x00\n        /* \"#utility.yul\":16479:16488   */\n      dup4\n        /* \"#utility.yul\":16475:16492   */\n      add\n        /* \"#utility.yul\":16468:16515   */\n      mstore\n        /* \"#utility.yul\":16532:16663   */\n      tag_428\n        /* \"#utility.yul\":16658:16662   */\n      dup2\n        /* \"#utility.yul\":16532:16663   */\n      tag_236\n      jump\t// in\n    tag_428:\n        /* \"#utility.yul\":16524:16663   */\n      swap1\n      pop\n        /* \"#utility.yul\":16251:16670   */\n      swap2\n      swap1\n      pop\n      jump\t// out\n        /* \"#utility.yul\":16676:16753   */\n    tag_237:\n        /* \"#utility.yul\":16713:16720   */\n      0x00\n        /* \"#utility.yul\":16742:16747   */\n      dup2\n        /* \"#utility.yul\":16731:16747   */\n      swap1\n      pop\n        /* \"#utility.yul\":16676:16753   */\n      swap2\n      swap1\n      pop\n      jump\t// out\n        /* \"#utility.yul\":16759:16877   */\n    tag_238:\n        /* \"#utility.yul\":16846:16870   */\n      tag_431\n        /* \"#utility.yul\":16864:16869   */\n      dup2\n        /* \"#utility.yul\":16846:16870   */\n      tag_237\n      jump\t// in\n    tag_431:\n        /* \"#utility.yul\":16841:16844   */\n      dup3\n        /* \"#utility.yul\":16834:16871   */\n      mstore\n        /* \"#utility.yul\":16759:16877   */\n      pop\n      pop\n      jump\t// out\n        /* \"#utility.yul\":16883:16984   */\n    tag_239:\n        /* \"#utility.yul\":16919:16926   */\n      0x00\n        /* \"#utility.yul\":16959:16977   */\n      0xffffffffffffffff\n        /* \"#utility.yul\":16952:16957   */\n      dup3\n        /* \"#utility.yul\":16948:16978   */\n      and\n        /* \"#utility.yul\":16937:16978   */\n      swap1\n      pop\n        /* \"#utility.yul\":16883:16984   */\n      swap2\n      swap1\n      pop\n      jump\t// out\n        /* \"#utility.yul\":16990:17105   */\n    tag_240:\n        /* \"#utility.yul\":17075:17098   */\n      tag_434\n        /* \"#utility.yul\":17092:17097   */\n      dup2\n        /* \"#utility.yul\":17075:17098   */\n      tag_239\n      jump\t// in\n    tag_434:\n        /* \"#utility.yul\":17070:17073   */\n      dup3\n        /* \"#utility.yul\":17063:17099   */\n      mstore\n        /* \"#utility.yul\":16990:17105   */\n      pop\n      pop\n      jump\t// out\n        /* \"#utility.yul\":17111:17200   */\n    tag_241:\n        /* \"#utility.yul\":17147:17154   */\n      0x00\n        /* \"#utility.yul\":17187:17193   */\n      0xffff\n        /* \"#utility.yul\":17180:17185   */\n      dup3\n        /* \"#utility.yul\":17176:17194   */\n      and\n        /* \"#utility.yul\":17165:17194   */\n      swap1\n      pop\n        /* \"#utility.yul\":17111:17200   */\n      swap2\n      swap1\n      pop\n      jump\t// out\n        /* \"#utility.yul\":17206:17321   */\n    tag_242:\n        /* \"#utility.yul\":17291:17314   */\n      tag_437\n        /* \"#utility.yul\":17308:17313   */\n      dup2\n        /* \"#utility.yul\":17291:17314   */\n      tag_241\n      jump\t// in\n    tag_437:\n        /* \"#utility.yul\":17286:17289   */\n      dup3\n        /* \"#utility.yul\":17279:17315   */\n      mstore\n        /* \"#utility.yul\":17206:17321   */\n      pop\n      pop\n      jump\t// out\n        /* \"#utility.yul\":17327:17975   */\n    tag_132:\n        /* \"#utility.yul\":17524:17528   */\n      0x00\n        /* \"#utility.yul\":17562:17565   */\n      0xa0\n        /* \"#utility.yul\":17551:17560   */\n      dup3\n        /* \"#utility.yul\":17547:17566   */\n      add\n        /* \"#utility.yul\":17539:17566   */\n      swap1\n      pop\n        /* \"#utility.yul\":17576:17647   */\n      tag_439\n        /* \"#utility.yul\":17644:17645   */\n      0x00\n        /* \"#utility.yul\":17633:17642   */\n      dup4\n        /* \"#utility.yul\":17629:17646   */\n      add\n        /* \"#utility.yul\":17620:17626   */\n      dup9\n        /* \"#utility.yul\":17576:17647   */\n      tag_238\n      jump\t// in\n    tag_439:\n        /* \"#utility.yul\":17657:17727   */\n      tag_440\n        /* \"#utility.yul\":17723:17725   */\n      0x20\n        /* \"#utility.yul\":17712:17721   */\n      dup4\n        /* \"#utility.yul\":17708:17726   */\n      add\n        /* \"#utility.yul\":17699:17705   */\n      dup8\n        /* \"#utility.yul\":17657:17727   */\n      tag_240\n      jump\t// in\n    tag_440:\n        /* \"#utility.yul\":17737:17807   */\n      tag_441\n        /* \"#utility.yul\":17803:17805   */\n      0x40\n        /* \"#utility.yul\":17792:17801   */\n      dup4\n        /* \"#utility.yul\":17788:17806   */\n      add\n        /* \"#utility.yul\":17779:17785   */\n      dup7\n        /* \"#utility.yul\":17737:17807   */\n      tag_242\n      jump\t// in\n    tag_441:\n        /* \"#utility.yul\":17817:17887   */\n      tag_442\n        /* \"#utility.yul\":17883:17885   */\n      0x60\n        /* \"#utility.yul\":17872:17881   */\n      dup4\n        /* \"#utility.yul\":17868:17886   */\n      add\n        /* \"#utility.yul\":17859:17865   */\n      dup6\n        /* \"#utility.yul\":17817:17887   */\n      tag_206\n      jump\t// in\n    tag_442:\n        /* \"#utility.yul\":17897:17968   */\n      tag_443\n        /* \"#utility.yul\":17963:17966   */\n      0x80\n        /* \"#utility.yul\":17952:17961   */\n      dup4\n        /* \"#utility.yul\":17948:17967   */\n      add\n        /* \"#utility.yul\":17939:17945   */\n      dup5\n        /* \"#utility.yul\":17897:17968   */\n      tag_206\n      jump\t// in\n    tag_443:\n        /* \"#utility.yul\":17327:17975   */\n      swap7\n      swap6\n      pop\n      pop\n      pop\n      pop\n      pop\n      pop\n      jump\t// out\n        /* \"#utility.yul\":17981:18124   */\n    tag_243:\n        /* \"#utility.yul\":18038:18043   */\n      0x00\n        /* \"#utility.yul\":18069:18075   */\n      dup2\n        /* \"#utility.yul\":18063:18076   */\n      mload\n        /* \"#utility.yul\":18054:18076   */\n      swap1\n      pop\n        /* \"#utility.yul\":18085:18118   */\n      tag_445\n        /* \"#utility.yul\":18112:18117   */\n      dup2\n        /* \"#utility.yul\":18085:18118   */\n      tag_193\n      jump\t// in\n    tag_445:\n        /* \"#utility.yul\":17981:18124   */\n      swap3\n      swap2\n      pop\n      pop\n      jump\t// out\n        /* \"#utility.yul\":18130:18481   */\n    tag_136:\n        /* \"#utility.yul\":18200:18206   */\n      0x00\n        /* \"#utility.yul\":18249:18251   */\n      0x20\n        /* \"#utility.yul\":18237:18246   */\n      dup3\n        /* \"#utility.yul\":18228:18235   */\n      dup5\n        /* \"#utility.yul\":18224:18247   */\n      sub\n        /* \"#utility.yul\":18220:18252   */\n      slt\n        /* \"#utility.yul\":18217:18336   */\n      iszero\n      tag_447\n      jumpi\n        /* \"#utility.yul\":18255:18334   */\n      tag_448\n      tag_190\n      jump\t// in\n    tag_448:\n        /* \"#utility.yul\":18217:18336   */\n    tag_447:\n        /* \"#utility.yul\":18375:18376   */\n      0x00\n        /* \"#utility.yul\":18400:18464   */\n      tag_449\n        /* \"#utility.yul\":18456:18463   */\n      dup5\n        /* \"#utility.yul\":18447:18453   */\n      dup3\n        /* \"#utility.yul\":18436:18445   */\n      dup6\n        /* \"#utility.yul\":18432:18454   */\n      add\n        /* \"#utility.yul\":18400:18464   */\n      tag_243\n      jump\t// in\n    tag_449:\n        /* \"#utility.yul\":18390:18464   */\n      swap2\n      pop\n        /* \"#utility.yul\":18346:18474   */\n      pop\n        /* \"#utility.yul\":18130:18481   */\n      swap3\n      swap2\n      pop\n      pop\n      jump\t// out\n        /* \"#utility.yul\":18487:18667   */\n    tag_244:\n        /* \"#utility.yul\":18535:18612   */\n      0x4e487b7100000000000000000000000000000000000000000000000000000000\n        /* \"#utility.yul\":18532:18533   */\n      0x00\n        /* \"#utility.yul\":18525:18613   */\n      mstore\n        /* \"#utility.yul\":18632:18636   */\n      0x22\n        /* \"#utility.yul\":18629:18630   */\n      0x04\n        /* \"#utility.yul\":18622:18637   */\n      mstore\n        /* \"#utility.yul\":18656:18660   */\n      0x24\n        /* \"#utility.yul\":18653:18654   */\n      0x00\n        /* \"#utility.yul\":18646:18661   */\n      revert\n        /* \"#utility.yul\":18673:18993   */\n    tag_139:\n        /* \"#utility.yul\":18717:18723   */\n      0x00\n        /* \"#utility.yul\":18754:18755   */\n      0x02\n        /* \"#utility.yul\":18748:18752   */\n      dup3\n        /* \"#utility.yul\":18744:18756   */\n      div\n        /* \"#utility.yul\":18734:18756   */\n      swap1\n      pop\n        /* \"#utility.yul\":18801:18802   */\n      0x01\n        /* \"#utility.yul\":18795:18799   */\n      dup3\n        /* \"#utility.yul\":18791:18803   */\n      and\n        /* \"#utility.yul\":18822:18840   */\n      dup1\n        /* \"#utility.yul\":18812:18893   */\n      tag_452\n      jumpi\n        /* \"#utility.yul\":18878:18882   */\n      0x7f\n        /* \"#utility.yul\":18870:18876   */\n      dup3\n        /* \"#utility.yul\":18866:18883   */\n      and\n        /* \"#utility.yul\":18856:18883   */\n      swap2\n      pop\n        /* \"#utility.yul\":18812:18893   */\n    tag_452:\n        /* \"#utility.yul\":18940:18942   */\n      0x20\n        /* \"#utility.yul\":18932:18938   */\n      dup3\n        /* \"#utility.yul\":18929:18943   */\n      lt\n        /* \"#utility.yul\":18909:18927   */\n      dup2\n        /* \"#utility.yul\":18906:18944   */\n      sub\n        /* \"#utility.yul\":18903:18987   */\n      tag_453\n      jumpi\n        /* \"#utility.yul\":18959:18977   */\n      tag_454\n      tag_244\n      jump\t// in\n    tag_454:\n        /* \"#utility.yul\":18903:18987   */\n    tag_453:\n        /* \"#utility.yul\":18724:18993   */\n      pop\n        /* \"#utility.yul\":18673:18993   */\n      swap2\n      swap1\n      pop\n      jump\t// out\n        /* \"#utility.yul\":18999:19179   */\n    tag_157:\n        /* \"#utility.yul\":19047:19124   */\n      0x4e487b7100000000000000000000000000000000000000000000000000000000\n        /* \"#utility.yul\":19044:19045   */\n      0x00\n        /* \"#utility.yul\":19037:19125   */\n      mstore\n        /* \"#utility.yul\":19144:19148   */\n      0x32\n        /* \"#utility.yul\":19141:19142   */\n      0x04\n        /* \"#utility.yul\":19134:19149   */\n      mstore\n        /* \"#utility.yul\":19168:19172   */\n      0x24\n        /* \"#utility.yul\":19165:19166   */\n      0x00\n        /* \"#utility.yul\":19158:19173   */\n      revert\n        /* \"#utility.yul\":19185:19353   */\n    tag_245:\n        /* \"#utility.yul\":19325:19345   */\n      0x416c726561647920726567697374657265640000000000000000000000000000\n        /* \"#utility.yul\":19321:19322   */\n      0x00\n        /* \"#utility.yul\":19313:19319   */\n      dup3\n        /* \"#utility.yul\":19309:19323   */\n      add\n        /* \"#utility.yul\":19302:19346   */\n      mstore\n        /* \"#utility.yul\":19185:19353   */\n      pop\n      jump\t// out\n        /* \"#utility.yul\":19359:19725   */\n    tag_246:\n        /* \"#utility.yul\":19501:19504   */\n      0x00\n        /* \"#utility.yul\":19522:19589   */\n      tag_458\n        /* \"#utility.yul\":19586:19588   */\n      0x12\n        /* \"#utility.yul\":19581:19584   */\n      dup4\n        /* \"#utility.yul\":19522:19589   */\n      tag_212\n      jump\t// in\n    tag_458:\n        /* \"#utility.yul\":19515:19589   */\n      swap2\n      pop\n        /* \"#utility.yul\":19598:19691   */\n      tag_459\n        /* \"#utility.yul\":19687:19690   */\n      dup3\n        /* \"#utility.yul\":19598:19691   */\n      tag_245\n      jump\t// in\n    tag_459:\n        /* \"#utility.yul\":19716:19718   */\n      0x20\n        /* \"#utility.yul\":19711:19714   */\n      dup3\n        /* \"#utility.yul\":19707:19719   */\n      add\n        /* \"#utility.yul\":19700:19719   */\n      swap1\n      pop\n        /* \"#utility.yul\":19359:19725   */\n      swap2\n      swap1\n      pop\n      jump\t// out\n        /* \"#utility.yul\":19731:20150   */\n    tag_170:\n        /* \"#utility.yul\":19897:19901   */\n      0x00\n        /* \"#utility.yul\":19935:19937   */\n      0x20\n        /* \"#utility.yul\":19924:19933   */\n      dup3\n        /* \"#utility.yul\":19920:19938   */\n      add\n        /* \"#utility.yul\":19912:19938   */\n      swap1\n      pop\n        /* \"#utility.yul\":19984:19993   */\n      dup2\n        /* \"#utility.yul\":19978:19982   */\n      dup2\n        /* \"#utility.yul\":19974:19994   */\n      sub\n        /* \"#utility.yul\":19970:19971   */\n      0x00\n        /* \"#utility.yul\":19959:19968   */\n      dup4\n        /* \"#utility.yul\":19955:19972   */\n      add\n        /* \"#utility.yul\":19948:19995   */\n      mstore\n        /* \"#utility.yul\":20012:20143   */\n      tag_461\n        /* \"#utility.yul\":20138:20142   */\n      dup2\n        /* \"#utility.yul\":20012:20143   */\n      tag_246\n      jump\t// in\n    tag_461:\n        /* \"#utility.yul\":20004:20143   */\n      swap1\n      pop\n        /* \"#utility.yul\":19731:20150   */\n      swap2\n      swap1\n      pop\n      jump\t// out\n        /* \"#utility.yul\":20156:20297   */\n    tag_247:\n        /* \"#utility.yul\":20205:20209   */\n      0x00\n        /* \"#utility.yul\":20228:20231   */\n      dup2\n        /* \"#utility.yul\":20220:20231   */\n      swap1\n      pop\n        /* \"#utility.yul\":20251:20254   */\n      dup2\n        /* \"#utility.yul\":20248:20249   */\n      0x00\n        /* \"#utility.yul\":20241:20255   */\n      mstore\n        /* \"#utility.yul\":20285:20289   */\n      0x20\n        /* \"#utility.yul\":20282:20283   */\n      0x00\n        /* \"#utility.yul\":20272:20290   */\n      keccak256\n        /* \"#utility.yul\":20264:20290   */\n      swap1\n      pop\n        /* \"#utility.yul\":20156:20297   */\n      swap2\n      swap1\n      pop\n      jump\t// out\n        /* \"#utility.yul\":20303:20396   */\n    tag_248:\n        /* \"#utility.yul\":20340:20346   */\n      0x00\n        /* \"#utility.yul\":20387:20389   */\n      0x20\n        /* \"#utility.yul\":20382:20384   */\n      0x1f\n        /* \"#utility.yul\":20375:20380   */\n      dup4\n        /* \"#utility.yul\":20371:20385   */\n      add\n        /* \"#utility.yul\":20367:20390   */\n      div\n        /* \"#utility.yul\":20357:20390   */\n      swap1\n      pop\n        /* \"#utility.yul\":20303:20396   */\n      swap2\n      swap1\n      pop\n      jump\t// out\n        /* \"#utility.yul\":20402:20509   */\n    tag_249:\n        /* \"#utility.yul\":20446:20454   */\n      0x00\n        /* \"#utility.yul\":20496:20501   */\n      dup3\n        /* \"#utility.yul\":20490:20494   */\n      dup3\n        /* \"#utility.yul\":20486:20502   */\n      shl\n        /* \"#utility.yul\":20465:20502   */\n      swap1\n      pop\n        /* \"#utility.yul\":20402:20509   */\n      swap3\n      swap2\n      pop\n      pop\n      jump\t// out\n        /* \"#utility.yul\":20515:20908   */\n    tag_250:\n        /* \"#utility.yul\":20584:20590   */\n      0x00\n        /* \"#utility.yul\":20634:20635   */\n      0x08\n        /* \"#utility.yul\":20622:20632   */\n      dup4\n        /* \"#utility.yul\":20618:20636   */\n      mul\n        /* \"#utility.yul\":20657:20754   */\n      tag_466\n        /* \"#utility.yul\":20687:20753   */\n      0xffffffffffffffffffffffffffffffffffffffffffffffffffffffffffffffff\n        /* \"#utility.yul\":20676:20685   */\n      dup3\n        /* \"#utility.yul\":20657:20754   */\n      tag_249\n      jump\t// in\n    tag_466:\n        /* \"#utility.yul\":20775:20814   */\n      tag_467\n        /* \"#utility.yul\":20805:20813   */\n      dup7\n        /* \"#utility.yul\":20794:20803   */\n      dup4\n        /* \"#utility.yul\":20775:20814   */\n      tag_249\n      jump\t// in\n    tag_467:\n        /* \"#utility.yul\":20763:20814   */\n      swap6\n      pop\n        /* \"#utility.yul\":20847:20851   */\n      dup1\n        /* \"#utility.yul\":20843:20852   */\n      not\n        /* \"#utility.yul\":20836:20841   */\n      dup5\n        /* \"#utility.yul\":20832:20853   */\n      and\n        /* \"#utility.yul\":20823:20853   */\n      swap4\n      pop\n        /* \"#utility.yul\":20896:20900   */\n      dup1\n        /* \"#utility.yul\":20886:20894   */\n      dup7\n        /* \"#utility.yul\":20882:20901   */\n      and\n        /* \"#utility.yul\":20875:20880   */\n      dup5\n        /* \"#utility.yul\":20872:20902   */\n      or\n        /* \"#utility.yul\":20862:20902   */\n      swap3\n      pop\n        /* \"#utility.yul\":20591:20908   */\n      pop\n      pop\n        /* \"#utility.yul\":20515:20908   */\n      swap4\n      swap3\n      pop\n      pop\n      pop\n      jump\t// out\n        /* \"#utility.yul\":20914:20974   */\n    tag_251:\n        /* \"#utility.yul\":20942:20945   */\n      0x00\n        /* \"#utility.yul\":20963:20968   */\n      dup2\n        /* \"#utility.yul\":20956:20968   */\n      swap1\n      pop\n        /* \"#utility.yul\":20914:20974   */\n      swap2\n      swap1\n      pop\n      jump\t// out\n        /* \"#utility.yul\":20980:21122   */\n    tag_252:\n        /* \"#utility.yul\":21030:21039   */\n      0x00\n        /* \"#utility.yul\":21063:21116   */\n      tag_470\n        /* \"#utility.yul\":21081:21115   */\n      tag_471\n        /* \"#utility.yul\":21090:21114   */\n      tag_472\n        /* \"#utility.yul\":21108:21113   */\n      dup5\n        /* \"#utility.yul\":21090:21114   */\n      tag_192\n      jump\t// in\n    tag_472:\n        /* \"#utility.yul\":21081:21115   */\n      tag_251\n      jump\t// in\n    tag_471:\n        /* \"#utility.yul\":21063:21116   */\n      tag_192\n      jump\t// in\n    tag_470:\n        /* \"#utility.yul\":21050:21116   */\n      swap1\n      pop\n        /* \"#utility.yul\":20980:21122   */\n      swap2\n      swap1\n      pop\n      jump\t// out\n        /* \"#utility.yul\":21128:21203   */\n    tag_253:\n        /* \"#utility.yul\":21171:21174   */\n      0x00\n        /* \"#utility.yul\":21192:21197   */\n      dup2\n        /* \"#utility.yul\":21185:21197   */\n      swap1\n      pop\n        /* \"#utility.yul\":21128:21203   */\n      swap2\n      swap1\n      pop\n      jump\t// out\n        /* \"#utility.yul\":21209:21478   */\n    tag_254:\n        /* \"#utility.yul\":21319:21358   */\n      tag_475\n        /* \"#utility.yul\":21350:21357   */\n      dup4\n        /* \"#utility.yul\":21319:21358   */\n      tag_252\n      jump\t// in\n    tag_475:\n        /* \"#utility.yul\":21380:21471   */\n      tag_476\n        /* \"#utility.yul\":21429:21470   */\n      tag_477\n        /* \"#utility.yul\":21453:21469   */\n      dup3\n        /* \"#utility.yul\":21429:21470   */\n      tag_253\n      jump\t// in\n    tag_477:\n        /* \"#utility.yul\":21421:21427   */\n      dup5\n        /* \"#utility.yul\":21414:21418   */\n      dup5\n        /* \"#utility.yul\":21408:21419   */\n      sload\n        /* \"#utility.yul\":21380:21471   */\n      tag_250\n      jump\t// in\n    tag_476:\n        /* \"#utility.yul\":21374:21378   */\n      dup3\n        /* \"#utility.yul\":21367:21472   */\n      sstore\n        /* \"#utility.yul\":21285:21478   */\n      pop\n        /* \"#utility.yul\":21209:21478   */\n      pop\n      pop\n      pop\n      jump\t// out\n        /* \"#utility.yul\":21484:21557   */\n    tag_255:\n        /* \"#utility.yul\":21529:21532   */\n      0x00\n        /* \"#utility.yul\":21484:21557   */\n      swap1\n      jump\t// out\n        /* \"#utility.yul\":21563:21752   */\n    tag_256:\n        /* \"#utility.yul\":21640:21672   */\n      tag_480\n      tag_255\n      jump\t// in\n    tag_480:\n        /* \"#utility.yul\":21681:21746   */\n      tag_481\n        /* \"#utility.yul\":21739:21745   */\n      dup2\n        /* \"#utility.yul\":21731:21737   */\n      dup5\n        /* \"#utility.yul\":21725:21729   */\n      dup5\n        /* \"#utility.yul\":21681:21746   */\n      tag_254\n      jump\t// in\n    tag_481:\n        /* \"#utility.yul\":21616:21752   */\n      pop\n        /* \"#utility.yul\":21563:21752   */\n      pop\n      pop\n      jump\t// out\n        /* \"#utility.yul\":21758:21944   */\n    tag_257:\n        /* \"#utility.yul\":21818:21938   */\n    tag_483:\n        /* \"#utility.yul\":21835:21838   */\n      dup2\n        /* \"#utility.yul\":21828:21833   */\n      dup2\n        /* \"#utility.yul\":21825:21839   */\n      lt\n        /* \"#utility.yul\":21818:21938   */\n      iszero\n      tag_485\n      jumpi\n        /* \"#utility.yul\":21889:21928   */\n      tag_486\n        /* \"#utility.yul\":21926:21927   */\n      0x00\n        /* \"#utility.yul\":21919:21924   */\n      dup3\n        /* \"#utility.yul\":21889:21928   */\n      tag_256\n      jump\t// in\n    tag_486:\n        /* \"#utility.yul\":21862:21863   */\n      0x01\n        /* \"#utility.yul\":21855:21860   */\n      dup2\n        /* \"#utility.yul\":21851:21864   */\n      add\n        /* \"#utility.yul\":21842:21864   */\n      swap1\n      pop\n        /* \"#utility.yul\":21818:21938   */\n      jump(tag_483)\n    tag_485:\n        /* \"#utility.yul\":21758:21944   */\n      pop\n      pop\n      jump\t// out\n        /* \"#utility.yul\":21950:22493   */\n    tag_258:\n        /* \"#utility.yul\":22051:22053   */\n      0x1f\n        /* \"#utility.yul\":22046:22049   */\n      dup3\n        /* \"#utility.yul\":22043:22054   */\n      gt\n        /* \"#utility.yul\":22040:22486   */\n      iszero\n      tag_488\n      jumpi\n        /* \"#utility.yul\":22085:22123   */\n      tag_489\n        /* \"#utility.yul\":22117:22122   */\n      dup2\n        /* \"#utility.yul\":22085:22123   */\n      tag_247\n      jump\t// in\n    tag_489:\n        /* \"#utility.yul\":22169:22198   */\n      tag_490\n        /* \"#utility.yul\":22187:22197   */\n      dup5\n        /* \"#utility.yul\":22169:22198   */\n      tag_248\n      jump\t// in\n    tag_490:\n        /* \"#utility.yul\":22159:22167   */\n      dup2\n        /* \"#utility.yul\":22155:22199   */\n      add\n        /* \"#utility.yul\":22352:22354   */\n      0x20\n        /* \"#utility.yul\":22340:22350   */\n      dup6\n        /* \"#utility.yul\":22337:22355   */\n      lt\n        /* \"#utility.yul\":22334:22383   */\n      iszero\n      tag_491\n      jumpi\n        /* \"#utility.yul\":22373:22381   */\n      dup2\n        /* \"#utility.yul\":22358:22381   */\n      swap1\n      pop\n        /* \"#utility.yul\":22334:22383   */\n    tag_491:\n        /* \"#utility.yul\":22396:22476   */\n      tag_492\n        /* \"#utility.yul\":22452:22474   */\n      tag_493\n        /* \"#utility.yul\":22470:22473   */\n      dup6\n        /* \"#utility.yul\":22452:22474   */\n      tag_248\n      jump\t// in\n    tag_493:\n        /* \"#utility.yul\":22442:22450   */\n      dup4\n        /* \"#utility.yul\":22438:22475   */\n      add\n        /* \"#utility.yul\":22425:22436   */\n      dup3\n        /* \"#utility.yul\":22396:22476   */\n      tag_257\n      jump\t// in\n    tag_492:\n        /* \"#utility.yul\":22055:22486   */\n      pop\n      pop\n        /* \"#utility.yul\":22040:22486   */\n    tag_488:\n        /* \"#utility.yul\":21950:22493   */\n      pop\n      pop\n      pop\n      jump\t// out\n        /* \"#utility.yul\":22499:22616   */\n    tag_259:\n        /* \"#utility.yul\":22553:22561   */\n      0x00\n        /* \"#utility.yul\":22603:22608   */\n      dup3\n        /* \"#utility.yul\":22597:22601   */\n      dup3\n        /* \"#utility.yul\":22593:22609   */\n      shr\n        /* \"#utility.yul\":22572:22609   */\n      swap1\n      pop\n        /* \"#utility.yul\":22499:22616   */\n      swap3\n      swap2\n      pop\n      pop\n      jump\t// out\n        /* \"#utility.yul\":22622:22791   */\n    tag_260:\n        /* \"#utility.yul\":22666:22672   */\n      0x00\n        /* \"#utility.yul\":22699:22750   */\n      tag_496\n        /* \"#utility.yul\":22747:22748   */\n      0x00\n        /* \"#utility.yul\":22743:22749   */\n      not\n        /* \"#utility.yul\":22735:22740   */\n      dup5\n        /* \"#utility.yul\":22732:22733   */\n      0x08\n        /* \"#utility.yul\":22728:22741   */\n      mul\n        /* \"#utility.yul\":22699:22750   */\n      tag_259\n      jump\t// in\n    tag_496:\n        /* \"#utility.yul\":22695:22751   */\n      not\n        /* \"#utility.yul\":22780:22784   */\n      dup1\n        /* \"#utility.yul\":22774:22778   */\n      dup4\n        /* \"#utility.yul\":22770:22785   */\n      and\n        /* \"#utility.yul\":22760:22785   */\n      swap2\n      pop\n        /* \"#utility.yul\":22673:22791   */\n      pop\n        /* \"#utility.yul\":22622:22791   */\n      swap3\n      swap2\n      pop\n      pop\n      jump\t// out\n        /* \"#utility.yul\":22796:23091   */\n    tag_261:\n        /* \"#utility.yul\":22872:22876   */\n      0x00\n        /* \"#utility.yul\":23018:23047   */\n      tag_498\n        /* \"#utility.yul\":23043:23046   */\n      dup4\n        /* \"#utility.yul\":23037:23041   */\n      dup4\n        /* \"#utility.yul\":23018:23047   */\n      tag_260\n      jump\t// in\n    tag_498:\n        /* \"#utility.yul\":23010:23047   */\n      swap2\n      pop\n        /* \"#utility.yul\":23080:23083   */\n      dup3\n        /* \"#utility.yul\":23077:23078   */\n      0x02\n        /* \"#utility.yul\":23073:23084   */\n      mul\n        /* \"#utility.yul\":23067:23071   */\n      dup3\n        /* \"#utility.yul\":23064:23085   */\n      or\n        /* \"#utility.yul\":23056:23085   */\n      swap1\n      pop\n        /* \"#utility.yul\":22796:23091   */\n      swap3\n      swap2\n      pop\n      pop\n      jump\t// out\n        /* \"#utility.yul\":23096:24491   */\n    tag_172:\n        /* \"#utility.yul\":23213:23250   */\n      tag_500\n        /* \"#utility.yul\":23246:23249   */\n      dup3\n        /* \"#utility.yul\":23213:23250   */\n      tag_211\n      jump\t// in\n    tag_500:\n        /* \"#utility.yul\":23315:23333   */\n      0xffffffffffffffff\n        /* \"#utility.yul\":23307:23313   */\n      dup2\n        /* \"#utility.yul\":23304:23334   */\n      gt\n        /* \"#utility.yul\":23301:23357   */\n      iszero\n      tag_501\n      jumpi\n        /* \"#utility.yul\":23337:23355   */\n      tag_502\n      tag_147\n      jump\t// in\n    tag_502:\n        /* \"#utility.yul\":23301:23357   */\n    tag_501:\n        /* \"#utility.yul\":23381:23419   */\n      tag_503\n        /* \"#utility.yul\":23413:23417   */\n      dup3\n        /* \"#utility.yul\":23407:23418   */\n      sload\n        /* \"#utility.yul\":23381:23419   */\n      tag_139\n      jump\t// in\n    tag_503:\n        /* \"#utility.yul\":23466:23533   */\n      tag_504\n        /* \"#utility.yul\":23526:23532   */\n      dup3\n        /* \"#utility.yul\":23518:23524   */\n      dup3\n        /* \"#utility.yul\":23512:23516   */\n      dup6\n        /* \"#utility.yul\":23466:23533   */\n      tag_258\n      jump\t// in\n    tag_504:\n        /* \"#utility.yul\":23560:23561   */\n      0x00\n        /* \"#utility.yul\":23584:23588   */\n      0x20\n        /* \"#utility.yul\":23571:23588   */\n      swap1\n      pop\n        /* \"#utility.yul\":23616:23618   */\n      0x1f\n        /* \"#utility.yul\":23608:23614   */\n      dup4\n        /* \"#utility.yul\":23605:23619   */\n      gt\n        /* \"#utility.yul\":23633:23634   */\n      0x01\n        /* \"#utility.yul\":23628:24246   */\n      dup2\n      eq\n      tag_506\n      jumpi\n        /* \"#utility.yul\":24290:24291   */\n      0x00\n        /* \"#utility.yul\":24307:24313   */\n      dup5\n        /* \"#utility.yul\":24304:24381   */\n      iszero\n      tag_507\n      jumpi\n        /* \"#utility.yul\":24356:24365   */\n      dup3\n        /* \"#utility.yul\":24351:24354   */\n      dup8\n        /* \"#utility.yul\":24347:24366   */\n      add\n        /* \"#utility.yul\":24341:24367   */\n      mload\n        /* \"#utility.yul\":24332:24367   */\n      swap1\n      pop\n        /* \"#utility.yul\":24304:24381   */\n    tag_507:\n        /* \"#utility.yul\":24407:24474   */\n      tag_508\n        /* \"#utility.yul\":24467:24473   */\n      dup6\n        /* \"#utility.yul\":24460:24465   */\n      dup3\n        /* \"#utility.yul\":24407:24474   */\n      tag_261\n      jump\t// in\n    tag_508:\n        /* \"#utility.yul\":24401:24405   */\n      dup7\n        /* \"#utility.yul\":24394:24475   */\n      sstore\n        /* \"#utility.yul\":24263:24485   */\n      pop\n        /* \"#utility.yul\":23598:24485   */\n      jump(tag_505)\n        /* \"#utility.yul\":23628:24246   */\n    tag_506:\n        /* \"#utility.yul\":23680:23684   */\n      0x1f\n        /* \"#utility.yul\":23676:23685   */\n      not\n        /* \"#utility.yul\":23668:23674   */\n      dup5\n        /* \"#utility.yul\":23664:23686   */\n      and\n        /* \"#utility.yul\":23714:23751   */\n      tag_509\n        /* \"#utility.yul\":23746:23750   */\n      dup7\n        /* \"#utility.yul\":23714:23751   */\n      tag_247\n      jump\t// in\n    tag_509:\n        /* \"#utility.yul\":23773:23774   */\n      0x00\n        /* \"#utility.yul\":23787:23995   */\n    tag_510:\n        /* \"#utility.yul\":23801:23808   */\n      dup3\n        /* \"#utility.yul\":23798:23799   */\n      dup2\n        /* \"#utility.yul\":23795:23809   */\n      lt\n        /* \"#utility.yul\":23787:23995   */\n      iszero\n      tag_512\n      jumpi\n        /* \"#utility.yul\":23880:23889   */\n      dup5\n        /* \"#utility.yul\":23875:23878   */\n      dup10\n        /* \"#utility.yul\":23871:23890   */\n      add\n        /* \"#utility.yul\":23865:23891   */\n      mload\n        /* \"#utility.yul\":23857:23863   */\n      dup3\n        /* \"#utility.yul\":23850:23892   */\n      sstore\n        /* \"#utility.yul\":23931:23932   */\n      0x01\n        /* \"#utility.yul\":23923:23929   */\n      dup3\n        /* \"#utility.yul\":23919:23933   */\n      add\n        /* \"#utility.yul\":23909:23933   */\n      swap2\n      pop\n        /* \"#utility.yul\":23978:23980   */\n      0x20\n        /* \"#utility.yul\":23967:23976   */\n      dup6\n        /* \"#utility.yul\":23963:23981   */\n      add\n        /* \"#utility.yul\":23950:23981   */\n      swap5\n      pop\n        /* \"#utility.yul\":23824:23828   */\n      0x20\n        /* \"#utility.yul\":23821:23822   */\n      dup2\n        /* \"#utility.yul\":23817:23829   */\n      add\n        /* \"#utility.yul\":23812:23829   */\n      swap1\n      pop\n        /* \"#utility.yul\":23787:23995   */\n      jump(tag_510)\n    tag_512:\n        /* \"#utility.yul\":24023:24029   */\n      dup7\n        /* \"#utility.yul\":24014:24021   */\n      dup4\n        /* \"#utility.yul\":24011:24030   */\n      lt\n        /* \"#utility.yul\":24008:24187   */\n      iszero\n      tag_513\n      jumpi\n        /* \"#utility.yul\":24081:24090   */\n      dup5\n        /* \"#utility.yul\":24076:24079   */\n      dup10\n        /* \"#utility.yul\":24072:24091   */\n      add\n        /* \"#utility.yul\":24066:24092   */\n      mload\n        /* \"#utility.yul\":24124:24172   */\n      tag_514\n        /* \"#utility.yul\":24166:24170   */\n      0x1f\n        /* \"#utility.yul\":24158:24164   */\n      dup10\n        /* \"#utility.yul\":24154:24171   */\n      and\n        /* \"#utility.yul\":24143:24152   */\n      dup3\n        /* \"#utility.yul\":24124:24172   */\n      tag_260\n      jump\t// in\n    tag_514:\n        /* \"#utility.yul\":24116:24122   */\n      dup4\n        /* \"#utility.yul\":24109:24173   */\n      sstore\n        /* \"#utility.yul\":24031:24187   */\n      pop\n        /* \"#utility.yul\":24008:24187   */\n    tag_513:\n        /* \"#utility.yul\":24233:24234   */\n      0x01\n        /* \"#utility.yul\":24229:24230   */\n      0x02\n        /* \"#utility.yul\":24221:24227   */\n      dup9\n        /* \"#utility.yul\":24217:24231   */\n      mul\n        /* \"#utility.yul\":24213:24235   */\n      add\n        /* \"#utility.yul\":24207:24211   */\n      dup9\n        /* \"#utility.yul\":24200:24236   */\n      sstore\n        /* \"#utility.yul\":23635:24246   */\n      pop\n      pop\n      pop\n        /* \"#utility.yul\":23598:24485   */\n    tag_505:\n      pop\n        /* \"#utility.yul\":23188:24491   */\n      pop\n      pop\n      pop\n        /* \"#utility.yul\":23096:24491   */\n      pop\n      pop\n      jump\t// out\n        /* \"#utility.yul\":24497:24645   */\n    tag_262:\n        /* \"#utility.yul\":24599:24610   */\n      0x00\n        /* \"#utility.yul\":24636:24639   */\n      dup2\n        /* \"#utility.yul\":24621:24639   */\n      swap1\n      pop\n        /* \"#utility.yul\":24497:24645   */\n      swap3\n      swap2\n      pop\n      pop\n      jump\t// out\n        /* \"#utility.yul\":24651:25041   */\n    tag_263:\n        /* \"#utility.yul\":24757:24760   */\n      0x00\n        /* \"#utility.yul\":24785:24824   */\n      tag_517\n        /* \"#utility.yul\":24818:24823   */\n      dup3\n        /* \"#utility.yul\":24785:24824   */\n      tag_211\n      jump\t// in\n    tag_517:\n        /* \"#utility.yul\":24840:24929   */\n      tag_518\n        /* \"#utility.yul\":24922:24928   */\n      dup2\n        /* \"#utility.yul\":24917:24920   */\n      dup6\n        /* \"#utility.yul\":24840:24929   */\n      tag_262\n      jump\t// in\n    tag_518:\n        /* \"#utility.yul\":24833:24929   */\n      swap4\n      pop\n        /* \"#utility.yul\":24938:25003   */\n      tag_519\n        /* \"#utility.yul\":24996:25002   */\n      dup2\n        /* \"#utility.yul\":24991:24994   */\n      dup6\n        /* \"#utility.yul\":24984:24988   */\n      0x20\n        /* \"#utility.yul\":24977:24982   */\n      dup7\n        /* \"#utility.yul\":24973:24989   */\n      add\n        /* \"#utility.yul\":24938:25003   */\n      tag_213\n      jump\t// in\n    tag_519:\n        /* \"#utility.yul\":25028:25034   */\n      dup1\n        /* \"#utility.yul\":25023:25026   */\n      dup5\n        /* \"#utility.yul\":25019:25035   */\n      add\n        /* \"#utility.yul\":25012:25035   */\n      swap2\n      pop\n        /* \"#utility.yul\":24761:25041   */\n      pop\n        /* \"#utility.yul\":24651:25041   */\n      swap3\n      swap2\n      pop\n      pop\n      jump\t// out\n        /* \"#utility.yul\":25047:25322   */\n    tag_175:\n        /* \"#utility.yul\":25179:25182   */\n      0x00\n        /* \"#utility.yul\":25201:25296   */\n      tag_521\n        /* \"#utility.yul\":25292:25295   */\n      dup3\n        /* \"#utility.yul\":25283:25289   */\n      dup5\n        /* \"#utility.yul\":25201:25296   */\n      tag_263\n      jump\t// in\n    tag_521:\n        /* \"#utility.yul\":25194:25296   */\n      swap2\n      pop\n        /* \"#utility.yul\":25313:25316   */\n      dup2\n        /* \"#utility.yul\":25306:25316   */\n      swap1\n      pop\n        /* \"#utility.yul\":25047:25322   */\n      swap3\n      swap2\n      pop\n      pop\n      jump\t// out\n        /* \"#utility.yul\":25328:25508   */\n    tag_264:\n        /* \"#utility.yul\":25376:25453   */\n      0x4e487b7100000000000000000000000000000000000000000000000000000000\n        /* \"#utility.yul\":25373:25374   */\n      0x00\n        /* \"#utility.yul\":25366:25454   */\n      mstore\n        /* \"#utility.yul\":25473:25477   */\n      0x12\n        /* \"#utility.yul\":25470:25471   */\n      0x04\n        /* \"#utility.yul\":25463:25478   */\n      mstore\n        /* \"#utility.yul\":25497:25501   */\n      0x24\n        /* \"#utility.yul\":25494:25495   */\n      0x00\n        /* \"#utility.yul\":25487:25502   */\n      revert\n        /* \"#utility.yul\":25514:25690   */\n    tag_180:\n        /* \"#utility.yul\":25546:25547   */\n      0x00\n        /* \"#utility.yul\":25563:25583   */\n      tag_524\n        /* \"#utility.yul\":25581:25582   */\n      dup3\n        /* \"#utility.yul\":25563:25583   */\n      tag_192\n      jump\t// in\n    tag_524:\n        /* \"#utility.yul\":25558:25583   */\n      swap2\n      pop\n        /* \"#utility.yul\":25597:25617   */\n      tag_525\n        /* \"#utility.yul\":25615:25616   */\n      dup4\n        /* \"#utility.yul\":25597:25617   */\n      tag_192\n      jump\t// in\n    tag_525:\n        /* \"#utility.yul\":25592:25617   */\n      swap3\n      pop\n        /* \"#utility.yul\":25636:25637   */\n      dup3\n        /* \"#utility.yul\":25626:25661   */\n      tag_526\n      jumpi\n        /* \"#utility.yul\":25641:25659   */\n      tag_527\n      tag_264\n      jump\t// in\n    tag_527:\n        /* \"#utility.yul\":25626:25661   */\n    tag_526:\n        /* \"#utility.yul\":25682:25683   */\n      dup3\n        /* \"#utility.yul\":25679:25680   */\n      dup3\n        /* \"#utility.yul\":25675:25684   */\n      mod\n        /* \"#utility.yul\":25670:25684   */\n      swap1\n      pop\n        /* \"#utility.yul\":25514:25690   */\n      swap3\n      swap2\n      pop\n      pop\n      jump\t// out\n        /* \"#utility.yul\":25696:25876   */\n    tag_265:\n        /* \"#utility.yul\":25744:25821   */\n      0x4e487b7100000000000000000000000000000000000000000000000000000000\n        /* \"#utility.yul\":25741:25742   */\n      0x00\n        /* \"#utility.yul\":25734:25822   */\n      mstore\n        /* \"#utility.yul\":25841:25845   */\n      0x11\n        /* \"#utility.yul\":25838:25839   */\n      0x04\n        /* \"#utility.yul\":25831:25846   */\n      mstore\n        /* \"#utility.yul\":25865:25869   */\n      0x24\n        /* \"#utility.yul\":25862:25863   */\n      0x00\n        /* \"#utility.yul\":25855:25870   */\n      revert\n        /* \"#utility.yul\":25882:26073   */\n    tag_182:\n        /* \"#utility.yul\":25922:25925   */\n      0x00\n        /* \"#utility.yul\":25941:25961   */\n      tag_530\n        /* \"#utility.yul\":25959:25960   */\n      dup3\n        /* \"#utility.yul\":25941:25961   */\n      tag_192\n      jump\t// in\n    tag_530:\n        /* \"#utility.yul\":25936:25961   */\n      swap2\n      pop\n        /* \"#utility.yul\":25975:25995   */\n      tag_531\n        /* \"#utility.yul\":25993:25994   */\n      dup4\n        /* \"#utility.yul\":25975:25995   */\n      tag_192\n      jump\t// in\n    tag_531:\n        /* \"#utility.yul\":25970:25995   */\n      swap3\n      pop\n        /* \"#utility.yul\":26018:26019   */\n      dup3\n        /* \"#utility.yul\":26015:26016   */\n      dup3\n        /* \"#utility.yul\":26011:26020   */\n      add\n        /* \"#utility.yul\":26004:26020   */\n      swap1\n      pop\n        /* \"#utility.yul\":26039:26042   */\n      dup1\n        /* \"#utility.yul\":26036:26037   */\n      dup3\n        /* \"#utility.yul\":26033:26043   */\n      gt\n        /* \"#utility.yul\":26030:26066   */\n      iszero\n      tag_532\n      jumpi\n        /* \"#utility.yul\":26046:26064   */\n      tag_533\n      tag_265\n      jump\t// in\n    tag_533:\n        /* \"#utility.yul\":26030:26066   */\n    tag_532:\n        /* \"#utility.yul\":25882:26073   */\n      swap3\n      swap2\n      pop\n      pop\n      jump\t// out\n        /* \"#utility.yul\":26079:26276   */\n    tag_184:\n        /* \"#utility.yul\":26118:26121   */\n      0x00\n        /* \"#utility.yul\":26137:26156   */\n      tag_535\n        /* \"#utility.yul\":26154:26155   */\n      dup3\n        /* \"#utility.yul\":26137:26156   */\n      tag_203\n      jump\t// in\n    tag_535:\n        /* \"#utility.yul\":26132:26156   */\n      swap2\n      pop\n        /* \"#utility.yul\":26170:26189   */\n      tag_536\n        /* \"#utility.yul\":26187:26188   */\n      dup4\n        /* \"#utility.yul\":26170:26189   */\n      tag_203\n      jump\t// in\n    tag_536:\n        /* \"#utility.yul\":26165:26189   */\n      swap3\n      pop\n        /* \"#utility.yul\":26212:26213   */\n      dup3\n        /* \"#utility.yul\":26209:26210   */\n      dup3\n        /* \"#utility.yul\":26205:26214   */\n      add\n        /* \"#utility.yul\":26198:26214   */\n      swap1\n      pop\n        /* \"#utility.yul\":26235:26245   */\n      0xffffffff\n        /* \"#utility.yul\":26230:26233   */\n      dup2\n        /* \"#utility.yul\":26227:26246   */\n      gt\n        /* \"#utility.yul\":26224:26269   */\n      iszero\n      tag_537\n      jumpi\n        /* \"#utility.yul\":26249:26267   */\n      tag_538\n      tag_265\n      jump\t// in\n    tag_538:\n        /* \"#utility.yul\":26224:26269   */\n    tag_537:\n        /* \"#utility.yul\":26079:26276   */\n      swap3\n      swap2\n      pop\n      pop\n      jump\t// out\n\n    auxdata: 0xa2646970667358221220ff66eebc925c97f73743df6f31e96e4d673195dab9f2cf0f107d7c07debf1ef864736f6c63430008130033\n}\n",
				"bytecode": {
					"linkReferences": {},
					"object": "6101606040523480156200001257600080fd5b506040516200254738038062002547833981810160405281019062000038919062000277565b838073ffffffffffffffffffffffffffffffffffffffff1660808173ffffffffffffffffffffffffffffffffffffffff1681525050508373ffffffffffffffffffffffffffffffffffffffff1660a08173ffffffffffffffffffffffffffffffffffffffff16815250508467ffffffffffffffff1660c08167ffffffffffffffff16815250508260e081815250508163ffffffff166101008163ffffffff16815250508061ffff166101208161ffff1681525050600163ffffffff166101408163ffffffff16815250505050505050620002ff565b600080fd5b600067ffffffffffffffff82169050919050565b620001318162000112565b81146200013d57600080fd5b50565b600081519050620001518162000126565b92915050565b600073ffffffffffffffffffffffffffffffffffffffff82169050919050565b6000620001848262000157565b9050919050565b620001968162000177565b8114620001a257600080fd5b50565b600081519050620001b6816200018b565b92915050565b6000819050919050565b620001d181620001bc565b8114620001dd57600080fd5b50565b600081519050620001f181620001c6565b92915050565b600063ffffffff82169050919050565b6200021281620001f7565b81146200021e57600080fd5b50565b600081519050620002328162000207565b92915050565b600061ffff82169050919050565b620002518162000238565b81146200025d57600080fd5b50565b600081519050620002718162000246565b92915050565b600080600080600060a086880312156200029657620002956200010d565b5b6000620002a68882890162000140565b9550506020620002b988828901620001a5565b9450506040620002cc88828901620001e0565b9350506060620002df8882890162000221565b9250506080620002f28882890162000260565b9150509295509295909350565b60805160a05160c05160e0516101005161012051610140516121e6620003616000396000610925015260006108e301526000610904015260006108a1015260006108c20152600061086501526000818161012f015261018301526121e66000f3fe608060405234801561001057600080fd5b50600436106100625760003560e01c80631fe543e3146100675780632f0c2c7c14610083578063c7b3c11e146100b5578063d47875d0146100bf578063efa1c482146100f3578063f2c298be14610111575b600080fd5b610081600480360381019061007c9190611577565b61012d565b005b61009d6004803603810190610098919061160f565b6101ed565b6040516100ac9392919061164b565b60405180910390f35b6100bd6106de565b005b6100d960048036038101906100d491906116e0565b610a41565b6040516100ea95949392919061178c565b60405180910390f35b6100fb610c08565b60405161010891906119a5565b60405180910390f35b61012b60048036038101906101269190611a7c565b610e75565b005b7f000000000000000000000000000000000000000000000000000000000000000073ffffffffffffffffffffffffffffffffffffffff163373ffffffffffffffffffffffffffffffffffffffff16146101df57337f00000000000000000000000000000000000000000000000000000000000000006040517f1cf993f40000000000000000000000000000000000000000000000000000000081526004016101d6929190611ad4565b60405180910390fd5b6101e98282611013565b5050565b6000806000808463ffffffff160361020f5760008060009250925092506106d7565b60018463ffffffff160361022d57600a6000809250925092506106d7565b60028463ffffffff160361024c576000600a60009250925092506106d7565b60038463ffffffff160361026a57600080600a9250925092506106d7565b60048463ffffffff160361028857600a8060009250925092506106d7565b60058463ffffffff16036102a757600a6000600a9250925092506106d7565b60068463ffffffff16036102c5576000600a809250925092506106d7565b60078463ffffffff16036102e357600a80600a9250925092506106d7565b60088463ffffffff160361030157600a6000809250925092506106d7565b60098463ffffffff1603610320576000600a60009250925092506106d7565b600a8463ffffffff160361033e57600080600a9250925092506106d7565b600b8463ffffffff160361035c57600a8060009250925092506106d7565b600c8463ffffffff160361037b57600a6000600a9250925092506106d7565b600d8463ffffffff1603610399576000600a809250925092506106d7565b600e8463ffffffff16036103b757600a80600a9250925092506106d7565b600f8463ffffffff16036103d557600a6000809250925092506106d7565b60108463ffffffff16036103f4576000600a60009250925092506106d7565b60118463ffffffff160361041257600080600a9250925092506106d7565b60128463ffffffff160361043057600a8060009250925092506106d7565b60138463ffffffff160361044f57600a6000600a9250925092506106d7565b60148463ffffffff160361046d576000600a809250925092506106d7565b60158463ffffffff160361048b57600a80600a9250925092506106d7565b60168463ffffffff16036104a957600a6000809250925092506106d7565b60178463ffffffff16036104c8576000600a60009250925092506106d7565b60188463ffffffff16036104e657600080600a9250925092506106d7565b60198463ffffffff160361050457600a8060009250925092506106d7565b601a8463ffffffff160361052357600a6000600a9250925092506106d7565b601b8463ffffffff1603610541576000600a809250925092506106d7565b601c8463ffffffff160361055f57600a80600a9250925092506106d7565b601d8463ffffffff160361057d57600a6000809250925092506106d7565b601e8463ffffffff160361059c576000600a60009250925092506106d7565b601f8463ffffffff16036105ba57600080600a9250925092506106d7565b60208463ffffffff16036105d857600a8060009250925092506106d7565b60218463ffffffff16036105f757600a6000600a9250925092506106d7565b60228463ffffffff1603610615576000600a809250925092506106d7565b60238463ffffffff160361063357600a80600a9250925092506106d7565b60248463ffffffff160361065157600a6000809250925092506106d7565b60258463ffffffff1603610670576000600a60009250925092506106d7565b60268463ffffffff160361068e57600080600a9250925092506106d7565b60278463ffffffff16036106ac57600a8060009250925092506106d7565b60288463ffffffff16036106cb57600a6000600a9250925092506106d7565b60008060009250925092505b9193909250565b6000803373ffffffffffffffffffffffffffffffffffffffff1673ffffffffffffffffffffffffffffffffffffffff16815260200190815260200160002060000160109054906101000a900460ff161561076d576040517f08c379a000000000000000000000000000000000000000000000000000000000815260040161076490611b6f565b60405180910390fd5b60286000803373ffffffffffffffffffffffffffffffffffffffff1673ffffffffffffffffffffffffffffffffffffffff16815260200190815260200160002060000160009054906101000a900463ffffffff1663ffffffff1610610807576040517f08c379a00000000000000000000000000000000000000000000000000000000081526004016107fe90611bdb565b60405180910390fd5b60016000803373ffffffffffffffffffffffffffffffffffffffff1673ffffffffffffffffffffffffffffffffffffffff16815260200190815260200160002060000160106101000a81548160ff02191690831515021790555060007f000000000000000000000000000000000000000000000000000000000000000073ffffffffffffffffffffffffffffffffffffffff16635d3b1d307f00000000000000000000000000000000000000000000000000000000000000007f00000000000000000000000000000000000000000000000000000000000000007f00000000000000000000000000000000000000000000000000000000000000007f00000000000000000000000000000000000000000000000000000000000000007f00000000000000000000000000000000000000000000000000000000000000006040518663ffffffff1660e01b8152600401610964959493929190611c54565b6020604051808303816000875af1158015610983573d6000803e3d6000fd5b505050506040513d601f19601f820116820180604052508101906109a79190611cbc565b9050336001600083815260200190815260200160002060006101000a81548173ffffffffffffffffffffffffffffffffffffffff021916908373ffffffffffffffffffffffffffffffffffffffff1602179055503373ffffffffffffffffffffffffffffffffffffffff167f41d1a459ab67bcb3138612c208da7ec5021c56ce9ffe7b8b209159f3446e1e9d60405160405180910390a250565b600080600080606060008060008873ffffffffffffffffffffffffffffffffffffffff1673ffffffffffffffffffffffffffffffffffffffff1681526020019081526020016000206040518060c00160405290816000820160009054906101000a900463ffffffff1663ffffffff1663ffffffff1681526020016000820160049054906101000a900463ffffffff1663ffffffff1663ffffffff1681526020016000820160089054906101000a900463ffffffff1663ffffffff1663ffffffff16815260200160008201600c9054906101000a900463ffffffff1663ffffffff1663ffffffff1681526020016000820160109054906101000a900460ff16151515158152602001600182018054610b5790611d18565b80601f0160208091040260200160405190810160405280929190818152602001828054610b8390611d18565b8015610bd05780601f10610ba557610100808354040283529160200191610bd0565b820191906000526020600020905b815481529060010190602001808311610bb357829003601f168201915b505050505081525050905080602001518160400151826060015183600001518460a00151955095509550955095505091939590929450565b60606000600280549050905060008167ffffffffffffffff811115610c3057610c2f611434565b5b604051908082528060200260200182016040528015610c6957816020015b610c56611384565b815260200190600190039081610c4e5790505b50905060005b82811015610e6c5760008060028381548110610c8e57610c8d611d49565b5b9060005260206000200160009054906101000a900473ffffffffffffffffffffffffffffffffffffffff1673ffffffffffffffffffffffffffffffffffffffff1673ffffffffffffffffffffffffffffffffffffffff1681526020019081526020016000206040518060c00160405290816000820160009054906101000a900463ffffffff1663ffffffff1663ffffffff1681526020016000820160049054906101000a900463ffffffff1663ffffffff1663ffffffff1681526020016000820160089054906101000a900463ffffffff1663ffffffff1663ffffffff16815260200160008201600c9054906101000a900463ffffffff1663ffffffff1663ffffffff1681526020016000820160109054906101000a900460ff16151515158152602001600182018054610dc190611d18565b80601f0160208091040260200160405190810160405280929190818152602001828054610ded90611d18565b8015610e3a5780601f10610e0f57610100808354040283529160200191610e3a565b820191906000526020600020905b815481529060010190602001808311610e1d57829003601f168201915b505050505081525050828281518110610e5657610e55611d49565b5b6020026020010181905250806001019050610c6f565b50809250505090565b60008060003373ffffffffffffffffffffffffffffffffffffffff1673ffffffffffffffffffffffffffffffffffffffff1681526020019081526020016000206001018054610ec390611d18565b905014610f05576040517f08c379a0000000000000000000000000000000000000000000000000000000008152600401610efc90611dc4565b60405180910390fd5b806000803373ffffffffffffffffffffffffffffffffffffffff1673ffffffffffffffffffffffffffffffffffffffff1681526020019081526020016000206001019081610f539190611f90565b506002339080600181540180825580915050600190039060005260206000200160009091909190916101000a81548173ffffffffffffffffffffffffffffffffffffffff021916908373ffffffffffffffffffffffffffffffffffffffff16021790555080604051610fc5919061209e565b60405180910390203373ffffffffffffffffffffffffffffffffffffffff167f81ef79d1cda814a60c0fc60792e648a06d9c6bae67176346d1cc8b63030bfccd60405160405180910390a350565b6000600160068360008151811061102d5761102c611d49565b5b602002602001015161103f91906120e4565b6110499190612144565b905060006001600085815260200190815260200160002060009054906101000a900473ffffffffffffffffffffffffffffffffffffffff169050816000808373ffffffffffffffffffffffffffffffffffffffff1673ffffffffffffffffffffffffffffffffffffffff16815260200190815260200160002060000160008282829054906101000a900463ffffffff166110e39190612178565b92506101000a81548163ffffffff021916908363ffffffff16021790555060008060006111606000808673ffffffffffffffffffffffffffffffffffffffff1673ffffffffffffffffffffffffffffffffffffffff16815260200190815260200160002060000160009054906101000a900463ffffffff166101ed565b925092509250826000808673ffffffffffffffffffffffffffffffffffffffff1673ffffffffffffffffffffffffffffffffffffffff16815260200190815260200160002060000160048282829054906101000a900463ffffffff166111c69190612178565b92506101000a81548163ffffffff021916908363ffffffff160217905550816000808673ffffffffffffffffffffffffffffffffffffffff1673ffffffffffffffffffffffffffffffffffffffff16815260200190815260200160002060000160088282829054906101000a900463ffffffff166112449190612178565b92506101000a81548163ffffffff021916908363ffffffff160217905550806000808673ffffffffffffffffffffffffffffffffffffffff1673ffffffffffffffffffffffffffffffffffffffff168152602001908152602001600020600001600c8282829054906101000a900463ffffffff166112c29190612178565b92506101000a81548163ffffffff021916908363ffffffff1602179055506000808573ffffffffffffffffffffffffffffffffffffffff1673ffffffffffffffffffffffffffffffffffffffff16815260200190815260200160002060000160009054906101000a900463ffffffff1663ffffffff163373ffffffffffffffffffffffffffffffffffffffff167f31141dd41deaf78e87c4165bec72fd6162afc0f21b75cc969cf032611285b38660405160405180910390a350505050505050565b6040518060c00160405280600063ffffffff168152602001600063ffffffff168152602001600063ffffffff168152602001600063ffffffff168152602001600015158152602001606081525090565b6000604051905090565b600080fd5b600080fd5b6000819050919050565b6113fb816113e8565b811461140657600080fd5b50565b600081359050611418816113f2565b92915050565b600080fd5b6000601f19601f8301169050919050565b7f4e487b7100000000000000000000000000000000000000000000000000000000600052604160045260246000fd5b61146c82611423565b810181811067ffffffffffffffff8211171561148b5761148a611434565b5b80604052505050565b600061149e6113d4565b90506114aa8282611463565b919050565b600067ffffffffffffffff8211156114ca576114c9611434565b5b602082029050602081019050919050565b600080fd5b60006114f36114ee846114af565b611494565b90508083825260208201905060208402830185811115611516576115156114db565b5b835b8181101561153f578061152b8882611409565b845260208401935050602081019050611518565b5050509392505050565b600082601f83011261155e5761155d61141e565b5b813561156e8482602086016114e0565b91505092915050565b6000806040838503121561158e5761158d6113de565b5b600061159c85828601611409565b925050602083013567ffffffffffffffff8111156115bd576115bc6113e3565b5b6115c985828601611549565b9150509250929050565b600063ffffffff82169050919050565b6115ec816115d3565b81146115f757600080fd5b50565b600081359050611609816115e3565b92915050565b600060208284031215611625576116246113de565b5b6000611633848285016115fa565b91505092915050565b611645816115d3565b82525050565b6000606082019050611660600083018661163c565b61166d602083018561163c565b61167a604083018461163c565b949350505050565b600073ffffffffffffffffffffffffffffffffffffffff82169050919050565b60006116ad82611682565b9050919050565b6116bd816116a2565b81146116c857600080fd5b50565b6000813590506116da816116b4565b92915050565b6000602082840312156116f6576116f56113de565b5b6000611704848285016116cb565b91505092915050565b600081519050919050565b600082825260208201905092915050565b60005b8381101561174757808201518184015260208101905061172c565b60008484015250505050565b600061175e8261170d565b6117688185611718565b9350611778818560208601611729565b61178181611423565b840191505092915050565b600060a0820190506117a1600083018861163c565b6117ae602083018761163c565b6117bb604083018661163c565b6117c8606083018561163c565b81810360808301526117da8184611753565b90509695505050505050565b600081519050919050565b600082825260208201905092915050565b6000819050602082019050919050565b61181b816115d3565b82525050565b60008115159050919050565b61183681611821565b82525050565b600082825260208201905092915050565b60006118588261170d565b611862818561183c565b9350611872818560208601611729565b61187b81611423565b840191505092915050565b600060c08301600083015161189e6000860182611812565b5060208301516118b16020860182611812565b5060408301516118c46040860182611812565b5060608301516118d76060860182611812565b5060808301516118ea608086018261182d565b5060a083015184820360a0860152611902828261184d565b9150508091505092915050565b600061191b8383611886565b905092915050565b6000602082019050919050565b600061193b826117e6565b61194581856117f1565b93508360208202850161195785611802565b8060005b858110156119935784840389528151611974858261190f565b945061197f83611923565b925060208a0199505060018101905061195b565b50829750879550505050505092915050565b600060208201905081810360008301526119bf8184611930565b905092915050565b600080fd5b600067ffffffffffffffff8211156119e7576119e6611434565b5b6119f082611423565b9050602081019050919050565b82818337600083830152505050565b6000611a1f611a1a846119cc565b611494565b905082815260208101848484011115611a3b57611a3a6119c7565b5b611a468482856119fd565b509392505050565b600082601f830112611a6357611a6261141e565b5b8135611a73848260208601611a0c565b91505092915050565b600060208284031215611a9257611a916113de565b5b600082013567ffffffffffffffff811115611ab057611aaf6113e3565b5b611abc84828501611a4e565b91505092915050565b611ace816116a2565b82525050565b6000604082019050611ae96000830185611ac5565b611af66020830184611ac5565b9392505050565b7f596f75722070726576696f7573207475726e206973207374696c6c20696e207060008201527f726f677265737300000000000000000000000000000000000000000000000000602082015250565b6000611b59602783611718565b9150611b6482611afd565b604082019050919050565b60006020820190508181036000830152611b8881611b4c565b9050919050565b7f47616d65206f7665720000000000000000000000000000000000000000000000600082015250565b6000611bc5600983611718565b9150611bd082611b8f565b602082019050919050565b60006020820190508181036000830152611bf481611bb8565b9050919050565b6000819050919050565b611c0e81611bfb565b82525050565b600067ffffffffffffffff82169050919050565b611c3181611c14565b82525050565b600061ffff82169050919050565b611c4e81611c37565b82525050565b600060a082019050611c696000830188611c05565b611c766020830187611c28565b611c836040830186611c45565b611c90606083018561163c565b611c9d608083018461163c565b9695505050505050565b600081519050611cb6816113f2565b92915050565b600060208284031215611cd257611cd16113de565b5b6000611ce084828501611ca7565b91505092915050565b7f4e487b7100000000000000000000000000000000000000000000000000000000600052602260045260246000fd5b60006002820490506001821680611d3057607f821691505b602082108103611d4357611d42611ce9565b5b50919050565b7f4e487b7100000000000000000000000000000000000000000000000000000000600052603260045260246000fd5b7f416c726561647920726567697374657265640000000000000000000000000000600082015250565b6000611dae601283611718565b9150611db982611d78565b602082019050919050565b60006020820190508181036000830152611ddd81611da1565b9050919050565b60008190508160005260206000209050919050565b60006020601f8301049050919050565b600082821b905092915050565b600060088302611e467fffffffffffffffffffffffffffffffffffffffffffffffffffffffffffffffff82611e09565b611e508683611e09565b95508019841693508086168417925050509392505050565b6000819050919050565b6000611e8d611e88611e83846113e8565b611e68565b6113e8565b9050919050565b6000819050919050565b611ea783611e72565b611ebb611eb382611e94565b848454611e16565b825550505050565b600090565b611ed0611ec3565b611edb818484611e9e565b505050565b5b81811015611eff57611ef4600082611ec8565b600181019050611ee1565b5050565b601f821115611f4457611f1581611de4565b611f1e84611df9565b81016020851015611f2d578190505b611f41611f3985611df9565b830182611ee0565b50505b505050565b600082821c905092915050565b6000611f6760001984600802611f49565b1980831691505092915050565b6000611f808383611f56565b9150826002028217905092915050565b611f998261170d565b67ffffffffffffffff811115611fb257611fb1611434565b5b611fbc8254611d18565b611fc7828285611f03565b600060209050601f831160018114611ffa5760008415611fe8578287015190505b611ff28582611f74565b86555061205a565b601f19841661200886611de4565b60005b828110156120305784890151825560018201915060208501945060208101905061200b565b8683101561204d5784890151612049601f891682611f56565b8355505b6001600288020188555050505b505050505050565b600081905092915050565b60006120788261170d565b6120828185612062565b9350612092818560208601611729565b80840191505092915050565b60006120aa828461206d565b915081905092915050565b7f4e487b7100000000000000000000000000000000000000000000000000000000600052601260045260246000fd5b60006120ef826113e8565b91506120fa836113e8565b92508261210a576121096120b5565b5b828206905092915050565b7f4e487b7100000000000000000000000000000000000000000000000000000000600052601160045260246000fd5b600061214f826113e8565b915061215a836113e8565b925082820190508082111561217257612171612115565b5b92915050565b6000612183826115d3565b915061218e836115d3565b9250828201905063ffffffff8111156121aa576121a9612115565b5b9291505056fea2646970667358221220ff66eebc925c97f73743df6f31e96e4d673195dab9f2cf0f107d7c07debf1ef864736f6c63430008130033",
					"opcodes": "PUSH2 0x160 PUSH1 0x40 MSTORE CALLVALUE DUP1 ISZERO PUSH3 0x12 JUMPI PUSH1 0x0 DUP1 REVERT JUMPDEST POP PUSH1 0x40 MLOAD PUSH3 0x2547 CODESIZE SUB DUP1 PUSH3 0x2547 DUP4 CODECOPY DUP2 DUP2 ADD PUSH1 0x40 MSTORE DUP2 ADD SWAP1 PUSH3 0x38 SWAP2 SWAP1 PUSH3 0x277 JUMP JUMPDEST DUP4 DUP1 PUSH20 0xFFFFFFFFFFFFFFFFFFFFFFFFFFFFFFFFFFFFFFFF AND PUSH1 0x80 DUP2 PUSH20 0xFFFFFFFFFFFFFFFFFFFFFFFFFFFFFFFFFFFFFFFF AND DUP2 MSTORE POP POP POP DUP4 PUSH20 0xFFFFFFFFFFFFFFFFFFFFFFFFFFFFFFFFFFFFFFFF AND PUSH1 0xA0 DUP2 PUSH20 0xFFFFFFFFFFFFFFFFFFFFFFFFFFFFFFFFFFFFFFFF AND DUP2 MSTORE POP POP DUP5 PUSH8 0xFFFFFFFFFFFFFFFF AND PUSH1 0xC0 DUP2 PUSH8 0xFFFFFFFFFFFFFFFF AND DUP2 MSTORE POP POP DUP3 PUSH1 0xE0 DUP2 DUP2 MSTORE POP POP DUP2 PUSH4 0xFFFFFFFF AND PUSH2 0x100 DUP2 PUSH4 0xFFFFFFFF AND DUP2 MSTORE POP POP DUP1 PUSH2 0xFFFF AND PUSH2 0x120 DUP2 PUSH2 0xFFFF AND DUP2 MSTORE POP POP PUSH1 0x1 PUSH4 0xFFFFFFFF AND PUSH2 0x140 DUP2 PUSH4 0xFFFFFFFF AND DUP2 MSTORE POP POP POP POP POP POP POP PUSH3 0x2FF JUMP JUMPDEST PUSH1 0x0 DUP1 REVERT JUMPDEST PUSH1 0x0 PUSH8 0xFFFFFFFFFFFFFFFF DUP3 AND SWAP1 POP SWAP2 SWAP1 POP JUMP JUMPDEST PUSH3 0x131 DUP2 PUSH3 0x112 JUMP JUMPDEST DUP2 EQ PUSH3 0x13D JUMPI PUSH1 0x0 DUP1 REVERT JUMPDEST POP JUMP JUMPDEST PUSH1 0x0 DUP2 MLOAD SWAP1 POP PUSH3 0x151 DUP2 PUSH3 0x126 JUMP JUMPDEST SWAP3 SWAP2 POP POP JUMP JUMPDEST PUSH1 0x0 PUSH20 0xFFFFFFFFFFFFFFFFFFFFFFFFFFFFFFFFFFFFFFFF DUP3 AND SWAP1 POP SWAP2 SWAP1 POP JUMP JUMPDEST PUSH1 0x0 PUSH3 0x184 DUP3 PUSH3 0x157 JUMP JUMPDEST SWAP1 POP SWAP2 SWAP1 POP JUMP JUMPDEST PUSH3 0x196 DUP2 PUSH3 0x177 JUMP JUMPDEST DUP2 EQ PUSH3 0x1A2 JUMPI PUSH1 0x0 DUP1 REVERT JUMPDEST POP JUMP JUMPDEST PUSH1 0x0 DUP2 MLOAD SWAP1 POP PUSH3 0x1B6 DUP2 PUSH3 0x18B JUMP JUMPDEST SWAP3 SWAP2 POP POP JUMP JUMPDEST PUSH1 0x0 DUP2 SWAP1 POP SWAP2 SWAP1 POP JUMP JUMPDEST PUSH3 0x1D1 DUP2 PUSH3 0x1BC JUMP JUMPDEST DUP2 EQ PUSH3 0x1DD JUMPI PUSH1 0x0 DUP1 REVERT JUMPDEST POP JUMP JUMPDEST PUSH1 0x0 DUP2 MLOAD SWAP1 POP PUSH3 0x1F1 DUP2 PUSH3 0x1C6 JUMP JUMPDEST SWAP3 SWAP2 POP POP JUMP JUMPDEST PUSH1 0x0 PUSH4 0xFFFFFFFF DUP3 AND SWAP1 POP SWAP2 SWAP1 POP JUMP JUMPDEST PUSH3 0x212 DUP2 PUSH3 0x1F7 JUMP JUMPDEST DUP2 EQ PUSH3 0x21E JUMPI PUSH1 0x0 DUP1 REVERT JUMPDEST POP JUMP JUMPDEST PUSH1 0x0 DUP2 MLOAD SWAP1 POP PUSH3 0x232 DUP2 PUSH3 0x207 JUMP JUMPDEST SWAP3 SWAP2 POP POP JUMP JUMPDEST PUSH1 0x0 PUSH2 0xFFFF DUP3 AND SWAP1 POP SWAP2 SWAP1 POP JUMP JUMPDEST PUSH3 0x251 DUP2 PUSH3 0x238 JUMP JUMPDEST DUP2 EQ PUSH3 0x25D JUMPI PUSH1 0x0 DUP1 REVERT JUMPDEST POP JUMP JUMPDEST PUSH1 0x0 DUP2 MLOAD SWAP1 POP PUSH3 0x271 DUP2 PUSH3 0x246 JUMP JUMPDEST SWAP3 SWAP2 POP POP JUMP JUMPDEST PUSH1 0x0 DUP1 PUSH1 0x0 DUP1 PUSH1 0x0 PUSH1 0xA0 DUP7 DUP9 SUB SLT ISZERO PUSH3 0x296 JUMPI PUSH3 0x295 PUSH3 0x10D JUMP JUMPDEST JUMPDEST PUSH1 0x0 PUSH3 0x2A6 DUP9 DUP3 DUP10 ADD PUSH3 0x140 JUMP JUMPDEST SWAP6 POP POP PUSH1 0x20 PUSH3 0x2B9 DUP9 DUP3 DUP10 ADD PUSH3 0x1A5 JUMP JUMPDEST SWAP5 POP POP PUSH1 0x40 PUSH3 0x2CC DUP9 DUP3 DUP10 ADD PUSH3 0x1E0 JUMP JUMPDEST SWAP4 POP POP PUSH1 0x60 PUSH3 0x2DF DUP9 DUP3 DUP10 ADD PUSH3 0x221 JUMP JUMPDEST SWAP3 POP POP PUSH1 0x80 PUSH3 0x2F2 DUP9 DUP3 DUP10 ADD PUSH3 0x260 JUMP JUMPDEST SWAP2 POP POP SWAP3 SWAP6 POP SWAP3 SWAP6 SWAP1 SWAP4 POP JUMP JUMPDEST PUSH1 0x80 MLOAD PUSH1 0xA0 MLOAD PUSH1 0xC0 MLOAD PUSH1 0xE0 MLOAD PUSH2 0x100 MLOAD PUSH2 0x120 MLOAD PUSH2 0x140 MLOAD PUSH2 0x21E6 PUSH3 0x361 PUSH1 0x0 CODECOPY PUSH1 0x0 PUSH2 0x925 ADD MSTORE PUSH1 0x0 PUSH2 0x8E3 ADD MSTORE PUSH1 0x0 PUSH2 0x904 ADD MSTORE PUSH1 0x0 PUSH2 0x8A1 ADD MSTORE PUSH1 0x0 PUSH2 0x8C2 ADD MSTORE PUSH1 0x0 PUSH2 0x865 ADD MSTORE PUSH1 0x0 DUP2 DUP2 PUSH2 0x12F ADD MSTORE PUSH2 0x183 ADD MSTORE PUSH2 0x21E6 PUSH1 0x0 RETURN INVALID PUSH1 0x80 PUSH1 0x40 MSTORE CALLVALUE DUP1 ISZERO PUSH2 0x10 JUMPI PUSH1 0x0 DUP1 REVERT JUMPDEST POP PUSH1 0x4 CALLDATASIZE LT PUSH2 0x62 JUMPI PUSH1 0x0 CALLDATALOAD PUSH1 0xE0 SHR DUP1 PUSH4 0x1FE543E3 EQ PUSH2 0x67 JUMPI DUP1 PUSH4 0x2F0C2C7C EQ PUSH2 0x83 JUMPI DUP1 PUSH4 0xC7B3C11E EQ PUSH2 0xB5 JUMPI DUP1 PUSH4 0xD47875D0 EQ PUSH2 0xBF JUMPI DUP1 PUSH4 0xEFA1C482 EQ PUSH2 0xF3 JUMPI DUP1 PUSH4 0xF2C298BE EQ PUSH2 0x111 JUMPI JUMPDEST PUSH1 0x0 DUP1 REVERT JUMPDEST PUSH2 0x81 PUSH1 0x4 DUP1 CALLDATASIZE SUB DUP2 ADD SWAP1 PUSH2 0x7C SWAP2 SWAP1 PUSH2 0x1577 JUMP JUMPDEST PUSH2 0x12D JUMP JUMPDEST STOP JUMPDEST PUSH2 0x9D PUSH1 0x4 DUP1 CALLDATASIZE SUB DUP2 ADD SWAP1 PUSH2 0x98 SWAP2 SWAP1 PUSH2 0x160F JUMP JUMPDEST PUSH2 0x1ED JUMP JUMPDEST PUSH1 0x40 MLOAD PUSH2 0xAC SWAP4 SWAP3 SWAP2 SWAP1 PUSH2 0x164B JUMP JUMPDEST PUSH1 0x40 MLOAD DUP1 SWAP2 SUB SWAP1 RETURN JUMPDEST PUSH2 0xBD PUSH2 0x6DE JUMP JUMPDEST STOP JUMPDEST PUSH2 0xD9 PUSH1 0x4 DUP1 CALLDATASIZE SUB DUP2 ADD SWAP1 PUSH2 0xD4 SWAP2 SWAP1 PUSH2 0x16E0 JUMP JUMPDEST PUSH2 0xA41 JUMP JUMPDEST PUSH1 0x40 MLOAD PUSH2 0xEA SWAP6 SWAP5 SWAP4 SWAP3 SWAP2 SWAP1 PUSH2 0x178C JUMP JUMPDEST PUSH1 0x40 MLOAD DUP1 SWAP2 SUB SWAP1 RETURN JUMPDEST PUSH2 0xFB PUSH2 0xC08 JUMP JUMPDEST PUSH1 0x40 MLOAD PUSH2 0x108 SWAP2 SWAP1 PUSH2 0x19A5 JUMP JUMPDEST PUSH1 0x40 MLOAD DUP1 SWAP2 SUB SWAP1 RETURN JUMPDEST PUSH2 0x12B PUSH1 0x4 DUP1 CALLDATASIZE SUB DUP2 ADD SWAP1 PUSH2 0x126 SWAP2 SWAP1 PUSH2 0x1A7C JUMP JUMPDEST PUSH2 0xE75 JUMP JUMPDEST STOP JUMPDEST PUSH32 0x0 PUSH20 0xFFFFFFFFFFFFFFFFFFFFFFFFFFFFFFFFFFFFFFFF AND CALLER PUSH20 0xFFFFFFFFFFFFFFFFFFFFFFFFFFFFFFFFFFFFFFFF AND EQ PUSH2 0x1DF JUMPI CALLER PUSH32 0x0 PUSH1 0x40 MLOAD PUSH32 0x1CF993F400000000000000000000000000000000000000000000000000000000 DUP2 MSTORE PUSH1 0x4 ADD PUSH2 0x1D6 SWAP3 SWAP2 SWAP1 PUSH2 0x1AD4 JUMP JUMPDEST PUSH1 0x40 MLOAD DUP1 SWAP2 SUB SWAP1 REVERT JUMPDEST PUSH2 0x1E9 DUP3 DUP3 PUSH2 0x1013 JUMP JUMPDEST POP POP JUMP JUMPDEST PUSH1 0x0 DUP1 PUSH1 0x0 DUP1 DUP5 PUSH4 0xFFFFFFFF AND SUB PUSH2 0x20F JUMPI PUSH1 0x0 DUP1 PUSH1 0x0 SWAP3 POP SWAP3 POP SWAP3 POP PUSH2 0x6D7 JUMP JUMPDEST PUSH1 0x1 DUP5 PUSH4 0xFFFFFFFF AND SUB PUSH2 0x22D JUMPI PUSH1 0xA PUSH1 0x0 DUP1 SWAP3 POP SWAP3 POP SWAP3 POP PUSH2 0x6D7 JUMP JUMPDEST PUSH1 0x2 DUP5 PUSH4 0xFFFFFFFF AND SUB PUSH2 0x24C JUMPI PUSH1 0x0 PUSH1 0xA PUSH1 0x0 SWAP3 POP SWAP3 POP SWAP3 POP PUSH2 0x6D7 JUMP JUMPDEST PUSH1 0x3 DUP5 PUSH4 0xFFFFFFFF AND SUB PUSH2 0x26A JUMPI PUSH1 0x0 DUP1 PUSH1 0xA SWAP3 POP SWAP3 POP SWAP3 POP PUSH2 0x6D7 JUMP JUMPDEST PUSH1 0x4 DUP5 PUSH4 0xFFFFFFFF AND SUB PUSH2 0x288 JUMPI PUSH1 0xA DUP1 PUSH1 0x0 SWAP3 POP SWAP3 POP SWAP3 POP PUSH2 0x6D7 JUMP JUMPDEST PUSH1 0x5 DUP5 PUSH4 0xFFFFFFFF AND SUB PUSH2 0x2A7 JUMPI PUSH1 0xA PUSH1 0x0 PUSH1 0xA SWAP3 POP SWAP3 POP SWAP3 POP PUSH2 0x6D7 JUMP JUMPDEST PUSH1 0x6 DUP5 PUSH4 0xFFFFFFFF AND SUB PUSH2 0x2C5 JUMPI PUSH1 0x0 PUSH1 0xA DUP1 SWAP3 POP SWAP3 POP SWAP3 POP PUSH2 0x6D7 JUMP JUMPDEST PUSH1 0x7 DUP5 PUSH4 0xFFFFFFFF AND SUB PUSH2 0x2E3 JUMPI PUSH1 0xA DUP1 PUSH1 0xA SWAP3 POP SWAP3 POP SWAP3 POP PUSH2 0x6D7 JUMP JUMPDEST PUSH1 0x8 DUP5 PUSH4 0xFFFFFFFF AND SUB PUSH2 0x301 JUMPI PUSH1 0xA PUSH1 0x0 DUP1 SWAP3 POP SWAP3 POP SWAP3 POP PUSH2 0x6D7 JUMP JUMPDEST PUSH1 0x9 DUP5 PUSH4 0xFFFFFFFF AND SUB PUSH2 0x320 JUMPI PUSH1 0x0 PUSH1 0xA PUSH1 0x0 SWAP3 POP SWAP3 POP SWAP3 POP PUSH2 0x6D7 JUMP JUMPDEST PUSH1 0xA DUP5 PUSH4 0xFFFFFFFF AND SUB PUSH2 0x33E JUMPI PUSH1 0x0 DUP1 PUSH1 0xA SWAP3 POP SWAP3 POP SWAP3 POP PUSH2 0x6D7 JUMP JUMPDEST PUSH1 0xB DUP5 PUSH4 0xFFFFFFFF AND SUB PUSH2 0x35C JUMPI PUSH1 0xA DUP1 PUSH1 0x0 SWAP3 POP SWAP3 POP SWAP3 POP PUSH2 0x6D7 JUMP JUMPDEST PUSH1 0xC DUP5 PUSH4 0xFFFFFFFF AND SUB PUSH2 0x37B JUMPI PUSH1 0xA PUSH1 0x0 PUSH1 0xA SWAP3 POP SWAP3 POP SWAP3 POP PUSH2 0x6D7 JUMP JUMPDEST PUSH1 0xD DUP5 PUSH4 0xFFFFFFFF AND SUB PUSH2 0x399 JUMPI PUSH1 0x0 PUSH1 0xA DUP1 SWAP3 POP SWAP3 POP SWAP3 POP PUSH2 0x6D7 JUMP JUMPDEST PUSH1 0xE DUP5 PUSH4 0xFFFFFFFF AND SUB PUSH2 0x3B7 JUMPI PUSH1 0xA DUP1 PUSH1 0xA SWAP3 POP SWAP3 POP SWAP3 POP PUSH2 0x6D7 JUMP JUMPDEST PUSH1 0xF DUP5 PUSH4 0xFFFFFFFF AND SUB PUSH2 0x3D5 JUMPI PUSH1 0xA PUSH1 0x0 DUP1 SWAP3 POP SWAP3 POP SWAP3 POP PUSH2 0x6D7 JUMP JUMPDEST PUSH1 0x10 DUP5 PUSH4 0xFFFFFFFF AND SUB PUSH2 0x3F4 JUMPI PUSH1 0x0 PUSH1 0xA PUSH1 0x0 SWAP3 POP SWAP3 POP SWAP3 POP PUSH2 0x6D7 JUMP JUMPDEST PUSH1 0x11 DUP5 PUSH4 0xFFFFFFFF AND SUB PUSH2 0x412 JUMPI PUSH1 0x0 DUP1 PUSH1 0xA SWAP3 POP SWAP3 POP SWAP3 POP PUSH2 0x6D7 JUMP JUMPDEST PUSH1 0x12 DUP5 PUSH4 0xFFFFFFFF AND SUB PUSH2 0x430 JUMPI PUSH1 0xA DUP1 PUSH1 0x0 SWAP3 POP SWAP3 POP SWAP3 POP PUSH2 0x6D7 JUMP JUMPDEST PUSH1 0x13 DUP5 PUSH4 0xFFFFFFFF AND SUB PUSH2 0x44F JUMPI PUSH1 0xA PUSH1 0x0 PUSH1 0xA SWAP3 POP SWAP3 POP SWAP3 POP PUSH2 0x6D7 JUMP JUMPDEST PUSH1 0x14 DUP5 PUSH4 0xFFFFFFFF AND SUB PUSH2 0x46D JUMPI PUSH1 0x0 PUSH1 0xA DUP1 SWAP3 POP SWAP3 POP SWAP3 POP PUSH2 0x6D7 JUMP JUMPDEST PUSH1 0x15 DUP5 PUSH4 0xFFFFFFFF AND SUB PUSH2 0x48B JUMPI PUSH1 0xA DUP1 PUSH1 0xA SWAP3 POP SWAP3 POP SWAP3 POP PUSH2 0x6D7 JUMP JUMPDEST PUSH1 0x16 DUP5 PUSH4 0xFFFFFFFF AND SUB PUSH2 0x4A9 JUMPI PUSH1 0xA PUSH1 0x0 DUP1 SWAP3 POP SWAP3 POP SWAP3 POP PUSH2 0x6D7 JUMP JUMPDEST PUSH1 0x17 DUP5 PUSH4 0xFFFFFFFF AND SUB PUSH2 0x4C8 JUMPI PUSH1 0x0 PUSH1 0xA PUSH1 0x0 SWAP3 POP SWAP3 POP SWAP3 POP PUSH2 0x6D7 JUMP JUMPDEST PUSH1 0x18 DUP5 PUSH4 0xFFFFFFFF AND SUB PUSH2 0x4E6 JUMPI PUSH1 0x0 DUP1 PUSH1 0xA SWAP3 POP SWAP3 POP SWAP3 POP PUSH2 0x6D7 JUMP JUMPDEST PUSH1 0x19 DUP5 PUSH4 0xFFFFFFFF AND SUB PUSH2 0x504 JUMPI PUSH1 0xA DUP1 PUSH1 0x0 SWAP3 POP SWAP3 POP SWAP3 POP PUSH2 0x6D7 JUMP JUMPDEST PUSH1 0x1A DUP5 PUSH4 0xFFFFFFFF AND SUB PUSH2 0x523 JUMPI PUSH1 0xA PUSH1 0x0 PUSH1 0xA SWAP3 POP SWAP3 POP SWAP3 POP PUSH2 0x6D7 JUMP JUMPDEST PUSH1 0x1B DUP5 PUSH4 0xFFFFFFFF AND SUB PUSH2 0x541 JUMPI PUSH1 0x0 PUSH1 0xA DUP1 SWAP3 POP SWAP3 POP SWAP3 POP PUSH2 0x6D7 JUMP JUMPDEST PUSH1 0x1C DUP5 PUSH4 0xFFFFFFFF AND SUB PUSH2 0x55F JUMPI PUSH1 0xA DUP1 PUSH1 0xA SWAP3 POP SWAP3 POP SWAP3 POP PUSH2 0x6D7 JUMP JUMPDEST PUSH1 0x1D DUP5 PUSH4 0xFFFFFFFF AND SUB PUSH2 0x57D JUMPI PUSH1 0xA PUSH1 0x0 DUP1 SWAP3 POP SWAP3 POP SWAP3 POP PUSH2 0x6D7 JUMP JUMPDEST PUSH1 0x1E DUP5 PUSH4 0xFFFFFFFF AND SUB PUSH2 0x59C JUMPI PUSH1 0x0 PUSH1 0xA PUSH1 0x0 SWAP3 POP SWAP3 POP SWAP3 POP PUSH2 0x6D7 JUMP JUMPDEST PUSH1 0x1F DUP5 PUSH4 0xFFFFFFFF AND SUB PUSH2 0x5BA JUMPI PUSH1 0x0 DUP1 PUSH1 0xA SWAP3 POP SWAP3 POP SWAP3 POP PUSH2 0x6D7 JUMP JUMPDEST PUSH1 0x20 DUP5 PUSH4 0xFFFFFFFF AND SUB PUSH2 0x5D8 JUMPI PUSH1 0xA DUP1 PUSH1 0x0 SWAP3 POP SWAP3 POP SWAP3 POP PUSH2 0x6D7 JUMP JUMPDEST PUSH1 0x21 DUP5 PUSH4 0xFFFFFFFF AND SUB PUSH2 0x5F7 JUMPI PUSH1 0xA PUSH1 0x0 PUSH1 0xA SWAP3 POP SWAP3 POP SWAP3 POP PUSH2 0x6D7 JUMP JUMPDEST PUSH1 0x22 DUP5 PUSH4 0xFFFFFFFF AND SUB PUSH2 0x615 JUMPI PUSH1 0x0 PUSH1 0xA DUP1 SWAP3 POP SWAP3 POP SWAP3 POP PUSH2 0x6D7 JUMP JUMPDEST PUSH1 0x23 DUP5 PUSH4 0xFFFFFFFF AND SUB PUSH2 0x633 JUMPI PUSH1 0xA DUP1 PUSH1 0xA SWAP3 POP SWAP3 POP SWAP3 POP PUSH2 0x6D7 JUMP JUMPDEST PUSH1 0x24 DUP5 PUSH4 0xFFFFFFFF AND SUB PUSH2 0x651 JUMPI PUSH1 0xA PUSH1 0x0 DUP1 SWAP3 POP SWAP3 POP SWAP3 POP PUSH2 0x6D7 JUMP JUMPDEST PUSH1 0x25 DUP5 PUSH4 0xFFFFFFFF AND SUB PUSH2 0x670 JUMPI PUSH1 0x0 PUSH1 0xA PUSH1 0x0 SWAP3 POP SWAP3 POP SWAP3 POP PUSH2 0x6D7 JUMP JUMPDEST PUSH1 0x26 DUP5 PUSH4 0xFFFFFFFF AND SUB PUSH2 0x68E JUMPI PUSH1 0x0 DUP1 PUSH1 0xA SWAP3 POP SWAP3 POP SWAP3 POP PUSH2 0x6D7 JUMP JUMPDEST PUSH1 0x27 DUP5 PUSH4 0xFFFFFFFF AND SUB PUSH2 0x6AC JUMPI PUSH1 0xA DUP1 PUSH1 0x0 SWAP3 POP SWAP3 POP SWAP3 POP PUSH2 0x6D7 JUMP JUMPDEST PUSH1 0x28 DUP5 PUSH4 0xFFFFFFFF AND SUB PUSH2 0x6CB JUMPI PUSH1 0xA PUSH1 0x0 PUSH1 0xA SWAP3 POP SWAP3 POP SWAP3 POP PUSH2 0x6D7 JUMP JUMPDEST PUSH1 0x0 DUP1 PUSH1 0x0 SWAP3 POP SWAP3 POP SWAP3 POP JUMPDEST SWAP2 SWAP4 SWAP1 SWAP3 POP JUMP JUMPDEST PUSH1 0x0 DUP1 CALLER PUSH20 0xFFFFFFFFFFFFFFFFFFFFFFFFFFFFFFFFFFFFFFFF AND PUSH20 0xFFFFFFFFFFFFFFFFFFFFFFFFFFFFFFFFFFFFFFFF AND DUP2 MSTORE PUSH1 0x20 ADD SWAP1 DUP2 MSTORE PUSH1 0x20 ADD PUSH1 0x0 KECCAK256 PUSH1 0x0 ADD PUSH1 0x10 SWAP1 SLOAD SWAP1 PUSH2 0x100 EXP SWAP1 DIV PUSH1 0xFF AND ISZERO PUSH2 0x76D JUMPI PUSH1 0x40 MLOAD PUSH32 0x8C379A000000000000000000000000000000000000000000000000000000000 DUP2 MSTORE PUSH1 0x4 ADD PUSH2 0x764 SWAP1 PUSH2 0x1B6F JUMP JUMPDEST PUSH1 0x40 MLOAD DUP1 SWAP2 SUB SWAP1 REVERT JUMPDEST PUSH1 0x28 PUSH1 0x0 DUP1 CALLER PUSH20 0xFFFFFFFFFFFFFFFFFFFFFFFFFFFFFFFFFFFFFFFF AND PUSH20 0xFFFFFFFFFFFFFFFFFFFFFFFFFFFFFFFFFFFFFFFF AND DUP2 MSTORE PUSH1 0x20 ADD SWAP1 DUP2 MSTORE PUSH1 0x20 ADD PUSH1 0x0 KECCAK256 PUSH1 0x0 ADD PUSH1 0x0 SWAP1 SLOAD SWAP1 PUSH2 0x100 EXP SWAP1 DIV PUSH4 0xFFFFFFFF AND PUSH4 0xFFFFFFFF AND LT PUSH2 0x807 JUMPI PUSH1 0x40 MLOAD PUSH32 0x8C379A000000000000000000000000000000000000000000000000000000000 DUP2 MSTORE PUSH1 0x4 ADD PUSH2 0x7FE SWAP1 PUSH2 0x1BDB JUMP JUMPDEST PUSH1 0x40 MLOAD DUP1 SWAP2 SUB SWAP1 REVERT JUMPDEST PUSH1 0x1 PUSH1 0x0 DUP1 CALLER PUSH20 0xFFFFFFFFFFFFFFFFFFFFFFFFFFFFFFFFFFFFFFFF AND PUSH20 0xFFFFFFFFFFFFFFFFFFFFFFFFFFFFFFFFFFFFFFFF AND DUP2 MSTORE PUSH1 0x20 ADD SWAP1 DUP2 MSTORE PUSH1 0x20 ADD PUSH1 0x0 KECCAK256 PUSH1 0x0 ADD PUSH1 0x10 PUSH2 0x100 EXP DUP2 SLOAD DUP2 PUSH1 0xFF MUL NOT AND SWAP1 DUP4 ISZERO ISZERO MUL OR SWAP1 SSTORE POP PUSH1 0x0 PUSH32 0x0 PUSH20 0xFFFFFFFFFFFFFFFFFFFFFFFFFFFFFFFFFFFFFFFF AND PUSH4 0x5D3B1D30 PUSH32 0x0 PUSH32 0x0 PUSH32 0x0 PUSH32 0x0 PUSH32 0x0 PUSH1 0x40 MLOAD DUP7 PUSH4 0xFFFFFFFF AND PUSH1 0xE0 SHL DUP2 MSTORE PUSH1 0x4 ADD PUSH2 0x964 SWAP6 SWAP5 SWAP4 SWAP3 SWAP2 SWAP1 PUSH2 0x1C54 JUMP JUMPDEST PUSH1 0x20 PUSH1 0x40 MLOAD DUP1 DUP4 SUB DUP2 PUSH1 0x0 DUP8 GAS CALL ISZERO DUP1 ISZERO PUSH2 0x983 JUMPI RETURNDATASIZE PUSH1 0x0 DUP1 RETURNDATACOPY RETURNDATASIZE PUSH1 0x0 REVERT JUMPDEST POP POP POP POP PUSH1 0x40 MLOAD RETURNDATASIZE PUSH1 0x1F NOT PUSH1 0x1F DUP3 ADD AND DUP3 ADD DUP1 PUSH1 0x40 MSTORE POP DUP2 ADD SWAP1 PUSH2 0x9A7 SWAP2 SWAP1 PUSH2 0x1CBC JUMP JUMPDEST SWAP1 POP CALLER PUSH1 0x1 PUSH1 0x0 DUP4 DUP2 MSTORE PUSH1 0x20 ADD SWAP1 DUP2 MSTORE PUSH1 0x20 ADD PUSH1 0x0 KECCAK256 PUSH1 0x0 PUSH2 0x100 EXP DUP2 SLOAD DUP2 PUSH20 0xFFFFFFFFFFFFFFFFFFFFFFFFFFFFFFFFFFFFFFFF MUL NOT AND SWAP1 DUP4 PUSH20 0xFFFFFFFFFFFFFFFFFFFFFFFFFFFFFFFFFFFFFFFF AND MUL OR SWAP1 SSTORE POP CALLER PUSH20 0xFFFFFFFFFFFFFFFFFFFFFFFFFFFFFFFFFFFFFFFF AND PUSH32 0x41D1A459AB67BCB3138612C208DA7EC5021C56CE9FFE7B8B209159F3446E1E9D PUSH1 0x40 MLOAD PUSH1 0x40 MLOAD DUP1 SWAP2 SUB SWAP1 LOG2 POP JUMP JUMPDEST PUSH1 0x0 DUP1 PUSH1 0x0 DUP1 PUSH1 0x60 PUSH1 0x0 DUP1 PUSH1 0x0 DUP9 PUSH20 0xFFFFFFFFFFFFFFFFFFFFFFFFFFFFFFFFFFFFFFFF AND PUSH20 0xFFFFFFFFFFFFFFFFFFFFFFFFFFFFFFFFFFFFFFFF AND DUP2 MSTORE PUSH1 0x20 ADD SWAP1 DUP2 MSTORE PUSH1 0x20 ADD PUSH1 0x0 KECCAK256 PUSH1 0x40 MLOAD DUP1 PUSH1 0xC0 ADD PUSH1 0x40 MSTORE SWAP1 DUP2 PUSH1 0x0 DUP3 ADD PUSH1 0x0 SWAP1 SLOAD SWAP1 PUSH2 0x100 EXP SWAP1 DIV PUSH4 0xFFFFFFFF AND PUSH4 0xFFFFFFFF AND PUSH4 0xFFFFFFFF AND DUP2 MSTORE PUSH1 0x20 ADD PUSH1 0x0 DUP3 ADD PUSH1 0x4 SWAP1 SLOAD SWAP1 PUSH2 0x100 EXP SWAP1 DIV PUSH4 0xFFFFFFFF AND PUSH4 0xFFFFFFFF AND PUSH4 0xFFFFFFFF AND DUP2 MSTORE PUSH1 0x20 ADD PUSH1 0x0 DUP3 ADD PUSH1 0x8 SWAP1 SLOAD SWAP1 PUSH2 0x100 EXP SWAP1 DIV PUSH4 0xFFFFFFFF AND PUSH4 0xFFFFFFFF AND PUSH4 0xFFFFFFFF AND DUP2 MSTORE PUSH1 0x20 ADD PUSH1 0x0 DUP3 ADD PUSH1 0xC SWAP1 SLOAD SWAP1 PUSH2 0x100 EXP SWAP1 DIV PUSH4 0xFFFFFFFF AND PUSH4 0xFFFFFFFF AND PUSH4 0xFFFFFFFF AND DUP2 MSTORE PUSH1 0x20 ADD PUSH1 0x0 DUP3 ADD PUSH1 0x10 SWAP1 SLOAD SWAP1 PUSH2 0x100 EXP SWAP1 DIV PUSH1 0xFF AND ISZERO ISZERO ISZERO ISZERO DUP2 MSTORE PUSH1 0x20 ADD PUSH1 0x1 DUP3 ADD DUP1 SLOAD PUSH2 0xB57 SWAP1 PUSH2 0x1D18 JUMP JUMPDEST DUP1 PUSH1 0x1F ADD PUSH1 0x20 DUP1 SWAP2 DIV MUL PUSH1 0x20 ADD PUSH1 0x40 MLOAD SWAP1 DUP2 ADD PUSH1 0x40 MSTORE DUP1 SWAP3 SWAP2 SWAP1 DUP2 DUP2 MSTORE PUSH1 0x20 ADD DUP3 DUP1 SLOAD PUSH2 0xB83 SWAP1 PUSH2 0x1D18 JUMP JUMPDEST DUP1 ISZERO PUSH2 0xBD0 JUMPI DUP1 PUSH1 0x1F LT PUSH2 0xBA5 JUMPI PUSH2 0x100 DUP1 DUP4 SLOAD DIV MUL DUP4 MSTORE SWAP2 PUSH1 0x20 ADD SWAP2 PUSH2 0xBD0 JUMP JUMPDEST DUP3 ADD SWAP2 SWAP1 PUSH1 0x0 MSTORE PUSH1 0x20 PUSH1 0x0 KECCAK256 SWAP1 JUMPDEST DUP2 SLOAD DUP2 MSTORE SWAP1 PUSH1 0x1 ADD SWAP1 PUSH1 0x20 ADD DUP1 DUP4 GT PUSH2 0xBB3 JUMPI DUP3 SWAP1 SUB PUSH1 0x1F AND DUP3 ADD SWAP2 JUMPDEST POP POP POP POP POP DUP2 MSTORE POP POP SWAP1 POP DUP1 PUSH1 0x20 ADD MLOAD DUP2 PUSH1 0x40 ADD MLOAD DUP3 PUSH1 0x60 ADD MLOAD DUP4 PUSH1 0x0 ADD MLOAD DUP5 PUSH1 0xA0 ADD MLOAD SWAP6 POP SWAP6 POP SWAP6 POP SWAP6 POP SWAP6 POP POP SWAP2 SWAP4 SWAP6 SWAP1 SWAP3 SWAP5 POP JUMP JUMPDEST PUSH1 0x60 PUSH1 0x0 PUSH1 0x2 DUP1 SLOAD SWAP1 POP SWAP1 POP PUSH1 0x0 DUP2 PUSH8 0xFFFFFFFFFFFFFFFF DUP2 GT ISZERO PUSH2 0xC30 JUMPI PUSH2 0xC2F PUSH2 0x1434 JUMP JUMPDEST JUMPDEST PUSH1 0x40 MLOAD SWAP1 DUP1 DUP3 MSTORE DUP1 PUSH1 0x20 MUL PUSH1 0x20 ADD DUP3 ADD PUSH1 0x40 MSTORE DUP1 ISZERO PUSH2 0xC69 JUMPI DUP2 PUSH1 0x20 ADD JUMPDEST PUSH2 0xC56 PUSH2 0x1384 JUMP JUMPDEST DUP2 MSTORE PUSH1 0x20 ADD SWAP1 PUSH1 0x1 SWAP1 SUB SWAP1 DUP2 PUSH2 0xC4E JUMPI SWAP1 POP JUMPDEST POP SWAP1 POP PUSH1 0x0 JUMPDEST DUP3 DUP2 LT ISZERO PUSH2 0xE6C JUMPI PUSH1 0x0 DUP1 PUSH1 0x2 DUP4 DUP2 SLOAD DUP2 LT PUSH2 0xC8E JUMPI PUSH2 0xC8D PUSH2 0x1D49 JUMP JUMPDEST JUMPDEST SWAP1 PUSH1 0x0 MSTORE PUSH1 0x20 PUSH1 0x0 KECCAK256 ADD PUSH1 0x0 SWAP1 SLOAD SWAP1 PUSH2 0x100 EXP SWAP1 DIV PUSH20 0xFFFFFFFFFFFFFFFFFFFFFFFFFFFFFFFFFFFFFFFF AND PUSH20 0xFFFFFFFFFFFFFFFFFFFFFFFFFFFFFFFFFFFFFFFF AND PUSH20 0xFFFFFFFFFFFFFFFFFFFFFFFFFFFFFFFFFFFFFFFF AND DUP2 MSTORE PUSH1 0x20 ADD SWAP1 DUP2 MSTORE PUSH1 0x20 ADD PUSH1 0x0 KECCAK256 PUSH1 0x40 MLOAD DUP1 PUSH1 0xC0 ADD PUSH1 0x40 MSTORE SWAP1 DUP2 PUSH1 0x0 DUP3 ADD PUSH1 0x0 SWAP1 SLOAD SWAP1 PUSH2 0x100 EXP SWAP1 DIV PUSH4 0xFFFFFFFF AND PUSH4 0xFFFFFFFF AND PUSH4 0xFFFFFFFF AND DUP2 MSTORE PUSH1 0x20 ADD PUSH1 0x0 DUP3 ADD PUSH1 0x4 SWAP1 SLOAD SWAP1 PUSH2 0x100 EXP SWAP1 DIV PUSH4 0xFFFFFFFF AND PUSH4 0xFFFFFFFF AND PUSH4 0xFFFFFFFF AND DUP2 MSTORE PUSH1 0x20 ADD PUSH1 0x0 DUP3 ADD PUSH1 0x8 SWAP1 SLOAD SWAP1 PUSH2 0x100 EXP SWAP1 DIV PUSH4 0xFFFFFFFF AND PUSH4 0xFFFFFFFF AND PUSH4 0xFFFFFFFF AND DUP2 MSTORE PUSH1 0x20 ADD PUSH1 0x0 DUP3 ADD PUSH1 0xC SWAP1 SLOAD SWAP1 PUSH2 0x100 EXP SWAP1 DIV PUSH4 0xFFFFFFFF AND PUSH4 0xFFFFFFFF AND PUSH4 0xFFFFFFFF AND DUP2 MSTORE PUSH1 0x20 ADD PUSH1 0x0 DUP3 ADD PUSH1 0x10 SWAP1 SLOAD SWAP1 PUSH2 0x100 EXP SWAP1 DIV PUSH1 0xFF AND ISZERO ISZERO ISZERO ISZERO DUP2 MSTORE PUSH1 0x20 ADD PUSH1 0x1 DUP3 ADD DUP1 SLOAD PUSH2 0xDC1 SWAP1 PUSH2 0x1D18 JUMP JUMPDEST DUP1 PUSH1 0x1F ADD PUSH1 0x20 DUP1 SWAP2 DIV MUL PUSH1 0x20 ADD PUSH1 0x40 MLOAD SWAP1 DUP2 ADD PUSH1 0x40 MSTORE DUP1 SWAP3 SWAP2 SWAP1 DUP2 DUP2 MSTORE PUSH1 0x20 ADD DUP3 DUP1 SLOAD PUSH2 0xDED SWAP1 PUSH2 0x1D18 JUMP JUMPDEST DUP1 ISZERO PUSH2 0xE3A JUMPI DUP1 PUSH1 0x1F LT PUSH2 0xE0F JUMPI PUSH2 0x100 DUP1 DUP4 SLOAD DIV MUL DUP4 MSTORE SWAP2 PUSH1 0x20 ADD SWAP2 PUSH2 0xE3A JUMP JUMPDEST DUP3 ADD SWAP2 SWAP1 PUSH1 0x0 MSTORE PUSH1 0x20 PUSH1 0x0 KECCAK256 SWAP1 JUMPDEST DUP2 SLOAD DUP2 MSTORE SWAP1 PUSH1 0x1 ADD SWAP1 PUSH1 0x20 ADD DUP1 DUP4 GT PUSH2 0xE1D JUMPI DUP3 SWAP1 SUB PUSH1 0x1F AND DUP3 ADD SWAP2 JUMPDEST POP POP POP POP POP DUP2 MSTORE POP POP DUP3 DUP3 DUP2 MLOAD DUP2 LT PUSH2 0xE56 JUMPI PUSH2 0xE55 PUSH2 0x1D49 JUMP JUMPDEST JUMPDEST PUSH1 0x20 MUL PUSH1 0x20 ADD ADD DUP2 SWAP1 MSTORE POP DUP1 PUSH1 0x1 ADD SWAP1 POP PUSH2 0xC6F JUMP JUMPDEST POP DUP1 SWAP3 POP POP POP SWAP1 JUMP JUMPDEST PUSH1 0x0 DUP1 PUSH1 0x0 CALLER PUSH20 0xFFFFFFFFFFFFFFFFFFFFFFFFFFFFFFFFFFFFFFFF AND PUSH20 0xFFFFFFFFFFFFFFFFFFFFFFFFFFFFFFFFFFFFFFFF AND DUP2 MSTORE PUSH1 0x20 ADD SWAP1 DUP2 MSTORE PUSH1 0x20 ADD PUSH1 0x0 KECCAK256 PUSH1 0x1 ADD DUP1 SLOAD PUSH2 0xEC3 SWAP1 PUSH2 0x1D18 JUMP JUMPDEST SWAP1 POP EQ PUSH2 0xF05 JUMPI PUSH1 0x40 MLOAD PUSH32 0x8C379A000000000000000000000000000000000000000000000000000000000 DUP2 MSTORE PUSH1 0x4 ADD PUSH2 0xEFC SWAP1 PUSH2 0x1DC4 JUMP JUMPDEST PUSH1 0x40 MLOAD DUP1 SWAP2 SUB SWAP1 REVERT JUMPDEST DUP1 PUSH1 0x0 DUP1 CALLER PUSH20 0xFFFFFFFFFFFFFFFFFFFFFFFFFFFFFFFFFFFFFFFF AND PUSH20 0xFFFFFFFFFFFFFFFFFFFFFFFFFFFFFFFFFFFFFFFF AND DUP2 MSTORE PUSH1 0x20 ADD SWAP1 DUP2 MSTORE PUSH1 0x20 ADD PUSH1 0x0 KECCAK256 PUSH1 0x1 ADD SWAP1 DUP2 PUSH2 0xF53 SWAP2 SWAP1 PUSH2 0x1F90 JUMP JUMPDEST POP PUSH1 0x2 CALLER SWAP1 DUP1 PUSH1 0x1 DUP2 SLOAD ADD DUP1 DUP3 SSTORE DUP1 SWAP2 POP POP PUSH1 0x1 SWAP1 SUB SWAP1 PUSH1 0x0 MSTORE PUSH1 0x20 PUSH1 0x0 KECCAK256 ADD PUSH1 0x0 SWAP1 SWAP2 SWAP1 SWAP2 SWAP1 SWAP2 PUSH2 0x100 EXP DUP2 SLOAD DUP2 PUSH20 0xFFFFFFFFFFFFFFFFFFFFFFFFFFFFFFFFFFFFFFFF MUL NOT AND SWAP1 DUP4 PUSH20 0xFFFFFFFFFFFFFFFFFFFFFFFFFFFFFFFFFFFFFFFF AND MUL OR SWAP1 SSTORE POP DUP1 PUSH1 0x40 MLOAD PUSH2 0xFC5 SWAP2 SWAP1 PUSH2 0x209E JUMP JUMPDEST PUSH1 0x40 MLOAD DUP1 SWAP2 SUB SWAP1 KECCAK256 CALLER PUSH20 0xFFFFFFFFFFFFFFFFFFFFFFFFFFFFFFFFFFFFFFFF AND PUSH32 0x81EF79D1CDA814A60C0FC60792E648A06D9C6BAE67176346D1CC8B63030BFCCD PUSH1 0x40 MLOAD PUSH1 0x40 MLOAD DUP1 SWAP2 SUB SWAP1 LOG3 POP JUMP JUMPDEST PUSH1 0x0 PUSH1 0x1 PUSH1 0x6 DUP4 PUSH1 0x0 DUP2 MLOAD DUP2 LT PUSH2 0x102D JUMPI PUSH2 0x102C PUSH2 0x1D49 JUMP JUMPDEST JUMPDEST PUSH1 0x20 MUL PUSH1 0x20 ADD ADD MLOAD PUSH2 0x103F SWAP2 SWAP1 PUSH2 0x20E4 JUMP JUMPDEST PUSH2 0x1049 SWAP2 SWAP1 PUSH2 0x2144 JUMP JUMPDEST SWAP1 POP PUSH1 0x0 PUSH1 0x1 PUSH1 0x0 DUP6 DUP2 MSTORE PUSH1 0x20 ADD SWAP1 DUP2 MSTORE PUSH1 0x20 ADD PUSH1 0x0 KECCAK256 PUSH1 0x0 SWAP1 SLOAD SWAP1 PUSH2 0x100 EXP SWAP1 DIV PUSH20 0xFFFFFFFFFFFFFFFFFFFFFFFFFFFFFFFFFFFFFFFF AND SWAP1 POP DUP2 PUSH1 0x0 DUP1 DUP4 PUSH20 0xFFFFFFFFFFFFFFFFFFFFFFFFFFFFFFFFFFFFFFFF AND PUSH20 0xFFFFFFFFFFFFFFFFFFFFFFFFFFFFFFFFFFFFFFFF AND DUP2 MSTORE PUSH1 0x20 ADD SWAP1 DUP2 MSTORE PUSH1 0x20 ADD PUSH1 0x0 KECCAK256 PUSH1 0x0 ADD PUSH1 0x0 DUP3 DUP3 DUP3 SWAP1 SLOAD SWAP1 PUSH2 0x100 EXP SWAP1 DIV PUSH4 0xFFFFFFFF AND PUSH2 0x10E3 SWAP2 SWAP1 PUSH2 0x2178 JUMP JUMPDEST SWAP3 POP PUSH2 0x100 EXP DUP2 SLOAD DUP2 PUSH4 0xFFFFFFFF MUL NOT AND SWAP1 DUP4 PUSH4 0xFFFFFFFF AND MUL OR SWAP1 SSTORE POP PUSH1 0x0 DUP1 PUSH1 0x0 PUSH2 0x1160 PUSH1 0x0 DUP1 DUP7 PUSH20 0xFFFFFFFFFFFFFFFFFFFFFFFFFFFFFFFFFFFFFFFF AND PUSH20 0xFFFFFFFFFFFFFFFFFFFFFFFFFFFFFFFFFFFFFFFF AND DUP2 MSTORE PUSH1 0x20 ADD SWAP1 DUP2 MSTORE PUSH1 0x20 ADD PUSH1 0x0 KECCAK256 PUSH1 0x0 ADD PUSH1 0x0 SWAP1 SLOAD SWAP1 PUSH2 0x100 EXP SWAP1 DIV PUSH4 0xFFFFFFFF AND PUSH2 0x1ED JUMP JUMPDEST SWAP3 POP SWAP3 POP SWAP3 POP DUP3 PUSH1 0x0 DUP1 DUP7 PUSH20 0xFFFFFFFFFFFFFFFFFFFFFFFFFFFFFFFFFFFFFFFF AND PUSH20 0xFFFFFFFFFFFFFFFFFFFFFFFFFFFFFFFFFFFFFFFF AND DUP2 MSTORE PUSH1 0x20 ADD SWAP1 DUP2 MSTORE PUSH1 0x20 ADD PUSH1 0x0 KECCAK256 PUSH1 0x0 ADD PUSH1 0x4 DUP3 DUP3 DUP3 SWAP1 SLOAD SWAP1 PUSH2 0x100 EXP SWAP1 DIV PUSH4 0xFFFFFFFF AND PUSH2 0x11C6 SWAP2 SWAP1 PUSH2 0x2178 JUMP JUMPDEST SWAP3 POP PUSH2 0x100 EXP DUP2 SLOAD DUP2 PUSH4 0xFFFFFFFF MUL NOT AND SWAP1 DUP4 PUSH4 0xFFFFFFFF AND MUL OR SWAP1 SSTORE POP DUP2 PUSH1 0x0 DUP1 DUP7 PUSH20 0xFFFFFFFFFFFFFFFFFFFFFFFFFFFFFFFFFFFFFFFF AND PUSH20 0xFFFFFFFFFFFFFFFFFFFFFFFFFFFFFFFFFFFFFFFF AND DUP2 MSTORE PUSH1 0x20 ADD SWAP1 DUP2 MSTORE PUSH1 0x20 ADD PUSH1 0x0 KECCAK256 PUSH1 0x0 ADD PUSH1 0x8 DUP3 DUP3 DUP3 SWAP1 SLOAD SWAP1 PUSH2 0x100 EXP SWAP1 DIV PUSH4 0xFFFFFFFF AND PUSH2 0x1244 SWAP2 SWAP1 PUSH2 0x2178 JUMP JUMPDEST SWAP3 POP PUSH2 0x100 EXP DUP2 SLOAD DUP2 PUSH4 0xFFFFFFFF MUL NOT AND SWAP1 DUP4 PUSH4 0xFFFFFFFF AND MUL OR SWAP1 SSTORE POP DUP1 PUSH1 0x0 DUP1 DUP7 PUSH20 0xFFFFFFFFFFFFFFFFFFFFFFFFFFFFFFFFFFFFFFFF AND PUSH20 0xFFFFFFFFFFFFFFFFFFFFFFFFFFFFFFFFFFFFFFFF AND DUP2 MSTORE PUSH1 0x20 ADD SWAP1 DUP2 MSTORE PUSH1 0x20 ADD PUSH1 0x0 KECCAK256 PUSH1 0x0 ADD PUSH1 0xC DUP3 DUP3 DUP3 SWAP1 SLOAD SWAP1 PUSH2 0x100 EXP SWAP1 DIV PUSH4 0xFFFFFFFF AND PUSH2 0x12C2 SWAP2 SWAP1 PUSH2 0x2178 JUMP JUMPDEST SWAP3 POP PUSH2 0x100 EXP DUP2 SLOAD DUP2 PUSH4 0xFFFFFFFF MUL NOT AND SWAP1 DUP4 PUSH4 0xFFFFFFFF AND MUL OR SWAP1 SSTORE POP PUSH1 0x0 DUP1 DUP6 PUSH20 0xFFFFFFFFFFFFFFFFFFFFFFFFFFFFFFFFFFFFFFFF AND PUSH20 0xFFFFFFFFFFFFFFFFFFFFFFFFFFFFFFFFFFFFFFFF AND DUP2 MSTORE PUSH1 0x20 ADD SWAP1 DUP2 MSTORE PUSH1 0x20 ADD PUSH1 0x0 KECCAK256 PUSH1 0x0 ADD PUSH1 0x0 SWAP1 SLOAD SWAP1 PUSH2 0x100 EXP SWAP1 DIV PUSH4 0xFFFFFFFF AND PUSH4 0xFFFFFFFF AND CALLER PUSH20 0xFFFFFFFFFFFFFFFFFFFFFFFFFFFFFFFFFFFFFFFF AND PUSH32 0x31141DD41DEAF78E87C4165BEC72FD6162AFC0F21B75CC969CF032611285B386 PUSH1 0x40 MLOAD PUSH1 0x40 MLOAD DUP1 SWAP2 SUB SWAP1 LOG3 POP POP POP POP POP POP POP JUMP JUMPDEST PUSH1 0x40 MLOAD DUP1 PUSH1 0xC0 ADD PUSH1 0x40 MSTORE DUP1 PUSH1 0x0 PUSH4 0xFFFFFFFF AND DUP2 MSTORE PUSH1 0x20 ADD PUSH1 0x0 PUSH4 0xFFFFFFFF AND DUP2 MSTORE PUSH1 0x20 ADD PUSH1 0x0 PUSH4 0xFFFFFFFF AND DUP2 MSTORE PUSH1 0x20 ADD PUSH1 0x0 PUSH4 0xFFFFFFFF AND DUP2 MSTORE PUSH1 0x20 ADD PUSH1 0x0 ISZERO ISZERO DUP2 MSTORE PUSH1 0x20 ADD PUSH1 0x60 DUP2 MSTORE POP SWAP1 JUMP JUMPDEST PUSH1 0x0 PUSH1 0x40 MLOAD SWAP1 POP SWAP1 JUMP JUMPDEST PUSH1 0x0 DUP1 REVERT JUMPDEST PUSH1 0x0 DUP1 REVERT JUMPDEST PUSH1 0x0 DUP2 SWAP1 POP SWAP2 SWAP1 POP JUMP JUMPDEST PUSH2 0x13FB DUP2 PUSH2 0x13E8 JUMP JUMPDEST DUP2 EQ PUSH2 0x1406 JUMPI PUSH1 0x0 DUP1 REVERT JUMPDEST POP JUMP JUMPDEST PUSH1 0x0 DUP2 CALLDATALOAD SWAP1 POP PUSH2 0x1418 DUP2 PUSH2 0x13F2 JUMP JUMPDEST SWAP3 SWAP2 POP POP JUMP JUMPDEST PUSH1 0x0 DUP1 REVERT JUMPDEST PUSH1 0x0 PUSH1 0x1F NOT PUSH1 0x1F DUP4 ADD AND SWAP1 POP SWAP2 SWAP1 POP JUMP JUMPDEST PUSH32 0x4E487B7100000000000000000000000000000000000000000000000000000000 PUSH1 0x0 MSTORE PUSH1 0x41 PUSH1 0x4 MSTORE PUSH1 0x24 PUSH1 0x0 REVERT JUMPDEST PUSH2 0x146C DUP3 PUSH2 0x1423 JUMP JUMPDEST DUP2 ADD DUP2 DUP2 LT PUSH8 0xFFFFFFFFFFFFFFFF DUP3 GT OR ISZERO PUSH2 0x148B JUMPI PUSH2 0x148A PUSH2 0x1434 JUMP JUMPDEST JUMPDEST DUP1 PUSH1 0x40 MSTORE POP POP POP JUMP JUMPDEST PUSH1 0x0 PUSH2 0x149E PUSH2 0x13D4 JUMP JUMPDEST SWAP1 POP PUSH2 0x14AA DUP3 DUP3 PUSH2 0x1463 JUMP JUMPDEST SWAP2 SWAP1 POP JUMP JUMPDEST PUSH1 0x0 PUSH8 0xFFFFFFFFFFFFFFFF DUP3 GT ISZERO PUSH2 0x14CA JUMPI PUSH2 0x14C9 PUSH2 0x1434 JUMP JUMPDEST JUMPDEST PUSH1 0x20 DUP3 MUL SWAP1 POP PUSH1 0x20 DUP2 ADD SWAP1 POP SWAP2 SWAP1 POP JUMP JUMPDEST PUSH1 0x0 DUP1 REVERT JUMPDEST PUSH1 0x0 PUSH2 0x14F3 PUSH2 0x14EE DUP5 PUSH2 0x14AF JUMP JUMPDEST PUSH2 0x1494 JUMP JUMPDEST SWAP1 POP DUP1 DUP4 DUP3 MSTORE PUSH1 0x20 DUP3 ADD SWAP1 POP PUSH1 0x20 DUP5 MUL DUP4 ADD DUP6 DUP2 GT ISZERO PUSH2 0x1516 JUMPI PUSH2 0x1515 PUSH2 0x14DB JUMP JUMPDEST JUMPDEST DUP4 JUMPDEST DUP2 DUP2 LT ISZERO PUSH2 0x153F JUMPI DUP1 PUSH2 0x152B DUP9 DUP3 PUSH2 0x1409 JUMP JUMPDEST DUP5 MSTORE PUSH1 0x20 DUP5 ADD SWAP4 POP POP PUSH1 0x20 DUP2 ADD SWAP1 POP PUSH2 0x1518 JUMP JUMPDEST POP POP POP SWAP4 SWAP3 POP POP POP JUMP JUMPDEST PUSH1 0x0 DUP3 PUSH1 0x1F DUP4 ADD SLT PUSH2 0x155E JUMPI PUSH2 0x155D PUSH2 0x141E JUMP JUMPDEST JUMPDEST DUP2 CALLDATALOAD PUSH2 0x156E DUP5 DUP3 PUSH1 0x20 DUP7 ADD PUSH2 0x14E0 JUMP JUMPDEST SWAP2 POP POP SWAP3 SWAP2 POP POP JUMP JUMPDEST PUSH1 0x0 DUP1 PUSH1 0x40 DUP4 DUP6 SUB SLT ISZERO PUSH2 0x158E JUMPI PUSH2 0x158D PUSH2 0x13DE JUMP JUMPDEST JUMPDEST PUSH1 0x0 PUSH2 0x159C DUP6 DUP3 DUP7 ADD PUSH2 0x1409 JUMP JUMPDEST SWAP3 POP POP PUSH1 0x20 DUP4 ADD CALLDATALOAD PUSH8 0xFFFFFFFFFFFFFFFF DUP2 GT ISZERO PUSH2 0x15BD JUMPI PUSH2 0x15BC PUSH2 0x13E3 JUMP JUMPDEST JUMPDEST PUSH2 0x15C9 DUP6 DUP3 DUP7 ADD PUSH2 0x1549 JUMP JUMPDEST SWAP2 POP POP SWAP3 POP SWAP3 SWAP1 POP JUMP JUMPDEST PUSH1 0x0 PUSH4 0xFFFFFFFF DUP3 AND SWAP1 POP SWAP2 SWAP1 POP JUMP JUMPDEST PUSH2 0x15EC DUP2 PUSH2 0x15D3 JUMP JUMPDEST DUP2 EQ PUSH2 0x15F7 JUMPI PUSH1 0x0 DUP1 REVERT JUMPDEST POP JUMP JUMPDEST PUSH1 0x0 DUP2 CALLDATALOAD SWAP1 POP PUSH2 0x1609 DUP2 PUSH2 0x15E3 JUMP JUMPDEST SWAP3 SWAP2 POP POP JUMP JUMPDEST PUSH1 0x0 PUSH1 0x20 DUP3 DUP5 SUB SLT ISZERO PUSH2 0x1625 JUMPI PUSH2 0x1624 PUSH2 0x13DE JUMP JUMPDEST JUMPDEST PUSH1 0x0 PUSH2 0x1633 DUP5 DUP3 DUP6 ADD PUSH2 0x15FA JUMP JUMPDEST SWAP2 POP POP SWAP3 SWAP2 POP POP JUMP JUMPDEST PUSH2 0x1645 DUP2 PUSH2 0x15D3 JUMP JUMPDEST DUP3 MSTORE POP POP JUMP JUMPDEST PUSH1 0x0 PUSH1 0x60 DUP3 ADD SWAP1 POP PUSH2 0x1660 PUSH1 0x0 DUP4 ADD DUP7 PUSH2 0x163C JUMP JUMPDEST PUSH2 0x166D PUSH1 0x20 DUP4 ADD DUP6 PUSH2 0x163C JUMP JUMPDEST PUSH2 0x167A PUSH1 0x40 DUP4 ADD DUP5 PUSH2 0x163C JUMP JUMPDEST SWAP5 SWAP4 POP POP POP POP JUMP JUMPDEST PUSH1 0x0 PUSH20 0xFFFFFFFFFFFFFFFFFFFFFFFFFFFFFFFFFFFFFFFF DUP3 AND SWAP1 POP SWAP2 SWAP1 POP JUMP JUMPDEST PUSH1 0x0 PUSH2 0x16AD DUP3 PUSH2 0x1682 JUMP JUMPDEST SWAP1 POP SWAP2 SWAP1 POP JUMP JUMPDEST PUSH2 0x16BD DUP2 PUSH2 0x16A2 JUMP JUMPDEST DUP2 EQ PUSH2 0x16C8 JUMPI PUSH1 0x0 DUP1 REVERT JUMPDEST POP JUMP JUMPDEST PUSH1 0x0 DUP2 CALLDATALOAD SWAP1 POP PUSH2 0x16DA DUP2 PUSH2 0x16B4 JUMP JUMPDEST SWAP3 SWAP2 POP POP JUMP JUMPDEST PUSH1 0x0 PUSH1 0x20 DUP3 DUP5 SUB SLT ISZERO PUSH2 0x16F6 JUMPI PUSH2 0x16F5 PUSH2 0x13DE JUMP JUMPDEST JUMPDEST PUSH1 0x0 PUSH2 0x1704 DUP5 DUP3 DUP6 ADD PUSH2 0x16CB JUMP JUMPDEST SWAP2 POP POP SWAP3 SWAP2 POP POP JUMP JUMPDEST PUSH1 0x0 DUP2 MLOAD SWAP1 POP SWAP2 SWAP1 POP JUMP JUMPDEST PUSH1 0x0 DUP3 DUP3 MSTORE PUSH1 0x20 DUP3 ADD SWAP1 POP SWAP3 SWAP2 POP POP JUMP JUMPDEST PUSH1 0x0 JUMPDEST DUP4 DUP2 LT ISZERO PUSH2 0x1747 JUMPI DUP1 DUP3 ADD MLOAD DUP2 DUP5 ADD MSTORE PUSH1 0x20 DUP2 ADD SWAP1 POP PUSH2 0x172C JUMP JUMPDEST PUSH1 0x0 DUP5 DUP5 ADD MSTORE POP POP POP POP JUMP JUMPDEST PUSH1 0x0 PUSH2 0x175E DUP3 PUSH2 0x170D JUMP JUMPDEST PUSH2 0x1768 DUP2 DUP6 PUSH2 0x1718 JUMP JUMPDEST SWAP4 POP PUSH2 0x1778 DUP2 DUP6 PUSH1 0x20 DUP7 ADD PUSH2 0x1729 JUMP JUMPDEST PUSH2 0x1781 DUP2 PUSH2 0x1423 JUMP JUMPDEST DUP5 ADD SWAP2 POP POP SWAP3 SWAP2 POP POP JUMP JUMPDEST PUSH1 0x0 PUSH1 0xA0 DUP3 ADD SWAP1 POP PUSH2 0x17A1 PUSH1 0x0 DUP4 ADD DUP9 PUSH2 0x163C JUMP JUMPDEST PUSH2 0x17AE PUSH1 0x20 DUP4 ADD DUP8 PUSH2 0x163C JUMP JUMPDEST PUSH2 0x17BB PUSH1 0x40 DUP4 ADD DUP7 PUSH2 0x163C JUMP JUMPDEST PUSH2 0x17C8 PUSH1 0x60 DUP4 ADD DUP6 PUSH2 0x163C JUMP JUMPDEST DUP2 DUP2 SUB PUSH1 0x80 DUP4 ADD MSTORE PUSH2 0x17DA DUP2 DUP5 PUSH2 0x1753 JUMP JUMPDEST SWAP1 POP SWAP7 SWAP6 POP POP POP POP POP POP JUMP JUMPDEST PUSH1 0x0 DUP2 MLOAD SWAP1 POP SWAP2 SWAP1 POP JUMP JUMPDEST PUSH1 0x0 DUP3 DUP3 MSTORE PUSH1 0x20 DUP3 ADD SWAP1 POP SWAP3 SWAP2 POP POP JUMP JUMPDEST PUSH1 0x0 DUP2 SWAP1 POP PUSH1 0x20 DUP3 ADD SWAP1 POP SWAP2 SWAP1 POP JUMP JUMPDEST PUSH2 0x181B DUP2 PUSH2 0x15D3 JUMP JUMPDEST DUP3 MSTORE POP POP JUMP JUMPDEST PUSH1 0x0 DUP2 ISZERO ISZERO SWAP1 POP SWAP2 SWAP1 POP JUMP JUMPDEST PUSH2 0x1836 DUP2 PUSH2 0x1821 JUMP JUMPDEST DUP3 MSTORE POP POP JUMP JUMPDEST PUSH1 0x0 DUP3 DUP3 MSTORE PUSH1 0x20 DUP3 ADD SWAP1 POP SWAP3 SWAP2 POP POP JUMP JUMPDEST PUSH1 0x0 PUSH2 0x1858 DUP3 PUSH2 0x170D JUMP JUMPDEST PUSH2 0x1862 DUP2 DUP6 PUSH2 0x183C JUMP JUMPDEST SWAP4 POP PUSH2 0x1872 DUP2 DUP6 PUSH1 0x20 DUP7 ADD PUSH2 0x1729 JUMP JUMPDEST PUSH2 0x187B DUP2 PUSH2 0x1423 JUMP JUMPDEST DUP5 ADD SWAP2 POP POP SWAP3 SWAP2 POP POP JUMP JUMPDEST PUSH1 0x0 PUSH1 0xC0 DUP4 ADD PUSH1 0x0 DUP4 ADD MLOAD PUSH2 0x189E PUSH1 0x0 DUP7 ADD DUP3 PUSH2 0x1812 JUMP JUMPDEST POP PUSH1 0x20 DUP4 ADD MLOAD PUSH2 0x18B1 PUSH1 0x20 DUP7 ADD DUP3 PUSH2 0x1812 JUMP JUMPDEST POP PUSH1 0x40 DUP4 ADD MLOAD PUSH2 0x18C4 PUSH1 0x40 DUP7 ADD DUP3 PUSH2 0x1812 JUMP JUMPDEST POP PUSH1 0x60 DUP4 ADD MLOAD PUSH2 0x18D7 PUSH1 0x60 DUP7 ADD DUP3 PUSH2 0x1812 JUMP JUMPDEST POP PUSH1 0x80 DUP4 ADD MLOAD PUSH2 0x18EA PUSH1 0x80 DUP7 ADD DUP3 PUSH2 0x182D JUMP JUMPDEST POP PUSH1 0xA0 DUP4 ADD MLOAD DUP5 DUP3 SUB PUSH1 0xA0 DUP7 ADD MSTORE PUSH2 0x1902 DUP3 DUP3 PUSH2 0x184D JUMP JUMPDEST SWAP2 POP POP DUP1 SWAP2 POP POP SWAP3 SWAP2 POP POP JUMP JUMPDEST PUSH1 0x0 PUSH2 0x191B DUP4 DUP4 PUSH2 0x1886 JUMP JUMPDEST SWAP1 POP SWAP3 SWAP2 POP POP JUMP JUMPDEST PUSH1 0x0 PUSH1 0x20 DUP3 ADD SWAP1 POP SWAP2 SWAP1 POP JUMP JUMPDEST PUSH1 0x0 PUSH2 0x193B DUP3 PUSH2 0x17E6 JUMP JUMPDEST PUSH2 0x1945 DUP2 DUP6 PUSH2 0x17F1 JUMP JUMPDEST SWAP4 POP DUP4 PUSH1 0x20 DUP3 MUL DUP6 ADD PUSH2 0x1957 DUP6 PUSH2 0x1802 JUMP JUMPDEST DUP1 PUSH1 0x0 JUMPDEST DUP6 DUP2 LT ISZERO PUSH2 0x1993 JUMPI DUP5 DUP5 SUB DUP10 MSTORE DUP2 MLOAD PUSH2 0x1974 DUP6 DUP3 PUSH2 0x190F JUMP JUMPDEST SWAP5 POP PUSH2 0x197F DUP4 PUSH2 0x1923 JUMP JUMPDEST SWAP3 POP PUSH1 0x20 DUP11 ADD SWAP10 POP POP PUSH1 0x1 DUP2 ADD SWAP1 POP PUSH2 0x195B JUMP JUMPDEST POP DUP3 SWAP8 POP DUP8 SWAP6 POP POP POP POP POP POP SWAP3 SWAP2 POP POP JUMP JUMPDEST PUSH1 0x0 PUSH1 0x20 DUP3 ADD SWAP1 POP DUP2 DUP2 SUB PUSH1 0x0 DUP4 ADD MSTORE PUSH2 0x19BF DUP2 DUP5 PUSH2 0x1930 JUMP JUMPDEST SWAP1 POP SWAP3 SWAP2 POP POP JUMP JUMPDEST PUSH1 0x0 DUP1 REVERT JUMPDEST PUSH1 0x0 PUSH8 0xFFFFFFFFFFFFFFFF DUP3 GT ISZERO PUSH2 0x19E7 JUMPI PUSH2 0x19E6 PUSH2 0x1434 JUMP JUMPDEST JUMPDEST PUSH2 0x19F0 DUP3 PUSH2 0x1423 JUMP JUMPDEST SWAP1 POP PUSH1 0x20 DUP2 ADD SWAP1 POP SWAP2 SWAP1 POP JUMP JUMPDEST DUP3 DUP2 DUP4 CALLDATACOPY PUSH1 0x0 DUP4 DUP4 ADD MSTORE POP POP POP JUMP JUMPDEST PUSH1 0x0 PUSH2 0x1A1F PUSH2 0x1A1A DUP5 PUSH2 0x19CC JUMP JUMPDEST PUSH2 0x1494 JUMP JUMPDEST SWAP1 POP DUP3 DUP2 MSTORE PUSH1 0x20 DUP2 ADD DUP5 DUP5 DUP5 ADD GT ISZERO PUSH2 0x1A3B JUMPI PUSH2 0x1A3A PUSH2 0x19C7 JUMP JUMPDEST JUMPDEST PUSH2 0x1A46 DUP5 DUP3 DUP6 PUSH2 0x19FD JUMP JUMPDEST POP SWAP4 SWAP3 POP POP POP JUMP JUMPDEST PUSH1 0x0 DUP3 PUSH1 0x1F DUP4 ADD SLT PUSH2 0x1A63 JUMPI PUSH2 0x1A62 PUSH2 0x141E JUMP JUMPDEST JUMPDEST DUP2 CALLDATALOAD PUSH2 0x1A73 DUP5 DUP3 PUSH1 0x20 DUP7 ADD PUSH2 0x1A0C JUMP JUMPDEST SWAP2 POP POP SWAP3 SWAP2 POP POP JUMP JUMPDEST PUSH1 0x0 PUSH1 0x20 DUP3 DUP5 SUB SLT ISZERO PUSH2 0x1A92 JUMPI PUSH2 0x1A91 PUSH2 0x13DE JUMP JUMPDEST JUMPDEST PUSH1 0x0 DUP3 ADD CALLDATALOAD PUSH8 0xFFFFFFFFFFFFFFFF DUP2 GT ISZERO PUSH2 0x1AB0 JUMPI PUSH2 0x1AAF PUSH2 0x13E3 JUMP JUMPDEST JUMPDEST PUSH2 0x1ABC DUP5 DUP3 DUP6 ADD PUSH2 0x1A4E JUMP JUMPDEST SWAP2 POP POP SWAP3 SWAP2 POP POP JUMP JUMPDEST PUSH2 0x1ACE DUP2 PUSH2 0x16A2 JUMP JUMPDEST DUP3 MSTORE POP POP JUMP JUMPDEST PUSH1 0x0 PUSH1 0x40 DUP3 ADD SWAP1 POP PUSH2 0x1AE9 PUSH1 0x0 DUP4 ADD DUP6 PUSH2 0x1AC5 JUMP JUMPDEST PUSH2 0x1AF6 PUSH1 0x20 DUP4 ADD DUP5 PUSH2 0x1AC5 JUMP JUMPDEST SWAP4 SWAP3 POP POP POP JUMP JUMPDEST PUSH32 0x596F75722070726576696F7573207475726E206973207374696C6C20696E2070 PUSH1 0x0 DUP3 ADD MSTORE PUSH32 0x726F677265737300000000000000000000000000000000000000000000000000 PUSH1 0x20 DUP3 ADD MSTORE POP JUMP JUMPDEST PUSH1 0x0 PUSH2 0x1B59 PUSH1 0x27 DUP4 PUSH2 0x1718 JUMP JUMPDEST SWAP2 POP PUSH2 0x1B64 DUP3 PUSH2 0x1AFD JUMP JUMPDEST PUSH1 0x40 DUP3 ADD SWAP1 POP SWAP2 SWAP1 POP JUMP JUMPDEST PUSH1 0x0 PUSH1 0x20 DUP3 ADD SWAP1 POP DUP2 DUP2 SUB PUSH1 0x0 DUP4 ADD MSTORE PUSH2 0x1B88 DUP2 PUSH2 0x1B4C JUMP JUMPDEST SWAP1 POP SWAP2 SWAP1 POP JUMP JUMPDEST PUSH32 0x47616D65206F7665720000000000000000000000000000000000000000000000 PUSH1 0x0 DUP3 ADD MSTORE POP JUMP JUMPDEST PUSH1 0x0 PUSH2 0x1BC5 PUSH1 0x9 DUP4 PUSH2 0x1718 JUMP JUMPDEST SWAP2 POP PUSH2 0x1BD0 DUP3 PUSH2 0x1B8F JUMP JUMPDEST PUSH1 0x20 DUP3 ADD SWAP1 POP SWAP2 SWAP1 POP JUMP JUMPDEST PUSH1 0x0 PUSH1 0x20 DUP3 ADD SWAP1 POP DUP2 DUP2 SUB PUSH1 0x0 DUP4 ADD MSTORE PUSH2 0x1BF4 DUP2 PUSH2 0x1BB8 JUMP JUMPDEST SWAP1 POP SWAP2 SWAP1 POP JUMP JUMPDEST PUSH1 0x0 DUP2 SWAP1 POP SWAP2 SWAP1 POP JUMP JUMPDEST PUSH2 0x1C0E DUP2 PUSH2 0x1BFB JUMP JUMPDEST DUP3 MSTORE POP POP JUMP JUMPDEST PUSH1 0x0 PUSH8 0xFFFFFFFFFFFFFFFF DUP3 AND SWAP1 POP SWAP2 SWAP1 POP JUMP JUMPDEST PUSH2 0x1C31 DUP2 PUSH2 0x1C14 JUMP JUMPDEST DUP3 MSTORE POP POP JUMP JUMPDEST PUSH1 0x0 PUSH2 0xFFFF DUP3 AND SWAP1 POP SWAP2 SWAP1 POP JUMP JUMPDEST PUSH2 0x1C4E DUP2 PUSH2 0x1C37 JUMP JUMPDEST DUP3 MSTORE POP POP JUMP JUMPDEST PUSH1 0x0 PUSH1 0xA0 DUP3 ADD SWAP1 POP PUSH2 0x1C69 PUSH1 0x0 DUP4 ADD DUP9 PUSH2 0x1C05 JUMP JUMPDEST PUSH2 0x1C76 PUSH1 0x20 DUP4 ADD DUP8 PUSH2 0x1C28 JUMP JUMPDEST PUSH2 0x1C83 PUSH1 0x40 DUP4 ADD DUP7 PUSH2 0x1C45 JUMP JUMPDEST PUSH2 0x1C90 PUSH1 0x60 DUP4 ADD DUP6 PUSH2 0x163C JUMP JUMPDEST PUSH2 0x1C9D PUSH1 0x80 DUP4 ADD DUP5 PUSH2 0x163C JUMP JUMPDEST SWAP7 SWAP6 POP POP POP POP POP POP JUMP JUMPDEST PUSH1 0x0 DUP2 MLOAD SWAP1 POP PUSH2 0x1CB6 DUP2 PUSH2 0x13F2 JUMP JUMPDEST SWAP3 SWAP2 POP POP JUMP JUMPDEST PUSH1 0x0 PUSH1 0x20 DUP3 DUP5 SUB SLT ISZERO PUSH2 0x1CD2 JUMPI PUSH2 0x1CD1 PUSH2 0x13DE JUMP JUMPDEST JUMPDEST PUSH1 0x0 PUSH2 0x1CE0 DUP5 DUP3 DUP6 ADD PUSH2 0x1CA7 JUMP JUMPDEST SWAP2 POP POP SWAP3 SWAP2 POP POP JUMP JUMPDEST PUSH32 0x4E487B7100000000000000000000000000000000000000000000000000000000 PUSH1 0x0 MSTORE PUSH1 0x22 PUSH1 0x4 MSTORE PUSH1 0x24 PUSH1 0x0 REVERT JUMPDEST PUSH1 0x0 PUSH1 0x2 DUP3 DIV SWAP1 POP PUSH1 0x1 DUP3 AND DUP1 PUSH2 0x1D30 JUMPI PUSH1 0x7F DUP3 AND SWAP2 POP JUMPDEST PUSH1 0x20 DUP3 LT DUP2 SUB PUSH2 0x1D43 JUMPI PUSH2 0x1D42 PUSH2 0x1CE9 JUMP JUMPDEST JUMPDEST POP SWAP2 SWAP1 POP JUMP JUMPDEST PUSH32 0x4E487B7100000000000000000000000000000000000000000000000000000000 PUSH1 0x0 MSTORE PUSH1 0x32 PUSH1 0x4 MSTORE PUSH1 0x24 PUSH1 0x0 REVERT JUMPDEST PUSH32 0x416C726561647920726567697374657265640000000000000000000000000000 PUSH1 0x0 DUP3 ADD MSTORE POP JUMP JUMPDEST PUSH1 0x0 PUSH2 0x1DAE PUSH1 0x12 DUP4 PUSH2 0x1718 JUMP JUMPDEST SWAP2 POP PUSH2 0x1DB9 DUP3 PUSH2 0x1D78 JUMP JUMPDEST PUSH1 0x20 DUP3 ADD SWAP1 POP SWAP2 SWAP1 POP JUMP JUMPDEST PUSH1 0x0 PUSH1 0x20 DUP3 ADD SWAP1 POP DUP2 DUP2 SUB PUSH1 0x0 DUP4 ADD MSTORE PUSH2 0x1DDD DUP2 PUSH2 0x1DA1 JUMP JUMPDEST SWAP1 POP SWAP2 SWAP1 POP JUMP JUMPDEST PUSH1 0x0 DUP2 SWAP1 POP DUP2 PUSH1 0x0 MSTORE PUSH1 0x20 PUSH1 0x0 KECCAK256 SWAP1 POP SWAP2 SWAP1 POP JUMP JUMPDEST PUSH1 0x0 PUSH1 0x20 PUSH1 0x1F DUP4 ADD DIV SWAP1 POP SWAP2 SWAP1 POP JUMP JUMPDEST PUSH1 0x0 DUP3 DUP3 SHL SWAP1 POP SWAP3 SWAP2 POP POP JUMP JUMPDEST PUSH1 0x0 PUSH1 0x8 DUP4 MUL PUSH2 0x1E46 PUSH32 0xFFFFFFFFFFFFFFFFFFFFFFFFFFFFFFFFFFFFFFFFFFFFFFFFFFFFFFFFFFFFFFFF DUP3 PUSH2 0x1E09 JUMP JUMPDEST PUSH2 0x1E50 DUP7 DUP4 PUSH2 0x1E09 JUMP JUMPDEST SWAP6 POP DUP1 NOT DUP5 AND SWAP4 POP DUP1 DUP7 AND DUP5 OR SWAP3 POP POP POP SWAP4 SWAP3 POP POP POP JUMP JUMPDEST PUSH1 0x0 DUP2 SWAP1 POP SWAP2 SWAP1 POP JUMP JUMPDEST PUSH1 0x0 PUSH2 0x1E8D PUSH2 0x1E88 PUSH2 0x1E83 DUP5 PUSH2 0x13E8 JUMP JUMPDEST PUSH2 0x1E68 JUMP JUMPDEST PUSH2 0x13E8 JUMP JUMPDEST SWAP1 POP SWAP2 SWAP1 POP JUMP JUMPDEST PUSH1 0x0 DUP2 SWAP1 POP SWAP2 SWAP1 POP JUMP JUMPDEST PUSH2 0x1EA7 DUP4 PUSH2 0x1E72 JUMP JUMPDEST PUSH2 0x1EBB PUSH2 0x1EB3 DUP3 PUSH2 0x1E94 JUMP JUMPDEST DUP5 DUP5 SLOAD PUSH2 0x1E16 JUMP JUMPDEST DUP3 SSTORE POP POP POP POP JUMP JUMPDEST PUSH1 0x0 SWAP1 JUMP JUMPDEST PUSH2 0x1ED0 PUSH2 0x1EC3 JUMP JUMPDEST PUSH2 0x1EDB DUP2 DUP5 DUP5 PUSH2 0x1E9E JUMP JUMPDEST POP POP POP JUMP JUMPDEST JUMPDEST DUP2 DUP2 LT ISZERO PUSH2 0x1EFF JUMPI PUSH2 0x1EF4 PUSH1 0x0 DUP3 PUSH2 0x1EC8 JUMP JUMPDEST PUSH1 0x1 DUP2 ADD SWAP1 POP PUSH2 0x1EE1 JUMP JUMPDEST POP POP JUMP JUMPDEST PUSH1 0x1F DUP3 GT ISZERO PUSH2 0x1F44 JUMPI PUSH2 0x1F15 DUP2 PUSH2 0x1DE4 JUMP JUMPDEST PUSH2 0x1F1E DUP5 PUSH2 0x1DF9 JUMP JUMPDEST DUP2 ADD PUSH1 0x20 DUP6 LT ISZERO PUSH2 0x1F2D JUMPI DUP2 SWAP1 POP JUMPDEST PUSH2 0x1F41 PUSH2 0x1F39 DUP6 PUSH2 0x1DF9 JUMP JUMPDEST DUP4 ADD DUP3 PUSH2 0x1EE0 JUMP JUMPDEST POP POP JUMPDEST POP POP POP JUMP JUMPDEST PUSH1 0x0 DUP3 DUP3 SHR SWAP1 POP SWAP3 SWAP2 POP POP JUMP JUMPDEST PUSH1 0x0 PUSH2 0x1F67 PUSH1 0x0 NOT DUP5 PUSH1 0x8 MUL PUSH2 0x1F49 JUMP JUMPDEST NOT DUP1 DUP4 AND SWAP2 POP POP SWAP3 SWAP2 POP POP JUMP JUMPDEST PUSH1 0x0 PUSH2 0x1F80 DUP4 DUP4 PUSH2 0x1F56 JUMP JUMPDEST SWAP2 POP DUP3 PUSH1 0x2 MUL DUP3 OR SWAP1 POP SWAP3 SWAP2 POP POP JUMP JUMPDEST PUSH2 0x1F99 DUP3 PUSH2 0x170D JUMP JUMPDEST PUSH8 0xFFFFFFFFFFFFFFFF DUP2 GT ISZERO PUSH2 0x1FB2 JUMPI PUSH2 0x1FB1 PUSH2 0x1434 JUMP JUMPDEST JUMPDEST PUSH2 0x1FBC DUP3 SLOAD PUSH2 0x1D18 JUMP JUMPDEST PUSH2 0x1FC7 DUP3 DUP3 DUP6 PUSH2 0x1F03 JUMP JUMPDEST PUSH1 0x0 PUSH1 0x20 SWAP1 POP PUSH1 0x1F DUP4 GT PUSH1 0x1 DUP2 EQ PUSH2 0x1FFA JUMPI PUSH1 0x0 DUP5 ISZERO PUSH2 0x1FE8 JUMPI DUP3 DUP8 ADD MLOAD SWAP1 POP JUMPDEST PUSH2 0x1FF2 DUP6 DUP3 PUSH2 0x1F74 JUMP JUMPDEST DUP7 SSTORE POP PUSH2 0x205A JUMP JUMPDEST PUSH1 0x1F NOT DUP5 AND PUSH2 0x2008 DUP7 PUSH2 0x1DE4 JUMP JUMPDEST PUSH1 0x0 JUMPDEST DUP3 DUP2 LT ISZERO PUSH2 0x2030 JUMPI DUP5 DUP10 ADD MLOAD DUP3 SSTORE PUSH1 0x1 DUP3 ADD SWAP2 POP PUSH1 0x20 DUP6 ADD SWAP5 POP PUSH1 0x20 DUP2 ADD SWAP1 POP PUSH2 0x200B JUMP JUMPDEST DUP7 DUP4 LT ISZERO PUSH2 0x204D JUMPI DUP5 DUP10 ADD MLOAD PUSH2 0x2049 PUSH1 0x1F DUP10 AND DUP3 PUSH2 0x1F56 JUMP JUMPDEST DUP4 SSTORE POP JUMPDEST PUSH1 0x1 PUSH1 0x2 DUP9 MUL ADD DUP9 SSTORE POP POP POP JUMPDEST POP POP POP POP POP POP JUMP JUMPDEST PUSH1 0x0 DUP2 SWAP1 POP SWAP3 SWAP2 POP POP JUMP JUMPDEST PUSH1 0x0 PUSH2 0x2078 DUP3 PUSH2 0x170D JUMP JUMPDEST PUSH2 0x2082 DUP2 DUP6 PUSH2 0x2062 JUMP JUMPDEST SWAP4 POP PUSH2 0x2092 DUP2 DUP6 PUSH1 0x20 DUP7 ADD PUSH2 0x1729 JUMP JUMPDEST DUP1 DUP5 ADD SWAP2 POP POP SWAP3 SWAP2 POP POP JUMP JUMPDEST PUSH1 0x0 PUSH2 0x20AA DUP3 DUP5 PUSH2 0x206D JUMP JUMPDEST SWAP2 POP DUP2 SWAP1 POP SWAP3 SWAP2 POP POP JUMP JUMPDEST PUSH32 0x4E487B7100000000000000000000000000000000000000000000000000000000 PUSH1 0x0 MSTORE PUSH1 0x12 PUSH1 0x4 MSTORE PUSH1 0x24 PUSH1 0x0 REVERT JUMPDEST PUSH1 0x0 PUSH2 0x20EF DUP3 PUSH2 0x13E8 JUMP JUMPDEST SWAP2 POP PUSH2 0x20FA DUP4 PUSH2 0x13E8 JUMP JUMPDEST SWAP3 POP DUP3 PUSH2 0x210A JUMPI PUSH2 0x2109 PUSH2 0x20B5 JUMP JUMPDEST JUMPDEST DUP3 DUP3 MOD SWAP1 POP SWAP3 SWAP2 POP POP JUMP JUMPDEST PUSH32 0x4E487B7100000000000000000000000000000000000000000000000000000000 PUSH1 0x0 MSTORE PUSH1 0x11 PUSH1 0x4 MSTORE PUSH1 0x24 PUSH1 0x0 REVERT JUMPDEST PUSH1 0x0 PUSH2 0x214F DUP3 PUSH2 0x13E8 JUMP JUMPDEST SWAP2 POP PUSH2 0x215A DUP4 PUSH2 0x13E8 JUMP JUMPDEST SWAP3 POP DUP3 DUP3 ADD SWAP1 POP DUP1 DUP3 GT ISZERO PUSH2 0x2172 JUMPI PUSH2 0x2171 PUSH2 0x2115 JUMP JUMPDEST JUMPDEST SWAP3 SWAP2 POP POP JUMP JUMPDEST PUSH1 0x0 PUSH2 0x2183 DUP3 PUSH2 0x15D3 JUMP JUMPDEST SWAP2 POP PUSH2 0x218E DUP4 PUSH2 0x15D3 JUMP JUMPDEST SWAP3 POP DUP3 DUP3 ADD SWAP1 POP PUSH4 0xFFFFFFFF DUP2 GT ISZERO PUSH2 0x21AA JUMPI PUSH2 0x21A9 PUSH2 0x2115 JUMP JUMPDEST JUMPDEST SWAP3 SWAP2 POP POP JUMP INVALID LOG2 PUSH5 0x6970667358 0x22 SLT KECCAK256 SELFDESTRUCT PUSH7 0xEEBC925C97F737 NUMBER 0xDF PUSH16 0x31E96E4D673195DAB9F2CF0F107D7C07 0xDE 0xBF 0x1E 0xF8 PUSH5 0x736F6C6343 STOP ADDMOD SGT STOP CALLER "
				},
				"gasEstimates": {
					"creation": {
						"codeDepositCost": "1735600",
						"executionCost": "infinite",
						"totalCost": "infinite"
					},
					"external": {
						"getAllPlayers()": "infinite",
						"getReward(uint32)": "infinite",
						"getScore(address)": "infinite",
						"rawFulfillRandomWords(uint256,uint256[])": "infinite",
						"register(string)": "infinite",
						"roleDice()": "infinite"
					},
					"internal": {
						"fulfillRandomWords(uint256,uint256[] memory)": "infinite"
					}
				},
				"methodIdentifiers": {
					"getAllPlayers()": "efa1c482",
					"getReward(uint32)": "2f0c2c7c",
					"getScore(address)": "d47875d0",
					"rawFulfillRandomWords(uint256,uint256[])": "1fe543e3",
					"register(string)": "f2c298be",
					"roleDice()": "c7b3c11e"
				}
			},
			"storageLayout": {
				"storage": [
					{
						"astId": 192,
						"contract": "hola.sol:BoardGame",
						"label": "players",
						"offset": 0,
						"slot": "0",
						"type": "t_mapping(t_address,t_struct(Profile)174_storage)"
					},
					{
						"astId": 196,
						"contract": "hola.sol:BoardGame",
						"label": "requestIds",
						"offset": 0,
						"slot": "1",
						"type": "t_mapping(t_uint256,t_address)"
					},
					{
						"astId": 199,
						"contract": "hola.sol:BoardGame",
						"label": "playerAddresses",
						"offset": 0,
						"slot": "2",
						"type": "t_array(t_address)dyn_storage"
					}
				],
				"types": {
					"t_address": {
						"encoding": "inplace",
						"label": "address",
						"numberOfBytes": "20"
					},
					"t_array(t_address)dyn_storage": {
						"base": "t_address",
						"encoding": "dynamic_array",
						"label": "address[]",
						"numberOfBytes": "32"
					},
					"t_bool": {
						"encoding": "inplace",
						"label": "bool",
						"numberOfBytes": "1"
					},
					"t_mapping(t_address,t_struct(Profile)174_storage)": {
						"encoding": "mapping",
						"key": "t_address",
						"label": "mapping(address => struct BoardGame.Profile)",
						"numberOfBytes": "32",
						"value": "t_struct(Profile)174_storage"
					},
					"t_mapping(t_uint256,t_address)": {
						"encoding": "mapping",
						"key": "t_uint256",
						"label": "mapping(uint256 => address)",
						"numberOfBytes": "32",
						"value": "t_address"
					},
					"t_string_storage": {
						"encoding": "bytes",
						"label": "string",
						"numberOfBytes": "32"
					},
					"t_struct(Profile)174_storage": {
						"encoding": "inplace",
						"label": "struct BoardGame.Profile",
						"members": [
							{
								"astId": 163,
								"contract": "hola.sol:BoardGame",
								"label": "fieldPosition",
								"offset": 0,
								"slot": "0",
								"type": "t_uint32"
							},
							{
								"astId": 165,
								"contract": "hola.sol:BoardGame",
								"label": "happiness",
								"offset": 4,
								"slot": "0",
								"type": "t_uint32"
							},
							{
								"astId": 167,
								"contract": "hola.sol:BoardGame",
								"label": "speed",
								"offset": 8,
								"slot": "0",
								"type": "t_uint32"
							},
							{
								"astId": 169,
								"contract": "hola.sol:BoardGame",
								"label": "wealth",
								"offset": 12,
								"slot": "0",
								"type": "t_uint32"
							},
							{
								"astId": 171,
								"contract": "hola.sol:BoardGame",
								"label": "isYourTurnInProgress",
								"offset": 16,
								"slot": "0",
								"type": "t_bool"
							},
							{
								"astId": 173,
								"contract": "hola.sol:BoardGame",
								"label": "name",
								"offset": 0,
								"slot": "1",
								"type": "t_string_storage"
							}
						],
						"numberOfBytes": "64"
					},
					"t_uint256": {
						"encoding": "inplace",
						"label": "uint256",
						"numberOfBytes": "32"
					},
					"t_uint32": {
						"encoding": "inplace",
						"label": "uint32",
						"numberOfBytes": "4"
					}
				}
			},
			"userdoc": {
				"kind": "user",
				"methods": {},
				"version": 1
			}
		}
	}
}