{
	"data": {
		"bytecode": {
			"linkReferences": {},
			"object": "6101606040523480156200001257600080fd5b506040516200254738038062002547833981810160405281019062000038919062000277565b838073ffffffffffffffffffffffffffffffffffffffff1660808173ffffffffffffffffffffffffffffffffffffffff1681525050508373ffffffffffffffffffffffffffffffffffffffff1660a08173ffffffffffffffffffffffffffffffffffffffff16815250508467ffffffffffffffff1660c08167ffffffffffffffff16815250508260e081815250508163ffffffff166101008163ffffffff16815250508061ffff166101208161ffff1681525050600163ffffffff166101408163ffffffff16815250505050505050620002ff565b600080fd5b600067ffffffffffffffff82169050919050565b620001318162000112565b81146200013d57600080fd5b50565b600081519050620001518162000126565b92915050565b600073ffffffffffffffffffffffffffffffffffffffff82169050919050565b6000620001848262000157565b9050919050565b620001968162000177565b8114620001a257600080fd5b50565b600081519050620001b6816200018b565b92915050565b6000819050919050565b620001d181620001bc565b8114620001dd57600080fd5b50565b600081519050620001f181620001c6565b92915050565b600063ffffffff82169050919050565b6200021281620001f7565b81146200021e57600080fd5b50565b600081519050620002328162000207565b92915050565b600061ffff82169050919050565b620002518162000238565b81146200025d57600080fd5b50565b600081519050620002718162000246565b92915050565b600080600080600060a086880312156200029657620002956200010d565b5b6000620002a68882890162000140565b9550506020620002b988828901620001a5565b9450506040620002cc88828901620001e0565b9350506060620002df8882890162000221565b9250506080620002f28882890162000260565b9150509295509295909350565b60805160a05160c05160e0516101005161012051610140516121e6620003616000396000610925015260006108e301526000610904015260006108a1015260006108c20152600061086501526000818161012f015261018301526121e66000f3fe608060405234801561001057600080fd5b50600436106100625760003560e01c80631fe543e3146100675780632f0c2c7c14610083578063c7b3c11e146100b5578063d47875d0146100bf578063efa1c482146100f3578063f2c298be14610111575b600080fd5b610081600480360381019061007c9190611577565b61012d565b005b61009d6004803603810190610098919061160f565b6101ed565b6040516100ac9392919061164b565b60405180910390f35b6100bd6106de565b005b6100d960048036038101906100d491906116e0565b610a41565b6040516100ea95949392919061178c565b60405180910390f35b6100fb610c08565b60405161010891906119a5565b60405180910390f35b61012b60048036038101906101269190611a7c565b610e75565b005b7f000000000000000000000000000000000000000000000000000000000000000073ffffffffffffffffffffffffffffffffffffffff163373ffffffffffffffffffffffffffffffffffffffff16146101df57337f00000000000000000000000000000000000000000000000000000000000000006040517f1cf993f40000000000000000000000000000000000000000000000000000000081526004016101d6929190611ad4565b60405180910390fd5b6101e98282611013565b5050565b6000806000808463ffffffff160361020f5760008060009250925092506106d7565b60018463ffffffff160361022d57600a6000809250925092506106d7565b60028463ffffffff160361024c576000600a60009250925092506106d7565b60038463ffffffff160361026a57600080600a9250925092506106d7565b60048463ffffffff160361028857600a8060009250925092506106d7565b60058463ffffffff16036102a757600a6000600a9250925092506106d7565b60068463ffffffff16036102c5576000600a809250925092506106d7565b60078463ffffffff16036102e357600a80600a9250925092506106d7565b60088463ffffffff160361030157600a6000809250925092506106d7565b60098463ffffffff1603610320576000600a60009250925092506106d7565b600a8463ffffffff160361033e57600080600a9250925092506106d7565b600b8463ffffffff160361035c57600a8060009250925092506106d7565b600c8463ffffffff160361037b57600a6000600a9250925092506106d7565b600d8463ffffffff1603610399576000600a809250925092506106d7565b600e8463ffffffff16036103b757600a80600a9250925092506106d7565b600f8463ffffffff16036103d557600a6000809250925092506106d7565b60108463ffffffff16036103f4576000600a60009250925092506106d7565b60118463ffffffff160361041257600080600a9250925092506106d7565b60128463ffffffff160361043057600a8060009250925092506106d7565b60138463ffffffff160361044f57600a6000600a9250925092506106d7565b60148463ffffffff160361046d576000600a809250925092506106d7565b60158463ffffffff160361048b57600a80600a9250925092506106d7565b60168463ffffffff16036104a957600a6000809250925092506106d7565b60178463ffffffff16036104c8576000600a60009250925092506106d7565b60188463ffffffff16036104e657600080600a9250925092506106d7565b60198463ffffffff160361050457600a8060009250925092506106d7565b601a8463ffffffff160361052357600a6000600a9250925092506106d7565b601b8463ffffffff1603610541576000600a809250925092506106d7565b601c8463ffffffff160361055f57600a80600a9250925092506106d7565b601d8463ffffffff160361057d57600a6000809250925092506106d7565b601e8463ffffffff160361059c576000600a60009250925092506106d7565b601f8463ffffffff16036105ba57600080600a9250925092506106d7565b60208463ffffffff16036105d857600a8060009250925092506106d7565b60218463ffffffff16036105f757600a6000600a9250925092506106d7565b60228463ffffffff1603610615576000600a809250925092506106d7565b60238463ffffffff160361063357600a80600a9250925092506106d7565b60248463ffffffff160361065157600a6000809250925092506106d7565b60258463ffffffff1603610670576000600a60009250925092506106d7565b60268463ffffffff160361068e57600080600a9250925092506106d7565b60278463ffffffff16036106ac57600a8060009250925092506106d7565b60288463ffffffff16036106cb57600a6000600a9250925092506106d7565b60008060009250925092505b9193909250565b6000803373ffffffffffffffffffffffffffffffffffffffff1673ffffffffffffffffffffffffffffffffffffffff16815260200190815260200160002060000160109054906101000a900460ff161561076d576040517f08c379a000000000000000000000000000000000000000000000000000000000815260040161076490611b6f565b60405180910390fd5b60286000803373ffffffffffffffffffffffffffffffffffffffff1673ffffffffffffffffffffffffffffffffffffffff16815260200190815260200160002060000160009054906101000a900463ffffffff1663ffffffff1610610807576040517f08c379a00000000000000000000000000000000000000000000000000000000081526004016107fe90611bdb565b60405180910390fd5b60016000803373ffffffffffffffffffffffffffffffffffffffff1673ffffffffffffffffffffffffffffffffffffffff16815260200190815260200160002060000160106101000a81548160ff02191690831515021790555060007f000000000000000000000000000000000000000000000000000000000000000073ffffffffffffffffffffffffffffffffffffffff16635d3b1d307f00000000000000000000000000000000000000000000000000000000000000007f00000000000000000000000000000000000000000000000000000000000000007f00000000000000000000000000000000000000000000000000000000000000007f00000000000000000000000000000000000000000000000000000000000000007f00000000000000000000000000000000000000000000000000000000000000006040518663ffffffff1660e01b8152600401610964959493929190611c54565b6020604051808303816000875af1158015610983573d6000803e3d6000fd5b505050506040513d601f19601f820116820180604052508101906109a79190611cbc565b9050336001600083815260200190815260200160002060006101000a81548173ffffffffffffffffffffffffffffffffffffffff021916908373ffffffffffffffffffffffffffffffffffffffff1602179055503373ffffffffffffffffffffffffffffffffffffffff167f41d1a459ab67bcb3138612c208da7ec5021c56ce9ffe7b8b209159f3446e1e9d60405160405180910390a250565b600080600080606060008060008873ffffffffffffffffffffffffffffffffffffffff1673ffffffffffffffffffffffffffffffffffffffff1681526020019081526020016000206040518060c00160405290816000820160009054906101000a900463ffffffff1663ffffffff1663ffffffff1681526020016000820160049054906101000a900463ffffffff1663ffffffff1663ffffffff1681526020016000820160089054906101000a900463ffffffff1663ffffffff1663ffffffff16815260200160008201600c9054906101000a900463ffffffff1663ffffffff1663ffffffff1681526020016000820160109054906101000a900460ff16151515158152602001600182018054610b5790611d18565b80601f0160208091040260200160405190810160405280929190818152602001828054610b8390611d18565b8015610bd05780601f10610ba557610100808354040283529160200191610bd0565b820191906000526020600020905b815481529060010190602001808311610bb357829003601f168201915b505050505081525050905080602001518160400151826060015183600001518460a00151955095509550955095505091939590929450565b60606000600280549050905060008167ffffffffffffffff811115610c3057610c2f611434565b5b604051908082528060200260200182016040528015610c6957816020015b610c56611384565b815260200190600190039081610c4e5790505b50905060005b82811015610e6c5760008060028381548110610c8e57610c8d611d49565b5b9060005260206000200160009054906101000a900473ffffffffffffffffffffffffffffffffffffffff1673ffffffffffffffffffffffffffffffffffffffff1673ffffffffffffffffffffffffffffffffffffffff1681526020019081526020016000206040518060c00160405290816000820160009054906101000a900463ffffffff1663ffffffff1663ffffffff1681526020016000820160049054906101000a900463ffffffff1663ffffffff1663ffffffff1681526020016000820160089054906101000a900463ffffffff1663ffffffff1663ffffffff16815260200160008201600c9054906101000a900463ffffffff1663ffffffff1663ffffffff1681526020016000820160109054906101000a900460ff16151515158152602001600182018054610dc190611d18565b80601f0160208091040260200160405190810160405280929190818152602001828054610ded90611d18565b8015610e3a5780601f10610e0f57610100808354040283529160200191610e3a565b820191906000526020600020905b815481529060010190602001808311610e1d57829003601f168201915b505050505081525050828281518110610e5657610e55611d49565b5b6020026020010181905250806001019050610c6f565b50809250505090565b60008060003373ffffffffffffffffffffffffffffffffffffffff1673ffffffffffffffffffffffffffffffffffffffff1681526020019081526020016000206001018054610ec390611d18565b905014610f05576040517f08c379a0000000000000000000000000000000000000000000000000000000008152600401610efc90611dc4565b60405180910390fd5b806000803373ffffffffffffffffffffffffffffffffffffffff1673ffffffffffffffffffffffffffffffffffffffff1681526020019081526020016000206001019081610f539190611f90565b506002339080600181540180825580915050600190039060005260206000200160009091909190916101000a81548173ffffffffffffffffffffffffffffffffffffffff021916908373ffffffffffffffffffffffffffffffffffffffff16021790555080604051610fc5919061209e565b60405180910390203373ffffffffffffffffffffffffffffffffffffffff167f81ef79d1cda814a60c0fc60792e648a06d9c6bae67176346d1cc8b63030bfccd60405160405180910390a350565b6000600160068360008151811061102d5761102c611d49565b5b602002602001015161103f91906120e4565b6110499190612144565b905060006001600085815260200190815260200160002060009054906101000a900473ffffffffffffffffffffffffffffffffffffffff169050816000808373ffffffffffffffffffffffffffffffffffffffff1673ffffffffffffffffffffffffffffffffffffffff16815260200190815260200160002060000160008282829054906101000a900463ffffffff166110e39190612178565b92506101000a81548163ffffffff021916908363ffffffff16021790555060008060006111606000808673ffffffffffffffffffffffffffffffffffffffff1673ffffffffffffffffffffffffffffffffffffffff16815260200190815260200160002060000160009054906101000a900463ffffffff166101ed565b925092509250826000808673ffffffffffffffffffffffffffffffffffffffff1673ffffffffffffffffffffffffffffffffffffffff16815260200190815260200160002060000160048282829054906101000a900463ffffffff166111c69190612178565b92506101000a81548163ffffffff021916908363ffffffff160217905550816000808673ffffffffffffffffffffffffffffffffffffffff1673ffffffffffffffffffffffffffffffffffffffff16815260200190815260200160002060000160088282829054906101000a900463ffffffff166112449190612178565b92506101000a81548163ffffffff021916908363ffffffff160217905550806000808673ffffffffffffffffffffffffffffffffffffffff1673ffffffffffffffffffffffffffffffffffffffff168152602001908152602001600020600001600c8282829054906101000a900463ffffffff166112c29190612178565b92506101000a81548163ffffffff021916908363ffffffff1602179055506000808573ffffffffffffffffffffffffffffffffffffffff1673ffffffffffffffffffffffffffffffffffffffff16815260200190815260200160002060000160009054906101000a900463ffffffff1663ffffffff163373ffffffffffffffffffffffffffffffffffffffff167f31141dd41deaf78e87c4165bec72fd6162afc0f21b75cc969cf032611285b38660405160405180910390a350505050505050565b6040518060c00160405280600063ffffffff168152602001600063ffffffff168152602001600063ffffffff168152602001600063ffffffff168152602001600015158152602001606081525090565b6000604051905090565b600080fd5b600080fd5b6000819050919050565b6113fb816113e8565b811461140657600080fd5b50565b600081359050611418816113f2565b92915050565b600080fd5b6000601f19601f8301169050919050565b7f4e487b7100000000000000000000000000000000000000000000000000000000600052604160045260246000fd5b61146c82611423565b810181811067ffffffffffffffff8211171561148b5761148a611434565b5b80604052505050565b600061149e6113d4565b90506114aa8282611463565b919050565b600067ffffffffffffffff8211156114ca576114c9611434565b5b602082029050602081019050919050565b600080fd5b60006114f36114ee846114af565b611494565b90508083825260208201905060208402830185811115611516576115156114db565b5b835b8181101561153f578061152b8882611409565b845260208401935050602081019050611518565b5050509392505050565b600082601f83011261155e5761155d61141e565b5b813561156e8482602086016114e0565b91505092915050565b6000806040838503121561158e5761158d6113de565b5b600061159c85828601611409565b925050602083013567ffffffffffffffff8111156115bd576115bc6113e3565b5b6115c985828601611549565b9150509250929050565b600063ffffffff82169050919050565b6115ec816115d3565b81146115f757600080fd5b50565b600081359050611609816115e3565b92915050565b600060208284031215611625576116246113de565b5b6000611633848285016115fa565b91505092915050565b611645816115d3565b82525050565b6000606082019050611660600083018661163c565b61166d602083018561163c565b61167a604083018461163c565b949350505050565b600073ffffffffffffffffffffffffffffffffffffffff82169050919050565b60006116ad82611682565b9050919050565b6116bd816116a2565b81146116c857600080fd5b50565b6000813590506116da816116b4565b92915050565b6000602082840312156116f6576116f56113de565b5b6000611704848285016116cb565b91505092915050565b600081519050919050565b600082825260208201905092915050565b60005b8381101561174757808201518184015260208101905061172c565b60008484015250505050565b600061175e8261170d565b6117688185611718565b9350611778818560208601611729565b61178181611423565b840191505092915050565b600060a0820190506117a1600083018861163c565b6117ae602083018761163c565b6117bb604083018661163c565b6117c8606083018561163c565b81810360808301526117da8184611753565b90509695505050505050565b600081519050919050565b600082825260208201905092915050565b6000819050602082019050919050565b61181b816115d3565b82525050565b60008115159050919050565b61183681611821565b82525050565b600082825260208201905092915050565b60006118588261170d565b611862818561183c565b9350611872818560208601611729565b61187b81611423565b840191505092915050565b600060c08301600083015161189e6000860182611812565b5060208301516118b16020860182611812565b5060408301516118c46040860182611812565b5060608301516118d76060860182611812565b5060808301516118ea608086018261182d565b5060a083015184820360a0860152611902828261184d565b9150508091505092915050565b600061191b8383611886565b905092915050565b6000602082019050919050565b600061193b826117e6565b61194581856117f1565b93508360208202850161195785611802565b8060005b858110156119935784840389528151611974858261190f565b945061197f83611923565b925060208a0199505060018101905061195b565b50829750879550505050505092915050565b600060208201905081810360008301526119bf8184611930565b905092915050565b600080fd5b600067ffffffffffffffff8211156119e7576119e6611434565b5b6119f082611423565b9050602081019050919050565b82818337600083830152505050565b6000611a1f611a1a846119cc565b611494565b905082815260208101848484011115611a3b57611a3a6119c7565b5b611a468482856119fd565b509392505050565b600082601f830112611a6357611a6261141e565b5b8135611a73848260208601611a0c565b91505092915050565b600060208284031215611a9257611a916113de565b5b600082013567ffffffffffffffff811115611ab057611aaf6113e3565b5b611abc84828501611a4e565b91505092915050565b611ace816116a2565b82525050565b6000604082019050611ae96000830185611ac5565b611af66020830184611ac5565b9392505050565b7f596f75722070726576696f7573207475726e206973207374696c6c20696e207060008201527f726f677265737300000000000000000000000000000000000000000000000000602082015250565b6000611b59602783611718565b9150611b6482611afd565b604082019050919050565b60006020820190508181036000830152611b8881611b4c565b9050919050565b7f47616d65206f7665720000000000000000000000000000000000000000000000600082015250565b6000611bc5600983611718565b9150611bd082611b8f565b602082019050919050565b60006020820190508181036000830152611bf481611bb8565b9050919050565b6000819050919050565b611c0e81611bfb565b82525050565b600067ffffffffffffffff82169050919050565b611c3181611c14565b82525050565b600061ffff82169050919050565b611c4e81611c37565b82525050565b600060a082019050611c696000830188611c05565b611c766020830187611c28565b611c836040830186611c45565b611c90606083018561163c565b611c9d608083018461163c565b9695505050505050565b600081519050611cb6816113f2565b92915050565b600060208284031215611cd257611cd16113de565b5b6000611ce084828501611ca7565b91505092915050565b7f4e487b7100000000000000000000000000000000000000000000000000000000600052602260045260246000fd5b60006002820490506001821680611d3057607f821691505b602082108103611d4357611d42611ce9565b5b50919050565b7f4e487b7100000000000000000000000000000000000000000000000000000000600052603260045260246000fd5b7f416c726561647920726567697374657265640000000000000000000000000000600082015250565b6000611dae601283611718565b9150611db982611d78565b602082019050919050565b60006020820190508181036000830152611ddd81611da1565b9050919050565b60008190508160005260206000209050919050565b60006020601f8301049050919050565b600082821b905092915050565b600060088302611e467fffffffffffffffffffffffffffffffffffffffffffffffffffffffffffffffff82611e09565b611e508683611e09565b95508019841693508086168417925050509392505050565b6000819050919050565b6000611e8d611e88611e83846113e8565b611e68565b6113e8565b9050919050565b6000819050919050565b611ea783611e72565b611ebb611eb382611e94565b848454611e16565b825550505050565b600090565b611ed0611ec3565b611edb818484611e9e565b505050565b5b81811015611eff57611ef4600082611ec8565b600181019050611ee1565b5050565b601f821115611f4457611f1581611de4565b611f1e84611df9565b81016020851015611f2d578190505b611f41611f3985611df9565b830182611ee0565b50505b505050565b600082821c905092915050565b6000611f6760001984600802611f49565b1980831691505092915050565b6000611f808383611f56565b9150826002028217905092915050565b611f998261170d565b67ffffffffffffffff811115611fb257611fb1611434565b5b611fbc8254611d18565b611fc7828285611f03565b600060209050601f831160018114611ffa5760008415611fe8578287015190505b611ff28582611f74565b86555061205a565b601f19841661200886611de4565b60005b828110156120305784890151825560018201915060208501945060208101905061200b565b8683101561204d5784890151612049601f891682611f56565b8355505b6001600288020188555050505b505050505050565b600081905092915050565b60006120788261170d565b6120828185612062565b9350612092818560208601611729565b80840191505092915050565b60006120aa828461206d565b915081905092915050565b7f4e487b7100000000000000000000000000000000000000000000000000000000600052601260045260246000fd5b60006120ef826113e8565b91506120fa836113e8565b92508261210a576121096120b5565b5b828206905092915050565b7f4e487b7100000000000000000000000000000000000000000000000000000000600052601160045260246000fd5b600061214f826113e8565b915061215a836113e8565b925082820190508082111561217257612171612115565b5b92915050565b6000612183826115d3565b915061218e836115d3565b9250828201905063ffffffff8111156121aa576121a9612115565b5b9291505056fea264697066735822122018c58d2cbbb9dec673963788fed05cb1be545232a9cd2d106f00e763c892eb6064736f6c63430008110033",
			"opcodes": "PUSH2 0x160 PUSH1 0x40 MSTORE CALLVALUE DUP1 ISZERO PUSH3 0x12 JUMPI PUSH1 0x0 DUP1 REVERT JUMPDEST POP PUSH1 0x40 MLOAD PUSH3 0x2547 CODESIZE SUB DUP1 PUSH3 0x2547 DUP4 CODECOPY DUP2 DUP2 ADD PUSH1 0x40 MSTORE DUP2 ADD SWAP1 PUSH3 0x38 SWAP2 SWAP1 PUSH3 0x277 JUMP JUMPDEST DUP4 DUP1 PUSH20 0xFFFFFFFFFFFFFFFFFFFFFFFFFFFFFFFFFFFFFFFF AND PUSH1 0x80 DUP2 PUSH20 0xFFFFFFFFFFFFFFFFFFFFFFFFFFFFFFFFFFFFFFFF AND DUP2 MSTORE POP POP POP DUP4 PUSH20 0xFFFFFFFFFFFFFFFFFFFFFFFFFFFFFFFFFFFFFFFF AND PUSH1 0xA0 DUP2 PUSH20 0xFFFFFFFFFFFFFFFFFFFFFFFFFFFFFFFFFFFFFFFF AND DUP2 MSTORE POP POP DUP5 PUSH8 0xFFFFFFFFFFFFFFFF AND PUSH1 0xC0 DUP2 PUSH8 0xFFFFFFFFFFFFFFFF AND DUP2 MSTORE POP POP DUP3 PUSH1 0xE0 DUP2 DUP2 MSTORE POP POP DUP2 PUSH4 0xFFFFFFFF AND PUSH2 0x100 DUP2 PUSH4 0xFFFFFFFF AND DUP2 MSTORE POP POP DUP1 PUSH2 0xFFFF AND PUSH2 0x120 DUP2 PUSH2 0xFFFF AND DUP2 MSTORE POP POP PUSH1 0x1 PUSH4 0xFFFFFFFF AND PUSH2 0x140 DUP2 PUSH4 0xFFFFFFFF AND DUP2 MSTORE POP POP POP POP POP POP POP PUSH3 0x2FF JUMP JUMPDEST PUSH1 0x0 DUP1 REVERT JUMPDEST PUSH1 0x0 PUSH8 0xFFFFFFFFFFFFFFFF DUP3 AND SWAP1 POP SWAP2 SWAP1 POP JUMP JUMPDEST PUSH3 0x131 DUP2 PUSH3 0x112 JUMP JUMPDEST DUP2 EQ PUSH3 0x13D JUMPI PUSH1 0x0 DUP1 REVERT JUMPDEST POP JUMP JUMPDEST PUSH1 0x0 DUP2 MLOAD SWAP1 POP PUSH3 0x151 DUP2 PUSH3 0x126 JUMP JUMPDEST SWAP3 SWAP2 POP POP JUMP JUMPDEST PUSH1 0x0 PUSH20 0xFFFFFFFFFFFFFFFFFFFFFFFFFFFFFFFFFFFFFFFF DUP3 AND SWAP1 POP SWAP2 SWAP1 POP JUMP JUMPDEST PUSH1 0x0 PUSH3 0x184 DUP3 PUSH3 0x157 JUMP JUMPDEST SWAP1 POP SWAP2 SWAP1 POP JUMP JUMPDEST PUSH3 0x196 DUP2 PUSH3 0x177 JUMP JUMPDEST DUP2 EQ PUSH3 0x1A2 JUMPI PUSH1 0x0 DUP1 REVERT JUMPDEST POP JUMP JUMPDEST PUSH1 0x0 DUP2 MLOAD SWAP1 POP PUSH3 0x1B6 DUP2 PUSH3 0x18B JUMP JUMPDEST SWAP3 SWAP2 POP POP JUMP JUMPDEST PUSH1 0x0 DUP2 SWAP1 POP SWAP2 SWAP1 POP JUMP JUMPDEST PUSH3 0x1D1 DUP2 PUSH3 0x1BC JUMP JUMPDEST DUP2 EQ PUSH3 0x1DD JUMPI PUSH1 0x0 DUP1 REVERT JUMPDEST POP JUMP JUMPDEST PUSH1 0x0 DUP2 MLOAD SWAP1 POP PUSH3 0x1F1 DUP2 PUSH3 0x1C6 JUMP JUMPDEST SWAP3 SWAP2 POP POP JUMP JUMPDEST PUSH1 0x0 PUSH4 0xFFFFFFFF DUP3 AND SWAP1 POP SWAP2 SWAP1 POP JUMP JUMPDEST PUSH3 0x212 DUP2 PUSH3 0x1F7 JUMP JUMPDEST DUP2 EQ PUSH3 0x21E JUMPI PUSH1 0x0 DUP1 REVERT JUMPDEST POP JUMP JUMPDEST PUSH1 0x0 DUP2 MLOAD SWAP1 POP PUSH3 0x232 DUP2 PUSH3 0x207 JUMP JUMPDEST SWAP3 SWAP2 POP POP JUMP JUMPDEST PUSH1 0x0 PUSH2 0xFFFF DUP3 AND SWAP1 POP SWAP2 SWAP1 POP JUMP JUMPDEST PUSH3 0x251 DUP2 PUSH3 0x238 JUMP JUMPDEST DUP2 EQ PUSH3 0x25D JUMPI PUSH1 0x0 DUP1 REVERT JUMPDEST POP JUMP JUMPDEST PUSH1 0x0 DUP2 MLOAD SWAP1 POP PUSH3 0x271 DUP2 PUSH3 0x246 JUMP JUMPDEST SWAP3 SWAP2 POP POP JUMP JUMPDEST PUSH1 0x0 DUP1 PUSH1 0x0 DUP1 PUSH1 0x0 PUSH1 0xA0 DUP7 DUP9 SUB SLT ISZERO PUSH3 0x296 JUMPI PUSH3 0x295 PUSH3 0x10D JUMP JUMPDEST JUMPDEST PUSH1 0x0 PUSH3 0x2A6 DUP9 DUP3 DUP10 ADD PUSH3 0x140 JUMP JUMPDEST SWAP6 POP POP PUSH1 0x20 PUSH3 0x2B9 DUP9 DUP3 DUP10 ADD PUSH3 0x1A5 JUMP JUMPDEST SWAP5 POP POP PUSH1 0x40 PUSH3 0x2CC DUP9 DUP3 DUP10 ADD PUSH3 0x1E0 JUMP JUMPDEST SWAP4 POP POP PUSH1 0x60 PUSH3 0x2DF DUP9 DUP3 DUP10 ADD PUSH3 0x221 JUMP JUMPDEST SWAP3 POP POP PUSH1 0x80 PUSH3 0x2F2 DUP9 DUP3 DUP10 ADD PUSH3 0x260 JUMP JUMPDEST SWAP2 POP POP SWAP3 SWAP6 POP SWAP3 SWAP6 SWAP1 SWAP4 POP JUMP JUMPDEST PUSH1 0x80 MLOAD PUSH1 0xA0 MLOAD PUSH1 0xC0 MLOAD PUSH1 0xE0 MLOAD PUSH2 0x100 MLOAD PUSH2 0x120 MLOAD PUSH2 0x140 MLOAD PUSH2 0x21E6 PUSH3 0x361 PUSH1 0x0 CODECOPY PUSH1 0x0 PUSH2 0x925 ADD MSTORE PUSH1 0x0 PUSH2 0x8E3 ADD MSTORE PUSH1 0x0 PUSH2 0x904 ADD MSTORE PUSH1 0x0 PUSH2 0x8A1 ADD MSTORE PUSH1 0x0 PUSH2 0x8C2 ADD MSTORE PUSH1 0x0 PUSH2 0x865 ADD MSTORE PUSH1 0x0 DUP2 DUP2 PUSH2 0x12F ADD MSTORE PUSH2 0x183 ADD MSTORE PUSH2 0x21E6 PUSH1 0x0 RETURN INVALID PUSH1 0x80 PUSH1 0x40 MSTORE CALLVALUE DUP1 ISZERO PUSH2 0x10 JUMPI PUSH1 0x0 DUP1 REVERT JUMPDEST POP PUSH1 0x4 CALLDATASIZE LT PUSH2 0x62 JUMPI PUSH1 0x0 CALLDATALOAD PUSH1 0xE0 SHR DUP1 PUSH4 0x1FE543E3 EQ PUSH2 0x67 JUMPI DUP1 PUSH4 0x2F0C2C7C EQ PUSH2 0x83 JUMPI DUP1 PUSH4 0xC7B3C11E EQ PUSH2 0xB5 JUMPI DUP1 PUSH4 0xD47875D0 EQ PUSH2 0xBF JUMPI DUP1 PUSH4 0xEFA1C482 EQ PUSH2 0xF3 JUMPI DUP1 PUSH4 0xF2C298BE EQ PUSH2 0x111 JUMPI JUMPDEST PUSH1 0x0 DUP1 REVERT JUMPDEST PUSH2 0x81 PUSH1 0x4 DUP1 CALLDATASIZE SUB DUP2 ADD SWAP1 PUSH2 0x7C SWAP2 SWAP1 PUSH2 0x1577 JUMP JUMPDEST PUSH2 0x12D JUMP JUMPDEST STOP JUMPDEST PUSH2 0x9D PUSH1 0x4 DUP1 CALLDATASIZE SUB DUP2 ADD SWAP1 PUSH2 0x98 SWAP2 SWAP1 PUSH2 0x160F JUMP JUMPDEST PUSH2 0x1ED JUMP JUMPDEST PUSH1 0x40 MLOAD PUSH2 0xAC SWAP4 SWAP3 SWAP2 SWAP1 PUSH2 0x164B JUMP JUMPDEST PUSH1 0x40 MLOAD DUP1 SWAP2 SUB SWAP1 RETURN JUMPDEST PUSH2 0xBD PUSH2 0x6DE JUMP JUMPDEST STOP JUMPDEST PUSH2 0xD9 PUSH1 0x4 DUP1 CALLDATASIZE SUB DUP2 ADD SWAP1 PUSH2 0xD4 SWAP2 SWAP1 PUSH2 0x16E0 JUMP JUMPDEST PUSH2 0xA41 JUMP JUMPDEST PUSH1 0x40 MLOAD PUSH2 0xEA SWAP6 SWAP5 SWAP4 SWAP3 SWAP2 SWAP1 PUSH2 0x178C JUMP JUMPDEST PUSH1 0x40 MLOAD DUP1 SWAP2 SUB SWAP1 RETURN JUMPDEST PUSH2 0xFB PUSH2 0xC08 JUMP JUMPDEST PUSH1 0x40 MLOAD PUSH2 0x108 SWAP2 SWAP1 PUSH2 0x19A5 JUMP JUMPDEST PUSH1 0x40 MLOAD DUP1 SWAP2 SUB SWAP1 RETURN JUMPDEST PUSH2 0x12B PUSH1 0x4 DUP1 CALLDATASIZE SUB DUP2 ADD SWAP1 PUSH2 0x126 SWAP2 SWAP1 PUSH2 0x1A7C JUMP JUMPDEST PUSH2 0xE75 JUMP JUMPDEST STOP JUMPDEST PUSH32 0x0 PUSH20 0xFFFFFFFFFFFFFFFFFFFFFFFFFFFFFFFFFFFFFFFF AND CALLER PUSH20 0xFFFFFFFFFFFFFFFFFFFFFFFFFFFFFFFFFFFFFFFF AND EQ PUSH2 0x1DF JUMPI CALLER PUSH32 0x0 PUSH1 0x40 MLOAD PUSH32 0x1CF993F400000000000000000000000000000000000000000000000000000000 DUP2 MSTORE PUSH1 0x4 ADD PUSH2 0x1D6 SWAP3 SWAP2 SWAP1 PUSH2 0x1AD4 JUMP JUMPDEST PUSH1 0x40 MLOAD DUP1 SWAP2 SUB SWAP1 REVERT JUMPDEST PUSH2 0x1E9 DUP3 DUP3 PUSH2 0x1013 JUMP JUMPDEST POP POP JUMP JUMPDEST PUSH1 0x0 DUP1 PUSH1 0x0 DUP1 DUP5 PUSH4 0xFFFFFFFF AND SUB PUSH2 0x20F JUMPI PUSH1 0x0 DUP1 PUSH1 0x0 SWAP3 POP SWAP3 POP SWAP3 POP PUSH2 0x6D7 JUMP JUMPDEST PUSH1 0x1 DUP5 PUSH4 0xFFFFFFFF AND SUB PUSH2 0x22D JUMPI PUSH1 0xA PUSH1 0x0 DUP1 SWAP3 POP SWAP3 POP SWAP3 POP PUSH2 0x6D7 JUMP JUMPDEST PUSH1 0x2 DUP5 PUSH4 0xFFFFFFFF AND SUB PUSH2 0x24C JUMPI PUSH1 0x0 PUSH1 0xA PUSH1 0x0 SWAP3 POP SWAP3 POP SWAP3 POP PUSH2 0x6D7 JUMP JUMPDEST PUSH1 0x3 DUP5 PUSH4 0xFFFFFFFF AND SUB PUSH2 0x26A JUMPI PUSH1 0x0 DUP1 PUSH1 0xA SWAP3 POP SWAP3 POP SWAP3 POP PUSH2 0x6D7 JUMP JUMPDEST PUSH1 0x4 DUP5 PUSH4 0xFFFFFFFF AND SUB PUSH2 0x288 JUMPI PUSH1 0xA DUP1 PUSH1 0x0 SWAP3 POP SWAP3 POP SWAP3 POP PUSH2 0x6D7 JUMP JUMPDEST PUSH1 0x5 DUP5 PUSH4 0xFFFFFFFF AND SUB PUSH2 0x2A7 JUMPI PUSH1 0xA PUSH1 0x0 PUSH1 0xA SWAP3 POP SWAP3 POP SWAP3 POP PUSH2 0x6D7 JUMP JUMPDEST PUSH1 0x6 DUP5 PUSH4 0xFFFFFFFF AND SUB PUSH2 0x2C5 JUMPI PUSH1 0x0 PUSH1 0xA DUP1 SWAP3 POP SWAP3 POP SWAP3 POP PUSH2 0x6D7 JUMP JUMPDEST PUSH1 0x7 DUP5 PUSH4 0xFFFFFFFF AND SUB PUSH2 0x2E3 JUMPI PUSH1 0xA DUP1 PUSH1 0xA SWAP3 POP SWAP3 POP SWAP3 POP PUSH2 0x6D7 JUMP JUMPDEST PUSH1 0x8 DUP5 PUSH4 0xFFFFFFFF AND SUB PUSH2 0x301 JUMPI PUSH1 0xA PUSH1 0x0 DUP1 SWAP3 POP SWAP3 POP SWAP3 POP PUSH2 0x6D7 JUMP JUMPDEST PUSH1 0x9 DUP5 PUSH4 0xFFFFFFFF AND SUB PUSH2 0x320 JUMPI PUSH1 0x0 PUSH1 0xA PUSH1 0x0 SWAP3 POP SWAP3 POP SWAP3 POP PUSH2 0x6D7 JUMP JUMPDEST PUSH1 0xA DUP5 PUSH4 0xFFFFFFFF AND SUB PUSH2 0x33E JUMPI PUSH1 0x0 DUP1 PUSH1 0xA SWAP3 POP SWAP3 POP SWAP3 POP PUSH2 0x6D7 JUMP JUMPDEST PUSH1 0xB DUP5 PUSH4 0xFFFFFFFF AND SUB PUSH2 0x35C JUMPI PUSH1 0xA DUP1 PUSH1 0x0 SWAP3 POP SWAP3 POP SWAP3 POP PUSH2 0x6D7 JUMP JUMPDEST PUSH1 0xC DUP5 PUSH4 0xFFFFFFFF AND SUB PUSH2 0x37B JUMPI PUSH1 0xA PUSH1 0x0 PUSH1 0xA SWAP3 POP SWAP3 POP SWAP3 POP PUSH2 0x6D7 JUMP JUMPDEST PUSH1 0xD DUP5 PUSH4 0xFFFFFFFF AND SUB PUSH2 0x399 JUMPI PUSH1 0x0 PUSH1 0xA DUP1 SWAP3 POP SWAP3 POP SWAP3 POP PUSH2 0x6D7 JUMP JUMPDEST PUSH1 0xE DUP5 PUSH4 0xFFFFFFFF AND SUB PUSH2 0x3B7 JUMPI PUSH1 0xA DUP1 PUSH1 0xA SWAP3 POP SWAP3 POP SWAP3 POP PUSH2 0x6D7 JUMP JUMPDEST PUSH1 0xF DUP5 PUSH4 0xFFFFFFFF AND SUB PUSH2 0x3D5 JUMPI PUSH1 0xA PUSH1 0x0 DUP1 SWAP3 POP SWAP3 POP SWAP3 POP PUSH2 0x6D7 JUMP JUMPDEST PUSH1 0x10 DUP5 PUSH4 0xFFFFFFFF AND SUB PUSH2 0x3F4 JUMPI PUSH1 0x0 PUSH1 0xA PUSH1 0x0 SWAP3 POP SWAP3 POP SWAP3 POP PUSH2 0x6D7 JUMP JUMPDEST PUSH1 0x11 DUP5 PUSH4 0xFFFFFFFF AND SUB PUSH2 0x412 JUMPI PUSH1 0x0 DUP1 PUSH1 0xA SWAP3 POP SWAP3 POP SWAP3 POP PUSH2 0x6D7 JUMP JUMPDEST PUSH1 0x12 DUP5 PUSH4 0xFFFFFFFF AND SUB PUSH2 0x430 JUMPI PUSH1 0xA DUP1 PUSH1 0x0 SWAP3 POP SWAP3 POP SWAP3 POP PUSH2 0x6D7 JUMP JUMPDEST PUSH1 0x13 DUP5 PUSH4 0xFFFFFFFF AND SUB PUSH2 0x44F JUMPI PUSH1 0xA PUSH1 0x0 PUSH1 0xA SWAP3 POP SWAP3 POP SWAP3 POP PUSH2 0x6D7 JUMP JUMPDEST PUSH1 0x14 DUP5 PUSH4 0xFFFFFFFF AND SUB PUSH2 0x46D JUMPI PUSH1 0x0 PUSH1 0xA DUP1 SWAP3 POP SWAP3 POP SWAP3 POP PUSH2 0x6D7 JUMP JUMPDEST PUSH1 0x15 DUP5 PUSH4 0xFFFFFFFF AND SUB PUSH2 0x48B JUMPI PUSH1 0xA DUP1 PUSH1 0xA SWAP3 POP SWAP3 POP SWAP3 POP PUSH2 0x6D7 JUMP JUMPDEST PUSH1 0x16 DUP5 PUSH4 0xFFFFFFFF AND SUB PUSH2 0x4A9 JUMPI PUSH1 0xA PUSH1 0x0 DUP1 SWAP3 POP SWAP3 POP SWAP3 POP PUSH2 0x6D7 JUMP JUMPDEST PUSH1 0x17 DUP5 PUSH4 0xFFFFFFFF AND SUB PUSH2 0x4C8 JUMPI PUSH1 0x0 PUSH1 0xA PUSH1 0x0 SWAP3 POP SWAP3 POP SWAP3 POP PUSH2 0x6D7 JUMP JUMPDEST PUSH1 0x18 DUP5 PUSH4 0xFFFFFFFF AND SUB PUSH2 0x4E6 JUMPI PUSH1 0x0 DUP1 PUSH1 0xA SWAP3 POP SWAP3 POP SWAP3 POP PUSH2 0x6D7 JUMP JUMPDEST PUSH1 0x19 DUP5 PUSH4 0xFFFFFFFF AND SUB PUSH2 0x504 JUMPI PUSH1 0xA DUP1 PUSH1 0x0 SWAP3 POP SWAP3 POP SWAP3 POP PUSH2 0x6D7 JUMP JUMPDEST PUSH1 0x1A DUP5 PUSH4 0xFFFFFFFF AND SUB PUSH2 0x523 JUMPI PUSH1 0xA PUSH1 0x0 PUSH1 0xA SWAP3 POP SWAP3 POP SWAP3 POP PUSH2 0x6D7 JUMP JUMPDEST PUSH1 0x1B DUP5 PUSH4 0xFFFFFFFF AND SUB PUSH2 0x541 JUMPI PUSH1 0x0 PUSH1 0xA DUP1 SWAP3 POP SWAP3 POP SWAP3 POP PUSH2 0x6D7 JUMP JUMPDEST PUSH1 0x1C DUP5 PUSH4 0xFFFFFFFF AND SUB PUSH2 0x55F JUMPI PUSH1 0xA DUP1 PUSH1 0xA SWAP3 POP SWAP3 POP SWAP3 POP PUSH2 0x6D7 JUMP JUMPDEST PUSH1 0x1D DUP5 PUSH4 0xFFFFFFFF AND SUB PUSH2 0x57D JUMPI PUSH1 0xA PUSH1 0x0 DUP1 SWAP3 POP SWAP3 POP SWAP3 POP PUSH2 0x6D7 JUMP JUMPDEST PUSH1 0x1E DUP5 PUSH4 0xFFFFFFFF AND SUB PUSH2 0x59C JUMPI PUSH1 0x0 PUSH1 0xA PUSH1 0x0 SWAP3 POP SWAP3 POP SWAP3 POP PUSH2 0x6D7 JUMP JUMPDEST PUSH1 0x1F DUP5 PUSH4 0xFFFFFFFF AND SUB PUSH2 0x5BA JUMPI PUSH1 0x0 DUP1 PUSH1 0xA SWAP3 POP SWAP3 POP SWAP3 POP PUSH2 0x6D7 JUMP JUMPDEST PUSH1 0x20 DUP5 PUSH4 0xFFFFFFFF AND SUB PUSH2 0x5D8 JUMPI PUSH1 0xA DUP1 PUSH1 0x0 SWAP3 POP SWAP3 POP SWAP3 POP PUSH2 0x6D7 JUMP JUMPDEST PUSH1 0x21 DUP5 PUSH4 0xFFFFFFFF AND SUB PUSH2 0x5F7 JUMPI PUSH1 0xA PUSH1 0x0 PUSH1 0xA SWAP3 POP SWAP3 POP SWAP3 POP PUSH2 0x6D7 JUMP JUMPDEST PUSH1 0x22 DUP5 PUSH4 0xFFFFFFFF AND SUB PUSH2 0x615 JUMPI PUSH1 0x0 PUSH1 0xA DUP1 SWAP3 POP SWAP3 POP SWAP3 POP PUSH2 0x6D7 JUMP JUMPDEST PUSH1 0x23 DUP5 PUSH4 0xFFFFFFFF AND SUB PUSH2 0x633 JUMPI PUSH1 0xA DUP1 PUSH1 0xA SWAP3 POP SWAP3 POP SWAP3 POP PUSH2 0x6D7 JUMP JUMPDEST PUSH1 0x24 DUP5 PUSH4 0xFFFFFFFF AND SUB PUSH2 0x651 JUMPI PUSH1 0xA PUSH1 0x0 DUP1 SWAP3 POP SWAP3 POP SWAP3 POP PUSH2 0x6D7 JUMP JUMPDEST PUSH1 0x25 DUP5 PUSH4 0xFFFFFFFF AND SUB PUSH2 0x670 JUMPI PUSH1 0x0 PUSH1 0xA PUSH1 0x0 SWAP3 POP SWAP3 POP SWAP3 POP PUSH2 0x6D7 JUMP JUMPDEST PUSH1 0x26 DUP5 PUSH4 0xFFFFFFFF AND SUB PUSH2 0x68E JUMPI PUSH1 0x0 DUP1 PUSH1 0xA SWAP3 POP SWAP3 POP SWAP3 POP PUSH2 0x6D7 JUMP JUMPDEST PUSH1 0x27 DUP5 PUSH4 0xFFFFFFFF AND SUB PUSH2 0x6AC JUMPI PUSH1 0xA DUP1 PUSH1 0x0 SWAP3 POP SWAP3 POP SWAP3 POP PUSH2 0x6D7 JUMP JUMPDEST PUSH1 0x28 DUP5 PUSH4 0xFFFFFFFF AND SUB PUSH2 0x6CB JUMPI PUSH1 0xA PUSH1 0x0 PUSH1 0xA SWAP3 POP SWAP3 POP SWAP3 POP PUSH2 0x6D7 JUMP JUMPDEST PUSH1 0x0 DUP1 PUSH1 0x0 SWAP3 POP SWAP3 POP SWAP3 POP JUMPDEST SWAP2 SWAP4 SWAP1 SWAP3 POP JUMP JUMPDEST PUSH1 0x0 DUP1 CALLER PUSH20 0xFFFFFFFFFFFFFFFFFFFFFFFFFFFFFFFFFFFFFFFF AND PUSH20 0xFFFFFFFFFFFFFFFFFFFFFFFFFFFFFFFFFFFFFFFF AND DUP2 MSTORE PUSH1 0x20 ADD SWAP1 DUP2 MSTORE PUSH1 0x20 ADD PUSH1 0x0 KECCAK256 PUSH1 0x0 ADD PUSH1 0x10 SWAP1 SLOAD SWAP1 PUSH2 0x100 EXP SWAP1 DIV PUSH1 0xFF AND ISZERO PUSH2 0x76D JUMPI PUSH1 0x40 MLOAD PUSH32 0x8C379A000000000000000000000000000000000000000000000000000000000 DUP2 MSTORE PUSH1 0x4 ADD PUSH2 0x764 SWAP1 PUSH2 0x1B6F JUMP JUMPDEST PUSH1 0x40 MLOAD DUP1 SWAP2 SUB SWAP1 REVERT JUMPDEST PUSH1 0x28 PUSH1 0x0 DUP1 CALLER PUSH20 0xFFFFFFFFFFFFFFFFFFFFFFFFFFFFFFFFFFFFFFFF AND PUSH20 0xFFFFFFFFFFFFFFFFFFFFFFFFFFFFFFFFFFFFFFFF AND DUP2 MSTORE PUSH1 0x20 ADD SWAP1 DUP2 MSTORE PUSH1 0x20 ADD PUSH1 0x0 KECCAK256 PUSH1 0x0 ADD PUSH1 0x0 SWAP1 SLOAD SWAP1 PUSH2 0x100 EXP SWAP1 DIV PUSH4 0xFFFFFFFF AND PUSH4 0xFFFFFFFF AND LT PUSH2 0x807 JUMPI PUSH1 0x40 MLOAD PUSH32 0x8C379A000000000000000000000000000000000000000000000000000000000 DUP2 MSTORE PUSH1 0x4 ADD PUSH2 0x7FE SWAP1 PUSH2 0x1BDB JUMP JUMPDEST PUSH1 0x40 MLOAD DUP1 SWAP2 SUB SWAP1 REVERT JUMPDEST PUSH1 0x1 PUSH1 0x0 DUP1 CALLER PUSH20 0xFFFFFFFFFFFFFFFFFFFFFFFFFFFFFFFFFFFFFFFF AND PUSH20 0xFFFFFFFFFFFFFFFFFFFFFFFFFFFFFFFFFFFFFFFF AND DUP2 MSTORE PUSH1 0x20 ADD SWAP1 DUP2 MSTORE PUSH1 0x20 ADD PUSH1 0x0 KECCAK256 PUSH1 0x0 ADD PUSH1 0x10 PUSH2 0x100 EXP DUP2 SLOAD DUP2 PUSH1 0xFF MUL NOT AND SWAP1 DUP4 ISZERO ISZERO MUL OR SWAP1 SSTORE POP PUSH1 0x0 PUSH32 0x0 PUSH20 0xFFFFFFFFFFFFFFFFFFFFFFFFFFFFFFFFFFFFFFFF AND PUSH4 0x5D3B1D30 PUSH32 0x0 PUSH32 0x0 PUSH32 0x0 PUSH32 0x0 PUSH32 0x0 PUSH1 0x40 MLOAD DUP7 PUSH4 0xFFFFFFFF AND PUSH1 0xE0 SHL DUP2 MSTORE PUSH1 0x4 ADD PUSH2 0x964 SWAP6 SWAP5 SWAP4 SWAP3 SWAP2 SWAP1 PUSH2 0x1C54 JUMP JUMPDEST PUSH1 0x20 PUSH1 0x40 MLOAD DUP1 DUP4 SUB DUP2 PUSH1 0x0 DUP8 GAS CALL ISZERO DUP1 ISZERO PUSH2 0x983 JUMPI RETURNDATASIZE PUSH1 0x0 DUP1 RETURNDATACOPY RETURNDATASIZE PUSH1 0x0 REVERT JUMPDEST POP POP POP POP PUSH1 0x40 MLOAD RETURNDATASIZE PUSH1 0x1F NOT PUSH1 0x1F DUP3 ADD AND DUP3 ADD DUP1 PUSH1 0x40 MSTORE POP DUP2 ADD SWAP1 PUSH2 0x9A7 SWAP2 SWAP1 PUSH2 0x1CBC JUMP JUMPDEST SWAP1 POP CALLER PUSH1 0x1 PUSH1 0x0 DUP4 DUP2 MSTORE PUSH1 0x20 ADD SWAP1 DUP2 MSTORE PUSH1 0x20 ADD PUSH1 0x0 KECCAK256 PUSH1 0x0 PUSH2 0x100 EXP DUP2 SLOAD DUP2 PUSH20 0xFFFFFFFFFFFFFFFFFFFFFFFFFFFFFFFFFFFFFFFF MUL NOT AND SWAP1 DUP4 PUSH20 0xFFFFFFFFFFFFFFFFFFFFFFFFFFFFFFFFFFFFFFFF AND MUL OR SWAP1 SSTORE POP CALLER PUSH20 0xFFFFFFFFFFFFFFFFFFFFFFFFFFFFFFFFFFFFFFFF AND PUSH32 0x41D1A459AB67BCB3138612C208DA7EC5021C56CE9FFE7B8B209159F3446E1E9D PUSH1 0x40 MLOAD PUSH1 0x40 MLOAD DUP1 SWAP2 SUB SWAP1 LOG2 POP JUMP JUMPDEST PUSH1 0x0 DUP1 PUSH1 0x0 DUP1 PUSH1 0x60 PUSH1 0x0 DUP1 PUSH1 0x0 DUP9 PUSH20 0xFFFFFFFFFFFFFFFFFFFFFFFFFFFFFFFFFFFFFFFF AND PUSH20 0xFFFFFFFFFFFFFFFFFFFFFFFFFFFFFFFFFFFFFFFF AND DUP2 MSTORE PUSH1 0x20 ADD SWAP1 DUP2 MSTORE PUSH1 0x20 ADD PUSH1 0x0 KECCAK256 PUSH1 0x40 MLOAD DUP1 PUSH1 0xC0 ADD PUSH1 0x40 MSTORE SWAP1 DUP2 PUSH1 0x0 DUP3 ADD PUSH1 0x0 SWAP1 SLOAD SWAP1 PUSH2 0x100 EXP SWAP1 DIV PUSH4 0xFFFFFFFF AND PUSH4 0xFFFFFFFF AND PUSH4 0xFFFFFFFF AND DUP2 MSTORE PUSH1 0x20 ADD PUSH1 0x0 DUP3 ADD PUSH1 0x4 SWAP1 SLOAD SWAP1 PUSH2 0x100 EXP SWAP1 DIV PUSH4 0xFFFFFFFF AND PUSH4 0xFFFFFFFF AND PUSH4 0xFFFFFFFF AND DUP2 MSTORE PUSH1 0x20 ADD PUSH1 0x0 DUP3 ADD PUSH1 0x8 SWAP1 SLOAD SWAP1 PUSH2 0x100 EXP SWAP1 DIV PUSH4 0xFFFFFFFF AND PUSH4 0xFFFFFFFF AND PUSH4 0xFFFFFFFF AND DUP2 MSTORE PUSH1 0x20 ADD PUSH1 0x0 DUP3 ADD PUSH1 0xC SWAP1 SLOAD SWAP1 PUSH2 0x100 EXP SWAP1 DIV PUSH4 0xFFFFFFFF AND PUSH4 0xFFFFFFFF AND PUSH4 0xFFFFFFFF AND DUP2 MSTORE PUSH1 0x20 ADD PUSH1 0x0 DUP3 ADD PUSH1 0x10 SWAP1 SLOAD SWAP1 PUSH2 0x100 EXP SWAP1 DIV PUSH1 0xFF AND ISZERO ISZERO ISZERO ISZERO DUP2 MSTORE PUSH1 0x20 ADD PUSH1 0x1 DUP3 ADD DUP1 SLOAD PUSH2 0xB57 SWAP1 PUSH2 0x1D18 JUMP JUMPDEST DUP1 PUSH1 0x1F ADD PUSH1 0x20 DUP1 SWAP2 DIV MUL PUSH1 0x20 ADD PUSH1 0x40 MLOAD SWAP1 DUP2 ADD PUSH1 0x40 MSTORE DUP1 SWAP3 SWAP2 SWAP1 DUP2 DUP2 MSTORE PUSH1 0x20 ADD DUP3 DUP1 SLOAD PUSH2 0xB83 SWAP1 PUSH2 0x1D18 JUMP JUMPDEST DUP1 ISZERO PUSH2 0xBD0 JUMPI DUP1 PUSH1 0x1F LT PUSH2 0xBA5 JUMPI PUSH2 0x100 DUP1 DUP4 SLOAD DIV MUL DUP4 MSTORE SWAP2 PUSH1 0x20 ADD SWAP2 PUSH2 0xBD0 JUMP JUMPDEST DUP3 ADD SWAP2 SWAP1 PUSH1 0x0 MSTORE PUSH1 0x20 PUSH1 0x0 KECCAK256 SWAP1 JUMPDEST DUP2 SLOAD DUP2 MSTORE SWAP1 PUSH1 0x1 ADD SWAP1 PUSH1 0x20 ADD DUP1 DUP4 GT PUSH2 0xBB3 JUMPI DUP3 SWAP1 SUB PUSH1 0x1F AND DUP3 ADD SWAP2 JUMPDEST POP POP POP POP POP DUP2 MSTORE POP POP SWAP1 POP DUP1 PUSH1 0x20 ADD MLOAD DUP2 PUSH1 0x40 ADD MLOAD DUP3 PUSH1 0x60 ADD MLOAD DUP4 PUSH1 0x0 ADD MLOAD DUP5 PUSH1 0xA0 ADD MLOAD SWAP6 POP SWAP6 POP SWAP6 POP SWAP6 POP SWAP6 POP POP SWAP2 SWAP4 SWAP6 SWAP1 SWAP3 SWAP5 POP JUMP JUMPDEST PUSH1 0x60 PUSH1 0x0 PUSH1 0x2 DUP1 SLOAD SWAP1 POP SWAP1 POP PUSH1 0x0 DUP2 PUSH8 0xFFFFFFFFFFFFFFFF DUP2 GT ISZERO PUSH2 0xC30 JUMPI PUSH2 0xC2F PUSH2 0x1434 JUMP JUMPDEST JUMPDEST PUSH1 0x40 MLOAD SWAP1 DUP1 DUP3 MSTORE DUP1 PUSH1 0x20 MUL PUSH1 0x20 ADD DUP3 ADD PUSH1 0x40 MSTORE DUP1 ISZERO PUSH2 0xC69 JUMPI DUP2 PUSH1 0x20 ADD JUMPDEST PUSH2 0xC56 PUSH2 0x1384 JUMP JUMPDEST DUP2 MSTORE PUSH1 0x20 ADD SWAP1 PUSH1 0x1 SWAP1 SUB SWAP1 DUP2 PUSH2 0xC4E JUMPI SWAP1 POP JUMPDEST POP SWAP1 POP PUSH1 0x0 JUMPDEST DUP3 DUP2 LT ISZERO PUSH2 0xE6C JUMPI PUSH1 0x0 DUP1 PUSH1 0x2 DUP4 DUP2 SLOAD DUP2 LT PUSH2 0xC8E JUMPI PUSH2 0xC8D PUSH2 0x1D49 JUMP JUMPDEST JUMPDEST SWAP1 PUSH1 0x0 MSTORE PUSH1 0x20 PUSH1 0x0 KECCAK256 ADD PUSH1 0x0 SWAP1 SLOAD SWAP1 PUSH2 0x100 EXP SWAP1 DIV PUSH20 0xFFFFFFFFFFFFFFFFFFFFFFFFFFFFFFFFFFFFFFFF AND PUSH20 0xFFFFFFFFFFFFFFFFFFFFFFFFFFFFFFFFFFFFFFFF AND PUSH20 0xFFFFFFFFFFFFFFFFFFFFFFFFFFFFFFFFFFFFFFFF AND DUP2 MSTORE PUSH1 0x20 ADD SWAP1 DUP2 MSTORE PUSH1 0x20 ADD PUSH1 0x0 KECCAK256 PUSH1 0x40 MLOAD DUP1 PUSH1 0xC0 ADD PUSH1 0x40 MSTORE SWAP1 DUP2 PUSH1 0x0 DUP3 ADD PUSH1 0x0 SWAP1 SLOAD SWAP1 PUSH2 0x100 EXP SWAP1 DIV PUSH4 0xFFFFFFFF AND PUSH4 0xFFFFFFFF AND PUSH4 0xFFFFFFFF AND DUP2 MSTORE PUSH1 0x20 ADD PUSH1 0x0 DUP3 ADD PUSH1 0x4 SWAP1 SLOAD SWAP1 PUSH2 0x100 EXP SWAP1 DIV PUSH4 0xFFFFFFFF AND PUSH4 0xFFFFFFFF AND PUSH4 0xFFFFFFFF AND DUP2 MSTORE PUSH1 0x20 ADD PUSH1 0x0 DUP3 ADD PUSH1 0x8 SWAP1 SLOAD SWAP1 PUSH2 0x100 EXP SWAP1 DIV PUSH4 0xFFFFFFFF AND PUSH4 0xFFFFFFFF AND PUSH4 0xFFFFFFFF AND DUP2 MSTORE PUSH1 0x20 ADD PUSH1 0x0 DUP3 ADD PUSH1 0xC SWAP1 SLOAD SWAP1 PUSH2 0x100 EXP SWAP1 DIV PUSH4 0xFFFFFFFF AND PUSH4 0xFFFFFFFF AND PUSH4 0xFFFFFFFF AND DUP2 MSTORE PUSH1 0x20 ADD PUSH1 0x0 DUP3 ADD PUSH1 0x10 SWAP1 SLOAD SWAP1 PUSH2 0x100 EXP SWAP1 DIV PUSH1 0xFF AND ISZERO ISZERO ISZERO ISZERO DUP2 MSTORE PUSH1 0x20 ADD PUSH1 0x1 DUP3 ADD DUP1 SLOAD PUSH2 0xDC1 SWAP1 PUSH2 0x1D18 JUMP JUMPDEST DUP1 PUSH1 0x1F ADD PUSH1 0x20 DUP1 SWAP2 DIV MUL PUSH1 0x20 ADD PUSH1 0x40 MLOAD SWAP1 DUP2 ADD PUSH1 0x40 MSTORE DUP1 SWAP3 SWAP2 SWAP1 DUP2 DUP2 MSTORE PUSH1 0x20 ADD DUP3 DUP1 SLOAD PUSH2 0xDED SWAP1 PUSH2 0x1D18 JUMP JUMPDEST DUP1 ISZERO PUSH2 0xE3A JUMPI DUP1 PUSH1 0x1F LT PUSH2 0xE0F JUMPI PUSH2 0x100 DUP1 DUP4 SLOAD DIV MUL DUP4 MSTORE SWAP2 PUSH1 0x20 ADD SWAP2 PUSH2 0xE3A JUMP JUMPDEST DUP3 ADD SWAP2 SWAP1 PUSH1 0x0 MSTORE PUSH1 0x20 PUSH1 0x0 KECCAK256 SWAP1 JUMPDEST DUP2 SLOAD DUP2 MSTORE SWAP1 PUSH1 0x1 ADD SWAP1 PUSH1 0x20 ADD DUP1 DUP4 GT PUSH2 0xE1D JUMPI DUP3 SWAP1 SUB PUSH1 0x1F AND DUP3 ADD SWAP2 JUMPDEST POP POP POP POP POP DUP2 MSTORE POP POP DUP3 DUP3 DUP2 MLOAD DUP2 LT PUSH2 0xE56 JUMPI PUSH2 0xE55 PUSH2 0x1D49 JUMP JUMPDEST JUMPDEST PUSH1 0x20 MUL PUSH1 0x20 ADD ADD DUP2 SWAP1 MSTORE POP DUP1 PUSH1 0x1 ADD SWAP1 POP PUSH2 0xC6F JUMP JUMPDEST POP DUP1 SWAP3 POP POP POP SWAP1 JUMP JUMPDEST PUSH1 0x0 DUP1 PUSH1 0x0 CALLER PUSH20 0xFFFFFFFFFFFFFFFFFFFFFFFFFFFFFFFFFFFFFFFF AND PUSH20 0xFFFFFFFFFFFFFFFFFFFFFFFFFFFFFFFFFFFFFFFF AND DUP2 MSTORE PUSH1 0x20 ADD SWAP1 DUP2 MSTORE PUSH1 0x20 ADD PUSH1 0x0 KECCAK256 PUSH1 0x1 ADD DUP1 SLOAD PUSH2 0xEC3 SWAP1 PUSH2 0x1D18 JUMP JUMPDEST SWAP1 POP EQ PUSH2 0xF05 JUMPI PUSH1 0x40 MLOAD PUSH32 0x8C379A000000000000000000000000000000000000000000000000000000000 DUP2 MSTORE PUSH1 0x4 ADD PUSH2 0xEFC SWAP1 PUSH2 0x1DC4 JUMP JUMPDEST PUSH1 0x40 MLOAD DUP1 SWAP2 SUB SWAP1 REVERT JUMPDEST DUP1 PUSH1 0x0 DUP1 CALLER PUSH20 0xFFFFFFFFFFFFFFFFFFFFFFFFFFFFFFFFFFFFFFFF AND PUSH20 0xFFFFFFFFFFFFFFFFFFFFFFFFFFFFFFFFFFFFFFFF AND DUP2 MSTORE PUSH1 0x20 ADD SWAP1 DUP2 MSTORE PUSH1 0x20 ADD PUSH1 0x0 KECCAK256 PUSH1 0x1 ADD SWAP1 DUP2 PUSH2 0xF53 SWAP2 SWAP1 PUSH2 0x1F90 JUMP JUMPDEST POP PUSH1 0x2 CALLER SWAP1 DUP1 PUSH1 0x1 DUP2 SLOAD ADD DUP1 DUP3 SSTORE DUP1 SWAP2 POP POP PUSH1 0x1 SWAP1 SUB SWAP1 PUSH1 0x0 MSTORE PUSH1 0x20 PUSH1 0x0 KECCAK256 ADD PUSH1 0x0 SWAP1 SWAP2 SWAP1 SWAP2 SWAP1 SWAP2 PUSH2 0x100 EXP DUP2 SLOAD DUP2 PUSH20 0xFFFFFFFFFFFFFFFFFFFFFFFFFFFFFFFFFFFFFFFF MUL NOT AND SWAP1 DUP4 PUSH20 0xFFFFFFFFFFFFFFFFFFFFFFFFFFFFFFFFFFFFFFFF AND MUL OR SWAP1 SSTORE POP DUP1 PUSH1 0x40 MLOAD PUSH2 0xFC5 SWAP2 SWAP1 PUSH2 0x209E JUMP JUMPDEST PUSH1 0x40 MLOAD DUP1 SWAP2 SUB SWAP1 KECCAK256 CALLER PUSH20 0xFFFFFFFFFFFFFFFFFFFFFFFFFFFFFFFFFFFFFFFF AND PUSH32 0x81EF79D1CDA814A60C0FC60792E648A06D9C6BAE67176346D1CC8B63030BFCCD PUSH1 0x40 MLOAD PUSH1 0x40 MLOAD DUP1 SWAP2 SUB SWAP1 LOG3 POP JUMP JUMPDEST PUSH1 0x0 PUSH1 0x1 PUSH1 0x6 DUP4 PUSH1 0x0 DUP2 MLOAD DUP2 LT PUSH2 0x102D JUMPI PUSH2 0x102C PUSH2 0x1D49 JUMP JUMPDEST JUMPDEST PUSH1 0x20 MUL PUSH1 0x20 ADD ADD MLOAD PUSH2 0x103F SWAP2 SWAP1 PUSH2 0x20E4 JUMP JUMPDEST PUSH2 0x1049 SWAP2 SWAP1 PUSH2 0x2144 JUMP JUMPDEST SWAP1 POP PUSH1 0x0 PUSH1 0x1 PUSH1 0x0 DUP6 DUP2 MSTORE PUSH1 0x20 ADD SWAP1 DUP2 MSTORE PUSH1 0x20 ADD PUSH1 0x0 KECCAK256 PUSH1 0x0 SWAP1 SLOAD SWAP1 PUSH2 0x100 EXP SWAP1 DIV PUSH20 0xFFFFFFFFFFFFFFFFFFFFFFFFFFFFFFFFFFFFFFFF AND SWAP1 POP DUP2 PUSH1 0x0 DUP1 DUP4 PUSH20 0xFFFFFFFFFFFFFFFFFFFFFFFFFFFFFFFFFFFFFFFF AND PUSH20 0xFFFFFFFFFFFFFFFFFFFFFFFFFFFFFFFFFFFFFFFF AND DUP2 MSTORE PUSH1 0x20 ADD SWAP1 DUP2 MSTORE PUSH1 0x20 ADD PUSH1 0x0 KECCAK256 PUSH1 0x0 ADD PUSH1 0x0 DUP3 DUP3 DUP3 SWAP1 SLOAD SWAP1 PUSH2 0x100 EXP SWAP1 DIV PUSH4 0xFFFFFFFF AND PUSH2 0x10E3 SWAP2 SWAP1 PUSH2 0x2178 JUMP JUMPDEST SWAP3 POP PUSH2 0x100 EXP DUP2 SLOAD DUP2 PUSH4 0xFFFFFFFF MUL NOT AND SWAP1 DUP4 PUSH4 0xFFFFFFFF AND MUL OR SWAP1 SSTORE POP PUSH1 0x0 DUP1 PUSH1 0x0 PUSH2 0x1160 PUSH1 0x0 DUP1 DUP7 PUSH20 0xFFFFFFFFFFFFFFFFFFFFFFFFFFFFFFFFFFFFFFFF AND PUSH20 0xFFFFFFFFFFFFFFFFFFFFFFFFFFFFFFFFFFFFFFFF AND DUP2 MSTORE PUSH1 0x20 ADD SWAP1 DUP2 MSTORE PUSH1 0x20 ADD PUSH1 0x0 KECCAK256 PUSH1 0x0 ADD PUSH1 0x0 SWAP1 SLOAD SWAP1 PUSH2 0x100 EXP SWAP1 DIV PUSH4 0xFFFFFFFF AND PUSH2 0x1ED JUMP JUMPDEST SWAP3 POP SWAP3 POP SWAP3 POP DUP3 PUSH1 0x0 DUP1 DUP7 PUSH20 0xFFFFFFFFFFFFFFFFFFFFFFFFFFFFFFFFFFFFFFFF AND PUSH20 0xFFFFFFFFFFFFFFFFFFFFFFFFFFFFFFFFFFFFFFFF AND DUP2 MSTORE PUSH1 0x20 ADD SWAP1 DUP2 MSTORE PUSH1 0x20 ADD PUSH1 0x0 KECCAK256 PUSH1 0x0 ADD PUSH1 0x4 DUP3 DUP3 DUP3 SWAP1 SLOAD SWAP1 PUSH2 0x100 EXP SWAP1 DIV PUSH4 0xFFFFFFFF AND PUSH2 0x11C6 SWAP2 SWAP1 PUSH2 0x2178 JUMP JUMPDEST SWAP3 POP PUSH2 0x100 EXP DUP2 SLOAD DUP2 PUSH4 0xFFFFFFFF MUL NOT AND SWAP1 DUP4 PUSH4 0xFFFFFFFF AND MUL OR SWAP1 SSTORE POP DUP2 PUSH1 0x0 DUP1 DUP7 PUSH20 0xFFFFFFFFFFFFFFFFFFFFFFFFFFFFFFFFFFFFFFFF AND PUSH20 0xFFFFFFFFFFFFFFFFFFFFFFFFFFFFFFFFFFFFFFFF AND DUP2 MSTORE PUSH1 0x20 ADD SWAP1 DUP2 MSTORE PUSH1 0x20 ADD PUSH1 0x0 KECCAK256 PUSH1 0x0 ADD PUSH1 0x8 DUP3 DUP3 DUP3 SWAP1 SLOAD SWAP1 PUSH2 0x100 EXP SWAP1 DIV PUSH4 0xFFFFFFFF AND PUSH2 0x1244 SWAP2 SWAP1 PUSH2 0x2178 JUMP JUMPDEST SWAP3 POP PUSH2 0x100 EXP DUP2 SLOAD DUP2 PUSH4 0xFFFFFFFF MUL NOT AND SWAP1 DUP4 PUSH4 0xFFFFFFFF AND MUL OR SWAP1 SSTORE POP DUP1 PUSH1 0x0 DUP1 DUP7 PUSH20 0xFFFFFFFFFFFFFFFFFFFFFFFFFFFFFFFFFFFFFFFF AND PUSH20 0xFFFFFFFFFFFFFFFFFFFFFFFFFFFFFFFFFFFFFFFF AND DUP2 MSTORE PUSH1 0x20 ADD SWAP1 DUP2 MSTORE PUSH1 0x20 ADD PUSH1 0x0 KECCAK256 PUSH1 0x0 ADD PUSH1 0xC DUP3 DUP3 DUP3 SWAP1 SLOAD SWAP1 PUSH2 0x100 EXP SWAP1 DIV PUSH4 0xFFFFFFFF AND PUSH2 0x12C2 SWAP2 SWAP1 PUSH2 0x2178 JUMP JUMPDEST SWAP3 POP PUSH2 0x100 EXP DUP2 SLOAD DUP2 PUSH4 0xFFFFFFFF MUL NOT AND SWAP1 DUP4 PUSH4 0xFFFFFFFF AND MUL OR SWAP1 SSTORE POP PUSH1 0x0 DUP1 DUP6 PUSH20 0xFFFFFFFFFFFFFFFFFFFFFFFFFFFFFFFFFFFFFFFF AND PUSH20 0xFFFFFFFFFFFFFFFFFFFFFFFFFFFFFFFFFFFFFFFF AND DUP2 MSTORE PUSH1 0x20 ADD SWAP1 DUP2 MSTORE PUSH1 0x20 ADD PUSH1 0x0 KECCAK256 PUSH1 0x0 ADD PUSH1 0x0 SWAP1 SLOAD SWAP1 PUSH2 0x100 EXP SWAP1 DIV PUSH4 0xFFFFFFFF AND PUSH4 0xFFFFFFFF AND CALLER PUSH20 0xFFFFFFFFFFFFFFFFFFFFFFFFFFFFFFFFFFFFFFFF AND PUSH32 0x31141DD41DEAF78E87C4165BEC72FD6162AFC0F21B75CC969CF032611285B386 PUSH1 0x40 MLOAD PUSH1 0x40 MLOAD DUP1 SWAP2 SUB SWAP1 LOG3 POP POP POP POP POP POP POP JUMP JUMPDEST PUSH1 0x40 MLOAD DUP1 PUSH1 0xC0 ADD PUSH1 0x40 MSTORE DUP1 PUSH1 0x0 PUSH4 0xFFFFFFFF AND DUP2 MSTORE PUSH1 0x20 ADD PUSH1 0x0 PUSH4 0xFFFFFFFF AND DUP2 MSTORE PUSH1 0x20 ADD PUSH1 0x0 PUSH4 0xFFFFFFFF AND DUP2 MSTORE PUSH1 0x20 ADD PUSH1 0x0 PUSH4 0xFFFFFFFF AND DUP2 MSTORE PUSH1 0x20 ADD PUSH1 0x0 ISZERO ISZERO DUP2 MSTORE PUSH1 0x20 ADD PUSH1 0x60 DUP2 MSTORE POP SWAP1 JUMP JUMPDEST PUSH1 0x0 PUSH1 0x40 MLOAD SWAP1 POP SWAP1 JUMP JUMPDEST PUSH1 0x0 DUP1 REVERT JUMPDEST PUSH1 0x0 DUP1 REVERT JUMPDEST PUSH1 0x0 DUP2 SWAP1 POP SWAP2 SWAP1 POP JUMP JUMPDEST PUSH2 0x13FB DUP2 PUSH2 0x13E8 JUMP JUMPDEST DUP2 EQ PUSH2 0x1406 JUMPI PUSH1 0x0 DUP1 REVERT JUMPDEST POP JUMP JUMPDEST PUSH1 0x0 DUP2 CALLDATALOAD SWAP1 POP PUSH2 0x1418 DUP2 PUSH2 0x13F2 JUMP JUMPDEST SWAP3 SWAP2 POP POP JUMP JUMPDEST PUSH1 0x0 DUP1 REVERT JUMPDEST PUSH1 0x0 PUSH1 0x1F NOT PUSH1 0x1F DUP4 ADD AND SWAP1 POP SWAP2 SWAP1 POP JUMP JUMPDEST PUSH32 0x4E487B7100000000000000000000000000000000000000000000000000000000 PUSH1 0x0 MSTORE PUSH1 0x41 PUSH1 0x4 MSTORE PUSH1 0x24 PUSH1 0x0 REVERT JUMPDEST PUSH2 0x146C DUP3 PUSH2 0x1423 JUMP JUMPDEST DUP2 ADD DUP2 DUP2 LT PUSH8 0xFFFFFFFFFFFFFFFF DUP3 GT OR ISZERO PUSH2 0x148B JUMPI PUSH2 0x148A PUSH2 0x1434 JUMP JUMPDEST JUMPDEST DUP1 PUSH1 0x40 MSTORE POP POP POP JUMP JUMPDEST PUSH1 0x0 PUSH2 0x149E PUSH2 0x13D4 JUMP JUMPDEST SWAP1 POP PUSH2 0x14AA DUP3 DUP3 PUSH2 0x1463 JUMP JUMPDEST SWAP2 SWAP1 POP JUMP JUMPDEST PUSH1 0x0 PUSH8 0xFFFFFFFFFFFFFFFF DUP3 GT ISZERO PUSH2 0x14CA JUMPI PUSH2 0x14C9 PUSH2 0x1434 JUMP JUMPDEST JUMPDEST PUSH1 0x20 DUP3 MUL SWAP1 POP PUSH1 0x20 DUP2 ADD SWAP1 POP SWAP2 SWAP1 POP JUMP JUMPDEST PUSH1 0x0 DUP1 REVERT JUMPDEST PUSH1 0x0 PUSH2 0x14F3 PUSH2 0x14EE DUP5 PUSH2 0x14AF JUMP JUMPDEST PUSH2 0x1494 JUMP JUMPDEST SWAP1 POP DUP1 DUP4 DUP3 MSTORE PUSH1 0x20 DUP3 ADD SWAP1 POP PUSH1 0x20 DUP5 MUL DUP4 ADD DUP6 DUP2 GT ISZERO PUSH2 0x1516 JUMPI PUSH2 0x1515 PUSH2 0x14DB JUMP JUMPDEST JUMPDEST DUP4 JUMPDEST DUP2 DUP2 LT ISZERO PUSH2 0x153F JUMPI DUP1 PUSH2 0x152B DUP9 DUP3 PUSH2 0x1409 JUMP JUMPDEST DUP5 MSTORE PUSH1 0x20 DUP5 ADD SWAP4 POP POP PUSH1 0x20 DUP2 ADD SWAP1 POP PUSH2 0x1518 JUMP JUMPDEST POP POP POP SWAP4 SWAP3 POP POP POP JUMP JUMPDEST PUSH1 0x0 DUP3 PUSH1 0x1F DUP4 ADD SLT PUSH2 0x155E JUMPI PUSH2 0x155D PUSH2 0x141E JUMP JUMPDEST JUMPDEST DUP2 CALLDATALOAD PUSH2 0x156E DUP5 DUP3 PUSH1 0x20 DUP7 ADD PUSH2 0x14E0 JUMP JUMPDEST SWAP2 POP POP SWAP3 SWAP2 POP POP JUMP JUMPDEST PUSH1 0x0 DUP1 PUSH1 0x40 DUP4 DUP6 SUB SLT ISZERO PUSH2 0x158E JUMPI PUSH2 0x158D PUSH2 0x13DE JUMP JUMPDEST JUMPDEST PUSH1 0x0 PUSH2 0x159C DUP6 DUP3 DUP7 ADD PUSH2 0x1409 JUMP JUMPDEST SWAP3 POP POP PUSH1 0x20 DUP4 ADD CALLDATALOAD PUSH8 0xFFFFFFFFFFFFFFFF DUP2 GT ISZERO PUSH2 0x15BD JUMPI PUSH2 0x15BC PUSH2 0x13E3 JUMP JUMPDEST JUMPDEST PUSH2 0x15C9 DUP6 DUP3 DUP7 ADD PUSH2 0x1549 JUMP JUMPDEST SWAP2 POP POP SWAP3 POP SWAP3 SWAP1 POP JUMP JUMPDEST PUSH1 0x0 PUSH4 0xFFFFFFFF DUP3 AND SWAP1 POP SWAP2 SWAP1 POP JUMP JUMPDEST PUSH2 0x15EC DUP2 PUSH2 0x15D3 JUMP JUMPDEST DUP2 EQ PUSH2 0x15F7 JUMPI PUSH1 0x0 DUP1 REVERT JUMPDEST POP JUMP JUMPDEST PUSH1 0x0 DUP2 CALLDATALOAD SWAP1 POP PUSH2 0x1609 DUP2 PUSH2 0x15E3 JUMP JUMPDEST SWAP3 SWAP2 POP POP JUMP JUMPDEST PUSH1 0x0 PUSH1 0x20 DUP3 DUP5 SUB SLT ISZERO PUSH2 0x1625 JUMPI PUSH2 0x1624 PUSH2 0x13DE JUMP JUMPDEST JUMPDEST PUSH1 0x0 PUSH2 0x1633 DUP5 DUP3 DUP6 ADD PUSH2 0x15FA JUMP JUMPDEST SWAP2 POP POP SWAP3 SWAP2 POP POP JUMP JUMPDEST PUSH2 0x1645 DUP2 PUSH2 0x15D3 JUMP JUMPDEST DUP3 MSTORE POP POP JUMP JUMPDEST PUSH1 0x0 PUSH1 0x60 DUP3 ADD SWAP1 POP PUSH2 0x1660 PUSH1 0x0 DUP4 ADD DUP7 PUSH2 0x163C JUMP JUMPDEST PUSH2 0x166D PUSH1 0x20 DUP4 ADD DUP6 PUSH2 0x163C JUMP JUMPDEST PUSH2 0x167A PUSH1 0x40 DUP4 ADD DUP5 PUSH2 0x163C JUMP JUMPDEST SWAP5 SWAP4 POP POP POP POP JUMP JUMPDEST PUSH1 0x0 PUSH20 0xFFFFFFFFFFFFFFFFFFFFFFFFFFFFFFFFFFFFFFFF DUP3 AND SWAP1 POP SWAP2 SWAP1 POP JUMP JUMPDEST PUSH1 0x0 PUSH2 0x16AD DUP3 PUSH2 0x1682 JUMP JUMPDEST SWAP1 POP SWAP2 SWAP1 POP JUMP JUMPDEST PUSH2 0x16BD DUP2 PUSH2 0x16A2 JUMP JUMPDEST DUP2 EQ PUSH2 0x16C8 JUMPI PUSH1 0x0 DUP1 REVERT JUMPDEST POP JUMP JUMPDEST PUSH1 0x0 DUP2 CALLDATALOAD SWAP1 POP PUSH2 0x16DA DUP2 PUSH2 0x16B4 JUMP JUMPDEST SWAP3 SWAP2 POP POP JUMP JUMPDEST PUSH1 0x0 PUSH1 0x20 DUP3 DUP5 SUB SLT ISZERO PUSH2 0x16F6 JUMPI PUSH2 0x16F5 PUSH2 0x13DE JUMP JUMPDEST JUMPDEST PUSH1 0x0 PUSH2 0x1704 DUP5 DUP3 DUP6 ADD PUSH2 0x16CB JUMP JUMPDEST SWAP2 POP POP SWAP3 SWAP2 POP POP JUMP JUMPDEST PUSH1 0x0 DUP2 MLOAD SWAP1 POP SWAP2 SWAP1 POP JUMP JUMPDEST PUSH1 0x0 DUP3 DUP3 MSTORE PUSH1 0x20 DUP3 ADD SWAP1 POP SWAP3 SWAP2 POP POP JUMP JUMPDEST PUSH1 0x0 JUMPDEST DUP4 DUP2 LT ISZERO PUSH2 0x1747 JUMPI DUP1 DUP3 ADD MLOAD DUP2 DUP5 ADD MSTORE PUSH1 0x20 DUP2 ADD SWAP1 POP PUSH2 0x172C JUMP JUMPDEST PUSH1 0x0 DUP5 DUP5 ADD MSTORE POP POP POP POP JUMP JUMPDEST PUSH1 0x0 PUSH2 0x175E DUP3 PUSH2 0x170D JUMP JUMPDEST PUSH2 0x1768 DUP2 DUP6 PUSH2 0x1718 JUMP JUMPDEST SWAP4 POP PUSH2 0x1778 DUP2 DUP6 PUSH1 0x20 DUP7 ADD PUSH2 0x1729 JUMP JUMPDEST PUSH2 0x1781 DUP2 PUSH2 0x1423 JUMP JUMPDEST DUP5 ADD SWAP2 POP POP SWAP3 SWAP2 POP POP JUMP JUMPDEST PUSH1 0x0 PUSH1 0xA0 DUP3 ADD SWAP1 POP PUSH2 0x17A1 PUSH1 0x0 DUP4 ADD DUP9 PUSH2 0x163C JUMP JUMPDEST PUSH2 0x17AE PUSH1 0x20 DUP4 ADD DUP8 PUSH2 0x163C JUMP JUMPDEST PUSH2 0x17BB PUSH1 0x40 DUP4 ADD DUP7 PUSH2 0x163C JUMP JUMPDEST PUSH2 0x17C8 PUSH1 0x60 DUP4 ADD DUP6 PUSH2 0x163C JUMP JUMPDEST DUP2 DUP2 SUB PUSH1 0x80 DUP4 ADD MSTORE PUSH2 0x17DA DUP2 DUP5 PUSH2 0x1753 JUMP JUMPDEST SWAP1 POP SWAP7 SWAP6 POP POP POP POP POP POP JUMP JUMPDEST PUSH1 0x0 DUP2 MLOAD SWAP1 POP SWAP2 SWAP1 POP JUMP JUMPDEST PUSH1 0x0 DUP3 DUP3 MSTORE PUSH1 0x20 DUP3 ADD SWAP1 POP SWAP3 SWAP2 POP POP JUMP JUMPDEST PUSH1 0x0 DUP2 SWAP1 POP PUSH1 0x20 DUP3 ADD SWAP1 POP SWAP2 SWAP1 POP JUMP JUMPDEST PUSH2 0x181B DUP2 PUSH2 0x15D3 JUMP JUMPDEST DUP3 MSTORE POP POP JUMP JUMPDEST PUSH1 0x0 DUP2 ISZERO ISZERO SWAP1 POP SWAP2 SWAP1 POP JUMP JUMPDEST PUSH2 0x1836 DUP2 PUSH2 0x1821 JUMP JUMPDEST DUP3 MSTORE POP POP JUMP JUMPDEST PUSH1 0x0 DUP3 DUP3 MSTORE PUSH1 0x20 DUP3 ADD SWAP1 POP SWAP3 SWAP2 POP POP JUMP JUMPDEST PUSH1 0x0 PUSH2 0x1858 DUP3 PUSH2 0x170D JUMP JUMPDEST PUSH2 0x1862 DUP2 DUP6 PUSH2 0x183C JUMP JUMPDEST SWAP4 POP PUSH2 0x1872 DUP2 DUP6 PUSH1 0x20 DUP7 ADD PUSH2 0x1729 JUMP JUMPDEST PUSH2 0x187B DUP2 PUSH2 0x1423 JUMP JUMPDEST DUP5 ADD SWAP2 POP POP SWAP3 SWAP2 POP POP JUMP JUMPDEST PUSH1 0x0 PUSH1 0xC0 DUP4 ADD PUSH1 0x0 DUP4 ADD MLOAD PUSH2 0x189E PUSH1 0x0 DUP7 ADD DUP3 PUSH2 0x1812 JUMP JUMPDEST POP PUSH1 0x20 DUP4 ADD MLOAD PUSH2 0x18B1 PUSH1 0x20 DUP7 ADD DUP3 PUSH2 0x1812 JUMP JUMPDEST POP PUSH1 0x40 DUP4 ADD MLOAD PUSH2 0x18C4 PUSH1 0x40 DUP7 ADD DUP3 PUSH2 0x1812 JUMP JUMPDEST POP PUSH1 0x60 DUP4 ADD MLOAD PUSH2 0x18D7 PUSH1 0x60 DUP7 ADD DUP3 PUSH2 0x1812 JUMP JUMPDEST POP PUSH1 0x80 DUP4 ADD MLOAD PUSH2 0x18EA PUSH1 0x80 DUP7 ADD DUP3 PUSH2 0x182D JUMP JUMPDEST POP PUSH1 0xA0 DUP4 ADD MLOAD DUP5 DUP3 SUB PUSH1 0xA0 DUP7 ADD MSTORE PUSH2 0x1902 DUP3 DUP3 PUSH2 0x184D JUMP JUMPDEST SWAP2 POP POP DUP1 SWAP2 POP POP SWAP3 SWAP2 POP POP JUMP JUMPDEST PUSH1 0x0 PUSH2 0x191B DUP4 DUP4 PUSH2 0x1886 JUMP JUMPDEST SWAP1 POP SWAP3 SWAP2 POP POP JUMP JUMPDEST PUSH1 0x0 PUSH1 0x20 DUP3 ADD SWAP1 POP SWAP2 SWAP1 POP JUMP JUMPDEST PUSH1 0x0 PUSH2 0x193B DUP3 PUSH2 0x17E6 JUMP JUMPDEST PUSH2 0x1945 DUP2 DUP6 PUSH2 0x17F1 JUMP JUMPDEST SWAP4 POP DUP4 PUSH1 0x20 DUP3 MUL DUP6 ADD PUSH2 0x1957 DUP6 PUSH2 0x1802 JUMP JUMPDEST DUP1 PUSH1 0x0 JUMPDEST DUP6 DUP2 LT ISZERO PUSH2 0x1993 JUMPI DUP5 DUP5 SUB DUP10 MSTORE DUP2 MLOAD PUSH2 0x1974 DUP6 DUP3 PUSH2 0x190F JUMP JUMPDEST SWAP5 POP PUSH2 0x197F DUP4 PUSH2 0x1923 JUMP JUMPDEST SWAP3 POP PUSH1 0x20 DUP11 ADD SWAP10 POP POP PUSH1 0x1 DUP2 ADD SWAP1 POP PUSH2 0x195B JUMP JUMPDEST POP DUP3 SWAP8 POP DUP8 SWAP6 POP POP POP POP POP POP SWAP3 SWAP2 POP POP JUMP JUMPDEST PUSH1 0x0 PUSH1 0x20 DUP3 ADD SWAP1 POP DUP2 DUP2 SUB PUSH1 0x0 DUP4 ADD MSTORE PUSH2 0x19BF DUP2 DUP5 PUSH2 0x1930 JUMP JUMPDEST SWAP1 POP SWAP3 SWAP2 POP POP JUMP JUMPDEST PUSH1 0x0 DUP1 REVERT JUMPDEST PUSH1 0x0 PUSH8 0xFFFFFFFFFFFFFFFF DUP3 GT ISZERO PUSH2 0x19E7 JUMPI PUSH2 0x19E6 PUSH2 0x1434 JUMP JUMPDEST JUMPDEST PUSH2 0x19F0 DUP3 PUSH2 0x1423 JUMP JUMPDEST SWAP1 POP PUSH1 0x20 DUP2 ADD SWAP1 POP SWAP2 SWAP1 POP JUMP JUMPDEST DUP3 DUP2 DUP4 CALLDATACOPY PUSH1 0x0 DUP4 DUP4 ADD MSTORE POP POP POP JUMP JUMPDEST PUSH1 0x0 PUSH2 0x1A1F PUSH2 0x1A1A DUP5 PUSH2 0x19CC JUMP JUMPDEST PUSH2 0x1494 JUMP JUMPDEST SWAP1 POP DUP3 DUP2 MSTORE PUSH1 0x20 DUP2 ADD DUP5 DUP5 DUP5 ADD GT ISZERO PUSH2 0x1A3B JUMPI PUSH2 0x1A3A PUSH2 0x19C7 JUMP JUMPDEST JUMPDEST PUSH2 0x1A46 DUP5 DUP3 DUP6 PUSH2 0x19FD JUMP JUMPDEST POP SWAP4 SWAP3 POP POP POP JUMP JUMPDEST PUSH1 0x0 DUP3 PUSH1 0x1F DUP4 ADD SLT PUSH2 0x1A63 JUMPI PUSH2 0x1A62 PUSH2 0x141E JUMP JUMPDEST JUMPDEST DUP2 CALLDATALOAD PUSH2 0x1A73 DUP5 DUP3 PUSH1 0x20 DUP7 ADD PUSH2 0x1A0C JUMP JUMPDEST SWAP2 POP POP SWAP3 SWAP2 POP POP JUMP JUMPDEST PUSH1 0x0 PUSH1 0x20 DUP3 DUP5 SUB SLT ISZERO PUSH2 0x1A92 JUMPI PUSH2 0x1A91 PUSH2 0x13DE JUMP JUMPDEST JUMPDEST PUSH1 0x0 DUP3 ADD CALLDATALOAD PUSH8 0xFFFFFFFFFFFFFFFF DUP2 GT ISZERO PUSH2 0x1AB0 JUMPI PUSH2 0x1AAF PUSH2 0x13E3 JUMP JUMPDEST JUMPDEST PUSH2 0x1ABC DUP5 DUP3 DUP6 ADD PUSH2 0x1A4E JUMP JUMPDEST SWAP2 POP POP SWAP3 SWAP2 POP POP JUMP JUMPDEST PUSH2 0x1ACE DUP2 PUSH2 0x16A2 JUMP JUMPDEST DUP3 MSTORE POP POP JUMP JUMPDEST PUSH1 0x0 PUSH1 0x40 DUP3 ADD SWAP1 POP PUSH2 0x1AE9 PUSH1 0x0 DUP4 ADD DUP6 PUSH2 0x1AC5 JUMP JUMPDEST PUSH2 0x1AF6 PUSH1 0x20 DUP4 ADD DUP5 PUSH2 0x1AC5 JUMP JUMPDEST SWAP4 SWAP3 POP POP POP JUMP JUMPDEST PUSH32 0x596F75722070726576696F7573207475726E206973207374696C6C20696E2070 PUSH1 0x0 DUP3 ADD MSTORE PUSH32 0x726F677265737300000000000000000000000000000000000000000000000000 PUSH1 0x20 DUP3 ADD MSTORE POP JUMP JUMPDEST PUSH1 0x0 PUSH2 0x1B59 PUSH1 0x27 DUP4 PUSH2 0x1718 JUMP JUMPDEST SWAP2 POP PUSH2 0x1B64 DUP3 PUSH2 0x1AFD JUMP JUMPDEST PUSH1 0x40 DUP3 ADD SWAP1 POP SWAP2 SWAP1 POP JUMP JUMPDEST PUSH1 0x0 PUSH1 0x20 DUP3 ADD SWAP1 POP DUP2 DUP2 SUB PUSH1 0x0 DUP4 ADD MSTORE PUSH2 0x1B88 DUP2 PUSH2 0x1B4C JUMP JUMPDEST SWAP1 POP SWAP2 SWAP1 POP JUMP JUMPDEST PUSH32 0x47616D65206F7665720000000000000000000000000000000000000000000000 PUSH1 0x0 DUP3 ADD MSTORE POP JUMP JUMPDEST PUSH1 0x0 PUSH2 0x1BC5 PUSH1 0x9 DUP4 PUSH2 0x1718 JUMP JUMPDEST SWAP2 POP PUSH2 0x1BD0 DUP3 PUSH2 0x1B8F JUMP JUMPDEST PUSH1 0x20 DUP3 ADD SWAP1 POP SWAP2 SWAP1 POP JUMP JUMPDEST PUSH1 0x0 PUSH1 0x20 DUP3 ADD SWAP1 POP DUP2 DUP2 SUB PUSH1 0x0 DUP4 ADD MSTORE PUSH2 0x1BF4 DUP2 PUSH2 0x1BB8 JUMP JUMPDEST SWAP1 POP SWAP2 SWAP1 POP JUMP JUMPDEST PUSH1 0x0 DUP2 SWAP1 POP SWAP2 SWAP1 POP JUMP JUMPDEST PUSH2 0x1C0E DUP2 PUSH2 0x1BFB JUMP JUMPDEST DUP3 MSTORE POP POP JUMP JUMPDEST PUSH1 0x0 PUSH8 0xFFFFFFFFFFFFFFFF DUP3 AND SWAP1 POP SWAP2 SWAP1 POP JUMP JUMPDEST PUSH2 0x1C31 DUP2 PUSH2 0x1C14 JUMP JUMPDEST DUP3 MSTORE POP POP JUMP JUMPDEST PUSH1 0x0 PUSH2 0xFFFF DUP3 AND SWAP1 POP SWAP2 SWAP1 POP JUMP JUMPDEST PUSH2 0x1C4E DUP2 PUSH2 0x1C37 JUMP JUMPDEST DUP3 MSTORE POP POP JUMP JUMPDEST PUSH1 0x0 PUSH1 0xA0 DUP3 ADD SWAP1 POP PUSH2 0x1C69 PUSH1 0x0 DUP4 ADD DUP9 PUSH2 0x1C05 JUMP JUMPDEST PUSH2 0x1C76 PUSH1 0x20 DUP4 ADD DUP8 PUSH2 0x1C28 JUMP JUMPDEST PUSH2 0x1C83 PUSH1 0x40 DUP4 ADD DUP7 PUSH2 0x1C45 JUMP JUMPDEST PUSH2 0x1C90 PUSH1 0x60 DUP4 ADD DUP6 PUSH2 0x163C JUMP JUMPDEST PUSH2 0x1C9D PUSH1 0x80 DUP4 ADD DUP5 PUSH2 0x163C JUMP JUMPDEST SWAP7 SWAP6 POP POP POP POP POP POP JUMP JUMPDEST PUSH1 0x0 DUP2 MLOAD SWAP1 POP PUSH2 0x1CB6 DUP2 PUSH2 0x13F2 JUMP JUMPDEST SWAP3 SWAP2 POP POP JUMP JUMPDEST PUSH1 0x0 PUSH1 0x20 DUP3 DUP5 SUB SLT ISZERO PUSH2 0x1CD2 JUMPI PUSH2 0x1CD1 PUSH2 0x13DE JUMP JUMPDEST JUMPDEST PUSH1 0x0 PUSH2 0x1CE0 DUP5 DUP3 DUP6 ADD PUSH2 0x1CA7 JUMP JUMPDEST SWAP2 POP POP SWAP3 SWAP2 POP POP JUMP JUMPDEST PUSH32 0x4E487B7100000000000000000000000000000000000000000000000000000000 PUSH1 0x0 MSTORE PUSH1 0x22 PUSH1 0x4 MSTORE PUSH1 0x24 PUSH1 0x0 REVERT JUMPDEST PUSH1 0x0 PUSH1 0x2 DUP3 DIV SWAP1 POP PUSH1 0x1 DUP3 AND DUP1 PUSH2 0x1D30 JUMPI PUSH1 0x7F DUP3 AND SWAP2 POP JUMPDEST PUSH1 0x20 DUP3 LT DUP2 SUB PUSH2 0x1D43 JUMPI PUSH2 0x1D42 PUSH2 0x1CE9 JUMP JUMPDEST JUMPDEST POP SWAP2 SWAP1 POP JUMP JUMPDEST PUSH32 0x4E487B7100000000000000000000000000000000000000000000000000000000 PUSH1 0x0 MSTORE PUSH1 0x32 PUSH1 0x4 MSTORE PUSH1 0x24 PUSH1 0x0 REVERT JUMPDEST PUSH32 0x416C726561647920726567697374657265640000000000000000000000000000 PUSH1 0x0 DUP3 ADD MSTORE POP JUMP JUMPDEST PUSH1 0x0 PUSH2 0x1DAE PUSH1 0x12 DUP4 PUSH2 0x1718 JUMP JUMPDEST SWAP2 POP PUSH2 0x1DB9 DUP3 PUSH2 0x1D78 JUMP JUMPDEST PUSH1 0x20 DUP3 ADD SWAP1 POP SWAP2 SWAP1 POP JUMP JUMPDEST PUSH1 0x0 PUSH1 0x20 DUP3 ADD SWAP1 POP DUP2 DUP2 SUB PUSH1 0x0 DUP4 ADD MSTORE PUSH2 0x1DDD DUP2 PUSH2 0x1DA1 JUMP JUMPDEST SWAP1 POP SWAP2 SWAP1 POP JUMP JUMPDEST PUSH1 0x0 DUP2 SWAP1 POP DUP2 PUSH1 0x0 MSTORE PUSH1 0x20 PUSH1 0x0 KECCAK256 SWAP1 POP SWAP2 SWAP1 POP JUMP JUMPDEST PUSH1 0x0 PUSH1 0x20 PUSH1 0x1F DUP4 ADD DIV SWAP1 POP SWAP2 SWAP1 POP JUMP JUMPDEST PUSH1 0x0 DUP3 DUP3 SHL SWAP1 POP SWAP3 SWAP2 POP POP JUMP JUMPDEST PUSH1 0x0 PUSH1 0x8 DUP4 MUL PUSH2 0x1E46 PUSH32 0xFFFFFFFFFFFFFFFFFFFFFFFFFFFFFFFFFFFFFFFFFFFFFFFFFFFFFFFFFFFFFFFF DUP3 PUSH2 0x1E09 JUMP JUMPDEST PUSH2 0x1E50 DUP7 DUP4 PUSH2 0x1E09 JUMP JUMPDEST SWAP6 POP DUP1 NOT DUP5 AND SWAP4 POP DUP1 DUP7 AND DUP5 OR SWAP3 POP POP POP SWAP4 SWAP3 POP POP POP JUMP JUMPDEST PUSH1 0x0 DUP2 SWAP1 POP SWAP2 SWAP1 POP JUMP JUMPDEST PUSH1 0x0 PUSH2 0x1E8D PUSH2 0x1E88 PUSH2 0x1E83 DUP5 PUSH2 0x13E8 JUMP JUMPDEST PUSH2 0x1E68 JUMP JUMPDEST PUSH2 0x13E8 JUMP JUMPDEST SWAP1 POP SWAP2 SWAP1 POP JUMP JUMPDEST PUSH1 0x0 DUP2 SWAP1 POP SWAP2 SWAP1 POP JUMP JUMPDEST PUSH2 0x1EA7 DUP4 PUSH2 0x1E72 JUMP JUMPDEST PUSH2 0x1EBB PUSH2 0x1EB3 DUP3 PUSH2 0x1E94 JUMP JUMPDEST DUP5 DUP5 SLOAD PUSH2 0x1E16 JUMP JUMPDEST DUP3 SSTORE POP POP POP POP JUMP JUMPDEST PUSH1 0x0 SWAP1 JUMP JUMPDEST PUSH2 0x1ED0 PUSH2 0x1EC3 JUMP JUMPDEST PUSH2 0x1EDB DUP2 DUP5 DUP5 PUSH2 0x1E9E JUMP JUMPDEST POP POP POP JUMP JUMPDEST JUMPDEST DUP2 DUP2 LT ISZERO PUSH2 0x1EFF JUMPI PUSH2 0x1EF4 PUSH1 0x0 DUP3 PUSH2 0x1EC8 JUMP JUMPDEST PUSH1 0x1 DUP2 ADD SWAP1 POP PUSH2 0x1EE1 JUMP JUMPDEST POP POP JUMP JUMPDEST PUSH1 0x1F DUP3 GT ISZERO PUSH2 0x1F44 JUMPI PUSH2 0x1F15 DUP2 PUSH2 0x1DE4 JUMP JUMPDEST PUSH2 0x1F1E DUP5 PUSH2 0x1DF9 JUMP JUMPDEST DUP2 ADD PUSH1 0x20 DUP6 LT ISZERO PUSH2 0x1F2D JUMPI DUP2 SWAP1 POP JUMPDEST PUSH2 0x1F41 PUSH2 0x1F39 DUP6 PUSH2 0x1DF9 JUMP JUMPDEST DUP4 ADD DUP3 PUSH2 0x1EE0 JUMP JUMPDEST POP POP JUMPDEST POP POP POP JUMP JUMPDEST PUSH1 0x0 DUP3 DUP3 SHR SWAP1 POP SWAP3 SWAP2 POP POP JUMP JUMPDEST PUSH1 0x0 PUSH2 0x1F67 PUSH1 0x0 NOT DUP5 PUSH1 0x8 MUL PUSH2 0x1F49 JUMP JUMPDEST NOT DUP1 DUP4 AND SWAP2 POP POP SWAP3 SWAP2 POP POP JUMP JUMPDEST PUSH1 0x0 PUSH2 0x1F80 DUP4 DUP4 PUSH2 0x1F56 JUMP JUMPDEST SWAP2 POP DUP3 PUSH1 0x2 MUL DUP3 OR SWAP1 POP SWAP3 SWAP2 POP POP JUMP JUMPDEST PUSH2 0x1F99 DUP3 PUSH2 0x170D JUMP JUMPDEST PUSH8 0xFFFFFFFFFFFFFFFF DUP2 GT ISZERO PUSH2 0x1FB2 JUMPI PUSH2 0x1FB1 PUSH2 0x1434 JUMP JUMPDEST JUMPDEST PUSH2 0x1FBC DUP3 SLOAD PUSH2 0x1D18 JUMP JUMPDEST PUSH2 0x1FC7 DUP3 DUP3 DUP6 PUSH2 0x1F03 JUMP JUMPDEST PUSH1 0x0 PUSH1 0x20 SWAP1 POP PUSH1 0x1F DUP4 GT PUSH1 0x1 DUP2 EQ PUSH2 0x1FFA JUMPI PUSH1 0x0 DUP5 ISZERO PUSH2 0x1FE8 JUMPI DUP3 DUP8 ADD MLOAD SWAP1 POP JUMPDEST PUSH2 0x1FF2 DUP6 DUP3 PUSH2 0x1F74 JUMP JUMPDEST DUP7 SSTORE POP PUSH2 0x205A JUMP JUMPDEST PUSH1 0x1F NOT DUP5 AND PUSH2 0x2008 DUP7 PUSH2 0x1DE4 JUMP JUMPDEST PUSH1 0x0 JUMPDEST DUP3 DUP2 LT ISZERO PUSH2 0x2030 JUMPI DUP5 DUP10 ADD MLOAD DUP3 SSTORE PUSH1 0x1 DUP3 ADD SWAP2 POP PUSH1 0x20 DUP6 ADD SWAP5 POP PUSH1 0x20 DUP2 ADD SWAP1 POP PUSH2 0x200B JUMP JUMPDEST DUP7 DUP4 LT ISZERO PUSH2 0x204D JUMPI DUP5 DUP10 ADD MLOAD PUSH2 0x2049 PUSH1 0x1F DUP10 AND DUP3 PUSH2 0x1F56 JUMP JUMPDEST DUP4 SSTORE POP JUMPDEST PUSH1 0x1 PUSH1 0x2 DUP9 MUL ADD DUP9 SSTORE POP POP POP JUMPDEST POP POP POP POP POP POP JUMP JUMPDEST PUSH1 0x0 DUP2 SWAP1 POP SWAP3 SWAP2 POP POP JUMP JUMPDEST PUSH1 0x0 PUSH2 0x2078 DUP3 PUSH2 0x170D JUMP JUMPDEST PUSH2 0x2082 DUP2 DUP6 PUSH2 0x2062 JUMP JUMPDEST SWAP4 POP PUSH2 0x2092 DUP2 DUP6 PUSH1 0x20 DUP7 ADD PUSH2 0x1729 JUMP JUMPDEST DUP1 DUP5 ADD SWAP2 POP POP SWAP3 SWAP2 POP POP JUMP JUMPDEST PUSH1 0x0 PUSH2 0x20AA DUP3 DUP5 PUSH2 0x206D JUMP JUMPDEST SWAP2 POP DUP2 SWAP1 POP SWAP3 SWAP2 POP POP JUMP JUMPDEST PUSH32 0x4E487B7100000000000000000000000000000000000000000000000000000000 PUSH1 0x0 MSTORE PUSH1 0x12 PUSH1 0x4 MSTORE PUSH1 0x24 PUSH1 0x0 REVERT JUMPDEST PUSH1 0x0 PUSH2 0x20EF DUP3 PUSH2 0x13E8 JUMP JUMPDEST SWAP2 POP PUSH2 0x20FA DUP4 PUSH2 0x13E8 JUMP JUMPDEST SWAP3 POP DUP3 PUSH2 0x210A JUMPI PUSH2 0x2109 PUSH2 0x20B5 JUMP JUMPDEST JUMPDEST DUP3 DUP3 MOD SWAP1 POP SWAP3 SWAP2 POP POP JUMP JUMPDEST PUSH32 0x4E487B7100000000000000000000000000000000000000000000000000000000 PUSH1 0x0 MSTORE PUSH1 0x11 PUSH1 0x4 MSTORE PUSH1 0x24 PUSH1 0x0 REVERT JUMPDEST PUSH1 0x0 PUSH2 0x214F DUP3 PUSH2 0x13E8 JUMP JUMPDEST SWAP2 POP PUSH2 0x215A DUP4 PUSH2 0x13E8 JUMP JUMPDEST SWAP3 POP DUP3 DUP3 ADD SWAP1 POP DUP1 DUP3 GT ISZERO PUSH2 0x2172 JUMPI PUSH2 0x2171 PUSH2 0x2115 JUMP JUMPDEST JUMPDEST SWAP3 SWAP2 POP POP JUMP JUMPDEST PUSH1 0x0 PUSH2 0x2183 DUP3 PUSH2 0x15D3 JUMP JUMPDEST SWAP2 POP PUSH2 0x218E DUP4 PUSH2 0x15D3 JUMP JUMPDEST SWAP3 POP DUP3 DUP3 ADD SWAP1 POP PUSH4 0xFFFFFFFF DUP2 GT ISZERO PUSH2 0x21AA JUMPI PUSH2 0x21A9 PUSH2 0x2115 JUMP JUMPDEST JUMPDEST SWAP3 SWAP2 POP POP JUMP INVALID LOG2 PUSH5 0x6970667358 0x22 SLT KECCAK256 XOR 0xC5 DUP14 0x2C 0xBB 0xB9 0xDE 0xC6 PUSH20 0x963788FED05CB1BE545232A9CD2D106F00E763C8 SWAP3 0xEB PUSH1 0x64 PUSH20 0x6F6C634300081100330000000000000000000000 "
		},
		"gasEstimates": {
			"creation": {
				"codeDepositCost": "1735600",
				"executionCost": "infinite",
				"totalCost": "infinite"
			},
			"external": {
				"getAllPlayers()": "infinite",
				"getReward(uint32)": "infinite",
				"getScore(address)": "infinite",
				"rawFulfillRandomWords(uint256,uint256[])": "infinite",
				"register(string)": "infinite",
				"roleDice()": "infinite"
			},
			"internal": {
				"fulfillRandomWords(uint256,uint256[] memory)": "infinite"
			}
		},
		"methodIdentifiers": {
			"getAllPlayers()": "efa1c482",
			"getReward(uint32)": "2f0c2c7c",
			"getScore(address)": "d47875d0",
			"rawFulfillRandomWords(uint256,uint256[])": "1fe543e3",
			"register(string)": "f2c298be",
			"roleDice()": "c7b3c11e"
		}
	},
	"abi": [
		{
			"inputs": [
				{
					"internalType": "uint64",
					"name": "subscriptionId",
					"type": "uint64"
				},
				{
					"internalType": "address",
					"name": "vrfCoordinator",
					"type": "address"
				},
				{
					"internalType": "bytes32",
					"name": "keyHash",
					"type": "bytes32"
				},
				{
					"internalType": "uint32",
					"name": "callbackGasLimit",
					"type": "uint32"
				},
				{
					"internalType": "uint16",
					"name": "requestConfirmations",
					"type": "uint16"
				}
			],
			"stateMutability": "nonpayable",
			"type": "constructor"
		},
		{
			"inputs": [
				{
					"internalType": "address",
					"name": "have",
					"type": "address"
				},
				{
					"internalType": "address",
					"name": "want",
					"type": "address"
				}
			],
			"name": "OnlyCoordinatorCanFulfill",
			"type": "error"
		},
		{
			"anonymous": false,
			"inputs": [
				{
					"indexed": true,
					"internalType": "address",
					"name": "player",
					"type": "address"
				},
				{
					"indexed": true,
					"internalType": "uint32",
					"name": "newFieldPosition",
					"type": "uint32"
				}
			],
			"name": "Moved",
			"type": "event"
		},
		{
			"anonymous": false,
			"inputs": [
				{
					"indexed": true,
					"internalType": "address",
					"name": "player",
					"type": "address"
				},
				{
					"indexed": true,
					"internalType": "string",
					"name": "name",
					"type": "string"
				}
			],
			"name": "NewPlayer",
			"type": "event"
		},
		{
			"anonymous": false,
			"inputs": [
				{
					"indexed": true,
					"internalType": "address",
					"name": "player",
					"type": "address"
				}
			],
			"name": "NewTurn",
			"type": "event"
		},
		{
			"inputs": [],
			"name": "getAllPlayers",
			"outputs": [
				{
					"components": [
						{
							"internalType": "uint32",
							"name": "fieldPosition",
							"type": "uint32"
						},
						{
							"internalType": "uint32",
							"name": "happiness",
							"type": "uint32"
						},
						{
							"internalType": "uint32",
							"name": "speed",
							"type": "uint32"
						},
						{
							"internalType": "uint32",
							"name": "wealth",
							"type": "uint32"
						},
						{
							"internalType": "bool",
							"name": "isYourTurnInProgress",
							"type": "bool"
						},
						{
							"internalType": "string",
							"name": "name",
							"type": "string"
						}
					],
					"internalType": "struct BoardGame.Profile[]",
					"name": "",
					"type": "tuple[]"
				}
			],
			"stateMutability": "view",
			"type": "function"
		},
		{
			"inputs": [
				{
					"internalType": "uint32",
					"name": "fieldPosition",
					"type": "uint32"
				}
			],
			"name": "getReward",
			"outputs": [
				{
					"internalType": "uint32",
					"name": "happiness",
					"type": "uint32"
				},
				{
					"internalType": "uint32",
					"name": "speed",
					"type": "uint32"
				},
				{
					"internalType": "uint32",
					"name": "wealth",
					"type": "uint32"
				}
			],
			"stateMutability": "pure",
			"type": "function"
		},
		{
			"inputs": [
				{
					"internalType": "address",
					"name": "player",
					"type": "address"
				}
			],
			"name": "getScore",
			"outputs": [
				{
					"internalType": "uint32",
					"name": "happiness",
					"type": "uint32"
				},
				{
					"internalType": "uint32",
					"name": "speed",
					"type": "uint32"
				},
				{
					"internalType": "uint32",
					"name": "wealth",
					"type": "uint32"
				},
				{
					"internalType": "uint32",
					"name": "fieldPosition",
					"type": "uint32"
				},
				{
					"internalType": "string",
					"name": "name",
					"type": "string"
				}
			],
			"stateMutability": "view",
			"type": "function"
		},
		{
			"inputs": [
				{
					"internalType": "uint256",
					"name": "requestId",
					"type": "uint256"
				},
				{
					"internalType": "uint256[]",
					"name": "randomWords",
					"type": "uint256[]"
				}
			],
			"name": "rawFulfillRandomWords",
			"outputs": [],
			"stateMutability": "nonpayable",
			"type": "function"
		},
		{
			"inputs": [
				{
					"internalType": "string",
					"name": "name",
					"type": "string"
				}
			],
			"name": "register",
			"outputs": [],
			"stateMutability": "nonpayable",
			"type": "function"
		},
		{
			"inputs": [],
			"name": "roleDice",
			"outputs": [],
			"stateMutability": "nonpayable",
			"type": "function"
		}
	]
}